:02000004080EE4
:10000000000002200DFE0E086D290E08CD2B0E08F3
:10001000DB2B0E08E12B0E08E72B0E08000000007A
:10002000000000000000000000000000ED2B0E08A2
:10003000092C0E0800000000FB2B0E08392C0E08BE
:10004000F1290E08BF2B0E08172B0E08252B0E08C2
:10005000ED2A0E08FF290E08A92C0E08B72C0E0851
:10006000C52C0E08D32C0E08E12C0E08092B0E0807
:100070001B2A0E08292A0E08372A0E08452A0E08C0
:10008000532A0E08612A0E080D2A0E0873290E083D
:1000900081290E08D5290E08E3290E08EF2C0E0839
:1000A000A52D0E08432D0E08512D0E085F2D0E08AC
:1000B0006D2D0E087B2D0E08892D0E08C12D0E0802
:1000C000B32D0E08DD2D0E08CF2D0E080F2C0E08B7
:1000D0001D2C0E08572C0E08652C0E08732C0E08CC
:1000E000FD2C0E08152E0E08B12B0E08952B0E08B0
:1000F000A32B0E08872B0E08792B0E086F2A0E08EB
:10010000AB290E08492C0E08972D0E082B2C0E0833
:100110004F2B0E08332B0E086B2B0E085D2B0E0891
:100120007D2A0E088B2A0E08992A0E08A72A0E0887
:10013000B52A0E085DFE0E085DFE0E088F290E081A
:100140009D290E08C7290E08B9290E080B2D0E0887
:10015000C32A0E08D12A0E08DF2A0E089B2C0E088F
:10016000EB2D0E08F92D0E08192D0E08272D0E085F
:10017000412B0E08352D0E085DFE0E080000000014
:08018000072E0E08FB2A0E08F1
:1001C00010B5054C237833B9044B13B10448AFF391
:1001D00000800123237010BD88170020000000005C
:1001E00058680F0808B5034B1BB103490348AFF328
:1001F000008008BD000000008C17002058680F0820
:1002000081F0004102E000BF83F0004330B54FEAC7
:1002100041044FEA430594EA050F08BF90EA020F34
:100220001FBF54EA000C55EA020C7FEA645C7FEAC7
:10023000655C00F0E2804FEA5454D4EB5555B8BFEA
:100240006D420CDD2C4480EA020281EA030382EA5B
:10025000000083EA010180EA020281EA0303362DED
:1002600088BF30BD11F0004F4FEA01314FF4801CC0
:100270004CEA113102D0404261EB410113F0004FD2
:100280004FEA03334CEA133302D0524263EB430389
:1002900094EA050F00F0A780A4F10104D5F1200E27
:1002A0000DDB02FA0EFC22FA05F2801841F1000182
:1002B00003FA0EF2801843FA05F359410EE0A5F156
:1002C00020050EF1200E012A03FA0EFC28BF4CF087
:1002D000020C43FA05F3C01851EBE37101F000453D
:1002E00007D54FF0000EDCF1000C7EEB00006EEB4A
:1002F0000101B1F5801F1BD3B1F5001F0CD34908D4
:100300005FEA30004FEA3C0C04F101044FEA44522A
:1003100012F5800F80F09A80BCF1004F08BF5FEAB1
:10032000500C50F1000041EB045141EA050130BD91
:100330005FEA4C0C404141EB0101013C28BFB1F5A3
:10034000801FE9D291F0000F04BF01460020B1FAEE
:1003500081F308BF2033A3F10B03B3F120020CDAC1
:100360000C3208DD02F1140CC2F10C0201FA0CF09F
:1003700021FA02F10CE002F11402D8BFC2F1200C04
:1003800001FA02F120FA0CFCDCBF41EA0C019040BA
:10039000E41AA2BF01EB0451294330BD6FEA040403
:1003A0001F3C1CDA0C340EDC04F11404C4F12002EE
:1003B00020FA04F001FA02F340EA030021FA04F300
:1003C00045EA030130BDC4F10C04C4F1200220FA57
:1003D00002F001FA04F340EA0300294630BD21FA95
:1003E00004F0294630BD94F0000F83F4801306BF5B
:1003F00081F480110134013D4EE77FEA645C18BF4F
:100400007FEA655C29D094EA050F08BF90EA020FE5
:1004100005D054EA000C04BF1946104630BD91EADD
:10042000030F1EBF0021002030BD5FEA545C05D1E0
:100430004000494128BF41F0004130BD14F580041F
:100440003CBF01F5801130BD01F0004545F0FE4193
:1004500041F470014FF0000030BD7FEA645C1ABFC8
:10046000194610467FEA655C1CBF0B46024650EAFF
:10047000013406BF52EA033591EA030F41F400212B
:1004800030BD00BF90F0000F04BF0021704730B5B1
:100490004FF4806404F132044FF000054FF0000186
:1004A00050E700BF90F0000F04BF0021704730B547
:1004B0004FF4806404F1320410F0004548BF40421C
:1004C0004FF000013EE700BF42004FEAE2014FEA71
:1004D00031014FEA02701FBF12F07F4393F07F4F4C
:1004E00081F06051704732F07F4208BF704793F04F
:1004F0007F4F04BF41F40021704730B54FF4607462
:1005000001F0004521F000411CE700BF50EA010264
:1005100008BF704730B54FF000050AE050EA01020D
:1005200008BF704730B511F0004502D5404261EB7D
:1005300041014FF4806404F132045FEA915C3FF4BE
:10054000D8AE4FF003025FEADC0C18BF03325FEA5B
:10055000DC0C18BF033202EBDC02C2F1200300FA0C
:1005600003FC20FA02F001FA03FE40EA0E0021FA31
:1005700002F11444BDE600BF70B54FF0FF0C4CF41F
:10058000E06C1CEA11541DBF1CEA135594EA0C0FD1
:1005900095EA0C0F00F0DEF82C4481EA030621EA0C
:1005A0004C5123EA4C5350EA013518BF52EA033547
:1005B00041F4801143F4801338D0A0FB02CE4FF0F9
:1005C0000005E1FB02E506F00042E0FB03E54FF029
:1005D0000006E1FB03569CF0000F18BF4EF0010E21
:1005E000A4F1FF04B6F5007F64F5407404D25FEA1D
:1005F0004E0E6D4146EB060642EAC62141EA5551D0
:100600004FEAC52040EA5E504FEACE2EB4F1FD0C11
:1006100088BFBCF5E06F1ED8BEF1004F08BF5FEA8F
:10062000500E50F1000041EB045170BD06F0004641
:1006300046EA010140EA020081EA0301B4EB5C04EE
:10064000C2BFD4EB0C0541EA045170BD41F48011E6
:100650004FF0000E013C00F3AB8014F1360FDEBF0B
:10066000002001F0004170BDC4F10004203C35DAE7
:100670000C341BDC04F11404C4F1200500FA05F36A
:1006800020FA04F001FA05F240EA020001F000420B
:1006900021F0004110EBD37021FA04F642EB060181
:1006A0005EEA430E08BF20EAD37070BDC4F10C04AB
:1006B000C4F1200500FA04F320FA05F001FA04F26F
:1006C00040EA020001F0004110EBD37041F100015B
:1006D0005EEA430E08BF20EAD37070BDC4F1200566
:1006E00000FA05F24EEA020E20FA04F301FA05F2CE
:1006F00043EA020321FA04F001F0004121FA04F276
:1007000020EA020000EBD3705EEA430E08BF20EA45
:10071000D37070BD94F0000F0FD101F0004640007F
:1007200041EB010111F4801F08BF013CF7D041EA01
:10073000060195F0000F18BF704703F00046520005
:1007400043EB030313F4801F08BF013DF7D043EAD6
:100750000603704794EA0C0F0CEA135518BF95EA8C
:100760000C0F0CD050EA410618BF52EA4306D1D113
:1007700081EA030101F000414FF0000070BD50EA32
:10078000410606BF1046194652EA430619D094EABC
:100790000C0F02D150EA013613D195EA0C0F05D1A6
:1007A00052EA03361CBF104619460AD181EA0301FA
:1007B00001F0004141F0FE4141F470014FF00000B2
:1007C00070BD41F0FE4141F4780170BD70B54FF04D
:1007D000FF0C4CF4E06C1CEA11541DBF1CEA1355CD
:1007E00094EA0C0F95EA0C0F00F0A7F8A4EB0504AF
:1007F00081EA030E52EA03354FEA013100F08880A6
:100800004FEA03334FF0805545EA131343EA12636E
:100810004FEA022245EA111545EA10654FEA002623
:100820000EF000419D4208BF964244F1FD0404F5DC
:10083000407402D25B084FEA3202B61A65EB030538
:100840005B084FEA32024FF480104FF4002CB6EBF5
:10085000020E75EB030E22BFB61A754640EA0C0075
:100860005B084FEA3202B6EB020E75EB030E22BFB5
:10087000B61A754640EA5C005B084FEA3202B6EBF6
:10088000020E75EB030E22BFB61A754640EA9C00B5
:100890005B084FEA3202B6EB020E75EB030E22BF85
:1008A000B61A754640EADC0055EA060E18D04FEA43
:1008B000051545EA16754FEA06164FEAC30343EAE3
:1008C00052734FEAC2025FEA1C1CC0D111F4801FB0
:1008D0000BD141EA00014FF000004FF0004CB6E7A9
:1008E00011F4801F04BF01430020B4F1FD0C88BF48
:1008F000BCF5E06F3FF6AFAEB5EB030C04BFB6EB53
:10090000020C5FEA500C50F1000041EB045170BD45
:100910000EF0004E4EEA113114EB5C04C2BFD4EB72
:100920000C0541EA045170BD41F480114FF0000EF6
:10093000013C90E645EA060E8DE60CEA135594EA72
:100940000C0F08BF95EA0C0F3FF43BAF94EA0C0F75
:100950000AD150EA01347FF434AF95EA0C0F7FF4EA
:1009600025AF104619462CE795EA0C0F06D152EA3E
:1009700003353FF4FDAE1046194622E750EA410622
:1009800018BF52EA43067FF4C5AE50EA41047FF433
:100990000DAF52EA43057FF4EBAE12E74FF0FF3C98
:1009A00006E000BF4FF0010C02E000BF4FF0010C69
:1009B0004DF804CD4FEA410C7FEA6C5C4FEA430CE2
:1009C00018BF7FEA6C5C1BD001B050EA410C0CBF31
:1009D00052EA430C91EA030F02BF90EA020F002093
:1009E000704710F1000F91EA030F58BF994208BFFA
:1009F00090422CBFD8176FEAE37040F001007047B7
:100A00004FEA410C7FEA6C5C02D150EA013C07D10D
:100A10004FEA430C7FEA6C5CD6D152EA033CD3D058
:100A20005DF8040B704700BF8446104662468C4652
:100A30001946634600E000BF01B5FFF7B7FF002885
:100A400048BF10F1000F01BD4DF808EDFFF7F4FFAE
:100A50000CBF012000205DF808FB00BF4DF808ED39
:100A6000FFF7EAFF34BF012000205DF808FB00BF5C
:100A70004DF808EDFFF7E0FF94BF012000205DF87E
:100A800008FB00BF4DF808EDFFF7CEFF94BF012033
:100A900000205DF808FB00BF4DF808EDFFF7C4FF2C
:100AA00034BF012000205DF808FB00BF4FEA41027F
:100AB00012F5001215D211D56FF47873B3EB6252B0
:100AC00012D94FEAC12343F0004343EA505311F0D7
:100AD000004F23FA02F018BF404270474FF0000069
:100AE000704750EA013005D111F0004008BF6FF0A7
:100AF000004070474FF00000704700BF4A0011D21D
:100B000012F5001211D20DD56FF47873B3EB625267
:100B10000ED44FEAC12343F0004343EA505323FA73
:100B200002F070474FF00000704750EA013002D1E8
:100B30004FF0FF3070474FF00000704753B94AB98B
:100B4000002908BF00281CBF4FF0FF314FF0FF30D5
:100B500000F074B9ADF1080C6DE904CE00F006F8B0
:100B6000DDF804E0DDE9022304B070472DE9F04729
:100B7000089D04468E46002B4DD18A42944669D981
:100B8000B2FA82F252B101FA02F3C2F1200120FA64
:100B900001F10CFA02FC41EA030E94404FEA1C48B2
:100BA000210CBEFBF8F61FFA8CF708FB16E341EAAE
:100BB000034306FB07F199420AD91CEB030306F134
:100BC000FF3080F01F81994240F21C81023E634455
:100BD0005B1AA4B2B3FBF8F008FB103344EA0344F9
:100BE00000FB07F7A7420AD91CEB040400F1FF330E
:100BF00080F00A81A74240F207816444023840EA4B
:100C00000640E41B00261DB1D4400023C5E9004383
:100C10003146BDE8F0878B4209D9002D00F0EF8006
:100C20000026C5E9000130463146BDE8F087B3FA39
:100C300083F6002E4AD18B4202D3824200F2F98021
:100C4000841A61EB030301209E46002DE0D0C5E924
:100C5000004EDDE702B9FFDEB2FA82F2002A40F070
:100C60009280A1EB0C014FEA1C471FFA8CFE012673
:100C7000200CB1FBF7F307FB131140EA01410EFB17
:100C800003F0884208D91CEB010103F1FF3802D2BE
:100C9000884200F2CB804346091AA4B2B1FBF7F0B8
:100CA00007FB101144EA01440EFB00FEA64508D9DB
:100CB0001CEB040400F1FF3102D2A64500F2BB8018
:100CC0000846A4EB0E0440EA03409CE7C6F1200767
:100CD000B34022FA07FC4CEA030C20FA07F401FAAD
:100CE00006F31C43F9404FEA1C4900FA06F3B1FB36
:100CF000F9F8200C1FFA8CFE09FB181140EA01419B
:100D000008FB0EF0884202FA06F20BD91CEB010137
:100D100008F1FF3A80F08880884240F28580A8F18F
:100D200002086144091AA4B2B1FBF9F009FB1011E1
:100D300044EA014100FB0EFE8E4508D91CEB01017F
:100D400000F1FF346CD28E456AD90238614440EA22
:100D50000840A0FB0294A1EB0E01A142C846A646A2
:100D600056D353D05DB1B3EB080261EB0E0101FA2B
:100D700007F722FA06F3F1401F43C5E90071002688
:100D80003146BDE8F087C2F12003D8400CFA02FCDE
:100D900021FA03F3914001434FEA1C471FFA8CFEEE
:100DA000B3FBF7F007FB10360B0C43EA064300FBDE
:100DB0000EF69E4204FA02F408D91CEB030300F17C
:100DC000FF382FD29E422DD9023863449B1B89B233
:100DD000B3FBF7F607FB163341EA034106FB0EF3BC
:100DE0008B4208D91CEB010106F1FF3816D28B4269
:100DF00014D9023E6144C91A46EA004638E72E4635
:100E0000284605E70646E3E61846F8E64B45A9D22C
:100E1000B9EB020864EB0C0E0138A3E74646EAE79B
:100E2000204694E74046D1E7D0467BE7023B614449
:100E300032E7304609E76444023842E7704700BFB2
:100E4000844641EA000313F003036DD1403A41D3D5
:100E500051F8043B40F8043B51F8043B40F8043B94
:100E600051F8043B40F8043B51F8043B40F8043B84
:100E700051F8043B40F8043B51F8043B40F8043B74
:100E800051F8043B40F8043B51F8043B40F8043B64
:100E900051F8043B40F8043B51F8043B40F8043B54
:100EA00051F8043B40F8043B51F8043B40F8043B44
:100EB00051F8043B40F8043B51F8043B40F8043B34
:100EC00051F8043B40F8043B51F8043B40F8043B24
:100ED000403ABDD2303211D351F8043B40F8043BC4
:100EE00051F8043B40F8043B51F8043B40F8043B04
:100EF00051F8043B40F8043B103AEDD20C3205D3D4
:100F000051F8043B40F8043B043AF9D2043208D0CB
:100F1000D2071CBF11F8013B00F8013B01D30B883D
:100F200003806046704700BF082A13D38B078DD01B
:100F300010F003038AD0C3F10403D21ADB071CBFED
:100F400011F8013B00F8013B80D331F8023B20F857
:100F5000023B7BE7043AD9D3013A11F8013B00F890
:100F6000013BF9D20B7803704B7843708B78837018
:100F70006046704700000000000000000000000014
:100F8000A2EB0300704700BF02780B78012A28BF4C
:100F90009A42F5D16DE9044540EA0104CDE90267C2
:100FA0006FF0000C4FEA447212B380EA010414F0AF
:100FB000070F6AD100F0070420F0070004F00305D2
:100FC00021F007014FEAC505F0E8042314F0040FEF
:100FD000F1E804670CFA05F462EA040266EA040622
:100FE0000AD063EA0403624667EA0407664603E040
:100FF000F0E80423F1E8046782FA4CF582EA06047B
:10100000A4FA8CF46CBB83FA4CF583EA0705A5FAC5
:101010008CF595B950E9022351E9026782FA4CF543
:1010200082EA0604A4FA8CF483FA4CF583EA0705F5
:10103000A5FA8CF52543DBD09CB92DBAB5FA85F419
:1010400024F0070427FA04F1DDE9026723FA04F328
:1010500003F0FF0001F0FF01FDE80445A0EB0100F3
:10106000704724BAB4FA84F424F0070426FA04F191
:10107000DDE9026722FA04F202F0FF0001F0FF014D
:10108000FDE80445A0EB0100704714F0030F3CD1CC
:1010900010F0030428D150F8082B51F8083B82FACD
:1010A0004CF582EA0305A5FA8CF55DB950F8042CDD
:1010B00051F8043C82FA4CF582EA0305A5FA8CF556
:1010C000002DE8D02DBAB5FA85F424F0070423FAF0
:1010D00004F122FA04F202F0FF0001F0FF01FDE842
:1010E0000445A0EB010070474FEAC40420F0030060
:1010F00050F8082B21F0030151F8083B0CFA04F4D6
:1011000062EA040263EA0403C9E710F003041AD098
:10111000A1EB040120F00300E40750F8042B06D0F3
:101120000FD28B785FFAA2F4E41A06D12BB1CB78F8
:101130005FFAB2F4E41A00D11BB920465DF8104BF7
:10114000704701F1040150F8042BCC0721F0030192
:1011500051F8043B48D824D222F07F4482FA4CF55F
:1011600094EA1325A5FA8CF50AD165B951F8043B28
:1011700084EA0204B4EB036F0ED150F8042BEBE7C2
:101180004FEA132355E035F07F454DD10878FDE84F
:101190000445C0F1000070474FEA126203F0FF03FC
:1011A00047E002EA1C4482FA4CF594EA1345A5FA9A
:1011B0008CF50AD165B951F8043B84EA0204B4EB1A
:1011C000034F0CD150F8042BEBE74FEA134330E008
:1011D00015EA1C4528D10B884FEA124229E04FEA54
:1011E000124203EA1C4324E002F0FF0482FA4CF5A9
:1011F00094EA1365A5FA8CF50AD165B951F8043B58
:1012000084EA0204B4EB032F09D150F8042BEBE776
:101210004FEA13630DE015F0FF0F05D10B684FEA9D
:10122000122223F07F4304E04FF00000FDE8044564
:10123000704712BA1BBA82FA4CF482EA0304A4FA89
:101240008CF5B5FA85F402FA04F203FA04F34FEAD6
:101250001260FDE80445A0EB136070470000000039
:10126000000000000000000000000000000000007E
:10127000000000000000000000000000000000006E
:1012800090F800F06DE9024520F007016FF0000CC6
:1012900010F0070491F820F040F049804FF000046E
:1012A0006FF00700D1E9002391F840F000F1080049
:1012B00082FA4CF2A4FA8CF283FA4CF3A2FA8CF381
:1012C0004BBBD1E9022382FA4CF200F10800A4FAE8
:1012D0008CF283FA4CF3A2FA8CF3E3B9D1E904233C
:1012E00082FA4CF200F10800A4FA8CF283FA4CF373
:1012F000A2FA8CF37BB9D1E9062301F1200182FA2D
:101300004CF200F10800A4FA8CF283FA4CF3A2FA32
:101310008CF3002BC6D0002A04BF04301A4612BA40
:10132000B2FA82F2FDE8024500EBD2007047D1E943
:10133000002304F00305C4F100004FEAC50514F0D2
:10134000040F91F840F00CFA05F562EA05021CBFA3
:1013500063EA050362464FF00004A9E700000000BD
:1013600001F0FF01102A2BDB10F0070F08D010F856
:10137000013B013A8B422DD010F0070F42B3F6D15A
:10138000F0B441EA012141EA014122F007047FF073
:1013900000070023F0E80256083C85EA010586EACA
:1013A000010685FA47F5A3FA87F586FA47F6A5FA06
:1013B00087F68EB9EED1F0BC01F0FF0102F0070212
:1013C00032B110F8013B013A83EA010313B1F8D1BD
:1013D0000020704701387047002D06BF354603389E
:1013E000073815F0010F07D1013015F4807F02BFD7
:1013F000013015F4C03F0130F0BC0138704700BF28
:101400004FEA410C7FEA6C5C02D150EA013C0AD100
:101410004FEA430C7FEA6C5C02D152EA033C02D1F2
:101420004FF0000070474FF00100704780B594B056
:1014300000AF012387F84F3007F11C033022002151
:1014400018460FF097F807F1080300221A605A6057
:101450009A60DA601A6100237B603D4B1B6C3C4A4A
:1014600043F0805313643A4B1B6C03F080537B6052
:101470007B6800233B60374B1B68364A43F480434C
:101480001360344B1B6803F480433B603B680923C3
:10149000FB614FF480333B6201233B6302237B6398
:1014A0004FF48003BB630C23FB63C0233B64042322
:1014B0007B640423BB6407F11C0318460CF07CFB1F
:1014C000034687F84E3097F84E30002B0DD000239E
:1014D00087F84F3097F84E30184601F013FA03465C
:1014E0001A461D49232004F0B7FD97F84F30002B12
:1014F00027D00F23BB600223FB6000233B614FF426
:1015000080537B610023BB6107F10803012118466A
:101510000CF0CAFD034687F84E300CF0CDF997F871
:101520004E30002B0DD0002387F84F3097F84E3007
:10153000184601F0E7F903461A460749232004F04C
:101540008BFD97F84F3018465037BD4680BD00BF21
:10155000003802400070004070680F0880B400AF8F
:10156000084BD3F88830074A43F47003C2F8883038
:10157000044B4FF000629A6000BFBD465DF8047BEB
:10158000704700BF00ED00E080B483B000AF0923D6
:101590007B607B6818460C37BD465DF8047B70475E
:1015A00080B483B000AF00237B600C237B607B683A
:1015B00018460C37BD465DF8047B704780B582B095
:1015C00000AF0023FB7100F01FF80346FB71FB79AD
:1015D00018460837BD4680BD80B483B000AF0346CF
:1015E0000022FA71B3F1005F04D3064A934201D896
:1015F0000123FB71FB7918460C37BD465DF8047B6F
:10160000704700BF0000032080B483B000AF002308
:10161000FB71FB7918460C37BD465DF8047B7047BB
:1016200080B487B000AF78600023FB7572B600BF4E
:101630000123FB60FB6883F3108800BF0D4A7B68C1
:10164000936000233B613B6983F3108800BF62B65F
:1016500000BF084B9B687A689A4202D10123FB7550
:1016600001E00023FB75FB7D18461C37BD465DF885
:10167000047B704700ED00E080B582B000AF00232E
:10168000FB710548FFF7CCFF0346FB71FB79184659
:101690000837BD4680BD00BF00000E0880B400AF13
:1016A000044B9B680133034A936000BFBD465DF85D
:1016B000047B704704000020B0B584B000AF7860B0
:1016C0000023FB737B68002B69D07B685B681A463C
:1016D0003549202004F084FC344B00229A607B685A
:1016E0001B68002B5BD07B681B681A462F4B5A6027
:1016F0007B685B681846FEF7C5FE4FF000022C4B76
:10170000FFF764F802460B4614461D467B689B684B
:101710001846FEF7B7FE02460B4620462946FEF75E
:101720002BFF02460B4621494C6810461946FFF72D
:10173000E5F903469AB2A18800210A43A2801B0C56
:10174000DBB2A27900221343A371184B5B685B687C
:10175000C3F317031A461749202004F041FC134B2A
:101760005B681A8900221A819A7A00229A720023F1
:10177000BB603B7A43F001033B723B7A6FF341035A
:101780003B727B681B7B002B03D03B7A43F0020348
:101790003B72064B5B68BA681A600123FB73FB7BE4
:1017A00018461037BD46B0BDE8680F080400002099
:1017B00000408F40F8680F0880B582B000AF012369
:1017C000FB710548FFF778FF0346FB71FB7918466C
:1017D0000837BD4680BD00BFD0960F0880B483B0E7
:1017E00000AF0023FB710A4B5B68002B09D0084B4C
:1017F0005B681B68C3F30003DBB2002B01D001233D
:10180000FB71FB7918460C37BD465DF8047B7047C9
:101810000400002080B485B000AF78600023FB6036
:101820007B6823F07F439AB200210A43BA811B0CE4
:10183000DBB200221343BB73054B5B68FA685A6046
:10184000012318461437BD465DF8047B704700BF7E
:10185000040000202DE9B00F83B000AF2B4CA4682A
:10186000002520462946C7E900012949D1E90001A0
:10187000284CC4E90001D7E90045204629464FF02D
:10188000000A4FF0000B4FEA411B4BEAD06B4FEAC6
:10189000401A50465946021B61EB05034FF0000009
:1018A0004FF00001990041EA9271900002460B4608
:1018B00012EB040843EB05094FF000024FF0000360
:1018C0004FEAC90343EA58734FEAC8029046994663
:1018D00042464B460E49C1E900230D4BD3E90001B6
:1018E0000C4BD3E90023904271EB030304D2074B66
:1018F0001B680133054A1360054BD3E900231046EA
:1019000019460C37BD46BDE8B00F704704000020F3
:101910000018002008180020B0B584B000AF4FF0C8
:1019200000024FF00003C7E90223FFF757FF034609
:10193000FB71FB79002B07D0084B9B6800221C46EB
:101940001546C7E9024504E0044B1B680133034A0E
:101950001360BB6818461037BD46B0BD04000020B8
:10196000B0B586B000AF78604FF000024FF00003D2
:10197000C7E904230023FB600023FB600BE001F0B8
:1019800063FAD7E90423141843EB0105C7E90445BA
:10199000FB680133FB60FA687B689A42EFD3D7E9B2
:1019A0000423104619461837BD46B0BD80B594B023
:1019B00002AF012387F84730354A3649232004F027
:1019C0002DFB354BBB63012387F8463000237B603A
:1019D00007F108032E22002118460EF0CBFD00234C
:1019E00087F845302D4B3B6407F1380319465C20DE
:1019F0000BF0A2F9034687F845305C200BF068F83D
:101A0000F86307F13803FA6B19465C200AF052FFBD
:101A1000386497F84530002B12D05C200AF01AFF8A
:101A20000246381D3B6C009313461D4A32210FF0CD
:101A300049F9BA6B3B1D1946032004F0D1FA19E0AD
:101A40005C200AF007FF0246381D3B6C00931346EA
:101A5000144A32210FF036F9BA6B3B1D19460320A8
:101A600004F0DCFA0C4BBB63002387F845300023FD
:101A700087F84630BB6B184601F01AFA034687F820
:101A8000473097F8473018464837BD4680BD00BFFD
:101A9000001BB7009C690F0800E1F505B4690F0849
:101AA000B8690F08D4690F0880B584B000AF7860BA
:101AB0000023FB737B68002B02D00123FB7305E03E
:101AC00045491D2004F0C8FA0023FB73FB7B002B63
:101AD0001FD07B6893F82030002B0DD07B68DB692A
:101AE000002B02D00123FB7313E03C491D2004F0BE
:101AF000B3FA0023FB730CE07B685B69002B02D018
:101B00000123FB7305E036491D2004F0A5FA0023EC
:101B1000FB73FB7B002B0CD07B689B69002B02D0F6
:101B20000123FB7305E02F491D2004F095FA0023E3
:101B3000FB73FB7B002B0CD07B685B68002B02D017
:101B40000123FB7305E028491D2004F085FA0023DA
:101B5000FB73FB7B002B0CD07B681B68002B02D037
:101B60000123FB7305E021491D2004F075FA0023D1
:101B7000FB73FB7B002B0CD07B68DB68002B02D057
:101B80000123FB7305E01A491D2004F065FA0023C8
:101B9000FB73FB7B002B0CD07B681B69002B02D0F6
:101BA0000123FB7305E013491D2004F055FA0023BF
:101BB000FB73FB7B002B09D07B689B68002B05D156
:101BC0000D491D2004F048FA0023FB73FB7B1846E7
:101BD0001037BD4680BD00BFFC690F08086A0F08BA
:101BE0001C6A0F082C6A0F08406A0F084C6A0F081D
:101BF0005C6A0F086C6A0F08806A0F0880B485B0B1
:101C000000AF78600023FB730A4B1B687A689A4226
:101C100007D3084B5B687A689A4204D20123FB73AE
:101C200001E00023FB73FB7B18461437BD465DF8CB
:101C3000047B704714980F0880B48BB000AFF86035
:101C4000B9607A603B60002387F827307B68002BFF
:101C500064D03B68002B61D03B6B002B5ED001232E
:101C600087F827303B6800221A603B6B00221A601D
:101C7000FB683B620023FB61FB683B620023FB6166
:101C800031E03B6ABB610023FB75284B1B68BA69D6
:101C90009A4207D3254B5B68BA699A4204D2012362
:101CA000FB7501E00023FB75FB7D87F8273097F873
:101CB000273083F00103DBB2002B1BD13B6A1B787A
:101CC000FF2B05D13B681B685A1C3B681A6004E077
:101CD0003B6B1B685A1C3B6B1A603B6A01333B62CF
:101CE000FB690133FB61FA68BB6813443A6A9A42A4
:101CF000C7D300E000BF3B6B1B68642202FB03F309
:101D000007EE903AF8EE676ABB6807EE903AB8EED5
:101D1000677AC6EE877A7B68C3ED007A97F827303A
:101D200018462C37BD465DF8047B704714980F08A1
:101D300080B584B000AF786039600023FB737B68A6
:101D4000002B34D07868FFF7AFFE0346FB73FB7BB4
:101D5000012B00D0FEE7FB7B002B28D00023FB7378
:101D60003B68002B23D07B681A683B681A607B684D
:101D70005A683B685A607B689A683B689A607B68DF
:101D8000DA683B68DA607B681A693B681A617B68CD
:101D90009A693B689A617B68DA693B68DA617B68BB
:101DA00093F820203B6883F820200123FB73FB7B02
:101DB00018461037BD4680BD80B584B000AF78604E
:101DC00039600023FB737B68FF223968184602F0F4
:101DD00079F90346FB73FB7B18461037BD4680BD7F
:101DE00080B588B002AF7860396000233B61002382
:101DF000FB600023FB754FF00003BB60786807F1C0
:101E0000100107F1080207F10C0300930B46396833
:101E1000FFF712FF0346FB753B693A689A4202D10D
:101E20000123FB7501E00023FB75FB7D1846183785
:101E3000BD4680BD80B485B000AF03460A46FB7145
:101E40001346BB710023FB730023BB7397F9073064
:101E5000DB435AB297F9063013405BB2BB73BB7BCE
:101E6000002B02D00023FB7301E00123FB73FB7BFB
:101E700018461437BD465DF8047B704780B58AB0BC
:101E800002AFF860B9607A600023FB77BB68002B73
:101E90003DD07B68002B3AD00023BB6100237B61DF
:101EA0000023BB6126E0BA69FB6813443B613B69D0
:101EB0001878BA68BB6913441B781946FFF7BAFF54
:101EC0000346FB77FB7F002B03D07B6901337B61EB
:101ED0000DE03B691B781946BA68BB6913441B784F
:101EE00000930B46BA690C491D2004F0B5F8BB6994
:101EF0000133BB61BA697B689A42D4D37A687B6943
:101F00009A4202D10123FB7701E00023FB77FB7F9C
:101F100018462037BD4680BD006B0F0880B485B0E1
:101F200000AF786039600023FB73FB7B18461437E1
:101F3000BD465DF8047B704780B586B000AF0346B0
:101F4000FB710023FB7500233B610023BB60002372
:101F5000FB600BF0C7FBB86000233B6110E0154A43
:101F60003B694C2101FB03F3134404331B78FA79DA
:101F70009A4202D1FB680133FB603B6901333B614C
:101F80003A69BB689A42EAD3FB68012B02D8012365
:101F9000FB7506E0FA680849122004F05DF800239A
:101FA000FB75FB68012B00D9FEE7FB7D184618374F
:101FB000BD4680BD4CA20F08AC6B0F0880B584B045
:101FC00000AF0023FB7301F033F90023BB60002353
:101FD0007B600BF087FB38600023BB6013E0BB68BD
:101FE0004C2202FB03F3134A1344184601F000FB92
:101FF0000346FB73FB7B002B02D07B6801337B60C5
:10200000BB680133BB60BA683B689A42E7D33A6861
:102010007B689A4202D10123FB7305E03B687A6832
:102020000549122004F018F8FB7B18461037BD460E
:1020300080BD00BF4CA20F08C06B0F0880B485B0F4
:1020400000AF0346FB710023FB73FB79013B082BB8
:1020500002D80123FB7302E00123FB7300BFFB7B6B
:1020600018461437BD465DF8047B704780B588B0CC
:1020700000AF786039600023FB770D4B5B687B61B4
:102080000B4B9B68BB617B68FB607A683B681344C1
:102090003B6107F10C0207F114031146184608F0E2
:1020A00059FE0346FB77FB7F18462037BD4680BDAF
:1020B000E0960F0880B586B000AFF860B9607A602E
:1020C0000023FB757B68FA681649212003F02BFF7B
:1020D0007968F868FFF7CAFF0346FB75FB7D002BA4
:1020E00014D07A68B968F86800F04CFF0346FB75B5
:1020F000FB7D002B05D07A680B49212003F013FFEC
:102100000AE00A49212003F0A7FF05E07B68FA688E
:102110000749212003F0A0FFFB7D18461837BD4674
:1021200080BD00BFD06B0F08E86B0F08F46B0F0881
:10213000006C0F0880B584B000AF78603960002370
:10214000FB733B687A681849212003F067FF396800
:102150007868FFF78BFF0346FB73FB7B002B18D0DF
:102160000023FB733968786800F0FAFF0346FB73BD
:10217000FB7B002B06D03B687A680C49212003F0DA
:102180002FFF0CE03B687A680949212003F064FFC7
:1021900005E03B687A680749212003F05DFFFB7B7F
:1021A00018461037BD4680BD1C6C0F08346C0F08F4
:1021B000506C0F08006C0F0880B586B000AF2A493C
:1021C000212003F02BFF0023FB75284B5B68284A76
:1021D0005360264B9B68264A9360244BDB68244A55
:1021E000D360234B01221A74224B1A68214B5B687F
:1021F0009A4234D22049212003F0F2FE1D4B1B6885
:10220000FB601C4B5B683B61184B5B687B60174B4A
:102210009B68BB6007F10C023B1D1146184608F095
:1022200099FD0346FB75FB7D002B14D00F4B5B68BB
:102230001A460E4BDB681946104608F027FE034687
:102240001A460B4B5A820A4B5B8A1A460B492120CD
:1022500003F0C6FE03E00A49212003F0FDFEFB7DEA
:1022600018461837BD4680BDB86C0F08E0960F08B9
:10227000A4170020B8170020C06C0F08CC6C0F0802
:10228000F06C0F0880B584B000AF0346FB710023EB
:10229000FB600023BB600023BB6021E01749BA68E4
:1022A00013469B001344DB000B4414331B78FA796C
:1022B0009A4212D11149BA6813469B001344DB00BD
:1022C0000B441B78002B12D0BA6813469B001344B2
:1022D000DB000A4A1344FB6009E0BB680133BB60C2
:1022E0000BF070FA0246BB689342D7D300E000BF00
:1022F000FB6818461037BD4680BD00BF9CA30F0881
:1023000080B584B000AF0346FB710023FB6000235F
:10231000BB600023BB6021E01749BA6813465B012C
:1023200013445B010B4414331B78FA799A4212D19F
:102330001149BA6813465B0113445B010B441B78D7
:10234000002B12D0BA6813465B0113445B010A4AA2
:102350001344FB6009E0BB680133BB600BF032FA49
:102360000246BB689342D7D300E000BFFB68184623
:102370001037BD4680BD00BFB409002080B485B0D1
:1023800000AF0346FB710423FB73FB79032B02D1DF
:102390000223FB7300E000BFFB7B18461437BD46E9
:1023A0005DF8047B7047000080B58AB000AF7860AC
:1023B000396000237B627868FEF764F802460B46BA
:1023C0004FF000001E49FEF701FA02460B46C7E92E
:1023D00006234FF000024FF00003C7E904234FF03B
:1023E0000002184BD7E90601FEF7C6F802460B4675
:1023F000C7E904233868FEF745F802460B46D7E9DB
:102400000401FEF7B9F802460B46C7E902230AA306
:10241000D3E90023D7E90201FEF7AEF802460B46E6
:1024200010461946FEF76AFB03467B627B6A184634
:102430002837BD4680BD00BF0000000080842E41CB
:102440000000F03F0000284080B598B000AF034680
:102450003960FB71002387F85B300023BB6007F114
:102460000C034C22002118460EF084F80023FB6573
:102470000023FB650CE03B6893F90030D9B207F10B
:102480000802FB6D13440A461A70FB6D0133FB65AD
:10249000FB6D4F2BEFD90A233B720D237B720A236E
:1024A00087F856300D2387F8573007F10801FB797C
:1024B0005022184600F0EBF8034687F85B3007F12E
:1024C00008035022002118460EF054F807F10803C3
:1024D000396818460EF0C0FC07F108031846FEF7ED
:1024E000CFFE03469BB201339AB207F10801FB7994
:1024F000184600F0CCF8034687F85B3097F85B305D
:1025000018466037BD4680BD80B584B000AF034635
:10251000FB710123FB73FB7905491846FFF794FF14
:102520000346FB73FB7B18461037BD4680BD00BFDA
:10253000086D0F0880B582B000AF0023FB71032047
:10254000FFF7E2FF0346FB71FB7918460837BD46EB
:1025500080BD80B586B000AF0346FB710023FB75DC
:10256000FB791846FFF7CCFE38613B69002B09D098
:10257000FB791846FFF786FEF860FB68002B01D058
:102580000123FB75FB7D18461837BD4680BD80B51D
:1025900084B000AF0346FB716E23FB60FB791846E5
:1025A000FFF770FEB860BB68002B02D0BB68DB6928
:1025B000FB60FB6818461037BD4680BD80B483B011
:1025C00000AF0123FB71FB7918460C37BD465DF85F
:1025D000047B704780B485B000AF0346FB710023D5
:1025E000FB73FB7B18461437BD465DF8047B7047D0
:1025F00080B592B000AF0346FB71002387F84730E7
:10260000FB791846FFF77CFE38643B6C002B38D012
:102610003B6C93F89C33002B33D00123FB873B6C3E
:1026200003F57273184601F0DCFF0346FB87FB8F4E
:10263000002B23D00023BB873B6C03F5727007F19E
:102640003C0307F10801322201F070FF034687F8CE
:10265000473097F84730002B10D0BB8F002B0AD0A3
:10266000BA8F07F10801F879012301F0C5FC034690
:1026700087F8473002E0002387F84730FB8F002BB4
:10268000CDD197F8473018464837BD4680BD80B554
:1026900084B000AF03463960FB711346BB80002352
:1026A000FB73FEF78BFF0346FB73FB7B83F0010399
:1026B000DBB2002B1FD0FB791846FFF799FF3B6870
:1026C000002B14D0BB88002B11D0FB791846FFF7E4
:1026D00017FEB860BB68002B09D0BB6803F57273A6
:1026E000BA883968184601F0D4FE0346FB73FB79BB
:1026F0001846FFF77DFFFB7B18461037BD4680BDAF
:1027000080B584B000AF0123FB730023BB600BF0E6
:1027100059F838603A681E49282003F0E5FB002389
:102720007B6000237B601CE07B68DBB21846FFF710
:1027300051FF0346FB73FB7B002B09D07B68154AD6
:102740001549282003F0D0FBBB680133BB6005E0CE
:102750007B68104A1149282003F0C6FB7B680133CF
:102760007B607B680A2BDFD9BB68002B08D0012374
:10277000FB73084BBA680A49282003F0B5FB01E057
:102780000023FB73FB7B18461037BD4680BD00BF9E
:10279000146D0F08206D0F08286D0F08386D0F0895
:1027A000486D0F0880B584B000AF0123FB73FFF7BD
:1027B00005FF0346FB730023BB606FF00201282076
:1027C00003F068FC0AF0FEFF38600A233A682049EB
:1027D000282003F023FC00237B6000237B601CE0A7
:1027E0007B68DBB2184601F0B9F90346FB73FB7B4B
:1027F000002B09D07B68174A1749282003F0F0FB0B
:10280000BB680133BB6005E07B68124A134928208E
:1028100003F089FB7B6801337B607B680A2BDFD97F
:10282000BB68002B08D00123FB730A4BBA680C4924
:10283000282003F0D5FB01E00023FB7300212820B2
:1028400003F028FCFB7B18461037BD4680BD00BF57
:10285000546D0F08206D0F08646D0F08746D0F081C
:10286000846D0F0880B586B000AF03460A46FB7141
:102870001346BB710023FB75FB791846FFF740FD3B
:1028800038613B69002B38D03B69BA7983F8512312
:102890003B69D3F8A0335A1C3B69C3F8A0233B69BA
:1028A000012283F846233B69D3F858335A1C3B690D
:1028B000C3F85823FB791846FFF760FD0346FB7306
:1028C000BA79FB7B1146184606F0EFF80346FB7514
:1028D0003B6903F56D7397F906201146184601F020
:1028E00070FD0346FB75FB7D002B06D13B69D3F8D9
:1028F0008C335A1C3B69C3F88C23FB7D1846183770
:10290000BD4680BD80B485B000AF0346FB71124B5D
:10291000FB60FB79032B17D801A252F823F000BF0C
:1029200031290E0837290E083D290E0843290E08C3
:102930000A4BFB6009E00A4BFB6006E0094BFB60B9
:1029400003E0094BFB6000E000BFFB68184614374A
:10295000BD465DF8047B7047906D0F08946D0F08BD
:10296000986D0F089C6D0F08A46D0F0880B400AF20
:10297000FEE780B400AF00BFBD465DF8047B704742
:1029800080B400AF00BFBD465DF8047B704780B4E3
:1029900000AF00BFBD465DF8047B704780B400AF58
:1029A00000BFBD465DF8047B704780B400AF00BF38
:1029B000BD465DF8047B704780B400AF00BFBD46E4
:1029C0005DF8047B704780B400AF00BFBD465DF882
:1029D000047B704780B400AF00BFBD465DF8047B48
:1029E000704780B400AF00BFBD465DF8047B704700
:1029F00080B400AF00BFBD465DF8047B704780B473
:102A000000AF00BFBD465DF8047B704780B400AFE7
:102A100000BFBD465DF8047B704780B400AF00BFC7
:102A2000BD465DF8047B704780B400AF00BFBD4673
:102A30005DF8047B704780B400AF00BFBD465DF811
:102A4000047B704780B400AF00BFBD465DF8047BD7
:102A5000704780B400AF00BFBD465DF8047B70478F
:102A600080B400AF00BFBD465DF8047B704780B402
:102A700000AF00BFBD465DF8047B704780B400AF77
:102A800000BFBD465DF8047B704780B400AF00BF57
:102A9000BD465DF8047B704780B400AF00BFBD4603
:102AA0005DF8047B704780B400AF00BFBD465DF8A1
:102AB000047B704780B400AF00BFBD465DF8047B67
:102AC000704780B400AF00BFBD465DF8047B70471F
:102AD00080B400AF00BFBD465DF8047B704780B492
:102AE00000AF00BFBD465DF8047B704780B400AF07
:102AF00000BFBD465DF8047B704780B400AF00BFE7
:102B0000BD465DF8047B704780B400AF00BFBD4692
:102B10005DF8047B704780B400AF00BFBD465DF830
:102B2000047B704780B400AF00BFBD465DF8047BF6
:102B3000704780B400AF00BFBD465DF8047B7047AE
:102B400080B400AF00BFBD465DF8047B704780B421
:102B500000AF00BFBD465DF8047B704780B400AF96
:102B600000BFBD465DF8047B704780B400AF00BF76
:102B7000BD465DF8047B704780B400AF00BFBD4622
:102B80005DF8047B704780B400AF00BFBD465DF8C0
:102B9000047B704780B400AF00BFBD465DF8047B86
:102BA000704780B400AF00BFBD465DF8047B70473E
:102BB00080B400AF00BFBD465DF8047B704780B4B1
:102BC00000AF00BFBD465DF8047B704780B400AF26
:102BD00000BFBD465DF8047B704780B400AFFEE7E0
:102BE00080B400AFFEE780B400AFFEE780B400AF72
:102BF00000BFBD465DF8047B704780B400AF00BFE6
:102C0000BD465DF8047B704780B400AFFEE780B43A
:102C100000AF00BFBD465DF8047B704780B400AFD5
:102C200000BFBD465DF8047B704780B400AF00BFB5
:102C3000BD465DF8047B704780B500AF0AF01CFE0E
:102C4000FEF72CFD00BF80BD80B400AF00BFBD46C5
:102C50005DF8047B704780B400AF00BFBD465DF8EF
:102C6000047B704780B400AF00BFBD465DF8047BB5
:102C7000704780B582B000AF0320FFF741FB78605A
:102C80007B68002B05D07B6803F5777318460BF043
:102C900063FE00BF0837BD4680BD80B400AF00BFF3
:102CA000BD465DF8047B704780B400AF00BFBD46F1
:102CB0005DF8047B704780B400AF00BFBD465DF88F
:102CC000047B704780B400AF00BFBD465DF8047B55
:102CD000704780B400AF00BFBD465DF8047B70470D
:102CE00080B400AF00BFBD465DF8047B704780B480
:102CF00000AF00BFBD465DF8047B704780B400AFF5
:102D000000BFBD465DF8047B704780B400AF00BFD4
:102D1000BD465DF8047B704780B400AF00BFBD4680
:102D20005DF8047B704780B400AF00BFBD465DF81E
:102D3000047B704780B400AF00BFBD465DF8047BE4
:102D4000704780B400AF00BFBD465DF8047B70479C
:102D500080B400AF00BFBD465DF8047B704780B40F
:102D600000AF00BFBD465DF8047B704780B400AF84
:102D700000BFBD465DF8047B704780B400AF00BF64
:102D8000BD465DF8047B704780B400AF00BFBD4610
:102D90005DF8047B704780B400AF00BFBD465DF8AE
:102DA000047B704780B400AF00BFBD465DF8047B74
:102DB000704780B400AF00BFBD465DF8047B70472C
:102DC00080B400AF00BFBD465DF8047B704780B49F
:102DD00000AF00BFBD465DF8047B704780B400AF14
:102DE00000BFBD465DF8047B704780B400AF00BFF4
:102DF000BD465DF8047B704780B400AF00BFBD46A0
:102E00005DF8047B704780B400AF00BFBD465DF83D
:102E1000047B704780B400AF00BFBD465DF8047B03
:102E2000704780B582B000AF0023FB710AF0E0FC70
:102E30000346BB71BB79002B01D10123FB71FB79E8
:102E400018460837BD4680BDF0B484B000AF4FF0DF
:102E500000024FF00003C7E902234FF000024FF0D9
:102E60000003C7E900234FF000024FF00003C7E959
:102E700002230DE0D7E90023501C43F10001C7E90C
:102E80000001D7E90223541C43F10005C7E90245BC
:102E9000D7E9022340F27556B24273F10003E9D339
:102EA000D7E90023104619461037BD46F0BC7047DD
:102EB00080B584B000AF78600023FB73FEF7B6FAEC
:102EC0000346FB73FB7B18461037BD4680BD0000F0
:102ED00090B585B000AF0123FB7325491D2003F099
:102EE0007FF80123FB71234B5B68002B00D1FEE7C9
:102EF000204B1B68002B00D1FEE71F491D48FEF741
:102F000017FF0346FB731C4B012283F824200CF0AF
:102F1000F9FC0023BB600023BB601FE041F2883056
:102F20000CF022FD0346FB71FB79002B06D11349FF
:102F30001D2003F055F80123FB7312E0FC79FB79A7
:102F40001846FFF7DFFC034622460D491D2003F01B
:102F500083F80023FB73BB680133BB60BB68042BA1
:102F6000DCD90CF0F1FCFB7B18461437BD4690BD54
:102F7000AC6D0F0814980F08B8170020B46D0F0837
:102F8000BC6D0F08B0B58AB002AFF860B9607A6066
:102F90000023FB777B68FA683C491D2002F0C3FFE1
:102FA0007968F868FEF71CFF0346FB77FB7F002B70
:102FB00004D037491D2002F0B6FF0FE07A6835498A
:102FC0001D2003F02BF87A68B968F868FEF756FF01
:102FD0000346FB777968F868FEF7A0FF0023BB6122
:102FE00000237B610CF08EFC0123FB740023BB618A
:102FF00032E0BA68BB6913441B78DBB200221C467E
:10300000154622462B46F96800200CF027FC0346A3
:10301000FB74FB7C002B09D1FB680133FB60BB69AF
:103020000133BB617B6901337B6115E0BA68BB6921
:1030300013441B781D46FC7CFB7C1846FFF762FCA2
:103040000346019300942B46BA6913491D2003F0EF
:1030500003F80023FB7703E0BA697B689A42C8D380
:103060000CF072FC7A697B689A4202D10123FB77EB
:1030700007E07B687A6909491D2002F0EDFF002313
:10308000FB77FB7F18462037BD46B0BDC86D0F08E3
:10309000E46D0F08F06D0F08046E0F082C6E0F081A
:1030A00080B588B000AFF860B9607A600023FB7724
:1030B000BB68002B4CD07B68002B49D0FEF770FA20
:1030C00078610023BB610023BB613DE02349BA69FD
:1030D00013465B0013449B000B4419681F48BA69F0
:1030E00013465B0013449B00034404331B680B44EA
:1030F0003B611A49BA6913465B0013449B000B44B9
:103100001B68FA689A421CD3FA683B699A4218D83D
:103110001249BA6913465B0013449B000B44083301
:103120001B781A46BB681A600C49BA6913465B00E3
:1031300013449B000B4404331A687B681A60012314
:10314000FB77BB690133BB61BA697B699A42BDD326
:10315000FB7F18462037BD4680BD00BF84970F080F
:1031600080B58EB000AF78603960002387F83730C3
:103170000023BB6200233B6300237B6239687868CD
:10318000FEF71AFE034687F8373097F8373083F09A
:103190000103DBB2002B3ED007F1240207F1280324
:1031A00019467868FFF77CFF034687F8373097F8B1
:1031B0003730002B08D07B6A3A689A4202D8012344
:1031C0003B6301E002233B6397F83730002B26D0A6
:1031D0000023FB6001237B6100233B61BB6ABB6171
:1031E0003B6BFB6102233B620CF08CFB07F10C0292
:1031F00007F11003114618460CF0E6FC034687F869
:103200002F300CF0A1FB97F82F30002B07D00023B4
:1032100087F8373003E005491D2002F084FE97F857
:10322000373018463837BD4680BD00BF486E0F089E
:1032300080B58AB000AF002387F8273057491220A5
:1032400002F0ECFE002387F8263000233B62544B4B
:103250001B6B534A43F001031363514B1B6B03F089
:1032600001033B623B6A97F82630013387F826302A
:103270000023FB614A4B1B6B494A43F00203136373
:10328000474B1B6B03F00203FB61FB6997F8263089
:10329000013387F826300023BB61414B1B6B404A4A
:1032A00043F0040313633E4B1B6B03F00403BB6149
:1032B000BB6997F82630013387F8263000237B61FD
:1032C000374B1B6B364A43F008031363344B1B6BBD
:1032D00003F008037B617B6997F82630013387F898
:1032E000263000233B612E4B1B6B2D4A43F010030D
:1032F00013632B4B1B6B03F010033B613B6997F887
:103300002630013387F826300023FB60244B1B6BEB
:10331000234A43F020031363214B1B6B03F020036C
:10332000FB60FB6897F82630013387F826300023CE
:10333000BB601B4B1B6B1A4A43F040031363184BD3
:103340001B6B03F04003BB60BB6897F8263001336A
:1033500087F8263000237B60114B1B6B104A43F02B
:10336000800313630E4B1B6B03F080037B607B6851
:1033700097F82630013387F8263097F82630002B4F
:1033800003D0012387F8273002E0002387F8273095
:1033900097F8273018462837BD4680BD846E0F0841
:1033A0000038024080B485B000AF0346FB710023B3
:1033B000FB60FB79012202FA03F31A46FB68134310
:1033C000FB60FB6818461437BD465DF8047B704708
:1033D00080B485B000AF0346FB710423FB73FB7917
:1033E000013B042B18D801A252F823F00D340E082B
:1033F00007340E0801340E0819340E0813340E0871
:103400000023FB7308E00123FB7305E00223FB7339
:1034100002E00423FB7300BFFB7B18461437BD4654
:103420005DF8047B704700BF80B485B000AF0346F1
:10343000FB710023FB60FB79013B082B2DD801A217
:1034400052F823F069340E0881340E089B340E08BC
:1034500087340E087B340E086F340E088D340E0846
:1034600075340E0893340E080123FB6016E0012327
:10347000FB6013E01223FB6010E00023FB600DE013
:103480000223FB600AE00223FB6007E00323FB60EA
:1034900004E04FF48813FB6000E000BFFB681846AF
:1034A0001437BD465DF8047B704700BF80B485B01B
:1034B00000AF0346FB710023FB60FB79072B2BD881
:1034C00001A252F823F000BFE9340E08EF340E08D1
:1034D000F5340E08FB340E0801350E0807350E08CA
:1034E0000D350E0813350E080F4BFB6015E00F4B22
:1034F000FB6012E00E4BFB600FE00E4BFB600CE03C
:103500000D4BFB6009E00D4BFB6006E00C4BFB60D4
:1035100003E00C4BFB6000E000BFFB68184614376B
:10352000BD465DF8047B7047000002400004024085
:1035300000080240000C024000100240001402404B
:1035400000180240001C024080B584B000AF034662
:103550000A46FB711346BB71FB793B733B7BC3F39C
:103560000313DBB21846FFF7A1FF3B7BC3F3030352
:10357000DBB21A46012393409BB2BA7919460BF08D
:103580000FF9012318461037BD4680BD80B485B0C1
:1035900000AF0346FB710023FB73FB79002B02D0C5
:1035A000012B03D005E00023FB7302E00123FB7332
:1035B00000BFFB7B18461437BD465DF8047B70479F
:1035C00080B485B000AF0346FB710023FB73FB7929
:1035D0003B733B7BC3F30313DBB2072B01D80123FF
:1035E000FB73FB7B18461437BD465DF8047B7047C0
:1035F00080B58CB000AF7860002387F82F307B68EF
:10360000002B00F081807B681B791846FFF7D8FFFC
:10361000034687F82F3097F82F30012B00D0FEE7B4
:1036200097F82F30002B6FD07B681B791846FEF778
:1036300083FC034687F82F3097F82F30002B63D098
:10364000002387F82F307B681B79C3F30313DBB2A9
:103650001846FFF72BFFB862BB6A002B54D07B687B
:103660001B79C3F30303DBB21846FFF79BFE7862B6
:103670007B6893F847301846FFF788FF034687F8C2
:1036800023307B6A9BB297F823201946B86A0BF067
:1036900087F87B6893F846301846FEF7CFFC034660
:1036A00087F82F3097F82F30012B00D0FEE797F8DE
:1036B0002F30002B25D007F10C0300221A605A602E
:1036C0009A60DA601A617B6AFB607B6893F8463027
:1036D0001846FFF7A9FE03463B617B6893F8453027
:1036E0001846FFF775FE03467B610323BB617B68C9
:1036F0001B68FB6107F10C031946B86A0AF0B4FEB7
:1037000002E0002387F82F3097F82F301846303723
:10371000BD4680BD80B582B000AF0023FB710023A1
:10372000BB71F223BB7114E0BB79DB43DBB2DB0975
:10373000FB71FB79002B06D097F9063018460AF08A
:103740002CFA0123FB7197F90630DBB20133DBB2AF
:10375000BB7197F90630512BE6DDFB791846083727
:10376000BD4680BD80B582B000AF0123FB71134917
:10377000232002F035FC0322032127200AF0C9F997
:1037800027200AF0E2F90822082104200AF0C1F9F2
:1037900004200AF0DAF90022002105200AF0B9F924
:1037A00005200AF0D2F9FFF7B5FF0346FB7162B6B8
:1037B00000BFFB7918460837BD4680BD106F0F0863
:1037C00080B582B000AF0123BB710023FB71F223EF
:1037D000FB710AE097F9073018460AF0C4F997F927
:1037E0000730DBB20133DBB2FB7197F90730512BA5
:1037F000F0DDBB7918460837BD4680BD80B483B084
:1038000000AF0346FB7197F90730002B0BDBFB7908
:1038100003F01F02074997F907305B09012000FAFE
:1038200002F241F8232000BF0C37BD465DF8047B4F
:10383000704700BF00E100E080B586B000AF78605F
:103840000023FB7500233B610AF014FD38617B689F
:103850003A6902FB03F3074AA2FB03239B09FB60BF
:10386000F868FDF7D7FF0346FB75FB7D1846183750
:10387000BD4680BDD34D621080B582B000AF01233C
:10388000FB711749232002F0ABFBFDF795FF0346C0
:10389000FB710120FFF7D0FF00233B603B7843F032
:1038A00001033B703B786FF341033B703B7843F07F
:1038B00002033B70002200214FF0FF300AF029F98B
:1038C0004FF0FF30FFF79AFF3B7843F004033B7063
:1038D000044A3B681360FB7918460837BD4680BD33
:1038E000186F0F0810E000E080B582B000AF012330
:1038F000FB710D49232002F091FBFF233B603B78D5
:103900006FF300033B703B786FF341033B703B78F0
:1039100043F004033B70054A3B681360FB7918468B
:103920000837BD4680BD00BF246F0F0810E000E0DF
:1039300080B582B000AF0123FB7109F0BDFFFB79B8
:1039400018460837BD4680BD80B586B000AF7860A8
:103950000023FB757B681B68184600F0AFF8034630
:10396000FB75FB7D1846FEF7CBFC38613B69002BED
:103970002ED00123FB733B6903F577703B69D3F8C5
:103980005433012219460AF0B6FF0346FB73FB7B52
:10399000002B16D1FA7D3B69D3F854331B78DBB288
:1039A00019461046FEF75EFF0346BB73BB7B002B38
:1039B0000ED13B69D3F88C335A1C3B69C3F88C2376
:1039C00006E03B69D3F88C335A1C3B69C3F88C235F
:1039D00000BF1837BD4680BD80B584B000AF7860A9
:1039E0000023FB737B681B68184600F067F80346EA
:1039F000FB73FB7B1846FEF783FCB860BB68002BAB
:103A000018D0BB68D3F8A4335A1CBB68C3F8A423EE
:103A1000BB68012283F84423BB68D3F860335A1C87
:103A2000BB68C3F86023BB68D3F85C335A1CBB681F
:103A3000C3F85C2300BF1037BD4680BD80B485B09D
:103A400000AF0346FB710023FB60FB79013B052BB4
:103A500020D801A252F823F0713A0E08773A0E08E6
:103A60007D3A0E08833A0E08893A0E088F3A0E08FE
:103A70000C4BFB600FE00C4BFB600CE00B4BFB6056
:103A800009E00B4BFB6006E00A4BFB6003E00A4BCE
:103A9000FB6000E000BFFB6818461437BD465DF8C8
:103AA000047B704700100140004400400048004083
:103AB000004C0040005000400014014080B485B02C
:103AC00000AF7860FF23FB737B681E4A934201D1ED
:103AD0000123FB737B681C4A934201D10223FB73D1
:103AE0007B681A4A934201D10323FB737B68184A0F
:103AF000934201D10423FB737B68164A934201D1A0
:103B00000523FB737B68114A934201D10323FB73A6
:103B10007B680F4A934201D10423FB737B680D4AF3
:103B2000934201D10523FB737B680B4A934201D179
:103B30000623FB7397F90F3018461437BD465DF81E
:103B4000047B7047001001400044004000480040E2
:103B5000004C0040005000400014014080B592B07D
:103B600000AF0346FB71002387F84730FB79184606
:103B7000FEF7C6FB38643B6C002B00F0DF80FB795E
:103B80001846FEF77FFBF863FB6B002B00F0D68036
:103B90003B6C93F8B83383F00103DBB2002B03D006
:103BA0006949282002F03AFAFB6B5B68002B1DD0B4
:103BB000FB6B5B6818460CF077F903461A463B6CC2
:103BC000C3F8C4233B6CD3F8C433002B0ED03B6C3A
:103BD00003F56D703B6CD3F8C413FB6B5B689BB251
:103BE0001A4600F099FB034687F847303B6C0122E8
:103BF00083F844233B6C012283F84623FB79534A24
:103C00001A443B6CC3F854233B6C01225A60FA7986
:103C1000FB6BDB694E49282002F000FAFB6BDA6986
:103C20003B6CC3F8E0233B6C0022C3F8F4233B6CED
:103C30000C22C3F8F0233B6C0022C3F8F8233B6C42
:103C40000022C3F8EC233B6C0022C3F8E8233B6C52
:103C50000022C3F8E423FB791846FFF7EFFE024683
:103C60003B6CC3F8DC233B6CD3F8DC33002B65D012
:103C7000012387F83B303B6C03F5777318460AF055
:103C8000A8FD034687F83B3097F83B30002B09D05E
:103C9000002387F84730FB791A462E49282002F086
:103CA000DBF90CE0012387F84730FB791A462A49F3
:103CB000282002F095F93B6C012283F89C233B6C91
:103CC00003F577703B6CD3F85433012219460AF0A0
:103CD00012FE034687F83B3097F83B30002B02D0AA
:103CE000002387F847301D4A07F10C0392E80300D0
:103CF00018600433197007F11103232200211846BC
:103D00000CF038FC07F10C01FB7904221846FEF791
:103D1000BEFCFB7907F10C00114A28210CF0D2FF00
:103D200007F10C031846FDF7ABFA78637B6B9AB288
:103D300007F10C01FB791846FEF7A9FC97F847300C
:103D400018464837BD4680BD306F0F081018002058
:103D5000406F0F08586F0F08646F0F08786F0F08D7
:103D6000706F0F0880B58CB000AFF860B960134673
:103D7000FB80002387F82F30FB68002B73D0FB6893
:103D800093F89C33002B67D0FB88002B64D0BB6872
:103D9000002B61D0FB68D3F8A4337B62FB681B7DEA
:103DA0001846FEF7F4FB3862FB881946386AFEF7BE
:103DB000FBFAF8610023BB620023BB6107F012FC31
:103DC00002460B4613467B610123FB74FB6803F537
:103DD0007773FA88B96818460AF048FD0346FB7401
:103DE000FB7C002B44D1012387F82F3026E007F01D
:103DF000F9FB02460B461346BB61BA697B69D31ACD
:103E0000BB62FB694FF47A6202FB03F3BA6A9A421F
:103E10000AD9002387F82F30FB68D3F894335A1C53
:103E2000FB68C3F894230FE0FB6893F81934DBB206
:103E3000202B03D1012387F82F3005E0FB68D3F84E
:103E4000A4337A6A9A42D2D0FB88BA6AB2FBF3F200
:103E5000FB68C3F838230BE0FA88BB6808492820C0
:103E600002F0FAF805E00749282002F0F5F800E032
:103E700000BF97F82F3018463037BD4680BD00BFD1
:103E800008700F0824700F0880B588B000AF786004
:103E90007B681B68514A934215D10023FB61504B4C
:103EA0005B6C4F4A43F0100353644D4B5B6C03F063
:103EB0001003FB61FB6907220721252009F029FE79
:103EC000252009F042FE7B681B68464A934215D1C3
:103ED0000023BB61424B1B6C414A43F40033136423
:103EE0003F4B1B6C03F40033BB61BB69032203210E
:103EF000262009F00EFE262009F027FE7B681B68AD
:103F0000394A934215D100237B61354B1B6C344AEF
:103F100043F480231364324B1B6C03F480237B61D6
:103F20007B6903220321272009F0F3FD272009F0F4
:103F30000CFE7B681B682D4A934215D100233B6120
:103F4000274B1B6C264A43F400231364244B1B6C41
:103F500003F400233B613B6907220721342009F069
:103F6000D8FD342009F0F1FD7B681B68204A93429C
:103F700015D10023FB601A4B1B6C194A43F48013C4
:103F80001364174B1B6C03F48013FB60FB68072260
:103F90000721352009F0BDFD352009F0D6FD7B68ED
:103FA0001B68144A934215D10023BB600C4B5B6C19
:103FB0000B4A43F020035364094B5B6C03F020036E
:103FC000BB60BB6800220721472009F0A2FD472003
:103FD00009F0BBFD00BF2037BD4680BD0010014089
:103FE000003802400044004000480040004C0040BF
:103FF000005000400014014080B584B000AF39602B
:1040000011461A460346FB710B46BB801346BB7133
:104010000023FB73FB791846FEF79BFA0346FB73FC
:10402000FB7B002B3BD03B68002B31D0BB88002BA7
:104030002ED0FB791846FEF763F9B860BB68002BF9
:104040000CD0BB6893F89C33002B04D0BB680022D3
:10405000C3F8842304E00023FB7301E00023FB7317
:10406000FB7B002B22D0BB881A463968B868FFF763
:1040700079FE0346FB73FB7B83F00103DBB2002B6D
:1040800014D0FB791A460C49282001F0E5FF0DE019
:10409000BB881A460949282001F0DEFF07E0FB79BA
:1040A0001A460749282001F0D7FF00E000BFFB7B3C
:1040B00018461037BD4680BD2C700F083C700F08A5
:1040C0004C700F0880B487B000AFF860B960134639
:1040D000FB710123FB7500233B6100233B610BE077
:1040E000FA683B6913441B78FA799A4201D000239D
:1040F000FB753B6901333B613A69BB689A42EFD378
:10410000FB7D18461C37BD465DF8047B70470000F8
:1041100080B588B000AFF860B9607A600023FB77A3
:10412000BB687A681E49082001F0FDFEFB68002B81
:1041300031D0BB68002B2ED07A68BB689A422AD255
:10414000BB68013B7A689A421DD20023BB61BA6802
:104150007B68D31A013B7B610023BB610FE07A6867
:10416000BB6913440133FA681A447968BB690B448C
:10417000F9680B4412781A70BB690133BB61BA69E4
:104180007B699A42EBD3BB68013BFA681344002277
:104190001A700123FB77FB7F18462037BD4680BD90
:1041A000EC700F0880B485B000AF78600B467B8060
:1041B0000023FB737B68002B13D07B88002B10D06F
:1041C0000123FB737B687A881A807B680022DA807F
:1041D0007B6800225A807B6800229A807B680022DC
:1041E0001A72FB7B18461437BD465DF8047B704796
:1041F00080B485B000AF78604FF6FF73FB817B68B9
:10420000DB889AB27B681B889A421AD27B689B88AB
:10421000FB817B689B889BB201339AB27B689A8052
:104220007B681A887B689B889BB29A4202D87B681D
:1042300000229A807B68DB889BB201339AB27B684C
:10424000DA80FB8918461437BD465DF8047B704759
:1042500080B485B000AF78604FF6FF73FB817B6858
:10426000DB889BB2002B1AD07B685B88FB817B6864
:104270005B889BB201339AB27B685A807B685B880B
:104280009AB27B681B889A4202D37B6800225A80CC
:104290007B68DB889BB2013B9AB27B68DA80FB8942
:1042A00018461437BD465DF8047B704780B483B070
:1042B00000AF78607B681A887B68DB889BB2D31A72
:1042C0009BB218460C37BD465DF8047B704780B43E
:1042D00085B000AF78600023FB737B68002B14D09F
:1042E0007B681B79002B10D07B68DB88002B0CD0FF
:1042F0007B689B899AB27B68DB889A4205D87B6889
:104300001B69002B01D00123FB73FB7B184614377C
:10431000BD465DF8047B704780B586B000AFF8609D
:10432000B9601346FB800023FB75FB68002B1AD095
:10433000BB68002B17D0FB88002B14D0FB6806331A
:10434000FA8811461846FFF72DFFFB881A46002110
:10435000B8680CF00FF9FB68BA681A61FB680122B3
:104360001A710123FB75FB7D18461837BD4680BDC9
:1043700080B584B000AF78600023FB737B68002BAE
:104380001AD07B681B69002B0BD07B68DB88002B65
:1043900007D07B6818697B68DB881A4600210CF01F
:1043A000E9F87B6800229A817B6800221A817B6889
:1043B00000225A810123FB73FB7B18461037BD4650
:1043C00080BD80B584B000AF78600B46FB70786824
:1043D000FFF77DFF0346FB73FB7B002B18D0002308
:1043E000FB737B689B899AB27B68DB889A4219D2FF
:1043F0007B681B697A68528992B21344FA781A7002
:104400007B6806331846FFF7F3FE0123FB7309E0D0
:104410007B681B685A1C7B681A607868FFF7A8FFE6
:104420000346FB73FB7B18461037BD4680BD80B545
:1044300084B000AF786039607868FFF748FF0346C2
:10444000FB73FB7B002B1FD00023FB737B689B89D6
:104450009BB2002B18D07B681B697A68128992B2D4
:10446000134493F900203B681A707B681B697A68D3
:10447000128992B2134400221A707B6806331846E0
:10448000FFF7E6FE0123FB73FB7B18461037BD46A2
:1044900080BD80B586B000AFF860B9601346FB8080
:1044A000F868FFF714FF0346FB75FB7D002B38D03F
:1044B000FB88002B35D0F86800F0A6F803463B6176
:1044C000FB883A699A4202D30123FB7504E0FB683A
:1044D0001B685A1CFB681A600023BB820023BB8246
:1044E0001BE0FB7D002B15D0BB8ABA68134493F9FF
:1044F00000301946F868FFF764FF0346FB75FB7D43
:1045000083F00103DBB2002B04D0FB681B685A1C4C
:10451000FB681A60BB8A0133BB82BA8AFB889A4265
:10452000DFD3FB7D18461837BD4680BD80B586B009
:1045300000AFF860B9607A603B60F868FFF7C7FECB
:104540000346FB75BB68002B44D03B68002B41D071
:10455000FB7D002B3ED00023FB750123BB753B6820
:1045600000221A8032E0FB689B899BB2002B29D085
:1045700000237B753B681B881A467B6893421CD9D5
:1045800007F115031946F868FFF751FF0346FB755D
:10459000FB7D002B0ED03B681B881A46BB6813447A
:1045A00097F915201A703B681B8801339AB23B6853
:1045B0001A800BE00023BB7508E00023BB750123C4
:1045C000FB7503E00023BB750123FB75BB7D002B4E
:1045D000C9D101E00023FB75FB7D18461837BD46A5
:1045E00080BD80B485B000AF78600023FB817B681C
:1045F000002B02D07B689B89FB81FB89184614370E
:10460000BD465DF8047B704780B584B000AF78602C
:104610007B6806331846FFF749FE0346FB81FB899A
:1046200018461037BD4680BD80B58AB000AFF8602F
:10463000B9607A60002387F8273000233B620023AB
:10464000FB77FB68002B63D07B68002B60D0B968D8
:10465000F86800F0C6FE0346FB75FB7D83F001039E
:10466000DBB2002B51D0BB68022BCCBF012300234F
:10467000BB75BB7D002B4BD0FB6893F90030302B12
:104680000ED1FB68013393F90030782B05D0FB681D
:10469000013393F90030582B02D10223FB7701E05C
:1046A0000023FB770023BB61FB7FBB611CE0BB6980
:1046B000FA68134493F90030184600F0E1FE03460F
:1046C000002B03D03B6A01333B620AE0BB69FA6806
:1046D000134493F90030BA6910492A2001F0BCFC58
:1046E00006E0BB690133BB61BA69BB689A42DEDB95
:1046F000FB7FBA68D31A3A6A9A4209D17B68FA7F7B
:104700001A70012387F8273002E0012387F8273049
:1047100097F8273018462837BD4680BD28710F0806
:104720002DE9B0438CB000AFF860B9607A60012326
:1047300087F82F300123FB764FF000024FF0000383
:10474000C7E90823BB687B61FB68002B5FD07B68EF
:10475000002B5CD007F114031946F86800F0FCFD4B
:104760000346FB76FB7E83F00103DBB2002B02D015
:10477000002387F82F307B69102B02DD002387F898
:104780002F3097F82F30002B3BD00023FB6134E013
:10479000FB69FA68134493F90030BB760023FB747D
:1047A00007F11302BB7E1146184600F05AFD03467E
:1047B000002B18D0D7E908014FF000024FF000039A
:1047C0000B0143EA10730201F97CC9B200200C46C8
:1047D000054612EB040843EB0509C7E90889FB69A4
:1047E0000133FB6109E0002387F82F304FF000020E
:1047F0004FF00003C7E9082303E07B69FA699A4296
:10480000C6DB7968D7E90823C1E9002302E0002369
:1048100087F82F3097F82F3018463037BD46BDE85F
:10482000B0832DE9B0438CB000AFF860B9607A6016
:10483000012387F82F300123FB764FF000024FF061
:104840000003C7E90823BB687B61FB68002B6ED0BF
:104850007B68002B6BD007F114031946F86800F051
:104860007BFD0346FB76FB7E83F00103DBB2002B6E
:1048700002D0002387F82F307B69102B02DD002344
:1048800087F82F3097F82F30002B4AD00023FB6198
:1048900043E0FB69FA68134493F90030BB760023C8
:1048A000FB7407F11302BB7E1146184600F0D9FCD9
:1048B000034687F82F3097F82F30002B1CD0D7E90C
:1048C00008014FF000024FF000030B0143EA1073A0
:1048D0000201F97CC9B200200C46054612EB04081F
:1048E00043EB0509C7E90889D7E90823B3F1006F4D
:1048F00002DB002387F82F3097F82F3083F0010375
:10490000DBB2002B06D04FF000024FF00003C7E9E6
:10491000082306E0FB690133FB617B69FA699A426F
:10492000B7DB7968D7E90823C1E9002302E0002357
:1049300087F82F3097F82F3018463037BD46BDE83E
:10494000B0832DE9B04F92B000AFF861B9617A61E0
:10495000012387F847304FF000024FF00003C7E90A
:104960000E230023BB62FB6993F9003007F1280294
:104970001146184600F0CEFC0346002B6ED00023F3
:1049800087F847306EE0BB6A1A46FB69134493F917
:10499000003087F82F30002387F827304FF00002CF
:1049A0004FF00003C7E90C2307F1270297F82F30D7
:1049B0001146184600F089FC034687F8473097F8FF
:1049C0004730002B35D0D7E90E8942464B464FF091
:1049D00000004FF00001990041EA927190000246F8
:1049E0000B4612EB080443EB09052319BB6045EBAA
:1049F0000503FB60D7E9024522462B4697F82710AE
:104A0000C9B200208A46834612EB0A01396043EBA3
:104A10000B037B60D7E90023C7E90C23D7E90C011E
:104A2000D7E90E23904271EB030302D2002387F8EB
:104A3000473097F8473083F00103DBB2002B06D0F4
:104A40004FF000024FF00003C7E90E230AE0D7E958
:104A50000C23C7E90E23BB6A0133BB62BB6ABA6988
:104A60009A4290DC7969D7E90E23C1E9002397F8CF
:104A7000473018464837BD46BDE8B08F2DE9B04FE6
:104A800094B000AF78623962FA61012387F84F3041
:104A9000002387F837304FF000024FF00003C7E9DA
:104AA000102300233B637B6A002B00F0A680FB6988
:104AB000002B00F0A2807B6A93F9003007F13002EE
:104AC0001146184600F026FC034687F8373097F861
:104AD0003730002B05D03B6A012B02DC002387F81E
:104AE0004F3097F84F30002B6FD06AE03B6B1A467F
:104AF0007B6A134493F9003087F83630002387F837
:104B00002F304FF000024FF00003C7E90E2307F1EA
:104B10002F0297F836301146184600F0D6FB0346B0
:104B200087F84F3097F84F30002B35D0D7E91089F0
:104B300042464B464FF000004FF00001990041EA19
:104B40009271900002460B4612EB080443EB0905F4
:104B50002319BB6045EB0503FB60D7E902452246FC
:104B60002B4697F82F10C9B200208A46834612EBD5
:104B70000A01396043EB0B037B60D7E90023C7E9E7
:104B80000E23D7E90E01D7E91023904271EB0303FE
:104B900002DA002387F84F3097F84F3083F0010393
:104BA000DBB2002B06D04FF000024FF00003C7E944
:104BB00010230AE0D7E90E23C7E910233B6B01332A
:104BC0003B633B6B3A6A9A4290DC97F83730002B94
:104BD0000DD0D7E9102300215042386161EB030367
:104BE0007B61FB69D7E90412C3E9001208E0F969A7
:104BF000D7E91023C1E9002302E0002387F84F30F2
:104C000097F84F3018465037BD46BDE8B08F80B595
:104C100084B000AF786039600023FB737B68002BA1
:104C20000ED03B68002B0BD07868FCF729FB0346BD
:104C3000BB603A68B968786800F026F80346FB73F1
:104C4000FB7B18461037BD4680BD80B584B000AFF1
:104C5000786039600023FB737B68002B0ED03B68C3
:104C6000002B0BD07868FCF70BFB0346BB603A685F
:104C7000B968786800F09CF80346FB73FB7B184624
:104C80001037BD4680BD000080B588B000AFF86029
:104C9000B9607A600123FB77BB68FA682B492A2048
:104CA00001F041F90123BB77BB68BB61FB68002BB6
:104CB00043D07B68002B40D07B6800221A6007F14C
:104CC00018031946F86800F047FB0346BB77BB7F23
:104CD00083F00103DBB2002B02D00023FB772FE02F
:104CE0000023FB750023FB77BB691946F86800F0C9
:104CF00078FB0346002B08D0BB697A681946F86830
:104D000000F044F90346FB771AE0BB6907F117028C
:104D10001946F868FFF788FC0346002B10D0FB7D8E
:104D20001A46FB689818BB69FA7D9B1A7A6819467F
:104D300000F0CCF80346FB7702E00023FB7700E0AD
:104D400000BFFB7F18462037BD4680BD50710F085D
:104D500080B487B000AFF860B9607A600023FB755B
:104D6000FB68002B1CD0BB68002B19D07B68002B84
:104D700016D000233B6105E03B6901333B61FB68D2
:104D80000133FB60FB6893F90030202B03D13A69B3
:104D9000BB689A42F0D37B683A691A600123FB75BD
:104DA000FB7D18461C37BD465DF8047B704700004C
:104DB00080B58AB002AFF860B9607A60BB680093D2
:104DC000FB683F4A3F492A2001F0ADF80123FB77F9
:104DD0000123BB77BB68BB617B68002B02D07B687B
:104DE00000221A6000237B61BB6807F11402194698
:104DF000F868FFF7ADFF03467B777B7F002B03D07E
:104E0000BB697A699B1ABB617B69FA68134407F135
:104E100018021146184600F09FFA0346BB77BB7F85
:104E200083F00103DBB2002B01D00023FB77FB7F73
:104E3000002B3FD00023FB747B69FA681344BA69E6
:104E40001146184600F0CDFA03467B777B7F002B96
:104E50000AD07B69FA681344B9697A68184600F089
:104E6000C0F80346FB7725E07B69FA6813441A46CD
:104E700015492A2001F057F87B69FA681344B9698B
:104E800007F113021846FFF7CFFB0346002B0FD0A4
:104E9000FB7C1A467B691344FA68D018BB69FA7C1C
:104EA0009B1A7A68194600F03CF80346FB7701E04C
:104EB0000023FB77FB7F18462037BD4680BD00BF2F
:104EC00050980F0868710F0888710F0880B588B076
:104ED00000AFF860B9607A604FF000024FF0000355
:104EE000C7E9042307F110031A46B968F868FFF709
:104EF00017FC0346FB77FB7F002B08D0D7E9042380
:104F0000012B04D2D7E904237B681A6004E0002354
:104F1000FB777B6800221A60FB7F18462037BD466E
:104F200080BD80B588B000AFF860B9607A604FF09E
:104F300000024FF00003C7E9042307F110031A46EB
:104F4000B968F868FFF76DFC0346FB77FB7F002B21
:104F500012D0D7E90423B2F1004F73F100030BDA4A
:104F6000D7E90423B2F1004F73F1FF3304DBD7E933
:104F700004237B681A6004E00023FB777B6800222F
:104F80001A60FB7F18462037BD4680BD80B588B0CB
:104F900000AFF860B9607A604FF000024FF0000394
:104FA000C7E9042307F110031A46B968F868FFF748
:104FB000C8FC0346FB77FB7F002B08D0D7E904230E
:104FC000012B04D2D7E904237B681A6004E0002394
:104FD000FB777B6800221A60FB7F18462037BD46AE
:104FE00080BD80B588B000AFF860B9607A604FF0DE
:104FF00000024FF00003C7E9042307F110031A462B
:10500000B968F868FFF73AFD0346FB77FB7F002B92
:1050100012D0D7E90423B2F1004F73F100030BDA89
:10502000D7E90423B2F1004F73F1FF3304DBD7E972
:1050300004237B681A6004E00023FB777B6800226E
:105040001A60FB7F18462037BD4680BD80B584B00E
:1050500000AF786039600023FB737B68002B0ED0B3
:105060003B68002B0BD07868FCF70AF90346BB605D
:105070003A68B968786800F01BF80346FB73FB7B5D
:1050800018461037BD4680BD80B584B000AF78604B
:1050900039607868FCF7F4F80346FB603A68F96811
:1050A000786800F02CF8034618461037BD4680BDDE
:1050B00080B586B000AFF860B9607A6000233B61CC
:1050C00007F110031A46B968F868FFF7DDFD0346DB
:1050D000FB75FB7D002B08D03B69B3F5803F04D204
:1050E0003B699AB27B681A8004E00023FB757B68F9
:1050F00000221A80FB7D18461837BD4680BD80B55A
:1051000086B000AFF860B9607A6000233B6107F1B8
:1051100010031A46B968F868FFF74AFE0346FB75A4
:10512000FB7D002B0CD03B69B3F5004F08DA3B69DF
:1051300013F5004F04DB3B691AB27B681A8004E068
:105140000023FB757B6800221A80FB7D1846183708
:10515000BD4680BD80B584B000AF78603960002363
:10516000FB737B68002B0ED03B68002B0BD078685C
:10517000FCF786F80346BB603A68B968786800F0C7
:105180001BF80346FB73FB7B18461037BD4680BDFA
:1051900080B584B000AF786039607868FCF770F84B
:1051A0000346FB603A68F968786800F030F8034617
:1051B00018461037BD4680BD80B586B000AFF86098
:1051C000B9607A600023FB75FB68002B1AD00023BE
:1051D0003B6107F110031A46B968F868FFF754FD00
:1051E0000346FB75FB7D002B07D03B69FF2B04D8E2
:1051F0003B69DAB27B681A7004E00023FB757B68B8
:1052000000221A70FB7D18461837BD4680BD80B558
:1052100086B000AFF860B9607A6000233B6107F1A7
:1052200010031A46B968F868FFF7C2FD0346FB751C
:10523000FB7D002B0BD03B697F2B08DC3B6913F116
:10524000800F04DB3B695AB27B681A7004E00023CC
:10525000FB757B6800221A70FB7D18461837BD4627
:1052600080BD80B485B000AF03463960FB71002378
:10527000FB730123BB73FB79662B16DC612B0CDA05
:10528000392B02DC302B04DA0FE0413B052B0CD824
:1052900007E0FB79303BFB730AE0FB79573BFB737C
:1052A00006E0FB79373BFB7302E00023BB7300BFD2
:1052B0003B68002B02D03B68FA7B1A70BB7B184618
:1052C0001437BD465DF8047B704780B485B000AFED
:1052D00003463960FB710023FB730123BB73FB7929
:1052E0002F2B02D9FB79392B01D90023BB73BB7B50
:1052F000002B02D0FB79303BFB733B68002B02D0C4
:105300003B68FA7B1A70BB7B18461437BD465DF8C4
:10531000047B704780B485B000AF03463960FB71F1
:105320000023FB733B6800221A6097F907302D2B8E
:1053300004D10123FB733B6801221A6097F90730FF
:105340002B2B02D13B6801221A60FB7B18461437D5
:10535000BD465DF8047B704780B584B000AF7860CF
:1053600039600123FB737B68002B18D03B681B68F6
:10537000002B0DDA7B68002B07D07868FBF780FFE5
:1053800003461A463B681A6002E03B6800221A6036
:105390003B681B68002B04D10023FB7301E0002352
:1053A000FB73FB7B18461037BD4680BD80B485B0CB
:1053B00000AF0346FB710023FB7397F907302F2BD7
:1053C00006DD97F90730392B02DC0123FB7301E07E
:1053D0000023FB73FB7B18461437BD465DF8047B46
:1053E000704780B586B000AF786039600023FB75E8
:1053F00000233B617B68002B3DD03B68002BCCBF7A
:1054000001230023FB72FB7A002B34D00023FB60C6
:105410000023FB6025E0FB687A68134493F90030B1
:105420001846FFF7C3FF0346002B03D03B69013347
:105430003B6113E0FB687A68134493F900302D2B2D
:1054400006D0FB687A68134493F900302B2B05D102
:10545000FB68002B02D13B6901333B61FB680133E0
:10546000FB60FA683B689A42D5DB3A683B699A422E
:1054700001D10123FB75FB7D18461837BD4680BD61
:1054800080B485B000AF0346FB710023FB7397F92E
:105490000730402B03DD97F90730462B0FDD97F9D6
:1054A0000730602B03DD97F90730662B07DD97F98E
:1054B00007302F2B06DD97F90730392B02DC01234B
:1054C000FB7301E00023FB73FB7B18461437BD46DA
:1054D0005DF8047B7047000080B58AB002AFF860C9
:1054E0007A603B600B46FB720023FB77FB7A184621
:1054F00007F0C4FD02463B6800931346FA685E4914
:105500002A2000F010FDFB68002B00F0A3807B68D0
:10551000002B00F09F803B68002B00F09B80FB7A03
:10552000013B0D2B00F2898001A252F823F000BF4D
:1055300091550E083B560E086F550E08B3550E08D0
:10554000D5550E08F7550E083B560E0819560E088D
:105550003B560E083B560E083B560E083B560E08AF
:105560003B560E0869550E080123FB777FE00023A8
:10557000BB7707F11E031946F868FFF709FE0346DB
:10558000FB77FB7F002B67D0BA7F7B681A7063E0E4
:1055900000237B7707F11D031946F868FFF7DAFD52
:1055A0000346FB77FB7F002B58D07A7F7B681A700D
:1055B00054E000237B8307F11A031946F868FFF7CC
:1055C00045FD0346FB77FB7F002B49D07A8B7B6838
:1055D0001A8045E000233B8307F118031946F86859
:1055E000FFF752FD0346FB77FB7F002B3AD03A8B47
:1055F0007B681A8036E000237B6107F114031946AB
:10560000F868FFF704FB0346FB77FB7F002B2BD0EA
:105610007A697B681A6027E000233B6107F1100379
:105620001946F868FFF711FB0346FB77FB7F002B59
:105630001CD03A697B681A6018E0FB7A184607F0BC
:105640001DFD03461A460D492A2000F005FD0023E2
:10565000FB770CE000BF0AE000BF08E000BF06E0F7
:1056600000BF04E000BF02E000BF00E000BFFB7F1E
:1056700018462037BD4680BD50730F0870730F0861
:1056800080B48BB000AF7860396000237B627B68A8
:10569000002B6AD03B68002B67D03B6893F9003041
:1056A000002B02D17B687B625FE000233B6255E008
:1056B0000023FB610023FB6135E03A6AFB69134478
:1056C0001A467B68134493F90030BB61BB69013310
:1056D000294A134493F90030DBB203F00303012B92
:1056E00002D1BB69203300E0BB697B61FB693A688A
:1056F000134493F900303B613B6901331E4A134464
:1057000093F90030DBB203F00303012B02D13B69B4
:10571000203300E03B69FB607A69FB689A420DD157
:10572000FB690133FB613A6AFB6913441A467B68E3
:10573000134493F90030002BBFD100E000BFFB6998
:105740003A68134493F90030002B04D13B6A7A681D
:1057500013447B6209E03B6A01333B623B6A7A682F
:10576000134493F90030002BA2D17B6A18462C37E2
:10577000BD465DF8047B7047C4A30F0880B584B0B4
:1057800000AF78600B46FB701346BB707B68FB6014
:105790000023BB6007E0FB685A1CFA60BA781A70F5
:1057A000BB680133BB6097F903301946F8680BF00A
:1057B000EDFAF860FB68002BEDD1BB681846103796
:1057C000BD4680BD80B487B000AF786039607B682B
:1057D0007B613B683B617A693B699A4207D1002350
:1057E00034E07B695A1C7A611B78002B2CD07B69D2
:1057F0001B78FB73FB7B0133174A134493F900308A
:10580000DBB203F00303012B03D1FB7B03F1200286
:1058100000E0FA7B3B69591C39611B78BB73BB7B89
:1058200001330D490B4493F90030DBB203F003035D
:10583000012B02D1BB7B203300E0BB7BD31ABB60C2
:10584000BB68002BCDD000E000BFBB6818461C37FA
:10585000BD465DF8047B7047C4A30F0880B58AB0CD
:1058600002AFF860B9601346FB710023FB610023AF
:10587000BB6197F907300093BB68FA6817492A2083
:1058800000F051FB0023FB750023FB6116E0FB6871
:1058900093F9003097F907209A4214D10022B96891
:1058A000F868FEF735FC0346FB75FB7D002B02D044
:1058B000BB690133BB61FB690133FB61FA69BB68FA
:1058C0009A42E4D300E000BFBA6905492A2000F0FB
:1058D0002AFBBB6918462037BD4680BDF0730F0810
:1058E000AC730F0880B588B002AFF860B96013469A
:1058F000FB7100237B61FB68002B39D0BB68002B58
:1059000036D097F907300093BB68FA681D492A2002
:1059100000F009FB00233B61BB68013B3B6122E0D7
:105920003B69FA68134493F900303A6916492A2012
:1059300000F0F9FA3B69FA68134493F9003097F9DB
:1059400007209A4213D13B69FA68134400221A7067
:105950003A690E492A2000F0E6FA7B6901337B613F
:105960003B69013B3B613B69002BD9DA00E000BF9A
:105970007A6907492A2000F0D6FA7B691846183759
:10598000BD4680BD08740F0820740F0830740F08DE
:10599000AC730F0880B58AB002AF78600B46FB701D
:1059A0000023FB617868FBF76BFCF86097F9033024
:1059B0000093FB687A6829492A2000F0B4FA002392
:1059C000BB6100237B610023FB7200237B6136E017
:1059D0000023BB720023FB740023BB6126E07A68BE
:1059E000BB6913441B78BB7297F9032097F90A30FF
:1059F0009A4216D197F90A2097F913309A4210D19A
:105A0000BB69002B0DD0BA69F9687868FEF780FB96
:105A10000346FB72FB7A002B0DD0FB690133FB615F
:105A200009E0BB7AFB74BB690133BB61BA69FB68EF
:105A30009A42D4D300E000BF7B6901337B617A696D
:105A4000FB689A42C4D3FA6905492A2000F06BFA30
:105A5000FB6918462037BD4680BD00BF3C740F0867
:105A6000AC730F0880B584B000AF0346FB71002310
:105A7000FB600023BB600023BB6022E01749BA68CB
:105A800013465B0013449B000B4403331B78FA79E5
:105A90009A4213D11149BA6813465B0013449B0024
:105AA0000B4401331B78002B12D0BA6813465B00FD
:105AB00013449B00094A1344FB6009E0BB680133AF
:105AC000BB6007F017FE0246BB689342D6D300E0E6
:105AD00000BFFB6818461037BD4680BDA0080020F7
:105AE00080B584B000AF0346FB710023FB60002348
:105AF000BB600023BB601FE01649BA6813469B00D9
:105B000013440B4403331B78FA799A4211D111499B
