:020000040100F9
:10000000FD6293820240FD12E39F02FE374100022F
:1000100013010100B711000293818193B71500010C
:10002000938545393716000113067642B70600025C
:100030009386861539A083A2050023A0560091055A
:100040009106E3EAC5FEB70500019385850B3706E7
:10005000000113060621B70600029386060039A0A8
:1000600083A2050023A0560091059106E3EAC5FE90
:10007000B70500029385C51E370600021306062445
:1000800021A023A005009105E3EDC5FEB702000203
:100090009382020C73905230B7000001E780600B2E
:1000A000B7000001E780600BB7100001E780E0DBDC
:0800B00073005010F5BF8280BF
:1000B8000000000000000000000000000000000038
:1000C8000000000000000000000000000000000028
:1000D8000000000000000000000000000000000018
:1000E8000000000000000000000000000000000008
:1000F80000000000000000000000000000000000F8
:1001080000000000000000000000000000000000E7
:1001180000000000000000000000000000000000D7
:1001280000000000000000000000000000000000C7
:1001380000000000000000000000000000000000B7
:1001480000000000000000000000000000000000A7
:100158000000000000000000000000000000000097
:100168000000000000000000000000000000000087
:100178006F004000130141F806C00AC20EC412C63F
:1001880016C81ACA1ECC22CE26D02AD22ED432D6CF
:1001980036D83ADA3EDC42DEC6C0CAC2CEC4D2C6BF
:1001A800D6C8DACADECCE2CEE6D0EAD2EED4F2D6AF
:1001B800F6D8FADAFEDC970000FF9380C028829018
:1001C80082401241A2413242C2425243E243724447
:1001D80082541255A2553256C2565257E257725897
:1001E80086481649A649364AC64A564BE64B764CC7
:1001F800865C165DA65D365EC65E565FE65F1301D9
:08020800C1077300203001A0C2
:10021000411106C622C42A84252902840545B2401C
:10022000224441018280011106CE22CC4EC652C426
:10023000E12A2A84AD2AEF00304F2A8A29C126CA32
:100240004AC8B71400019384C42C8149014926850A
:10025000FD2C2A84AA990509C104E31A2AFFD24475
:100260004249330A3A41133A1A003365440113757F
:10027000F50FF2406244B249224A05618280AA89A0
:10028000CDB7011106CE26CA3929AA84EF00303B2A
:100290001DC522CC4AC84EC6AA89371400011304D2
:1002A000442B01498345840003450400552EAA844C
:1002B00005093104E39829FF62444249B249AD2E51
:1002C0002685F240D24405618280411106C622C4CF
:1002D0002A84EF00F04515CD93878186014731A030
:1002E0000507938787026301E50283C60700E39948
:1002F00086FE83C6C700EDD6131527003A950E0576
:10030000938781863E9511A00145B2402244410168
:1003100082800145DDBF411106C622C42A84EF0058
:10032000304121C5B717000193874738014783C67D
:100330000700638B86000507C107E31AE5FE014548
:10034000B240224441018280B71700019316470052
:1003500093874738B69783C7C7000145F5D337154C
:100360000001130545383695E1BF0145D1BF411164
:1003700006C622C4A126EF00B03B0145A12E2A8467
:100380000545892E22953335A000B2402244410113
:10039000828083A7418B850723AAF18AB7070500CE
:1003A0007D5723ACE74082801335150082800145DC
:1003B0008280AA871377F50F118309CB85466303E3
:1003C000D704894601456304D700828081464111E4
:1003D00006C622C4FD15BD8B0544B317F4003717BC
:1003E00000018E0613070726369713B6150093955E
:1003F0000701C1814843EF0050602285B24022448A
:10040000410182808546E1B7B70705000567D8CF6F
:100410000967D8CF1167D8CF054582808547630B20
:10042000F5028947630CF50405E5371705008326B7
:1004300007C08D47B397B70093C7F7FFF58F232009
:10044000F7C0832707C03316B6005D8E2320C7C0D0
:1004500001458280371705008326C7C08D47B397B3
:10046000B70093C7F7FFF58F2326F7C08327C7C0D0
:100470003316B6005D8E2326C7C0D9BF37170500D7
:10048000832687C18D47B397B70093C7F7FFF58FD2
:10049000232CF7C0832787C1B315B60033E6F500D8
:1004A000232CC7C075B79376F50085470947638548
:1004B000F500F91513B715001375F50F935745009F
:1004C0000546638CC7020946638EC7040145BDEF2C
:1004D00037160500832586C08D47B397D70093C78D
:1004E000F7FFED8F2324F6C0832786C03317D7008C
:1004F0005D8F2324E6C005458280371605008325DD
:1005000046C18D47B397D70093C7F7FFED8F232AD6
:10051000F6C0832746C13317D7005D8F232AE6C074
:100520000545828037160500832506C28D47B3979F
:10053000D70093C7F7FFED8F2320F6C2832706C2AB
:100540003317D7005D8F2320E6C205458280630301
:10055000050E011106CE22CC2A845C419183BD8B0D
:1005600089CF05476386E70409470145BA86638753
:10057000E700F2406244056182808146A3060100E3
:1005800058403D8B8547B397E7002314F10083471C
:10059000A4001947638EE708636EF7000946054714
:1005A000638FC7000D460947638BC700114701A839
:1005B0008546E9B7E517B337F00013873700230501
:1005C000E10083479400054609476385C700F91792
:1005D00013B71700A305E1008347B400094601479C
:1005E0006387C700F117B337F0001387170023069E
:1005F000E100B71700011397360093870726BA97D3
:100600002C00C843EF00502F45334C4013D5450014
:1006100003460400BD893D89113583459400034597
:10062000440051358345C40003454400593391B714
:10063000014771B701458280411106C6B707050021
:100640000947D8CBEF00103C0545B24041018280FC
:10065000411106C6EF00103C0545B24041018280C1
:10066000AA877D470145634FF702411106C622C4A0
:1006700026C22E848544B394F40091CD2685EF00E4
:10068000F03A09CC2685EF00703C0545B240224483
:100690009244410182802685EF00503A2685EF0082
:1006A000903BE5B7828005458280828019C1014573
:1006B000828037150001130585278280411106C607
:1006C000EF00900CB70705002147D8C70545B24099
:1006D00041018280411106C626C2AA842D3939C53E
:1006E00022C42A84054591C42244B2409244410167
:1006F00082800145D93EAA8705459DCB5840D8C385
:10070000184498C703471400A380E7003707070081
:1007100098D398CB3947A382E70213850701EF00EE
:10072000301DEF00700605452244C1B7014575BF75
:10073000224465BF411106C603A7818A23AEE18822
:100740000545B52011C98D472309F5009307803E63
:100750001CC583A7418A5CC905452380A18AB24094
:1007600041018280411106C683C7018A99C703A54A
:10077000C1890528B2404101828003A7818A23AE46
:10078000E18805452D2011C98D472309F500930700
:10079000803E1CC583A7418A5CC905452380A18A88
:1007A000D1BF411106C6AD34B24041018280411132
:1007B00006C622C42A84EF00607721C9B707000269
:1007C00083C78716638E8700854763F2A70483C7B4
:1007D0004185014563868702B240224441018280FF
:1007E000B707000283C79716E5D301453305A0403C
:1007F00013754502B7070002938787153E95E9BF39
:1008000083C75185F1DB0545D5B70145F1B70145F2
:10081000E1B7011106CE22CC26CA2A84AE84EF00AD
:10082000E0702DCDB707000283C78716638F87005E
:10083000854763F7A70683C7418501456382870221
:10084000F2406244D24405618280B707000283C748
:100850009716F9DF4EC68149054589E8B249CDB7FB
:1008600003C5518571DD4EC68549FDB74AC8B70439
:1008700000029384841513993900330439010A0462
:10088000269483458401034594012536894723092D
:10089000F400A30DF4004249B2495DB701454DB7DC
:1008A000014579BF797106D622D426D24AD04ECEE0
:1008B00052CC56CA5AC85EC6952DAA8A0144370939
:1008C00000028549371A0001094BA1A09307891539
:1008D00083C71701A9CB814B912D05C19307CA345A
:1008E00083C707016380970663F9A9009307CA3499
:1008F00083C7C702854563889704130789159397B3
:100900003B00DE978A07BA97238E3701050463E11F
:100910008A0A292D65DD9374F40F9307891583C71F
:100920000701E38597FAE3F3A9FE9307891583C7C7
:100930004703E39D97FC9307891583C75703854BAE
:10094000F1D759BF81451307CA34939735008D8F6E
:100950008A07BA9783C71701CDD3930789151397D1
:100960003B005E970A07BA971306CA349396350080
:100970003387B6400A07329703458701238CA700C7
:100980000345A701238DA700A38D6701484BC8CB62
:10099000084788C7084388C3034727012389E7001E
:1009A0008D8E8A06369603479601A38CE700B1B771
:1009B0000545B250225492540259F249624AD24A31
:1009C000424BB24B45618280411106C626C29387D5
:1009D000018C83C7170493F4F70FC5C322C4938710
:1009E000018C05472380E70403A8870283A8C70278
:1009F000429733350701B306150198D7D4D79053E2
:100A0000D453984BDC4B63E6F6006399F6006377AA
:100A1000E6009387018CD84F0507D8CF9387018CC8
:100A200003A8070183A847011307180033350701FE
:100A3000B306150198CBD4CB904BD44B8853CC53F1
:100A4000098E90DB9C5F328763E5C7009387018C3A
:100A5000985F9387018C98DFDC5B63F5C700938711
:100A6000018CD05B1384018C50D808484C48B126C7
:100A700018485C4818D05CD022442685B240924485
:100A8000410182809387018C8146014794CBD8CB6A
:100A90002380070423AE07000D47D8DF0545A38058
:100AA000A7048280411106C69387018C81460147C5
:100AB00094CBD8CB2380070423AE07000D47D8DFA3
:100AC0000547A380E7040937FDBF411106C622C4CC
:100AD00026C24AC0238C018A9387818BA38007009A
:100AE00037140001130484281309840281441C4034
:100AF0008297AA941104E31C24FF138564FF133525
:100B00001500238CA18A9387818B0547A380E7007A
:100B1000B24022449244024941018280411106C6FA
:100B200022C42A84012925C193873189014729A03C
:100B30000507A9076304E50483C60700E39A86FE58
:100B400083C61700F5D693162700369706079387B6
:100B50000189BA9703C56700EFF02FF70DC1E1686F
:100B60009388086A01488147014781460146B78555
:100B700020064105E129EFF03F8311A00145B24075
:100B80002244410182800145DDBF411106C622C4D5
:100B900026C24AC02A84AE843289692E49C5938709
:100BA0003189814629A08506A9076307D50603C8B0
:100BB0000700E31A88FE03C81700E30608FE139730
:100BC00026003697060793870189BA9703C5670001
:100BD000EFF0AFEF39C1894793055003638BF40001
:100BE0008D47D5456387F400854795456383F400B9
:100BF0009D45E205E1689388086A014881474A8774
:100C000085460146370320003693B3E5650041056C
:100C10003529EFF06FF911A00145B240224492440A
:100C20000249410182800145CDBF797106D622D4A7
:100C300026D24AD04ECE2A84AE893289C535AA84BE
:100C4000D52C59C993873189014729A00507A907E0
:100C50006304E50883C60700E39A86FE83C617008F
:100C6000F5D6931627003697060793870189BA971A
:100C700003C56700EFF06FE525C152CC23063101B3
:100C8000A3062101E1689388086A01487C000147B6
:100C900089460146B7852001B6954105452EEFF0FE
:100CA000AFF02A8AE1649384146A930981000549AC
:100CB00011A091CF230401004E86CA852285F1350B
:100CC00005C583478100858BFD14E5F40145337527
:100CD00045019374F50F624A2685B250225492540E
:100CE0000259F24945618280FD14EDD0E1B7797176
:100CF00006D622D426D24AD04ECE52CC56CA5AC894
:100D00005EC662C4052CAA890149854B95A89387C4
:100D1000C18A13173400018FBA9783C74700B1CF38
:100D2000112C93873189014711E581A80507A9078F
:100D30006305E50483C60700E39A96FE83C61700A1
:100D4000F5D69385018993162700B387E6008607B9
:100D5000AE971386C18A13153400018D2A96034578
:100D60003600A381A70003455600A382A7000346CF
:100D700066002383C70023827701050963E2290304
:100D8000552A65DD9387F18A01449374F90F03C7EF
:100D90000700E30E97F605049D07E31A85FEF1BFF1
:100DA0000545B250225492540259F249624AD24A3D
:100DB000424BB24B224C456182808280828041113D
:100DC00006C62133B71500019385052BC53FEFF00B
:100DD0007F99C93901A0411106C6B7070500D84F50
:100DE000DD669D06558FD8CFD84B1367B708D8CB93
:100DF000D84713671700D8C7D84713672700D8C745
:100E0000D84713674700D8C7D84713678700D8C7A4
:100E1000D84713670702D8C7D8473D9BD8C7D847DC
:100E20001377F7FBD8C7D8471377F7F7D8C70D471D
:100E300098D7094511220545B240410182800945F4
:100E4000828005458280797106D626D2854509457E
:100E5000EFF03F9C0145EFF00FCC814455C122D407
:100E60004AD02A840145EFF07F842A8941C901458F
:100E7000EFF0AFC559C9092A23020100500085458A
:100E80002E85213323040100300089450545F539BD
:100E9000AA8401E522540259A5A0034681001366E5
:100EA00026002304C100834541000545BD3BAA84BB
:100EB00001E522540259A9A002C602C802CA02CC06
:100EC00002CE832749003EC603451400EFF0EFFD34
:100ED0002308A1001C443ECA02CC8D47230EF1001A
:100EE0008947A30EF1009147230FF100AD57A30FDF
:100EF000F1006800CD282254025919A02254025949
:100F00002685B25092544561828022540259CDBF49
:100F1000411106C60D3F01E5B2404101828037050F
:100F20000080EFF0EFAECDBF214582800945828081
:100F3000054582800545828091476301F50463EF92
:100F4000A70085476306F50289476318F500370750
:100F500006005C4BF99B5CCB82808280A1476318C2
:100F6000F500370706001C4BF99B1CCB8280828062
:100F7000370706005C4BF59B5CCB82803707060089
:100F80001C4BF59B1CCB8280011106CE22CC26CABD
:100F9000A305010023060100A3060100B707050011
:100FA0002147D8C78D472314F1000544230581004C
:100FB000B304E100A68537550800130505802D2AE6
:100FC0009307C0032314F10023058100A3058100CA
:100FD000A6853755080013050580392AF24062447A
:100FE000D24405618280411106C622C42A84693F29
:100FF00018405C4F93E707015CCF1C40184498CB26
:101000008347440085CF18401C43B7061000D58F96
:101010001CC3144083470401C207034714014E0751
:10102000D98F034724015607D98F0347340162073C
:10103000D98F9CCEB24022444101828014409C4210
:101040003707F0FF7D17F98F9CC2E1B7032E05002B
:101050000323CE0113630302232E6E000323050036
:101060002324C300104123260601032805001396FC
:10107000260149824D8E2322C80013960501635C28
:10108000060281CE3E87BE96A5C31C4103460700DB
:10109000238AC7000507E31AD7FE638B08021C41A9
:1010A000DC4FFD1893F70702EDDB9397150163C33F
:1010B000070201458280F5D2BA87BA9605CB18415E
:1010C000034747012380E7008507E39AD7FEF1B77E
:1010D0000D458280B707070083C7470113F58500D8
:1010E0001D8D3335A00082800545828005458280B4
:1010F0001C414147D8CF8280B747080093870740FB
:10110000630EF508B7570800938707806305F50A53
:10111000B74708006306F50C0545828023260501C4
:1011200019A02324050183260300FD8E03C8450072
:101130003318C800B3E606012320D30083260E002F
:10114000F58F83C63500B396C600D58F2320FE00E9
:10115000050783D70500B3D6E7409DCE3398EE0050
:10116000B377F800F5D713161700B397CF0093C7DE
:10117000F7FF83C625008D8AB396C60083A20800B8
:10118000B3F25700B3E6560023A0D80083C625006B
:10119000E386E6F9D9D641BF01458280371E0500B6
:1011A000130E4EC137130500130303C1B718050012
:1011B0009388C8C029A8371E0500130E0EC2371326
:1011C00005001303C3C1B7180500938888C183D7EE
:1011D00005000147854E8D4F114FC9F301458280AF
:1011E000371E0500130E8EC037130500130343C0CE
:1011F000B7180500938808C0D9BF19E24CC1828096
:101200000CC18280F3670430856793870780F3A75A
:1012100047308280F377443093070008F3B74730B4
:10122000856793870780F3B747308280B70705004B
:1012300003A70740498F23A0E7408280B707050036
:1012400003A74740498F23A2E7408280B7070500E4
:1012500023A4A7408280B707050023A6A740828069
:1012600001000000004008000101000000440800E7
:101270000102000000480800010000000000070013
:10128000000000000E00000082020001D60D0001E7
:10129000260200016E030001A408000134070001CA
:1012A000840A0001EE0C0001420E0001100F000143
:1012B000535953000100000000000000000000002E
:1012C000020000000000000001000000000000001B
:1012D0000300000100030600000000000000000001
:1012E00013000001000306000000000001000000E0
:1012F00020000001000302000000000001000000C7
:1013000021000001000302000000000001000000B5
:1013100022000004000202000000000001000000A2
:101320002300000400020200000000000100000091
:101330002400000400020200000000000100000080
:101340002500000400020200000000000000000070
:1013500000000000A00F00000000000001010300D9
:1013600000004842010300000100000000000000EE
:10137000409C000000000000020101000000484203
:1013800001130000000100000000000000000090B8
:041390000100000058
:101394000000000000000000000000000000000049
:1013A4000101000000000000000000000000000037
:1013B4000000000000000000000000000000000029
:1013C4000000000002010000000000000000000016
:1013D4000000000000000000000000000000000009
:1013E40000000000010000000000000000000000F8
:1013F40000000000000000000000000000000000E9
:0C140400000000010100000000000000DA
:08141000000000800000000054
:0F14180000004842000000802125240101FF0050
:0400000501000000F6
:00000001FF
