:020000040800F2
:1000000000000110ADFA040855DF0108B9E201084B
:10001000BDE20108C1E20108C5E2010800000000DC
:10002000000000000000000000000000C9E201081C
:10003000D1E2010800000000CDE20108F9E2010868
:10004000F5E20108B5E20108A9E20108ADE2010804
:10005000A1E201085DDF010851E3010855E3010851
:1000600059E301085DE3010861E3010861DF01086C
:1000700095DF0108C9DF0108FDDF010831E0010853
:1000800065E0010899E0010851DF0108FDFA040864
:10009000FDFA0408FDFA0408FDFA040865E3010806
:1000A000FDFA040871E3010875E3010879E301082A
:1000B0007DE3010881E3010885E3010895E3010878
:1000C00091E30108B1E3010899E30108D5E20108D1
:1000D000D9E2010829E301083DE3010841E30108F1
:1000E00069E30108D5E30108B1E20108FDFA04085B
:1000F000FDFA0408FDFA0408FDFA0408CDE0010841
:1001000059DF010809E3010889E30108F1E2010868
:1001100045E3010849E301088DE30108FDFA0408FD
:1001200001E1010835E1010869E101089DE10108EB
:10013000D1E10108FDFA0408FDFA0408FDFA0408FB
:10014000FDFA0408FDFA0408FDFA0408D9E30108E1
:1001500005E2010839E201086DE201084DE30108FA
:10016000C9E30108CDE30108DDE301086DE30108FF
:10017000FDFA0408E1E30108FDFA040800000000AC
:08018000D1E30108A5E201082A
:10018800FFFFFFFFFFFFFFFFFFFFFFFFFFFFFFFF77
:10019800FFFFFFFFFFFFFFFFFFFFFFFFFFFFFFFF67
:1001A800FFFFFFFFFFFFFFFFFFFFFFFFFFFFFFFF57
:1001B800FFFFFFFFFFFFFFFFFFFFFFFFFFFFFFFF47
:020000040801F1
:1000000010B5054C237833B9044B13B10448AFF352
:1000100000800123237010BDD0C900200000000023
:100020004CC7050808B5034B1BB103490348AFF3A0
:10003000008008BD00000000D4C900204CC705089E
:1000400081F0004102E000BF83F0004330B54FEA89
:1000500041044FEA430594EA050F08BF90EA020FF6
:100060001FBF54EA000C55EA020C7FEA645C7FEA89
:10007000655C00F0E2804FEA5454D4EB5555B8BFAC
:100080006D420CDD2C4480EA020281EA030382EA1D
:10009000000083EA010180EA020281EA0303362DAF
:1000A00088BF30BD11F0004F4FEA01314FF4801C82
:1000B0004CEA113102D0404261EB410113F0004F94
:1000C0004FEA03334CEA133302D0524263EB43034B
:1000D00094EA050F00F0A780A4F10104D5F1200EE9
:1000E0000DDB02FA0EFC22FA05F2801841F1000144
:1000F00003FA0EF2801843FA05F359410EE0A5F118
:1001000020050EF1200E012A03FA0EFC28BF4CF048
:10011000020C43FA05F3C01851EBE37101F00045FE
:1001200007D54FF0000EDCF1000C7EEB00006EEB0B
:100130000101B1F5801F1BD3B1F5001F0CD3490895
:100140005FEA30004FEA3C0C04F101044FEA4452EC
:1001500012F5800F80F09A80BCF1004F08BF5FEA73
:10016000500C50F1000041EB045141EA050130BD53
:100170005FEA4C0C404141EB0101013C28BFB1F565
:10018000801FE9D291F0000F04BF01460020B1FAB0
:1001900081F308BF2033A3F10B03B3F120020CDA83
:1001A0000C3208DD02F1140CC2F10C0201FA0CF061
:1001B00021FA02F10CE002F11402D8BFC2F1200CC6
:1001C00001FA02F120FA0CFCDCBF41EA0C0190407C
:1001D000E41AA2BF01EB0451294330BD6FEA0404C5
:1001E0001F3C1CDA0C340EDC04F11404C4F12002B0
:1001F00020FA04F001FA02F340EA030021FA04F3C2
:1002000045EA030130BDC4F10C04C4F1200220FA18
:1002100002F001FA04F340EA0300294630BD21FA56
:1002200004F0294630BD94F0000F83F4801306BF1C
:1002300081F480110134013D4EE77FEA645C18BF10
:100240007FEA655C29D094EA050F08BF90EA020FA7
:1002500005D054EA000C04BF1946104630BD91EA9F
:10026000030F1EBF0021002030BD5FEA545C05D1A2
:100270004000494128BF41F0004130BD14F58004E1
:100280003CBF01F5801130BD01F0004545F0FE4155
:1002900041F470014FF0000030BD7FEA645C1ABF8A
:1002A000194610467FEA655C1CBF0B46024650EAC1
:1002B000013406BF52EA033591EA030F41F40021ED
:1002C00030BD00BF90F0000F04BF0021704730B573
:1002D0004FF4806404F132044FF000054FF0000148
:1002E00050E700BF90F0000F04BF0021704730B509
:1002F0004FF4806404F1320410F0004548BF4042DE
:100300004FF000013EE700BF42004FEAE2014FEA32
:1003100031014FEA02701FBF12F07F4393F07F4F0D
:1003200081F06051704732F07F4208BF704793F010
:100330007F4F04BF41F40021704730B54FF4607423
:1003400001F0004521F000411CE700BF50EA010226
:1003500008BF704730B54FF000050AE050EA0102CF
:1003600008BF704730B511F0004502D5404261EB3F
:1003700041014FF4806404F132045FEA915C3FF480
:10038000D8AE4FF003025FEADC0C18BF03325FEA1D
:10039000DC0C18BF033202EBDC02C2F1200300FACE
:1003A00003FC20FA02F001FA03FE40EA0E0021FAF3
:1003B00002F11444BDE600BF70B54FF0FF0C4CF4E1
:1003C000E06C1CEA11541DBF1CEA135594EA0C0F93
:1003D00095EA0C0F00F0DEF82C4481EA030621EACE
:1003E0004C5123EA4C5350EA013518BF52EA033509
:1003F00041F4801143F4801338D0A0FB02CE4FF0BB
:100400000005E1FB02E506F00042E0FB03E54FF0EA
:100410000006E1FB03569CF0000F18BF4EF0010EE2
:10042000A4F1FF04B6F5007F64F5407404D25FEADE
:100430004E0E6D4146EB060642EAC62141EA555191
:100440004FEAC52040EA5E504FEACE2EB4F1FD0CD3
:1004500088BFBCF5E06F1ED8BEF1004F08BF5FEA51
:10046000500E50F1000041EB045170BD06F0004603
:1004700046EA010140EA020081EA0301B4EB5C04B0
:10048000C2BFD4EB0C0541EA045170BD41F48011A8
:100490004FF0000E013C00F3AB8014F1360FDEBFCD
:1004A000002001F0004170BDC4F10004203C35DAA9
:1004B0000C341BDC04F11404C4F1200500FA05F32C
:1004C00020FA04F001FA05F240EA020001F00042CD
:1004D00021F0004110EBD37021FA04F642EB060143
:1004E0005EEA430E08BF20EAD37070BDC4F10C046D
:1004F000C4F1200500FA04F320FA05F001FA04F231
:1005000040EA020001F0004110EBD37041F100011C
:100510005EEA430E08BF20EAD37070BDC4F1200527
:1005200000FA05F24EEA020E20FA04F301FA05F28F
:1005300043EA020321FA04F001F0004121FA04F237
:1005400020EA020000EBD3705EEA430E08BF20EA07
:10055000D37070BD94F0000F0FD101F00046400041
:1005600041EB010111F4801F08BF013CF7D041EAC3
:10057000060195F0000F18BF704703F000465200C7
:1005800043EB030313F4801F08BF013DF7D043EA98
:100590000603704794EA0C0F0CEA135518BF95EA4E
:1005A0000C0F0CD050EA410618BF52EA4306D1D1D5
:1005B00081EA030101F000414FF0000070BD50EAF4
:1005C000410606BF1046194652EA430619D094EA7E
:1005D0000C0F02D150EA013613D195EA0C0F05D168
:1005E00052EA03361CBF104619460AD181EA0301BC
:1005F00001F0004141F0FE4141F470014FF0000074
:1006000070BD41F0FE4141F4780170BD70B54FF00E
:10061000FF0C4CF4E06C1CEA11541DBF1CEA13558E
:1006200094EA0C0F95EA0C0F00F0A7F8A4EB050470
:1006300081EA030E52EA03354FEA013100F0888067
:100640004FEA03334FF0805545EA131343EA126330
:100650004FEA022245EA111545EA10654FEA0026E5
:100660000EF000419D4208BF964244F1FD0404F59E
:10067000407402D25B084FEA3202B61A65EB0305FA
:100680005B084FEA32024FF480104FF4002CB6EBB7
:10069000020E75EB030E22BFB61A754640EA0C0037
:1006A0005B084FEA3202B6EB020E75EB030E22BF77
:1006B000B61A754640EA5C005B084FEA3202B6EBB8
:1006C000020E75EB030E22BFB61A754640EA9C0077
:1006D0005B084FEA3202B6EB020E75EB030E22BF47
:1006E000B61A754640EADC0055EA060E18D04FEA05
:1006F000051545EA16754FEA06164FEAC30343EAA5
:1007000052734FEAC2025FEA1C1CC0D111F4801F71
:100710000BD141EA00014FF000004FF0004CB6E76A
:1007200011F4801F04BF01430020B4F1FD0C88BF09
:10073000BCF5E06F3FF6AFAEB5EB030C04BFB6EB14
:10074000020C5FEA500C50F1000041EB045170BD07
:100750000EF0004E4EEA113114EB5C04C2BFD4EB34
:100760000C0541EA045170BD41F480114FF0000EB8
:10077000013C90E645EA060E8DE60CEA135594EA34
:100780000C0F08BF95EA0C0F3FF43BAF94EA0C0F37
:100790000AD150EA01347FF434AF95EA0C0F7FF4AC
:1007A00025AF104619462CE795EA0C0F06D152EA00
:1007B00003353FF4FDAE1046194622E750EA4106E4
:1007C00018BF52EA43067FF4C5AE50EA41047FF4F5
:1007D0000DAF52EA43057FF4EBAE12E74FF0FF3C5A
:1007E00006E000BF4FF0010C02E000BF4FF0010C2B
:1007F0004DF804CD4FEA410C7FEA6C5C4FEA430CA4
:1008000018BF7FEA6C5C1BD001B050EA410C0CBFF2
:1008100052EA430C91EA030F02BF90EA020F002054
:10082000704710F1000F91EA030F58BF994208BFBB
:1008300090422CBFD8176FEAE37040F00100704778
:100840004FEA410C7FEA6C5C02D150EA013C07D1CF
:100850004FEA430C7FEA6C5CD6D152EA033CD3D01A
:100860005DF8040B704700BF8446104662468C4614
:100870001946634600E000BF01B5FFF7B7FF002847
:1008800048BF10F1000F01BD4DF808EDFFF7F4FF70
:100890000CBF012000205DF808FB00BF4DF808EDFB
:1008A000FFF7EAFF34BF012000205DF808FB00BF1E
:1008B0004DF808EDFFF7E0FF94BF012000205DF840
:1008C00008FB00BF4DF808EDFFF7CEFF94BF0120F5
:1008D00000205DF808FB00BF4DF808EDFFF7C4FFEE
:1008E00034BF012000205DF808FB00BF4FEA410C37
:1008F0007FEA6C5C02D150EA013C0AD14FEA430C1A
:100900007FEA6C5C02D152EA033C02D14FF0000056
:1009100070474FF0010070474FEA410212F5001294
:1009200015D211D56FF47873B3EB625212D94FEA36
:10093000C12343F0004343EA505311F0004F23FA20
:1009400002F018BF404270474FF00000704750EA75
:10095000013005D111F0004008BF6FF00040704732
:100960004FF00000704700BF4A0011D212F500128C
:1009700011D20DD56FF47873B3EB62520ED44FEAF7
:10098000C12343F0004343EA505323FA02F0704777
:100990004FF00000704750EA013002D14FF0FF30B5
:1009A00070474FF0000070474FEA4102B2F1E04358
:1009B00024BFB3F5001CDCF1FE5C0DD901F0004C46
:1009C0004FEAC0024CEA5070B2F1004F40EB830096
:1009D00008BF20F00100704711F0804F21D113F1C2
:1009E0003872BCBF01F00040704741F480114FEAFB
:1009F0005252C2F11802C2F1200C10FA0CF320FA84
:100A000002F018BF40F001004FEAC1234FEAD323A0
:100A100003FA0CFC40EA0C0023FA02F34FEA43030A
:100A2000CCE77FEA625307D150EA01331EBF4FF093
:100A3000FE4040F44000704701F0004040F0FE40AE
:100A400040F40000704700BF80F0004002E000BFAB
:100A500081F0004142001FBF5FEA410392EA030FA9
:100A60007FEA226C7FEA236C6AD04FEA1262D2EBF3
:100A70001363C1BFD218414048404140B8BF5B42F8
:100A8000192B88BF704710F0004F40F4000020F091
:100A90007F4018BF404211F0004F41F4000121F0A7
:100AA0007F4118BF494292EA030F3FD0A2F10102F1
:100AB00041FA03FC10EB0C00C3F1200301FA03F12F
:100AC00000F0004302D5494260EB4000B0F5000F52
:100AD00013D3B0F1807F06D340084FEA310102F111
:100AE0000102FE2A51D2B1F1004F40EBC25008BFC3
:100AF00020F0010040EA03007047490040EB00008D
:100B0000013A28BFB0F5000FEDD2B0FA80FCACF18D
:100B1000080CB2EB0C0200FA0CF0AABF00EBC250BA
:100B200052421843BCBFD0401843704792F0000FA8
:100B300081F4000106BF80F400000132013BB5E7FB
:100B40004FEA41037FEA226C18BF7FEA236C21D071
:100B500092EA030F04D092F0000F08BF08467047D6
:100B600090EA010F1CBF0020704712F07F4F04D1A4
:100B7000400028BF40F00040704712F100723CBFB7
:100B800000F50000704700F0004343F0FE4040F4E1
:100B9000000070477FEA226216BF08467FEA23639F
:100BA0000146420206BF5FEA412390EA010F40F48A
:100BB000800070474FF0000304E000BF10F00043D6
:100BC00048BF40425FEA000C08BF704743F09643BD
:100BD00001464FF000001CE050EA010208BF7047D8
:100BE0004FF000030AE000BF50EA010208BF70475F
:100BF00011F0004302D5404261EB41015FEA010C74
:100C000002BF84460146002043F0B64308BFA3F16B
:100C10008053A3F50003BCFA8CF2083AA3EBC2534D
:100C200010DB01FA02FC634400FA02FCC2F120026C
:100C3000BCF1004F20FA02F243EB020008BF20F0A3
:100C40000100704702F1200201FA02FCC2F1200209
:100C500050EA4C0021FA02F243EB020008BF20EAFE
:100C6000DC7070477BB972B90029BEBF00204FF01D
:100C7000004106E008BF00281CBF6FF000414FF0A4
:100C8000FF3000F0FDB9ADF1080C6DE904CE00298C
:100C900009DB002B1ADB00F08BF8DDF804E0DDE95E
:100CA000022304B07047404261EB4101002B1BDB83
:100CB00000F07EF8DDF804E0DDE9022304B04042F4
:100CC00061EB4101524263EB43037047524263EBD5
:100CD000430300F06DF8DDF804E0DDE9022304B021
:100CE000404261EB41017047524263EB430300F025
:100CF0005FF8DDF804E0DDE9022304B0524263EB63
:100D00004303704753B94AB9002908BF00281CBFE4
:100D10004FF0FF314FF0FF3000F0B2B9ADF1080CE9
:100D20006DE904CE00F044F8DDF804E0DDE90223CB
:100D300004B07047D0B5FFF7E7FA0C4B0022064627
:100D40000F46FFF739FBFFF70FFE0446FFF7BAFA2D
:100D5000074B0022FFF730FB02460B463046394670
:100D6000FFF772F9FFF700FE2146D0BD0000F03D0D
:100D70000000F041D0B50C4B002206460F46FFF7AD
:100D80001BFBFFF7F1FD0446FFF79CFA074B00221F
:100D9000FFF712FB02460B4630463946FFF754F97F
:100DA000FFF7E2FD2146D0BD0000F03D0000F0411C
:100DB0002DE9F047089D04468E46002B4DD18A420E
:100DC000944669D9B2FA82F252B101FA02F3C2F141
:100DD000200120FA01F10CFA02FC41EA030E9440D2
:100DE0004FEA1C48210CBEFBF8F61FFA8CF708FBF3
:100DF00016E341EA034306FB07F199420AD91CEBCB
:100E0000030306F1FF3080F01F81994240F21C81FC
:100E1000023E63445B1AA4B2B3FBF8F008FB103344
:100E200044EA034400FB07F7A7420AD91CEB040479
:100E300000F1FF3380F00A81A74240F20781644449
:100E4000023840EA0640E41B00261DB1D4400023CE
:100E5000C5E900433146BDE8F0878B4209D9002D32
:100E600000F0EF800026C5E9000130463146BDE8BC
:100E7000F087B3FA83F6002E4AD18B4202D3824226
:100E800000F2F980841A61EB030301209E46002DD5
:100E9000E0D0C5E9004EDDE702B9FFDEB2FA82F22A
:100EA000002A40F09280A1EB0C014FEA1C471FFA88
:100EB0008CFE0126200CB1FBF7F307FB131140EA6F
:100EC00001410EFB03F0884208D91CEB010103F13C
:100ED000FF3802D2884200F2CB804346091AA4B2FE
:100EE000B1FBF7F007FB101144EA01440EFB00FED2
:100EF000A64508D91CEB040400F1FF3102D2A64537
:100F000000F2BB800846A4EB0E0440EA03409CE7D5
:100F1000C6F12007B34022FA07FC4CEA030C20FA82
:100F200007F401FA06F31C43F9404FEA1C4900FAA2
:100F300006F3B1FBF9F8200C1FFA8CFE09FB18111F
:100F400040EA014108FB0EF0884202FA06F20BD992
:100F50001CEB010108F1FF3A80F08880884240F2E2
:100F60008580A8F102086144091AA4B2B1FBF9F026
:100F700009FB101144EA014100FB0EFE8E4508D921
:100F80001CEB010100F1FF346CD28E456AD90238A6
:100F9000614440EA0840A0FB0294A1EB0E01A1428B
:100FA000C846A64656D353D05DB1B3EB080261EBF9
:100FB0000E0101FA07F722FA06F3F1401F43C5E9D3
:100FC000007100263146BDE8F087C2F12003D84009
:100FD0000CFA02FC21FA03F3914001434FEA1C474B
:100FE0001FFA8CFEB3FBF7F007FB10360B0C43EA3D
:100FF000064300FB0EF69E4204FA02F408D91CEBED
:10100000030300F1FF382FD29E422DD902386344EA
:101010009B1B89B2B3FBF7F607FB163341EA03418A
:1010200006FB0EF38B4208D91CEB010106F1FF38D9
:1010300016D28B4214D9023E6144C91A46EA0046D0
:1010400038E72E46284605E70646E3E61846F8E662
:101050004B45A9D2B9EB020864EB0C0E0138A3E7AB
:101060004646EAE7204694E74046D1E7D0467BE78C
:10107000023B614432E7304609E76444023842E704
:10108000704700BF000000000000000000000000EA
:1010900001F0FF01102A2BDB10F0070F08D010F829
:1010A000013B013A8B422DD010F0070F42B3F6D12D
:1010B000F0B441EA012141EA014122F007047FF046
:1010C00000070023F0E80256083C85EA010586EA9D
:1010D000010685FA47F5A3FA87F586FA47F6A5FAD9
:1010E00087F68EB9EED1F0BC01F0FF0102F00702E5
:1010F00032B110F8013B013A83EA010313B1F8D190
:101100000020704701387047002D06BF3546033870
:10111000073815F0010F07D1013015F4807F02BFA9
:10112000013015F4C03F0130F0BC0138704700BFFA
:10113000844641EA000313F003036DD1403A41D3E2
:1011400051F8043B40F8043B51F8043B40F8043BA1
:1011500051F8043B40F8043B51F8043B40F8043B91
:1011600051F8043B40F8043B51F8043B40F8043B81
:1011700051F8043B40F8043B51F8043B40F8043B71
:1011800051F8043B40F8043B51F8043B40F8043B61
:1011900051F8043B40F8043B51F8043B40F8043B51
:1011A00051F8043B40F8043B51F8043B40F8043B41
:1011B00051F8043B40F8043B51F8043B40F8043B31
:1011C000403ABDD2303211D351F8043B40F8043BD1
:1011D00051F8043B40F8043B51F8043B40F8043B11
:1011E00051F8043B40F8043B103AEDD20C3205D3E1
:1011F00051F8043B40F8043B043AF9D2043208D0D9
:10120000D2071CBF11F8013B00F8013B01D30B884A
:1012100003806046704700BF082A13D38B078DD028
:1012200010F003038AD0C3F10403D21ADB071CBFFA
:1012300011F8013B00F8013B80D331F8023B20F864
:10124000023B7BE7043AD9D3013A11F8013B00F89D
:10125000013BF9D20B7803704B7843708B78837025
:101260006046704700000000000000000000000021
:10127000000000000000000000000000000000006E
:10128000A2EB0300704700BF02780B78012A28BF49
:101290009A42F5D16DE9044540EA0104CDE90267BF
:1012A0006FF0000C4FEA447212B380EA010414F0AC
:1012B000070F6AD100F0070420F0070004F00305CF
:1012C00021F007014FEAC505F0E8042314F0040FEC
:1012D000F1E804670CFA05F462EA040266EA04061F
:1012E0000AD063EA0403624667EA0407664603E03D
:1012F000F0E80423F1E8046782FA4CF582EA060478
:10130000A4FA8CF46CBB83FA4CF583EA0705A5FAC2
:101310008CF595B950E9022351E9026782FA4CF540
:1013200082EA0604A4FA8CF483FA4CF583EA0705F2
:10133000A5FA8CF52543DBD09CB92DBAB5FA85F416
:1013400024F0070427FA04F1DDE9026723FA04F325
:1013500003F0FF0001F0FF01FDE80445A0EB0100F0
:10136000704724BAB4FA84F424F0070426FA04F18E
:10137000DDE9026722FA04F202F0FF0001F0FF014A
:10138000FDE80445A0EB0100704714F0030F3CD1C9
:1013900010F0030428D150F8082B51F8083B82FACA
:1013A0004CF582EA0305A5FA8CF55DB950F8042CDA
:1013B00051F8043C82FA4CF582EA0305A5FA8CF553
:1013C000002DE8D02DBAB5FA85F424F0070423FAED
:1013D00004F122FA04F202F0FF0001F0FF01FDE83F
:1013E0000445A0EB010070474FEAC40420F003005D
:1013F00050F8082B21F0030151F8083B0CFA04F4D3
:1014000062EA040263EA0403C9E710F003041AD095
:10141000A1EB040120F00300E40750F8042B06D0F0
:101420000FD28B785FFAA2F4E41A06D12BB1CB78F5
:101430005FFAB2F4E41A00D11BB920465DF8104BF4
:10144000704701F1040150F8042BCC0721F003018F
:1014500051F8043B48D824D222F07F4482FA4CF55C
:1014600094EA1325A5FA8CF50AD165B951F8043B25
:1014700084EA0204B4EB036F0ED150F8042BEBE7BF
:101480004FEA132355E035F07F454DD10878FDE84C
:101490000445C0F1000070474FEA126203F0FF03F9
:1014A00047E002EA1C4482FA4CF594EA1345A5FA97
:1014B0008CF50AD165B951F8043B84EA0204B4EB17
:1014C000034F0CD150F8042BEBE74FEA134330E005
:1014D00015EA1C4528D10B884FEA124229E04FEA51
:1014E000124203EA1C4324E002F0FF0482FA4CF5A6
:1014F00094EA1365A5FA8CF50AD165B951F8043B55
:1015000084EA0204B4EB032F09D150F8042BEBE773
:101510004FEA13630DE015F0FF0F05D10B684FEA9A
:10152000122223F07F4304E04FF00000FDE8044561
:10153000704712BA1BBA82FA4CF482EA0304A4FA86
:101540008CF5B5FA85F402FA04F203FA04F34FEAD3
:101550001260FDE80445A0EB136070470000000036
:10156000000000000000000000000000000000007B
:10157000000000000000000000000000000000006B
:1015800090F800F06DE9024520F007016FF0000CC3
:1015900010F0070491F820F040F049804FF000046B
:1015A0006FF00700D1E9002391F840F000F1080046
:1015B00082FA4CF2A4FA8CF283FA4CF3A2FA8CF37E
:1015C0004BBBD1E9022382FA4CF200F10800A4FAE5
:1015D0008CF283FA4CF3A2FA8CF3E3B9D1E9042339
:1015E00082FA4CF200F10800A4FA8CF283FA4CF370
:1015F000A2FA8CF37BB9D1E9062301F1200182FA2A
:101600004CF200F10800A4FA8CF283FA4CF3A2FA2F
:101610008CF3002BC6D0002A04BF04301A4612BA3D
:10162000B2FA82F2FDE8024500EBD2007047D1E940
:10163000002304F00305C4F100004FEAC50514F0CF
:10164000040F91F840F00CFA05F562EA05021CBFA0
:1016500063EA050362464FF00004A9E710B50446AB
:1016600000F05AF800B110BD2046BDE8104008F067
:1016700003B800BF0120704770B582B04FF0000C76
:10168000914204468DF805C00AD302D0604602B0EC
:1016900070BD0DF10500201A1860012002B070BD68
:1016A0004E1C964296468DF806C006D3EED10DF13B
:1016B0000600201A18600120E9E78E1CB2428DF85E
:1016C00007C006D8E2D10DF10700201A18600120EA
:1016D000DDE70331FFF7D0FFD9E700BF38B5044697
:1016E00034F00AF890B10B4D00222B4604E0013291
:1016F000904203F124030AD01979A142F7D1197C51
:101700000029F4D002EBC20205EB820038BD0020B4
:1017100038BD00BFA48D002038B5044633F038FF33
:1017200078B1094B00211A68A24201F1010103D8E6
:101730005D682A44A24205D2884203F11003F2D127
:10174000002038BD012038BDC8CA060810B582B0D7
:101750004FF0000E944603468DF804E00A4659B94E
:1017600001A81B1ACCF80030012417490B2016F0F1
:10177000B7FB204602B010BD01298DF805E006D167
:101780000DF105001B1ACCF800300C46EDE70229DC
:101790008DF806E006D10DF106001B1ACCF80030DA
:1017A0000124E2E703298DF807E006D10DF10701D6
:1017B000431ACCF800300124D7E763460421FFF731
:1017C0005BFF1B680446D0E754C8050808B5064906
:1017D0000B2016F0BBFA4FF47A7021F029FBBDE81C
:1017E000084000F017BB00BF70C8050838B5D0E945
:1017F0000713426AC9184FF0000444EB0403511860
:10180000826A43F100035218416B43F100038A18C6
:1018100043F10003134305463ED10068FFF77CFF08
:10182000044600283FD0686807F026FF04460028D9
:1018300071D0E86807F020FF0446002864D02869CA
:1018400007F01AFF0446002857D0686907F014FF14
:10185000044600284AD0A86907F00EFF0446002875
:101860003DD0286B07F008FF044688B3E86A07F00C
:1018700003FF044628B3A86B07F0FEFE0446C8B178
:10188000A86807F0F9FE044658B96A6825490B2094
:1018900016F054FE204638BD024623490B2016F0B0
:1018A0004DFE204638BD21492A460B2016F046FE43
:1018B000204638BD6A681E490B2016F03FFE2046C0
:1018C00038BD6A681B490B2016F038FE204638BD2B
:1018D0006A6819490B2016F031FE204638BD6A6847
:1018E00016490B2016F02AFE204638BD6A681449B6
:1018F0000B2016F023FE204638BD6A6811490B20E4
:1019000016F01CFE204638BD6A680F490B2016F001
:1019100015FE204638BD6A680C490B2016F00EFEF5
:10192000204638BD6CC905087CC8050898C805085C
:1019300058C9050844C905082CC9050814C9050873
:10194000FCC80508E4C80508CCC80508B4C80508E3
:101950002DE9F0410E4686B015460027134615497D
:1019600003970DF10C08044632460B20C8E90177B5
:1019700016F04CFC032D07D898E8070084E8070010
:10198000204606B0BDE8F081A9080B4A019102ABE0
:10199000701B029712F07AF801990028ECD0029B94
:1019A0006420CB1A03FB00F0052243461EF09EF98B
:1019B000E2E700BF80C90508EFBEADDEFFF716BF46
:1019C000044AD2F8883043F470030120C2F888300A
:1019D000704700BF00ED00E00C4B9A6A42F40042F1
:1019E0009A62EFF3138171B65A6942F480725A61B8
:1019F0000278986A5A6922F480725A6181F31388D6
:101A000080F40040C0F3C030704700BF00ED00E03C
:101A100030B583B0024601901E490B2016F060FAE3
:101A20001D498B6A43F400438B62EFF3138371B655
:101A30004869019A40F48070486110788D6A15F405
:101A400000450FD000251448416921F4807141619F
:101A500083F3138811492B460B2016F041FA2846D0
:101A600003B030BD0C494C6924F480744C6183F39D
:101A700013888C6A44F4004401358C62EFF31383BD
:101A800071B64C6944F480744C61505D896A0904F4
:101A9000E8D5D8E77CCA050800ED00E0A0C9050834
:101AA000034A13680BB972B61368013313607047A9
:101AB000ECC90020034A13681BB1013B136003B952
:101AC00062B67047ECC900202DE9F04F774983B02A
:101AD0004FF000520B2016F003FA754B9A6A42F44D
:101AE00000429A62EFF3138071B65A694FF00051C9
:101AF00042F480725A610A789C6A14F4004400F03F
:101B0000948000246A4A536923F48073536180F3FC
:101B1000138868494FF000520B20234616F0E0F975
:101B2000654923464FF000520B2016F0D9F933F0E7
:101B3000E3FD00268246B146F5B260492A460B20F5
:101B400016F004F933F0D8FD002800F089805C4FCE
:101B500000243B4603E00134A04200F081801A7962
:101B6000AA4203F11403F6D104EB840807EB8808BA
:101B7000A300019398F81030002B71D0D8F80830EA
:101B800001931846FFF7C8FD00286FD0A300234437
:101B900007EB8303D3F80CB05846FFF7BDFD0028D0
:101BA0006BD0A300234457F82340002C71D040464B
:101BB00001F076FD434902460B2016F0C7F833F0DA
:101BC0009BFD00286BD0404F00233A4604E00133D0
:101BD000984202F1240262D01179A942F7D1117C16
:101BE0000029F4D0019903EBC30307EB830247F804
:101BF0002340C2E9021B2E4CD4F88800002140F497
:101C00007000C4F88800C2E9061140F20115516164
:101C1000158209F101090136B2458DD25146484677
:101C200003B0BDE8F04F26F0CFBD214B5A6922F436
:101C300080725A6180F31388996A41F4004104F17B
:101C4000005299620134EFF3138071B6596941F47F
:101C50008071596152789B6A1B043FF553AFE4E7EA
:101C60001A492A460B2016F005FAD4E71849019BB9
:101C70002A460B2016F0FEF988E75B4615492A46EE
:101C80000B2016F0F7F9A300234457F82340002C4B
:101C90008DD111492A460B2016F0ECF987E70F4940
:101CA0002A460B2016F04AFCB3E700BF7CCA0508A1
:101CB00000ED00E0A0C90508B4C90508D0C90508B1
:101CC0009813070868ED0508A48D002024CA0508AC
:101CD000D8C90508F4C9050810CA050834CA05089A
:101CE000032901D90020704730B5054683B0084666
:101CF0000C4600F0D9F8234600901B492A460120E3
:101D000016F0EEF8194BD3F888300B2D0FD8DFE81A
:101D100005F0101316191C1F22250E0E280664F359
:101D20009753124A0120C2F8883003B030BD00201A
:101D3000FBE764F30103F4E764F38303F1E764F37F
:101D40000513EEE764F38713EBE764F30923E8E791
:101D500064F38B23E5E764F30D33E2E764F38F3339
:101D6000DFE764F31553DCE740CA050800ED00E047
:101D700061B1204BD3F888300B2807D8DFE800F09A
:101D80000D12171C21262B3006063508002070473F
:101D9000C3F381530B7001207047C3F301030B7031
:101DA00001207047C3F381030B7001207047C3F318
:101DB00001130B7001207047C3F381130B700120D6
:101DC0007047C3F301230B7001207047C3F38123D5
:101DD0000B7001207047C3F301330B700120704773
:101DE000C3F381330B7001207047C3F301530B70B1
:101DF0000120704700ED00E020B1002383F310883C
:101E000000207047012383F310880020704700BF33
:101E10000020704708B50A49012015F097FF0FF020
:101E200041FC72B6BFF34F8F0649074BCA6802F4F4
:101E3000E0621343CB60BFF34F8F00BFFDE700BFED
:101E400058CA050800ED00E00400FA0572B6012347
:101E500083F31088074B4FF000629A60002282F3F0
:101E6000108862B69868A0F10060B0FA80F040096E
:101E7000704700BF00ED00E010B50B460446024677
:101E80000749012016F02CF8072C06D8054B023420
:101E9000002243F82420012010BD002010BD00BF07
:101EA00068CA0508002000E003289ABF024B53F8D7
:101EB00020000248704700BF14CC05081CBA060871
:101EC00010B50446002845D02348214616F0CEFE22
:101ED000A168224816F0CAFE2168214816F0C6FE05
:101EE0006168204816F0C2FEE1681F4816F0BEFE89
:101EF00021691E4816F0BAFE61691D4816F0B6FE4B
:101F0000616A1C4816F0B2FEA16A1B4816F0AEFECC
:101F1000E16A1A4816F0AAFE216B194816F0A6FECF
:101F2000616B184816F0A2FEA16B174816F09EFED2
:101F3000E16B164816F09AFEA16C154816F096FE55
:101F4000E16C144816F092FE1348D4F8881016F08D
:101F50008DFE012010BD00BF88CA050894CA05087F
:101F6000A4CA0508B4CA0508C4CA0508D4CA050825
:101F7000E4CA0508F4CA050804CB050814CB050813
:101F800024CB050834CB050844CB050854CB050801
:101F900064CB050874CB050884CB0508114B124AA5
:101FA00010F0010110B518BF1A4604460F4816F08C
:101FB0005DFE0F4B0F4A104814F0020F18BF1A466F
:101FC000C4F3400116F052FE0C4B0D4A0D4814F0BC
:101FD000040F18BF1A46C4F3800116F047FE012013
:101FE00010BD00BFA0CB050894CB0508BCCB0508ED
:101FF000B4CB0508B0CB0508D0CB050838190608C6
:10200000B8CB0508E0CB050810B50B4816F02EFE3E
:1020100000242146094816F029FEA21C084B094855
:1020200053F8221016F022FE0134034816F01EFE6B
:10203000082CEED1012010BD80300608F0CB050839
:10204000002000E04C7B060808B5C0B90F491048D5
:1020500016F00CFE0F4B10491B684FF00062012078
:102060001268D21A15F072FE26F014FF0B48FFF723
:1020700027FFEFF31480FFF791FF012008BD084907
:10208000012016F05BFA002008BD00BF5DFD0308CB
:1020900024CC05080400002034CC050800ED00E045
:1020A0005CCC050870B582B0124B0193A8B1012831
:1020B000044607D01049012016F040FA00263046A9
:1020C00002B070BD08680D4601A912F0A9FF0646CE
:1020D00050B1019801F03AFBF1E7184601F036FBE8
:1020E0000126304602B070BD2A680449204616F029
:1020F00025FAE4E7004E002090CC050868CC0508DE
:1021000030B5012383B098428DF8073007D00E49CF
:10211000012016F013FA0025284603B030BD04460E
:1021200008680DF1070113F033F90028EFD09DF88E
:102130000700FFF761FE05460028EDD00349204661
:1021400015F0CEFEE8E700BF9CCC0508E4110608B8
:1021500030B587B00023051E8DF816308DF8173086
:102160002EDB24D1284607E09DF816300133D8B283
:1021700010288DF8160028D800230DF117018DF8CE
:102180001730FFF7F5FD04460028EDD09DF8173015
:102190009DF81620039218460293FFF785FEDDE9AD
:1021A000023200902A49012015F09AFEDCE7086807
:1021B0000C460DF1160113F0A1F8012D08D160BBFA
:1021C0002449012016F0BAF90024204607B030BD9A
:1021D00060680DF1170113F091F804460028EFD064
:1021E000022DF2D19DF817309DF816200392184663
:1021F0000293FFF759FE0446DDE9023200941649C6
:10220000012015F06DFE9DF817109DF81600FFF7E0
:1022100067FD0446204607B030BD0DF117019DF85B
:102220001600FFF7A5FD9DF817309DF816200392C4
:10223000044618460293FFF737FEDDE902320090AC
:102240000349284615F04CFE204607B030BD00BFBC
:10225000B0CC0508C8CC050840CA050830B5012334
:1022600083B098428DF8073007D00E49012016F050
:1022700065F90025284603B030BD044608680DF115
:10228000070113F085F80028EFD09DF80700FFF74D
:10229000BFFD05460028EDD00349204615F020FE7D
:1022A000E8E700BFE0CC0508E411060870B582B08D
:1022B0000024051E8DF8034001940DDB03D1FFF7C8
:1022C000A3FE02B070BD08680E460DF1030113F0C5
:1022D00015F8012D07D118B90A49012016F02EF979
:1022E000002002B070BD706801A912F099FE0028AC
:1022F000F2D0022DF4D101999DF80300FFF7BCFD47
:1023000002B070BDF4CC05086FF00C031A040DD4B4
:102310005A09094803F01F0C2032012101FA0CF17F
:1023200040F82210BFF34F8FBFF36F8F0133522B52
:10233000ECD10120704700BF00E100E038B50D4648
:1023400004462B4602461249382015F0C9FD63B2F7
:1023500065B1002B08DB0F495B0904F01F04012263
:1023600002FA04F441F82340012038BD002BFBDBC6
:102370005B0908490122203304F01F0402FA04F427
:1023800041F82340BFF34F8FBFF36F8F012038BD5B
:1023900010CD050800E100E010B5024604460549ED
:1023A000382015F09DFD14B162B6012010BD72B643
:1023B000012010BD20CD050810F10E0F1AD010F12C
:1023C0000D0F1CD010F10C0F1BD010F10B0F1AD0F9
:1023D00010F10A0F19D010F1090F18D0431D18D0B1
:1023E000011D18D0821C18D0431C08BF092302D03D
:1023F00008F08ABA00230A4A52F8330070470123D2
:10240000F9E70223F7E70323F5E70423F3E70523BE
:10241000F1E70623EFE70723EDE70823EBE700BF2B
:1024200020CE050800B301281ED002281CD00328A6
:102430001AD0042818D0052816D0062814D007284A
:1024400012D0082810D009280DD00A280CD00B284B
:102450000AD00C2808D00D2806D00E2804D00F284A
:1024600002D0034870470920024B53F830007047F0
:102470001CBA060870CE050870B584B00023012888
:10248000ADF80E300FD0214B2149DA680120C2F39C
:10249000022215F025FD1F49382016F04FF80025BF
:1024A000284604B070BD0B4604460DF10E01174ED0
:1024B000186812F003FFF26815490546C2F30222BC
:1024C000204615F00DFD002DE5D09DF90E10BDF94B
:1024D0000E20002913DB01F1604303F5614393F8FB
:1024E00000331B0909481031806850F82100009022
:1024F0000949012015F0F4FC284604B070BD02F033
:102500000F03043B1E44337E1B09EBE700ED00E0A4
:10251000F0CE05082CCF050804CF050810B582B011
:102520000023022801938DF8033006D03820144987
:1025300016F004F8002002B010BD0C460DF10301A6
:10254000206812F005FF206801A912F069FD00283B
:10255000ECD09DF90330019A002B09DB03F16043B5
:1025600003F561431201D2B283F8002302B010BD1B
:10257000044903F00F0312011944D2B20A76DAE7D4
:102580003CCF0508FCEC00E030B583B00023041E0E
:102590008DF806308DF8073006DC1249382015F02A
:1025A000CDFF002003B030BD08680D460DF10601D7
:1025B00012F0CEFE012C04D10028EED0012003B091
:1025C00030BD68680DF1070112F0E2FE0028E4D08A
:1025D000022CF3D19DF807109DF90600FFF7AEFE1F
:1025E00003B030BD58CF05082DE9F04F0023ADB042
:1025F000041ECDE90433CDE90633CDE90833CDE936
:102600000A33CDE90C3304DA039303982DB0BDE807
:10261000F08F14220D4604A87D4940F0BBFE7C4992
:10262000142209A840F0B6FE8CB12968142204A82F
:1026300040F0B0FE012C0AD06968142209A840F0CD
:10264000A9FE022C03D07349382015F077FF724B96
:102650007249DA680120C2F3022215F041FC704B86
:10266000704918680922243016F08AF900234FF0C7
:1026700008086FF00D0403939B4678E0660904F1A7
:10268000604303F56143B60006F1604693F80073BA
:10269000614B654906F561460EA8D6F800909B6827
:1026A00053F80830029340F0D7FD0EA90B465F4A5D
:1026B000009405F01F057821184640F095FC29FA92
:1026C00005F000F0010032F03BFD0EA90B46584A20
:1026D00000907821184640F087FC029B00930EABD7
:1026E000544A7821184640F07FFCD6F80032524A0E
:1026F000EB4003F0010300930EAB1846782140F045
:1027000073FCD6F8003123FA05F53F0905F0010501
:102710000EAB4A4A00957821184640F065FC0EAB96
:10272000474A00977821184640F05EFC3846FFF78C
:1027300079FE0EAB434A00907821184640F054FCD5
:102740005046FFF739FE0EAB3E4A009078211846FE
:1027500040F04AFC09AA04A90EA814F09DFD054604
:10276000002838D10134522C08F1040845D0230444
:10277000E5B24FFA84FA81D5274B2B4905F00F05B6
:10278000043D1D440EA82F7E9B6853F8085040F06E
:1027900063FD0EAB254A00947821184640F024FCD6
:1027A000002032F0CDFC0EAB0090214A7821184673
:1027B00040F01AFC0EAB00951E4A7821184640F0F6
:1027C00013FC00250EAB1C4A0095782118463F09E2
:1027D00040F00AFC9CE759461B4816F047FA0134C2
:1027E0001A480EA916F042FA0BF10103522C1FFAF7
:1027F00083FB039508F10408B9D1094B094918680E
:102800000922243016F0B6F803982DB0BDE8F08FF9
:102810002839060870CF050800ED00E0F0CE050865
:10282000F886002010D005085CAE060884CF0508A5
:1028300090CF05089CCF0508A8CF0508B4CF0508A0
:10284000C0CF0508CCCF0508D8CF0508D8CB0508E0
:1028500000B583B0002301288DF8073007D00B495D
:10286000382015F06BFE002003B05DF804FB08680B
:102870000DF1070112F08CFD0028F0D09DF8070043
:10288000FFF78AFD03B05DF804FB00BFE0CF050849
:10289000D0B5012000F022F818B190F83430044689
:1028A00003B9D0BDFFF7FCF8236901332361D4E9F4
:1028B0000623501C43F10001C4E90601A3685B68CC
:1028C000D4E90867C3F31703981947F10001C4E975
:1028D0000801BDE8D040FFF7EDB800BF38B50446A9
:1028E00032F06AFE90B10B4D00222B4604E001321B
:1028F000904203F138030AD05979A142F7D1D9792E
:102900000029F4D0C2EBC20205EBC20038BD0020A2
:1029100038BD00BFB80F002070B5054632F04CFE40
:1029200058B3174E0024334604E00134A04203F1AB
:1029300038031DD05A79AA42F7D1DA79002AF4D0A7
:10294000C4EBC40406EBC404FFF7AAF8A3685968F3
:102950009868D4E90823C1F31701C0F31700091AD6
:102960008C1843EBE175FFF7A5F82046294670BDAA
:10297000002425462046294670BD04460546F4E756
:10298000B80F002010B532F017FEB8B10D4C002280
:10299000234604E00132904203F138030FD0597905
:1029A0000129F7D1D9790029F4D0C2EBC20204EB96
:1029B000C202906810B1006800F0010010BD002054
:1029C00010BD00BFB80F002010B532F0F5FDC8B142
:1029D0000D4C0022234604E00132904203F13803FB
:1029E00010D059790129F7D1D9790029F4D0C2EB57
:1029F000C20204EBC2029268136823F0030161F380
:102A000007031360012010BDB80F002010B532F08D
:102A1000D3FDF8B1104C0022234604E0013290426D
:102A200003F1380313D059790129F7D1D979002955
:102A3000F4D0C2EBC20204EBC20292683AB113684E
:102A400043F0030060F307031360084610BD002144
:102A5000084610BD0146FBE7B80F002038B5044614
:102A600032F0AAFD8446C0B10D4D00222B4604E091
:102A70000132944503F1380310D059790129F7D177
:102A8000D8790028F4D0C2EBC20205EBC2020021C3
:102A9000936864F317010BB1596038BD002038BD4D
:102AA000B80F002038B5044632F086FD8446C0B128
:102AB0000D4D00222B4604E00132944503F138030A
:102AC00010D059790129F7D1D8790028F4D0C2EB78
:102AD000C20205EBC202936823B11A6864F3820252
:102AE0001A6038BD002038BDB80F002010B532F094
:102AF00063FDC0B10D4C0022234604E00132904238
:102B000003F138030FD059790129F7D1D979002978
:102B1000F4D0C2EBC20204EBC20293681BB1186886
:102B2000C0F3800010BD022010BD00BFB80F002010
:102B300010B532F041FDB8B10D4C0022234604E03F
:102B40000132904203F138030FD059790129F7D1AE
:102B5000D9790029F4D0C2EBC20204EBC20290681A
:102B600010B1406820F07F4010BD002010BD00BFB4
:102B7000B80F002070B5054632F01EFDD0B10F4EE3
:102B80000024334604E00134A04203F1380311D09D
:102B90005A79AA42F7D1DA79002AF4D0C4EBC404F6
:102BA00006EBC4042846FFF7B7FEE26A0023FEF7EF
:102BB000A9F870BD0020014670BD00BFB80F00200D
:102BC00070B532F0F9FC002834D01D4D00242E469B
:102BD0002B4604E00134A04203F138032BD05A798C
:102BE000012AF7D1DA79002AF4D032F0E5FC00238B
:102BF00028B913E00133984205F138050ED06A79FF
:102C0000012AF7D1EA79002AF4D0C3EBC30306EB1B
:102C1000C3039B6813B11B68DB070ED4C4EBC4026B
:102C200006EBC202E300D1680131D1601C1B06EB48
:102C3000C406306970BD002070BDE300F6E700BF38
:102C4000B80F002010B5044632F054FA1549024678
:102C50003C2015F045F90CB332F0AEFC8446D0B1FF
:102C6000114C0022234604E00132944503F138035D
:102C700012D059790129F7D1D8790028F4D0C2EBC4
:102C8000C20204EBC202926832B1136843F003013E
:102C900061F30703136010BD002010BD10F0FAFBB4
:102CA00010BD00BF58D00508B80F00202DE9F04F27
:102CB00083B010F0D7FB32F07FFC00260746B04609
:102CC00032F07AFC002871D0DFF87C9100224B466C
:102CD000F5B202E00132904268D05979A94203F17D
:102CE0001003F7D109EB02131401DB79002B5DD03F
:102CF00032F062FC002859D0DFF850B14FF0000AE2
:102D00005B4605E00AF1010A504503F138034DD056
:102D10005A79AA42F6D1DA79002AF3D009EB0403F2
:102D20001846019300F044F9414902463C2015F051
:102D30000DF859F80440019BC4B3D3F808900193EF
:102D4000B9F1000F32D03B4922463C2015F0C8F8BB
:102D5000019BCAEBCA020BEBC20A19798AF805502B
:102D60008AF80410002000210025CAF808904BF8CA
:102D70003240CAF81050CAE90801CAE9060110F049
:102D80006FFBCAF83000DAF830202B493C2015F0F0
:102D9000A7F8DAF830202949A1FB0232920CCAF8D0
:102DA0002C20DAF830205AB908F101080136B74270
:102DB00086D23946404603B0BDE8F04F25F004BD49
:102DC00007EE904A9FED1E7ACAF80890F8EE677AEF
:102DD0001C4927EE877ADAED0C7AB9F80420F8EE70
:102DE000677A67EE277AFCEEE77A17EE902A22F0F0
:102DF0007F4290B2A9F80400120C99F8060089F8F5
:102E00000620D9F804203C2022F07F4215F068F813
:102E1000019B9979DAF808301A891D819A7A9D7296
:102E2000032261F382021A6001238AF83430BBE77F
:102E300068ED050860D0050870D0050883DE1B43E7
:102E40006F12833A84D005087CCC0608B80F0020A6
:102E500030B1054A054B012808BF13461846704794
:102E6000034B1846704700BF9CD005081CBA0608E3
:102E700090D0050838B501202DED028BFFF72EFD0F
:102E800000286DD00446FFF731FE226B3749054616
:102E90003C2015F025F8FFF775FD32F02BF9344989
:102EA00002463C2015F01CF8002D5DD0314A324B13
:102EB000012D08BF1A4631493C2015F011F80120B8
:102EC000FFF72AFD0B4602462D493C2015F008F875
:102ED000FFF72EFE2B4902463C2015F001F8E26870
:102EE00029493C2014F0FCFFFFF76AFE054601204B
:102EF000FFF740FE07EE905A0B46024623493C205E
:102F0000B8EE678A14F0ECFF21492A463C2014F001
:102F1000E7FF22691F493C2014F0E2FFD4E90623B1
:102F20001D493C2014F0DCFFDFED1C7A68EE277AA7
:102F300017EE900AFDF7E8F902460B463C201849C7
:102F400014F0CEFFDFED177A68EE277A17EE900ABD
:102F5000FDF7DAF902460B463C20134914F0C0FF96
:102F6000BDEC028B012038BD104AA4E7A8D00508AB
:102F7000BCD005081CBA06089CD00508C8D00508B6
:102F800034370608D4D0050888670608DCD0050861
:102F9000F0D0050804D1050818D105086F12833A4E
:102FA00030D1050865CF8B3744D1050890D005088E
:102FB000002833D010B51A4982B00446194840F0B1
:102FC0004BF9184B60790090174AFA21184640F0E7
:102FD0000BF8144BE0680090144AFA21184640F0B0
:102FE00003F8104B2068124A0090FA2118463FF06F
:102FF000FBFF207932F07EF80A4B00900D4AFA214F
:1030000018463FF0F1FF074BA16800910A4AFA21E8
:1030100018463FF0E9FF034802B010BD0148704771
:103020002839060850DA002058D1050860D1050873
:1030300070D1050880D105088CD1050810B5002392
:1030400082B09842019316DD08680C4601A911F080
:10305000E7FF58B10198FFF701FD0B4A044601460E
:103060003C2015F047FB204602B010BD22680749FE
:103070003C2015F063FA06493C2015F05FFA002465
:10308000204602B010BD00BFC4D1050898D1050884
:10309000B4D1050810B530B108493C20002415F022
:1030A0004DFA204610BDFFF7E5FE054A04460146ED
:1030B0003C2015F01FFB204610BD00BFCCD10508F9
:1030C000A0E0060810B548B910F0E4F9074A044634
:1030D00001463C2015F00EFB204610BD04493C2063
:1030E000002415F02BFA204610BD00BF7CF905081E
:1030F000D8D1050810B548B9FFF788FC074A04463F
:1031000001463C2015F0F6FA204610BD04493C204B
:10311000002415F013FA204610BD00BF44D906085C
:10312000E4D1050810B582B0002300288DF80730DF
:103130000CDD0B460DF10701186812F029F90E4A53
:10314000044601463C2015F0D5FA3CB90B493C2019
:1031500015F0F4F90024204602B010BD9DF80700D8
:10316000FFF770FD064A044601463C2015F0C2FAFE
:10317000204602B010BD00BFFCD10508F0D1050803
:1031800048ED060830B583B0022300288DF80730DB
:103190000CDD0B460DF10701186812F0AFF8124A6A
:1031A000044601463C2015F0A5FA3CB90F493C20E5
:1031B00015F0C4F90024204603B030BD9DF8070087
:1031C000FFF770FC044614F021FA05469DF807004D
:1031D000FFF73EFE064A03463C21284614F08EFDCA
:1031E000204603B030BD00BF04D205081CD205083C
:1031F0000CD2050810B530B108493C20002415F068
:103200009DF9204610BDFFF751FD054A04460146D1
:103210003C2015F06FFA204610BD00BF30D20508E3
:10322000E08106082DE97043054632F067FA58B38D
:103230001B4E0024334604E00134A04203F1400356
:1032400022D01A7BAA42F7D15A7B002AF4D0FEF78B
:1032500027FCA30106EB8414F2585268A263A16B09
:10326000E26B914214D31E44B36BF363FEF722FC6E
:10327000D6E90C01B56B0B4645EA0002C6E90A2304
:10328000D6E90A01BDE8708300200021BDE8708303
:10329000D4E90C8909F101014046C4E90C01E2E7D7
:1032A000C88D002070B5054632F028FAC0B10E4E28
:1032B0000024334604E00134A04203F140030FD060
:1032C0001A7BAA42F7D15A7B002AF4D0284606EB93
:1032D0008414FFF7A7FFD4E90623FDF713FD70BDA3
:1032E0000020014670BD00BFC88D002070B50546A6
:1032F00032F004FAB8B10D4E0024334604E0013434
:10330000A04203F140030FD01A7BAA42F7D15A7BA7
:10331000002AF4D0284606EB8414FFF783FFD4E993
:103320000823FDF7EFFC70BD002070BDC88D0020A4
:103330002DE9F047024682B060490546462014F068
:1033400005FD32F0DBF9002800F087805C4E002399
:10335000314602E0013398427FD00C7BA54201F157
:103360001001F7D14FEA031A06EB031393F80D800F
:10337000B8F1000F71D0D3F80490B9F1000F00F04C
:10338000918056F80A705644002F7AD0B66826B954
:103390004C492246462015F0D1F832F0AFF900280A
:1033A00065D0DFF844A10021534604E00131884292
:1033B00003F140035BD01A7BA242F7D15A7B002A6B
:1033C000F4D00AEB81188D0101920021C8F8049015
:1033D00000204AF80570012388F80C400024C8F842
:1033E000086088F80D307C60C8E90C01C8F83C40E2
:1033F000C8E90601C8F83840C8E90801C8E90A0167
:10340000314EC8F81040D6F8FC3043F08073C6F84F
:10341000FC307C600BF028F82C4B2D49C8F80800D4
:10342000A3FB00239E0CA1FB00202746C8E90667EA
:103430008609C8E908675AF80500019A0368254912
:1034400005F1080C43F00103036040F2011E104631
:103450002CF801E002B0BDE8F0872A461E4946205C
:1034600014F008FE0022104602B0BDE8F0872A469C
:103470001A49462015F062F84246104602B0BDE8EF
:10348000F08717492246462015F058F8B3687BB1FB
:103490002A461149462015F051F80022104602B084
:1034A000BDE8F0870F492A46462015F047F868E73F
:1034B00004492246462015F041F8E9E788D205087C
:1034C000AC1307085CD2050800ED00E083DE1B4367
:1034D000D34D6210CD8D002024CA050834CA0508DA
:1034E0004CD205083CD20508C88D002070B50C4AA6
:1034F0000C49462014F0F4FC32F000F90024054693
:103500002646E0B20134FFF713FF00B10136A542B1
:10351000F7D229463046BDE8704025F055B900BFC6
:10352000B4D3060870D20508F8B532F0E7F80025E4
:1035300006462C46EFB216493A46462014F09AFD4C
:1035400032F0DCF88646B8B112480021034604E0A8
:1035500001318E4503F140030ED093F80CC0BC45F9
:10356000F6D15A7B002AF3D000EB811138460B6963
:1035700001330B61FFF756FE2046002125F020F9AC
:103580000135AE420446D5D2003818BF0120F8BD3F
:103590007CD20508C88D00202DE9F043364F37490D
:1035A0003868B3B00822243015F0EAF932F0A4F8F4
:1035B0004FF000080646C1464046FEF78FF800254A
:1035C0000446C422294601A8002C44D0D4E9023C78
:1035D0000095A3EB0C053FF083FC294968463FF0BA
:1035E0003BFE237927496A4668463FF041FD236840
:1035F00025496A4668463FF03BFDA36823496A4671
:1036000068463FF035FD2149E3686A4668463FF069
:103610002FFD1F492B466A4668463FF029FD1D498C
:10362000637C6A4668463FF023FD04F118001CF0F5
:10363000C5FB194903466A4668463FF019FD6369B0
:1036400014496A4668463FF013FD1448694615F070
:103650000DFB4FF0010908F101035FFA83F8B04553
:10366000AAD9386805490822243015F083F948465C
:1036700033B0BDE8F08300BFF8860020C0D3050852
:103680005CAE060890D205089CD20508A8D20508B1
:10369000B4D20508C0D20508CCD20508D8CB05089D
:1036A00048B310B5154982B0044615483FF0D4FD23
:1036B000134B20790090134AFA2118463FF094FCEE
:1036C0000F4BA0680090104AFA2118463FF08CFC7E
:1036D0000B4BE06800900D4AFA2118463FF084FC3D
:1036E000074B216800910A4AFA2118463FF07CFCFA
:1036F000034802B010BD0248704700BF28390608D1
:1037000050DA002058D10508D8D20508ECD20508B7
:103710004040060870B582B00646FDF7DFFF88B16D
:10372000D0E90253ED1AAD08044607490095324628
:103730000B2014F0D5FBE068294602B0BDE87040CC
:1037400010F09EBB02B070BD00D3050838B502462C
:1037500009490446012014F0F9FA002523680748B6
:1037600022462946013515F081FA362D04F104046C
:10377000F4D1012038BD00BF28D3050840D3050887
:1037800010B5002384B09842039303DC0024204644
:1037900004B010BD086803A911F042FC04460028DB
:1037A000F4D0039A08490B2014F09AFB0398FEF713
:1037B0002FF9830A0093039A044903460B2014F05F
:1037C0008FFB204604B010BD7CCA050800D4050854
:1037D00010B5FFF7E1FE044608B1204610BD0349CD
:1037E0000B2014F0ABFE204610BD00BF5CCC0508DA
:1037F00008B9FDF7EBBF08B502490B2014F09EFE97
:10380000002008BD18D40508F0B5054685B0002095
:103810000E4618F003FE044600272248214615F004
:1038200025FABD42019709DC029725D01E490B20DD
:1038300014F084FE0024204605B0F0BD306801A9D4
:1038400011F0EEFB02970028F0D02046019902AA61
:10385000FDF77CFF044640B1DDE9012313490B204D
:1038600014F03EFB204605B0F0BD11490B2014F0CA
:1038700065FE204605B0F0BD039503E0039A15F000
:10388000F5F90135294603AA2046FDF75FFF0346F7
:1038900029460848002BF1D105490B2014F04EFEB3
:1038A000EFE700BF28D405087CD405085CD40508E0
:1038B00028CE060840D4050830B583B00023002880
:1038C00001930BDD0B4601A9186811F0A9FB144AFE
:1038D000044601460B2014F01FFF3CB911490B2090
:1038E00014F02CFE0024204603B030BD019D284674
:1038F000FEF772F8044648B1012031F00DFC0A4988
:1039000003462A460B2014F0EBFAECE731F004FCF6
:10391000054903462A460B2014F010FEE3E700BFDA
:1039200090D40508A8D4050898D4050810B582B02D
:10393000002300288DF807300CDD0B460DF1070140
:10394000186811F0DBFC0E4A044601460B2014F007
:10395000E3FE3CB90B490B2014F0F0FD0024204697
:1039600002B010BD9DF80700FFF7D4FE064A0446DA
:1039700001460B2014F0D0FE204602B010BD00BF5F
:10398000BCD40508D0D40508C4D4050830B583B02C
:10399000044631F083FE28B3144D00222B4604E088
:1039A0000132904203F5EA731CD01979A142F7D194
:1039B00093F841100029F3D04FF4EA7303FB02524D
:1039C00092ED030A10EE100A8DED010AFCF79CFC43
:1039D00002460B463A20064914F018FC9DED010AF8
:1039E00003B030BD9FED030A03B030BDD05B0020B3
:1039F000E4D40508000000002DE9F0419AB00E461D
:103A0000C5B231F04BFE98B3DFF86C80002443461A
:103A100004E00134A04203F5EA7324D01A79AA42E3
:103A2000F7D193F84170002FF3D06022002102A853
:103A300001913FF055FA4FF4EA7303FB048404F557
:103A40009E74214601A83FF007FC314620463FF016
:103A500003FC0849234601AA3A2014F041FA3846EB
:103A60001AB0BDE8F081002738461AB0BDE8F081F1
:103A70000746F4E710D50508D05B002070B5044672
:103A800031F00CFEF8B1114E0022334604E0013251
:103A9000904203F5EA7313D01979A142F7D193F854
:103AA0004150002DF3D04FF4EA7303FB026608493E
:103AB000B268531CB3603A2014F012FA284670BD65
:103AC0000025284670BD0546F8E700BFD05B002002
:103AD0002CD5050870B5044631F0E0FDF8B1114E63
:103AE0000022334604E00132904203F5EA7313D01A
:103AF0001979A142F7D193F84150002DF3D04FF43A
:103B0000EA7303FB02660849B268531CB3603A20AB
:103B100014F0E6F9284670BD0025284670BD05461C
:103B2000F8E700BFD05B00202CD50508F0B585B0C4
:103B300010EE105A044631F0B1FD68B3174F002261
:103B40003B4604E00132904203F5EA7320D0197934
:103B5000A142F7D193F84160002EF3D04FF4EA73FD
:103B600003FB0272D068D560FCF7CEFB02460B4621
:103B70002846CDE90223FCF7C7FBDDE90223CDE9A6
:103B8000000107493A2014F0ABF9304605B0F0BD0A
:103B90000026304605B0F0BD0646F6E7D05B0020B3
:103BA000F8D405082DE9F84381460F4631F076FD3B
:103BB00048B3DFF85C805FFA89F50024C44604E06E
:103BC0000134A0420CF5EA7C19D09CF804E0AE4523
:103BD000F6D19CF84160002EF2D087B14A463B46B0
:103BE0000A493A2014F0AAFC4FF4EA7000FB048062
:103BF0003946C4303FF030FB3046BDE8F88300263C
:103C00003046BDE8F8830646FAE700BF3CD5050814
:103C1000D05B002038B52DED048BC4B2B0EE408AE5
:103C2000F0EE609AF0EE418AB0EE619A31F036FD26
:103C300000283CD0364D00222B4604E00132904251
:103C400003F5EA7333D01979A142F7D193F8411003
:103C50000029F3D04FF4EA7404FB0254F0EE491A41
:103C6000B0EE681AF0EE480A94ED090A84ED0C8A69
:103C7000C4ED0D9AC4ED0E8A84ED0F9A1CF086FBFC
:103C800010EE100AFCF740FB02460B463420214997
:103C900014F026F994ED0D0A94F84000F0EE491A5C
:103CA000B0EE681AF0EE480A1CF004FF20B9BDEC33
:103CB000048B0025284638BDD4ED0C7A9FED167A8A
:103CC00094F8400067EE877A0021FCEEE77A17EE61
:103CD000902A1DF0A9F9054668B194F840001CF03F
:103CE00095FC68B10D4A29463A2014F015FDBDEC4B
:103CF000048B284638BD0A493A2014F01FFCF1E72E
:103D000094F8402007493A2014F018FCEAE700BF75
:103D1000D05B002054D50508286B6E4E98D5050859
:103D200084D505086CD50508F0B52DED028B87B05C
:103D3000F0EE408AB0EE608A0E46C5B231F0AEFCBD
:103D400000283FD0374F00243B4604E00134A04216
:103D500003F5EA7336D01A79AA42F7D193F84120D5
:103D6000002AF3D018EE900AFCF7CEFA02460B4672
:103D700018EE100ACDE904230296FCF7C5FADDE936
:103D80000423CDE9000128493A2013F0DFFF4FF466
:103D9000EA7303FB0474F0EE480AB0EE680A314699
:103DA00094F84000C4ED0D8A84ED0E8AA6611CF0E3
:103DB000F1FDB0EE480A054630461CF099F884ED56
:103DC0000C0A2DB90025284607B0BDEC028BF0BDCA
:103DD000DFED167A94F8400020EE270A0021FCEE71
:103DE000C07A17EE902A1DF01FF9054670B194F8BD
:103DF00040001CF00BFC70B10D4A29463A2014F02B
:103E00008BFC284607B0BDEC028BF0BD09493A2077
:103E100014F094FBF0E794F8402007493A2014F09E
:103E20008DFBE9E7D05B0020B4D50508286B6E4E0A
:103E3000F0D5050884D505086CD505082DE9F041B5
:103E40002DED028B86B0F0EE408AB0EE608A05461A
:103E50000F46164631F022FC002843D0DFF8FC80E4
:103E60000024434604E00134A04203F5EA7339D04C
:103E700093F804C0AC45F6D193F84120002AF2D063
:103E800018EE900AFCF740FA02460B4618EE100AAC
:103E9000CDE904230296FCF737FADDE90423CDE9E6
:103EA000000129493A2013F051FF4FF4EA7303FB54
:103EB0000484F0EE480AB0EE680A3246394694F8B7
:103EC0004000C4ED0D8A84ED0E8AA6611CF0D0FC82
:103ED000B0EE480A0546314638461DF05DFE84EDD9
:103EE0000C0A35B90025284606B0BDEC028BBDE8AA
:103EF000F081DFED167A94F8400020EE270A0021C9
:103F0000FCEEC07A17EE902A1DF08EF8054678B1C7
:103F100094F840001CF07AFB78B10D4A29463A200B
:103F200014F0FAFB284606B0BDEC028BBDE8F08128
:103F300008493A2014F002FBEFE794F840200649C4
:103F40003A2014F0FBFAE8E710D60508286B6E4E0D
:103F500048D6050884D505086CD50508D05B002037
:103F600070B52DED048B84B0B0EE409AB0EE608A4F
:103F7000F0EE418AC5B231F091FB002842D03A4EB2
:103F80000024334604E00134A04203F5EA7339D03B
:103F90001A79AA42F7D193F84120002AF3D018EEFB
:103FA000100AFCF7B1F902460B4618EE900ACDE96B
:103FB0000223FCF7A9F9DDE90223CDE900012B4931
:103FC0003A2013F0C3FE4FF4EA7303FB046484ED5C
:103FD0000D8ABDEEC88AB0EE490A94F84000C4EDDF
:103FE0000E8A84ED0C9A1DF09BF918EE103ADFED65
:103FF000200A94F84000B0EE680A002219B21CF0C2
:10400000D7FD28B90025284604B0BDEC048B70BD4F
:10401000D4ED0C7A9FED177A94F8400067EE877A1A
:104020000021FCEEE77A17EE902A1CF0FDFF054612
:1040300070B194F840001CF0E9FA70B10E4A2946BC
:104040003A2014F069FB284604B0BDEC048B70BD27
:104050000A493A2014F072FAF0E794F8402008492F
:104060003A2014F06BFAE9E7D05B002064D605082B
:1040700000000000286B6E4E9CD6050884D505080C
:104080006CD505082DE9F04F2DED048B024683B069
:10409000A64907463A2013F059FE31F0FFFA0028EE
:1040A00000F0B180DFF8A492F9B24A464FF0000A5E
:1040B00004E00AF1010A504500F0A5801479A142FC
:1040C00002F14402F5D10AEB0A1109EB81014FEA32
:1040D0000A1B91F84120002A00F09580D1ED0E8A4C
:1040E000F5EEC08AF1EE10FA40F2EB800BEB0A0518
:1040F00009EB850595ED0F8AB5EEC08AF1EE10FA51
:1041000040F2CA8095ED0C9AB5EEC09AF1EE10FA25
:104110006CD9296A002900F0CE80CDE90021002A5F
:1041200071D031F0BBFA009A00286DD0804E019911
:104130000025B44604E00135A8420CF5EA7C63D0C2
:104140009CF804E0A645F6D19CF84180B8F1000F38
:10415000F1D0D344764859F82BE04FF4EA7209EBDA
:104160008B0305FB02FA00EB0A090246D86AC9F87C
:104170002C00986AC9F82800D868C9F80C00586B58
:10418000C9F83400586AC9F824000AF59E7002F193
:10419000040C10449A68C9F80820ACF1040293F8A2
:1041A00010B089ED0C9AC9ED0E8A89ED0F8A89F855
:1041B00010B042F80AE01A7F0AF80C4089F81C2077
:1041C00093F840209B6989F84020C9F818303FF0E7
:1041D00043F899F802300022013BC9F8D021042BA2
:1041E00026D8DFE803F0179225847500514922464E
:1041F0003A2014F0A3F90BEB0A0309EB8309D9F871
:104200002030002B57D00022104603B0BDEC048BA9
:10421000BDE8F08F464A4FF4EA7303FB052393EDA4
:104220000E1AD3ED0D0A93ED0C0A3846FFF798FEEF
:1042300031F034FAA0B1002304E00133984206F5CE
:10424000EA760DD03279A242F7D196F84120002AC1
:10425000F3D037494FF4EA7202FB031383F810B02E
:104260004FF4EA7202FB05F5314A334B02EB050AC3
:104270001A68CAF824200023CAF8C8318AF8B43171
:1042800040352E4B40F20112EA524246104603B02E
:10429000BDEC048BBDE8F08F294922463A2014F08A
:1042A0004DF9D5ED0C7AF5EEC07AF1EE10FA9DD904
:1042B0002B6A002BA7D1234922463A2014F03EF95D
:1042C000A1E7224620493A2014F038F900220DE7F0
:1042D000174A4FF4EA7303FB0523D3ED0E0A93ED5F
:1042E0000D0A9A6959782046FFF7A8FDA0E7104A01
:1042F0004FF4EA7303FB0523D3ED0E0A93ED0D0A89
:1043000099693846FFF710FD92E7094A4FF4EA73BE
:1043100003FB0523D3ED0F1A93ED0E1AD3ED0D0A0F
:1043200093ED0C0A3846FFF775FC81E7B8D605080F
:10433000D05B0020F0D605089C070020D15B002050
:10434000D8D6050810D70508C0D6050858D70608DE
:10435000F8B5C5B231F0A2F930B3144E002233469D
:1043600004E00132904203F5EA731DD01979A942A5
:10437000F7D193F841100029F3D04FF4EA7402FB0F
:1043800004F43719384600F0C3FE094902463A20C2
:1043900013F03CFF04F1C40197F840203144284653
:1043A000BDE8F84022F01EB90020F8BDD05B002027
:1043B00034D7050870B50D46C4B231F06FF9D0B1ED
:1043C0000E4E0022334604E00132904203F5EA73B8
:1043D0000ED093F804C0A445F6D193F841100029FB
:1043E000F2D04FF4EA7303FB02621574084670BD05
:1043F0000021084670BD0146F8E700BFD05B0020F1
:1044000010B5044631F04AF990B10D4B002103E09C
:10441000884203F5EA730BD093F804C0A44501F178
:104420000101F5D193F84120002AF1D0002010BD00
:10443000044922463A2014F081F8002010BD00BF44
:10444000D05B0020305B060838B52DED048BC4B27C
:10445000B0EE408AF0EE609AF0EE418AB0EE619ADA
:1044600031F01CF900283CD0364D00222B4604E0E8
:104470000132904203F5EA7333D01979A142F7D1A2
:1044800093F841100029F3D04FF4EA7404FB02546E
:10449000F0EE491AB0EE681AF0EE480A94ED090AF7
:1044A00084ED0C8AC4ED0D9AC4ED0E8A84ED0F9A4A
:1044B0001BF06CFF10EE100AFBF726FF02460B46BE
:1044C0003420214913F00CFD94ED0D0A94F84000BE
:1044D000F0EE491AB0EE681AF0EE480A1CF0EAFA5B
:1044E00020B9BDEC048B0025284638BDD4ED0C7AEC
:1044F0009FED167A94F8400067EE877A0021FCEE73
:10450000E77A17EE902A1CF08FFD054668B194F803
:1045100040001CF07BF868B10D4A29463A2014F09F
:10452000FBF8BDEC048B284638BD0A493A2014F04C
:1045300005F8F1E794F8402007493A2013F0FEFF10
:10454000EAE700BFD05B002054D50508286B6E4E0B
:1045500098D5050884D505086CD5050870B52DEDEE
:10456000048B424984B005463A20F0EE408AB0EE12
:10457000608AB0EE419A13F015FF31F08FF80028F1
:1045800042D03B4E0024334604E00134A04203F500
:10459000EA7339D01A79AA42F7D193F84120002A58
:1045A000F3D018EE100AFBF7AFFE02460B4618EEEA
:1045B000900ACDE90223FBF7A7FEDDE90223CDE94E
:1045C00000012C493A2013F0C1FB4FF4EA7303FBBE
:1045D000046484ED0D8ABDEEC88AB0EE490A94F8F1
:1045E0004000C4ED0E8A84ED0C9A1CF099FE18EE82
:1045F000103ADFED210A94F84000B0EE680A00227C
:1046000019B21CF0D5FA28B90025284604B0BDEC33
:10461000048B70BDD4ED0C7A9FED187A94F84000AD
:1046200067EE877A0021FCEEE77A17EE902A1CF0FD
:10463000FBFC054670B194F840001BF0E7FF70B139
:104640000F4A29463A2014F067F8284604B0BDEC1A
:10465000048B70BD0B493A2013F070FFF0E794F81B
:10466000402009493A2013F069FFE9E7A8D7050877
:10467000D05B002064D6050800000000286B6E4E59
:104680009CD6050884D505086CD505082DE9F041B0
:104690002DED028B0F4686B0414905463A20F0EEDB
:1046A000408AB0EE608A164613F050FB30F0F6FFF9
:1046B000002843D0DFF800810024434604E00134A1
:1046C000A04203F5EA7339D093F804C0AC45F6D1A3
:1046D00093F84120002AF2D018EE900AFBF714FE5E
:1046E00002460B4618EE100ACDE904230296FBF7AA
:1046F0000BFEDDE90423CDE900012A493A2013F03D
:1047000025FB4FF4EA7303FB0484F0EE480AB0EE95
:10471000680A3246394694F84000C4ED0D8A84EDAB
:104720000E8AA6611CF0A4F8B0EE480A0546314690
:1047300038461DF031FA84ED0C0A35B900252846BB
:1047400006B0BDEC028BBDE8F081DFED177A94F87E
:10475000400020EE270A0021FCEEC07A17EE902AD6
:104760001CF062FC054678B194F840001BF04EFF47
:1047700078B10E4A29463A2013F0CEFF284606B0FB
:10478000BDEC028BBDE8F08109493A2013F0D6FE5A
:10479000EFE794F8402007493A2013F0CFFEE8E70E
:1047A000C8D7050810D60508286B6E4E48D60508F0
:1047B00084D505086CD50508D05B0020F0B52DED3B
:1047C000028B87B0F0EE408AB0EE608A05460E4656
:1047D00030F064FF00283FD0374F00243B4604E010
:1047E0000134A04203F5EA7336D01A79AA42F7D110
:1047F00093F84120002AF3D018EE900AFBF784FDCD
:1048000002460B4618EE100ACDE904230296FBF788
:104810007BFDDDE90423CDE9000128493A2013F0AE
:1048200095FA4FF4EA7303FB0474F0EE480AB0EE15
:10483000680A314694F84000C4ED0D8A84ED0E8A72
:10484000A6611CF0A7F8B0EE480A054630461BF0FA
:104850004FFB84ED0C0A2DB90025284607B0BDECAE
:10486000028BF0BDDFED167A94F8400020EE270AA7
:104870000021FCEEC07A17EE902A1CF0D5FB05460D
:1048800070B194F840001BF0C1FE70B10D4A29468A
:104890003A2013F041FF284607B0BDEC028BF0BD73
:1048A00009493A2013F04AFEF0E794F840200749FE
:1048B0003A2013F043FEE9E7D05B0020B4D50508A9
:1048C000286B6E4EF0D5050884D505086CD5050813
:1048D00038B52DED028BC4B2B0EE408A30F0DEFE6A
:1048E000F0B1104D00222B4604E00132904203F556
:1048F000EA7310D01979A142F7D193F84110002939
:10490000F3D04FF4EA7303FB025282ED098ABDEC47
:10491000028B084638BDBDEC028B0021084638BD2D
:104920000146F4E7D05B0020002854D030B52DEDCF
:10493000048BF5EEC00AF1EE10FA89B0F0EE608A51
:1049400044DDB5EEC01AF1EE10FAB0EE419A3DDD4D
:10495000F6EE007A20EE277AB0EE416AC7EE206AC2
:10496000B0EE417AA6EEE77AA6EEA76AB5EEC07A77
:10497000F1EE10FAB0EE408A80ED017A80ED026A25
:104980002ADD00F05FFB044618EE100AFBF7BCFCC2
:1049900002460B4619EE100ACDE906230494FBF7F4
:1049A000B3FC04460D4618EE900ACDE90245FBF72C
:1049B000ABFCDDE90623CDE900010D493A2013F0F7
:1049C0008FFA012009B0BDEC048B30BD002009B086
:1049D000BDEC048B30BD704717EE100AFBF794FC5A
:1049E00002460B463A20034913F0A8FD0020EEE7EB
:1049F000E8D7050814D80508F0B52DED068BB5EEFF
:104A0000C00AA7B00024F1EE10FA09940C9440F308
:104A10001781F5EEC00AF1EE10FAF0EE608A40F36D
:104A20000F81944B93ED00AAF6EE007A2AEE277AD6
:104A3000B0EE606AC7EE006AB0EE607AA6EEE77A82
:104A4000A6EEA76AB5EEC07AF1EE10FAB0EE408A93
:104A50008DED0A7A8DED0B6A40F3FD80054609A8BD
:104A6000B0EE419AF0EE619A0E4600F0EBFA07467E
:104A70001AEE100AFBF748FC02460B4618EE900AA5
:104A8000CDE906230497FBF73FFCCDE9020118EEC0
:104A9000100AFBF739FCDDE90623CDE90001764970
:104AA0003A2013F01DFA30F0F9FD002800F0CD8017
:104AB000724F3B4605E00134A04203F5EA7300F073
:104AC000C4801A79AA42F6D193F84120002AF2D084
:104AD000002160220EA80D913EF002FAB0EE480AC5
:104AE00023F058FFBCEEC00A0DAB8DED000A644AFE
:104AF000642118463EF078FAFCEEE87A17EE900A48
:104B000012F0B6F80DAB5F4A0090642118463EF0F3
:104B10006BFADDED0A7A5C4AFCEEE77A0DABCDED7F
:104B2000007A642118463EF05FFADDED0B7A574AB1
:104B3000FCEEE77A0DAB64211846CDED007A3EF02D
:104B400053FAFCEEC97A17EE900A12F091F80DAB09
:104B50004F4A0090642118463EF046FAB0EE690ACA
:104B60001EF0F2F80DAB4B4A0090642118463EF05F
:104B70003BFA0DAB484A642118463EF035FA4FF433
:104B8000EA7303FB047494ED0B0A94F840001BF0E5
:104B900017FE424A01463A2013F0ACFDDDED0B1A38
:104BA0009DED0A1A94F84000F0EE690AB0EE490A49
:104BB0001BF080FF3A4A01463A2013F09BFD07EEB6
:104BC000906A94F84000B8EE670A1CF06FFB354A13
:104BD00001463A2013F08EFD3146022021F02CFED2
:104BE000314A01463A2013F085FD94ED0A0A02206D
:104BF00021F046FB2D4A01463A2013F07BFD0DA91A
:104C0000022021F067FE2A4A01463A2013F072FD85
:104C100094F8402094ED0A0A1146022021F066FB28
:104C2000244A01463A2013F065FD94ED0B0A022058
:104C300020F0ECFE204A044601463A2013F05AFDCB
:104C4000204627B0BDEC068BF0BD0124204627B0DE
:104C5000BDEC068BF0BD17EE100AFBF755FB0246C4
:104C60000B463A20154913F069FC204627B0BDECED
:104C7000068BF0BD9C070020E8D70508D05B00201C
:104C800038D8050848D8050854D8050860D805085C
:104C90006CD8050874D8050880D805088CD8050894
:104CA00088D8050898D80508B0D80508CCD80508D4
:104CB000DCD80508ECD8050804D9050814D805087F
:104CC00070B530F0EBFC0024054626462046013442
:104CD000FFF7D8F900B10136A542F7D22946304690
:104CE000BDE8704023F070BD2DE9F04F85B030F085
:104CF000D5FC00268046354630F0D0FC002841D057
:104D0000814F00243B46F1B204E00134A04203F598
:104D1000EA7337D01A798A42F7D193F84120002AF2
:104D2000F3D04FF4EA7303FB047393F8B431032B0D
:104D300028D8DFE803F029C31B024FF4EA7303FB12
:104D40000474237C002B00F0CD80002384F8B43160
:104D50002846194623F034FD0136B0450546CBD22E
:104D6000003818BF012005B0BDE8F08F1DF090FF9E
:104D70004FF4EA7303FB0474D4F8C431C01A6428F6
:104D800000F2AB800023E3E74FF4EA7909FB04F972
:104D900007EB090B02F0B8FBDBF8C021B2FBF0F126
:104DA00000FB1122D2B203901046029202F0B0F939
:104DB000029A8246002800F09F80D0F8EC10019102
:104DC00000F12201039B029100913A204F4913F018
:104DD00087F8DAF81420CBF83820DAF81820CBF866
:104DE0003C20DAF81020CBF834209AF808208BF811
:104DF0000220DAF80C20CBF81820DAF81C20CBF8C7
:104E00003020DAF80020CBF848209AF80920CBF8B7
:104E1000442009F14C0307EB03091DF039FF782208
:104E20000390002148463EF05BF8DBF80820009232
:104E30004B46374A782148463EF0D6F8DBF8CC217D
:104E400000924B46334A782148463EF0CDF8039B0A
:104E5000314A009378214B4648463EF0C5F8029906
:104E60002E4A00914B46782148463EF0BDF82C4929
:104E70004A463A2013F0CAF9012030F0B7FB0299F4
:104E80009BF81C004A4601F061FC034660B1012218
:104E90008BF8B421DAF8EC200132CAF8EC20DBF808
:104EA000CC210132CBF8CC214FF4EA7202FB04741E
:104EB000D4F8C0210132C4F8C02149E74FF4EA73A5
:104EC00003FB0474207F01F01DFC034600283FF41F
:104ED00059AF032284F8B4213AE71DF0D9FEC4F893
:104EE000C40132E702931DF0D3FE0222029BC4F8F4
:104EF000C40184F8B4212BE702900A493A2012F049
:104F0000EFFF029BD0E700BFD05B00204CD7050825
:104F100068D7050870D7050878D7050884D705082D
:104F20008CD7050898D7050830B53A4C90F8401052
:104F3000394A83B005462346009120464FF49671C6
:104F40003EF052F895ED0C0A022023F08FFD234627
:104F50000090324A4FF4967120463EF045F8297889
:104F6000009123462E4A4FF4967120463EF03CF8BD
:104F7000297C009123462B4A4FF4967120463EF03F
:104F800033F8A96900912346274A4FF496712046C9
:104F90003EF02AF8297F254A009123464FF4967166
:104FA00020463EF021F895ED0D0A022023F05EFD2B
:104FB00023461F4A00904FF4967120463EF014F8A5
:104FC00095ED0E0A012023F051FD2346194A009069
:104FD0004FF4967120463EF007F895ED0F0A012038
:104FE00023F044FD2346144A00904FF49671204666
:104FF0003DF0FAFF95ED090A012023F037FD0F4A35
:10500000009023464FF4967120463DF0EDFF03B02B
:1050100030BD00BFF0C900201CD9050828D90508FB
:105020003CD905084CD905085CD9050870D9050894
:1050300084D905088CD9050898D90508A4D905088C
:105040000120704710B52DED028B044682B029492E
:1050500029483EF001F9002C46D0D4ED017A94EDB8
:10506000028A94ED000A022038EE678A23F0FEFCE3
:10507000214B224A00904FF4967118463DF0B4FF40
:1050800094ED030A022023F0F1FC1B4B1C4A009014
:105090004FF4967118463DF0A7FFB0EE480A012084
:1050A00023F0E4FC144B174A00904FF49671184615
:1050B0003DF09AFF94ED010A012023F0D7FC0E4B3E
:1050C000114A00904FF4967118463DF08DFF94ED13
:1050D000020A012023F0CAFC074B00900B4A4FF450
:1050E000967118463DF080FF034802B0BDEC028B7C
:1050F00010BD00BF283906081CCB002028D90508A0
:1051000084D90508B4D905088CD9050898D90508AB
:1051100010B50549044605483EF09EF814B12046F6
:10512000FFF702FF014810BD28390608F0C900202A
:1051300030B50023A9B004460D469222194603A8B3
:105140008DF8073002933DF0CBFE002C0BD00DDC28
:105150000B493A2013F0F2F9002029B030BD6968FC
:1051600002A83EF079F8012029B030BD28680DF181
:10517000070110F0C3F8012CF1D10028F3D1E7E7C3
:10518000C0D9050808B9FFF75BBF08B503493A2045
:1051900013F0D4F9BDE80840FFF752BFDCD9050889
:1051A00030B583B00023041E8DF805308DF806302D
:1051B0008DF8073007DC18493A2013F0BFF90024B6
:1051C000204603B030BD08680D460DF1050110F012
:1051D00095F8012C12D10028EDD09DF806209DF8FD
:1051E00007109DF80500FFF70BF90C4A044601462D
:1051F0003A2013F091FA204603B030BD68680DF1F3
:10520000070110F07BF8022CE5D0A8680DF106012B
:1052100010F074F8DFE700BFF8D90508E8D90508F1
:1052200030B587B000230022041E02930393049339
:1052300005938DF8072007DC1E493A2013F07EF90C
:105240000024204607B030BD08680D460DF1070167
:1052500010F054F8012C15D0686803A910F03EF93D
:10526000022C0FD0A86804A910F038F9032C09D03B
:10527000E86802A910F032F9042C03D0286905A9C6
:1052800010F02CF90028D7D0DDED051A9DED021A9B
:10529000DDED030A9DED040A9DF80700FEF7BAFC58
:1052A000054A044601463A2013F036FA204607B074
:1052B00030BD00BF0CDA050848DA050870B584B0C7
:1052C00000220023051E0192029203938DF8033001
:1052D00007DC1F493A2013F031F90024204604B0BE
:1052E00070BD08680E460DF1030110F007F8012D9E
:1052F000044604D10028ECD0204604B070BD70688C
:1053000002A910F0EBF8022D04460BD0B06801A9F9
:1053100010F0E4F8032D044604D0F06803A90FF060
:105320007FFE0446002CD4D0042DD7D10399DDEDA7
:10533000010A9DED020A9DF80300FEF7F5FC054AFF
:10534000044601463A2013F0E7F9204604B070BD48
:1053500050DA050848DA050810B5002382B09842F3
:105360008DF8073005DD08680DF107010FF0C6FF65
:1053700038B90A493A2013F0E1F80024204602B077
:1053800010BD9DF80700FEF7E3FF054A04460146FD
:105390003A2013F0C1F9204602B010BDA4DA050886
:1053A00098DA050810B582B0002301288DF8063080
:1053B0008DF807300BDD0C460DF1070120680FF06A
:1053C0009DFF60680DF106010FF0E2FF30B907495B
:1053D0003A2013F0B3F8002002B010BD9DF806107B
:1053E0009DF80700FEF7E6FF02B010BDB4DA05082D
:1053F00070B50024A8B006460D469222214603A8A7
:105400008DF8074002943DF06BFD012E0FDD0DF18C
:10541000070128680FF072FF696802A83DF01CFFC1
:105420009DF8070002A9FEF7BDFB28B070BD034937
:105430003A2013F083F8204628B070BDCCDA050876
:1054400070B50026A4B00023044674220D4607A8B8
:10545000314602930393049305938DF807600696F3
:105460003DF03EFDB44207DC24493A2013F066F8D3
:105470000024204624B070BD28680DF107010FF00C
:105480003DFF012C37D0686803A910F027F8022CE3
:1054900031D0A86802A910F021F8032C2BD0E868BD
:1054A00005A910F01BF8042C25D0286904A910F0D8
:1054B00015F8052C1FD0696906A83DF0CDFE062C15
:1054C00003D00124204624B070BDDDED041A9DED0B
:1054D000051ADDED030A9DED020A9DF8070006A9F5
:1054E000FEF7B2FF064A044601463A2013F014F9CB
:1054F000204624B070BD0028E3D1B5E7E8DA0508FE
:1055000030DB050870B5184E82B033680193002275
:10551000041E8DF8032007DC14493A2013F00EF81E
:105520000024204602B070BD08680D460DF103014D
:105530000FF0E4FE33680193012C10D10028EBD06A
:105540009DED010A9DF80300FFF7C2F9084A0446E1
:1055500001463A2013F0E0F8204602B070BD6868BA
:1055600001A90FF0BBFFE9E79C07002050DB05080D
:1055700044DB050870B5A2B0002300220E460621C8
:10558000CDE9031305460292344C8DF803307422A2
:10559000194605A801943DF0A3FC002D07DC304915
:1055A0003A2012F0CBFF0024204622B070BD0DF14E
:1055B000030130680FF0A2FE2A4A014604463A2051
:1055C00013F0AAF8012D45D002A970680FF086FFEC
:1055D000254A014604463A2013F09EF8022D39D0A0
:1055E00001A9B0680FF07AFF204A014604463A202C
:1055F00013F092F8032D2DD003A9F0680FF010FDE1
:105600001B4A014604463A2013F086F8042D21D0A7
:10561000316904A83DF020FE164A01213A2013F01A
:105620007BF8052D03D00124204622B070BD0399DC
:10563000DDED010A9DED020A9DF8030004AAFFF7C3
:10564000BDF80D4A044601463A2013F065F820469D
:1056500022B070BD002CE6D1A1E700BF0000FA44E3
:1056600080DB0508B4F8050868DB05086CDB050875
:1056700074DB05089C720608CCDB050870B5A2B087
:10568000002300220E460121CDE9031305460292B4
:105690003B4C8DF802307422194605A88DF8033072
:1056A00001943DF01DFC002D07DC36493A2012F034
:1056B00045FF0024204622B070BD0DF10201306884
:1056C0000FF01CFE304A014604463A2013F024F83D
:1056D000012D4BD00DF1030170680FF00FFE2A4A27
:1056E000014604463A2013F017F8022D3ED002A9D5
:1056F000B0680FF0F3FE254A014604463A2013F045
:105700000BF8032D32D001A9F0680FF0E7FE204A14
:10571000014604463A2012F0FFFF042D26D003A9CB
:1057200030690FF07DFC1B4A014604463A2012F016
:10573000F3FF052D1AD0716904A83DF08DFD062DEB
:1057400016D1039A9DF80310DDED010A9DED020AC2
:105750009DF8020004ABFEF799FF0F4A044601468C
:105760003A2012F0D9FF204622B070BD002C9CD008
:1057700004493A2012F0E2FE0124204622B070BD16
:105780000000FA44E8DB0508B4F8050868DB050802
:105790006CDB050874DB05083CDC050870B5A2B0BD
:1057A000002300220E463249029205460391314CF5
:1057B0008DF803307422194605A8019404933DF036
:1057C0008FFB002D06DC2C493A2012F0B7FE00209A
:1057D00022B070BD0DF1030130680FF08FFD274A34
:1057E000014604463A2012F097FF012D3DD001A951
:1057F00070680FF073FE224A014604463A2012F008
:105800008BFF022D31D002A9B0680FF067FE1D4A50
:10581000014604463A2012F07FFF032D25D003A94C
:10582000F0680FF05BFE184A014604463A2012F079
:1058300073FF042D19D0316904A83DF00DFD052D2D
:1058400002D0012022B070BD04A99DED031ADDED48
:10585000020A9DED010A9DF80300FEF77FFE0B4A48
:10586000044601463A2012F057FF002CE9D1AAE77E
:105870000AD7233C00401C4568DC0508B4F805083D
:105880006CDB050868DB050858DC0508B4DC050896
:1058900070B52C4A88B0002312680192051E02934D
:1058A000039307DC28493A2012F048FE00242046E2
:1058B00008B070BD0E4602A930680FF00FFE234AF3
:1058C000014604463A2012F027FF012D22D1002C78
:1058D000E8D000239DED031ADDED020A9DED010ADB
:1058E00004A8CDE90433CDE90633FFF71DF8184AC3
:1058F000044601463A2012F00FFF002CD7D004A82E
:10590000FFF7A0FB134902463A2012F0E9FA2046BD
