:0200000480007A
:10000000FD6293820240FD12E39F02FE374100022F
:1000100013010100B711000293818193B7C50080DD
:100020009385857B37D60080130656C4B706000239
:100030009386861539A083A2050023A0560091055A
:100040009106E3EAC5FEB70500809385850B370668
:10005000008013060621B70600029386060039A029
:1000600083A2050023A0560091059106E3EAC5FE90
:10007000B70500029385855E371600021306468396
:1000800021A023A005009105E3EDC5FEB702000203
:100090009382020C73905230B7000080E780600BAF
:1000A000B7000080E780600BB7400080E780A00DBC
:0800B00073005010F5BF8280BF
:1000B8000000000000000000000000000000000038
:1000C8000000000000000000000000000000000028
:1000D8000000000000000000000000000000000018
:1000E8000000000000000000000000000000000008
:1000F80000000000000000000000000000000000F8
:1001080000000000000000000000000000000000E7
:1001180000000000000000000000000000000000D7
:1001280000000000000000000000000000000000C7
:1001380000000000000000000000000000000000B7
:1001480000000000000000000000000000000000A7
:100158000000000000000000000000000000000097
:100168000000000000000000000000000000000087
:100178006F004000130141F806C00AC20EC412C63F
:1001880016C81ACA1ECC22CE26D02AD22ED432D6CF
:1001980036D83ADA3EDC42DEC6C0CAC2CEC4D2C6BF
:1001A800D6C8DACADECCE2CEE6D0EAD2EED4F2D6AF
:1001B800F6D8FADAFEDC9710007E9380A0C0829011
:1001C80082401241A2413242C2425243E243724447
:1001D80082541255A2553256C2565257E257725897
:1001E80086481649A649364AC64A564BE64B764CC7
:1001F800865C165DA65D365EC65E565FE65F1301D9
:08020800C1077300203001A0C2
:1002100015C22A8385466367B500FD561307F6FFAE
:100220003A93BA9583830500230073007D163693B5
:10023000B6956DFA82802A8311C62300B3007D161D
:10024000050365FE82802A8309CA83830500230093
:1002500073007D16050385056DFA82800111AA875A
:10026000A307F10002CE8347F10089C705476389E0
:10027000E70011A8B757E801938707803ECE31A069
:10028000A1673ECE19A002CE0100F2473E8505616E
:1002900082800111AA87A307F100A30F0100834701
:1002A000F1001147638CE7021147634CF7020D47D9
:1002B0006382E7020D476346F70205476386E7005E
:1002C00009476386E70031A8A30F010031A8A30FF7
:1002D000010019A88547A30FF10039A0A30F010061
:1002E00021A0A30F010001008347F1013E850561B4
:1002F000828001112AC60146814632CC36CEB247F1
:100300008DC7B2479843B70749006310F70232C858
:1003100036CAB2479C439C473EC8B2479C43DC4721
:100320003ECA4247D2473ACC3ECE6247F2473A8570
:10033000BE8505618280797106D62AC62EC032C27A
:10034000A30F0100B2479843B70749006319F702AA
:10035000B7B70080938587294145EF10B0238147C7
:1003600001483EC842CA024792473AC83ECAB2470D
:100370009C43424798C7B2479C435247D8C78347DC
:10038000F1013E85B2504561828001112AC62EC41A
:10039000A30F010022479307E03F63E4E702B2475F
:1003A0009C4322471377F73F420741831377F73F78
:1003B000D44393F606C0558FD8C38547A30FF100E9
:1003C00039A0B2479C43D8431367F73FD8C383474C
:1003D000F1013E8505618280011106CEA30701006F
:1003E000938701839C438DC3938701839C439843E8
:1003F000799B98C3B7B700809385072A4145EF10D2
:1004000070198547A307F1008347F1003E85F2404C
:1004100005618280011106CEA3070100B7B70080F5
:100420009385872A4145EF10F0167D37AA87A307E9
:10043000F1008145014613850183F53DAA87A30795
:10044000F1001128AA87A307F1008347F1003E8538
:10045000F24005618280411106C6938701839C4367
:1004600098431367170098C3B7B700809385072B8D
:100470004145EF10301281473E85B24041018280F4
:10048000797106D62AC62EC4A30F010002CC3246CB
:10049000B7B700809385872B4145EF10700B32452D
:1004A000EF70A00F2A87B7B70080BA8503A5C72DC4
:1004B000EF60901CAA873ECA5245EF70603C2A87C5
:1004C000AE873A86BE86B7B700809385872C4145B4
:1004D000EF101008D2452245EF60101AAA873E851A
:1004E000EF708006AA873ECC6246B7B7008093853E
:1004F000072D4145EF10D005E24513850183713585
:10050000AA87A30FF1008347F1013E85B2504561F0
:100510008280797106D62AC6930700003ECEB24784
:10052000A5C3B2479843B7074900631BF704B24716
:100530009C439C438583858B93F7F70F3E85393B1E
:100540002ACC6245EF7060052A87B7B70080BA856C
:1005500003A5C72DEF605012AA873ECAB2479C433D
:10056000DC4393F7F73FC207C1833EC84245EF70B3
:10057000C002AA87BE855245EF60F045AA873ECEED
:10058000F2473E85B25045618280011106CE138547
:10059000018385332AC42EC6138501839D3F2AC259
:1005A0002245B245EF704014AA87BE851245EF6020
:1005B0009042AA873EC082473E85F2400561828014
:1005C000011106CE930700003EC6C1372AC6B7B751
:1005D000008083A5072E3245EF60F03FAA873EC416
:1005E0002245EF7060092A87AE873AC03EC20247B3
:1005F00092473A85BE85F24005618280011106CEA0
:10060000930700003EC651372AC6B7B7008083A5BE
:10061000472E3245EF60303CAA873EC42245EF703A
:10062000A0052A87AE873AC292473E85F24005610F
:100630008280797106D62AC6AE87A305F100A30F82
:100640000100B2479843B7074900631BF702B2475E
:100650009C439843799B98C38347B1003E851539E5
:10066000AA873E87B2479C43058B1377F70F058B0C
:1006700006079443F59A558F98C38547A30FF10059
:100680008347F1013E85B25045618280797106D67B
:100690002AC68547A30FF100B24789C78547A30F34
:1006A000F10019A0A30F01008347F1018DC3B247E8
:1006B000DC43930500003E85EF605028AA8763560F
:1006C000F0008547A30FF10019A0A30F0100834795
:1006D000F10191CBB2479C4389C78547A30FF10035
:1006E00019A0A30F01008347F10199CBB24783C73B
:1006F000870089C78547A30FF10019A0A30F010048
:100700008347F1013E85B25045618280797106D6FA
:100710002AC62EC48547A30FF100B247D9C332457C
:10072000B537AA87A30FF1008347F101BDCBA247DC
:10073000ADCBB2479C433E87A24798C37139AA8785
:10074000A30FF100B24783C78700BE852245D53588
:10075000AA87A30FF100B24783C787003E85652AA9
:100760002ACCB247DC43BE856245193BAA8791C7B4
:100770008347F10199C3854711A08147A30FF10079
:100780008347F101858BA30FF100A2478146014702
:1007900094D3D8D3A24794C7D8C77539AA87A30FD3
:1007A000F1008347F1013E85B2504561828001111D
:1007B00006CE8547A307F100EF00706BAA87A30759
:1007C000F10093070008F3B747303EC493850183D7
:1007D00013850182253FAA87A307F1002539AA873F
:1007E00091C78347F10099C3854711A08147A307AB
:1007F000F1008347F100858BA307F100EF0010653E
:10080000AA87A307F1008347F1003E85F240056106
:1008100082800111814701483ECC42CE3EC442C68F
:10082000F32700C03ECAD2473EC4F32700C83EC8E3
:10083000C2473EC62247B2473ACC3ECE6247F24755
:100840003A85BE8505618280011106CE22CC26CA7A
:10085000C9372AC42EC632479307803E3307F702B2
:10086000A2478146B387D702B306F7002247930712
:10087000803E3306F702B334F7023284B387960022
:10088000BE843756E8011306068081462285A68578
:10089000EF30F0682A87AE873AC292473E85F24031
:1008A0006244D24405618280011106CE22CC26CA60
:1008B0008D372AC42EC63247B7470F0093870724C7
:1008C0003307F702A2478146B387D702B306F70082
:1008D0002247B7470F00938707243306F702B33444
:1008E000F7023284B3879600BE843756E8011306B8
:1008F000068081462285A685EF3070622A87AE8702
:100900003AC03EC2024792473A85BE85F2406244F1
:10091000D244056182800111AA87A307F10002CEAB
:100920008347F10011476389E7021147634CF702DF
:100930000D476380E7020D476346F702054763866C
:10094000E70009476385E70031A802CE31A802CE4F
:1009500021A8A1673ECE09A8B757E8019387078071
:100960003ECE19A002CE0100F2473E85056182808D
:10097000797106D62AC6A30F0100B24789C78547F9
:10098000A30FF10011A8B7B700809385872E6145AA
:10099000EF108044A30F01008347F101B1C7B247B4
:1009A00083C7C70195C3B2479C4F89C78547A30F2B
:1009B000F1001DA8B7B700809385472F6145EF1060
:1009C000A041A30F01000DA0B2479C4B89C78547EA
:1009D000A30FF10011A8B7B7008093858730614558
:1009E000EF10803FA30F01008347F1018DC3B24791
:1009F000DC4B89C78547A30FF10011A8B7B700806A
:100A0000938587316145EF10203DA30F0100834797
:100A1000F10181C78547A30FF1008347F10181C729
:100A20008547A30FF1008347F10181C78547A30FD5
:100A3000F1008347F10189CFB247DC4391EBB7B7AF
:100A400000809385C7326145EF100039A30F010084
:100A50008347F1013E85B25045618280797106D6A7
:100A60002AC62EC4A30F0100B247F1C3324509378D
:100A7000AA87A30FF1008347F10193C7170093F7EB
:100A8000F70F91C301A08347F101D5C3A30F010064
:100A9000A247D1CFB2479843A24798D3B247D84391
:100AA000A247D8D3B2479847A24798D7B247D8476A
:100AB000A247D8D7B247D84BA247D8DBB247984F06
:100AC000A24798DFB24703C7D701A247A38EE70228
:100AD000B24703C7C701A247238EE7028547A30F8A
:100AE000F100A24705472390E700A2472947238149
:100AF000E700A2470547A381E700A2477D57D8C377
:100B0000A24723A40700A24723A60700A24723A8C1
:100B10000700A2477D57238AE700A2477D57239B02
:100B2000E700A2477D5798CFA247238E070083474F
:100B3000F1013E85B25045618280011106CEA307C6
:100B40000100252FAA87A307F100A92102C402C230
:100B5000EF30A0712AC002C405A8A247139757001E
:100B6000B7C7008093874704BA973E85EF003018D7
:100B7000AA87A307F1008347F10081C79247850741
:100B80003EC2A24785073EC422478247E367F7FC7F
:100B9000024792476316F7008547A307F10011A8A3
:100BA00082461246B7B70080938587383945EF10E3
:100BB000A0228347F1003E85F24005618280411109
:100BC000AA872E87A307F100BA872307F100814780
:100BD0003E8541018280797106D6AA87A307F1007C
:100BE000A30F010002CC02C802CAEF3000682AC875
:100BF00002CC25A0B7C7008013874704E2479607B9
:100C0000BA9783C747000347F1006315F700D2473F
:100C100085073ECAE24785073ECC6247C247E36B81
:100C2000F7FC524785476316F7008547A30FF1008D
:100C300019A0A30F01008347F1013E85B250456121
:100C40008280797106D6AA87A307F100A30F01005D
:100C50008347F10099C7EF00701FAA87A30FF10027
:100C600031A0EF00D020AA87A30FF1008347F10144
:100C70003E85B25045618280797106D62AC6854785
:100C8000A30FF100B2478DC3B24783C74700139744
:100C900007014187B24783C7C700BE853A85EF0089
:100CA000102DAA87A30FF1008347F1013E85B250B2
:100CB00045618280011106CE8547A307F10002C479
:100CC000EF001031AA87A307F100EF30C0552AC208
:100CD00092479DC702C40DA0A24713974700B7C70C
:100CE000008093874702BA973E857937AA87A30782
:100CF000F100A24785073EC422479247E36EF7FC06
:100D0000EF00D0148347F1003E85F24005618280F8
:100D1000011106CE83A701CB1387170023A8E1CAD0
:100D200001450537A3070100FD573EC4B70705007D
:100D300093870740224798CF0100054519370100E6
:100D4000F240056182800111AA87A307F100A30F79
:100D500001008347F1000D47638AE7020D47634AAC
:100D6000F70209476381E70209476344F70289C72D
:100D700005476387E70031A88547A30FF10019A84D
:100D8000A30F010001A8A30F010029A0A30F0100D8
:100D900011A001008347F1013E85056182800111A8
:100DA00006CE8547A307F100B7B700809385873942
:100DB0006145EF00F079938501D8B7C700801385AE
:100DC00047006939AA87A307F1008347F1003E85F0
:100DD000F2400561828001112AC6A30F0100B247CB
:100DE00063DA07003247B70740806375F70085472D
:100DF000A30FF1008347F1013E850561828079717F
:100E000006D62AC6A30F01008347F10193C7170036
:100E100093F7F70F91C732457D3FAA87A30FF100E3
:100E20008347F1013E85B250456182800111AA8756
:100E3000A307F100A30F01008347F10089C705470D
:100E40006386E70001A8A30F010029A08547A30F2F
:100E5000F10001008347F1013E85056182800111A7
:100E6000AA87A307F1008947A30FF1008347F10088
:100E700089C705476386E70001A8A30F010029A0E1
:100E80008547A30FF10001008347F1013E8505610D
:100E900082800111AA87A307F1009147A30FF100F7
:100EA0008347F1002D476362F70613972700B7C702
:100EB0000080938707EFBA979C4382879147A30FDF
:100EC000F10081A8A30F0100A9A08547A30FF1009D
:100ED00089A09147A30FF1002DA88947A30FF10026
:100EE0000DA88D47A30FF1002DA09147A30FF1008E
:100EF0000DA09147A30FF10029A89147A30FF1007E
:100F000009A89147A30FF10029A09147A30FF10071
:100F100001008347F1013E85056182800111AA87A6
:100F2000A307F10002CEA30D0100A30D010091A8BB
:100F30008347B10137C70080130707F28E07BA97BE
:100F400083C7070095CB8347B10137C700801307DC
:100F500007F28E07BA9783C717000347F100631D96
:100F6000F7008347B10113973700B7C70080938715
:100F700007F2BA973ECE19A88347B1018507A30DA2
:100F8000F1000347B1018947E3F4E7FAF2473E85F0
:100F900005618280011106CEA3070100B7B700806A
:100FA0009385473B3945EF00F05E8347F1003E856E
:100FB000F240056182800111AA87A307F100A30F07
:100FC00001008347F1001547638DE7021547634D24
:100FD000F7020D47638CE7000D476347F7020547AB
:100FE000638DE70009476386E70039A8A30F010076
:100FF00021A88547A30FF10001A88947A30FF1009D
:1010000021A0A30F010001008347F1013E85056186
:1010100082800111AA87A307F1008947A30FF1007D
:101020008347F10021476383E70221476344F702C6
:1010300009476386E70011476386E70021A8A30FED
:10104000010009A88547A30FF10029A08947A30F34
:10105000F10001008347F1013E85056182807971CD
:1010600006D6AA872EC4A307F100A30F0100834769
:10107000F1002308F100C2479183BD8B93F7F70F6E
:101080003E85693D2ACCE247A1C7A30B0100C247B8
:10109000BD8B93F7F70F3E878547B397E700231A79
:1010A000F100E247DC4303574101BA853E85EF304A
:1010B0006056AA87A30BF100834771013E85453333
:1010C000AA873E87A2472380E7008547A30FF10048
:1010D0008347F1013E85B25045618280797106D621
:1010E0002306A100AE87A307F100A30F0100B247BA
:1010F000BD8B93F7F70F3E878547B397E700231E15
:10110000F100B2479183BD8B93F7F70F3E853935D8
:101110002ACCE24785CBA30B01008347F1003E8533
:101120003133AA87A30BF100E247DC438346710108
:101130000357C1013686BA853E85EF30605085473A
:10114000A30FF1008347F1013E85B25045618280D3
:101150000111AA87A307F100A30F01008347F10043
:10116000230EF100F2479183BD8B13F7F70F8947E8
:1011700063E5E7008547A30FF1008347F1013E8552
:101180000561828001112AC6AE873287A305F1006E
:10119000BA872305F100A30F01008347A1003ECCCD
:1011A000B2479C430347B1008D463397E60013478F
:1011B000F7FF7D8FB24798C3B24798438347B1008A
:1011C000E246B397F6005D8FB24798C38347F101BB
:1011D0003E850561828001112AC6AE873287A3054C
:1011E000F100BA872305F100A30F01008347A10096
:1011F0003ECCB247DC470347B1008D463397E6004B
:101200001347F7FF7D8FB247D8C7B247D847834708
:10121000B100E246B397F6005D8FB247D8C7834767
:10122000F1013E850561828001112AC6AE873287B1
:10123000A305F100BA872305F100A30F010083473E
:10124000A1003ECCB2479C4F0347B1008D46339777
:10125000E6001347F7FF7D8FB24798CFB247984F0C
:101260008347B100E246B397F6005D8FB24798CF4F
:101270008347F1013E850561828041118547A307BF
:10128000F100B70705000567D8CFB7070500096764
:10129000D8CFB70705001167D8CF8347F1003E8547
:1012A00041018280797106D6AA87AE863287A3076C
:1012B000F100B6872307F100BA87A306F100A30F58
:1012C0000100B7170500938707C03ECC8347F100A4
:1012D00009476382E7040947634BF70489C7054759
:1012E000638FE700A9A00347D1008347E1003A8656
:1012F000BE856245413DAA87A30FF10015A80347AB
:10130000D1008347E1003A86BE856245E935AA8768
:10131000A30FF10031A80347D1008347E1003A86CB
:10132000BE8562451137AA87A30FF10011A0010005
:101330008347F1013E85B2504561828001112AC682
:10134000AE873287A305F100BA872305F1008547F0
:10135000A30FF1008347A1003ECCB2479C4703474F
:10136000B1008D463397E6001347F7FF7D8FB247F4
:1013700098C7B24798478347B100E246B397F60053
:101380005D8FB24798C78347F1013E850561828032
:1013900001112AC6AE873287A305F100BA8723055B
:1013A000F1008547A30FF1008347A1003ECCB2476F
:1013B000DC4B0347B1008D463397E6001347F7FF38
:1013C0007D8FB247D8CBB247D84B8347B100E246B6
:1013D000B397F6005D8FB247D8CB8347F1013E85C6
:1013E0000561828001112AC6AE873287A305F1000C
:1013F000BA872305F1008547A30FF1008347A100B9
:101400003ECCB2479C530347B1008D463397E6006C
:101410001347F7FF7D8FB24798D3B247985383475E
:10142000B100E246B397F6005D8FB24798D3834789
:10143000F1013E8505618280797106D62306A100FF
:10144000AE87A307F100A30F01008347F1003E859B
:101450009D36AA87230FF100B7170500938707C0B1
:101460003ECCB2479183BD8B93F7F70F0947638852
:10147000E70409476344F70689C705476382E70223
:10148000B1A8B247BD8B93F7F70F3E878347E101C1
:101490003E86BA8562455D35AA87A30FF10091A00B
:1014A000B247BD8B93F7F70F3E878347E1013E8636
:1014B000BA856245F13DAA87A30FF1001DA0B2478E
:1014C000BD8B93F7F70F3E878347E1013E86BA85D0
:1014D0006245093FAA87A30FF10021A0A30F0100D5
:1014E00001008347F1013E85B250456182807971E8
:1014F00006D62AC6A30F0100B247638307148547A7
:10150000A30FF100B24783C747003E859131AA87F8
:10151000A30FF1008347F10193C7170093F7F70F6B
:1015200091C301A08347F101638C0710B24783C7C1
:1015300047003E85EFF02FEAAA87A30FF10083470B
:10154000F101638F070EA30F0100B247DC439183C3
:10155000BD8B93F7F70F3E85EFF05F9C2ACCE247F7
:101560006380070E8547A30BF10002C8231A010010
:10157000B247DC43BD8B93F7F70F3E878547B397A0
:10158000E700C207C1832318F100B24783C7D70120
:101590003E85EFF01F90AA872309F100B24783C769
:1015A000C7013E85093CAA87A309F100B24783C75A
:1015B000E7013E85B93CAA87230AF100E247DC43F4
:1015C0001808BA853E85EF20506BAA87A30BF1005F
:1015D000834771013E85EFF00FF7AA87A30FF10053
:1015E000B247DC439183BD8B93F7F70F3E87B24739
:1015F000DC43BD8B93F7F70FBE86B2479C4393F74E
:10160000F70F3E86B6853A857139AA87A30FF10098
:10161000B24703C7C701B247BA8583C747003E85B3
:10162000213DAA87A30FF100B24703C7F701B247D4
:10163000BA8583C747003E855534AA87A30FF100BA
:101640008347F1013E85B25045618280011106CE8B
:101650008547A307F100B70705000947D8CBEF304E
:1016600020018347F1003E85F2400561828001112F
:1016700006CE8547A307F100EF3020018347F10034
:101680003E85F240056182800111AA872317F1008F
:10169000A30F01000317E100FD4763C5E70085477D
:1016A000A30FF1008347F1013E85056182807971C6
:1016B00006D6AA872E872317F100BA87A306F10062
:1016C000A30F01008317E1003E857D3FAA87A30F8A
:1016D000F1008347F10195C78317E1000547B31770
:1016E000F7003ECC8347D10081CB0547639AE700E2
:1016F0006245EF30000031A06245EF30E00011A0FC
:1017000001008347F1013E85B250456182807971C5
:1017100006D6AA872E872317F100BA87A306F10001
:10172000A30F01008317E1003E85B93FAA87A30FED
:10173000F1008347F10195C78317E1000547B3170F
:10174000F7003ECC8347D10081CB0547639AE70081
:101750006245EF20D07531A06245EF20707711A06F
:1017600001008347F1013E85B25045618280797165
:1017700006D6AA872E872317F100BA87A306F100A1
:10178000A30F01000347D1008317E100BA853E850E
:10179000BD3FAA87A30FF1000347D1008317E100E3
:1017A000BA853E852937AA8791C78347F10199C336
:1017B000854711A08147A30FF1008347F101858B75
:1017C000A30FF1008347F1013E85B250456182804D
:1017D00041118547A307F1008347F1003E85410190
:1017E0008280797106D62AC62EC432C29246B7C705
:1017F0000080138687F3B7B700809385473F1D4568
:101800003123A30F0100B247D9CFA247C9CF124756
:10181000A247637AF7069247BDC7B7B700809385A2
:1018200047401D45E52102CC22479247B307F740C8
:101830003ECC2DA862479247B307F740BE8662466A
:10184000B7B70080938547411D45C921624792473C
:10185000B307F74032473E97B246E247B697034791
:1018600007002380E700E247FD173ECC1247E2471E
:10187000E3F2E7FC124681453245EFE0DF9B854706
:10188000A30FF1000DA02247924763EBE700224629
:1018900081453245EFE03F9A8547A30FF10021A033
:1018A0008547A30FF1008347F1013E85B2504561A2
:1018B0008280797106D62AC62EC432C236C0B7C716
:1018C00000801386C7F4B7B700809385073C1D4599
:1018D0003529A30F01000247A2476374F7020246AD
:1018E000A2453245FD3DAA87A30FF1008347F101D0
:1018F00089CB024692453245EFE0FF948547A30F1E
:10190000F1008347F1013E85B250456182807971D3
:1019100006D6AA87A307F10002CE02CCEF20F02161
:101920002ACA02CCB9A0938681A76247BA878607E4
:10193000BA978A07B69783C747000347F100631732
:10194000F702938681A76247BA878607BA978A0704
:10195000B69783C7170099CB6247BA878607BA97AD
:101960008A07138781A7BA973ECE01A8E247850769
:101970003ECC6247D247E368F7FAF2473E85B25061
:1019800045618280797106D6AA87A307F10002CE4D
:1019900002CCEF20901A2ACA02CCA1A0938681CA59
:1019A0006247BA878A07BA97B69783C74700034743
:1019B000F1006315F702938681CA6247BA878A07E6
:1019C000BA97B69783C717008DC36247BA878A074D
:1019D000BA97138781CABA973ECE01A8E247850716
:1019E0003ECC6247D247E36BF7FAF2473E85B250EE
:1019F00045618280011106CE8547A307F100412091
:101A0000AA87A307F1008347F1003E85F2400561F4
:101A10008280797106D6AA87A307F100A30F01007F
:101A20008347F1003E85B93F2ACCE24795CF8347F3
:101A3000F1003E85E93D2ACAD2478DC3E24703C77C
:101A40002700D2472381E700E24703C73700D24788
:101A5000A381E7008547A30FF10021A8EF20B0097B
:101A6000AA87A30FF10031A0EF20F008AA87A30FE7
:101A7000F1008347F1013E85B2504561828001113A
:101A800006CE8547A307F100938781850547A3818B
:101A9000E702938781852381070293878185054724
:101AA000A384E7029387818505472384E702B92948
:101AB000AA87A307F1008347F1003E85F240056144
:101AC00082800111AA87A307F1008547A30DF100C9
:101AD00002CE02CE21A813878185F247BA97034729
:101AE000F1002380E700F24785073ECE7247930757
:101AF0001002E3F2E7FE8347B1013E850561828073
:101B0000797106D6AA872E87A307F100BA87230723
:101B1000F100A30F01000347F100930720026319AE
:101B2000F7008307E1003E85693FAA87A30FF10014
:101B30008347F1009DC30347F1009307100263EE52
:101B4000E7008347F10013878185BA970347E100D7
:101B50002380E7008547A30FF1008347F1013E850D
:101B6000B250456182800111AA87A307F100ED57A9
:101B7000A30FF1008347F10085C30347F1009307EA
:101B8000100263EBE7008347F10013878185BA9762
:101B900083C70700A30FF1008307F1013E850561AC
:101BA0008280797106D6AA872E87A307F100BA87AB
:101BB0002307F1008547A30FF1008347E1003E852D
:101BC0005D37AA87230FF1000307F1008307E101C6
:101BD0006354F700A30F01008347F1013E85B25023
:101BE00045618280797106D6AA872E87A307F10006
:101BF000BA872307F100A30F01000347E100830721
:101C0000F100BA853E85713FAA87A30FF100834793
:101C1000F101ADCB02CCEF10F0362ACC9387818551
:101C200083C78702A9CF6247B7576210938737DD12
:101C3000B337F70299833ECAE2473757621013075A
:101C400037DD33B7E702935667001307803E3387CB
:101C5000E602998F3EC893878185DC53138717006E
:101C600093878185D8D393878185DC53BE8642468E
:101C7000D245B7B700801385874EEF60D0428547C5
:101C8000A30FF1008347F1013E85B2504561828088
:101C9000411106C69387818583C7970299C7B7B755
:101CA00000801385474FEF60904F9387818583C7EE
:101CB000370299C7B7B700801385C74FEF60304E22
:101CC0000100B240410182805D7106D62EC432DC33
:101CD00036DEBAC0BEC2C2C4C6C6AA87A307F10018
:101CE0008347F100BE857155F53DAA8781CF9C08D9
:101CF0003EC29247A1173ECEF247BE852245EF6015
:101D0000305279370100B250616182805D7106D630
:101D10002EC432DC36DEBAC0BEC2C2C4C6C6AA8772
:101D2000A307F1008347F100BE857555653DAA877D
:101D300081CF9C083EC29247A1173ECEF247BE8596
:101D40002245EF60F04DA9370100B25061618280F9
:101D50005D7106D62EC432DC36DEBAC0BEC2C2C445
:101D6000C6C6AA87A307F1008347F100BE850145D7
:101D7000953DAA8781CF9C083EC29247A1173ECECF
:101D8000F247BE852245EF60B04919370100B250D5
:101D9000616182805D7106D62EC432DC36DEBAC047
:101DA000BEC2C2C4C6C6AA87A307F1008347F1001A
:101DB000BE850545053DAA8781CF9C083EC2924756
:101DC000A1173ECEF247BE852245EF607045C9356A
:101DD0000100B250616182805D7106D62EC432DC92
:101DE00036DEBAC0BEC2C2C4C6C6AA87A307F10007
:101DF0008347F100BE850945F533AA8781CF9C084A
:101E00003EC29247A1173ECEF247BE852245EF6003
:101E10003041BD3D0100B25061618280797106D6CA
:101E2000AA872E87A307F100BA872307F10083470B
:101E3000F1003E850D3BAA87A30FF1000307E100E7
:101E40008347F100BA853E8565398307F1013E85F8
:101E5000B25045618280011106CEAA872E8732C416
:101E6000A307F100BA872307F1008347E10099CB6C
:101E70000347F1002246B7B70080938507503A85A3
:101E8000C13D11A80347F1002246B7B700809385F2
:101E900087503A8591378347E1003E85F2400561DE
:101EA0008280011106CE8547A307F100EFF09FB4B1
:101EB000AA87A307F10002C4EF2020482AC002C26B
:101EC00002C21DA0924793F7F70F3E85EFF07FB453
:101ED000AA87A307F1008347F10081C7A2478507BE
:101EE0003EC4924785073EC212478247E3FCE7FCA7
:101EF000A24789C78547A307F10019A0A3070100DE
:101F00008347F1003E85F240056182804111A307BD
:101F1000010023AA01CA8347F1003E854101828066
:101F2000797106D6AA87A307F10002CE02CCEF2072
:101F3000203C2ACA02CCB9A0938601A36247BA8783
:101F40008E07BA978A07B69783C707010347F10040
:101F50006317F702938601A36247BA878E07BA9781
:101F60008A07B69783C7170199CB6247BA878E074E
:101F7000BA978A07138701A3BA973ECE01A8E24712
:101F800085073ECC6247D247E368F7FAF2473E85C1
:101F9000B25045618280797106D6AA87A307F10005
:101FA00002CE02CCEF20C0342ACA02CCA9A0B7C707
:101FB00000801387070DE2479607BA9783C707018A
:101FC0000347F1006316F702B7C700801387070DB8
:101FD000E2479607BA9783C7170195C3E24713975D
:101FE0005700B7C700809387070DBA973ECE01A868
:101FF000E24785073ECC6247D247E36AF7FAF247E9
:102000003E85B250456182800111AA87A307F10085
:102010008947A30FF1008347F10089C7054763870C
:10202000E70001A88547A30FF10021A0A30F01003D
:1020300001008347F1013E85056182800111AA8775
:10204000A307F1008347F100A30FF1008347F101DB
:102050003E8505618280797106D6AA872E87A307FF
:10206000F100BA872307F1008947A30FF1008347E6
:10207000F10089C70547638BE7000DA08347E100A6
:102080003E855937AA87A30FF10009A88347E100CD
:102090003E856D37AA87A30FF10001008347F10148
:1020A0003E85B25045618280797106D62AC6AE87D8
:1020B000A305F100A30F0100B247B9CBB24783C714
:1020C00007013E878347B100BE863A86B7B70080D6
:1020D0009385075151451D39B24703C7870183478F
:1020E000B100BA853E85853FAA87230FF1000347DB
:1020F000E101B247BA8583C797013E85EFE01FFE35
:10210000AA87A30FF100B2470347B100A38DE700F0
:102110008347F1013E85B25045618280797106D6D0
:102120002AC62EC4A30F0100B2479DCFA2478DCF70
:10213000B2470947A38DE700EF10C0642A87B24772
:10214000D8C3B2472247D8C7B24703C72701B2470F
:10215000A38EE700B24715472389E700854532453E
:10216000A137AA87A30FF1008347F1013E85B25042
:1021700045618280797106D6AA872EC4A307F10033
:10218000A30F01008347F100A2463E86B7B7008047
:10219000938587585145EFF07FB78347F1003E851F
:1021A00041332ACCE24781CBA2456245853FAA87CD
:1021B000A30FF10019A88347F1003E86B7B700804E
:1021C0009385C7595145EFF07FB48347F1013E85B0
:1021D000B25045618280011106CE8547A307F10008
:1021E0008145514525398347F1003E85F24005611F
:1021F000828001112AC62EC4A30F0100B247B1CFBD
:10220000A247A1CFB24703C78701A247238CE700AB
:10221000B24703C7A701A247238DE700A24709479A
:10222000A38DE700B247D84BA247D8CBB247984717
:10223000A24798C7B2479843A24798C3B24703C77B
:102240002701A2472389E700B24703C79701A247A6
:10225000A38CE7008547A30FF1008347F1013E857A
:1022600005618280797106D62AC68547A30FF100E1
:102270003246B7B700809385075C5145EFF09FB1B8
:10228000B24793F7F70F3E8561392ACCE247A9C3DD
:10229000B24793F7F70F3E85FD392ACAD24789CB5B
:1022A000E2455245B93781455145EFF03FB709A89E
:1022B0003246B7B700809385C75C5145EFF0DFB178
:1022C000E2470547238EE7008547A30FF10009A8E1
:1022D0003246B7B700809385875D5145EFF0DFAF99
:1022E0008347F1013E85B25045618280397106DE37
:1022F00022DC2AC6A30701023246B7B700809385C5
:10230000875E5145EFF05F9CEF10F07AB24793F78C
:10231000F70F3E8531312AD4A257638B07125145FE
:10232000EFF07F84AA87A303F102814701483ECCE6
:1023300042CEEF1080542ACC2ECE6247F2471306CD
:10234000803E81463A85BE85EF20603D2A87AE8774
:10235000A25798D323070102A25783C72701154725
:10236000638EE7021547634AF70A0D47638EE70657
:102370000D476344F70A0547638CE7000947639EEE
:10238000E70885472307F1028547A307F10251A813
:10239000230701028547A307F10261A002CAA257E1
:1023A0009853A257DC43B307F7403ECAA257DC4715
:1023B000524763F7E7028547A307F10223070102AB
:1023C000A25783C707013E85EFF0FFBC2AC8C2476A
:1023D000A1CBC24703C72701A2572389E70089A0E1
:1023E00085472307F1022DA8A2578047A257DC4B4F
:1023F0003E85EF506015AA8793F6F70FA2579C43CE
:102400003E8722866245F245EF00D02DAA8723073A
:10241000F1028547A307F10229A0A307010211A039
:1024200001008347F10285C3A25783C7B701034761
:10243000E102630AF7008347E102BE852255AD3110
:10244000AA87A307F102A2570347E102A38DE70081
:102450008347F1023E85F25062542161828001116E
:1024600006CE8547A307F100BD33AA87A307F10075
:1024700002C4EF10F0672AC002C202C239A8124596
:10248000D533AA87A307F1008347F10081C7A2478C
:1024900085073EC4924785073EC212478247E3F054
:1024A000E7FEA24789C78547A307F10019A0A30744
:1024B00001008347F1003E85F240056182800111F1
:1024C00006CE8547A307F10002C4EF1070622AC050
:1024D00002C202C239A81245113DAA87A307F10022
:1024E0008347F10081C7A24785073EC4924785070D
:1024F0003EC212478247E3F0E7FEA24789C78547FD
:10250000A307F10019A0A30701008347F1003E854E
:10251000F24005618280011106CEA3070100938776
:1025200081CF83C7170493F7F70F6381071085479F
:10253000A307F100938781CF05472380E7049387A2
:1025400081CF9857DC57054581453306A70032886F
:102550003338E800B386B700B307D800BE863287A9
:10256000B687938681CF98D6DCD6938781CF985350
:10257000DC53938681CF904AD44A3685BE8563EA80
:10258000A5003685BE85631EB500B286BA8763FA9C
:10259000D700938781CFDC4F13871700938781CFB4
:1025A000D8CFEF10802D2A87AE87938681CF98CA27
:1025B000DCCA938781CF984BDC4BBA86938781CF57
:1025C0009853DC53BA87B387F6403EC4938781CFD4
:1025D000224798DB938781CF9C5F224763E6E70021
:1025E000938781CF9C5F11A0A247138781CF1CDF07
:1025F000938781CFDC5B224763F6E700938781CF27
:10260000DC5B11A0A247138781CF5CDB938781CF6E
:10261000984BDC4B3A85BE85EF102030938781CFF5
:10262000984BDC4B938681CF98D2DCD28347F10064
:102630003E85F24005618280011106CE22CC26CA79
:102640008547A307F100B7B700809385075F694509
:10265000EFF04FF4938781CF0144814480CBC4CB0A
:10266000938781CF23800704938781CF23AE070010
:10267000938781CF0D47D8DF938781CF0547A3800C
:10268000E704138581D2EF102038138581D2EF1033
:10269000A037938781CF80D7C4D7938781CF80D34A
:1026A000C4D3938781CF80C3C4C3938781CF98431A
:1026B000DC43B7576210938737DDB337F70213D780
:1026C0006700938781CF98C78347F1003E85F2402A
:1026D0006244D24405618280411106C6B7B70080CA
:1026E0009385875F6945EFF0AFE6B9372D35FDBFBC
:1026F000411102C6B1473EC6B2473E8541018280C4
:10270000797106D62AC6A30F0100DD372AC802CC8C
:1027100002CA02CA1DA0B7C700801387C7F5D247F7
:102720008E07BA979843B2479C436315F700E24778
:1027300085073ECCD24785073ECA5247C247E36C65
:10274000F7FC624785476316F7008547A30FF10042
:1027500019A0A30F01008347F1013E85B2504561E6
:102760008280011106CEA307010002C402C24937CC
:102770002AC002C489A8A24713973700B7C70080B0
:102780009387C7F5BA973E85A53FAA87A307F100AF
:102790008347F10089C7924785073EC215A0B7C796
:1027A00000801387C7F5A2478E07BA97DC43BE8621
:1027B0002246B7B70080938587666D45EFF0CFE17D
:1027C000A24785073EC422478247E366F7FA0247DD
:1027D00092476316F7008547A307F10019A0A307E6
:1027E00001008347F1003E85F2400561828011714E
:1027F00086DFA2DDA6DB8547A307F10E238C01CA85
:10280000938781CBA3800700E535AAD18E57638DCE
:1028100007185C001307800C3A8681453E85EFD08F
:102820009FA15800B7B700809385C7673A85EF60CE
:10283000C03B82D582D382D559A0B7C70080138709
:10284000C7F5AE578E07BA979C438297AA87A3070E
:10285000F10E8347F10E81C79E578507BED3B7C7D8
:1028600000801387C7F5AE578E07BA97D8438347C2
:10287000F10EBA853E85EF10C00BAA87A307F10EB3
:10288000AE578507BE85B7B7008013850768EF6030
:102890008001B7C700801387C7F5AE578E07BA9778
:1028A000D8435C004800BE86B7B700801386C7686F
:1028B0009305800CEF60400FAE578507BED52E57AD
:1028C0008E57E36CF7F65C003E86B7B700809385C1
:1028D00047696D45EFF0CFC71E578E576311F7025A
:1028E0008547A307F10E0E56B7B700809385476A58
:1028F0006D45EFF0EFC50547238CE1CA85A8238C11
:1029000001CA0E579E57B307F740BECFA307010E6B
:102910001E55EF4080502A87AE87B7B6008003A6C9
:10292000067083A646703A85BE85EF30805C2A87A4
:10293000AE873A84BE840E55EF40204E2A87AE877C
:102940003A86BE862285A685EF20105D2A87AE874F
:10295000BAC9BECB7E484E47DE478E561E56B7B527
:1029600000809385456B6D45EFF00FC7DD3BAA876F
:10297000A307F10C0347F10CB7B700801386076E6D
:10298000BA856D45EFF02FCD8347F10E91C7834790
:10299000F10C99C3854711A08147A307F10E834726
:1029A000F10E858BA307F10E938781CB0547A3809A
:1029B000E7000E56B7B700809385076F6D45EFF0BF
:1029C0002FB98347F10E3E85FE506E54DE541161DF
:1029D000828041118D472317F1008357E1003E8526
:1029E00041018280011106CEA3070100DD37AA87CD
:1029F0003EC001008247FDDF02C40246B7B7008037
:102A0000938547725D45EFF0AFB48247D5CF02C2E0
:102A100002C271A0B70700029386871C1247BA87CB
:102A20009207998F8E07B6970547A386E706B707E3
:102A300000029386871C1247BA879207998F8E07E8
:102A4000B69705472384E7008547A307F10083472E
:102A5000F100B9C31247BA879207998F8E0713877F
:102A60000701B70700029387871C3305F700B707F4
:102A700000029386871C1247BA879207998F8E07A8
:102A8000B6979843DC43BA853E867D26AA87A3077E
:102A9000F100A24785073EC4924785073EC2124710
:102AA0008247E369F7F6224782476316F7008547B6
:102AB000A307F10011A8A3070100B7B70080938511
:102AC00007735D45EFF04FB18347F1003E85F2405B
:102AD00005618280011106CEA3070100B7B700800F
:102AE0009385C7735D45EFF0EFAAED3DAA87A30775
:102AF000F1008347F1003E85F240056182807971E3
:102B000006D62AC42EC6A30F0100E135AA873ECA05
:102B100002CC02CC95A0B70700029386871C6247BF
:102B2000BA879207998F8E07B69783C7D706B1C326
:102B30006247BA879207998F8E0713870701B707F5
:102B400000029387871C3305F700B70700029386BE
:102B5000871C6247BA879207998F8E07B69798436A
:102B6000DC43BA872246B246BE85F52AAA87A30F60
:102B7000F100E24785073ECC6247D247E36DF7F8A4
:102B80008347F1013E85B25045618280411106C6FE
:102B9000EF00B04E2A87AE8723A0E1CC23A2F1CC70
:102BA00003A701CC83A741CC3A85BE85B240410141
:102BB00082805D7186C62AC6A30F0102B247638E6A
:102BC0000718814701483ED442D63ED042D23ECC7F
:102BD00042CE3ED842DA5D3F2AD42ED6B247B84B19
:102BE000FC4BB2563E86636AD600B2563E86639B65
:102BF000C602A256BA8763F7D702B247A84BEC4B7E
:102C00002256B2563307A6403A8833380601B387B6
:102C1000B640B3860741B6873AD83EDA8547A30F58
:102C2000F10239A0814701483ED842DAA30F0102E0
:102C30008347F103B5C3B2464257D25798D2DCD28C
:102C4000B247905BD45B4257D2573685BE8563EA64
:102C5000A5003685BE856318B5003285BA8563F454
:102C6000A5003287B687B24698DADCDAB2479057C9
:102C7000D4574257D2573E85B68563EAA5003E85B4
:102C8000B6856318B5003A85B28563F4A50032872E
:102C9000B687B24698D6DCD68547A30FF102B24775
:102CA000BC4F3E85EFE0AF95AA87A30FF1028347A3
:102CB000F10391CFB2479C4313871700B24798C3E3
:102CC000B247BC4F8297AA87A30FF10219A0A30FA6
:102CD00001026D3D2AD02ED21257B25763EAE700A7
:102CE0001257B2576315F7060257A25763F1E7066A
:102CF000025692562255B2553307A6403A883338C9
:102D00000601B387B640B3860741B6873ACC3ECEBC
:102D10008547A30FF102B247A107E24572463E85FF
:102D2000EF00D054B247B847FC476245F24533063E
:102D3000A70032883338E800B386B700B307D8005D
:102D4000BE863287B687B246B8C6FCC639A0814770
:102D500001483ECC42CEA30F01028347F1033E85DA
:102D6000B64061618280797106D622D426D22AC605
:102D70002EC432C036C2A30F0100B24783C7D705A5
:102D8000C5C7B247985FDC5F92463E86636AD6004D
:102D900092463E866393C6048246BA8763FFD70293
:102DA000A2473E888148024692463307C800BA854A
:102DB000B3B50501B387D800B386F500B687B24630
:102DC00098DEDCDE3245F533AA87A30FF100B24668
:102DD00002479247B8CAFCCA39A0B247DC431387FE
:102DE0001700B247D8C3B247B84BFC4B92463E8659
:102DF00063EAC60092463E866398C6028246BA8758
:102E000063F4F602A2473E848144024692463307A9
:102E1000C400BA85B3B58500B387D400B386F50086
:102E2000B687B24698DEDCDE8347F1013E85B250BC
:102E30002254925445618280797106D622D426D2DA
:102E40002AC62EC032C2A30F0100B247C1C7B24783
:102E500083C7C70593C7170093F7F70FA5CFB247EE
:102E600023A00700B247A1073E85EF00D03CAA8708
:102E7000A30FF100B247938707023E85EF00B03BF6
:102E8000AA87A30FF100B24781460147B4C7F8C72C
:102E9000B24794DFD8DFB247B4CBF8CBB24705478F
:102EA000A38EE704B2470547238EE704EF40B072D4
:102EB000AA873E84FD87BE84024692462285A68567
:102EC000EF1050402A87AE87B246B8C2FCC2854791
:102ED000A30FF1008347F1013E85B2502254925472
:102EE00045618280397106DE2ACC2ECE32CAB68781
:102EF0003AC6A309F100A307010203473101930772
:102F0000400663F6E70093074006A309F100624517
:102F1000F245EF40607D2A87B7C7008083A5078B05
:102F20003A85EF307075AA873ED42255EF40C05BDA
:102F30002A87B247BA973E87D247B377F7023ED285
:102F400003473101D2473307F702B787EB51938725
:102F5000F751B337F70295833ED002579257635526
:102F6000F700A307010221A08547A307F1028347C9
:102F7000F1023E85F25021618280797106D6AA87DE
:102F8000A307F10002CE02CCEF10802F2ACA02CC98
:102F9000B1A08346F1001386819F6247BA878E07EE
:102FA000998F8E07B2979C536397F6029386819F01
:102FB0006247BA878E07998F8E07B69783C78702B5
:102FC00099CB6247BA878E07998F8E071387819FA7
:102FD000BA973ECE01A8E24785073ECC6247D2476A
:102FE000E369F7FAF2473E85B25045618280797114
:102FF00006D6AA87A307F10002CE02CCEF10402824
:103000002ACA02CCA1A80347F100B7C70080938663
:10301000470A62469307C002B307F602B6979C437D
:10302000631BF702B7C700801387470AE24693077E
:10303000C002B387F602BA9783C7870085C7624785
:103040009307C0023307F702B7C700809387470A88
:10305000BA973ECE01A8E24785073ECC6247D247E9
:10306000E363F7FAF2473E85B25045618280797199
:1030700006D62AC6AE87A305F100A30F0100B2470A
:10308000C9C302CC8347B10005476386E7000947FF
:103090006387E70009A8B2479C5B3ECC29A0B247F2
:1030A000DC5B3ECC0100E247A9CFE2473E85EFD092
:1030B0001FD5AA87A30FF1008347F1018DC7624690
:1030C000B7C70080938507900945EFE03FC4E2470A
:1030D0008297AA87A30FF100B247DC4F138717002E
:1030E000B247D8CF39A86246B7C700809385879189
:1030F0000945EFE07FCEB2479C4F13871700B247D8
:1031000098CF8347F1013E85B2504561828001111D
:103110002AC68547A30FF1008347F1013E8505616B
:10312000828001112AC6A30F0100B24799C7B24796
:1031300023A207008547A30FF1008347F1013E85D5
:103140000561828001112AC6A30F0100B24799C709
:10315000B24723A207008547A30FF1008347F1017F
:103160003E8505618280797106D62AC6A30F0100CB
:10317000B2478DCBB247DC5393F7F70F930520038B
:103180003E85EFE03FFFB247DC4713871700B247A9
:10319000D8C785453245E13DAA87A30FF100B24764
:1031A00023A207008347F1013E85B250456182802A
:1031B000797106D62AC6A30F0100B24795C7B24758
:1031C000DC5393F7F70F930540063E85EFE09FFA37
:1031D000B2479C4B13871700B24798CB89453245BD
:1031E0007935AA87A30FF1008347F1013E85B250DC
:1031F00045618280797106D62AC6A30F01008947EE
:10320000230FF100B24783C797021307E101BA8584
:103210003E85EFD0DFE4AA87A30FF1008347F101D9
:10322000A1CFA30F0100B24703C7A7028347E10163
:10323000631EF702B2470547A384E7008547A30F43
:10324000F100B247DC431387C712B247D8C3B24775
:10325000D8438567938787BB63F0E702B247094786
:10326000A384E7008547A30FF10039A0B247A384E8
:1032700007008547A30FF1008347F1013E85B25057
:1032800045618280797106D6AA87A307F100A30F52
:1032900001008347F1003E85EFF03FCE2ACCE247A4
:1032A000CDC79147A30BF1006245A937AA87A30FA9
:1032B000F1008347F101BDCFE24783C78700BE8697
:1032C000E24783C797003E86B7C700801387C7FBD6
:1032D000B6878607B697BA97B29783C70700A30B3E
:1032E000F100E247DC5799C7E247DC578297AA878B
:1032F000A30FF100E24783C78700BE86E24783C77A
:1033000097003E86B7C70080138787FCB68786077D
:10331000B697B2978A07BA979C433EC8C2476245A0
:103320008297AA87A30FF100E24703477101238424
:10333000E70035A08347F1003E86B7C7008093853C
:1033400007930945EFE05FA919A88347F1003E867E
:10335000B7C70080938507940945EFE03F9B8347FB
:10336000F1013E85B250456182800111AA87A30711
:10337000F1009547A30FF1008347F10089C7054786
:103380006387E70009A88947A30FF10029A08547B3
:10339000A30FF10001008347F1013E8505618280A2
:1033A00041118547A307F1008347F1003E854101A4
:1033B0008280797106D62AC68547A30FF100B247ED
:1033C00093F7F70F3E85EFF09FC22ACCE247F9C38F
:1033D000B24793F7F70F3E85EFF03FBA2ACAD247BC
:1033E000DDC33246B7C70080938507950945EFE0F6
:1033F0003F96E247D843D247D8D3E247984BD247CB
:1034000098DBE247D84BD247D8DBE247D847D247D0
:10341000D8D7E24703C7A700D2472385E702E24790
:1034200003C79700D247A384E702D24723A6070029
:10343000D24723A80700D24723AC0700D2472384F2
:103440000700D2471147A384E700D24783C79702FA
:103450009D453E85EFD0AFF6AA87A30FF100E24766
:1034600083C7A7003E851137AA87A309F100034748
:103470003101D247BA8583C797023E85EFD0DFFB83
:10348000AA87A30FF100D24705472380E7008547AD
:10349000A30FF1008347F1013E85B2504561828060
:1034A000011106CE8547A307F100DD3DAA87A307DA
:1034B000F10002C4EF00D05C2AC002C202C239A8E7
:1034C0001245C53DAA87A307F1008347F10081C7D4
:1034D000A24785073EC4924785073EC212478247EE
:1034E000E3F0E7FEA24789C78547A307F10019A0CB
:1034F000A30701008347F1003E85F2400561828009
:10350000011106CE8547A307F10002C4EF00505712
:103510002AC002C202C21DA0924793F7F70F3E8550
:10352000EFF05FD6AA87A307F1008347F10081C7B8
:10353000A24785073EC4924785073EC2124782478D
:10354000E3FCE7FCA24789C78547A307F10019A060
:10355000A30701008347F1003E85F24005618280A8
:10356000011106CEA3070100EF00D053AA87A307DD
:10357000F100938701D483C7070091CB1386E1D470
:10358000B7C70080938587954545EFE0FF84834763
:10359000F1003E85F24005618280797106D6AA87E6
:1035A000A307F10002CE02CCEF00705B2ACA02CC66
:1035B0003DA8138741A8E2478A07BA9783C7070047
:1035C0000347F1006312F702138741A8E2478A0715
:1035D000BA9783C7170089CBE247139727009387D1
:1035E00041A8BA973ECE01A8E24785073ECC624784
:1035F000D247E360F7FCF2473E85B25045618280D6
:10360000797106D6AA87A307F10002CE02CCEF009B
:1036100010552ACA02CC91A8B7C70080938607111B
:103620006247BA878607BA97B69783C707000347EA
:10363000F1006319F702B7C700809386071162474C
:10364000BA878607BA97B69783C717009DC36247A4
:10365000BA878607BA9737C7008013070711BA974A
:103660003ECE01A8E24785073ECC6247D247E365DC
:10367000F7FAF2473E85B25045618280797106D6ED
:10368000AA87A307F1008547A30FF1008347F10044
:103690003E85BD372ACCE247A9CF8347F1003E855E
:1036A000ED3D2ACAD247B1C3E24703C70700D2475C
:1036B0002380E700E24703C72700D2472381E700C2
:1036C000D2470547A380E700D2470547A381E7001B
:1036D000D24783C7270005476386E700094763850C
:1036E000E70021A0010011A0010081457D45EFE028
:1036F0002FC18347F1013E85B250456182807971C7
:1037000006D6AA87A307F1008347F1003E857135ED
:103710002ACEF247B5C3F24783C727002D476382FD
:10372000E7022D476342F70429476382E7022947EE
:10373000634CF70219476380E7041D47638FE70076
:1037400025A0EFD06F902A8723A4E1CC35A0EFC04D
:10375000FFEA2A8723A4E1CC05A083A781CC1387A5
:10376000170023A4E1CC09A883A781CC13871700F5
:1037700023A4E1CC11A0010083A781CC3E85B250E7
:1037800045618280011106CE02C683C7C1CC93C7B2
:10379000170093F7F70F89CB05472386E1CC054542
:1037A000B93F2AC6238601CCB2473E85F240056167
:1037B0008280797106D6AA87A307F100A30F0100C2
:1037C0008347F1003E85EFF05FDD2ACCE247D1C7A9
:1037D000E24783C727002D476382E7022D476368CE
:1037E000F70629476385E70229476362F706194709
:1037F000638BE7061D476385E70291A8EFD0CF8A68
:103800002A87AE8723A8E1CC23AAF1CCB1A8EFC0C8
:103810003FDB2A87AE8723A8E1CC23AAF1CCA9A05D
:1038200003A701CD83A741CD054581453306A700F8
:1038300032883338E800B386B700B307D800BE86B5
:103840003287B68723A8E1CC23AAF1CC31A8EF00B8
:103850005033AA87A30FF10001A8EF009032AA8786
:10386000A30FF10011A0010003A701CD83A741CD53
:103870003A85BE85B25045618280011106CE05456C
:103880000D3F2AC42EC62247B2473A85BE85F24074
:1038900005618280011106CE8547A307F1008145AD
:1038A0007D45EFE0EFA58347F1003E85F2400561DD
:1038B0008280011106CE8547A307F100E13FAA8768
:1038C000A307F10002C4EF0090292AC002C202C27D
:1038D0001DA0924793F7F70F3E85EFF03FDAAA87D6
:1038E000A307F1008347F10081C7A24785073EC4C3
:1038F000924785073EC212478247E3FCE7FCA24796
:1039000089C78547A307F10019A0A30701008347D2
:10391000F1003E85F24005618280011106CE2AC485
:103920002EC62245B245EFF08F9D0100F2400561A1
:103930008280797106D6AA872EC4A307F100834737
:10394000F10093C7170093F7F70FCDC32246B7C70F
:103950000080938507984545EFE00FC8938701D411
:1039600005472380E700938701D483D7C7008507E5
:10397000139707014183938701D42396E7001385AA
:10398000E1D4EF5060252A8793072003998F3ECE1C
:103990002245EF5060242A87F2476371F706A30D92
:1039A00001008546B7C70080138607999305200359
:1039B0001385E1D4EFD0FFEFAA87A30DF100834771
:1039C000B1018DCF2245EF502021AA87BE86224625
:1039D000930520031385E1D4EFD0BFEDAA87A30D93
:1039E000F100938701D4A38F070209A82246B7C725
:1039F0000080938547994545EFE08FB58347F100F7
:103A00003E85B2504561828001112AC6A30F010094
:103A1000B24789CFB24723A00700B24723A40700CB
:103A2000B2477D57D8C38547A30FF1008347F10103
:103A30003E850561828001112AC6A30F0100B247AD
:103A40008DC3B2478146014794C3D8C3B24794CBD4
:103A5000D8CBB2467D57FD5798C6DCC68547A30F25
:103A6000F1008347F1013E850561828001112AC67C
:103A70002EC032C2A30F0100B247ADC7B246024703
:103A8000924798C2DCC2B247904BD44B0247924750
:103A90003685BE8563EAA5003685BE856318B50008
:103AA0003285BA8563F4A5003287B687B24698CAD4
:103AB000DCCAB2479047D447024792473E85B68555
:103AC00063EAA5003E85B6856318B5003A85B285E0
:103AD00063F4A5003287B687B24698C6DCC6854730
:103AE000A30FF1008347F1013E85056182804111FA
:103AF000B7070201938747303EC68347C100F117DD
:103B000093B7170093F7F70F3E85410182807171DB
:103B100006D7A30F01083C00130760093A868145C8
:103B20003E85EFC04FF13800B7C700809385879F6F
:103B30003A85EF50800B34002800B7C70080138708
:103B4000C79FB7C70080138647A093056009EF4061
:103B5000B0653C003800BE86B7C70080138647A119
:103B6000930560093A85EF4030643C003E86B7C754
:103B70000080938507A26D45EFE0CFA18547A30F95
:103B8000F1088347F1093E85BA504D618280717119
:103B900006D78547A30FF1083C00130760093A8652
:103BA00081453E85EFC02FE93800B7C70080938577
:103BB000879F3A85EF5060033C0028003947BE8656
:103BC000B7C70080138687A993056009EF40D05DD1
:103BD0003C0028000947BE86B7C70080138647AA65
:103BE00093056009EF40505C3C0028000147BE8609
:103BF000B7C70080138687AB93056009EF40D05AA2
:103C00003C003800BE86B7C70080138607AD930519
:103C100060093A85EF40505934002800B7C700804A
:103C2000138707AEB7C70080138687AE9305600978
:103C3000EF4090573C003800BE86B7C7008013861F
:103C400087AF930560093A85EF4010563C00380075
:103C5000BE86B7C70080138647B0930560093A85D2
:103C6000EF4090543C0028001147BE86B7C7008043
:103C7000138647B193056009EF4010533C003E8620
:103C8000B7C70080938587B26D45EFE06F8C83479F
:103C9000F1093E85BA504D6182802971232E11129F
:103CA0008547A307F1128A871307C0123A86814518
:103CB0003E85EFC04FD80A87B7C700809385879F9E
:103CC0003A85EF4090728A860A85B7C700801387CD
:103CD00007B3B7C70080138607B49305C012EF403F
:103CE000B04C8A860A85B7C70080138707B5B7C767
:103CF00000801386C7B59305C012EF40F04A8A874B
:103D00003E86B7C70080938507A26D45EFE08F8898
:103D10008347F1123E858320C1133161828029716E
:103D2000232E11128547A307F1128A871307C012A9
:103D30003A8681453E85EFC00FD00A87B7C700801D
:103D40009385879F3A85EF40506A8A870A87BE86A7
:103D5000B7C70080138687B69305C0123A85EF4037
:103D6000B044EFF0DFE2AA87A307F1128A870A8541
:103D70000547BE86B7C70080138687B79305C01274
:103D8000EF4090428A860A85B71703001387D7CD84
:103D9000B7C70080138647B89305C012EF40D040E4
:103DA0008A870A850147BE86B7C70080138647B950
:103DB0009305C012EF40503F8A873E86B7C7008008
:103DC000938507A26D45EFD0FFFC8347F1123E8536
:103DD0008320C113316182802971232E11128547FE
:103DE000A307F1128A871307C0123A8681453E85E0
:103DF000EFC06FC40A87B7C700809385879F3A8555
:103E0000EF40B05E8A870A87BE86B7C700801386F8
:103E100047BA9305C0123A85EF4010398A870A875E
:103E2000BE86B7C70080138647BB9305C0123A858C
:103E3000EF4090378A873E86B7C70080938507A2F8
:103E40006D45EFD0FFF08347F1123E858320C1130B
:103E5000316182802971232E11128547A307F11247
:103E60008A871307C0123A8681453E85EFC0AFBCF2
:103E70000A87B7C700809385879F3A85EF40F05641
:103E80008A860A85B777AB001387F740B7C70080EB
:103E9000138647BC9305C012EF4010318A870A850C
:103EA0001307A02FBE86B7C70080138647BD9305B2
:103EB000C012EF40702F8A860A85B7C7008013872B
:103EC00087BEB7C700801386C7C09305C012EF40F6
:103ED000B02D8A860A85B7C70080138747C2B7C747
:103EE00000801386C7C39305C012EF40F02B8A866B
:103EF0000A85B74700801387A70DB7C700801386D0
:103F000007C59305C012EF40302A8A873E86B7C79F
:103F10000080938507A26D45EFD09FE38347F112A0
:103F20003E858320C113316182802971232E1112B5
:103F30008547A307F1128A871307C0123A86814585
:103F40003E85EFC04FAF0A87B7C700809385879F34
:103F50003A85EF4090498A860A85B7C70080138763
:103F600087C6B7C70080138647C79305C012EF40C6
:103F7000B0238A860A85B7C70080138707C8B7C7EA
:103F800000801386C7C89305C012EF40F0218A86CF
:103F90000A85B7C70080138787C9B7C70080138613
:103FA00047CB9305C012EF4030208A873E86B7C7C3
:103FB0000080938507A26D45EFD09FD98347F1120A
:103FC0003E858320C11331618280011106CE854771
:103FD000A307F100EFF07FCCAA87A307F100EFF071
:103FE0001FD4AA87A307F100EFF0DFE6AA87A30793
:103FF000F100EFF09FF3AA87A307F100EFF0DFDDF8
:10400000AA87A307F100EFF09FB08347F1003E8538
:10401000F240056182804111A30701008347F1004E
:104020003E85410182802971232E1112A3070112BE
:104030008A871307C0123A8681453E85EFC0AF9F3D
:104040008A860A85B74700801387A70DB7C7008007
:10405000138687CC9305C012EF4010158A870A8516
:104060001147BE86B7C700801386C7CD9305C0121F
:10407000EF409013EFF0BFA7AA87A307F112834781
:10408000F11291CF8A870A87BE86B7C70080138650
:1040900087CF9305C0123A85EF40101129A88A876F
:1040A0000A87BE86B7C700801386C7D09305C012A3
:1040B0003A85EF40700FEFF01FF68A873E86B7C74C
:1040C0000080938507A26D45EFD09FC88347F1120A
:1040D0003E858320C11331618280011106CE854760
:1040E000A307F100EFE0AFF0AA87A307F1000347B1
:1040F000F100B7C70080938587E73A85EFF07F83AB
:10410000AA87A307F1008347F10091C7B7C70080D2
:104110009387C7E729A0B7C70080938707E83E8643
:10412000B7C70080938587E86D45EFD07FC283478E
:10413000F100B337F00093F7F70F93C7170093F729
:10414000F70F858B13F7F70F938701D42380E700D0
:10415000B7C70080938547E96D45EFD07FBFEFF08B
:10416000DFE6EFF05FECEFE02FD7B7C70080938575
:1041700087EA6D45EFD05FC601A0011106CE8547E5
:10418000A307F100B7070500D44FB70705005D6727
:104190001D07558FD8CFB7070500D84BB7070500C7
:1041A0001367B708D8CBB7070500D84713671700C0
:1041B000D8C7B7070500D84713672700D8C7B70780
:1041C0000500D84713674700D8C7B7070500D84789
:1041D00013678700D8C7B7070500D84713670702DA
:1041E000D8C7B7070500D8473D9BD8C7B707050014
:1041F000D8471377F7FBD8C7B7070500D847137719
:10420000F7F7D8C7B70705000D4798D70945CD2A56
:10421000EFC0EFD9AA87A307F1008347F1003E85DD
:10422000F24005618280411102C689473EC6B2470D
:104230003E8541018280011106CE8547A307F1002A
:1042400081456D45EFD0DF8BB757E80113860780B6
:10425000B7C700809385C7EB6D45EFD07FAF83472D
:10426000F1003E85F240056182808D473E85828067
:104270004111A30701008347F1003E85410182807F
:10428000411102C602C402C285473EC485473EC2F0
:10429000224792476314F700A2473EC6B2473E85C5
:1042A0004101828041118547A307F1008347F10056
:1042B0003E854101828041118547A307F100938724
:1042C00001A305472388E700938701A30547A38837
:1042D000E700938701A30947238AE702938701A395
:1042E0000547A38AE7028347F1003E8541018280AA
:1042F00089473E85828041118547A307F100054724
:10430000938781A72382E7000547938781A72381AD
:10431000E7000547938781A7A381E70001479387BB
:1043200081A72380E700938781A70547A380E70043
:104330008347F1003E8541018280411102C602C4DB
:1043400002C285473EC485473EC222479247631456
:10435000F700A2473EC6B2473E8541018280411127
:1043600002C602C402C28D473EC48D473EC22247E8
:1043700092476314F700A2473EC6B2473E8541010B
:10438000828041118547A305F10002C602C685A0BF
:10439000B7C70080938607113247BA878607BA9756
:1043A000B69703C70700938641A8B2478A07B69716
:1043B0002380E700B7C70080938607113247BA878A
:1043C0008607BA97B69703C72700938641A8B247D6
:1043D0008A07B6972381E700138741A8B2478A0767
:1043E000BA970547A380E700B24785073EC6324724
:1043F0008947E3FFE7F88347B1003E8541018280AA
:104400004111AA87A307F1008347F1002147638A7E
:10441000E7042147634FF7041147638CE702114714
:104420006349F70405476386E7000947638BE700A4
:1044300089A0B7070600D84BB7070600759BD8CBF5
:1044400015A8B7070600D84BB7070600799BD8CB4D
:1044500015A0B7070600984BB7070600759B98CBC9
:1044600011A8B7070600984BB7070600799B98CBB1
:1044700011A0010001004101828079712AC62EC479
:1044800002D602D402D202D002CEB2473757080079
:10449000130707806383E706375708001307078071
:1044A000636DF706374708006389E7003747080060
:1044B000130707406383E7028DA0B71705009387B2
:1044C00007C03ED6B7170500938747C03ED4B7173D
:1044D0000500938787C03ED299A0B7170500938740
:1044E000C7C03ED6B7170500938707C13ED4B7179C
:1044F0000500938747C13ED21DA0B71705009387DB
:1045000087C13ED6B71705009387C7C13ED4B717FA
:104510000500938707C23ED219A08547CDA8F9A808
:10452000A24783D70700BE8682570547B317F70017
:10453000F58F3ECEF247E1C3B2579C4302570607C0
:104540008D463397E6001347F7FFF98F224703475D
:10455000270093763700025706073397E6005D8FF2
:10456000B25798C3A24703C7270091476306F700D5
:10457000A24783C7270095E7A24703C727009147B3
:10458000631AF70082570547B317F7003E87B24713
:10459000D8C701A882570547B317F7003E87B2472F
:1045A00098C7A2579C43025706078D463397E600EB
:1045B0001347F7FFF98F224703474700BA86025790
:1045C00006073397E6005D8FA25798C392579C4326
:1045D000025706078D463397E6001347F7FFF98F1A
:1045E000224703473700BA86025706073397E6008B
:1045F0005D8F925798C3825785073ED0A24783D7D5
:1046000007003E878257B357F74099FB81473E85A5
:104610004561828001112AC6AE872315F100B24799
:1046200098438357A100F98F89C78547A30FF100ED
:1046300019A0A30F01008347F1013E850561828027
:1046400041112AC6AE8732872315F100BA87A30429
:10465000F1008347910091E70357A100B247D8C307
:1046600029A00357A100B24798C3010041018280ED
:104670004111F36704303EC6856793870780F3A72F
:1046800047303EC40100410182804111F37744303C
:104690003EC693070008F3B747303EC4856793874B
:1046A0000780F3B747303EC20100410182804111CB
:1046B0002AC6B7070500938707409443B70705004C
:1046C000938707403247558F98C30100410182808C
:1046D00041112AC6B707050093870740D443B7079F
:1046E0000500938707403247558FD8C30100410129
:1046F000828041112AC6B7070500938707403247D9
:1047000098C701004101828041112AC6B707050000
:10471000938707403247D8C7010041018280328821
:10472000AA882E87D5EA63FFC50EC167636CF618A9
:10473000B7070001E1466373F600C1463353D60064
:1047400097870000938787A99A9783C70700130369
:104750000002B697B306F340630BF3003397D5001E
:10476000B357F5005D8F3318D600B318D500135634
:1047700008013355C70293160801C18293D7080177
:104780003377C702B385A6024207D98F63FAB70011
:10479000C2971307F5FF63E4070163EEB7303A856C
:1047A0008D8F33D7C702C20893D80801B3F7C70269
:1047B000B386E602C207B3E8F80063FBD800C298EC
:1047C0009307F7FF63E50801791763E3D8003E8795
:1047D0004205598D8145828063F5D50081450145AB
:1047E0008280C16763E8F61837070001E14763F389
:1047F000E600C14733D8F600178700001307079E6D
:10480000429703470700130800023E97B308E840A9
:104810006317E81863E3B6283335C5001335150070
:104820008145828055C6C1676371F626133706102D
:10483000133717000E07B356E600978700009387DB
:10484000E799B69783C7070093060002BA97B38E1D
:10485000F640639FF608B387C540935606014206AB
:104860004182854533D5D70213D70801B3F7D70264
:104870003303C502C207D98F63FA6700C2971307D3
:10488000F5FF63E4070163E567223A85B387674074
:1048900033D7D702C20893D80801B3F7D70233063B
:1048A000C702C207B3E8F80063FBC800C2989307C9
:1048B000F7FF63E50801791763E3C8003E87420507
:1048C000598D82809336061093B616008E06BDB5BC
:1048D00081469787000093876790B69783C7070044
:1048E000014793060002BA97B38EF640E385F6F6C9
:1048F0003318D60133D3F50093560801335ED30243
:1049000013160801B395D5014182B357F500CD8F39
:1049100013D70701B318D5013373D302B305C60308
:10492000420333676700637BB70042971305FEFFBE
:10493000636C0717637AB716791E42970D8F33554C
:10494000D702C207C1833377D7023303A6024207D7
:10495000D98F63FB6700C2971307F5FF63E2071562
:1049600063F067147915C29793150E01C98DB3874B
:104970006740CDBD93B7061093B717008E0733D8A5
:10498000F600178700001307678542970347070063
:10499000130800023E97B308E840E30DE8E6335EF3
:1049A000E600B3961601336EDE0033D8E500935E61
:1049B0000E01B357D80313130E01B395150113530A
:1049C00003013357E5004D8F935607013316160147
:1049D0003378D803B305F3024208B3E6060163FB5C
:1049E000B600F2961388F7FF63E2C60D63F0B60CCB
:1049F000F917F2968D8E33D8D60342074183B3F66A
:104A0000D603B3050303C206558F637BB7007297C5
:104A10009306F8FF6368C7096376B7087918729739
:104A2000C2079316080113130601B3E70701C182F9
:104A30001353030113D807014182330E68020D8F0F
:104A400033836602B386C60293550301F296AE968F
:104A50003308C80263F4C6014166329813D60601D2
:104A600042966360C7026305C7003E858145828028
:104A7000420313530301C206331515019A96E376D8
:104A8000D5FE1385F7FF81458280B7070001637764
:104A9000F6029356060141474DB381450545828094
:104AA0003A85D9B53688ADBF2A8E49BDC28799B738
:104AB0007915C297E1BB7915C297DDB1935686018E
:104AC0006147A5BB3288AA88AE872E87CDE663FFF3
:104AD000C50EC1676362F618B7070001E14663734C
:104AE000F600C1463353D600977700009387076FCF
:104AF0009A9783C7070013030002B697B306F340E3
:104B0000630BF3003397D500B357F5005D8F33186F
:104B1000D600B318D500935508013356B7021313C6
:104B200008011353030193D708013377B702330603
:104B300066024207D98F63F7C700C29763E4070193
:104B400063E3C730918F33D7B702139508014181D2
:104B5000B3F7B70233076702C2075D8D6378E500DC
:104B60004295636505016373E5004295198D3355E0
:104B7000D5008145828063F3D5008280416763EB75
:104B8000E61637070001614863F3E600414833D376
:104B9000060117770000130767641A970347070099
:104BA0001303000242973308E340631AE31663E4F9
:104BB000B600636AC500B308C540B3371501B386B4
:104BC000D540B387F6404685BE85828041CEC16719
:104BD000637FF62413370610133717000E07B356FA
:104BE000E600977700009387675FB69783C7070053
:104BF00013030002BA97B306F3406315F308338733
:104C0000C5401353060142064182B355670293D74C
:104C1000080133776702B385C5024207D98F63F86D
:104C2000B700C29763E5070163F3B700C2978D8FA2
:104C300033D76702C20893D80801B3F76702330776
:104C4000C7021395070133E5A800E36BE5F0198D62
:104C50003355D500814582809336061093B61600F1
:104C60008E0649B581469777000093872757B697F8
:104C700083C70700014713030002BA97B306F34046
:104C8000E30FF3F63318D60033DEF50013530801B3
:104C9000B35E6E0213160801B395D5003357F500C5
:104CA00041824D8F93570701B318D500337E6E02B2
:104CB000B385CE02420EB3E7C70163F8B700C297CF
:104CC00063E5070163F3B700C2978D8FB3D5670221
:104CD00042074183B3F76702B385C502C2075D8F00
:104CE0006378B7004297636507016373B700429723
:104CF0000D8F21BF13B80610133818000E0833D3D8
:104D00000601177700001307674D1A97034707003E
:104D10001303000242973308E340E30AE3E8B39643
:104D20000601B358E600B3E8D80033D3E50013DE3C
:104D30000801B356C303939E080193DE0E01B357D7
:104D4000E500B3950501DD8D93D705013316060106
:104D5000331505013373C303338FDE024203B3E718
:104D6000670063FBE701C6971383F6FF63EB170D3C
:104D700063F9E70DF916C697B387E74133DFC70339
:104D8000C205C181B3F7C703B38EEE03C207CD8F4F
:104D900063FBD701C6979305FFFF63E2170B63F030
:104DA000D70B791FC697C206131E0F01B3E6E601A3
:104DB00013130601135E0E0113530301C182135F27
:104DC0000601B38F6602B385D74133036E02330EFB
:104DD000EE03935703017E9EF297B386E60363F4D6
:104DE000F701416EF29613DE0701420313530301EC
:104DF000C207F2969A9763E4D5026380D502B3079F
:104E0000F5403335F500958D898D3397E50033D521
:104E10000701B3D50501598D8280E372F5FE338613
:104E2000C740B3B7C700C6979D8EB287C9BFB70743
:104E30000001637CF6009356060141475DB32E8F57
:104E40009DB79A8615BFC297F5B9935686016147FB
:104E500049BB3703100001117D1313D74601B37707
:104E6000B3003378D30056C293DA45018E0726CAC1
:104E700052C493FAFA7F135AD50193D4F5010E0860
:104E80009375F77F06CE1357D60122CC4AC84EC67B
:104E9000FD82336AFA00B288B387BA4033670701EC
:104EA000131E3500931E36006389D40E6355F0043B
:104EB00063920516B366D701638106309386F7FFC8
:104EC000638C06621306F07F6386C73A130680037D
:104ED000635FD6561304FEFF333E8E00330ACA4189
:104EE00093168A0037078000BE8A63DA0604130A25
:104EF000F7FF7D54B9A26384071AB3875541639DB8
:104F00000A3C3366CA01630006581386F7FF63073D
:104F1000066A1305F07F638FA7621305800363564B
:104F2000C5741384FEFFB3BE8E00330AD741131637
:104F30008A00370780006341067CB684BE8A9307E7
:104F4000440033B48700229A3E8493178A0063DDBD
:104F5000072093871A001307F07F2688638AE720CB
:104F6000370780FF7D1793F7F77F3377EA00131633
:104F7000D7010D802607418E3183F2406244D2076B
:104F8000D98F1317F801D98FD2444249B249224A26
:104F9000924A3285BE85056182802688635DF01C59
:104FA00063920516B366D701638906209386F7FFDF
:104FB000638E064E1306F07F6389C75A130680037B
:104FC000635CD66293168A003707800013041E00C4
:104FD000BE8AE3D606F63A8A0144850A9307F07F33
:104FE0006387FA18B70780FFFD17B377FA001357E6
:104FF000140005889396F701418F13DA170033E404
:10500000E60093777400B1D39377F4001147E38EF1
:10501000E7F235B79306F07F638EDA2493068003B8
:1050200063D2F61C1304FEFF333E8E00330ACA41DE
:1050300013178A00B7078000E35307F0138AF7FFBE
:105040007D545285EF205039930785FF13070002E6
:10505000B306F740B356D400331AFA00B3E646015C
:105060003314F40063C7572FB387574185071D8F4B
:105070003316E4003336C000335AF4003366460179
:105080003397E6003364C70033DAF600B3674401B0
:10509000814AA5FB2688814701470146F9BD9387D0
:1050A0001A0093F7E77F63920728B367CA01336654
:1050B000D70163910A3E638B075263050620B3054F
:1050C000DE413336BE00B307EA40918F1396870066
:1050D000635F065C338ECE41B3BECE0133074741DA
:1050E0003307D741B367EE007284B684C5D79317F0
:1050F000870063D70760B70780FFFD177D8F36886D
:105100008547B5B59306F07F6386DA16930680036C
:1051100063C2F62CB7068000558FFD4663C8F64083
:10512000130600021D8EB316C7003396CE00B3DE01
:10513000FE003357F7003336C000B3E6D601B3E7BD
:10514000C6003A9A3E9EB337FE003E9A7284931789
:105150008A00E3C407E893777400638C075A937757
:10516000F4001147E39DE7DCD6870D8091A8D68730
:105170000147014619B563890710B3875541639408
:105180000A26B366CA01638D064C9386F7FF638FC8
:1051900006301306F07F6384C73E13068003635B0B
:1051A000D65293168700370A8000BE8A0144E3C6B0
:1051B00006E213841E003A8A59B3131435000D8099
:1051C0001316DA019306F07F418E13573A00639865
:1051D000D708598E59CA01489307F07F370708004E
:1051E000014661BBB7068000558FFD4663C0F618C7
:1051F000930600029D8E3314D700B396DE00B3DE13
:10520000FE00B336D0003364D4013357F700558C19
:10521000330AEA4033048E40333E8E00330ACA41DB
:1052200093178A00E3D907F2260A135A9A00E31A61
:105230000AE02285EF20501A930785017D47E35746
:10524000F7E06115B316A40063D65715370780FF42
:105250007D17758F1316D701B387FA400D83320778
:10526000318393F7F77F268809BB26889307F07F61
:10527000014721B313143500135534001316DA0116
:10528000498E13573A00B1B793871A0093F6E77F18
:10529000639F0616B367CA01639E0A3AB366D701D5
:1052A0006380074085C2F29E33BECE015297330A17
:1052B000C70193178A00768E63C00742B3E74E0199
:1052C000E38A07DC135E3E001316DA013366C6017B
:1052D00013573A00814761B71306F07F638CC526E8
:1052E000130680036347F61637068000336ACA0048
:1052F0007D46634EF628130600021D8E3314CA0045
:105300003316CE00335EFE003336C0003364C40172
:10531000B357FA00518C1D8F33848E40B3BE8E007C
:10532000330AD741AE8AB684E5BD3304DE41333655
:105330008E00B307EA40918F13968700634A0612E6
:105340003366F4003E8AE31406EE014881470147C4
:105350002DB1370A80FF7D1A13777400B38AFA40A3
:1053600033FA4601E31D07DED68701B5938607FEB3
:1053700013060002B356D700638AC7001306000461
:10538000B307F640B317F700B3EEFE003334D00195
:10539000558C49B53384574193071400635DF72E4C
:1053A00005141307000233D48600638BE70013074C
:1053B0000004B307F740B397F600B337F0005D8CF5
:1053C000E30A04CC93777400814AE39F07C2014A41
:1053D0000D80FDB313178A00B7078000635D071CBB
:1053E0003E8A0144DDBE9306F07F638AD51893069A
:1053F000800363D5F62093178700370A8000AE8AB2
:105400000144E3CC07BC13841E003A8A0DBE930608
:10541000F07FE38FD7D4F29E33BECE0152977297BE
:1054200093DE1E001314F70193F67E003364D4015B
:10543000135A170099C69376F4001146BE8AE3907A
:10544000C6B00D801316DA01418E118309BDB687EF
:1054500069BB1384FEFFB3BE8E00330AD741131716
:105460008A00B7078000634B071CB684AE8AC1BCB4
:10547000338ECE41B3BECE01330747417284330A27
:10548000D741B6846DB31396380013543600B684F2
:105490003A8A3DB3E9EB6309062213963800931765
:1054A000D7010D82B6845D8E0D8325B3F29E33BE87
:1054B000CE01529772979317870063D40718B707E6
:1054C00080FFFD1793D61E007D8F9317F70193F58C
:1054D0007600D58F135617006382051E93F6F700EA
:1054E0009145638DB61C3384B700B337F400338A1B
:1054F000C7000D808947E9B1B30EDE41333EDE01BE
:105500003307EA40330AC74193178A00768463CD94
:10551000070093DE3E001316DA013366D6011357F7
:105520003A0085472DBBB684854AFDB9938607FEB0
:1055300013060002B356D700638AC700130600049F
:10554000B307F640B317F700B3EEFE00B337D00150
:10555000D58FCDBE939738001316D7018D83B684AF
:105560005D8E0D83BDB1E31806C613143500935745
:1055700034001316DA015D8E13573A0099B99397E8
:1055800038001316D7018D835D8E0D8399B1138674
:1055900007FE130500023356CA00638AA7001305ED
:1055A0000004B307F540B317FA00336EFE0033343E
:1055B000C001518C95B313041E0051B2338ECE41FD
:1055C000B3BECE0133074741330AD74193178A0050
:1055D0007284E3CA07F4135E3E001316DA01B68440
:1055E0003366CE0013573A00854795B9E30F06D4CA
:1055F0003A8A768EB684F9B1B68705B6B7068000CA
:10560000336ADA00FD4663C4F606130600021D8EF7
:10561000B316CA003316CE00335EFE003336C00028
:10562000B3E6C601B357FA00D18E3E97B69EB3B625
:10563000DE00338AE6007684AE8A11BEAE8AB68476
:10564000F5BA1316D70193DE3E003366D6010D83FB
:10565000854731B18DD7B36ED701E39E0EB631B712
:105660000E06135436003A8AA1BEB28751B1138692
:1056700007FE930600023356CA00638AD7009306DA
:105680000004B387F640B317FA00336EFE00B3365A
:10569000C001D18E61BF130700021D8F0146F9BA08
:1056A000E38A069E76843A8A81470D8011BE33E6EE
:1056B000F500E30C06C83E8A2E8E29B18D8376064E
:1056C0005D8E1183894761BE01489307F07F3707DC
:1056D000080065B0B6873DB7370780FF7D17337781
:1056E000EA001316D70193DE3E000D833366D60120
:1056F00033776700854751B0BE8AB6846FF02FFFBD
:105700001316D701135E3E003366CE000D8381472A
:10571000B9B60D80D6876DB4797193D7450122D47F
:1057200026D252CC56CA66C29394C50006D64AD039
:105730004ECE5AC85EC662C46AC093F7F77F2A8409
:10574000B28C368AB18093DAF501638A07121307A7
:10575000F07F638BE7068E04935BD501B3EB9B0070
:1057600037078000138B17C0131C3500B3EBEB0019
:105770008144014D93574A011314CA0093F7F77FF0
:105780003180135AFA01BDC31307F07F638FE70C12
:105790000E0413D7DC01938717C0418F37048000B4
:1057A000330BFB40598C93973C0001463D47B3C5F2
:1057B0004A01636E971897760000938666968A046E
:1057C000B694984036970287B3EBA400639C0B1401
:1057D0003E8B93574A011314CA0093F7F77F014C8D
:1057E000A144094D3180135AFA01D9FFB3679401DE
:1057F00063850714630604362285EF20E03D2A877F
:10580000930755FFF5469D8E930787FF3314F400E9
:10581000B3D6DC00558CB397FC005A97130B373F77
:10582000014669B79307F07F81460147B250225481
:10583000D207FE05D58FCD8F92540259F249624AA4
:10584000D24A424BB24B224C924C024D3A85BE8515
:1058500045618280814781460147C9BF81459307E1
:10586000F07FB70608000147D1B7B3679401130B67
:105870001B80E9EB93E424000144094605BFB3EB28
:10588000A40063870B0A638F042A2685EF20C034A7
:105890002A87930755FFF54B130C87FFB38BFB400B
:1058A000B3948401B35B7401B3EB9B00331C84019C
:1058B0009307D0C0338BE7408144014D65BDD68549
:1058C0005E84E2870947E30FEDF40D47E308EDF846
:1058D0000547E301EDF8930FFB3F7E87635AF03BEA
:1058E00093F677006394063013D53700931774004E
:1058F00063D80700B70700FFFD1713070B407D8C27
:105900009307E07FE3C0E7F29316D40113169400E7
:105910009377F77F33E7A6009356C60001BFD28581
:10592000328D4DB7A68B2A8C3E8BB1440D4D99B567
:10593000014C9144014B054D35BD93E414000144E5
:105940000546ADB593E43400E6870D4685B5636240
:10595000741F638E8B1CE2867D1B014C1317840021
:105960001353070133D46B0213D68701598E931852
:10597000060193D8080113D7060113988700B3FBDB
:105980006B0233858802C20BB367770163F8A70007
:10599000B2971307F4FF63F6C7243A84898F33D78D
:1059A0006702C206C182B3F76702B38FE802C2077B
:1059B000DD8E63F8F601B2969307F7FF63FEC6200B
:1059C0003E874204598C93170401131E0801C183BA
:1059D000135E0E01935E0801135504013387FE0226
:1059E000B386F641338FC703B30FC50393570F0137
:1059F0007E97BA973305D50363F4F70141673A956B
:105A0000931F0F0113D70701139F070193DF0F01A6
:105A1000B307A7007E9F63E2F60E638EF60C330F8A
:105A2000EC41333CEC019D8E930FFB3FB3868641E6
:105A30007E876304D616B3D7660213550F01B3F6FB
:105A40006602B382F802C206C98E63FB5600B296A4
:105A50001385F7FF63E2C61A63F0561AF917B29678
:105A6000B386564033D56602420F135F0F01B3F67B
:105A70006602B388A802C206336FDF00637B1F0192
:105A8000329F9306F5FF636BCF1663791F17791565
:105A9000329FC207C98F93960701C18293D2070133
:105AA0003385DE02330F1F413383C203330EDE0220
:105AB0001A9593560E01AA96B38E5E0263F46600A1
:105AC0004165AA9E13D50601420E135E0E01C20661
