:020000040100F9
:10000000FD6293820240FD12E39F02FE374100022F
:1000100013010100B711000293818193B7250001FC
:100020009385C592372600011306A6D0B7060002B5
:100030009386861539A083A2050023A0560091055A
:100040009106E3EAC5FEB70500019385850B3706E7
:10005000000113060621B70600029386060039A0A8
:1000600083A2050023A0560091059106E3EAC5FE90
:10007000B70500029385855337160002130606A7BD
:1000800021A023A005009105E3EDC5FEB702000203
:100090009382020C73905230B7000001E780600B2E
:1000A000B7000001E780600BB7100001E780E0595E
:0800B00073005010F5BF8280BF
:1000B8000000000000000000000000000000000038
:1000C8000000000000000000000000000000000028
:1000D8000000000000000000000000000000000018
:1000E8000000000000000000000000000000000008
:1000F80000000000000000000000000000000000F8
:1001080000000000000000000000000000000000E7
:1001180000000000000000000000000000000000D7
:1001280000000000000000000000000000000000C7
:1001380000000000000000000000000000000000B7
:1001480000000000000000000000000000000000A7
:100158000000000000000000000000000000000097
:100168000000000000000000000000000000000087
:100178006F004000130141F806C00AC20EC412C63F
:1001880016C81ACA1ECC22CE26D02AD22ED432D6CF
:1001980036D83ADA3EDC42DEC6C0CAC2CEC4D2C6BF
:1001A800D6C8DACADECCE2CEE6D0EAD2EED4F2D6AF
:1001B800F6D8FADAFEDC971000FF9380C029829007
:1001C80082401241A2413242C2425243E243724447
:1001D80082541255A2553256C2565257E257725897
:1001E80086481649A649364AC64A564BE64B764CC7
:1001F800865C165DA65D365EC65E565FE65F1301D9
:08020800C1077300203001A0C2
:1002100005458280B71700019387477E37070500A1
:10022000938587017D4885481307074083C60700EB
:100230000145636CD80003C68700B396D8000DC68D
:100240001043558E10C314C70545B107E390B7FEA0
:10025000B70705000947D8CBF36704308567938754
:100260000780F3A7473082805043558E50C354C750
:10027000E1BF9387018203C70700631BA70003C781
:10028000C7003337E0003307E04033F5E7008280F2
:100290000145828011E5371500011305C57F828075
:1002A000014582809387018203C70708631CA7006A
:1002B00003C7A70513858702B337E000B307F040F3
:1002C0007D8D828001458280AA8719CD054763060E
:1002D000E500094701456398E700372500018E07CF
:1002E0001305C5803E9582808147C5BF411122C458
:1002F0002A841375F50F118126C206C6AE84E9372C
:100300000DC13D8805475C41331487006389E400D3
:10031000C0C30545B240224492444101828080C35B
:10032000CDBF0145C5BF814763E4C7000545828055
:10033000A30E0508B386F50083860600184114D77E
:10034000232605100347D50909EB0327C510050728
:100350002326E5100347D50975D78507F1B7157131
:10036000A2CDA6CBCAC986CF370905008944232E62
:1003700099001147232EE900232A99009307094089
:1003800084C798C70145393F2A8401456304041492
:10039000B71708009387074085465CD42314D41010
:1003A000232E990021462308C404138741C0130655
:1003B000101050C078C437060001396750C41307C5
:1003C0000710130606302322040404DC231AD40287
:1003D00058DC23009404230C04042324040010C8D4
:1003E000232A0400232C0400232E040023200402CB
:1003F0002322040218D498431CC02309D402232AC0
:10040000040423240404799B98C3096723A00700EC
:1004100013070760D8C3056798C703274902A16778
:100420000D8B791763F6E600B757E80193870780CD
:1004300037070500144318478506B3D7D7020507C9
:10044000B3D7E702396713070710B3D7E7023717A7
:10045000080013070740FD175CC75447BD4763F406
:10046000D7041C4393E787001CC31C4393E7470052
:100470001CC31C4393E717001CC35C4F9396A70053
:10048000E3DD06FEB717080093870740D84F9316A1
:100490009700E3DD06FE98431367070498C398436B
:1004A0001367070298C385441306800C8145230A0D
:1004B00094102800EF102004B74752549387571523
:1004C0003EC41946930700032C0022852306F10041
:1004D000993D268585470D47938617008947E39DFB
:1004E000E6FEFE406E44DE444E492D6182809387D5
:1004F000018203A74716631CE50003C7C7151385D0
:100500004714B337E000B307F0407D8D828001458A
:1005100082809386018283C606242A87938701827C
:100520006395A60083C6172495E283C64726014536
:10053000639DE60003C7572609CB05453305A04058
:1005400093870723137545023E9582800145FDB7C9
:10055000011122CC26CA4AC84EC652C456C206CE83
:1005600001448544371A0001F14A09498D49137540
:10057000F40F453701C9630494020547630224035D
:10058000230E95000504E31434FFF2406244D24484
:100590004249B249224A924A054505618280014793
:1005A0003307570393074A7EBA9703C7170569DBDA
:1005B000B047F44BA30D250110C5B04354C903C780
:1005C000A70510C103C627052309C50083D78705E2
:1005D000230DE500231CF50065B739714AD826DAEA
:1005E0004ED652D456D25AD05ECE62CC66CA06DE01
:1005F00022DC6AC86EC68144814913890182130CCA
:100600001010930B2010894C854A0D4A130B40069D
:1006100013F5F40F2310892523127927DD3D2A8D48
:1006200011CD005183472501050400D1638597074B
:10063000638A470363835707A30D05008504E39985
:1006400044FDF2506254D2544259225A925A025BEB
:10065000F24B624CD24C424DB24D33353001B2595F
:1006600021618280832D850048493374B403EF10E3
:1006700020016374AB00130540063305B503335501
:10068000650333248500134414008347BD01639838
:100690008700850965B70544CDBF0144FDB7834593
:1006A0008D016307540181CDFD15B335B00086057A
:1006B00003459D012539A30D8D0061FD41B7854599
:1006C000C5BF938701C1814694CB0147D8CB238016
:1006D000070423AE07000D47D8DF0545A380A70414
:1006E0008280138701829307872785461307873CFB
:1006F00003C6C706A386D7062384D70009EE814523
:10070000014623A80700ACCFF0CFACC7F0C7ACD3ED
:10071000F0D32386D70693870707E39BE7FC0545BD
:1007200082809387018203C7B73C631CA70003C77D
:10073000C73C1385873CB337E000B307F0407D8D9D
:100740008280014582804111054506C6D93F19C9FD
:1007500085477D57A301F500A302E50023030500AB
:100760002302F500B24005454101828005458280A3
:100770003747080093070740630EF508B75708008E
:1007800093870780630FF50A630AE50C05458280AD
:10079000339E0F013376EE0125C283CE250083A858
:1007A000070013131800339662001346F6FF13F484
:1007B0003E00B378160133146400B3E8880023A028
:1007C000170163837E0463840E048328070003CE2D
:1007D0004500B3781601331E6E00B3E8C80123202C
:1007E000170183A806003376160183C83500B39835
:1007F00068003366160190C2050833560F4149FA66
:1008000032440145410182802326C5017DBF232456
:10081000C50165BFB716050037170500B7170500F6
:10082000938646C1130707C19387C7C003DF05003E
:100830000148854F8D42914333560F410DEE0145DE
:100840008280B716050037170500B7170500938695
:1008500006C21307C7C1938787C1C9BFB716050072
:1008600037170500B7170500938686C0130747C0E2
:10087000938707C065BF339E0F013376EE0119E2FF
:1008800005085DBF411122C609BF5D71A2C4A6C2A1
:10089000CAC04EDE52DC56DA5ED66AD06ECE86C64E
:1008A0005AD862D466D2B70705000567D8CF371982
:1008B00000010967D8CF930B497E1167D8CF938B7E
:1008C0008B07014481441309497E054D154A894D22
:1008D000A94993974400CA9703ABC707935C4B00A1
:1008E00093FCFC006685CD3263080518137BFB0082
:1008F000B3176D012314F10083C7AB00A3060100F9
:100900001147F91793F7F70F6367FA00138781BF51
:10091000BA9703C7070003CC9B002305E100894772
:100920006306AC019307ECFF93B71700A305F10032
:1009300083C7BB0001476387B701F117B337F000E6
:100940001387170048412C002306E100153583A7C3
:100950000B006380AC056386BC0963950C10B71669
:100960000500938606C090420D4733176701134771
:10097000F7FF718F98C2984293F7F70FB39767010B
:10098000D98F9CC26304AC0981476316BC098547B3
:10099000BDA837170500130707C050478D46B3960B
:1009A000660193C6F6FFF18E54C7544793F7F70FCD
:1009B000B3976701D58F5CC789476306AC0193077E
:1009C000ECFF93B71700504B8D46B396660193C664
:1009D000F6FFF18E54CB544BB3976701D58F5CCBA8
:1009E00071A0B7160500938606C0904E0D473317C9
:1009F00067011347F7FF718F98CE984E93F7F70F63
:100A0000B3976701D98F9CCE6319AC03894763897B
:100A1000BC03639D0C04B7160500938606C0904680
:100A20000D47331767011347F7FF718F98C6984634
:100A3000B3976701D98F9CC615A88147E309BCF518
:100A4000B7160500938606C090520D47331767010D
:100A50001347F7FF718F98D29852B3976701D98FD8
:100A60009CD229A0E304ACFBE303BCF383C5CB0019
:100A700003C54B00A5381DE901458504C10BE39A68
:100A800034E5591413341400B640418D264496447D
:100A90000649F259625AD25A425BB25B225C925CBE
:100AA000025DF24D1375F50F616182800504F1B7A7
:100AB000011106CE22CC2147A30501002306010027
:100AC000A3060100B707050037550800D8C7B305CE
:100AD000E1008D470544130505802314F10023052B
:100AE00081007931375508009307C0032C001305A6
:100AF0000580A30581002314F1009D39F240624472
:100B000005618280411106C622C45D37B707050022
:100B10002147D8C70145EFF0EFF7014405C1014572
:100B2000EFF02FF519C937040700B947A302F50202
:100B300000D100C9B53FC1475CCC05440545EFF085
:100B40006FF53335A0002A94B2403335800022443B
:100B50004101828003280500AA880325C801136586
:100B60000502232EA8002324C8002326080033E60C
:100B7000B6002322C80013960501635D060299C2E0
:100B80000545ADCB014701A83386E70003460600C3
:100B90000507230AC800E349D7FE83A60800E167DA
:100BA0009387076AD84E1377070221E3FD17FDFBF1
:100BB0000D45828099C2054515CF814701A803459F
:100BC00046013306F70085072300A60003A60800A8
:100BD000E3C7D7FED9B7B707070083C7470113F5A7
:100BE00085001D8D3335A000828093971501E3C4E5
:100BF00007FE01458280411106C625361DC5034505
:100C00006500EFF00FE72A880145630D0800814772
:100C1000014781460146B7852006130508011D3F9F
:100C200013351500B240410182800145E5BF4111F5
:100C300022C426C206C62E84B284E53421C50345EB
:100C40006500EFF00FE32A880145630808027D1470
:100C5000938741BF1374F40F3E9403450400854607
:100C6000B70520006205B695C98D814726870146E4
:100C700013050801C53513351500B24022449244CE
:100C8000410182800145D5BF011122CC616426CA91
:100C900006CEAA841304146A7000854526852306AF
:100CA00001007137854701C58347C100858B7D14DD
:100CB00019C4FDF3F2406244D244056182800145CB
:100CC000D5BF4111054522C406C626C2EFF03F82BA
:100CD0002A84014525CC138501C1930785045CC096
:100CE0009307850785445CC4370703A593078513DD
:100CF0001306000C1CC026979307851610C41CC849
:100D000004D0231C040C2304040E50C818CC230E5A
:100D1000040023240406232E0406232004082302AF
:100D200094082317C408231A040823180408231955
:100D30000408230B040881453E85EF00C07B232C6B
:100D4000A40823069408232E04022685B2402244D8
:100D5000924441018280011126CA06CE22CCAE8483
:100D6000EFF0EFF835C18357850D0347B5012A84AD
:100D700048452304E1002315F1003D47F1571D4686
:100D80002C00A304E1002307F10023169100EF00DB
:100D9000501448442686938581E31D05EF007013A7
:100DA0000347A4018D476311F7020145EFF08FCF90
:100DB00001CD4C446244F24013868400D244420682
:100DC000418205616FF02FD6F2406244D244056142
:100DD00082805D71CAC056DA5AD85ED66AD086C69D
:100DE000A2C4A6C24EDE52DC62D466D26ECE814B65
:100DF000814A214D0549094B5E85EFF04FEFAA8CE2
:100E000071C5130C0020914D154A83D74C09638698
:100E1000073E83D70C0903A78C093E978307070079
:100E20002300070003D64C0915C203D70C0983D64B
:100E3000EC087D16050742074183B336D700B30699
:100E4000D040758F2398EC08239ACC0803A74C0E4A
:100E500083C64C0893F7F70F23A0EC0E1387F6FF19
:100E60001377F70F6368ED38371600010A0713068A
:100E7000067C32971843028703C7BC016316F71438
:100E800083A6CC07014781EE03A70C002300F700DF
:100E9000A5472382FC08854723AEFC0605477D1C39
:100EA000E3150CF683A74C0E03A60C0EA9669386D9
:100EB00006C43386C74063F7C60005472382EC08A3
:100EC00023AE0C06850723A2FC0EBA9A93871B005B
:100ED000854BE39367F3B640264496440649F2599E
:100EE000625A425BB25B225C925C025DF24D33352A
:100EF0005001D25A6161828003A7CC07631C272F5F
:100F000003A70C00A300F7009983858B23AAFC0696
:100F100023AE6C078D472382FC0849B783A6CC0714
:100F20000D47639B660183A60C002381F60023AE68
:100F3000EC062382EC089DB7639EE62A03A70C000B
:100F4000A301F70083A70C0023910C0803C7270017
:100F50002381EC0883C73700A381FC08914723AEA7
:100F6000FC0655BF03A7CC07631BB70103A70C0002
:100F70002302F70023AE4C072382BC0905B7631B8D
:100F8000472703A70C00A302F700994723AEFC06EE
:100F900083A70C0003C747002380EC0883C75700D2
:100FA000A380FC0883D70C0889C7130780026365F8
:100FB000F70023824C09DDB583A7CC06850723A65D
:100FC000FC0685472382FC0823AE0C06C1BD03A79F
:100FD0000C002303F7009D472382FC0883A7CC075E
:100FE000850723AEFC0683D70C08E39907EA238222
:100FF000AC096DB503D70C0803A6CC071D07E37237
:10100000E6FC03A70C0032972300F70003D70C0877
:1010100083A7CC0719076389E70063E8E7008547E2
:101020002382FC08814721A0A1462382DC08850792
:1010300023AEFC0683C74C081D47E386E7FAB9BD1B
:1010400003D70C0883A6CC071D074207418363130F
:10105000D71A83A60C0036972300F70003D40C0898
:1010600083A50C0003A54C001306740042064182C0
:1010700023A4FC0623AE0C060506A12D83A7CC03F2
:1010800021044204850723AEFC0283A70C0383A43A
:101090004C0041808548A29723821C0923AE0C0690
:1010A00023840C0E23A8FC0203C7640093060009E6
:1010B000630FD7129306C00FE315D7F003C7540090
:1010C00083C644002207558FE30D07EE83C68400D4
:1010D00003C7740083C9A400A206D98E03C7940075
:1010E00083C70C0203C4C4004207558FE2093EC205
:1010F000B3E7E90003C7B400220483C6D4003EC4AA
:10110000598C83C7E400138701C1130787223A85EE
:1011100013060020814536C63EC0F12E2146938538
:101120007400452BB2460947938901C16389E604DF
:101130008D47638BF6088548E39516E99307F01F02
:10114000E3E187E805C80245EFF0AFDD05C50345DB
:101150006500EFF00F9219CD931524012246C98145
:10116000B7088003814713870923A286B3E51501D9
:101170004105CD3293058400C205C18199A01307B2
:101180000010636F87020245EFF0AFD915C9034520
:101190006500EFF00F8EAA8905C50245A93C0DC177
:1011A00093152401224637858002C981C98D938712
:1011B000F4000147A28613850901693A0245E93422
:1011C000A1451245493EF5BB024535340245EFF0D5
:1011D0004FD57DD503456500EFF0AF8975D18147C7
:1011E000014781460146B78520604105F9B7238054
:1011F0001C05C1BB23822C09C1BB014765B1B707E0
:101200000500D84FDD669D06558FD8CFD84B0545D4
:101210001367B708D8CBD84713671700D8C7D84784
:1012200013672700D8C7D84713674700D8C7D847E0
:1012300013678700D8C7D84713670702D8C7D847AE
:101240003D9BD8C7D8471377F7FBD8C7D847137744
:10125000F7F7D8C70D4798D7370706005C4BF99BBF
:101260005CCB82807971054506D622D426D24AD03D
:101270004ECEEFF0CFA7AA8701456388071003A7DA
:10128000470E83A7070E1D8FB7771800938707A017
:1012900063FCE70EEFF00F80AA846307050E01459B
:1012A000EFE03FFD6302050EEFF09F8085455000A3
:1012B0002E8523020100A53A300089450545834962
:1012C000410023040100A53261C183478100054527
:1012D00093E727002304F10013F4F70F293A2A8932
:1012E0000545EFF00FC459CD03456500EFE07FF8E9
:1012F00051C98946B78520017C0001470146B69552
:101300004105A306810023063101EFF0BF842A8442
:1013100005459D3A35C92DE803C414008444EFF017
:101320002FF9B7070700D84F13670701D8CF84CB31
:1013300098433DC0B7061000558F98C3B707070004
:10134000370793EB98CF0945EFF0AF9C2A8401CD86
:101350008345850103459501EFE05FF9894723093E
:10136000F400A30DF400F377443093070008F3B7BB
:101370004730856793870780F3B74730B70700800A
:10138000828719A0E31A09F80545B25022549254F5
:101390000259F24945618280B706F0FFFD16758F4C
:1013A00069BF83A781C041110145850706C623A4F3
:1013B000F1C0EFE03FEF6301051237070500831727
:1013C00085101307074018538546B397F6007D8FA5
:1013D0006394E7101C41D84F1377070279CBD053A1
:1013E0009377F60F2300F50C93070508B8476206BC
:1013F00061863697B8C7230CD50AF85B3697F8DBB9
:10140000938701828346850503C70716639CE6041C
:1014100003C7C71521CB03A7871783D6871D0507E9
:1014200023ACE71603D7271D63FEE60283D6671DAC
:1014300003A7C71D36972300C70083D5871D83D612
:10144000271D63F1D50203D7671D8505239CB71CB3
:10145000050742074183B336D700B306D040758FE6
:10146000239BE71C0357C50D8357650D637FF70664
:101470000357A50D8327050EBA972380C70083560F
:10148000C50D0357650D63F1E6028357A50D85066B
:10149000231ED50C8507C207C18333B7E700330786
:1014A000E040F98F231DF50C1C41D84F136707024C
:1014B000D8CFD84F1377070405C313070508145373
:1014C000850614D38546A30ED508345F850634DF20
:1014D000D84F13670704D8CFB240B70705009387EA
:1014E00007407D5798CF41018280832745108507AB
:1014F0002322F51055BF3D432A876373C3029377B8
:10150000F700BDEFADE5937606FF3D8ABA960CC3B2
:101510004CC30CC74CC74107E36BD7FE11E2828076
:10152000B306C3408A069702000096966780A6001D
:101530002307B700A306B7002306B700A305B7002B
:101540002305B700A304B7002304B700A303B70023
:101550002303B700A302B7002302B700A301B7001B
:101560002301B700A300B7002300B700828093F5E2
:10157000F50F93968500D58D93960501D58D61B7AE
:10158000939627009702000096968682E78086FA57
:101590009680C1171D8F3E96E374C3F8A5B7B717A1
:1015A000000179719387477E22D426D206D64AD08D
:1015B0004ECE52CC56CA5AC85EC662C466C2938426
:1015C0008711138487149C4091048297E31D94FE35
:1015D000138B0182EFF0EF8E854C130C8B3C9387BD
:1015E00001C183C71704138401C1F5DB23009405EF
:1015F0001C540328C4029386170033B7F60014D492
:10160000B3090701232634031050545018485C488E
:1016100063E6F6006397D7006375E6005C4C8507C8
:101620005CCC1C48032844019386170033B7F600AE
:1016300014C8B30A0701232A540118485C48105003
:101640005450118F18D8145CBA8763E3E6001C5C11
:101650001CDC5C5863F3E700585858D818485C48BD
:1016600093048B2783C7D40699C3BC548297938471
:101670000407E3199CFE18485C4818D05CD085B775
:1016800013577501370680009307F6FF1377F70F9E
:101690009305E007B3F6A7009357F501014563D31F
:1016A000E50091C382809307E0097D55E3CCE7FE16
:1016B00093055009B3E7C60063D7E5001307A7F603
:1016C0003395E700828013056009198D33D5A70093
:1016D0008280B3C7A5008D8BB308C500B1E78D47E5
:1016E00063F4C704937735002A87DDE713F6C8FF54
:1016F000B306E6409307000263C4D704AE86BA87F8
:101700006371C70203A806009107910623AE07FF85
:10171000E3EAC7FE7D16198E719A91051107B295FD
:1017200032976366170182802A87E37E15FF83C79D
:10173000050005078505A30FF7FEE39AE8FE828002
:10174000945183A3050083A2450083AF850003AFB6
:10175000C50083AE050103AE450103A3850103A8BF
:10176000C50113074702232ED7FE232E77FCB306AD
:10177000E640232057FE2322F7FF2324E7FF2326FA
:10178000D7FF2328C7FF232A67FE232C07FF938553
:101790004502E3C7D7FA9DB783C6050005079377CF
:1017A0003700A30FD7FE8505B1D383C60500050713
:1017B00093773700A30FD7FE8505F9FF05BF00001B
:1017C000780E0001F41100011C0F0001640F0001EC
:1017D000CE0F0001F4110001F40F000140100001D0
:1017E000F80E0001010000000000000000000000F1
:1017F00002000000000000000100000000010000E5
:101800000000000000000090010000000100000046
:10181000004008000101000000440800010200002F
:10182000004808000000000000000000A00F0000B9
:101830000000000001010300000048420103000015
:101840000100000000000000409C000000000000BB
:1018500002010100000048420113000000000000E6
:10186000030000010003060000000000000000006B
:10187000130000010003060000000000010000004A
:10188000060000010003020001000000010000004A
:101890000500000700020200010000000100000036
:1018A0002000000100030208000000000100000009
:1018B00021000001000302080000000001000000F8
:1018C00022000004000202080000000001000000E5
:1018D00023000004000202080000000001000000D4
:1018E00024000004000202080000000001000000C3
:1018F000250000040002020800000000140200019C
:10190000FE1100018A0800015E030001040B0001C2
:10191000C20C000150050001C2060001E2060001F0
:0C19200046070001100200016C070001E6
:10192C0000000000000000000000000001000000AA
:10193C00000000000000000000000000000000009B
:10194C00000000000000000000000000000000008B
:10195C00000000000000000000000000000000007B
:10196C00000000000000000000000000000000006B
:10197C00000000000000000000000100000000005A
:10198C00000000000000000000000000000000004B
:10199C00000000000000000000000000000000003B
:1019AC000000000000000000010000010000000029
:1019BC0000000000700900020000000000000000A0
:1019CC00000000000000000000000000000000000B
:1019DC0000000000000000000000000000000000FB
:1019EC0000000000000000000000000000000000EB
:1019FC0000000000000000000000000000000000DB
:101A0C0000000000000000000000000000000000CA
:101A1C0000000000000000000000000000000000BA
:101A2C0000000000000000000000000000000000AA
:101A3C00000000000000000000000000000000009A
:101A4C00000000000000000000000000000000008A
:101A5C00000000000000000000000000000000007A
:101A6C00000000000000000000000000000000006A
:101A7C000000000000000000000000000100000059
:101A8C000000000001000000000000000000000049
:101A9C00000000000000000000000000000000003A
:101AAC00000000000000000000000000000000002A
:101ABC00000000000000000000000000000000001A
:101ACC00000000000000000000000000000000000A
:101ADC0000000000000000000000000000000000FA
:101AEC0000000000000000000000000000000000EA
:101AFC0000000000000000000000000000000000DA
:101B0C0000000000000000000000000000000000C9
:101B1C0000000000000000000000000000000000B9
:101B2C0000000000000000000000000000000000A9
:101B3C000000000000000000000000000000000099
:101B4C000000000000000000000000000000000089
:101B5C000000000000000000000000000000000079
:101B6C000101000000000000000000000000000067
:101B7C000000000000000000000000000000000059
:101B8C000000000002010000000000000000000046
:101B9C000000000000000000983A00000000000067
:101BAC000000000000000000000000000000000029
:101BBC000000000000000000000000000000000019
:101BCC000000000000000000000000000000000009
:101BDC0000000000000000000000000000000000F9
:101BEC0000000000000000000000000000000000E9
:101BFC0000000000000000000000000000000000D9
:101C0C00D20D00010000000080969800000000003A
:101C1C0000000000000000000000000000000000B8
:101C2C0000000000000000000000000000000000A8
:101C3C000000000000000000000000000000000098
:101C4C000000000000000000000000000000000088
:101C5C000000000000000000000000000000000078
:101C6C000000000000000000000000000000000068
:101C7C006412000100000000A086010000000000BA
:101C8C000000000000000000000000000000000048
:101C9C000000000000000000000000000000000038
:101CAC000000000000000000000000000000000028
:101CBC000000000000000000000000000000000018
:101CCC000000000000000000000000000000000008
:101CDC0000000000000000000000000000000000F8
:101CEC00DA05000100000000000000010100000006
:041CFC0000000000E4
:0A1D0000053515000102040400037C
:0400000501000000F6
:00000001FF
