:020000040800F2
:1000000000C001205149030889D6000853D70008D1
:1000100055D7000857D7000859D70008000000003E
:100020000000000000000000000000005BD7000896
:1000300063D70008000000005FD7000871D70008F0
:10004000EFD600084FD7000843D7000847D700086D
:1000500037D70008F3D60008D3D70008D7D7000851
:10006000DBD70008DFD70008E3D700083FD7000838
:10007000FBD60008FFD6000803D7000807D7000802
:100080000BD700080FD70008F7D600088BD600085A
:1000900097D60008A3D60008AFD60008E7D7000817
:1000A00043D80008FFD7000803D8000807D8000885
:1000B0000BD8000817D800081BD800084BD8000838
:1000C00047D8000853D800084FD8000865D7000863
:1000D00069D7000883D70008A5D70008C7D700084C
:1000E000EBD70008A14903084BD7000837D8000810
:1000F00033D800083FD800083BD8000813D70008C1
:10010000EBD600087FD700081FD800086DD700087D
:10011000A1490308CBD700082BD800082FD8000826
:1001200017D700081BD700081FD7000823D70008DF
:1001300027D70008A1490308A1490308BBD6000836
:10014000C7D60008DFD60008D3D60008EFD70008CE
:100150002BD700082FD7000833D70008CFD70008C7
:1001600057D800085BD80008F3D70008F7D7000875
:10017000A1490308FBD70008A149030800000000BB
:080180005FD800083BD700081E
:1001C00010B5054C237833B9044B13B10448AFF391
:1001D00000800123237010BDE823002000000000F0
:1001E00084E9030808B5034B1BB103490348AFF387
:1001F000008008BD00000000EC23002084E9030813
:1002000081F0004102E000BF83F0004330B54FEAC7
:1002100041044FEA430594EA050F08BF90EA020F34
:100220001FBF54EA000C55EA020C7FEA645C7FEAC7
:10023000655C00F0E2804FEA5454D4EB5555B8BFEA
:100240006D420CDD2C4480EA020281EA030382EA5B
:10025000000083EA010180EA020281EA0303362DED
:1002600088BF30BD11F0004F4FEA01314FF4801CC0
:100270004CEA113102D0404261EB410113F0004FD2
:100280004FEA03334CEA133302D0524263EB430389
:1002900094EA050F00F0A780A4F10104D5F1200E27
:1002A0000DDB02FA0EFC22FA05F2801841F1000182
:1002B00003FA0EF2801843FA05F359410EE0A5F156
:1002C00020050EF1200E012A03FA0EFC28BF4CF087
:1002D000020C43FA05F3C01851EBE37101F000453D
:1002E00007D54FF0000EDCF1000C7EEB00006EEB4A
:1002F0000101B1F5801F1BD3B1F5001F0CD34908D4
:100300005FEA30004FEA3C0C04F101044FEA44522A
:1003100012F5800F80F09A80BCF1004F08BF5FEAB1
:10032000500C50F1000041EB045141EA050130BD91
:100330005FEA4C0C404141EB0101013C28BFB1F5A3
:10034000801FE9D291F0000F04BF01460020B1FAEE
:1003500081F308BF2033A3F10B03B3F120020CDAC1
:100360000C3208DD02F1140CC2F10C0201FA0CF09F
:1003700021FA02F10CE002F11402D8BFC2F1200C04
:1003800001FA02F120FA0CFCDCBF41EA0C019040BA
:10039000E41AA2BF01EB0451294330BD6FEA040403
:1003A0001F3C1CDA0C340EDC04F11404C4F12002EE
:1003B00020FA04F001FA02F340EA030021FA04F300
:1003C00045EA030130BDC4F10C04C4F1200220FA57
:1003D00002F001FA04F340EA0300294630BD21FA95
:1003E00004F0294630BD94F0000F83F4801306BF5B
:1003F00081F480110134013D4EE77FEA645C18BF4F
:100400007FEA655C29D094EA050F08BF90EA020FE5
:1004100005D054EA000C04BF1946104630BD91EADD
:10042000030F1EBF0021002030BD5FEA545C05D1E0
:100430004000494128BF41F0004130BD14F580041F
:100440003CBF01F5801130BD01F0004545F0FE4193
:1004500041F470014FF0000030BD7FEA645C1ABFC8
:10046000194610467FEA655C1CBF0B46024650EAFF
:10047000013406BF52EA033591EA030F41F400212B
:1004800030BD00BF90F0000F04BF0021704730B5B1
:100490004FF4806404F132044FF000054FF0000186
:1004A00050E700BF90F0000F04BF0021704730B547
:1004B0004FF4806404F1320410F0004548BF40421C
:1004C0004FF000013EE700BF42004FEAE2014FEA71
:1004D00031014FEA02701FBF12F07F4393F07F4F4C
:1004E00081F06051704732F07F4208BF704793F04F
:1004F0007F4F04BF41F40021704730B54FF4607462
:1005000001F0004521F000411CE700BF50EA010264
:1005100008BF704730B54FF000050AE050EA01020D
:1005200008BF704730B511F0004502D5404261EB7D
:1005300041014FF4806404F132045FEA915C3FF4BE
:10054000D8AE4FF003025FEADC0C18BF03325FEA5B
:10055000DC0C18BF033202EBDC02C2F1200300FA0C
:1005600003FC20FA02F001FA03FE40EA0E0021FA31
:1005700002F11444BDE600BF70B54FF0FF0C4CF41F
:10058000E06C1CEA11541DBF1CEA135594EA0C0FD1
:1005900095EA0C0F00F0DEF82C4481EA030621EA0C
:1005A0004C5123EA4C5350EA013518BF52EA033547
:1005B00041F4801143F4801338D0A0FB02CE4FF0F9
:1005C0000005E1FB02E506F00042E0FB03E54FF029
:1005D0000006E1FB03569CF0000F18BF4EF0010E21
:1005E000A4F1FF04B6F5007F64F5407404D25FEA1D
:1005F0004E0E6D4146EB060642EAC62141EA5551D0
:100600004FEAC52040EA5E504FEACE2EB4F1FD0C11
:1006100088BFBCF5E06F1ED8BEF1004F08BF5FEA8F
:10062000500E50F1000041EB045170BD06F0004641
:1006300046EA010140EA020081EA0301B4EB5C04EE
:10064000C2BFD4EB0C0541EA045170BD41F48011E6
:100650004FF0000E013C00F3AB8014F1360FDEBF0B
:10066000002001F0004170BDC4F10004203C35DAE7
:100670000C341BDC04F11404C4F1200500FA05F36A
:1006800020FA04F001FA05F240EA020001F000420B
:1006900021F0004110EBD37021FA04F642EB060181
:1006A0005EEA430E08BF20EAD37070BDC4F10C04AB
:1006B000C4F1200500FA04F320FA05F001FA04F26F
:1006C00040EA020001F0004110EBD37041F100015B
:1006D0005EEA430E08BF20EAD37070BDC4F1200566
:1006E00000FA05F24EEA020E20FA04F301FA05F2CE
:1006F00043EA020321FA04F001F0004121FA04F276
:1007000020EA020000EBD3705EEA430E08BF20EA45
:10071000D37070BD94F0000F0FD101F0004640007F
:1007200041EB010111F4801F08BF013CF7D041EA01
:10073000060195F0000F18BF704703F00046520005
:1007400043EB030313F4801F08BF013DF7D043EAD6
:100750000603704794EA0C0F0CEA135518BF95EA8C
:100760000C0F0CD050EA410618BF52EA4306D1D113
:1007700081EA030101F000414FF0000070BD50EA32
:10078000410606BF1046194652EA430619D094EABC
:100790000C0F02D150EA013613D195EA0C0F05D1A6
:1007A00052EA03361CBF104619460AD181EA0301FA
:1007B00001F0004141F0FE4141F470014FF00000B2
:1007C00070BD41F0FE4141F4780170BD70B54FF04D
:1007D000FF0C4CF4E06C1CEA11541DBF1CEA1355CD
:1007E00094EA0C0F95EA0C0F00F0A7F8A4EB0504AF
:1007F00081EA030E52EA03354FEA013100F08880A6
:100800004FEA03334FF0805545EA131343EA12636E
:100810004FEA022245EA111545EA10654FEA002623
:100820000EF000419D4208BF964244F1FD0404F5DC
:10083000407402D25B084FEA3202B61A65EB030538
:100840005B084FEA32024FF480104FF4002CB6EBF5
:10085000020E75EB030E22BFB61A754640EA0C0075
:100860005B084FEA3202B6EB020E75EB030E22BFB5
:10087000B61A754640EA5C005B084FEA3202B6EBF6
:10088000020E75EB030E22BFB61A754640EA9C00B5
:100890005B084FEA3202B6EB020E75EB030E22BF85
:1008A000B61A754640EADC0055EA060E18D04FEA43
:1008B000051545EA16754FEA06164FEAC30343EAE3
:1008C00052734FEAC2025FEA1C1CC0D111F4801FB0
:1008D0000BD141EA00014FF000004FF0004CB6E7A9
:1008E00011F4801F04BF01430020B4F1FD0C88BF48
:1008F000BCF5E06F3FF6AFAEB5EB030C04BFB6EB53
:10090000020C5FEA500C50F1000041EB045170BD45
:100910000EF0004E4EEA113114EB5C04C2BFD4EB72
:100920000C0541EA045170BD41F480114FF0000EF6
:10093000013C90E645EA060E8DE60CEA135594EA72
:100940000C0F08BF95EA0C0F3FF43BAF94EA0C0F75
:100950000AD150EA01347FF434AF95EA0C0F7FF4EA
:1009600025AF104619462CE795EA0C0F06D152EA3E
:1009700003353FF4FDAE1046194622E750EA410622
:1009800018BF52EA43067FF4C5AE50EA41047FF433
:100990000DAF52EA43057FF4EBAE12E74FF0FF3C98
:1009A00006E000BF4FF0010C02E000BF4FF0010C69
:1009B0004DF804CD4FEA410C7FEA6C5C4FEA430CE2
:1009C00018BF7FEA6C5C1BD001B050EA410C0CBF31
:1009D00052EA430C91EA030F02BF90EA020F002093
:1009E000704710F1000F91EA030F58BF994208BFFA
:1009F00090422CBFD8176FEAE37040F001007047B7
:100A00004FEA410C7FEA6C5C02D150EA013C07D10D
:100A10004FEA430C7FEA6C5CD6D152EA033CD3D058
:100A20005DF8040B704700BF8446104662468C4652
:100A30001946634600E000BF01B5FFF7B7FF002885
:100A400048BF10F1000F01BD4DF808EDFFF7F4FFAE
:100A50000CBF012000205DF808FB00BF4DF808ED39
:100A6000FFF7EAFF34BF012000205DF808FB00BF5C
:100A70004DF808EDFFF7E0FF94BF012000205DF87E
:100A800008FB00BF4DF808EDFFF7CEFF94BF012033
:100A900000205DF808FB00BF4DF808EDFFF7C4FF2C
:100AA00034BF012000205DF808FB00BF4FEA410C75
:100AB0007FEA6C5C02D150EA013C0AD14FEA430C58
:100AC0007FEA6C5C02D152EA033C02D14FF0000095
:100AD00070474FF0010070474FEA410212F50012D3
:100AE00015D211D56FF47873B3EB625212D94FEA75
:100AF000C12343F0004343EA505311F0004F23FA5F
:100B000002F018BF404270474FF00000704750EAB3
:100B1000013005D111F0004008BF6FF00040704770
:100B20004FF00000704700BF4A0011D212F50012CA
:100B300011D20DD56FF47873B3EB62520ED44FEA35
:100B4000C12343F0004343EA505323FA02F07047B5
:100B50004FF00000704750EA013002D14FF0FF30F3
:100B600070474FF0000070474FEA4102B2F1E04396
:100B700024BFB3F5001CDCF1FE5C0DD901F0004C84
:100B80004FEAC0024CEA5070B2F1004F40EB8300D4
:100B900008BF20F00100704711F0804F21D113F100
:100BA0003872BCBF01F00040704741F480114FEA39
:100BB0005252C2F11802C2F1200C10FA0CF320FAC2
:100BC00002F018BF40F001004FEAC1234FEAD323DF
:100BD00003FA0CFC40EA0C0023FA02F34FEA430349
:100BE000CCE77FEA625307D150EA01331EBF4FF0D2
:100BF000FE4040F44000704701F0004040F0FE40ED
:100C000040F40000704700BF80F0004002E000BFE9
:100C100081F0004142001FBF5FEA410392EA030FE7
:100C20007FEA226C7FEA236C6AD04FEA1262D2EB31
:100C30001363C1BFD218414048404140B8BF5B4236
:100C4000192B88BF704710F0004F40F4000020F0CF
:100C50007F4018BF404211F0004F41F4000121F0E5
:100C60007F4118BF494292EA030F3FD0A2F101022F
:100C700041FA03FC10EB0C00C3F1200301FA03F16D
:100C800000F0004302D5494260EB4000B0F5000F90
:100C900013D3B0F1807F06D340084FEA310102F14F
:100CA0000102FE2A51D2B1F1004F40EBC25008BF01
:100CB00020F0010040EA03007047490040EB0000CB
:100CC000013A28BFB0F5000FEDD2B0FA80FCACF1CC
:100CD000080CB2EB0C0200FA0CF0AABF00EBC250F9
:100CE00052421843BCBFD0401843704792F0000FE7
:100CF00081F4000106BF80F400000132013BB5E73A
:100D00004FEA41037FEA226C18BF7FEA236C21D0AF
:100D100092EA030F04D092F0000F08BF0846704714
:100D200090EA010F1CBF0020704712F07F4F04D1E2
:100D3000400028BF40F00040704712F100723CBFF5
:100D400000F50000704700F0004343F0FE4040F41F
:100D5000000070477FEA226216BF08467FEA2363DD
:100D60000146420206BF5FEA412390EA010F40F4C8
:100D7000800070474FF0000304E000BF10F0004314
:100D800048BF40425FEA000C08BF704743F09643FB
:100D900001464FF000001CE050EA010208BF704716
:100DA0004FF000030AE000BF50EA010208BF70479D
:100DB00011F0004302D5404261EB41015FEA010CB2
:100DC00002BF84460146002043F0B64308BFA3F1AA
:100DD0008053A3F50003BCFA8CF2083AA3EBC2538C
:100DE00010DB01FA02FC634400FA02FCC2F12002AB
:100DF000BCF1004F20FA02F243EB020008BF20F0E2
:100E00000100704702F1200201FA02FCC2F1200247
:100E100050EA4C0021FA02F243EB020008BF20EA3C
:100E2000DC70704753B94AB9002908BF00281CBFBD
:100E30004FF0FF314FF0FF3000F0B2B9ADF1080CC8
:100E40006DE904CE00F044F8DDF804E0DDE90223AA
:100E500004B07047D0B5FFF737FB0C4B00220646B5
:100E60000F46FFF789FBFFF75FFE0446FFF70AFB1B
:100E7000074B0022FFF780FB02460B4630463946FF
:100E8000FFF7C2F9FFF750FE2146D0BD0000F03D4C
:100E90000000F041D0B50C4B002206460F46FFF78C
:100EA0006BFBFFF741FE0446FFF7ECFA074B00220D
:100EB000FFF762FB02460B4630463946FFF7A4F9BE
:100EC000FFF732FE2146D0BD0000F03D0000F041AA
:100ED0002DE9F047089D04468E46002B4DD18A42ED
:100EE000944669D9B2FA82F252B101FA02F3C2F120
:100EF000200120FA01F10CFA02FC41EA030E9440B1
:100F00004FEA1C48210CBEFBF8F61FFA8CF708FBD1
:100F100016E341EA034306FB07F199420AD91CEBA9
:100F2000030306F1FF3080F01F81994240F21C81DB
:100F3000023E63445B1AA4B2B3FBF8F008FB103323
:100F400044EA034400FB07F7A7420AD91CEB040458
:100F500000F1FF3380F00A81A74240F20781644428
:100F6000023840EA0640E41B00261DB1D4400023AD
:100F7000C5E900433146BDE8F0878B4209D9002D11
:100F800000F0EF800026C5E9000130463146BDE89B
:100F9000F087B3FA83F6002E4AD18B4202D3824205
:100FA00000F2F980841A61EB030301209E46002DB4
:100FB000E0D0C5E9004EDDE702B9FFDEB2FA82F209
:100FC000002A40F09280A1EB0C014FEA1C471FFA67
:100FD0008CFE0126200CB1FBF7F307FB131140EA4E
:100FE00001410EFB03F0884208D91CEB010103F11B
:100FF000FF3802D2884200F2CB804346091AA4B2DD
:10100000B1FBF7F007FB101144EA01440EFB00FEB0
:10101000A64508D91CEB040400F1FF3102D2A64515
:1010200000F2BB800846A4EB0E0440EA03409CE7B4
:10103000C6F12007B34022FA07FC4CEA030C20FA61
:1010400007F401FA06F31C43F9404FEA1C4900FA81
:1010500006F3B1FBF9F8200C1FFA8CFE09FB1811FE
:1010600040EA014108FB0EF0884202FA06F20BD971
:101070001CEB010108F1FF3A80F08880884240F2C1
:101080008580A8F102086144091AA4B2B1FBF9F005
:1010900009FB101144EA014100FB0EFE8E4508D900
:1010A0001CEB010100F1FF346CD28E456AD9023885
:1010B000614440EA0840A0FB0294A1EB0E01A1426A
:1010C000C846A64656D353D05DB1B3EB080261EBD8
:1010D0000E0101FA07F722FA06F3F1401F43C5E9B2
:1010E000007100263146BDE8F087C2F12003D840E8
:1010F0000CFA02FC21FA03F3914001434FEA1C472A
:101100001FFA8CFEB3FBF7F007FB10360B0C43EA1B
:10111000064300FB0EF69E4204FA02F408D91CEBCB
:10112000030300F1FF382FD29E422DD902386344C9
:101130009B1B89B2B3FBF7F607FB163341EA034169
:1011400006FB0EF38B4208D91CEB010106F1FF38B8
:1011500016D28B4214D9023E6144C91A46EA0046AF
:1011600038E72E46284605E70646E3E61846F8E641
:101170004B45A9D2B9EB020864EB0C0E0138A3E78A
:101180004646EAE7204694E74046D1E7D0467BE76B
:10119000023B614432E7304609E76444023842E7E3
:1011A000704700BF844641EA000313F003036DD18A
:1011B000403A41D351F8043B40F8043B51F8043B1A
:1011C00040F8043B51F8043B40F8043B51F8043B21
:1011D00040F8043B51F8043B40F8043B51F8043B11
:1011E00040F8043B51F8043B40F8043B51F8043B01
:1011F00040F8043B51F8043B40F8043B51F8043BF1
:1012000040F8043B51F8043B40F8043B51F8043BE0
:1012100040F8043B51F8043B40F8043B51F8043BD0
:1012200040F8043B51F8043B40F8043B51F8043BC0
:1012300040F8043B403ABDD2303211D351F8043B60
:1012400040F8043B51F8043B40F8043B51F8043BA0
:1012500040F8043B51F8043B40F8043B103AEDD20F
:101260000C3205D351F8043B40F8043B043AF9D260
:10127000043208D0D2071CBF11F8013B00F8013B33
:1012800001D30B8803806046704700BF082A13D340
:101290008B078DD010F003038AD0C3F10403D21A58
:1012A000DB071CBF11F8013B00F8013B80D331F88C
:1012B000023B20F8023B7BE7043AD9D3013A11F80C
:1012C000013B00F8013BF9D20B7803704B78437077
:1012D0008B788370604670470000000000000000BB
:1012E000A2EB0300704700BF02780B78012A28BFE9
:1012F0009A42F5D16DE9044540EA0104CDE902675F
:101300006FF0000C4FEA447212B380EA010414F04B
:10131000070F6AD100F0070420F0070004F003056E
:1013200021F007014FEAC505F0E8042314F0040F8B
:10133000F1E804670CFA05F462EA040266EA0406BE
:101340000AD063EA0403624667EA0407664603E0DC
:10135000F0E80423F1E8046782FA4CF582EA060417
:10136000A4FA8CF46CBB83FA4CF583EA0705A5FA62
:101370008CF595B950E9022351E9026782FA4CF5E0
:1013800082EA0604A4FA8CF483FA4CF583EA070592
:10139000A5FA8CF52543DBD09CB92DBAB5FA85F4B6
:1013A00024F0070427FA04F1DDE9026723FA04F3C5
:1013B00003F0FF0001F0FF01FDE80445A0EB010090
:1013C000704724BAB4FA84F424F0070426FA04F12E
:1013D000DDE9026722FA04F202F0FF0001F0FF01EA
:1013E000FDE80445A0EB0100704714F0030F3CD169
:1013F00010F0030428D150F8082B51F8083B82FA6A
:101400004CF582EA0305A5FA8CF55DB950F8042C79
:1014100051F8043C82FA4CF582EA0305A5FA8CF5F2
:10142000002DE8D02DBAB5FA85F424F0070423FA8C
:1014300004F122FA04F202F0FF0001F0FF01FDE8DE
:101440000445A0EB010070474FEAC40420F00300FC
:1014500050F8082B21F0030151F8083B0CFA04F472
:1014600062EA040263EA0403C9E710F003041AD035
:10147000A1EB040120F00300E40750F8042B06D090
:101480000FD28B785FFAA2F4E41A06D12BB1CB7895
:101490005FFAB2F4E41A00D11BB920465DF8104B94
:1014A000704701F1040150F8042BCC0721F003012F
:1014B00051F8043B48D824D222F07F4482FA4CF5FC
:1014C00094EA1325A5FA8CF50AD165B951F8043BC5
:1014D00084EA0204B4EB036F0ED150F8042BEBE75F
:1014E0004FEA132355E035F07F454DD10878FDE8EC
:1014F0000445C0F1000070474FEA126203F0FF0399
:1015000047E002EA1C4482FA4CF594EA1345A5FA36
:101510008CF50AD165B951F8043B84EA0204B4EBB6
:10152000034F0CD150F8042BEBE74FEA134330E0A4
:1015300015EA1C4528D10B884FEA124229E04FEAF0
:10154000124203EA1C4324E002F0FF0482FA4CF545
:1015500094EA1365A5FA8CF50AD165B951F8043BF4
:1015600084EA0204B4EB032F09D150F8042BEBE713
:101570004FEA13630DE015F0FF0F05D10B684FEA3A
:10158000122223F07F4304E04FF00000FDE8044501
:10159000704712BA1BBA82FA4CF482EA0304A4FA26
:1015A0008CF5B5FA85F402FA04F203FA04F34FEA73
:1015B0001260FDE80445A0EB1360704700000000D6
:1015C00090F800F06DE9024520F007016FF0000C83
:1015D00010F0070491F820F040F049804FF000042B
:1015E0006FF00700D1E9002391F840F000F1080006
:1015F00082FA4CF2A4FA8CF283FA4CF3A2FA8CF33E
:101600004BBBD1E9022382FA4CF200F10800A4FAA4
:101610008CF283FA4CF3A2FA8CF3E3B9D1E90423F8
:1016200082FA4CF200F10800A4FA8CF283FA4CF32F
:10163000A2FA8CF37BB9D1E9062301F1200182FAE9
:101640004CF200F10800A4FA8CF283FA4CF3A2FAEF
:101650008CF3002BC6D0002A04BF04301A4612BAFD
:10166000B2FA82F2FDE8024500EBD2007047D1E900
:10167000002304F00305C4F100004FEAC50514F08F
:10168000040F91F840F00CFA05F562EA05021CBF60
:1016900063EA050362464FF00004A9E7000000007A
:1016A00001F0FF01102A2BDB10F0070F08D010F813
:1016B000013B013A8B422DD010F0070F42B3F6D117
:1016C000F0B441EA012141EA014122F007047FF030
:1016D00000070023F0E80256083C85EA010586EA87
:1016E000010685FA47F5A3FA87F586FA47F6A5FAC3
:1016F00087F68EB9EED1F0BC01F0FF0102F00702CF
:1017000032B110F8013B013A83EA010313B1F8D179
:101710000020704701387047002D06BF354603385A
:10172000073815F0010F07D1013015F4807F02BF93
:10173000013015F4C03F0130F0BC0138704700BFE4
:1017400000B587B003468DF80730002305930023CA
:1017500004932EF0AFF803900023049323E016497E
:10176000049A1346DB0013449B000B4404331B789C
:101770009DF807209A4213D10F49049A1346DB00C3
:1017800013449B000B4410331B78002B08D0049AA1
:101790001346DB0013449B00074A1344059306E0FD
:1017A000049B01330493049A039B9A42D7D3059B6D
:1017B000184607B05DF804FB001A002000B587B09A
:1017C00003468DF8073000230593002304932EF081
:1017D00071F803900023049323E01749049A1346F9
:1017E0009B0013449B000B4404331B789DF8072097
:1017F0009A4213D11049049A13469B0013449B004C
:101800000B4410331B78002B10D0049A13469B0016
:1018100013449B00084A1344059307E0049B0133DB
:101820000493049A039B9A42D7D300E000BF059B20
:10183000184607B05DF804FB60D7040882B00023A7
:1018400000936B460193054B1B68019A9A4202D2A2
:10185000024A019B136000BF02B0704700000020E5
:1018600082B0034600228DF80720B3F1005F05D354
:10187000054A934202D801238DF807309DF80730BE
:10188000184602B0704700BF00C0012000B587B005
:10189000039002910192009300238DF81330029A75
:1018A000019B9A420AD2029B591C009B019A039801
:1018B000FFF7ECFF03468DF8133012E0029A019B0C
:1018C0009A420BD10DF11303039AD31A0593009B8F
:1018D000059A1A6001238DF8133002E000238DF879
:1018E00013309DF81330184607B05DF804FB000074
:1018F00000B587B003900291019200238DF8173054
:10190000019B029A00210398FFF7C0FF03468DF860
:101910001730019B1B68029A0449092017F08CFFBD
:101920009DF81730184607B05DF804FBA0E90308DE
:1019300000B583B000238DF807300949092017F05E
:1019400098FF4FF47A7023F007FC00F00BFD03467C
:101950008DF807309DF80730184603B05DF804FB9A
:10196000BCE903082DE9F00F86B0019001238DF842
:101970001730002304934FF000024FF00003CDE92D
:1019800002230023049313E0019A049B06339B0077
:1019900013445B6800221E461746DDE9022312EB62
:1019A000060A43EB070BCDE902AB049B013304931A
:1019B000049B032BE8D9019B5B6B00221C46154658
:1019C000DDE9022312EB040843EB0509CDE90289A6
:1019D000DDE90223134303D101238DF8173002E020
:1019E00000238DF817309DF81730184606B0BDE873
:1019F000F00F704700B585B0019001238DF80F30CE
:101A00000198FFF7AFFF03468DF80F309DF80F30B8
:101A100083F00103DBB2002B04D0019A4D49092069
:101A200017F0CEFE9DF80F30002B13D0019B1B68E2
:101A30001846FFF715FF03468DF80F309DF80F305D
:101A400083F00103DBB2002B04D0019A4249092044
:101A500017F0B6FE9DF80F30002B15D0019B5B6888
:101A6000184606F0ADFD03468DF80F309DF80F3097
:101A700083F00103DBB2002B06D0019B5B681A46A2
:101A80003649092017F09CFE9DF80F30002B07D037
:101A9000019BDB68184606F093FD03468DF80F3076
:101AA0009DF80F30002B07D0019B1B69184606F0EC
:101AB00087FD03468DF80F309DF80F30002B07D0BF
:101AC000019B5B69184606F07BFD03468DF80F30DD
:101AD0009DF80F30002B07D0019B9B69184606F03C
:101AE0006FFD03468DF80F309DF80F30002B07D0A7
:101AF000019B1B6B184606F063FD03468DF80F3003
:101B00009DF80F30002B07D0019BDB6A184606F0CA
:101B100057FD03468DF80F309DF80F30002B07D08E
:101B2000019B9B6B184606F04BFD03468DF80F306A
:101B30009DF80F30002B07D0019B9B68184606F0DC
:101B40003FFD03468DF80F309DF80F30184605B065
:101B50005DF804FBC8E90308E4E9030800EA0308A8
:101B600010B58CB003900291019205AB00221A606F
:101B70005A609A60019B029A1C49092017F020FEC6
:101B8000019B9B080B930B9B002B25D000230493F8
:101B9000029A019BD31A0A9304AB154A0B990A982F
:101BA00012F05CFD03468DF827309DF82730002B9E
:101BB00012D000230893049B0B9AD31A0893089B16
:101BC000642202FB03F318460B9905AB052221F0B2
:101BD000AFFC03468DF82730039B1C4605AB93E80A
:101BE000070084E8070003980CB010BD18EA03084A
:101BF000EFBEADDE00B585B0019000238DF80F304B
:101C0000019B02930298FFF7F5FE03468DF80F3013
:101C10009DF80F30184605B05DF804FB82B0012333
:101C20008DF80730064BD3F88830054A43F470032B
:101C3000C2F888309DF80730184602B0704700BFE0
:101C400000ED00E086B0019000238DF817300123ED
:101C50008DF81730184B9A6A184B1B6816491343B6
:101C60008B62EFF313830393039B049371B600BF5E
:101C7000114B5B69104A43F480735361019B1B78DD
:101C80000D4B9A6A0D4B1B681340002B02D00023AA
:101C90008DF81730084B5B69074A23F48073536152
:101CA000049B0293029B83F3138800BF9DF81730B7
:101CB000184606B0704700BF00ED00E02CA50408F0
:101CC00000B587B0019000230593019A15490920BA
:101CD00017F0B2FD019B049301238DF80F300FE044
:101CE0000498FFF7AFFF03468DF80F309DF80F30D3
:101CF000002B0AD0059B01330593049B0133049309
:101D00009DF80F30002BEBD100E000BF059B019A3E
:101D10000549092017F090FD059B184607B05DF8AE
:101D200004FB00BF84EA030890EA030882B00123A1
:101D30008DF807309DF80730184602B0704784B020
:101D40000190009100238DF80F30019B002B11D0E2
:101D5000009B002B0ED0019B1A68009B1A60019B10
:101D60009A68009B9A60019BDA68009BDA60012305
:101D70008DF80F309DF80F30184604B07047000002
:101D800000B585B0019000238DF80F30019B002B2A
:101D90003ED001238DF80F30019B9B681846FFF75A
:101DA0005FFD034683F00103DBB2002B0BD0019BE8
:101DB0001B791A46019B9B681849092017F0E2FC21
:101DC00000238DF80F30019BDB681846FFF748FDB4
:101DD000034683F00103DBB2002B0BD0019B1B7980
:101DE0001A46019BDB680E49092017F0CBFC002343
:101DF0008DF80F30019B1B68002B09D1019B1B79CB
:101E00001A460849092017F0BDFC00238DF80F3051
:101E10009DF80F30184605B05DF804FBC0EA0308D2
:101E2000DCEA0308F8EA030800B587B003468DF83A
:101E3000073000238DF817309DF807301A463249D5
:101E4000092017F016FD9DF807301846FFF7B6FC7D
:101E50000490049B002B4AD00498FFF791FF03469F
:101E60008DF817309DF81730002B38D0049802F009
:101E7000F7F903461A462549092017F0FAFC9DF8A0
:101E800007301846FFF75CFC0390039B002B1ED025
:101E900003990498FFF753FF03468DF81730FFF7B7
:101EA000BDFE03468DF81730039B01221A74039B75
:101EB00000229A61039B00225A61039B00221A624E
:101EC000039B01225A7401238DF8173016E09DF808
:101ED00007301A460E49092017F0E8FC0EE09DF87D
:101EE00007301A460B49092017F0E0FC06E09DF880
:101EF00007301A460749092017F044FC9DF81730AF
:101F0000184607B05DF804FB0CEB030814EB03085C
:101F100018EB030824EB030800B585B001238DF806
:101F20000F30FFF703FF03468DF80F3000230293B5
:101F30002DF0C0FC009000238DF8073000238DF8B1
:101F4000073013E09DF807301846FFF76DFF034692
:101F50008DF80F309DF80F30002B02D0029B01331B
:101F600002939DF8073001338DF807309DF8073054
:101F7000009A9A42E6D2009A029B9A4203D1012328
:101F80008DF80F3002E000238DF80F309DF80F30F0
:101F9000184605B05DF804FBBFF34F8F00BF064B3A
:101FA000DB6803F4E0620449044B1343CB60BFF3E6
:101FB0004F8F00BF00BFFDE700ED00E00400FA0511
:101FC00030B587B003460A468DF80F3013468DF8BA
:101FD0000E3000238DF817309DF80E30032B00F2E1
:101FE000D9809DF80F409DF80E509DF80E30184690
:101FF00000F030FA034600932B462246684927201A
:1020000017F01AFC00230493664BD3F8883004932E
:102010009DF80F300B2B00F2B18001A252F823F093
:10202000512000086F2000088D200008AB20000818
:10203000C9200008E7200008052100082321000826
:102040007D2100087D210008412100085F21000852
:102050009DF80E3003F00303DAB29DF8103062F3FE
:1020600001038DF8103001238DF817308AE09DF8B8
:102070000E3003F00303DAB29DF8103062F38303ED
:102080008DF8103001238DF817307BE09DF80E306D
:1020900003F00303DAB29DF8103062F305138DF8F4
:1020A000103001238DF817306CE09DF80E3003F0EE
:1020B0000303DAB29DF8103062F387138DF8103005
:1020C00001238DF817305DE09DF80E3003F0030317
:1020D000DAB29DF8113062F301038DF8113001235B
:1020E0008DF817304EE09DF80E3003F00303DAB29E
:1020F0009DF8113062F383038DF8113001238DF8C0
:1021000017303FE09DF80E3003F00303DAB29DF87C
:10211000113062F305138DF8113001238DF817305B
:1021200030E09DF80E3003F00303DAB29DF8113071
:1021300062F387138DF8113001238DF8173021E0F9
:102140009DF80E3003F00303DAB29DF8123062F30B
:1021500005138DF8123001238DF8173012E09DF829
:102160000E3003F00303DAB29DF8123062F38713E6
:102170008DF8123001238DF8173003E000238DF81D
:10218000173000BF9DF81730002B03D0054A049B81
:10219000C2F888309DF81730184607B030BD00BF30
:1021A00034EB030800ED00E084B0034600918DF8A5
:1021B000073000238DF80F30009B002B00F0A28029
:1021C00000230293524BD3F8883002939DF80730D6
:1021D0000B2B00F2938001A252F823F00D2200088D
:1021E000252200083D220008552200086D22000823
:1021F000852200089D220008B5220008FD22000863
:10220000FD220008CD220008E52200089DF80830D4
:10221000C3F30103DBB21A46009B1A7001238DF849
:102220000F306FE09DF80830C3F38103DBB21A462C
:10223000009B1A7001238DF80F3063E09DF8083081
:10224000C3F30113DBB21A46009B1A7001238DF809
:102250000F3057E09DF80830C3F38113DBB21A4604
:10226000009B1A7001238DF80F304BE09DF8093068
:10227000C3F30103DBB21A46009B1A7001238DF8E9
:102280000F303FE09DF80930C3F38103DBB21A46FB
:10229000009B1A7001238DF80F3033E09DF8093050
:1022A000C3F30113DBB21A46009B1A7001238DF8A9
:1022B0000F3027E09DF80930C3F38113DBB21A46D3
:1022C000009B1A7001238DF80F301BE09DF80A3037
:1022D000C3F30113DBB21A46009B1A7001238DF879
:1022E0000F300FE09DF80A30C3F38113DBB21A46BA
:1022F000009B1A7001238DF80F3003E000238DF846
:102300000F3000BF9DF80F30184604B0704700BF73
:1023100000ED00E086B003468DF8073000238DF80D
:1023200017309DF80730002B05D000230493049B41
:1023300083F3108805E001230393039B83F3108844
:1023400000BF9DF81730184606B0704784B00346AA
:102350008DF8073000238DF80F309DF80F301846A8
:1023600004B0704700B583B001238DF807300549EC
:10237000272017F07EFA10F09EF872B600BFFFF724
:102380000BFE00BF4CEB030886B0019000238DF8D4
:10239000173072B600BF01230393039B83F31088A9
:1023A00000BF0E4A019B936000230493049B83F3B8
:1023B000108800BF62B600BF084B9B68019A9A4222
:1023C00003D101238DF8173002E000238DF8173078
:1023D0009DF81730184606B0704700BF00ED00E0CA
:1023E00000B583B000238DF807304FF00060FFF791
:1023F000CBFF03468DF807309DF80730184603B031
:102400005DF804FB00B585B0034600918DF80730F8
:1024100000238DF80F309DF80720009B0B492720E3
:1024200017F00AFA9DF80730072B09D8084A9DF8DB
:1024300007300233002142F8231001238DF80F30BA
:102440009DF80F30184605B05DF804FB5CEB0308FF
:10245000002000E084B003468DF80730114B039351
:102460009DF80730032B17D801A252F823F000BFC4
:1024700081240008872400088D2400089324000884
:10248000094B039309E0094B039306E0084B0393C0
:1024900003E0084B039300E000BF039B184604B021
:1024A000704700BF90EB030894EB03089CEB030814
:1024B000A8EB0308B4EB030884B003468DF807309B
:1024C0000A4B03939DF80730002B02D0012B03D059
:1024D00005E0074B039305E0064B039302E0034B33
:1024E000039300BF039B184604B0704790EB0308AA
:1024F000BCEB0308C0EB030884B003468DF807303B
:102500000A4B03939DF80730002B02D0012B03D018
:1025100005E0074B039305E0064B039302E0034BF2
:10252000039300BF039B184604B0704790EB030869
:102530009CEB0308DCEB030884B003468DF80730FE
:102540000A4B03939DF80730002B02D0012B03D0D8
:1025500005E0074B039305E0064B039302E0034BB2
:10256000039300BF039B184604B0704790EB030829
:10257000ECEB0308F0EB030800B585B001900023F5
:102580008DF80F30019B002B67D00199364817F06A
:102590000FFF019B9B681946344817F009FF019B08
:1025A0001B681946324817F003FF019B5B68194608
:1025B000304817F0FDFE019BDB6819462E4817F0E6
:1025C000F7FE019B1B6919462C4817F0F1FE019B91
:1025D0005B6919462A4817F0EBFE019B5B6A1946B6
:1025E000284817F0E5FE019B9B6A1946264817F01C
:1025F000DFFE019BDB6A1946244817F0D9FE019BD8
:102600001B6B1946224817F0D3FE019B5B6B1946E2
:10261000204817F0CDFE019B9B6B19461E4817F012
:10262000C7FE019BDB6B19461C4817F0C1FE019BDE
:102630009B6C19461A4817F0BBFE019BDB6C1946D0
:10264000184817F0B5FE019BD3F888301946164894
:1026500017F0AEFE01238DF80F309DF80F301846AD
:1026600005B05DF804FB00BFF4EB030800EC0308C1
:1026700010EC030820EC030830EC030840EC0308DE
:1026800050EC030860EC030870EC030880EC0308CE
:1026900090EC0308A0EC0308B0EC0308C0EC0308BE
:1026A000D0EC0308E0EC0308F0EC030810B584B0AC
:1026B000019001238DF80F30019B02939DF80830A3
:1026C000C3F30003DBB21C469DF80830C3F30003DC
:1026D000DBB21846FFF710FF03461A46214618489A
:1026E00017F066FE9DF80830C3F34003DBB21C46CA
:1026F0009DF80830C3F34003DBB21846FFF71CFF18
:1027000003461A4621460F4817F052FE9DF808303E
:10271000C3F38003DBB21C469DF80830C3F380038B
:10272000DBB21846FFF7C8FE03461A4621460648A4
:1027300017F03EFE9DF80F30184604B010BD00BFE4
:1027400000ED030814ED030824ED030800B583B081
:1027500001238DF8033000230193114817F028FE60
:102760000023019312E001990E4817F021FE0E4A52
:10277000019B023352F8233019460C4817F018FE1B
:10278000074817F015FE019B01330193019B072BAE
:10279000E9D99DF80330184603B05DF804FB00BF8B
:1027A00050ED030854ED0308002000E05CED030841
:1027B00000B589B00190009100238DF81F30019B76
:1027C000002B28D119491A4817F0F2FD4FF0006389
:1027D0001B680693174B1B681A46069B9B1A0593AA
:1027E000144B1B68059A1449272017F042F823F070
:1027F00065FF1248FFF7C0FE03468DF81F30EFF368
:1028000014830393039B04930498FFF74FFF012362
:102810008DF81F3003E00A49272017F047F89DF88C
:102820001F30184609B05DF804FB00BFC9B90208A3
:1028300068ED03080400002078ED030800ED00E0D7
:10284000A0ED030800B585B00190009100238DF83C
:102850000F301F4B0293019B002B07D1029B1846A0
:1028600001F074FD01238DF80F302AE0019B012B4C
:1028700023D101238DF80F30009B1B6802AA11465B
:10288000184612F0C7FF03468DF80F309DF80F3041
:1028900083F00103DBB2002B06D0009B1B681A46B5
:1028A0000C49272017F002F89DF80F30002B08D0B4
:1028B000029B184601F04AFD03E00749272016F065
:1028C000F5FF9DF80F30184605B05DF804FB00BF1A
:1028D000004E0020ACED0308D4ED030800B585B030
:1028E0000190009101238DF80E3000238DF80F30F8
:1028F000019B012B0AD1009B1B680DF10E021146B2
:10290000184613F017FB03468DF80F309DF80F3073
:10291000002B10D09DF80E301846FFF7FBFC034645
:102920008DF80F309DF80F30002B08D00749272075
:1029300016F082FF03E00649272016F0B7FF9DF846
:102940000F30184605B05DF804FB00BFE0ED03084A
:10295000E4ED030830B587B00390029100238DF8B1
:10296000173000238DF8163000238DF81530039BA7
:10297000002B02DB01238DF81730039B002B0ADDAF
:10298000029B1B680DF116021146184613F00DFA52
:1029900003468DF81730039B012B0BDD029B04339C
:1029A0001B680DF115021146184613F0FEF9034697
:1029B0008DF817309DF81730002B7ED0039B022B2B
:1029C0005CD0039B022B7DDC039B002B03D0039B7D
:1029D000012B34D076E000238DF816302AE0002356
:1029E0008DF815309DF816300DF115021146184678
:1029F000FFF7DAFB03468DF817309DF81730002BF0
:102A000012D09DF816301C469DF815301D469DF8D5
:102A100015301846FFF71EFD034600932B4622464D
:102A20002B49272016F008FF9DF816300133DBB242
:102A30008DF816309DF81630102BD0D943E09DF854
:102A400016300DF1150211461846FFF7ADFB03468F
:102A50008DF817309DF816301C469DF815301D4630
:102A60009DF815301846FFF7F5FC034600932B46FA
:102A700022461749272016F0DFFE24E09DF8163085
:102A80001C469DF815301D469DF815301846FFF779
:102A9000E1FC034600932B4622460E49272016F000
:102AA000CBFE9DF816309DF8152011461846FFF70D
:102AB00087FA03468DF8173005E00749272016F0FE
:102AC000F5FE00E000BF9DF81730184607B030BD96
:102AD000F8ED030810EE030828EE030800B585B0F2
:102AE0000190009101238DF80E3000238DF80F30F6
:102AF000019B012B0AD1009B1B680DF10E021146B0
:102B0000184613F017FA03468DF80F309DF80F3072
:102B1000002B10D09DF80E301846FFF717FC034627
:102B20008DF80F309DF80F30002B08D00749272073
:102B300016F082FE03E00649272016F0B7FE9DF846
:102B40000F30184605B05DF804FB00BFE0ED030848
:102B500040EE030800B585B00190009100238DF888
:102B60000F3000238DF80E3000230293019B002BC1
:102B700002DB01238DF80F30019B002B0ADD009B47
:102B80001B680DF10E021146184613F00EF90346AC
:102B90008DF80F30019B012B0ADD009B04331B686D
:102BA00002AA1146184612F035FE03468DF80F3082
:102BB0009DF80F30002B1BD0019B002B03D0019BF5
:102BC000022B06D010E0FFF7C1FD03468DF80F3051
:102BD00012E09DF80E30029A11461846FFF712FCDB
:102BE00003468DF80F3007E000238DF80F3003E027
:102BF0000449272016F05AFE9DF80F30184605B0FC
:102C00005DF804FB54EE030882B003468DF80730EC
:102C10009DF90730002B0CDB9DF8073003F01F02F5
:102C200005499DF907305B09012000FA02F241F8DD
:102C3000232000BF02B0704700E100E082B00346ED
:102C40008DF807309DF90730002B13DB9DF8073016
:102C500003F01F0209499DF907305B09012000FAC2
:102C600002F2203341F82320BFF34F8F00BFBFF3A0
:102C70006F8F00BF00BF02B0704700BF00E100E0EF
:102C800000B583B001238DF8063000238DF807309E
:102C9000F2238DF807300BE09DF907301846FFF757
:102CA000CDFF9DF90730DBB20133DBB28DF8073081
:102CB0009DF90730512BEFDD9DF80630184603B023
:102CC0005DF804FB00B585B003460A46ADF8063052
:102CD00013468DF8053001238DF80F30BDF906201D
:102CE0009DF805300D49232016F0A6FD9DF805300E
:102CF000002B06D0BDF806305BB21846FFF784FF04
:102D000005E0BDF806305BB21846FFF797FF9DF867
:102D10000F30184605B05DF804FB00BF78EE0308DD
:102D200000B585B003468DF8073001238DF80F30CC
:102D30009DF807301A460949232016F07DFD9DF8BD
:102D40000730002B01D062B601E072B600BF9DF8DB
:102D50000F30184605B05DF804FB00BF88EE03088D
:102D600000B587B003468DF8073000238DF8173083
:102D7000194B0493002303930023039316E09DF95A
:102D800007301AB21549039BDB000B44B3F904303A
:102D90009A4208D1114A039B52F83330049301231D
:102DA0008DF8173005E0039B01330393039B092B38
:102DB000E5D99DF8173083F00103DBB2002B06D074
:102DC0009DF907301BB2184607F060FC0490049B85
:102DD000184607B05DF804FB88EF0308B0A50408A7
:102DE00084B003468DF807300F4B03930023029302
:102DF0000023029311E09DF907200C49029BDB00A0
:102E00000B441B799A4205D1084A029B52F8333091
:102E1000039305E0029B01330293029B0F2BEAD937
:102E2000039B184604B0704788EF030830A50408D8
:102E3000034BDB681B0A03F007031846704700BF0B
:102E400000ED00E082B003468DF807309DF90730B1
:102E5000002B0EDB094A9DF907305B0952F823204D
:102E60009DF8073003F01F0322FA03F303F0010378
:102E700000E00023184602B0704700BF00E100E008
:102E800082B003468DF807309DF90730002B0FDB29
:102E9000094A9DF907305B09403352F823209DF819
:102EA000073003F01F0322FA03F303F0010300E0ED
:102EB0000023184602B0704700E100E082B00346EC
:102EC0008DF807309DF90730002B0FDB094A9DF97B
:102ED00007305B09803352F823209DF8073003F058
:102EE0001F0322FA03F303F0010300E00023184656
:102EF00002B0704700E100E082B0034600918DF817
:102F000007309DF90730002B0ADB009BDAB20C4931
:102F10009DF907301201D2B20B4483F800230BE075
:102F2000009BDAB207499DF8073003F00F03043B1A
:102F30001201D2B20B441A7600BF02B0704700BF34
:102F400000E100E000ED00E082B003468DF80730BC
:102F50009DF90730002B09DB0B4A9DF9073013441C
:102F600093F80033DBB21B09DBB20AE0074A9DF895
:102F7000073003F00F03043B13441B7EDBB21B0935
:102F8000DBB2184602B0704700E100E000ED00E05F
:102F900084B003468DF80730064B9B6803939DF978
:102FA000073010339B00039A13441B68184604B083
:102FB000704700BF00ED00E000B58BB003900291B8
:102FC00000238DF82730002308930023ADF8163036
:102FD000039B012B0AD1029B1B680DF116021146BF
:102FE000184612F079FE03468DF82730FFF720FFD0
:102FF0000790079A1549272016F01EFC9DF82730E8
:10300000002B18D0BDF916305BB21846FFF79CFFB5
:103010000890BDF916305BB21846FFF7B9FF06906D
:10302000BDF916301A46069B0093089B08492720D5
:1030300016F002FC03E00749232016F037FC9DF848
:10304000273018460BB05DF804FB00BF8CEF030877
:10305000A0EF0308C8EF030800B587B00190009106
:1030600000238DF817300023049300238DF80F30D0
:10307000019B022B14D1009B1B680DF10F0211461E
:10308000184612F0B2FE03468DF81730009B1B68FD
:1030900004AA1146184612F0BDFB03468DF81730FE
:1030A0009DF81730002B07D09DF90F30049A114678
:1030B0001846FFF721FF03E00449232016F0F6FB32
:1030C0009DF81730184607B05DF804FBD8EF0308E9
:1030D00000B585B00190009100238DF80F300023DA
:1030E0008DF80E3000238DF80D30019B002B0ADD8A
:1030F000009B1B680DF10E021146184612F075FE7A
:1031000003468DF80F30019B012B0BDD009B043330
:103110001B680DF10D021146184612F00BFF034615
:103120008DF80F309DF80F30002B0FD0019B022B34
:1031300010D19DF90E301BB29DF80D201146184696
:10314000FFF7C0FD03468DF80F3003E0044923204C
:1031500016F0ACFB9DF80F30184605B05DF804FB87
:10316000F4EF030800B5A9B00390029100238DF895
:103170009F30002325930023ADF89C30FFF758FEC5
:103180002490249A5F49272016F056FB00238DF8DF
:103190009B30002323935C4B1B68243309225B493B
:1031A000184616F0C5FDF2238DF89B3096E09DF988
:1031B0009B301846FFF7C8FE23909DF99B301846B8
:1031C000FFF740FE22909DF99B301846FFF7E0FE86
:1031D000259004AB4E49184633F064FD9DF99B30B1
:1031E00004AA04A8009313464A4A782133F06AFCE3
:1031F000229BDBB2184622F05BF8024604AB04A81F
:103200000092454A782133F05DFC04AA04A8259B6E
:1032100000931346414A782133F054FC9DF99B30CA
:103220001846FFF74BFE024604AB04A800923C4A46
:10323000782133F047FC9DF99B301846FFF720FEBC
:10324000024604AB04A80092364A782133F03AFCD7
:1032500004AA04A8239B00931346334A782133F031
:1032600031FC239B5BB21846FFF7BAFD024604AB64
:1032700004A800922D4A782133F024FC9DF99B305C
:103280001846FFF76DFD024604AB04A80092274ADA
:10329000782133F017FC04AB029A0399184615F015
:1032A00051FE0346002B12D0BDF89C301946204831
:1032B00017F07EF804AB19461E4817F079F8BDF8F0
:1032C0009C300133ADF89C3001238DF89F309DF97F
:1032D0009B30DBB20133DBB28DF89B309DF99B3024
:1032E000512B7FF764AF084B1B6824330922074931
:1032F000184616F045FC9DF89F30184629B05DF839
:1033000004FB00BF8CEF0308C816002000A60408C9
:103310000CF0030810F003081CF0030828F0030861
:1033200034F0030840F003084CF0030858F0030899
:1033300064F003086CF0030800B58FB001900091B1
:1033400000238DF837300023089309AB00221A6060
:103350005A609A60DA600023039304AB00221A607B
:103360005A609A60DA60019B002B0EDB08AB1422D6
:103370002049184633F034FD03AB14221D4918468A
:1033800033F02EFD01238DF83730019B002B09DD32
:10339000009B196808AB1422184633F021FD012365
:1033A0008DF83730019B012B0ADD009B043319682F
:1033B00003AB1422184633F013FD01238DF8373088
:1033C000019B022B03DD0C49272016F06FFA9DF8B4
:1033D0003730002B08D003AA08AB11461846FFF778
:1033E000C1FE03468DF837309DF8373018460FB0D0
:1033F0005DF804FB74F0030878F0030800B585B0AD
:103400000190009100238DF80E3000238DF80F30CD
:10341000019B012B0AD1009B1B680DF10E02114686
:10342000184612F087FD03468DF80F309DF80F30D7
:10343000002B08D09DF80E301846FFF771FC0346AC
:103440008DF80F3003E00549232016F02FFA9DF880
:103450000F30184605B05DF804FB00BF8CF0030880
:1034600030B583B0012000F015F80190019B002BCE
:103470000DD0019B1B695A1C019B1A61019BD3E96A
:103480000623541C43F10005019BC3E9064500BF18
:1034900003B030BD00B587B003468DF80730002378
:1034A0000593002304932CF072F8039000230493F7
:1034B00023E01649049A13469B001344DB000B4497
:1034C00005331B789DF807209A4213D10F49049ABF
:1034D00013469B001344DB000B4407331B78002B7F
:1034E00008D0049A13469B001344DB00074A134498
:1034F000059306E0049B01330493049A039B9A42CC
:10350000D7D3059B184607B05DF804FB980500204B
:1035100000B587B003468DF80730002305930023DC
:1035200004932CF034F80390002304931AE0134A18
:10353000049B1B01134405331B789DF807209A4216
:103540000DD10E4A049B1B01134407331B78002B3B
:103550000DD0049B1B01094A1344059307E0049B0B
:1035600001330493049A039B9A42E0D300E000BF26
:10357000059B184607B05DF804FB00BFB8C60408F9
:1035800082B000238DF807309DF80730184602B04E
:10359000704782B000238DF807309DF80730184639
:1035A00002B0704700B583B001238DF807300FF0EB
:1035B00001FA03468DF807309DF80730184603B02E
:1035C0005DF804FB84B0019000238DF80F30019B5F
:1035D000002B20D001238DF80F309DF80F30002BE9
:1035E0000AD0019B1B68002B03D001238DF80F30FC
:1035F00002E000238DF80F309DF80F30002B0AD029
:10360000019B9B68002B03D001238DF80F3002E053
:1036100000238DF80F309DF80F30184604B0704726
:1036200000B589B00190009100238DF81F30019BF7
:10363000002B00F0B480019800F0A4FB03461A466A
:103640005A49262016F015F90198FFF7BBFF0346EB
:103650008DF81F309DF81F30002B00F0A080009BDC
:10366000002B00F09C80019B1B681A4650492620C5
:1036700016F0E2F8019B9A68009B9A60019B5A79C8
:10368000009B5A71019B1A79009B1A71019B1A6861
:10369000009B1A60009B00221A6100994FF0000203
:1036A0004FF00003C1E90623019B9B68002B76D0F5
:1036B0000FF0AEF90690069A3E49262016F0BCF8A7
:1036C000069B002B6BD0019B9A68009B9A60019B24
:1036D0001B6807EE903AB8EE677ADFED376AC7EEFF
:1036E000267ACDED057A069B07EE903AF8EE677ADA
:1036F0009DED057A67EE277ACDED047ADDED047A4B
:10370000FCEEE77A17EE902A009B9B6822F07F423E
:1037100091B29888002001439980120CD2B2997915
:1037200000210A439A71009B9B685B68C3F31703EF
:103730001A462249262016F07FF8009B9B681A89BA
:1037400000221A819A7A00229A72002303939DF82C
:103750000C3043F001038DF80C309DF80C3043F031
:1037600002038DF80C30019B9B7903F00103DAB260
:103770009DF80C3062F382038DF80C30019B1B79AD
:10378000002B05D09DF80C3043F002038DF80C306F
:10379000009B9B68039A1A6001238DF81F309DF8E7
:1037A0001F30184609B05DF804FB00BFC8F00308DD
:1037B000CCF00308DCF0030800007A44F0F00308C2
:1037C00000B583B000238DF807300120FFF762FEBB
:1037D0000090009B002B0ED0009B9B68002B0AD012
:1037E000009B9B681B68C3F30003DBB2002B02D075
:1037F00001238DF807309DF80730184603B05DF8B7
:1038000004FB00B583B00120FFF744FE0190019B4B
:10381000002B13D0019B9B681B6800939DF8003020
:103820006FF300038DF800309DF800306FF3410313
:103830008DF80030019B9B68009A1A60012318469E
:1038400003B05DF804FB00B585B000238DF80F30A0
:103850000120FFF71FFE0290029B002B1AD0029B53
:103860009B68002B16D0029B9B681B6801939DF8F8
:10387000043043F001038DF804309DF8043043F028
:1038800002038DF80430029B9B68019A1A600123A1
:103890008DF80F309DF80F30184605B05DF804FB29
:1038A00000B587B0019000238DF817300120FFF795
:1038B000F1FD0490049B002B1AD000230393019B7D
:1038C00023F07F439AB200210A43ADF80C201B0C71
:1038D000DBB2002213438DF80E30049B9B68002B53
:1038E00006D0049B9B68039A5A6001238DF8173019
:1038F0009DF81730184607B05DF804FB00B585B099
:1039000003468DF8073000238DF80F300120FFF7B4
:10391000C1FD0290029B002B11D0029B9B68002BE3
:103920000DD0029B9A689DF8073003F00103D9B2CD
:10393000136861F38203136001238DF80F309DF843
:103940000F30184605B05DF804FB00B583B00223C4
:103950008DF807300120FFF79DFD0090009B002BA4
:103960000BD0009B9B68002B07D0009B9B681B68BB
:10397000C3F38003DBB28DF807309DF8073018469B
:1039800003B05DF804FB00B583B000230093012071
:10399000FFF780FD0190019B002B07D0019B9B68E6
:1039A000002B03D0019B9B685B680093009BC3F3D3
:1039B0001703184603B05DF804FB00002DE9F0433F
:1039C00085B00120FFF766FD0390039B002B4AD0D2
:1039D000039B1B69002298469146CDE90089264B3E
:1039E000D3E900232549C1E90023DDE900010246AE
:1039F0000B464FF000084FF000094FEA431949EA1F
:103A0000D2694FEA421842464B46141A63EB01054D
:103A10004FF000024FF00003AB0043EA9473A200A2
:103A200014461D46261845EB01074FF000024FF0E3
:103A30000003FB0043EA5673F20016461F46324667
:103A40003B460D49C1E900230B4BD3E900010B4B69
:103A5000D3E90023904271EB030304D2039BDB689C
:103A60005A1C039BDA60044BD3E900231046194625
:103A700005B0BDE8F08300BF08240020102400201A
:103A800000B585B0002303930120FFF703FD0290EA
:103A9000029B002B10D0FFF793FE03468DF80730F2
:103AA0009DF80730002B04D1029BDB685A1C029B57
:103AB000DA60029B1B690393039B184605B05DF80F
:103AC00004FB000000B585B003468DF807300023E5
:103AD0008DF80F309DF80730184621F01FFC034683
:103AE0001A461049262015F0A7FE9DF80730002B36
:103AF00007D0012B0BD1FFF7A6FE03468DF80F3040
:103B000009E0FFF746FD03468DF80F3003E0002380
:103B10008DF80F3000BF9DF80F30184605B05DF8E6
:103B200004FB00BFFCF0030800B587B003468DF826
:103B3000073000238DF817309DF807301846FFF73F
:103B4000E7FC0490049B002B0FD09DF8073018462B
:103B5000FFF7A0FC0390039B002B06D00399049869
:103B6000FFF75EFD03468DF817309DF817301846B5
:103B700007B05DF804FB00B585B001238DF80F3068
:103B8000FFF710FD03468DF80F30002302932BF052
:103B9000FEFC009000238DF8073000238DF80730DD
:103BA00013E09DF807301846FFF7BEFF03468DF877
:103BB0000F309DF80F30002B02D0029B013302938F
:103BC0009DF8073001338DF807309DF80730009AD3
:103BD0009A42E6D2009A029B9A4203D101238DF8C1
:103BE0000F3002E000238DF80F309DF80F3018469B
:103BF00005B05DF804FB000084B003468DF8073083
:103C00000A4B03939DF80730002B02D0012B03D001
:103C100005E0074B039305E0064B039302E0034BDB
:103C2000039300BF039B184604B0704704F10308D8
:103C300008F1030814F1030800B587B001238DF8DB
:103C400017300120FFF726FC0490049B002B78D04E
:103C5000FFF77BFE03468DF80F30FFF7B1FD0346FB
:103C6000184621F05BFB03461A463949262015F019
:103C7000E3FD9DF80F301846FFF7BEFF03461A46D6
:103C80003449262015F0D8FDFFF77AFC03461A4682
:103C90003149262015F0D0FDFFF775FE03461A4680
:103CA0002E49262015F0C8FD049BDB681A462C49D6
:103CB000262015F0C1FDFFF7E3FE0290FFF77EFE20
:103CC000CDE90001DDE900232649262015F0B4FDE9
:103CD000029A2549262015F0AFFD049B1B691A4660
:103CE0002249262015F0A8FD049BD3E9062320498C
:103CF000262015F0A1FD029B07EE903AF8EE677AB8
:103D00009FED1C7AC7EE876A16EE900AFCF7DCFB83
:103D100002460B461849262015F08EFD029B07EE41
:103D2000903AF8EE677A9FED157AC7EE876A16EE3D
:103D3000900AFCF7C9FB02460B461149262015F0F4
:103D40007BFD9DF81730184607B05DF804FB00BFF7
:103D500020F103082CF1030838F1030840F10308AF
:103D600048F1030850F1030864F1030878F10308EF
:103D70008CF1030800007A44A4F1030800606A474C
:103D8000B8F1030800B585B00390039B002B34D035
:103D90001C491D4832F086FF039B5B7900931A4B48
:103DA0001A4AFA21184832F08DFE039BDB68009313
:103DB000154B174AFA21144832F084FE039B1B6806
:103DC0000093114B134AFA210F4832F07BFE039BFC
:103DD0001B79184621F0A2FA034600930A4B0E4ABB
:103DE000FA21094832F06EFE039B9B680093064B54
:103DF0000A4AFA21044832F065FE034B184605B022
:103E00005DF804FBCCF1030818340020D0F103085E
:103E1000D8F10308E8F10308F8F1030804F20308F5
:103E200000B585B00190009100238DF80F3000237C
:103E30000293019B002B17DD009B1B6802AA114611
:103E4000184611F0E7FC03468DF80F309DF80F304F
:103E500083F00103DBB2002B06D0009B1B681A46DF
:103E60001049262015F022FD9DF80F30002B0ED0B2
:103E7000029B1846FFF714FD03468DF80F309DF89E
:103E80000F30094A1946262015F04CFD03E007497A
:103E9000262015F00BFD9DF80F30184605B05DF893
:103EA00004FB00BF10F203082CF2030834F20308ED
:103EB00000B585B00190009100238DF80F30019B73
:103EC000002B02D101238DF80F309DF80F30002B0D
:103ED0000CD0FFF7B1FE03468DF80F309DF80F3080
:103EE000074A1946262015F01DFD03E00549262046
:103EF00015F0DCFC9DF80F30184605B05DF804FBAA
:103F000044F203084CF2030800B585B0019000911B
:103F100000238DF80F30019B002B0CD1FFF739FBEC
:103F200003468DF80F309DF80F30084A19462620B9
:103F300015F0F8FC03E00649262015F0B7FC9DF8C3
:103F40000F30184605B05DF804FB00BF58F20308B7
:103F500060F2030800B585B00190009100238DF850
:103F60000F30019B002B0CD1FFF76DFC03468DF841
:103F70000F309DF80F30084A1946262015F0D2FC64
:103F800003E00649262015F091FC9DF80F301846F5
:103F900005B05DF804FB00BF6CF2030874F203087F
:103FA00000B585B00190009100238DF80F300023FB
:103FB0008DF80E30019B002B11DD009B1B680DF16D
:103FC0000E021146184611F0B5FF03468DF80F306A
:103FD0009DF80F30114A1946262015F0A3FC9DF8D4
:103FE0000F30002B0FD09DF80E301846FFF76AFDFA
:103FF00003468DF80F309DF80F30094A19462620E8
:1040000015F090FC03E00749262015F04FFC9DF8C1
:104010000F30184605B05DF804FB00BF80F20308BE
:1040200088F2030890F2030810B584B00190009163
:1040300000238DF80F3002238DF80E30019B002BEA
:1040400011DD009B1B680DF10E021146184611F0A0
:10405000ACFE03468DF80F309DF80F30164A194616
:10406000262015F05FFC9DF80F30002B1AD09DF82C
:104070000E301846FFF742FC03468DF80F309DF8CE
:104080000F30184615F040FB03461C469DF80E30D5
:104090001846FFF7B1FD0346084A2621204615F0D1
:1040A0004AFB03E00649262015F000FC9DF80F307E
:1040B000184604B010BD00BFA4F20308ACF2030818
:1040C000BCF2030800B585B00190009100238DF883
:1040D0000F30019B002B02D101238DF80F309DF88A
:1040E0000F30002B0CD0FFF746FD03468DF80F3044
:1040F0009DF80F30074A1946262015F013FC03E0FF
:104100000549262015F0D2FB9DF80F30184605B062
:104110005DF804FBD0F20308D8F2030800B5B7B08D
:1041200000238DF8D730444B1B68243308224349C1
:10413000184615F0FDFD2BF0BDFB349000238DF8E3
:10414000D63000238DF8D63063E09DF8D63018467F
:10415000FDF7F6FA3390339B002B55D0339B9A68CA
:10416000339BDB68D31A32930023009301ABC42244
:104170000021184632F022FC6B463149184632F0D5
:1041800091FD339B1B796A4668462E4932F0DEFC6E
:10419000339B1B686A4668462B4932F0D7FC339B39
:1041A0009B686A466846294932F0D0FC339BDB683D
:1041B0006A466846254932F0C9FC6A466846329B21
:1041C000234932F0C3FC339B5B7C6A466846214935
:1041D00032F0BCFC339B143318461FF06DFA0346D3
:1041E0006A4668461C4932F0B1FC339B1B6A6A463A
:1041F0006846184932F0AAFC6B461946174816F073
:10420000D7F801238DF8D7309DF8D63001338DF8DB
:10421000D6309DF8D630349A9A4296D2064B1B6817
:10422000243308220549184615F0AAFC9DF8D7301A
:10423000184637B05DF804FBC816002048A60408ED
:1042400054F3030858F3030864F3030870F30308F6
:104250007CF3030888F3030894F30308A0F303082E
:1042600000B585B00390039B002B27D01649174853
:1042700032F018FD039B1B790093144B144AFA216A
:10428000124832F01FFC039B9B6800930F4B114AAE
:10429000FA210E4832F016FC039BDB6800930B4BAF
:1042A0000D4AFA21094832F00DFC039B1B6800936C
:1042B000064B0A4AFA21054832F004FC034B184623
:1042C00005B05DF804FB00BFE0F3030818340020DC
:1042D000E4F30308ECF3030800F4030814F4030800
:1042E00000B589B003468DF80F3000238DF81F30DC
:1042F0009DF80F301846FDF723FA0690069B002B19
:104300001BD0069B9A68069BDB68D31A9B08059313
:104310009DF80F20069BD968059B00930B460A4920
:10432000092015F089FA069BDB6804930599049827
:1043300010F09CFB03468DF81F309DF81F30184687
:1043400009B05DF804FB00BF48F4030800B587B06E
:10435000019000230393019A1249272015F089FA4E
:104360000023059300230493002305930023049363
:1043700010E0019A059B13440393039B1B68039A67
:104380000499094816F014F8059B04330593049B1F
:1043900001330493059BD42BEBD90123184607B0B6
:1043A0005DF804FB70F4030888F4030800B589B0D5
:1043B0000390029100238DF81F3000230593039B87
:1043C000002B09DD029B1B6805AA1146184611F057
:1043D00021FA03468DF81F309DF81F30002B13D0B3
:1043E000059B1A460B49092015F026FA059B18462D
:1043F000FDF766FC0690059A069B9B0A0093069BB8
:104400000549092015F018FA9DF81F30184609B023
:104410005DF804FBF8F4030804F5030800B585B063
:104420000190009100238DF80F30FFF777FE0346CF
:104430008DF80F309DF80F30002B03D1044909206F
:1044400015F034FA9DF80F30184605B05DF804FBFE
:104450001CF5030800B585B00190009100238DF88C
:104460000F30019B002B02D101238DF80F309DF8F6
:104470000F30002B05D0FDF75BFA03468DF80F30A7
:1044800003E00549092015F011FA9DF80F30184690
:1044900005B05DF804FB00BF28F5030800B585B042
:1044A0000190009100238DF80B30002303936B469D
:1044B0001A4603990198FDF71BFA03468DF80B3055
:1044C0009DF80B30002B06D0009B1A460399064836
:1044D00015F06EFF03E00549092015F0E7F9039B8D
:1044E00001330393E3E700BF38F5030854F50308ED
:1044F00000B587B00190009100238DF8173000209F
:1045000019F06CFF04900499224815F051FF002324
:104510000393019B002B09DD009B1B6803AA114636
:10452000184611F077F903468DF8173000230293EF
:10453000019B002B07D1029B19460498FFF7AEFFA1
:1045400003468DF817309DF81730002B18D0039BC9
:1045500002AA19460498FDF7CBF903468DF81730E7
:104560009DF81730002B06D0039A029B0A490920B8
:1045700015F062F908E00949092015F097F903E000
:104580000749092015F092F99DF81730184607B031
:104590005DF804FB5CF5030874F5030854F50308A3
:1045A00094F5030800B587B00190009100238DF8C1
:1045B000173000230393019B002B10DD009B1B6829
:1045C00003AA1146184611F025F903468DF8173055
:1045D0009DF817301B4A1946092015F0C9F99DF8B6
:1045E0001730002B23D0039B04930498FDF72AFB7C
:1045F00003468DF817309DF81730002B0BD09DF82F
:104600001730184620F0ACFE0346049A0E490920E4
:1046100015F012F90FE09DF81730184620F0A0FEB3
:104620000346049A0849092015F040F903E00749B8
:10463000092015F03BF99DF81730184607B05DF8D2
:1046400004FB00BFB4F50308BCF50308CCF5030870
:1046500000B585B00190009100238DF80F30002344
:104660008DF80E30019B002B11DD009B1B680DF1B6
:104670000E021146184611F098FB03468DF80F30D4
:104680009DF80F30114A1946092015F071F99DF86F
:104690000F30002B0FD09DF80E301846FFF720FE8C
:1046A00003468DF80F309DF80F30094A194609204E
:1046B00015F05EF903E00749092015F0F7F89DF8B9
:1046C0000F30184605B05DF804FB00BFE0F50308A5
:1046D000E8F50308F4F5030800B587B003468DF844
:1046E0000730002305930023049300F0FAFA0390A7
:1046F0000023049319E0114A049B9B0113441B7887
:104700009DF807209A420DD10C4A049B9B0113444B
:1047100029331B78002B05D0049B9B01074A1344C7
:10472000059306E0049B01330493049A039B9A4289
:10473000E1D3059B184607B05DF804FB0800002094
:1047400000B587B003468DF807300023059300239A
:10475000049300F0A8FA0390002304931FE0154A85
:10476000049B2C2101FB03F313441B789DF80720C5
:104770009A4211D10F4A049B2C2101FB03F31344ED
:1047800029331B78002B0FD0049B2C2202FB03F350
:10479000084A1344059307E0049B01330493049AE9
:1047A000039B9A42DBD300E000BF059B184607B08D
:1047B0005DF804FB88A6040800B585B001900023CD
:1047C0008DF80F30019B002B49D001238DF80F305D
:1047D000019B5B68002B09D1019B1B781A4623497A
:1047E000322015F063F800238DF80F30019B5B6ACF
:1047F000002B09D1019B1B781A461D49322015F068
:1048000055F800238DF80F30019B93F8293083F081
:104810000103DBB2002B09D0019B1B781A46144917
:10482000322015F043F800238DF80F30019B083338
:10483000184601F08FFD03468DF80F309DF80F30BC
:1048400083F00103DBB2002B09D0019B1B781A46D1
:104850000849322015F02AF800238DF80F309DF812
:104860000F30184605B05DF804FB00BF08F60308DA
:1048700014F6030824F6030800B583B000238DF86E
:104880000730054A0549322014F0D6FF9DF807305D
:10489000184603B05DF804FB34F6030838F6030845
:1048A00000B587B003468DF8073000238DF8173028
:1048B0009DF807301A462649322014F063FF9DF810
:1048C00007301846FFF708FF0490049B002B39D0EF
:1048D000049B93F82830002B2FD020F0D3FA0390BC
:1048E000049B1B6B039A9A4227D3049B93F90C30C9
:1048F000DAB2049B0833194610460AF0C9FA034697
:104900008DF817309DF81730002B10D0049B039AB8
:104910009A60049B5B6B039AD21A049B9A63049B74
:10492000039A5A63049BDB6A5A1C049BDA62049B59
:104930005A6A039B1A44049B1A63049BDB6B5A1C40
:10494000049BDA639DF81730184607B05DF804FB46
:1049500044F6030830B484B00190009100238DF830
:104960000F30019B002B25D0009B002B22D0019BF8
:104970005A68009B5A60009A019B02F1080403F1F7
:1049800008050FCD0FC495E8070084E80700019BD8
:104990005A6A009B5A62019B93F82820009B83F877
:1049A0002820019B93F82920009B83F829200123CC
:1049B0008DF80F309DF80F30184604B030BC7047AA
:1049C00084B0019000238DF80F30019B002B0FD095
:1049D000019B012283F82920019B0022DA62019BBE
:1049E00000221A63019B0022DA6301238DF80F3045
:1049F0009DF80F30184604B07047000030B589B0FC
:104A00000492039303468DF817300B468DF8163049
:104A100000238DF81F309DF817409DF8165003981D
:104A200027F036FF03460193049B00932B46224652
:104A30001149322014F01DFF9DF817301846FFF77A
:104A40004BFE0690069B002B11D0069B9DF816206E
:104A500083F82820069B049A5A62069B08331C227E
:104A600003991846FCF79EFB01238DF81F309DF833
:104A70001F30184609B030BD5CF6030800B585B09C
:104A8000034600918DF8073000238DF80F309DF814
:104A90000720009B0C49322014F0EBFE9DF80730F4
:104AA0001846FFF719FE0290029B002B05D0029BCF
:104AB000009A5A6201238DF80F309DF80F30184686
:104AC00005B05DF804FB00BF7CF6030800B587B0B5
:104AD00003468DF8073000238DF817309DF8073016
:104AE0001A463149322014F0C4FE9DF807301846AA
:104AF000FFF726FE0490049B002B47D00498FFF795
:104B00005BFE03468DF817309DF81730002B35D02B
:104B1000049826F0ABFF03461A462449322014F0CD
:104B2000A8FE9DF807301846FFF7D6FD0390039BBB
:104B3000002B1BD003990498FFF70CFF03468DF858
:104B400017300398FFF73CFF03468DF817309DF8A8
:104B500007301A461649322014F06EFE039B0122DC
:104B600083F82A2001238DF8173016E09DF80730CE
:104B70001A461049322014F099FE0EE09DF80730D5
:104B80001A460D49322014F091FE06E09DF80730D8
:104B90001A460949322014F0F5FD9DF817301846E1
:104BA00007B05DF804FB00BF90F60308A4F6030805
:104BB000A8F60308C4F60308D0F6030800B585B0CC
:104BC00001238DF80F30FFF757FE03468DF80F30A5
:104BD0000023029300F067F8009000238DF807305F
:104BE00000238DF8073013E09DF807301846FFF7D3
:104BF0006DFF03468DF80F309DF80F30002B02D06B
:104C0000029B013302939DF8073001338DF8073082
:104C10009DF80730009A9A42E6D2009A029B9A4287
:104C200003D101238DF80F3002E000238DF80F30FF
:104C30009DF80F30184605B05DF804FB00B585B04F
:104C400000238DF80F300023029300F02CF8009021
:104C5000002301930023019311E0019BDBB218466E
:104C6000FFF71EFE03468DF80F309DF80F301946F2
:104C7000029820F07FFD0290019B01330193019A7D
:104C8000009B9A42E9D9029B002B03D001238DF8A7
:104C90000F3002E000238DF80F309DF80F301846DA
:104CA00005B05DF804FB82B000238DF807300023C7
:104CB0008DF8063000238DF8053004238DF806307A
:104CC0000A238DF805309DF805209DF806309342A3
:104CD00028BF13468DF807309DF80730184602B0FC
:104CE000704782B000238DF807300A238DF8073013
:104CF0009DF80730184602B07047000000B585B037
:104D00000190009100238DF80F3000238DF80E30B4
:104D1000019B002B02DB01238DF80F30019B002B40
:104D20000ADD009B1B680DF10E021146184611F0BA
:104D30003CF803468DF80F309DF80F30002B20D043
:104D4000019B002B10D0019B012B1FD19DF80E3031
:104D5000184627F02FFB9DF80E30184626F0FAFF74
:104D600003468DF80F3012E026F0D0FE03468DF892
:104D70000F309DF80F30094A1946322014F0F8FD23
:104D800005E00749322014F091FD00E000BF9DF8D6
:104D90000F30184605B05DF804FB00BFF0F60308BD
:104DA000F8F6030800B585B00190009100238DF856
:104DB0000F3000238DF80E30019B002B11DD009B7E
:104DC0001B680DF10E021146184610F0EEFF034667
:104DD0008DF80F309DF80F300C4A1946322014F030
:104DE000C7FD019B002B0BD1FFF7E8FE03468DF8B2
:104DF0000F309DF80F30064A1946322014F0B8FDE6
:104E00009DF80F30184605B05DF804FB0CF7030859
:104E100010F7030800B585B00190009100238DF8CC
:104E20000F30019A2949052014F006FD00238DF862
:104E30000E3000230293019B002B11DD009B1B68A9
:104E40000DF10E021146184610F0AFFF03468DF823
:104E50000F309DF80F301E4A1946322014F088FD9D
:104E6000019B012B11DD009B04331B6802AA114634
:104E7000184610F0CFFC03468DF80F309DF80F3028
:104E8000144A1946322014F073FD9DF80F30002BA0
:104E900011D09DF80E30029A11461846FFF7EEFD2C
:104EA00003468DF80F309DF80F300B4A194632201B
:104EB00014F05EFD03E00949322014F0F7FC9DF880
:104EC0000F30184605B05DF804FB00BF18F7030863
:104ED0000CF7030820F703082CF7030838F703083A
:104EE00000B58DB00190009100238DF82F30019A0C
:104EF0004449052014F0A0FC00238DF82E30002337
:104F00000A9303AB00221A605A609A60DA601A6151
:104F10005A619A6100238DF80B30019B002B11DD43
:104F2000009B1B680DF12E021146184610F03DFF44
:104F300003468DF82F309DF82F30334A1946322022
:104F400014F016FD019B012B12DD009B04331B683E
:104F50000DF10B021146184610F0ECFF03468DF8D8
:104F60002F309DF82F30294A1946322014F000FDC9
:104F7000019B022B11DD009B08331B680AAA114616
:104F8000184610F047FC03468DF82F309DF82F305F
:104F90001F4A1946322014F0EBFC019B062B0FDD53
:104FA00003AB03220099019801F080FE03468DF8BF
:104FB0002F309DF82F30174A1946322014F0D8FCB4
:104FC0009DF82F30002B12D09DF82E009DF80B106D
:104FD0000A9A03ABFFF712FD03468DF82F309DF8B8
:104FE0002F300D4A1946322014F0C2FC03E00B4961
:104FF000322014F05BFC9DF82F3018460DB05DF8A0
:1050000004FB00BF18F703080CF7030850F7030868
:1050100020F7030854F7030860F7030864F7030850
:1050200000B587B003468DF80730002305930023B1
:10503000049300F0E0FA03900023049323E0164960
:10504000049A13465B001344DB000B4404331B78C3
:105050009DF807209A4213D10F49049A13465B002A
:105060001344DB000B4410331B78002B08D0049A48
:1050700013465B001344DB00074A1344059306E024
:10508000049B01330493049A039B9A42D7D3059B54
:10509000184607B05DF804FB8802002000B587B011
:1050A00003468DF80730002305930023049300F096
:1050B000A2FA03900023049323E01749049A1346AD
:1050C0009B0013449B000B4404331B789DF807207E
:1050D0009A4213D11049049A13469B0013449B0033
:1050E0000B4410331B78002B10D0049A13469B00FE
:1050F00013449B00084A1344059307E0049B0133C3
:105100000493049A039B9A42D7D300E000BF059B07
:10511000184607B05DF804FB38A7040800B587B04F
:1051200003468DF80730002305930023049300F015
:1051300062FA03900023049323E01649049A13466D
:105140005B001344DB000B4405331B789DF80720FC
:105150009A4213D10F49049A13465B001344DB00B3
:105160000B4410331B78002B08D0049A13465B00C5
:105170001344DB00074A1344059306E0049B013304
:105180000493049A039B9A42D7D3059B184607B011
:105190005DF804FB8802002000B585B00190002373
:1051A0008DF80F30019B002B10D001238DF80F30AC
:1051B000019B1B68002B09D1019B1B791A460649EC
:1051C000312014F073FB00238DF80F309DF80F3061
:1051D000184605B05DF804FB84F7030800B583B0FA
:1051E00000238DF80730054A0549312014F024FBCF
:1051F0009DF80730184603B05DF804FB90F70308EC
:1052000094F7030800B585B003468DF807300023F6
:105210008DF80F309DF807301A460C49312014F0F4
:10522000B1FA9DF807301846FFF7FAFE0290029B8C
:10523000002B04D0029B5B695A1C029B5A619DF8AB
:105240000F30184605B05DF804FB00BFA0F7030857
:1052500084B00190009100238DF80F30019B002B4A
:1052600015D0009B002B12D0019B1A68009B1A607E
:10527000019B5A79009B5A71019B9A68009B9A6026
:10528000019BDA68009BDA6001238DF80F309DF8EE
:105290000F30184604B0704784B0019000238DF899
:1052A0000F30019B002B05D0019B01221A740123B2
:1052B0008DF80F309DF80F30184604B0704786B057
:1052C0000390029113468DF8073000230593039B4A
:1052D000002B30D0002304930023049326E0039B8B
:1052E000D968049A13469B001344DB000B44DB6926
:1052F000029A9A4217D1039BD968049A13469B00DD
:105300001344DB000B4493F820309DF807209A42A9
:1053100009D1039BD968049A13469B001344DB0010
:105320000B44059307E0049B01330493039B9B68A4
:10533000049A9A42D3D3059B184606B0704784B0AE
:10534000019000230393002302930023029317E0AC
:10535000019BD968029A13469B001344DB000B445F
:105360009B68002B09D1019BD968029A13469B00C8
:105370001344DB000B44039307E0029B01330293C9
:10538000019B9B68029A9A42E2D3039B184604B0A1
:10539000704700B587B0034600918DF807300023B1
:1053A0008DF813309DF807301846FFF7B7FE0390CD
:1053B000039B002B2AD0009B1B680293009B19695A
:1053C000009B1B7D1A460398FFF779FF0590059B0C
:1053D000002B03D10398FFF7B2FF0590059B002B2C
:1053E00014D0059B0C331C2200991846FBF7DAFEFB
:1053F000059B9B685A1C059B9A60059B1B68029A3B
:10540000D21A059B5A60059B029A1A609DF81330C8
:10541000184607B05DF804FB00B587B003468DF869
:10542000073000238DF817309DF807301A463249AF
:10543000312014F01EFA9DF807301846FFF72EFEB3
:105440000490049B002B49D00498FFF7A5FE034667
:105450008DF817309DF81730002B37D0049826F0C0
:10546000A5FD03461A462549312014F002FA9DF89D
:1054700007301846FFF7D4FD0390039B002B1DD087
:1054800003990498FFF7E4FE03468DF8173003985C
:10549000FFF702FF03468DF81730039B01221A74B1
:1054A000039B01225A749DF807301A461449312093
:1054B00014F0C2F901238DF8173016E09DF807307B
:1054C0001A461049312014F0F1F90EE09DF807302A
:1054D0001A460D49312014F0E9F906E09DF807302D
:1054E0001A460949312014F04DF99DF81730184635
:1054F00007B05DF804FB00BFA8F70308B8F703087E
:10550000C4F70308D0F70308DCF7030800B585B03B
:1055100001238DF80F30FFF761FE03468DF80F3041
:105520000023029300F067F8009000238DF8073005
:1055300000238DF8073013E09DF807301846FFF779
:105540006BFF03468DF80F309DF80F30002B02D013
:10555000029B013302939DF8073001338DF8073029
:105560009DF80730009A9A42E6D2009A029B9A422E
:1055700003D101238DF80F3002E000238DF80F30A6
:105580009DF80F30184605B05DF804FB00B585B0F6
:1055900000238DF80F300023029300F02CF80090C8
:1055A000002301930023019311E0019BDBB2184615
:1055B000FFF728FE03468DF80F309DF80F3019468F
:1055C000029820F0D7F80290019B01330193019AD1
:1055D000009B9A42E9D9029B002B03D001238DF84E
:1055E0000F3002E000238DF80F309DF80F30184681
:1055F00005B05DF804FB82B000238DF8073000236E
:105600008DF8063002238DF8073002238DF806301E
:105610009DF80730184602B07047000000B585B00D
:105620000190009100238DF80F3000238DF80E308B
:10563000019B002B02DB01238DF80F30019B002B17
:1056400011DD009B1B680DF10E021146184610F08B
:10565000ACFB03468DF80F309DF80F301D4A1946FC
:10566000312014F085F99DF80F30002B27D0019BD5
:10567000002B03D0019B012B0DD01CE026F044FE33
:1056800003468DF80F309DF80F30134A194631202C
:1056900014F06EF917E09DF80E30184626F08AFED9
:1056A00003468DF80F309DF80F300B4A1946312014
:1056B00014F05EF907E000238DF80F3003E007498E
:1056C000312014F0F3F89DF80F30184605B05DF85E
:1056D00004FB00BFFCF7030800F8030808F8030800
:1056E00000B585B00190009100238DF80F300023A4
:1056F0008DF80E30019B002B11DD009B1B680DF116
:105700000E021146184610F050FB03468DF80F307C
:105710009DF80F300C4A1946312014F029F9019BED
:10572000002B0BD1FFF7F2FE03468DF80F309DF8EA
:105730000F30064A1946312014F01AF99DF80F303F
:10574000184605B05DF804FBFCF703081CF80308D5
:1057500000B585B00190009100238DF80F30002333
:105760008DF80E30019B002B05DB01238DF80F30E7
:1057700001238DF80E30019B002B11DD009B1B686F
:105780000DF10E021146184610F00FFB03468DF87E
:105790000F309DF80F30124A1946312014F0E8F806
:1057A0009DF80F30002B10D09DF80E30184626F0D3
:1057B00001FE03468DF80F309DF80E30184626F096
:1057C000C9FA03468DF80F3003E00649312014F082
:1057D0006DF89DF80F30184605B05DF804FB00BF6A
:1057E000FCF7030824F8030800B587B003468DF8DA
:1057F0000730002305930023049300F05DFA039023
:10580000002304931AE0134A049B1B0113440C3336
:105810001B789DF807209A420DD10E4A049B1B016C
:1058200013440D331B78002B0DD0049B1B01094A38
:105830001344059307E0049B01330493049A039BEC
:105840009A42E0D300E000BF059B184607B05DF820
:1058500004FB00BF60A7040800B587B003468DF8BD
:105860000730002305930023049300F037FA0390D8
:105870000023049320E0154A049B542101FB03F309
:1058800013440C331B789DF807209A4211D10F4A1C
:10589000049B542101FB03F313440D331B78002BAD
:1058A00007D0049B542202FB03F3084A13440593D8
:1058B00006E0049B01330493049A039B9A42DAD3D3
:1058C000059B184607B05DF804FB00BFB802002036
:1058D00000B585B0019000238DF80F30019B002B9F
:1058E00010D001238DF80F30019B9B68002B09D14C
:1058F000019B1B7B1A460649332013F0D7FF002378
:105900008DF80F309DF80F30184605B05DF804FB98
:1059100038F8030810B586B002921A4603468DF88F
:105920000F300B468DF80E3013468DF80D300023E6
:105930008DF817309DF80E409DF80D30184626F072
:10594000E3FE03460093029B22461549332013F0E1
:1059500073FF9DF80F301846FFF77EFF0490049BFD
:10596000002B17D0049B029A1A60049B9DF80E200E
:105970001A71049B9DF80D205A71049B01229A73A1
:10598000049B4C3308220021184631F017F80123FC
:105990008DF817309DF81730184606B010BD00BFBF
:1059A00044F8030800B583B000238DF80730054A9A
:1059B0000549332013F040FF9DF80730184603B027
:1059C0005DF804FB64F8030868F8030884B00190EC
:1059D000009100238DF80F30019B002B1DD0009B00
:1059E000002B1AD0019B9A68009B9A60019B1A6851
:1059F000009B1A60019B1A79009B1A71019B5A79CE
:105A0000009B5A71019B1A7B009B1A73019B5A7B66
:105A1000009B5A7301238DF80F309DF80F30184604
:105A200004B0704784B0019000238DF80F30019BC3
:105A3000002B05D0019B01225A7301238DF80F30F2
:105A40009DF80F30184604B07047000070B588B05C
:105A5000039000238DF81F30039B002B6BD000F0C8
:105A60002BF9059000230693002306935FE0069B25
:105A7000DBB21846FFF7F0FE0490049B002B53D0D6
:105A8000039B93F904301A46049B1B799A424BD12D
:105A9000039B1A69049B1B689A4245D1039B1A7D9C
:105AA000049B5B799A423FD1049B14331C220399D7
:105AB0001846FBF777FB049B03F11900049B03F1E5
:105AC0003501049B03F14C0208230EF0A1FF0346AD
:105AD0008DF81F30049B03F13000049B14331C220B
:105AE0001946FBF75FFB049BDB7B002B19D0039B64
:105AF00093F904301E46039B1C69039B1B7D1846CB
:105B000026F002FE0546049B4C33082118460EF091
