:020000040800F2
:10000000000002207D020008CD020008CD02000899
:10001000CD020008CD020008CD020008000000005B
:10002000000000000000000000000000CD020008F9
:10003000CD02000800000000CD020008CD0200083B
:10004000CD020008CD020008CD020008CD02000854
:10005000CD020008CD020008CD020008CD02000844
:10006000CD020008CD020008CD020008CD02000834
:10007000CD020008CD020008CD020008CD02000824
:10008000CD020008CD020008CD020008CD02000814
:10009000CD020008CD020008CD020008CD02000804
:1000A000CD020008CD020008CD020008CD020008F4
:1000B000CD020008CD020008CD020008CD020008E4
:1000C000CD020008CD020008CD020008CD020008D4
:1000D000CD020008CD020008CD020008CD020008C4
:1000E000CD020008CD020008CD020008CD020008B4
:1000F000CD020008CD020008CD020008CD020008A4
:10010000CD020008CD020008CD020008CD02000893
:10011000CD020008CD020008CD020008CD02000883
:10012000CD020008CD020008CD020008CD02000873
:10013000CD020008CD020008CD020008CD02000863
:10014000CD020008CD020008CD020008CD02000853
:10015000CD020008CD020008CD020008CD02000843
:10016000CD020008CD020008CD020008CD02000833
:10017000CD020008CD020008CD02000800000000FA
:08018000CD020008CD020008C9
:1001880010B5054C237833B9044B13B10448AFF3C9
:1001980000800123237010BD2C0400200000000003
:1001A800F803000808B5034B1BB103490348AFF334
:1001B800008008BD0000000030040020F80300089B
:1001C800244AD2E9003222F0010101F17841B1F567
:1001D800801F10B53CD203F16043B3F5003F2CBF3C
:1001E80000230123D10703D513B11B4B1A60904795
:1001F8001A4A1B49D2F830381A4843F01003C2F89B
:100208003038194B1A6822F040621A601A6842F0B6
:1002180080621A60D1F8FC2042F08072C1F8FC209C
:10022800124A116841F001011160596941F4005105
:10023800596154685168091B8142FBD9596921F4F5
:100248000051596154685168091B8142FBD9ECE798
:100258000023C7E7000006084804002000300240D9
:1002680000ED00E0FF340C0000100240001000E038
:1002780070470000DFF834D00D480E490E4A0023BD
:1002880002E0D458C4500433C4188C42F9D30B4A42
:100298000B4C002301E013600432A242FBD3FFF7AA
:1002A800E7FF00F011F8FFF78BFF7047000002200E
:1002B800000000202C040020200400082C0400204A
:1002C80050040020FEE7000070B50D4E0D4D761B62
:1002D800B61006D0002455F8043B01349847A642CE
:1002E800F9D1094E094D761B00F082F8B61006D0F8
:1002F800002455F8043B01349847A642F9D170BD53
:1003080014040008140400081C040008140400085D
:10031800024B13B1024800F005B870470000000016
:1003280039030008002301461A46184600F01AB897
:1003380038B5084B084D5B1B9C1007D0043B1D4487
:10034800013C55F804399847002CF9D1BDE83840EC
:1003580000F054B8200400081C040008704700BFCF
:10036800704700BF2DE9F047DFF880A00646DAF8AD
:10037800000098460F469146FFF7F0FF1A4B1B689E
:10038800D3F8484124B365681F2D26DC5EB96B1C81
:100398000235DAF80000636044F82570FFF7E0FFE3
:1003A8000020BDE8F08704EB85010123C1F888909F
:1003B800D4F88821AB401A43022EC4F88821C1F82A
:1003C8000881E4D1D4F88C211343C4F88C31DEE7DA
:1003D80003F5A674C3F84841D5E7DAF80000FFF73B
:1003E800BFFF4FF0FF30DCE71004000828040020AE
:1003F800F8B500BFF8BC08BC9E467047F8B500BF0A
:08040800F8BC08BC9E467047D9
:0404100000000020C8
:0804140019030008AD01000806
:04041C00890100084A
:1004200000000000EC02002054030020BC03002068
:1004300000000000000000000000000000000000BC
:1004400000000000000000000000000000000000AC
:10045000000000000000000000000000000000009C
:10046000000000000000000000000000000000008C
:10047000000000000000000000000000000000007C
:10048000000000000000000000000000000000006C
:10049000000000000000000000000000000000005C
:1004A000000000000000000000000000000000004C
:1004B000000000000000000000000000000000003C
:1004C000000000000000000001000000000000002B
:1004D0000E33CDAB34126DE6ECDE05000B000000F0
:1004E000000000000000000000000000000000000C
:1004F00000000000000000000000000000000000FC
:1005000000000000000000000000000000000000EB
:1005100000000000000000000000000000000000DB
:0C08400000000000000000004C0400203C
:040000050800027D70
:00000001FF
