:020000040800F2
:1000000000C00120C9FD040861E3010805E70108FB
:1000100007E7010809E701080BE7010800000000F5
:100020000000000000000000000000000DE70108D3
:1000300015E701080000000011E7010849E7010881
:1000400045E7010801E70108F5E60108F9E60108BE
:10005000EDE6010867E3010891E7010895E701086B
:1000600099E701089DE70108A1E701086DE3010890
:10007000A5E30108DDE3010815E401084DE40108EA
:1000800085E40108BDE401085DE3010819FE0408E8
:1000900019FE040819FE040819FE0408A5E7010862
:1000A00019FE0408B1E70108B5E70108B9E701083E
:1000B000BDE70108C1E70108C5E70108D5E7010868
:1000C000D1E70108FDE70108D9E7010817E70108B2
:1000D0001BE701085BE701085FE7010881E701080A
:1000E000A9E701082DE80108FDE6010819FE04084A
:1000F00019FE040819FE040819FE0408F5E40108B5
:1001000063E3010857E70108C9E7010841E701086F
:1001100085E7010889E70108CDE7010819FE040811
:100120002DE5010865E501089DE50108D5E5010813
:100130000DE6010819FE040819FE040819FE04085A
:1001400019FE040819FE040819FE040831E8010824
:1001500045E601087DE60108B5E601088DE70108DE
:1001600021E8010825E8010835E80108ADE70108A4
:1001700019FE040839E8010819FE0408000000000F
:0801800029E80108F1E601087D
:10018800FFFFFFFFFFFFFFFFFFFFFFFFFFFFFFFF77
:10019800FFFFFFFFFFFFFFFFFFFFFFFFFFFFFFFF67
:1001A800FFFFFFFFFFFFFFFFFFFFFFFFFFFFFFFF57
:1001B800FFFFFFFFFFFFFFFFFFFFFFFFFFFFFFFF47
:020000040801F1
:1000000010B5054C237833B9044B13B10448AFF352
:1000100000800123237010BD78270020000000001D
:10002000ECC9050808B5034B1BB103490348AFF3FE
:10003000008008BD000000007C270020ECC90508F6
:1000400081F0004102E000BF83F0004330B54FEA89
:1000500041044FEA430594EA050F08BF90EA020FF6
:100060001FBF54EA000C55EA020C7FEA645C7FEA89
:10007000655C00F0E2804FEA5454D4EB5555B8BFAC
:100080006D420CDD2C4480EA020281EA030382EA1D
:10009000000083EA010180EA020281EA0303362DAF
:1000A00088BF30BD11F0004F4FEA01314FF4801C82
:1000B0004CEA113102D0404261EB410113F0004F94
:1000C0004FEA03334CEA133302D0524263EB43034B
:1000D00094EA050F00F0A780A4F10104D5F1200EE9
:1000E0000DDB02FA0EFC22FA05F2801841F1000144
:1000F00003FA0EF2801843FA05F359410EE0A5F118
:1001000020050EF1200E012A03FA0EFC28BF4CF048
:10011000020C43FA05F3C01851EBE37101F00045FE
:1001200007D54FF0000EDCF1000C7EEB00006EEB0B
:100130000101B1F5801F1BD3B1F5001F0CD3490895
:100140005FEA30004FEA3C0C04F101044FEA4452EC
:1001500012F5800F80F09A80BCF1004F08BF5FEA73
:10016000500C50F1000041EB045141EA050130BD53
:100170005FEA4C0C404141EB0101013C28BFB1F565
:10018000801FE9D291F0000F04BF01460020B1FAB0
:1001900081F308BF2033A3F10B03B3F120020CDA83
:1001A0000C3208DD02F1140CC2F10C0201FA0CF061
:1001B00021FA02F10CE002F11402D8BFC2F1200CC6
:1001C00001FA02F120FA0CFCDCBF41EA0C0190407C
:1001D000E41AA2BF01EB0451294330BD6FEA0404C5
:1001E0001F3C1CDA0C340EDC04F11404C4F12002B0
:1001F00020FA04F001FA02F340EA030021FA04F3C2
:1002000045EA030130BDC4F10C04C4F1200220FA18
:1002100002F001FA04F340EA0300294630BD21FA56
:1002200004F0294630BD94F0000F83F4801306BF1C
:1002300081F480110134013D4EE77FEA645C18BF10
:100240007FEA655C29D094EA050F08BF90EA020FA7
:1002500005D054EA000C04BF1946104630BD91EA9F
:10026000030F1EBF0021002030BD5FEA545C05D1A2
:100270004000494128BF41F0004130BD14F58004E1
:100280003CBF01F5801130BD01F0004545F0FE4155
:1002900041F470014FF0000030BD7FEA645C1ABF8A
:1002A000194610467FEA655C1CBF0B46024650EAC1
:1002B000013406BF52EA033591EA030F41F40021ED
:1002C00030BD00BF90F0000F04BF0021704730B573
:1002D0004FF4806404F132044FF000054FF0000148
:1002E00050E700BF90F0000F04BF0021704730B509
:1002F0004FF4806404F1320410F0004548BF4042DE
:100300004FF000013EE700BF42004FEAE2014FEA32
:1003100031014FEA02701FBF12F07F4393F07F4F0D
:1003200081F06051704732F07F4208BF704793F010
:100330007F4F04BF41F40021704730B54FF4607423
:1003400001F0004521F000411CE700BF50EA010226
:1003500008BF704730B54FF000050AE050EA0102CF
:1003600008BF704730B511F0004502D5404261EB3F
:1003700041014FF4806404F132045FEA915C3FF480
:10038000D8AE4FF003025FEADC0C18BF03325FEA1D
:10039000DC0C18BF033202EBDC02C2F1200300FACE
:1003A00003FC20FA02F001FA03FE40EA0E0021FAF3
:1003B00002F11444BDE600BF70B54FF0FF0C4CF4E1
:1003C000E06C1CEA11541DBF1CEA135594EA0C0F93
:1003D00095EA0C0F00F0DEF82C4481EA030621EACE
:1003E0004C5123EA4C5350EA013518BF52EA033509
:1003F00041F4801143F4801338D0A0FB02CE4FF0BB
:100400000005E1FB02E506F00042E0FB03E54FF0EA
:100410000006E1FB03569CF0000F18BF4EF0010EE2
:10042000A4F1FF04B6F5007F64F5407404D25FEADE
:100430004E0E6D4146EB060642EAC62141EA555191
:100440004FEAC52040EA5E504FEACE2EB4F1FD0CD3
:1004500088BFBCF5E06F1ED8BEF1004F08BF5FEA51
:10046000500E50F1000041EB045170BD06F0004603
:1004700046EA010140EA020081EA0301B4EB5C04B0
:10048000C2BFD4EB0C0541EA045170BD41F48011A8
:100490004FF0000E013C00F3AB8014F1360FDEBFCD
:1004A000002001F0004170BDC4F10004203C35DAA9
:1004B0000C341BDC04F11404C4F1200500FA05F32C
:1004C00020FA04F001FA05F240EA020001F00042CD
:1004D00021F0004110EBD37021FA04F642EB060143
:1004E0005EEA430E08BF20EAD37070BDC4F10C046D
:1004F000C4F1200500FA04F320FA05F001FA04F231
:1005000040EA020001F0004110EBD37041F100011C
:100510005EEA430E08BF20EAD37070BDC4F1200527
:1005200000FA05F24EEA020E20FA04F301FA05F28F
:1005300043EA020321FA04F001F0004121FA04F237
:1005400020EA020000EBD3705EEA430E08BF20EA07
:10055000D37070BD94F0000F0FD101F00046400041
:1005600041EB010111F4801F08BF013CF7D041EAC3
:10057000060195F0000F18BF704703F000465200C7
:1005800043EB030313F4801F08BF013DF7D043EA98
:100590000603704794EA0C0F0CEA135518BF95EA4E
:1005A0000C0F0CD050EA410618BF52EA4306D1D1D5
:1005B00081EA030101F000414FF0000070BD50EAF4
:1005C000410606BF1046194652EA430619D094EA7E
:1005D0000C0F02D150EA013613D195EA0C0F05D168
:1005E00052EA03361CBF104619460AD181EA0301BC
:1005F00001F0004141F0FE4141F470014FF0000074
:1006000070BD41F0FE4141F4780170BD70B54FF00E
:10061000FF0C4CF4E06C1CEA11541DBF1CEA13558E
:1006200094EA0C0F95EA0C0F00F0A7F8A4EB050470
:1006300081EA030E52EA03354FEA013100F0888067
:100640004FEA03334FF0805545EA131343EA126330
:100650004FEA022245EA111545EA10654FEA0026E5
:100660000EF000419D4208BF964244F1FD0404F59E
:10067000407402D25B084FEA3202B61A65EB0305FA
:100680005B084FEA32024FF480104FF4002CB6EBB7
:10069000020E75EB030E22BFB61A754640EA0C0037
:1006A0005B084FEA3202B6EB020E75EB030E22BF77
:1006B000B61A754640EA5C005B084FEA3202B6EBB8
:1006C000020E75EB030E22BFB61A754640EA9C0077
:1006D0005B084FEA3202B6EB020E75EB030E22BF47
:1006E000B61A754640EADC0055EA060E18D04FEA05
:1006F000051545EA16754FEA06164FEAC30343EAA5
:1007000052734FEAC2025FEA1C1CC0D111F4801F71
:100710000BD141EA00014FF000004FF0004CB6E76A
:1007200011F4801F04BF01430020B4F1FD0C88BF09
:10073000BCF5E06F3FF6AFAEB5EB030C04BFB6EB14
:10074000020C5FEA500C50F1000041EB045170BD07
:100750000EF0004E4EEA113114EB5C04C2BFD4EB34
:100760000C0541EA045170BD41F480114FF0000EB8
:10077000013C90E645EA060E8DE60CEA135594EA34
:100780000C0F08BF95EA0C0F3FF43BAF94EA0C0F37
:100790000AD150EA01347FF434AF95EA0C0F7FF4AC
:1007A00025AF104619462CE795EA0C0F06D152EA00
:1007B00003353FF4FDAE1046194622E750EA4106E4
:1007C00018BF52EA43067FF4C5AE50EA41047FF4F5
:1007D0000DAF52EA43057FF4EBAE12E74FF0FF3C5A
:1007E00006E000BF4FF0010C02E000BF4FF0010C2B
:1007F0004DF804CD4FEA410C7FEA6C5C4FEA430CA4
:1008000018BF7FEA6C5C1BD001B050EA410C0CBFF2
:1008100052EA430C91EA030F02BF90EA020F002054
:10082000704710F1000F91EA030F58BF994208BFBB
:1008300090422CBFD8176FEAE37040F00100704778
:100840004FEA410C7FEA6C5C02D150EA013C07D1CF
:100850004FEA430C7FEA6C5CD6D152EA033CD3D01A
:100860005DF8040B704700BF8446104662468C4614
:100870001946634600E000BF01B5FFF7B7FF002847
:1008800048BF10F1000F01BD4DF808EDFFF7F4FF70
:100890000CBF012000205DF808FB00BF4DF808EDFB
:1008A000FFF7EAFF34BF012000205DF808FB00BF1E
:1008B0004DF808EDFFF7E0FF94BF012000205DF840
:1008C00008FB00BF4DF808EDFFF7CEFF94BF0120F5
:1008D00000205DF808FB00BF4DF808EDFFF7C4FFEE
:1008E00034BF012000205DF808FB00BF4FEA410C37
:1008F0007FEA6C5C02D150EA013C0AD14FEA430C1A
:100900007FEA6C5C02D152EA033C02D14FF0000056
:1009100070474FF0010070474FEA410212F5001294
:1009200015D211D56FF47873B3EB625212D94FEA36
:10093000C12343F0004343EA505311F0004F23FA20
:1009400002F018BF404270474FF00000704750EA75
:10095000013005D111F0004008BF6FF00040704732
:100960004FF00000704700BF4A0011D212F500128C
:1009700011D20DD56FF47873B3EB62520ED44FEAF7
:10098000C12343F0004343EA505323FA02F0704777
:100990004FF00000704750EA013002D14FF0FF30B5
:1009A00070474FF0000070474FEA4102B2F1E04358
:1009B00024BFB3F5001CDCF1FE5C0DD901F0004C46
:1009C0004FEAC0024CEA5070B2F1004F40EB830096
:1009D00008BF20F00100704711F0804F21D113F1C2
:1009E0003872BCBF01F00040704741F480114FEAFB
:1009F0005252C2F11802C2F1200C10FA0CF320FA84
:100A000002F018BF40F001004FEAC1234FEAD323A0
:100A100003FA0CFC40EA0C0023FA02F34FEA43030A
:100A2000CCE77FEA625307D150EA01331EBF4FF093
:100A3000FE4040F44000704701F0004040F0FE40AE
:100A400040F40000704700BF80F0004002E000BFAB
:100A500081F0004142001FBF5FEA410392EA030FA9
:100A60007FEA226C7FEA236C6AD04FEA1262D2EBF3
:100A70001363C1BFD218414048404140B8BF5B42F8
:100A8000192B88BF704710F0004F40F4000020F091
:100A90007F4018BF404211F0004F41F4000121F0A7
:100AA0007F4118BF494292EA030F3FD0A2F10102F1
:100AB00041FA03FC10EB0C00C3F1200301FA03F12F
:100AC00000F0004302D5494260EB4000B0F5000F52
:100AD00013D3B0F1807F06D340084FEA310102F111
:100AE0000102FE2A51D2B1F1004F40EBC25008BFC3
:100AF00020F0010040EA03007047490040EB00008D
:100B0000013A28BFB0F5000FEDD2B0FA80FCACF18D
:100B1000080CB2EB0C0200FA0CF0AABF00EBC250BA
:100B200052421843BCBFD0401843704792F0000FA8
:100B300081F4000106BF80F400000132013BB5E7FB
:100B40004FEA41037FEA226C18BF7FEA236C21D071
:100B500092EA030F04D092F0000F08BF08467047D6
:100B600090EA010F1CBF0020704712F07F4F04D1A4
:100B7000400028BF40F00040704712F100723CBFB7
:100B800000F50000704700F0004343F0FE4040F4E1
:100B9000000070477FEA226216BF08467FEA23639F
:100BA0000146420206BF5FEA412390EA010F40F48A
:100BB000800070474FF0000304E000BF10F00043D6
:100BC00048BF40425FEA000C08BF704743F09643BD
:100BD00001464FF000001CE050EA010208BF7047D8
:100BE0004FF000030AE000BF50EA010208BF70475F
:100BF00011F0004302D5404261EB41015FEA010C74
:100C000002BF84460146002043F0B64308BFA3F16B
:100C10008053A3F50003BCFA8CF2083AA3EBC2534D
:100C200010DB01FA02FC634400FA02FCC2F120026C
:100C3000BCF1004F20FA02F243EB020008BF20F0A3
:100C40000100704702F1200201FA02FCC2F1200209
:100C500050EA4C0021FA02F243EB020008BF20EAFE
:100C6000DC7070477BB972B90029BEBF00204FF01D
:100C7000004106E008BF00281CBF6FF000414FF0A4
:100C8000FF3000F0FDB9ADF1080C6DE904CE00298C
:100C900009DB002B1ADB00F08BF8DDF804E0DDE95E
:100CA000022304B07047404261EB4101002B1BDB83
:100CB00000F07EF8DDF804E0DDE9022304B04042F4
:100CC00061EB4101524263EB43037047524263EBD5
:100CD000430300F06DF8DDF804E0DDE9022304B021
:100CE000404261EB41017047524263EB430300F025
:100CF0005FF8DDF804E0DDE9022304B0524263EB63
:100D00004303704753B94AB9002908BF00281CBFE4
:100D10004FF0FF314FF0FF3000F0B2B9ADF1080CE9
:100D20006DE904CE00F044F8DDF804E0DDE90223CB
:100D300004B07047D0B5FFF7E7FA0C4B0022064627
:100D40000F46FFF739FBFFF70FFE0446FFF7BAFA2D
:100D5000074B0022FFF730FB02460B463046394670
:100D6000FFF772F9FFF700FE2146D0BD0000F03D0D
:100D70000000F041D0B50C4B002206460F46FFF7AD
:100D80001BFBFFF7F1FD0446FFF79CFA074B00221F
:100D9000FFF712FB02460B4630463946FFF754F97F
:100DA000FFF7E2FD2146D0BD0000F03D0000F0411C
:100DB0002DE9F047089D04468E46002B4DD18A420E
:100DC000944669D9B2FA82F252B101FA02F3C2F141
:100DD000200120FA01F10CFA02FC41EA030E9440D2
:100DE0004FEA1C48210CBEFBF8F61FFA8CF708FBF3
:100DF00016E341EA034306FB07F199420AD91CEBCB
:100E0000030306F1FF3080F01F81994240F21C81FC
:100E1000023E63445B1AA4B2B3FBF8F008FB103344
:100E200044EA034400FB07F7A7420AD91CEB040479
:100E300000F1FF3380F00A81A74240F20781644449
:100E4000023840EA0640E41B00261DB1D4400023CE
:100E5000C5E900433146BDE8F0878B4209D9002D32
:100E600000F0EF800026C5E9000130463146BDE8BC
:100E7000F087B3FA83F6002E4AD18B4202D3824226
:100E800000F2F980841A61EB030301209E46002DD5
:100E9000E0D0C5E9004EDDE702B9FFDEB2FA82F22A
:100EA000002A40F09280A1EB0C014FEA1C471FFA88
:100EB0008CFE0126200CB1FBF7F307FB131140EA6F
:100EC00001410EFB03F0884208D91CEB010103F13C
:100ED000FF3802D2884200F2CB804346091AA4B2FE
:100EE000B1FBF7F007FB101144EA01440EFB00FED2
:100EF000A64508D91CEB040400F1FF3102D2A64537
:100F000000F2BB800846A4EB0E0440EA03409CE7D5
:100F1000C6F12007B34022FA07FC4CEA030C20FA82
:100F200007F401FA06F31C43F9404FEA1C4900FAA2
:100F300006F3B1FBF9F8200C1FFA8CFE09FB18111F
:100F400040EA014108FB0EF0884202FA06F20BD992
:100F50001CEB010108F1FF3A80F08880884240F2E2
:100F60008580A8F102086144091AA4B2B1FBF9F026
:100F700009FB101144EA014100FB0EFE8E4508D921
:100F80001CEB010100F1FF346CD28E456AD90238A6
:100F9000614440EA0840A0FB0294A1EB0E01A1428B
:100FA000C846A64656D353D05DB1B3EB080261EBF9
:100FB0000E0101FA07F722FA06F3F1401F43C5E9D3
:100FC000007100263146BDE8F087C2F12003D84009
:100FD0000CFA02FC21FA03F3914001434FEA1C474B
:100FE0001FFA8CFEB3FBF7F007FB10360B0C43EA3D
:100FF000064300FB0EF69E4204FA02F408D91CEBED
:10100000030300F1FF382FD29E422DD902386344EA
:101010009B1B89B2B3FBF7F607FB163341EA03418A
:1010200006FB0EF38B4208D91CEB010106F1FF38D9
:1010300016D28B4214D9023E6144C91A46EA0046D0
:1010400038E72E46284605E70646E3E61846F8E662
:101050004B45A9D2B9EB020864EB0C0E0138A3E7AB
:101060004646EAE7204694E74046D1E7D0467BE78C
:10107000023B614432E7304609E76444023842E704
:10108000704700BF844641EA000313F003036DD1AB
:10109000403A41D351F8043B40F8043B51F8043B3B
:1010A00040F8043B51F8043B40F8043B51F8043B42
:1010B00040F8043B51F8043B40F8043B51F8043B32
:1010C00040F8043B51F8043B40F8043B51F8043B22
:1010D00040F8043B51F8043B40F8043B51F8043B12
:1010E00040F8043B51F8043B40F8043B51F8043B02
:1010F00040F8043B51F8043B40F8043B51F8043BF2
:1011000040F8043B51F8043B40F8043B51F8043BE1
:1011100040F8043B403ABDD2303211D351F8043B81
:1011200040F8043B51F8043B40F8043B51F8043BC1
:1011300040F8043B51F8043B40F8043B103AEDD230
:101140000C3205D351F8043B40F8043B043AF9D281
:10115000043208D0D2071CBF11F8013B00F8013B54
:1011600001D30B8803806046704700BF082A13D361
:101170008B078DD010F003038AD0C3F10403D21A79
:10118000DB071CBF11F8013B00F8013B80D331F8AD
:10119000023B20F8023B7BE7043AD9D3013A11F82D
:1011A000013B00F8013BF9D20B7803704B78437098
:1011B0008B788370604670470000000000000000DC
:1011C000A2EB0300704700BF02780B78012A28BF0A
:1011D0009A42F5D16DE9044540EA0104CDE9026780
:1011E0006FF0000C4FEA447212B380EA010414F06D
:1011F000070F6AD100F0070420F0070004F0030590
:1012000021F007014FEAC505F0E8042314F0040FAC
:10121000F1E804670CFA05F462EA040266EA0406DF
:101220000AD063EA0403624667EA0407664603E0FD
:10123000F0E80423F1E8046782FA4CF582EA060438
:10124000A4FA8CF46CBB83FA4CF583EA0705A5FA83
:101250008CF595B950E9022351E9026782FA4CF501
:1012600082EA0604A4FA8CF483FA4CF583EA0705B3
:10127000A5FA8CF52543DBD09CB92DBAB5FA85F4D7
:1012800024F0070427FA04F1DDE9026723FA04F3E6
:1012900003F0FF0001F0FF01FDE80445A0EB0100B1
:1012A000704724BAB4FA84F424F0070426FA04F14F
:1012B000DDE9026722FA04F202F0FF0001F0FF010B
:1012C000FDE80445A0EB0100704714F0030F3CD18A
:1012D00010F0030428D150F8082B51F8083B82FA8B
:1012E0004CF582EA0305A5FA8CF55DB950F8042C9B
:1012F00051F8043C82FA4CF582EA0305A5FA8CF514
:10130000002DE8D02DBAB5FA85F424F0070423FAAD
:1013100004F122FA04F202F0FF0001F0FF01FDE8FF
:101320000445A0EB010070474FEAC40420F003001D
:1013300050F8082B21F0030151F8083B0CFA04F493
:1013400062EA040263EA0403C9E710F003041AD056
:10135000A1EB040120F00300E40750F8042B06D0B1
:101360000FD28B785FFAA2F4E41A06D12BB1CB78B6
:101370005FFAB2F4E41A00D11BB920465DF8104BB5
:10138000704701F1040150F8042BCC0721F0030150
:1013900051F8043B48D824D222F07F4482FA4CF51D
:1013A00094EA1325A5FA8CF50AD165B951F8043BE6
:1013B00084EA0204B4EB036F0ED150F8042BEBE780
:1013C0004FEA132355E035F07F454DD10878FDE80D
:1013D0000445C0F1000070474FEA126203F0FF03BA
:1013E00047E002EA1C4482FA4CF594EA1345A5FA58
:1013F0008CF50AD165B951F8043B84EA0204B4EBD8
:10140000034F0CD150F8042BEBE74FEA134330E0C5
:1014100015EA1C4528D10B884FEA124229E04FEA11
:10142000124203EA1C4324E002F0FF0482FA4CF566
:1014300094EA1365A5FA8CF50AD165B951F8043B15
:1014400084EA0204B4EB032F09D150F8042BEBE734
:101450004FEA13630DE015F0FF0F05D10B684FEA5B
:10146000122223F07F4304E04FF00000FDE8044522
:10147000704712BA1BBA82FA4CF482EA0304A4FA47
:101480008CF5B5FA85F402FA04F203FA04F34FEA94
:101490001260FDE80445A0EB1360704700000000F7
:1014A000000000000000000000000000000000003C
:1014B000000000000000000000000000000000002C
:1014C00090F800F06DE9024520F007016FF0000C84
:1014D00010F0070491F820F040F049804FF000042C
:1014E0006FF00700D1E9002391F840F000F1080007
:1014F00082FA4CF2A4FA8CF283FA4CF3A2FA8CF33F
:101500004BBBD1E9022382FA4CF200F10800A4FAA5
:101510008CF283FA4CF3A2FA8CF3E3B9D1E90423F9
:1015200082FA4CF200F10800A4FA8CF283FA4CF330
:10153000A2FA8CF37BB9D1E9062301F1200182FAEA
:101540004CF200F10800A4FA8CF283FA4CF3A2FAF0
:101550008CF3002BC6D0002A04BF04301A4612BAFE
:10156000B2FA82F2FDE8024500EBD2007047D1E901
:10157000002304F00305C4F100004FEAC50514F090
:10158000040F91F840F00CFA05F562EA05021CBF61
:1015900063EA050362464FF00004A9E7000000007B
:1015A00001F0FF01102A2BDB10F0070F08D010F814
:1015B000013B013A8B422DD010F0070F42B3F6D118
:1015C000F0B441EA012141EA014122F007047FF031
:1015D00000070023F0E80256083C85EA010586EA88
:1015E000010685FA47F5A3FA87F586FA47F6A5FAC4
:1015F00087F68EB9EED1F0BC01F0FF0102F00702D0
:1016000032B110F8013B013A83EA010313B1F8D17A
:101610000020704701387047002D06BF354603385B
:10162000073815F0010F07D1013015F4807F02BF94
:10163000013015F4C03F0130F0BC0138704700BFE5
:1016400000B583B000238DF807300DF02AFA009022
:10165000009B084A0849122019F097F80DF05AF932
:1016600003468DF807309DF80730184603B05DF843
:1016700004FB00BF08CA050814CA050800B585B0F8
:10168000019001238DF80F30019800F095F8034682
:101690008DF80F309DF80F3083F00103DBB2002B83
:1016A00005D0019805F0AAFB03468DF80F309DF890
:1016B0000F30184605B05DF804FB000000B587B098
:1016C00003468DF80730002305930023049336F07A
:1016D00075FE03900023049323E01649049A1346F1
:1016E000DB0013449B000B4404331B789DF8072058
:1016F0009A4213D10F49049A1346DB0013449B000E
:101700000B4410331B78002B08D0049A1346DB00DF
:1017100013449B00074A1344059306E0049B0133DE
:101720000493049A039B9A42D7D3059B184607B0AB
:101730005DF804FBD01C002000B587B003468DF88F
:101740000730002305930023049336F037FE0390FF
:101750000023049323E01749049A13469B00134483
:101760009B000B4404331B789DF807209A4213D149
:101770001049049A13469B0013449B000B441033FA
:101780001B78002B10D0049A13469B0013449B0037
:10179000084A1344059307E0049B01330493049A19
:1017A000039B9A42D7D300E000BF059B184607B0C1
:1017B0005DF804FB78EF060882B0034600228DF83E
:1017C0000720B3F1005F05D3054A934202D80123F5
:1017D0008DF807309DF80730184602B0704700BFFB
:1017E0000000032000B587B003900291019200939E
:1017F00000238DF81330029A019B9A420AD2029B71
:10180000591C009B019A0398FFF7ECFF03468DF8E3
:10181000133012E0029A019B9A420BD10DF113038F
:10182000039AD31A0593009B059A1A6001238DF839
:10183000133002E000238DF813309DF81330184662
:1018400007B05DF804FB000000B587B0039002917B
:10185000019200238DF81730019B029A0021039812
:10186000FFF7C0FF03468DF81730019B1B68029AF3
:1018700004490A2018F0A6FF9DF81730184607B053
:101880005DF804FB30CA050800B583B000238DF86D
:10189000073009490A2018F078FF4FF47A7026F0D3
:1018A00091FB00F0C9FD03468DF807309DF8073025
:1018B000184603B05DF804FB4CCA05082DE9F00F8B
:1018C00086B0019001238DF81730002304934FF068
:1018D00000024FF00003CDE902230023049313E03C
:1018E000019A049B06339B0013445B6800221E464A
:1018F0001746DDE9022312EB060A43EB070BCDE99D
:1019000002AB049B01330493049B032BE8D9019B96
:101910005B6B00221C461546DDE9022312EB04082E
:1019200043EB0509CDE90289DDE90223134303D125
:1019300001238DF8173002E000238DF817309DF851
:101940001730184606B0BDE8F00F704700B585B0F7
:10195000019001238DF80F300198FFF7AFFF034688
:101960008DF80F309DF80F3083F00103DBB2002BB0
:1019700004D0019A85490A2018F09BFF9DF80F308A
:10198000002B13D0019B1B681846FFF715FF034679
:101990008DF80F309DF80F3083F00103DBB2002B80
:1019A00004D0019A7A490A2018F083FF9DF80F307D
:1019B000002B15D0019B5B68184605F01FFA034603
:1019C0008DF80F309DF80F3083F00103DBB2002B50
:1019D00006D0019B5B681A466E490A2018F069FF21
:1019E0009DF80F30002B15D0019BDB68184605F0E1
:1019F00005FA03468DF80F309DF80F3083F0010390
:101A0000DBB2002B06D0019B5B681A4662490A20B4
:101A100018F04FFF9DF80F30002B15D0019B1B696C
:101A2000184605F0EBF903468DF80F309DF80F309E
:101A300083F00103DBB2002B06D0019B5B681A46E2
:101A400056490A2018F035FF9DF80F30002B15D0AD
:101A5000019B5B69184605F0D1F903468DF80F30FC
:101A60009DF80F3083F00103DBB2002B06D0019B01
:101A70005B681A464A490A2018F01BFF9DF80F3090
:101A8000002B15D0019B9B69184605F0B7F903465A
:101A90008DF80F309DF80F3083F00103DBB2002B7F
:101AA00006D0019B5B681A463E490A2018F001FFE8
:101AB0009DF80F30002B15D0019B1B6B184605F0CD
:101AC0009DF903468DF80F309DF80F3083F0010328
:101AD000DBB2002B06D0019B5B681A4632490A2014
:101AE00018F0E7FE9DF80F30002B15D0019BDB6A44
:101AF000184605F083F903468DF80F309DF80F3036
:101B000083F00103DBB2002B06D0019B5B681A4611
:101B100026490A2018F0CDFE9DF80F30002B15D075
:101B2000019B9B6B184605F069F903468DF80F3051
:101B30009DF80F3083F00103DBB2002B06D0019B30
:101B40005B681A461A490A2018F0B3FE9DF80F3058
:101B5000002B15D0019B9B68184605F04FF90346F2
:101B60008DF80F309DF80F3083F00103DBB2002BAE
:101B700006D0019B5B681A460E490A2018F099FEB0
:101B80009DF80F30184605B05DF804FB58CA0508EB
:101B900074CA050890CA0508A8CA0508C0CA05087D
:101BA000D8CA0508F0CA050808CB050820CB0508E7
:101BB00034CB050848CB050810B58CB003900291D2
:101BC000019205AB00221A605A609A60019B029A4A
:101BD0001C490A2018F031FE019B9B080B930B9BBC
:101BE000002B25D000230493029A019BD31A0A9359
:101BF00004AB154A0B990A9813F0B2FB03468DF813
:101C000027309DF82730002B12D000230893049B27
:101C10000B9AD31A0893089B642202FB03F318461D
:101C20000B9905AB052221F0E2FD03468DF8273024
:101C3000039B1C4605AB93E8070084E80700039864
:101C40000CB010BD5CCB0508EFBEADDE00B585B0B5
:101C5000019000238DF80F30019B02930298FFF74B
:101C600075FE03468DF80F309DF80F30184605B00D
:101C70005DF804FB82B001238DF80730064BD3F8E2
:101C80008830054A43F47003C2F888309DF8073065
:101C9000184602B0704700BF00ED00E086B001902A
:101CA00000238DF8173001238DF81730184B9A6AEE
:101CB000184B1B68164913438B62EFF3138303938E
:101CC000039B049371B600BF114B5B69104A43F448
:101CD00080735361019B1B780D4B9A6A0D4B1B68F7
:101CE0001340002B02D000238DF81730084B5B699E
:101CF000074A23F480735361049B0293029B83F38E
:101D0000138800BF9DF81730184606B0704700BF13
:101D100000ED00E0C0B3060800B587B001900023D5
:101D20000593019A15490A2018F04CFD019B049374
:101D300001238DF80F300FE00498FFF7AFFF034643
:101D40008DF80F309DF80F30002B0AD0059B013322
:101D50000593049B013304939DF80F30002BEBD1C6
:101D600000E000BF059B019A05490A2018F02AFDF2
:101D7000059B184607B05DF804FB00BFC8CB0508FB
:101D8000D4CB050800B583B001238DF807304FF0A0
:101D90000050FFF7C1FF0090009B4FF00052054933
:101DA0000A2018F00FFD9DF80730184603B05DF8C3
:101DB00004FB00BF04CC050884B00190009100230F
:101DC0008DF80F30019B002B11D0009B002B0ED003
:101DD000019B1A68009B1A60019B9A68009B9A609D
:101DE000019BDA68009BDA6001238DF80F309DF8C3
:101DF0000F30184604B0704700B585B0019000233D
:101E00008DF80F30019B002B35D001238DF80F305A
:101E1000019B9B681846FFF7CFFC034683F0010344
:101E2000DBB2002B08D0019B1B791A46019B9B68F3
:101E300014490A2018F0E3FC019BDB681846FFF701
:101E4000BBFC034683F00103DBB2002B08D0019BEF
:101E50001B791A46019BDB680B490A2018F0CFFC5E
:101E6000019B1B68002B06D1019B1B791A46074971
:101E70000A2018F0C4FC9DF80F30184605B05DF834
:101E800004FB00BF20CC05083CCC050858CC050855
:101E900000B587B003468DF8073000238DF8173062
:101EA0009DF807301A4632490A2018F06EFC9DF85A
:101EB00007301846FFF740FC0490049B002B4AD0E3
:101EC0000498FFF799FF03468DF817309DF81730F7
:101ED000002B38D0049802F05DFD03461A462549D0
:101EE0000A2018F052FC9DF807301846FFF7E6FB71
:101EF0000390039B002B1ED003990498FFF75CFF0F
:101F000003468DF81730FFF7B5FE03468DF81730FE
:101F1000039B01221A74039B0022DA61039B0022B7
:101F20009A61039B00225A61039B01225A74012388
:101F30008DF8173016E09DF807301A460E490A2032
:101F400018F0B7FC0EE09DF807301A460B490A203E
:101F500018F0AFFC06E09DF807301A4607490A2042
:101F600018F04DFC9DF81730184607B05DF804FBDB
:101F70006CCC050874CC050878CC050884CC050821
:101F800082B000238DF807309DF80730184602B064
:101F90007047000008B5FFF7F3FF034683F0010325
:101FA000DBB2002B0AD0064B1B68002B01D172B6A6
:101FB00000BF034B1B680133014A136000BF08BD1B
:101FC0009427002008B5FFF7DBFF034683F00103E9
:101FD000DBB2002B0ED0084B1B68002B0AD0064B3F
:101FE0001B68013B044A1360034B1B68002B01D1A3
:101FF00062B600BF00BF08BD9427002000B585B0C1
:1020000001238DF80730FFF7BDFE03468DF807303A
:102010000023039336F0D2F90090002302930023AB
:10202000029311E0029BDBB21846FFF731FF034633
:102030008DF807309DF80730002B02D0039B013349
:102040000393029B01330293029A009B9A42E9D9BF
:102050000099039827F0BAFE03468DF807309DF8E3
:102060000730184605B05DF804FB0000BFF34F8F42
:1020700000BF064BDB6803F4E0620449044B1343E2
:10208000CB60BFF34F8F00BF00BFFDE700ED00E066
:102090000400FA0530B587B003460A468DF80F30C4
:1020A00013468DF80E3000238DF817309DF80E3052
:1020B000032B00F2D9809DF80F409DF80E509DF83B
:1020C0000E30184600F030FA034600932B462246A5
:1020D0006849012018F076FB00230493664BD3F87F
:1020E000883004939DF80F300B2B00F2B18001A2D1
:1020F00052F823F02521010843210108612101083C
:102100007F2101089D210108BB210108D921010877
:10211000F721010851220108512201081522010866
:10212000332201089DF80E3003F00303DAB29DF864
:10213000103062F301038DF8103001238DF8173051
:102140008AE09DF80E3003F00303DAB29DF81030F8
:1021500062F383038DF8103001238DF817307BE094
:102160009DF80E3003F00303DAB29DF8103062F3ED
:1021700005138DF8103001238DF817306CE09DF8B1
:102180000E3003F00303DAB29DF8103062F38713C8
:102190008DF8103001238DF817305DE09DF80E307A
:1021A00003F00303DAB29DF8113062F301038DF8F6
:1021B000113001238DF817304EE09DF80E3003F0FA
:1021C0000303DAB29DF8113062F383038DF8113006
:1021D00001238DF817303FE09DF80E3003F0030324
:1021E000DAB29DF8113062F305138DF81130012336
:1021F0008DF8173030E09DF80E3003F00303DAB2AB
:102200009DF8113062F387138DF8113001238DF89A
:10221000173021E09DF80E3003F00303DAB29DF889
:10222000123062F305138DF8123001238DF8173048
:1022300012E09DF80E3003F00303DAB29DF812307D
:1022400062F387138DF8123001238DF8173003E005
:1022500000238DF8173000BF9DF81730002B03D0F6
:10226000054A049BC2F888309DF81730184607B01D
:1022700030BD00BF94CC050800ED00E084B00346FB
:1022800000918DF8073000238DF80F30009B002B54
:1022900000F0A28000230293524BD3F888300293BF
:1022A0009DF807300B2B00F2938001A252F823F027
:1022B000E1220108F922010811230108292301085C
:1022C00041230108592301087123010889230108CA
:1022D000D1230108D1230108A1230108B923010852
:1022E0009DF80830C3F30103DBB21A46009B1A7055
:1022F00001238DF80F306FE09DF80830C3F38103A0
:10230000DBB21A46009B1A7001238DF80F3063E090
:102310009DF80830C3F30113DBB21A46009B1A7014
:1023200001238DF80F3057E09DF80830C3F3811377
:10233000DBB21A46009B1A7001238DF80F304BE078
:102340009DF80930C3F30103DBB21A46009B1A70F3
:1023500001238DF80F303FE09DF80930C3F381036E
:10236000DBB21A46009B1A7001238DF80F3033E060
:102370009DF80930C3F30113DBB21A46009B1A70B3
:1023800001238DF80F3027E09DF80930C3F3811346
:10239000DBB21A46009B1A7001238DF80F301BE048
:1023A0009DF80A30C3F30113DBB21A46009B1A7082
:1023B00001238DF80F300FE09DF80A30C3F381132D
:1023C000DBB21A46009B1A7001238DF80F3003E030
:1023D00000238DF80F3000BF9DF80F30184604B071
:1023E000704700BF00ED00E086B003468DF807306F
:1023F00000238DF817309DF80730002B05D00023FF
:102400000493049B83F3108805E001230393039B4B
:1024100083F3108800BF9DF81730184606B0704748
:1024200084B003468DF8073000238DF80F309DF8F7
:102430000F30184604B0704700B583B001238DF803
:1024400007300549012018F0A0F911F0F6FD72B629
:1024500000BFFFF70BFE00BFACCC050886B00190B3
:1024600000238DF8173072B600BF01230393039B3E
:1024700083F3108800BF0E4A019B936000230493EE
:10248000049B83F3108800BF62B600BF084B9B68B3
:10249000019A9A4203D101238DF8173002E00023FC
:1024A0008DF817309DF81730184606B0704700BFFA
:1024B00000ED00E000B583B000238DF807304FF049
:1024C0000060FFF7CBFF03468DF807309DF807301B
:1024D000184603B05DF804FB00B585B003460091D3
:1024E0008DF8073000238DF80F309DF80720009BF2
:1024F0000B49012018F066F99DF80730072B09D821
:10250000084A9DF807300233002142F823100123C6
:102510008DF80F309DF80F30184605B05DF804FBBC
:10252000BCCC0508002000E084B003468DF80730DD
:10253000114B03939DF80730032B17D801A252F8D3
:1025400023F000BF552501085B250108612501081E
:1025500067250108094B039309E0094B039306E043
:10256000084B039303E0084B039300E000BF039B79
:10257000184604B0704700BFF0CC0508F4CC05083D
:10258000FCCC050808CD050814CD050884B0034629
:102590008DF807300A4B03939DF80730002B02D0CB
:1025A000012B03D005E0074B039305E0064B039393
:1025B00002E0034B039300BF039B184604B070472F
:1025C000F0CC05081CCD050820CD050884B00346D5
:1025D0008DF807300A4B03939DF80730002B02D08B
:1025E000012B03D005E0074B039305E0064B039353
:1025F00002E0034B039300BF039B184604B07047EF
:10260000F0CC0508FCCC05083CCD050884B0034699
:102610008DF807300A4B03939DF80730002B02D04A
:10262000012B03D005E0074B039305E0064B039312
:1026300002E0034B039300BF039B184604B07047AE
:10264000F0CC05084CCD050850CD050800B585B087
:10265000019000238DF80F30019B002B67D001996A
:10266000364818F0F5FE019B9B681946344818F06F
:10267000EFFE019B1B681946324818F0E9FE019BEA
:102680005B681946304818F0E3FE019BDB68194689
:102690002E4818F0DDFE019B1B6919462C4818F0E6
:1026A000D7FE019B5B6919462A4818F0D1FE019BB1
:1026B0005B6A1946284818F0CBFE019B9B6A1946B5
:1026C000264818F0C5FE019BDB6A1946244818F01D
:1026D000BFFE019B1B6B1946224818F0B9FE019BF7
:1026E0005B6B1946204818F0B3FE019B9B6B1946A3
:1026F0001E4818F0ADFE019BDB6B19461C4818F014
:10270000A7FE019B9B6C19461A4818F0A1FE019B7D
:10271000DB6C1946184818F09BFE019BD3F88830F3
:102720001946164818F094FE01238DF80F309DF8D5
:102730000F30184605B05DF804FB00BF54CD050806
:1027400060CD050870CD050880CD050890CD050841
:10275000A0CD0508B0CD0508C0CD0508D0CD050831
:10276000E0CD0508F0CD050800CE050810CE05081F
:1027700020CE050830CE050840CE050850CE05080D
:1027800010B584B0019001238DF80F30019B0293A6
:102790009DF80830C3F30003DBB21C469DF80830F7
:1027A000C3F30003DBB21846FFF710FF03461A46D7
:1027B0002146184818F04CFE9DF80830C3F340033A
:1027C000DBB21C469DF80830C3F34003DBB2184669
:1027D000FFF71CFF03461A4621460F4818F038FE43
:1027E0009DF80830C3F38003DBB21C469DF8083027
:1027F000C3F38003DBB21846FFF7C8FE03461A4650
:102800002146064818F024FE9DF80F30184604B003
:1028100010BD00BF60CE050874CE050884CE050843
:1028200000B583B001238DF80330002301931148D4
:1028300018F00EFE0023019312E001990E4818F0E3
:1028400007FE0E4A019B023352F8233019460C480A
:1028500018F0FEFD074818F0FBFD019B01330193C2
:10286000019B072BE9D99DF80330184603B05DF8AA
:1028700004FB00BFB0CE0508B4CE0508002000E080
:10288000BCCE050800B589B00190009100238DF8F9
:102890001F30019B002B28D119491A4818F0D8FD88
:1028A0004FF000631B680693174B1B681A46069B84
:1028B0009B1A0593144B1B68059A1449012017F0C5
:1028C00064FF28F025F81248FFF7C0FE03468DF894
:1028D0001F30EFF314830393039B04930498FFF7D3
:1028E0004FFF01238DF81F3003E00A49012017F044
:1028F000E0FF9DF81F30184609B05DF804FB00BFEB
:102900002D230408C8CE050804000020D8CE0508F1
:1029100000ED00E000CF050800B585B00190009102
:1029200000238DF80F301F4B0293019B002B07D122
:10293000029B184602F0A4F801238DF80F302AE01C
:10294000019B012B23D101238DF80F30009B1B68C5
:1029500002AA1146184613F089FF03468DF80F307E
:102960009DF80F3083F00103DBB2002B06D0009BF3
:102970001B681A460C49012017F09BFF9DF80F3089
:10298000002B08D0029B184602F07AF803E00749B2
:10299000012017F08EFF9DF80F30184605B05DF846
:1029A00004FB00BF004E00200CCF050834CF050803
:1029B00000B585B00190009101238DF80E30002301
:1029C0008DF80F30019B012B0AD1009B1B680DF184
:1029D0000E021146184614F0D9FA03468DF80F304E
:1029E0009DF80F30002B10D09DF80E301846FFF7E1
:1029F000FBFC03468DF80F309DF80F30002B08D0FC
:102A00000749012017F0DEFE03E00649012017F018
:102A100050FF9DF80F30184605B05DF804FB00BF6D
:102A200040CF050844CF050830B587B00390029128
:102A300000238DF8173000238DF8163000238DF811
:102A40001530039B002B02DB01238DF81730039B0D
:102A5000002B0ADD029B1B680DF116021146184679
:102A600014F0CFF903468DF81730039B012B0BDDD3
:102A7000029B04331B680DF115021146184614F031
:102A8000C0F903468DF817309DF81730002B7ED023
:102A9000039B022B5CD0039B022B7DDC039B002B52
:102AA00003D0039B012B34D076E000238DF8163041
:102AB0002AE000238DF815309DF816300DF115022F
:102AC00011461846FFF7DAFB03468DF817309DF8DC
:102AD0001730002B12D09DF816301C469DF815308B
:102AE0001D469DF815301846FFF71EFD034600935E
:102AF0002B4622462B49012017F064FE9DF8163024
:102B00000133DBB28DF816309DF81630102BD0D97A
:102B100043E09DF816300DF1150211461846FFF7F7
:102B2000ADFB03468DF817309DF816301C469DF816
:102B300015301D469DF815301846FFF7F5FC034685
:102B400000932B4622461749012017F03BFE24E054
:102B50009DF816301C469DF815301D469DF8153021
:102B60001846FFF7E1FC034600932B4622460E4928
:102B7000012017F027FE9DF816309DF8152011460C
:102B80001846FFF787FA03468DF8173005E0074926
:102B9000012017F08EFE00E000BF9DF817301846A8
:102BA00007B030BD58CF050870CF050888CF05089D
:102BB00000B585B00190009101238DF80E300023FF
:102BC0008DF80F30019B012B0AD1009B1B680DF182
:102BD0000E021146184614F0D9F903468DF80F304D
:102BE0009DF80F30002B10D09DF80E301846FFF7DF
:102BF00017FC03468DF80F309DF80F30002B08D0DE
:102C00000749012017F0DEFD03E00649012017F017
:102C100050FE9DF80F30184605B05DF804FB00BF6C
:102C200040CF0508A0CF050800B585B00190009100
:102C300000238DF80F3000238DF80E30002302930F
:102C4000019B002B02DB01238DF80F30019B002B31
:102C50000ADD009B1B680DF10E021146184614F0A8
:102C6000D0F803468DF80F30019B012B0ADD009B45
:102C700004331B6802AA1146184613F0F7FD0346F9
:102C80008DF80F309DF80F30002B1BD0019B002BCF
:102C900003D0019B022B06D010E0FFF7C1FD0346D5
:102CA0008DF80F3012E09DF80E30029A114618464A
:102CB000FFF712FC03468DF80F3007E000238DF874
:102CC0000F3003E00449012017F0F3FD9DF80F30A9
:102CD000184605B05DF804FBB4CF050882B0034682
:102CE0008DF807309DF90730002B0CDB9DF807307D
:102CF00003F01F0205499DF907305B09012000FA26
:102D000002F241F8232000BF02B0704700E100E06A
:102D100082B003468DF807309DF90730002B13DB96
:102D20009DF8073003F01F0209499DF907305B0940
:102D3000012000FA02F2203341F82320BFF34F8F25
:102D400000BFBFF36F8F00BF00BF02B0704700BF6E
:102D500000E100E000B583B001238DF805300023C9
:102D6000ADF806304FF6F273ADF806300CE0BDF862
:102D700006305BB21846FFF7CBFFBDF906309BB2B9
:102D800001339BB2ADF80630BDF90630512BEEDDB4
:102D90009DF80530184603B05DF804FB00B585B01A
:102DA00003460A46ADF8063013468DF80530012378
:102DB0008DF80F30BDF906209DF805300D492B2008
:102DC00017F000FD9DF80530002B06D0BDF8063049
:102DD0005BB21846FFF782FF05E0BDF806305BB234
:102DE0001846FFF795FF9DF80F30184605B05DF8BF
:102DF00004FB00BFD8CF050800B585B003468DF8A9
:102E0000073001238DF80F309DF807301A46094925
:102E10002B2017F0D7FC9DF80730002B01D062B6AD
:102E200001E072B600BF9DF80F30184605B05DF89E
:102E300004FB00BFE8CF050800B587B003468DF856
:102E4000073000238DF81730194B049300230393A8
:102E50000023039316E09DF907301AB21549039B2E
:102E6000DB000B44B3F904309A4208D1114A039BAA
:102E700052F83330049301238DF8173005E0039B9B
:102E800001330393039B092BE5D99DF8173083F099
:102E90000103DBB2002B06D09DF907301BB21846A8
:102EA00005F068FD0490049B184607B05DF804FB2C
:102EB000E8D0050844B4060884B003468DF807300E
:102EC0000F4B0393002302930023029311E09DF91B
:102ED00007200C49029BDB000B441B799A4205D169
:102EE000084A029B52F83330039305E0029B0133FA
:102EF0000293029B0F2BEAD9039B184604B070473C
:102F0000E8D00508C4B30608034BDB681B0A03F0CE
:102F100007031846704700BF00ED00E082B003468B
:102F20008DF807309DF90730002B0EDB094A9DF91B
:102F300007305B0952F823209DF8073003F01F0388
:102F400022FA03F303F0010300E00023184602B065
:102F5000704700BF00E100E082B003468DF8073003
:102F60009DF90730002B0FDB094A9DF907305B09FB
:102F7000403352F823209DF8073003F01F0322FA54
:102F800003F303F0010300E00023184602B070478A
:102F900000E100E082B003468DF807309DF907306C
:102FA000002B0FDB094A9DF907305B09803352F88B
:102FB00023209DF8073003F01F0322FA03F303F0E8
:102FC000010300E00023184602B0704700E100E072
:102FD00082B0034600918DF807309DF90730002B31
:102FE0000ADB009BDAB20C499DF907301201D2B21C
:102FF0000B4483F800230BE0009BDAB207499DF8ED
:10300000073003F00F03043B1201D2B20B441A76CF
:1030100000BF02B0704700BF00E100E000ED00E03B
:1030200082B003468DF807309DF90730002B09DB8D
:103030000B4A9DF90730134493F80033DBB21B09A8
:10304000DBB20AE0074A9DF8073003F00F03043BA8
:1030500013441B7EDBB21B09DBB2184602B070477B
:1030600000E100E000ED00E084B003468DF8073099
:10307000064B9B6803939DF9073010339B00039A1E
:1030800013441B68184604B0704700BF00ED00E011
:1030900000B58BB00390029100238DF827300023F8
:1030A00008930023ADF81630039B012B0AD1029B35
:1030B0001B680DF116021146184613F039FE03463F
:1030C0008DF82730FFF720FF0790079A1549012058
:1030D00017F078FB9DF82730002B18D0BDF916307B
:1030E0005BB21846FFF79CFF0890BDF916305BB243
:1030F0001846FFF7B9FF0690BDF916301A46069B31
:103100000093089B0849012017F05CFB03E0074986
:103110002B2017F0CEFB9DF8273018460BB05DF83A
:1031200004FB00BFECD0050800D1050828D1050834
:1031300000B587B00190009100238DF8173000236F
:10314000049300238DF80F30019B022B14D1009BB8
:103150001B680DF10F021146184613F072FE03466C
:103160008DF81730009B1B6804AA1146184613F00F
:103170007DFB03468DF817309DF81730002B07D0E4
:103180009DF90F30049A11461846FFF721FF03E01E
:1031900004492B2017F08DFB9DF81730184607B017
:1031A0005DF804FB38D1050800B585B001900091A9
:1031B00000238DF80F3000238DF80E3000238DF89A
:1031C0000D30019B002B0ADD009B1B680DF10E02E8
:1031D0001146184613F035FE03468DF80F30019B5B
:1031E000012B0BDD009B04331B680DF10D02114612
:1031F000184613F0CBFE03468DF80F309DF80F30C4
:10320000002B0FD0019B022B10D19DF90E301BB269
:103210009DF80D2011461846FFF7C0FD03468DF8B6
:103220000F3003E004492B2017F043FB9DF80F30CB
:10323000184605B05DF804FB54D1050800B5A9B0E7
:103240000390029100238DF89F30002325930023E3
:10325000ADF89C30FFF758FE2490249A6249012073
:1032600017F0B0FA0023ADF89A30002323935F4B98
:103270001B68243309225E49184617F0B5FD4FF646
:10328000F273ADF89A309CE0BDF89A305BB2184604
:10329000FFF7C6FE2390BDF89A305BB21846FFF7E1
:1032A0003DFE2290BDF89A305BB21846FFF7DCFE77
:1032B000259004AB4F4918463FF004FDBDF99A3004
:1032C00004AA04A8009313464B4A78213FF00AFC55
:1032D000229BDBB2184634F06BFB024604AB04A819
:1032E0000092464A78213FF0FDFB04AA04A8259BE2
:1032F00000931346424A78213FF0F4FBBDF89A3020
:103300005BB21846FFF746FE024604AB04A80092E3
:103310003C4A78213FF0E6FBBDF89A305BB2184694
:10332000FFF71AFE024604AB04A80092364A782141
:103330003FF0D8FB04AA04A8239B00931346334A0A
:1033400078213FF0CFFB239B5BB21846FFF7B4FD1B
:10335000024604AB04A800922D4A78213FF0C2FB3C
:10336000BDF89A305BB21846FFF766FD024604AB23
:1033700004A80092264A78213FF0B4FB04AB029ADD
:103380000399184616F0CAFD0346002B12D0BDF86B
:103390009C3019461F4818F05BF804AB19461E48CC
:1033A00018F056F8BDF89C300133ADF89C3001237D
:1033B0008DF89F30BDF99A309BB201339BB2ADF8C6
:1033C0009A30BDF99A30512B7FF75EAF074B1B68DF
:1033D000243309220649184617F02EFC9DF89F3029
:1033E000184629B05DF804FBECD0050894150020C0
:1033F00094B406086CD1050870D105087CD1050885
:1034000088D1050894D10508A0D10508ACD10508DC
:10341000B8D10508C4D10508CCD1050800B58FB0D6
:103420000190009100238DF837300023089309ABF9
:1034300000221A605A609A60DA600023039304AB9A
:1034400000221A605A609A60DA60019B002B0EDB42
:1034500008AB1422204918463FF0D2FC03AB1422DB
:103460001D4918463FF0CCFC01238DF83730019BF5
:10347000002B09DD009B196808AB142218463FF0A9
:10348000BFFC01238DF83730019B012B0ADD009B27
:103490000433196803AB142218463FF0B1FC012332
:1034A0008DF83730019B022B03DD0C492B2017F0E0
:1034B00000FA9DF83730002B08D003AA08AB11465C
:1034C0001846FFF7BBFE03468DF837309DF83730BE
:1034D00018460FB05DF804FBD4D10508D8D1050813
:1034E00000B585B00190009100238DF80E300023C7
:1034F0008DF80F30019B012B0AD1009B1B680DF149
:103500000E021146184613F041FD03468DF80F30A8
:103510009DF80F30002B08D09DF80E301846FFF7AD
:103520006BFC03468DF80F3003E005492B2017F0A4
:10353000C0F99DF80F30184605B05DF804FB00BFD8
:10354000ECD105082DE9F04383B0012000F032F8FA
:103550000190019B002B28D0019B93F83430002B65
:1035600023D0FEF717FD019B1B695A1C019B1A61B2
:10357000019BD3E9062312F1010843F10009019BE5
:10358000C3E90689019B9B685B68C3F31701019B34
:10359000D3E9082300200C460546161943EB05071E
:1035A000019BC3E90867FEF70DFD00BF03B0BDE84E
:1035B000F083000000B587B003468DF80730002384
:1035C00005930023049334F067FD039000230493D4
:1035D00023E01649049A1346DB009B1ADB000B44D8
:1035E00005331B789DF807209A4213D10F49049A9E
:1035F0001346DB009B1ADB000B4407331B78002BC0
:1036000008D0049A1346DB009B1ADB00074A1344D8
:10361000059306E0049B01330493049A039B9A42AA
:10362000D7D3059B184607B05DF804FB200C00209B
:1036300000B587B003468DF80730002305930023BB
:10364000049334F029FD0390002304931AE0134AF5
:10365000049B1B01134405331B789DF807209A42F5
:103660000DD10E4A049B1B01134407331B78002B1A
:103670000DD0049B1B01094A1344059307E0049BEA
:1036800001330493049A039B9A42E0D300E000BF05
:10369000059B184607B05DF804FB00BF1CDC06085C
:1036A000F0B589B003468DF807304FF000024FF0B7
:1036B0000003CDE906239DF807301846FFF77AFF8F
:1036C0000590059B002B1ED0FEF764FC059B9B68B4
:1036D0005B68C3F317031A46059B9B689B68C3F39B
:1036E0001703D31ADA171E461746CDE90267059B62
:1036F000D3E90823DDE90201841841EB0305CDE994
:103700000645FEF75FFCDDE906231046194609B0C1
:10371000F0BD00B583B001238DF8073010F0FEFE38
:1037200003468DF807309DF80730184603B05DF862
:1037300004FB84B0019000238DF80F30019B002B17
:1037400020D001238DF80F309DF80F30002B0AD0C8
:10375000019B1B68002B03D001238DF80F3002E082
:1037600000238DF80F309DF80F30002B0AD0019BFD
:103770009B68002B03D001238DF80F3002E000235B
:103780008DF80F309DF80F30184604B0704700B523
:1037900083B000238DF807300120FFF70BFF009066
:1037A000009B002B0ED0009B9B68002B0AD0009B37
:1037B0009B681B68C3F30003DBB2002B02D001231C
:1037C0008DF807309DF80730184603B05DF804FB0C
:1037D00000B583B00120FFF7EDFE0190019B002BA7
:1037E00013D0019B9B681B6800939DF800306FF31A
:1037F00000038DF800309DF800306FF341038DF821
:103800000030019B9B68009A1A600123184603B0A0
:103810005DF804FB00B585B000238DF80F30012062
:10382000FFF7C8FE0290029B002B1AD0029B9B68F8
:10383000002B16D0029B9B681B6801939DF80430F7
:1038400043F001038DF804309DF8043043F0020387
:103850008DF80430029B9B68019A1A6001238DF851
:103860000F309DF80F30184605B05DF804FB00B529
:1038700087B0019000238DF817300120FFF79AFEE2
:103880000490049B002B1AD000230393019B23F088
:103890007F439AB200210A43ADF80C201B0CDBB227
:1038A000002213438DF80E30049B9B68002B06D03A
:1038B000049B9B68039A5A6001238DF817309DF88A
:1038C0001730184607B05DF804FB00B585B0034615
:1038D0008DF8073000238DF80F300120FFF76AFEC6
:1038E0000290029B002B11D0029B9B68002B0DD0F5
:1038F000029B9A689DF8073003F00103D9B2136860
:1039000061F38203136001238DF80F309DF80F30AF
:10391000184605B05DF804FB00B583B002238DF8AE
:1039200007300120FFF746FE0090009B002B0BD0D4
:10393000009B9B68002B07D0009B9B681B68C3F310
:103940008003DBB28DF807309DF80730184603B0CE
:103950005DF804FB00B583B0002300930120FFF75E
:1039600029FE0190019B002B07D0019B9B68002B37
:1039700003D0019B9B685B680093009BC3F3170314
:10398000184603B05DF804FB30B589B003468DF8E6
:1039900007304FF000024FF00003CDE906239DF8F9
:1039A00007301846FFF706FE0590059B002B15D043
:1039B0009DF807301846FFF773FECDE90201059B1D
:1039C000DB6A00221C46154622462B46DDE9020131
:1039D000FDF798F902460B46CDE90623DDE90623FB
:1039E0001046194609B030BD00B585B000230393D9
:1039F0000120FFF7DFFD0290029B002B10D0FFF7A4
:103A0000C6FE03468DF807309DF80730002B04D121
:103A1000029BDB685A1C029BDA60029B1B690393C2
:103A2000039B184605B05DF804FB000000B585B0A7
:103A300003468DF8073000238DF80F309DF80730CE
:103A4000184633F061FF03461A4610492E2016F03F
:103A5000B9FE9DF80730002B07D0012B0BD1FFF7E3
:103A6000D9FE03468DF80F3009E010F085FD0346BE
:103A70008DF80F3003E000238DF80F3000BF9DF864
:103A80000F30184605B05DF804FB00BF28D20508CA
:103A900000B587B00190009100238DF81730019B8D
:103AA000002B00F0CE80019800F00EFA03461A4673
:103AB00067492E2016F069FE0198FFF73AFE03468B
:103AC0008DF817309DF81730002B00F0BA80009B5E
:103AD000002B00F0B680019B1B681A465D492E2022
:103AE00016F070FE019B9A68009B9A60019B5A79C0
:103AF000009B5A71019B1A79009B1A71019B1A68ED
:103B0000009B1A60009B00221A6100994FF000028E
:103B10004FF00003C1E9082300994FF000024FF075
:103B20000003C1E90623019B9B68002B00F08980FC
:103B300010F0C6FC0246009B1A63009B1B6B1A46E2
:103B400045492E2016F03EFE009B1B6B434AA2FB0C
:103B500003239A0C009BDA62009B1B6B002B70D036
:103B6000019B9A68009B9A60019B1B6807EE903A44
:103B7000B8EE677ADFED3A6AC7EE267ACDED047AC1
:103B8000009B1B6B07EE903AF8EE677A9DED047A86
:103B900067EE277ACDED037ADDED037AFCEEE77A66
:103BA00017EE902A009B9B6822F07F4291B2988882
:103BB000002001439980120CD2B2997900210A4366
:103BC0009A71009B9B685B68C3F317031A462549EB
:103BD0002E2016F0F7FD009B9B681A8900221A819F
:103BE0009A7A00229A72002302939DF8083043F0DB
:103BF00001038DF808309DF8083043F002038DF87A
:103C00000830019B9B7903F00103DAB29DF808307C
:103C100062F382038DF80830019B1B79002B05D0DD
:103C20009DF8083043F002038DF80830009B9B6834
:103C3000029A1A6001238DF81730009B012283F845
:103C400034209DF81730184607B05DF804FB00BF1C
:103C500030D2050834D2050844D2050883DE1B4360
:103C600000007A4458D2050800B587B003468DF8A5
:103C7000073000238DF817309DF807301846FFF7FE
:103C8000D7FC0490049B002B0FD09DF807301846FA
:103C9000FFF790FC0390039B002B06D00399049838
:103CA000FFF7F6FE03468DF817309DF817301846DB
:103CB00007B05DF804FB00B585B001238DF807302F
:103CC000FFF727FD03468DF807300023039334F0F8
:103CD000E3F90090002302930023029311E0029B7A
:103CE000DBB21846FFF7C0FF03468DF807309DF89A
:103CF0000730002B02D0039B01330393029B013357
:103D00000293029A009B9A42E9D90099039826F0FF
:103D10005DF803468DF807309DF80730184605B06A
:103D20005DF804FB84B003468DF807300A4B03931B
:103D30009DF80730002B02D0012B03D005E0074B84
:103D4000039305E0064B039302E0034B039300BF8C
:103D5000039B184604B0704764D2050868D2050872
:103D600074D2050800B587B001238DF81730012003
:103D7000FFF720FC0490049B002B00F08280FFF7EB
:103D8000CBFD03468DF80F30049B1B6B1A46404950
:103D90002E2016F017FDFFF7FAFC0346184633F005
:103DA000B3FD03461A463B492E2016F00BFD9DF845
:103DB0000F301846FFF7B6FF03461A4636492E2045
:103DC00016F000FD0120FFF76BFC02460B4633495D
:103DD0002E2016F0F7FCFFF7BDFD03461A463049CA
:103DE0002E2016F0EFFC049BDB681A462D492E208E
:103DF00016F0E8FCFFF7F8FD02900120FFF7C4FD84
:103E0000CDE90001DDE9002327492E2016F0DAFC78
:103E1000029A26492E2016F0D5FC049B1B691A46EF
:103E200023492E2016F0CEFC049BD3E9062321491A
:103E30002E2016F0C7FC029B07EE903AF8EE677A48
:103E40009FED1D7AC7EE876A16EE900AFCF75CFAC2
:103E500002460B4619492E2016F0B4FC029B07EED1
:103E6000903AF8EE677A9FED167AC7EE876A16EEFB
:103E7000900AFCF749FA02460B4612492E2016F02A
:103E8000A1FC9DF81730184607B05DF804FB00BF91
:103E900080D2050894D20508A0D20508ACD2050846
:103EA000B4D20508BCD20508C4D20508D8D205088A
:103EB000ECD2050800D3050800007A4418D30508A1
:103EC00000606A472CD3050800B585B00390039BBA
:103ED000002B34D01C491D483EF0F4FE039B5B7957
:103EE00000931A4B1A4AFA2118483EF0FBFD039B37
:103EF000DB680093154B174AFA2114483EF0F2FD97
:103F0000039B1B680093114B134AFA210F483EF0A4
:103F1000E9FD039B1B79184633F0F6FC034600933A
:103F20000A4B0E4AFA2109483EF0DCFD039B9B68D0
:103F30000093064B0A4AFA2104483EF0D3FD034B96
:103F4000184605B05DF804FB40D30508142F002087
:103F500044D305084CD305085CD305086CD3050889
:103F600078D3050800B585B00190009100238DF845
:103F70000F3000230293019B002B17DD009B1B6871
:103F800002AA1146184612F071FC03468DF80F3054
:103F90009DF80F3083F00103DBB2002B06D0009BAD
:103FA0001B681A4610492E2016F083FC9DF80F302E
:103FB000002B0ED0029B1846FFF759FC03468DF8E4
:103FC0000F309DF80F30094A19462E2016F0AEFC2E
:103FD00003E007492E2016F06CFC9DF80F301846C0
:103FE00005B05DF804FB00BF84D30508A0D3050825
:103FF000A8D3050800B585B00190009100238DF885
:104000000F30019B002B02D101238DF80F309DF85A
:104010000F30002B0CD0FFF7A5FE03468DF80F30B4
:104020009DF80F30074A19462E2016F07FFC03E05A
:1040300005492E2016F03DFC9DF80F30184605B0BE
:104040005DF804FBB8D30508C0D3050800B585B0FA
:104050000190009100238DF80F30019B002B0CD1B3
:1040600010F08AFA03468DF80F309DF80F30084A99
:1040700019462E2016F05AFC03E006492E2016F0B1
:1040800018FC9DF80F30184605B05DF804FB00BF22
:10409000CCD30508D4D3050800B585B001900091B4
:1040A00000238DF80F30019B002B0CD1FFF7B2FBE2
:1040B00003468DF80F309DF80F30084A19462E2020
:1040C00016F034FC03E006492E2016F0F2FB9DF8B2
:1040D0000F30184605B05DF804FB00BFE0D30508BB
:1040E000E8D3050800B585B00190009100238DF854
:1040F0000F3000238DF80E30019B002B11DD009B4B
:104100001B680DF10E021146184612F03FFF0346E0
:104110008DF80F309DF80F30114A19462E2016F0F9
:1041200005FC9DF80F30002B0FD09DF80E3018467F
:10413000FFF77CFC03468DF80F309DF80F30094ADD
:1041400019462E2016F0F2FB03E007492E2016F048
:10415000B0FB9DF80F30184605B05DF804FB00BFBA
:10416000F4D30508FCD3050804D4050810B584B0C1
:104170000190009100238DF80F3002238DF80E304E
:10418000019B002B11DD009B1B680DF10E021146F7
:10419000184612F036FE03468DF80F309DF80F30AA
:1041A000164A19462E2016F0C1FB9DF80F30002B41
:1041B0001AD09DF80E301846FFF787FB03468DF89E
:1041C0000F309DF80F30184616F0CEF803461C4607
:1041D0009DF80E301846FFF7A5FD0346084A2E212C
:1041E000204616F0ABFA03E006492E2016F061FBDC
:1041F0009DF80F30184604B010BD00BF18D4050854
:1042000020D4050830D4050800B585B00190009190
:1042100000238DF80F30019B002B02D101238DF874
:104220000F309DF80F30002B0CD0FFF744FD0346F4
:104230008DF80F309DF80F30074A19462E2016F0E2
:1042400075FB03E005492E2016F033FB9DF80F3077
:10425000184605B05DF804FB44D405084CD40508A5
:1042600000B587B003468DF807300023059300237F
:10427000049334F0B8F80390002304931AE0124A30
:10428000049B9B0113440C331B789DF807209A4232
:104290000DD10D4A049B9B0113440D331B78002B59
:1042A00005D0049B9B01084A1344059306E0049B38
:1042B00001330493049A039B9A42E0D3059B18466A
:1042C00007B05DF804FB00BFF81C002000B587B004
:1042D00003468DF80730002305930023049334F040
:1042E00082F80390002304931AE0134A049B1B01F5
:1042F00013440C331B789DF807209A420DD10E4AC7
:10430000049B1B0113440D331B78002B0DD0049B21
:104310001B01094A1344059307E0049B01330493EE
:10432000049A039B9A42E0D300E000BF059B184625
:1043300007B05DF804FB00BF8CEF060800B585B040
:10434000019000238DF80F30019B002B26D0012314
:104350008DF80F30019B5B68002B06D1019B1B7B06
:104360001A461149382016F0A4FA019B1B68002B4D
:1043700009D1019B1B7B1A460C49382016F099FA8B
:1043800000238DF80F30019B9B68002B06D1019B09
:104390001B7B1A460649382016F08BFA9DF80F3021
:1043A000184605B05DF804FB58D4050868D4050824
:1043B00078D4050800B583B000238DF80730054A8E
:1043C0000549382016F0FEF99DF80730184603B06D
:1043D0005DF804FB8CD4050890D4050884B00190E6
:1043E000009100238DF80F30019B002B18D0009B0B
:1043F000002B15D0019B5A68009B5A60019B1A68DC
:10440000009B1A60019B1A7B009B1A73019B9A68A0
:10441000009B9A60009B01225A7301238DF80F3094
:104420009DF80F30184604B070472DE9F04387B06F
:1044300003468DF807304FF000024FF00003CDE93E
:1044400004239DF807301846FFF70AFF0390039BEB
:10445000002B2FD0FDF79EFD039B1B685A68039B22
:104460009A63039B9A6B039BDB6B9A4208D2039B74
:10447000D3E90C2303F101099046039BC3E90C899E
:10448000039B9A6B039BDA63FDF79CFD039BD3E9C7
:104490000C230399896B00200C46054642EA04066A
:1044A00043EA0507039BC3E90A67039BD3E90A2391
:1044B000CDE90423DDE904231046194607B0BDE821
:1044C000F08300B589B003468DF807304FF0000245
:1044D0004FF00003CDE906239DF807301846FFF79B
:1044E000BFFE0590059B002B11D09DF807301846A4
:1044F000FFF79BFFCDE90201059BD3E90623DDE928
:104500000201FCF7FFFB02460B46CDE90623DDE97D
:1045100006231046194609B05DF804FB00B587B0C4
:1045200003468DF80730002305939DF807301846A1
:10453000FFF796FE0490049B002B11D09DF80730E6
:104540001846FFF772FFCDE90201049BD3E9082367
:10455000DDE90201FCF7D6FB02460B461346059344
:10456000059B184607B05DF804FB000000B585B058
:1045700003468DF8073000238DF80F309DF8073083
:104580001A460E49382016F03AF99DF807301846B9
:10459000FFF766FE0290029B002B09D0029B1B696D
:1045A0005A1C029B1A619DF807301846FFF73DFF21
:1045B0009DF80F30184605B05DF804FB9CD4050843
:1045C00084B0019000238DF80F30019B002B31D077
:1045D000019B01225A73019B01225A73019B1B68A4
:1045E00000225A6001994FF000024FF00003C1E928
:1045F0000C23019B0022DA6301994FF000024FF077
:104600000003C1E90623019B00229A6301994FF040
:1046100000024FF00003C1E9082301994FF00002A6
:104620004FF00003C1E90A23019B00221A61012314
:104630008DF80F309DF80F30184604B07047000019
:10464000F0B587B003468DF8073000238DF817309A
:104650009DF807301A464249382016F096F89DF822
:1046600007301846FFF732FE0490049B002B6BD0F6
:104670000498FFF763FE03468DF817309DF8173056
:10468000002B59D09DF807301846FFF7E9FD03903D
:10469000039B002B48D003990498FFF79FFE034625
:1046A0008DF817300398FFF78BFF03468DF817300E
:1046B0002C4BDB682B4A43F08073D360039B1B6851
:1046C00000225A600AF0EDF90246039B9A60039BB0
:1046D0009B68254AA2FB03239B0C00221E4617461B
:1046E000039BC3E90667039B9B68204AA2FB032345
:1046F0009B0900221C461546039BC3E90845039B02
:104700001B681B6802939DF8083043F001038DF885
:104710000830039B1B68029A1A60039B01225A739C
:10472000039B01229A7316E09DF807301A46104940
:10473000382016F0BEF80EE09DF807301A460D49F5
:10474000382016F0B6F806E09DF807301A460949F9
:10475000382016F054F89DF81730184607B0F0BD11
:10476000A8D40508F0ED00E083DE1B43D34D6210B2
:10477000B0D40508BCD4050800B585B001238DF878
:104780000730FFF717FE03468DF807300023039329
:1047900033F029FE0090002302930023029311E0DE
:1047A000029BDBB21846FFF74BFF03468DF807303C
:1047B0009DF80730002B02D0039B01330393029B2B
:1047C00001330293029A009B9A42E9D90099039817
:1047D00025F0FCFA03468DF807309DF8073018469F
:1047E00005B05DF804FB00B585B000238DF80F30EF
:1047F0000023029333F0F7FD009000230193002380
:10480000019311E0019BDBB21846FFF7AFFE0346B0
:104810008DF80F309DF80F301946029825F0C4FA34
:104820000290019B01330193019A009B9A42E9D9BE
:10483000029B002B03D001238DF80F3002E00023F0
:104840008DF80F309DF80F30184605B05DF804FB69
:1048500000B5B7B000238DF8D730444B1B68243324
:1048600008224349184616F0BFFA33F0A7FD3490EA
:1048700000238DF8D63000238DF8D63063E09DF804
:10488000D6301846FCF71AFF3390339B002B55D0D7
:10489000339B9A68339BDB68D31A329300230093CF
:1048A00001ABC422002118463EF098F86B4631490E
:1048B00018463EF007FA339B1B796A4668462E4934
:1048C0003EF054F9339B1B686A4668462B493EF01C
:1048D0004DF9339B9B686A46684629493EF046F984
:1048E000339BDB686A46684625493EF03FF96A46D5
:1048F0006846329B23493EF039F9339B5B7C6A461C
:10490000684621493EF032F9339B183318461FF0B0
:1049100031F803466A4668461C493EF027F9339B46
:104920005B696A46684618493EF020F96B461946AD
:10493000174816F08DFD01238DF8D7309DF8D6303D
:1049400001338DF8D6309DF8D630349A9A4296D2FB
:10495000064B1B68243308220549184616F06CF9EB
:104960009DF8D730184637B05DF804FB9415002049
:10497000DCB406083CD5050840D505084CD505082B
:1049800058D5050864D5050870D505087CD50508F7
:1049900088D5050800B585B00390039B002B27D070
:1049A000164917483EF08EF9039B1B790093144B70
:1049B000144AFA2112483EF095F8039B9B68009335
:1049C0000F4B114AFA210E483EF08CF8039BDB682E
:1049D00000930B4B0D4AFA2109483EF083F8039BE4
:1049E0001B680093064B0A4AFA2105483EF07AF804
:1049F000034B184605B05DF804FB00BFC8D5050899
:104A0000142F0020CCD50508D4D50508E8D5050815
:104A1000FCD5050800B589B003468DF80F3000239A
:104A20008DF81F309DF80F301846FCF747FE0690B2
:104A3000069B002B1BD0069B9A68069BDB68D31A4B
:104A40009B0805939DF80F20069BD968059B009352
:104A50000B460A490A2015F0B5FE069BDB68049355
:104A60000599049811F024F803468DF81F309DF83D
:104A70001F30184609B05DF804FB00BF30D60508AA
:104A800000B587B0019000230393019A12490120D9
:104A900015F07BFE00230593002304930023059368
:104AA0000023049310E0019A059B13440393039B96
:104AB0001B68039A0499094816F0CAFC059B043345
:104AC0000593049B01330493059BD42BEBD901235D
:104AD000184607B05DF804FB58D6050870D60508DF
:104AE00000B589B00390029100238DF81F30002398
:104AF0000593039B002B09DD029B1B6805AA114649
:104B0000184611F0B3FE03468DF81F309DF81F3094
:104B1000002B13D0059B1A460B490A2015F052FEB4
:104B2000059B1846FDF7F8F80690059A069B9B0A28
:104B30000093069B05490A2015F044FE9DF81F309E
:104B4000184609B05DF804FBE0D60508ECD6050868
:104B500000B585B00190009100238DF80F30FFF76C
:104B600077FE03468DF80F309DF80F30002B03D1F0
:104B700004490A2015F09DFE9DF80F30184605B037
:104B80005DF804FB04D7050800B585B001900091DD
:104B900000238DF80F30019B002B02D101238DF8EB
:104BA0000F309DF80F30002B05D0FCF76DFE03464B
:104BB0008DF80F3003E005490A2015F07AFE9DF8C4
:104BC0000F30184605B05DF804FB00BF10D705088C
:104BD00000B585B00190009100238DF80B300023C3
:104BE00003936B461A4603990198FCF72DFE034682
:104BF0008DF80B309DF80B30002B06D0009B1A4629
:104C00000399064816F024FC03E005490A2015F034
:104C100050FE039B01330393E3E700BF20D7050851
:104C20003CD7050800B587B00190009100238DF8AE
:104C3000173000201AF052F904900499224816F017
:104C400007FC00230393019B002B09DD009B1B68DD
:104C500003AA1146184611F009FE03468DF81730D5
:104C600000230293019B002B07D1029B1946049855
:104C7000FFF7AEFF03468DF817309DF81730002B75
:104C800018D0039B02AA19460498FCF7DDFD0346E1
:104C90008DF817309DF81730002B06D0039A029B31
:104CA0000A490A2015F08EFD08E009490A2015F08E
:104CB00000FE03E007490A2015F0FBFD9DF81730C0
:104CC000184607B05DF804FB44D705085CD7050813
:104CD0003CD705087CD7050800B587B00190009146
:104CE00000238DF8173000230393019B002B10DD68
:104CF000009B1B6803AA1146184611F0B7FD034636
:104D00008DF817309DF817301B4A19460A2015F008
:104D100059FE9DF81730002B23D0039B0493049871
:104D2000FCF7BCFF03468DF817309DF81730002BB9
:104D30000BD09DF81730184632F008FE0346049A4F
:104D40000E490A2015F03EFD0FE09DF81730184679
:104D500032F0FCFD0346049A08490A2015F0A9FD2B
:104D600003E007490A2015F0A4FD9DF81730184606
:104D700007B05DF804FB00BF9CD70508A4D7050861
:104D8000B4D7050800B585B00190009100238DF8D7
:104D90000F3000238DF80E30019B002B11DD009B9E
:104DA0001B680DF10E021146184612F02AF8034650
:104DB0008DF80F309DF80F30114A19460A2015F072
:104DC00001FE9DF80F30002B0FD09DF80E301846D5
:104DD000FFF720FE03468DF80F309DF80F30094A8B
:104DE00019460A2015F0EEFD03E007490A2015F0E8
:104DF00060FD9DF80F30184605B05DF804FB00BF5C
:104E0000C8D70508D0D70508DCD7050800B587B096
:104E100003468DF80730002305930023049333F0F5
:104E2000F7FA0390002304931AE0124A049B5B01F3
:104E300013440B331B789DF807209A420DD10D4A7D
:104E4000049B5B01134416331B78002B05D0049B95
:104E50005B01084A1344059306E0049B0133049365
:104E6000049A039B9A42E0D3059B184607B05DF86D
:104E700004FB00BF381D002000B587B003468DF845
:104E80000730002305930023049333F0C1FA039005
:104E90000023049323E01749049A13465B0013444C
:104EA000DB000B440B331B789DF807209A4213D18B
:104EB0001049049A13465B001344DB000B4416337D
:104EC0001B78002B10D0049A13465B001344DB00C0
:104ED000084A1344059307E0049B01330493049AA2
:104EE000039B9A42D7D300E000BF059B184607B04A
:104EF0005DF804FB9CEF060800B585B00190002327
:104F00008DF80F30019B002B6DD001238DF80F30F1
:104F100001238DF80E30019B1B68002B09D1019BEA
:104F2000DB7A1A463349142015F0C3FC00238DF8B0
:104F30000F30019B9B7A184606F059FB03468DF80B
:104F40000E309DF80E3083F00103DBB2002B09D048
:104F5000019BDB7A1A462849142015F0AAFC00238D
:104F60008DF80F30019B1B7A184606F040FB034674
:104F70008DF80E309DF80E3083F00103DBB2002B6C
:104F800006D0019BDB7A1A461C49142015F091FCCF
:104F9000019BDB68B3F5007F09D8019BDB7A1A46D9
:104FA0001749142015F085FC00238DF80F30019B64
:104FB0001B69002B09D1019BDB7A1A461149142089
:104FC00015F077FC00238DF80F30019B1B68002B38
:104FD00009D1019BDB7A1A460B49142015F069FCB4
:104FE00000238DF80F309DF80F30184605B05DF89E
:104FF00004FB00BFF0D7050808D8050828D8050825
:1050000048D805086CD805088CD8050800B583B0C9
:1050100000238DF8073002220449142015F0D2FB3A
:105020009DF80730184603B05DF804FBA4D80508C6
:1050300084B00190009100238DF80F30019B002B6C
:1050400029D0009B002B26D0019B5A7A009B5A72D4
:10505000019B1A68009B1A60019B1A7D009B1A75C0
:10506000019B5A68009B5A60019B9A7A009B9A7236
:10507000019B1A7A009B1A72019BDA68009BDA6026
:10508000019B1A69009B1A61019B5A7D009B5A750E
:1050900001238DF80F309DF80F30184604B070478B
:1050A00000B585B003468DF8073000238DF80F302A
:1050B0009DF807301846FFF7A9FE0290029B002BCF
:1050C0000BD0029B987A029B1969029BDB681A46F7
:1050D0000DF01EFC03468DF80F309DF80F3018467A
:1050E00005B05DF804FB84B0019000238DF80F300B
:1050F000019B002B08D0019B0022DA61019B012259
:105100009A7501238DF80F309DF80F30184604B0C2
:10511000704700B585B003468DF8073000238DF841
:105120000F309DF807301846FFF770FE0290029B83
:10513000002B05D0029B01225A7201238DF80F30FB
:105140009DF80F30184605B05DF804FB00B587B038
:1051500003468DF8073000238DF817309DF807308F
:105160001A463749142015F010FB9DF807301846F1
:10517000FFF782FE04900498FFF7BEFE03468DF809
:1051800017309DF81730002B4CD004982DF012F9F1
:1051900003461A462B49142015F0F7FA9DF80730FC
:1051A0001846FFF733FE0390039B002B32D0039980
:1051B0000498FFF73DFF03468DF817300398FFF77B
:1051C00092FF03468DF81730049B1A7A049B5B68A4
:1051D000194610460DF054FF03468DF81730049B16
:1051E0001A7A049B5B68194610460DF049FF034686
:1051F0008DF81730049B1B7D002B07D09DF80730DE
:105200001846FFF74DFF03468DF81730039B012228
:105210001A760EE09DF807301A460B49142015F057
:1052200048FB06E09DF807301A460849142015F09F
:10523000E6FA9DF81730184607B05DF804FB00BF8A
:10524000C4D80508D0D80508D4D80508E0D8050882
:1052500000B585B001238DF80730FFF7D7FE034670
:105260008DF807300023039333F0D2F80090002329
:1052700002930023029311E0029BDBB21846FFF772
:1052800065FF03468DF807309DF80730002B02D0EC
:10529000039B01330393029B01330293029A009B09
:1052A0009A42E9D90099039824F090FD03468DF8BD
:1052B00007309DF80730184605B05DF804FB00B5CF
:1052C00085B00190019B9B6B039303980EF034F81B
:1052D00000BF05B05DF804FB00B585B00190019BEF
:1052E0009B6B0393019BDB69002B0ED1039B1B6817
:1052F0005A68039B1B6822F001025A60039B00223C
:105300005A86039B012283F8412003980EF042F84D
:1053100000BF05B05DF804FB00B585B00190019BAE
:105320009B6B0393039B1B685A68039B1B6822F0CB
:1053300003025A60039B00225A85039B00225A866F
:10534000039B012283F84120039B5B6C43F008021E
:10535000039B5A6403980EF0A7F800BF05B05DF8F0
:1053600004FB000000B589B00292019303468DF85A
:105370000F300B468DF80E3000238DF81F309DF84E
:105380000F30184600F0DCFE0690069B002B4BD039
:105390009DF80E3018460DF03BFA0590059B002B4A
:1053A0003FD0059BDB6B002B3BD0059BDB6B0222C8
:1053B00083F83520059BDB6B184634F00AFA034668
:1053C0008DF81330059BDB6B002283F83420059B9E
:1053D000DB6B012283F83520059BDB6B00229A6092
:1053E000059BDB6B134A1A64059BDB6B124ADA637D
:1053F000059BDB6B114ADA64059BD86B069B9969A8
:10540000019B029A34F008F903468DF81330069B8D
:105410000122043393E803000AF0DDFB03468DF814
:105420001F3001238DF81F309DF81F30184609B03A
:105430005DF804FBBF520108D95201081953010855
:1054400000B585B0019000238DF80F300120FFF7E3
:10545000DDFC0290029B002B13D0029B5B7A002B99
:105460000FD0029B997A029B1B691A46029BDB684C
:105470000320FFF777FF03468DF80F30029B0022D1
:105480005A729DF80F30184605B05DF804FB82B0E3
:1054900001900123184602B0704700B587B0019013
:1054A00000238DF817300120FFF7B0FC0490049B17
:1054B000002B07D0049B9B7A18460DF0E0FB0346B7
:1054C0008DF80F309DF81730184607B05DF804FBD3
:1054D00084B0019000238DF80F309DF80F301846EE
:1054E00004B0704700B585B00190009100238DF89D
:1054F0000F3000238DF80E30019B002B02DB0123BF
:105500008DF80F30019B002B11DD009B1B680DF106
:105510000E021146184611F074FC03468DF80F3048
:105520009DF80F30174A1946142015F04BFA9DF8D4
:105530000F30002B1BD09DF80E3018462CF0A0FF2A
:1055400003468DF80F309DF80F300F4A194614208E
:1055500015F038FA2CF0CCFF03468DF80F309DF88B
:105560000F30094A1946142015F02CFA03E00749B8
:10557000142015F09EF99DF80F30184605B05DF81F
:1055800004FB00BFF0D8050814D905081CD905088C
:1055900000B585B00190009100238DF80F300023F5
:1055A0008DF80E30019B002B11DD009B1B680DF167
:1055B0000E021146184611F024FC03468DF80F30F8
:1055C0009DF80F300C4A1946142015F0FBF9019B89
:1055D000002B0BD1FFF73CFE03468DF80F309DF8F2
:1055E0000F30064A1946142015F0ECF99DF80F30DB
:1055F000184605B05DF804FBF0D8050828D9050861
:1056000000B585B00190009100238DF80F30002384
:105610008DF80E30019B002B11DD009B1B680DF1F6
:105620000E021146184611F0ECFB03468DF80F30C0
:105630009DF80F300E4A1946142015F0C3F99DF855
:105640000F30002B0ED09DF80E301846FFF761FD8D
:1056500003468DF80F309DF80F30064A1946142086
:1056600015F0B0F99DF80F30184605B05DF804FB51
:10567000F0D8050830D9050884B003468DF8073006
:105680000E4B03939DF80730032B0CD0032B0DDC3E
:10569000012B02D0022B03D008E0094B039308E052
:1056A000084B039305E0084B039302E0034B03937D
:1056B00000BF039B184604B0704700BF3CD90508E3
:1056C00040D9050848D905084CD9050884B001908F
:1056D00000238DF80F309DF80F30184604B0704746
:1056E00084B003468DF8073000230393039B002BFF
:1056F00014BF01230023DBB2184604B0704782B008
:1057000000238DF807309DF80730184602B0704727
:1057100030B58BB0CDE9000100230993DDE900230A
:1057200013432ED04FF000024FF00003CDE90423C5
:1057300022F0BEFBCDE904014FF000024FF0000360
:10574000CDE902234FF000024FF00003CDE906231C
:105750000FE022F0ADFBCDE90201DDE90201DDE958
:105760000423841A61EB0305CDE90645099B013347
:105770000993DDE90601DDE90023904271EB0303A3
:10578000E7D3099B18460BB030BD00B587B0019038
:1057900000230593019B002B17D00023039322F0D5
:1057A00007FB0390002302930023049309E022F0F7
:1057B000FFFA0290029A039BD31A0493059B0133CC
:1057C0000593049A019B9A42F1D3059B184607B0B2
:1057D0005DF804FB30B587B001904FF000024FF048
:1057E0000003CDE9042300230393002303930BE07C
:1057F00009F0C8F8DDE90423141843EB0105CDE9ED
:105800000445039B01330393039A019B9A42EFD310
:10581000DDE904231046194607B030BD84B00346C5
:105820008DF807300D4B03939DF80730042B0CD0F7
:10583000042B0DDC012B02D0022B03D008E0084B17
:10584000039306E0074B039303E0074B039300E049
:1058500000BF039B184604B0704700BF60D905081D
:105860006CD905087CD905088CD9050884B0034695
:105870008DF80730144B03939DF80730062B1DD885
:1058800001A252F823F000BFB1580108BD58010829
:10589000B7580108BD580108BD580108A5580108AE
:1058A000AB580108094B039309E0094B039306E049
:1058B000084B039303E0084B039300E000BF039BF6
:1058C000184604B0704700BF60D9050890D9050894
:1058D00098D90508A0D90508A8D9050800B585B04C
:1058E0000390294929483DF0EDF9039B002B46D050
:1058F000039B0093254B264AFA2124483DF0F2F8F9
:10590000039B1B680093214B224AFA211F483DF05C
