:020000040800F2
:1000000000C00120EDD8030859910108FD920108B4
:1000100001930108059301080993010800000000FD
:100020000000000000000000000000000D93010827
:10003000159301080000000011930108299301089D
:1000400025930108F9920108ED920108F192010847
:10005000E592010861910108619301086593010827
:10006000699301086D930108719301085592010885
:10007000659101087D91010895910108AD910108F4
:10008000C5910108DD910108259101083DD90308BA
:100090003DD903083DD903083DD9030875930108EC
:1000A000CD93010881930108899301089193010878
:1000B00099930108A1930108A5930108D993010818
:1000C000D5930108E1930108DD9301081993010814
:1000D0001D9301083D9301085193010855930108B0
:1000E00079930108F1930108F5920108C193010881
:1000F000BD930108C9930108C5930108F591010852
:100100005D91010839930108A99301082193010821
:100110003DD9030859930108B1930108B993010827
:100120000D920108259201083D920108859201086F
:100130006D9201083DD903083DD903083DD9030854
:100140003DD903083DD903083DD90308F5930108BB
:100150009D920108B5920108CD9201085D930108B6
:10016000E5930108E9930108F99301087D930108DB
:100170003DD90308FD9301083DD9030800000000A4
:10018000ED930108E9920108FFFFFFFFFFFFFFFF6A
:10019000FFFFFFFFFFFFFFFFFFFFFFFFFFFFFFFF6F
:1001A000FFFFFFFFFFFFFFFFFFFFFFFFFFFFFFFF5F
:1001B000FFFFFFFFFFFFFFFFFFFFFFFFFFFFFFFF4F
:1001C000FFFFFFFFFFFFFFFFFFFFFFFFFFFFFFFF3F
:020000040801F1
:1000000010B5054C237833B9044B13B10448AFF352
:1000100000800123237010BD602E0020000000002E
:10002000B083040808B5034B1BB103490348AFF381
:10003000008008BD00000000642E0020B08304088A
:1000400081F0004102E000BF83F0004330B54FEA89
:1000500041044FEA430594EA050F08BF90EA020FF6
:100060001FBF54EA000C55EA020C7FEA645C7FEA89
:10007000655C00F0E2804FEA5454D4EB5555B8BFAC
:100080006D420CDD2C4480EA020281EA030382EA1D
:10009000000083EA010180EA020281EA0303362DAF
:1000A00088BF30BD11F0004F4FEA01314FF4801C82
:1000B0004CEA113102D0404261EB410113F0004F94
:1000C0004FEA03334CEA133302D0524263EB43034B
:1000D00094EA050F00F0A780A4F10104D5F1200EE9
:1000E0000DDB02FA0EFC22FA05F2801841F1000144
:1000F00003FA0EF2801843FA05F359410EE0A5F118
:1001000020050EF1200E012A03FA0EFC28BF4CF048
:10011000020C43FA05F3C01851EBE37101F00045FE
:1001200007D54FF0000EDCF1000C7EEB00006EEB0B
:100130000101B1F5801F1BD3B1F5001F0CD3490895
:100140005FEA30004FEA3C0C04F101044FEA4452EC
:1001500012F5800F80F09A80BCF1004F08BF5FEA73
:10016000500C50F1000041EB045141EA050130BD53
:100170005FEA4C0C404141EB0101013C28BFB1F565
:10018000801FE9D291F0000F04BF01460020B1FAB0
:1001900081F308BF2033A3F10B03B3F120020CDA83
:1001A0000C3208DD02F1140CC2F10C0201FA0CF061
:1001B00021FA02F10CE002F11402D8BFC2F1200CC6
:1001C00001FA02F120FA0CFCDCBF41EA0C0190407C
:1001D000E41AA2BF01EB0451294330BD6FEA0404C5
:1001E0001F3C1CDA0C340EDC04F11404C4F12002B0
:1001F00020FA04F001FA02F340EA030021FA04F3C2
:1002000045EA030130BDC4F10C04C4F1200220FA18
:1002100002F001FA04F340EA0300294630BD21FA56
:1002200004F0294630BD94F0000F83F4801306BF1C
:1002300081F480110134013D4EE77FEA645C18BF10
:100240007FEA655C29D094EA050F08BF90EA020FA7
:1002500005D054EA000C04BF1946104630BD91EA9F
:10026000030F1EBF0021002030BD5FEA545C05D1A2
:100270004000494128BF41F0004130BD14F58004E1
:100280003CBF01F5801130BD01F0004545F0FE4155
:1002900041F470014FF0000030BD7FEA645C1ABF8A
:1002A000194610467FEA655C1CBF0B46024650EAC1
:1002B000013406BF52EA033591EA030F41F40021ED
:1002C00030BD00BF90F0000F04BF0021704730B573
:1002D0004FF4806404F132044FF000054FF0000148
:1002E00050E700BF90F0000F04BF0021704730B509
:1002F0004FF4806404F1320410F0004548BF4042DE
:100300004FF000013EE700BF42004FEAE2014FEA32
:1003100031014FEA02701FBF12F07F4393F07F4F0D
:1003200081F06051704732F07F4208BF704793F010
:100330007F4F04BF41F40021704730B54FF4607423
:1003400001F0004521F000411CE700BF50EA010226
:1003500008BF704730B54FF000050AE050EA0102CF
:1003600008BF704730B511F0004502D5404261EB3F
:1003700041014FF4806404F132045FEA915C3FF480
:10038000D8AE4FF003025FEADC0C18BF03325FEA1D
:10039000DC0C18BF033202EBDC02C2F1200300FACE
:1003A00003FC20FA02F001FA03FE40EA0E0021FAF3
:1003B00002F11444BDE600BF70B54FF0FF0C4CF4E1
:1003C000E06C1CEA11541DBF1CEA135594EA0C0F93
:1003D00095EA0C0F00F0DEF82C4481EA030621EACE
:1003E0004C5123EA4C5350EA013518BF52EA033509
:1003F00041F4801143F4801338D0A0FB02CE4FF0BB
:100400000005E1FB02E506F00042E0FB03E54FF0EA
:100410000006E1FB03569CF0000F18BF4EF0010EE2
:10042000A4F1FF04B6F5007F64F5407404D25FEADE
:100430004E0E6D4146EB060642EAC62141EA555191
:100440004FEAC52040EA5E504FEACE2EB4F1FD0CD3
:1004500088BFBCF5E06F1ED8BEF1004F08BF5FEA51
:10046000500E50F1000041EB045170BD06F0004603
:1004700046EA010140EA020081EA0301B4EB5C04B0
:10048000C2BFD4EB0C0541EA045170BD41F48011A8
:100490004FF0000E013C00F3AB8014F1360FDEBFCD
:1004A000002001F0004170BDC4F10004203C35DAA9
:1004B0000C341BDC04F11404C4F1200500FA05F32C
:1004C00020FA04F001FA05F240EA020001F00042CD
:1004D00021F0004110EBD37021FA04F642EB060143
:1004E0005EEA430E08BF20EAD37070BDC4F10C046D
:1004F000C4F1200500FA04F320FA05F001FA04F231
:1005000040EA020001F0004110EBD37041F100011C
:100510005EEA430E08BF20EAD37070BDC4F1200527
:1005200000FA05F24EEA020E20FA04F301FA05F28F
:1005300043EA020321FA04F001F0004121FA04F237
:1005400020EA020000EBD3705EEA430E08BF20EA07
:10055000D37070BD94F0000F0FD101F00046400041
:1005600041EB010111F4801F08BF013CF7D041EAC3
:10057000060195F0000F18BF704703F000465200C7
:1005800043EB030313F4801F08BF013DF7D043EA98
:100590000603704794EA0C0F0CEA135518BF95EA4E
:1005A0000C0F0CD050EA410618BF52EA4306D1D1D5
:1005B00081EA030101F000414FF0000070BD50EAF4
:1005C000410606BF1046194652EA430619D094EA7E
:1005D0000C0F02D150EA013613D195EA0C0F05D168
:1005E00052EA03361CBF104619460AD181EA0301BC
:1005F00001F0004141F0FE4141F470014FF0000074
:1006000070BD41F0FE4141F4780170BD70B54FF00E
:10061000FF0C4CF4E06C1CEA11541DBF1CEA13558E
:1006200094EA0C0F95EA0C0F00F0A7F8A4EB050470
:1006300081EA030E52EA03354FEA013100F0888067
:100640004FEA03334FF0805545EA131343EA126330
:100650004FEA022245EA111545EA10654FEA0026E5
:100660000EF000419D4208BF964244F1FD0404F59E
:10067000407402D25B084FEA3202B61A65EB0305FA
:100680005B084FEA32024FF480104FF4002CB6EBB7
:10069000020E75EB030E22BFB61A754640EA0C0037
:1006A0005B084FEA3202B6EB020E75EB030E22BF77
:1006B000B61A754640EA5C005B084FEA3202B6EBB8
:1006C000020E75EB030E22BFB61A754640EA9C0077
:1006D0005B084FEA3202B6EB020E75EB030E22BF47
:1006E000B61A754640EADC0055EA060E18D04FEA05
:1006F000051545EA16754FEA06164FEAC30343EAA5
:1007000052734FEAC2025FEA1C1CC0D111F4801F71
:100710000BD141EA00014FF000004FF0004CB6E76A
:1007200011F4801F04BF01430020B4F1FD0C88BF09
:10073000BCF5E06F3FF6AFAEB5EB030C04BFB6EB14
:10074000020C5FEA500C50F1000041EB045170BD07
:100750000EF0004E4EEA113114EB5C04C2BFD4EB34
:100760000C0541EA045170BD41F480114FF0000EB8
:10077000013C90E645EA060E8DE60CEA135594EA34
:100780000C0F08BF95EA0C0F3FF43BAF94EA0C0F37
:100790000AD150EA01347FF434AF95EA0C0F7FF4AC
:1007A00025AF104619462CE795EA0C0F06D152EA00
:1007B00003353FF4FDAE1046194622E750EA4106E4
:1007C00018BF52EA43067FF4C5AE50EA41047FF4F5
:1007D0000DAF52EA43057FF4EBAE12E74FF0FF3C5A
:1007E00006E000BF4FF0010C02E000BF4FF0010C2B
:1007F0004DF804CD4FEA410C7FEA6C5C4FEA430CA4
:1008000018BF7FEA6C5C1BD001B050EA410C0CBFF2
:1008100052EA430C91EA030F02BF90EA020F002054
:10082000704710F1000F91EA030F58BF994208BFBB
:1008300090422CBFD8176FEAE37040F00100704778
:100840004FEA410C7FEA6C5C02D150EA013C07D1CF
:100850004FEA430C7FEA6C5CD6D152EA033CD3D01A
:100860005DF8040B704700BF8446104662468C4614
:100870001946634600E000BF01B5FFF7B7FF002847
:1008800048BF10F1000F01BD4DF808EDFFF7F4FF70
:100890000CBF012000205DF808FB00BF4DF808EDFB
:1008A000FFF7EAFF34BF012000205DF808FB00BF1E
:1008B0004DF808EDFFF7E0FF94BF012000205DF840
:1008C00008FB00BF4DF808EDFFF7CEFF94BF0120F5
:1008D00000205DF808FB00BF4DF808EDFFF7C4FFEE
:1008E00034BF012000205DF808FB00BF4FEA410C37
:1008F0007FEA6C5C02D150EA013C0AD14FEA430C1A
:100900007FEA6C5C02D152EA033C02D14FF0000056
:1009100070474FF0010070474FEA410212F5001294
:1009200015D211D56FF47873B3EB625212D94FEA36
:10093000C12343F0004343EA505311F0004F23FA20
:1009400002F018BF404270474FF00000704750EA75
:10095000013005D111F0004008BF6FF00040704732
:100960004FF00000704700BF4A0011D212F500128C
:1009700011D20DD56FF47873B3EB62520ED44FEAF7
:10098000C12343F0004343EA505323FA02F0704777
:100990004FF00000704750EA013002D14FF0FF30B5
:1009A00070474FF0000070474FEA4102B2F1E04358
:1009B00024BFB3F5001CDCF1FE5C0DD901F0004C46
:1009C0004FEAC0024CEA5070B2F1004F40EB830096
:1009D00008BF20F00100704711F0804F21D113F1C2
:1009E0003872BCBF01F00040704741F480114FEAFB
:1009F0005252C2F11802C2F1200C10FA0CF320FA84
:100A000002F018BF40F001004FEAC1234FEAD323A0
:100A100003FA0CFC40EA0C0023FA02F34FEA43030A
:100A2000CCE77FEA625307D150EA01331EBF4FF093
:100A3000FE4040F44000704701F0004040F0FE40AE
:100A400040F40000704700BF80F0004002E000BFAB
:100A500081F0004142001FBF5FEA410392EA030FA9
:100A60007FEA226C7FEA236C6AD04FEA1262D2EBF3
:100A70001363C1BFD218414048404140B8BF5B42F8
:100A8000192B88BF704710F0004F40F4000020F091
:100A90007F4018BF404211F0004F41F4000121F0A7
:100AA0007F4118BF494292EA030F3FD0A2F10102F1
:100AB00041FA03FC10EB0C00C3F1200301FA03F12F
:100AC00000F0004302D5494260EB4000B0F5000F52
:100AD00013D3B0F1807F06D340084FEA310102F111
:100AE0000102FE2A51D2B1F1004F40EBC25008BFC3
:100AF00020F0010040EA03007047490040EB00008D
:100B0000013A28BFB0F5000FEDD2B0FA80FCACF18D
:100B1000080CB2EB0C0200FA0CF0AABF00EBC250BA
:100B200052421843BCBFD0401843704792F0000FA8
:100B300081F4000106BF80F400000132013BB5E7FB
:100B40004FEA41037FEA226C18BF7FEA236C21D071
:100B500092EA030F04D092F0000F08BF08467047D6
:100B600090EA010F1CBF0020704712F07F4F04D1A4
:100B7000400028BF40F00040704712F100723CBFB7
:100B800000F50000704700F0004343F0FE4040F4E1
:100B9000000070477FEA226216BF08467FEA23639F
:100BA0000146420206BF5FEA412390EA010F40F48A
:100BB000800070474FF0000304E000BF10F00043D6
:100BC00048BF40425FEA000C08BF704743F09643BD
:100BD00001464FF000001CE050EA010208BF7047D8
:100BE0004FF000030AE000BF50EA010208BF70475F
:100BF00011F0004302D5404261EB41015FEA010C74
:100C000002BF84460146002043F0B64308BFA3F16B
:100C10008053A3F50003BCFA8CF2083AA3EBC2534D
:100C200010DB01FA02FC634400FA02FCC2F120026C
:100C3000BCF1004F20FA02F243EB020008BF20F0A3
:100C40000100704702F1200201FA02FCC2F1200209
:100C500050EA4C0021FA02F243EB020008BF20EAFE
:100C6000DC70704753B94AB9002908BF00281CBF7F
:100C70004FF0FF314FF0FF3000F0B2B9ADF1080C8A
:100C80006DE904CE00F044F8DDF804E0DDE902236C
:100C900004B07047D0B5FFF737FB0C4B0022064677
:100CA0000F46FFF789FBFFF75FFE0446FFF70AFBDD
:100CB000074B0022FFF780FB02460B4630463946C1
:100CC000FFF7C2F9FFF750FE2146D0BD0000F03D0E
:100CD0000000F041D0B50C4B002206460F46FFF74E
:100CE0006BFBFFF741FE0446FFF7ECFA074B0022CF
:100CF000FFF762FB02460B4630463946FFF7A4F980
:100D0000FFF732FE2146D0BD0000F03D0000F0416B
:100D10002DE9F047089D04468E46002B4DD18A42AE
:100D2000944669D9B2FA82F252B101FA02F3C2F1E1
:100D3000200120FA01F10CFA02FC41EA030E944072
:100D40004FEA1C48210CBEFBF8F61FFA8CF708FB93
:100D500016E341EA034306FB07F199420AD91CEB6B
:100D6000030306F1FF3080F01F81994240F21C819D
:100D7000023E63445B1AA4B2B3FBF8F008FB1033E5
:100D800044EA034400FB07F7A7420AD91CEB04041A
:100D900000F1FF3380F00A81A74240F207816444EA
:100DA000023840EA0640E41B00261DB1D44000236F
:100DB000C5E900433146BDE8F0878B4209D9002DD3
:100DC00000F0EF800026C5E9000130463146BDE85D
:100DD000F087B3FA83F6002E4AD18B4202D38242C7
:100DE00000F2F980841A61EB030301209E46002D76
:100DF000E0D0C5E9004EDDE702B9FFDEB2FA82F2CB
:100E0000002A40F09280A1EB0C014FEA1C471FFA28
:100E10008CFE0126200CB1FBF7F307FB131140EA0F
:100E200001410EFB03F0884208D91CEB010103F1DC
:100E3000FF3802D2884200F2CB804346091AA4B29E
:100E4000B1FBF7F007FB101144EA01440EFB00FE72
:100E5000A64508D91CEB040400F1FF3102D2A645D7
:100E600000F2BB800846A4EB0E0440EA03409CE776
:100E7000C6F12007B34022FA07FC4CEA030C20FA23
:100E800007F401FA06F31C43F9404FEA1C4900FA43
:100E900006F3B1FBF9F8200C1FFA8CFE09FB1811C0
:100EA00040EA014108FB0EF0884202FA06F20BD933
:100EB0001CEB010108F1FF3A80F08880884240F283
:100EC0008580A8F102086144091AA4B2B1FBF9F0C7
:100ED00009FB101144EA014100FB0EFE8E4508D9C2
:100EE0001CEB010100F1FF346CD28E456AD9023847
:100EF000614440EA0840A0FB0294A1EB0E01A1422C
:100F0000C846A64656D353D05DB1B3EB080261EB99
:100F10000E0101FA07F722FA06F3F1401F43C5E973
:100F2000007100263146BDE8F087C2F12003D840A9
:100F30000CFA02FC21FA03F3914001434FEA1C47EB
:100F40001FFA8CFEB3FBF7F007FB10360B0C43EADD
:100F5000064300FB0EF69E4204FA02F408D91CEB8D
:100F6000030300F1FF382FD29E422DD9023863448B
:100F70009B1B89B2B3FBF7F607FB163341EA03412B
:100F800006FB0EF38B4208D91CEB010106F1FF387A
:100F900016D28B4214D9023E6144C91A46EA004671
:100FA00038E72E46284605E70646E3E61846F8E603
:100FB0004B45A9D2B9EB020864EB0C0E0138A3E74C
:100FC0004646EAE7204694E74046D1E7D0467BE72D
:100FD000023B614432E7304609E76444023842E7A5
:100FE000704700BF844641EA000313F003036DD14C
:100FF000403A41D351F8043B40F8043B51F8043BDC
:1010000040F8043B51F8043B40F8043B51F8043BE2
:1010100040F8043B51F8043B40F8043B51F8043BD2
:1010200040F8043B51F8043B40F8043B51F8043BC2
:1010300040F8043B51F8043B40F8043B51F8043BB2
:1010400040F8043B51F8043B40F8043B51F8043BA2
:1010500040F8043B51F8043B40F8043B51F8043B92
:1010600040F8043B51F8043B40F8043B51F8043B82
:1010700040F8043B403ABDD2303211D351F8043B22
:1010800040F8043B51F8043B40F8043B51F8043B62
:1010900040F8043B51F8043B40F8043B103AEDD2D1
:1010A0000C3205D351F8043B40F8043B043AF9D222
:1010B000043208D0D2071CBF11F8013B00F8013BF5
:1010C00001D30B8803806046704700BF082A13D302
:1010D0008B078DD010F003038AD0C3F10403D21A1A
:1010E000DB071CBF11F8013B00F8013B80D331F84E
:1010F000023B20F8023B7BE7043AD9D3013A11F8CE
:10110000013B00F8013BF9D20B7803704B78437038
:101110008B7883706046704700000000000000007C
:10112000A2EB0300704700BF02780B78012A28BFAA
:101130009A42F5D16DE9044540EA0104CDE9026720
:101140006FF0000C4FEA447212B380EA010414F00D
:10115000070F6AD100F0070420F0070004F0030530
:1011600021F007014FEAC505F0E8042314F0040F4D
:10117000F1E804670CFA05F462EA040266EA040680
:101180000AD063EA0403624667EA0407664603E09E
:10119000F0E80423F1E8046782FA4CF582EA0604D9
:1011A000A4FA8CF46CBB83FA4CF583EA0705A5FA24
:1011B0008CF595B950E9022351E9026782FA4CF5A2
:1011C00082EA0604A4FA8CF483FA4CF583EA070554
:1011D000A5FA8CF52543DBD09CB92DBAB5FA85F478
:1011E00024F0070427FA04F1DDE9026723FA04F387
:1011F00003F0FF0001F0FF01FDE80445A0EB010052
:10120000704724BAB4FA84F424F0070426FA04F1EF
:10121000DDE9026722FA04F202F0FF0001F0FF01AB
:10122000FDE80445A0EB0100704714F0030F3CD12A
:1012300010F0030428D150F8082B51F8083B82FA2B
:101240004CF582EA0305A5FA8CF55DB950F8042C3B
:1012500051F8043C82FA4CF582EA0305A5FA8CF5B4
:10126000002DE8D02DBAB5FA85F424F0070423FA4E
:1012700004F122FA04F202F0FF0001F0FF01FDE8A0
:101280000445A0EB010070474FEAC40420F00300BE
:1012900050F8082B21F0030151F8083B0CFA04F434
:1012A00062EA040263EA0403C9E710F003041AD0F7
:1012B000A1EB040120F00300E40750F8042B06D052
:1012C0000FD28B785FFAA2F4E41A06D12BB1CB7857
:1012D0005FFAB2F4E41A00D11BB920465DF8104B56
:1012E000704701F1040150F8042BCC0721F00301F1
:1012F00051F8043B48D824D222F07F4482FA4CF5BE
:1013000094EA1325A5FA8CF50AD165B951F8043B86
:1013100084EA0204B4EB036F0ED150F8042BEBE720
:101320004FEA132355E035F07F454DD10878FDE8AD
:101330000445C0F1000070474FEA126203F0FF035A
:1013400047E002EA1C4482FA4CF594EA1345A5FAF8
:101350008CF50AD165B951F8043B84EA0204B4EB78
:10136000034F0CD150F8042BEBE74FEA134330E066
:1013700015EA1C4528D10B884FEA124229E04FEAB2
:10138000124203EA1C4324E002F0FF0482FA4CF507
:1013900094EA1365A5FA8CF50AD165B951F8043BB6
:1013A00084EA0204B4EB032F09D150F8042BEBE7D5
:1013B0004FEA13630DE015F0FF0F05D10B684FEAFC
:1013C000122223F07F4304E04FF00000FDE80445C3
:1013D000704712BA1BBA82FA4CF482EA0304A4FAE8
:1013E0008CF5B5FA85F402FA04F203FA04F34FEA35
:1013F0001260FDE80445A0EB136070470000000098
:1014000090F800F06DE9024520F007016FF0000C44
:1014100010F0070491F820F040F049804FF00004EC
:101420006FF00700D1E9002391F840F000F10800C7
:1014300082FA4CF2A4FA8CF283FA4CF3A2FA8CF3FF
:101440004BBBD1E9022382FA4CF200F10800A4FA66
:101450008CF283FA4CF3A2FA8CF3E3B9D1E90423BA
:1014600082FA4CF200F10800A4FA8CF283FA4CF3F1
:10147000A2FA8CF37BB9D1E9062301F1200182FAAB
:101480004CF200F10800A4FA8CF283FA4CF3A2FAB1
:101490008CF3002BC6D0002A04BF04301A4612BABF
:1014A000B2FA82F2FDE8024500EBD2007047D1E9C2
:1014B000002304F00305C4F100004FEAC50514F051
:1014C000040F91F840F00CFA05F562EA05021CBF22
:1014D00063EA050362464FF00004A9E7000000003C
:1014E00001F0FF01102A2BDB10F0070F08D010F8D5
:1014F000013B013A8B422DD010F0070F42B3F6D1D9
:10150000F0B441EA012141EA014122F007047FF0F1
:1015100000070023F0E80256083C85EA010586EA48
:10152000010685FA47F5A3FA87F586FA47F6A5FA84
:1015300087F68EB9EED1F0BC01F0FF0102F0070290
:1015400032B110F8013B013A83EA010313B1F8D13B
:101550000020704701387047002D06BF354603381C
:10156000073815F0010F07D1013015F4807F02BF55
:10157000013015F4C03F0130F0BC0138704700BFA6
:1015800008B508F05BFA044A0449034612200FF03C
:10159000E7FE07F059FF08BDB4840408C0840408BE
:1015A00010B5044600F070F900B110BD2046BDE84A
:1015B000104003F0EBBE00BF38B5044670B143697C
:1015C000002B2ED02569002D33D0012025680DB3C6
:1015D000A568ADB1E5684DB1A58805B138BD227EDD
:1015E0001749432010F00AFA284638BD4320227ECE
:1015F000144910F003FA2846A588002DEED1EEE735
:101600004320227E104910F0F9F92846E568002DA4
:10161000E2D1EBE74320227E0C4910F0EFF9284697
:10162000D6E7027E0A4943200FF09AFE2569002D75
:10163000CBD14320227E074910F0E0F92846C5E7C8
:101640003C8504082885040810850408F8840408EB
:10165000DC840408E8840408014B185C704700BF70
:10166000988504082DE9F843024648490546432079
:101670000FF076FE27F0E4FE00286FD0444E0024E1
:10168000334602E00134A04268D01A7EAA4203F138
:101690001C03F7D1C4EBC40906EB89094FEAC4085F
:1016A00099F81930002B59D04846FFF785FF0746B7
:1016B00000284BD0484623F095FD3649024643208A
:1016C0000FF04EFE27F0BCFE002857D0DFF8D89070
:1016D00000224B4604E00132904203F120034DD03A
:1016E000197EA942F7D1597E0029F4D0A8EB040451
:1016F000A10006EB840409EB4215570101F1080330
:1017000072582069F158286149F80720F21807F14A
:101710000803526849F803104B4400215A60A3881B
:10172000AB806369E96101246B6114226C762FF050
:1017300055F959F807302869D5E902122CF09AF8C2
:10174000154B1F5C9FB93846BDE8F88313492A46FC
:10175000432010F053F93846BDE8F8830F492A4674
:10176000432000270FF04CFF3846BDE8F8832A7E5F
:101770000B49AC7643200FF09BFEE4E709492A466B
:10178000432010F03BF93846BDE8F8835C85040837
:10179000F48005088C9F0408988504087C8504085B
:1017A000688504088C850408C00F002070B50C4AB9
:1017B0000C4943200FF07CFE27F042FE0024054632
:1017C00026462046FFF74EFF0134E4B200B1013651
:1017D000AC42F6D9701BB0FA80F0400970BD00BF72
:1017E0009C3A05085085040870B582B04FF0000C93
:1017F000914204468DF805C00AD302D0604602B07B
:1018000070BD0DF10500201A1860012002B070BDF6
:101810004E1C964296468DF806C006D3EED10DF1C9
:101820000600201A18600120E9E78E1CB2428DF8EC
:1018300007C006D8E2D10DF10700201A1860012078
:10184000DDE70331FFF7D0FFD9E700BF38B5044625
:1018500027F05AFE90B10B4D00222B4604E00132D6
:10186000904203F124030AD01979A142F7D1197CDF
:101870000029F4D002EBC20205EB820038BD002043
:1018800038BD00BF0824002000F16040B0F5E03F03
:101890008CBF00200120704710B582B04FF0000EC1
:1018A000944603468DF804E00A4659B901A81B1A6C
:1018B000CCF80030012417490A200FF0F9FD20462A
:1018C00002B010BD01298DF805E006D10DF105002B
:1018D0001B1ACCF800300C46EDE702298DF806E023
:1018E00006D10DF106001B1ACCF800300124E2E706
:1018F00003298DF807E006D10DF10701431ACCF852
:1019000000300124D7E763460421FFF76DFF1B6811
:101910000446D0E79886040808B506490A200FF067
:101920001FFD4FF47A701DF0EDF9BDE8084000F09E
:101930005DBA00BFB48604082DE9F0410E4686B0BA
:10194000154600271346154903970DF10C08044668
:1019500032460A20C8E901770FF0FCFE032D07D8B4
:1019600098E8070084E80700204606B0BDE8F0814B
:10197000A9080B4A019102AB701B02970BF080FE85
:1019800001990028ECD0029B6420CB1A03FB00F0E5
:101990000522434617F0AEFFE2E700BF10870408B8
:1019A000EFBEADDE10B50446D0E90710626A091833
:1019B0004FF000035B415118A26A606B43F10003D2
:1019C000521843F10003821843F10003134328D156
:1019D0002068FFF759FF58B3606803F0D7FC70B375
:1019E000E06803F0D3FC08B3206903F0CFFCE8B152
:1019F000606903F0CBFCC8B1A06903F0C7FCA8B1D3
:101A0000206B03F0C3FC88B1E06A03F0BFFC68B14F
:101A1000A06B03F0BBFC48B1A068BDE8104003F028
:101A2000B5BC0A4922460A200FF094FE002010BDE2
:101A3000074922460A200FF08DFE002010BD626883
:101A400004490A200FF086FE002010BDC08604085D
:101A5000DC860408F8860408044AD2F8883043F487
:101A600070030120C2F88830704700BF00ED00E02D
:101A70000C4B9A6A42F400429A62EFF3138171B6FA
:101A80005A6942F480725A610278986A5A6922F45B
:101A900080725A6181F3138880F40040C0F3C03033
:101AA000704700BF00ED00E030B583B00246019002
:101AB0001E490A200FF0FCFC1D498B6A43F40043C9
:101AC0008B62EFF3138371B64869019A40F480701A
:101AD000486110788D6A15F400450FD00025144830
:101AE000416921F48071416183F3138811492B46C8
:101AF0000A200FF0DDFC284603B030BD0C494C69CC
:101B000024F480744C6183F313888C6A44F4004499
:101B100001358C62EFF3138371B64C6944F4807421
:101B20004C61505D896A0904E8D5D8E7D487040878
:101B300000ED00E0308704082DE9F04F83B027F076
:101B4000E3FC00258146A84651492A460A200FF0A9
:101B500007FC27F0D9FC00287BD04E4E00243346EA
:101B600002E00134A04274D01A79AA4203F11403AE
:101B7000F7D104EB840706EB87074FEA840A3B7C26
:101B8000002B66D0D7F808B05846FFF77DFE0190CD
:101B9000002864D0544406EB8403D3F80CA05046CC
:101BA000FFF772FE002845D056F82440002C5DD087
:101BB000019B002B47D0384601F0BEFD3649024656
:101BC0000A200FF0CDFB27F09FFC002859D0334F9F
:101BD0000022394604E00132904201F1240150D044
:101BE0000B79AB42F7D10B7C002BF4D002EBC20295
:101BF00007EB820147F82240C1E902BA284CD4F829
:101C00008800002340F47000C4F88800C1E906335E
:101C100040F201164B610E8208F101080135EDB268
:101C20004D4591D9A8EB0900B0FA80F0400903B006
:101C3000BDE8F08F53461B492A460A200FF0E0FC0E
:101C400056F8243093B118492A460A200FF0D6FEE0
:101C5000E4E715492A460A200FF0D2FCDEE71349D3
:101C60005B462A460A200FF0CBFC93E72A46104930
:101C70000A200FF0C5FC0C492A460A200FF0BEFED0
:101C8000CCE70C492A460A200FF0B8FEC4E700BF93
:101C900044870408FC8405088C9F0408082400205D
:101CA00000ED00E0688704087C8504084C87040880
:101CB000848704088C850408032901D90020704713
:101CC00030B5054683B008460C4600F0D9F82346E7
:101CD00000901B492A4601200FF0EAFB194BD3F86C
:101CE00088300B2D0FD8DFE805F0101316191C1FD4
:101CF00022250E0E280664F39753124A0120C2F8DB
:101D0000883003B030BD0020FBE764F30103F4E743
:101D100064F38303F1E764F30513EEE764F38713D9
:101D2000EBE764F30923E8E764F38B23E5E764F367
:101D30000D33E2E764F38F33DFE764F31553DCE739
:101D40009887040800ED00E061B1204BD3F888309B
:101D50000B2807D8DFE800F00D12171C21262B30C6
:101D60000606350800207047C3F381530B7001202D
:101D70007047C3F301030B7001207047C3F3810365
:101D80000B7001207047C3F301130B7001207047E3
:101D9000C3F381130B7001207047C3F301230B7051
:101DA00001207047C3F381230B7001207047C3F3F8
:101DB00001330B7001207047C3F381330B70012096
:101DC0007047C3F301530B700120704700ED00E032
:101DD00020B1002383F3108800207047012383F390
:101DE00010880020704700BF0020704708B50A49DE
:101DF00001200FF0B5FA09F055F872B6BFF34F8F16
:101E00000649074BCA6802F4E0621343CB60BFF394
:101E10004F8F00BFFDE700BFB087040800ED00E072
:101E20000400FA0572B6012383F31088074B4FF0C4
:101E300000629A60002282F3108862B69868A0F16E
:101E40000060B0FA80F04009704700BF00ED00E08C
:101E500010B50B4604460246074901200FF028FB47
:101E6000072C06D8054B0234002243F82420012019
:101E700010BD002010BD00BFC0870408002000E096
:101E800003289ABF024B53F820000248704700BF56
:101E90006C890408F43E050810B50446002845D0B6
:101EA0002348214610F090F9A168224810F08CF9DF
:101EB0002168214810F088F96168204810F084F901
:101EC000E1681F4810F080F921691E4810F07CF984
:101ED00061691D4810F078F9616A1C4810F074F9C6
:101EE000A16A1B4810F070F9E16A1A4810F06CF909
:101EF000216B194810F068F9616B184810F064F90B
:101F0000A16B174810F060F9E16B164810F05CF90E
:101F1000A16C154810F058F9E16C144810F054F910
:101F20001348D4F8881010F04FF9012010BD00BFFD
:101F3000E0870408EC870408FC8704080C88040880
:101F40001C8804082C8804083C8804084C88040871
:101F50005C8804086C8804087C8804088C88040861
:101F60009C880408AC880408BC880408CC88040851
:101F7000DC880408114B124A10F0010110B518BF9B
:101F80001A4604460F4810F01FF90F4B0F4A10482D
:101F900014F0020F18BF1A46C4F3400110F014F9F0
:101FA0000C4B0D4A0D4814F0040F18BF1A46C4F329
:101FB000800110F009F9012010BD00BFF888040865
:101FC000EC880408148904080C89040808890408AA
:101FD00028890408B8DA0408108904083889040834
:101FE00010B50B4810F0F0F800242146094810F015
:101FF000EBF8A21C084B094853F8221010F0E4F843
:102000000134034810F0E0F8082CEED1012010BD97
:102010007CC9040848890408002000E0BC020508C7
:1020200008B5C0B90F49104810F0CEF80F4B104951
:102030001B684FF0006201201268D21A0FF090F96D
:102040001DF08EFC0B48FFF727FFEFF31480FFF71E
:1020500091FF012008BD084901200FF0CFFC0020AE
:1020600008BD00BF815103087C89040804000020DA
:102070008C89040800ED00E0B489040870B582B0D2
:10208000124B0193A8B10128044607D01049012042
:102090000FF0B4FC0026304602B070BD08680D4653
:1020A00001A90CF0ADFD064650B1019801F09AFB74
:1020B000F1E7184601F096FB0126304602B070BDEC
:1020C0002A68044920460FF099FCE4E7004E0020FE
:1020D000E8890408C089040830B5012383B0984218
:1020E0008DF8073007D00E4901200FF087FC00253E
:1020F000284603B030BD044608680DF107010CF016
:1021000037FF0028EFD09DF80700FFF761FE054676
:102110000028EDD0034920460FF0CAF9E8E700BFD8
:10212000F4890408C4B3040830B587B00023051E41
:102130008DF816308DF817302EDB24D1284607E0B5
:102140009DF816300133D8B210288DF8160028D823
:1021500000230DF117018DF81730FFF7F5FD044648
:102160000028EDD09DF817309DF8162003921846F0
:102170000293FFF785FEDDE9023200902A49012033
:102180000FF096F9DCE708680C460DF116010CF02B
:10219000A5FE012D08D160BB244901200FF02EFCC3
:1021A0000024204607B030BD60680DF117010CF027
:1021B00095FE04460028EFD0022DF2D19DF817308D
:1021C0009DF81620039218460293FFF759FE044625
:1021D000DDE902320094164901200FF069F99DF8FB
:1021E00017109DF81600FFF767FD0446204607B05C
:1021F00030BD0DF117019DF81600FFF7A5FD9DF804
:1022000017309DF816200392044618460293FFF7F4
:1022100037FEDDE902320090034928460FF048F905
:10222000204607B030BD00BF088A0408208A040891
:102230009887040830B5012383B098428DF80730A1
:1022400007D00E4901200FF0D9FB0025284603B026
:1022500030BD044608680DF107010CF089FE002826
:10226000EFD09DF80700FFF7BFFD05460028EDD031
:10227000034920460FF01CF9E8E700BF388A04083C
:10228000C4B3040870B582B00024051E8DF8034065
:1022900001940DDB03D1FFF7A3FE02B070BD086807
:1022A0000E460DF103010CF019FE012D07D118B9EE
:1022B0000A4901200FF0A2FB002002B070BD706837
:1022C00001A90CF09DFC0028F2D0022DF4D1019957
:1022D0009DF80300FFF7BCFD02B070BD4C8A0408F6
:1022E0006FF00C031A06D9B21BD410B45A090F4C64
:1022F0000120203201F01F0100FA01F144F8221000
:10230000BFF34F8FBFF36F8F0133522B05D01806E9
:10231000D9B2EBD50133522BF9D101205DF8044B32
:1023200070470133522BDDD10120704700E100E0FE
:1023300010B582B002460191019B15490446332035
:102340000FF0B6F8019B73B163B2002B08DB1149A3
:102350005B0904F01F04012202FA04F441F823404F
:10236000012002B010BD63B2002BF9DB5B09094903
:102370000122203304F01F0402FA04F441F8234040
:10238000BFF34F8FBFF36F8F012002B010BD00BFAE
:10239000688A040800E100E010B5024604460549D9
:1023A00033200FF085F814B162B6012010BD72B66B
:1023B000012010BD788A040810F10E0F1AD010F118
:1023C0000D0F1CD010F10C0F1BD010F10B0F1AD0F9
:1023D00010F10A0F19D010F1090F18D0431D18D0B1
:1023E000011D18D0821C18D0431C08BF092302D03D
:1023F00004F076B800230A4A52F8330070470123EC
:10240000F9E70223F7E70323F5E70423F3E70523BE
:10241000F1E70623EFE70723EDE70823EBE700BF2B
:10242000788B040800B301281ED002281CD0032892
:102430001AD0042818D0052816D0062814D007284A
:1024400012D0082810D009280DD00A280CD00B284B
:102450000AD00C2808D00D2806D00E2804D00F284A
:1024600002D0034870470920024B53F830007047F0
:10247000F43E0508C88B040870B584B00023012819
:10248000ADF80E300FD0214B2149DA680120C2F39C
:1024900002220FF00DF81F4933200FF0AFFA00258C
:1024A000284604B070BD0B4604460DF10E01174ED0
:1024B00018680CF0F3FCF26815490546C2F30222D5
:1024C00020460EF0F5FF002DE5D09DF90E10BDF968
:1024D0000E20002913DB01F1604303F5614393F8FB
:1024E00000331B0909481031806850F82100009022
:1024F000094901200EF0DCFF284604B070BD02F04F
:102500000F03043B1E44337E1B09EBE700ED00E0A4
:10251000488C0408848C04085C8C040810B582B0D4
:102520000023022801938DF8033006D0332014498C
:102530000FF064FA002002B010BD0C460DF103014B
:1025400020680CF0F5FC206801A90CF059FB00286C
:10255000ECD09DF90330019A002B09DB03F16043B5
:1025600003F561431201D2B283F8002302B010BD1B
:10257000044903F00F0312011944D2B20A76DAE7D4
:10258000948C0408FCEC00E030B583B00023041EFA
:102590008DF806308DF8073006DC124933200FF035
:1025A0002DFA002003B030BD08680D460DF106017C
:1025B0000CF0BEFC012C04D10028EED0012003B0A9
:1025C00030BD68680DF107010CF0D2FC0028E4D0A2
:1025D000022CF3D19DF807109DF90600FFF7A8FE25
:1025E00003B030BDB08C04082DE9F04F0023ADB02E
:1025F000041ECDE90433CDE90633CDE90833CDE936
:102600000A33CDE90C3304DA039303982DB0BDE807
:10261000F08F14220D4604A87E492EF017FC7D4948
:10262000142209A82EF012FC8CB12968142204A8E7
:102630002EF00CFC012C0AD06968142209A82EF097
:1026400005FC022C03D0744901200FF0D7F9734B1D
:102650007349DA680120C2F302220EF029FF714BA0
:1026600071491868092224300FF0C2FB00234FF093
:1026700008086FF00D0403939B4678E0660904F1A7
:10268000604303F56143B60006F1604693F80073BA
:10269000624B664906F561460EA8D6F800A09B6815
:1026A00053F8083002932EF033FB0EA90B46604A14
:1026B000009405F01F05782118462EF039FA2AFA01
:1026C00005F000F0010026F0A7FC0EA90B46594AC0
:1026D0000090782118462EF02BFA029B00930EAB47
:1026E000554A782118462EF023FAD6F80032534A7C
:1026F000EB4003F0010300930EAB184678212EF057
:1027000017FAD6F8003123FA05F53F0905F001055F
:102710000EAB4B4A0095782118462EF009FA0EAB05
:10272000484A0097782118462EF002FA3846FFF7FB
:1027300079FE0EAB444A0090782118462EF0F8F945
:102740004846FFF739FE0EAB3F4A00907821184605
:102750002EF0EEF909AA04A90EA80EF029FB0546F1
:10276000002839D10134522C08F1040846D04FFA20
:1027700084F9B9F1000FE5B280DA284B2B4905F056
:102780000F05043D1D440EA82F7E9B6853F808508A
:102790002EF0BEFA0EAB264A0094782118462EF091
:1027A000C7F9002026F038FC0EAB0090214A7821B2
:1027B00018462EF0BDF90EAB00951F4A7821184639
:1027C0002EF0B6F900250EAB1C4A0095782118466C
:1027D0003F092EF0ADF99BE759461C480FF0F4FC79
:1027E00001341B480EA90FF0EFFC0BF10103522C32
:1027F0001FFA83FB039508F10408B8D1094B0A4975
:102800001868092224300FF0EDFA03982DB0BDE8C6
:10281000F08F00BFFCD10408C88C040800ED00E074
:10282000488C040868220020688D04083447050895
:10283000DC8C0408E88C0408F48C0408008D04087F
:102840000C8D0408188D0408248D0408308D0408AC
:102850003089040800B583B0002301288DF80730C3
:1028600007D00B4933200FF0C9F8002003B05DF802
:1028700004FB08680DF107010CF07AFB0028F0D08A
:102880009DF80700FFF788FD03B05DF804FB00BF6B
:10289000388D040838B5012000F00CF848B1036900
:1028A00001330361D0E90623541C43F10005C0E95C
:1028B000064538BD38B5044626F098FD90B10B4D5D
:1028C00000222B4604E00132904203F128030AD093
:1028D0005979A142F7D1D9790029F4D002EB8202CB
:1028E00005EBC20038BD002038BD00BF88090020BC
:1028F0000020704710B526F079FDB8B10D4C0022CC
:10290000234604E00132904203F128030FD05979A5
:102910000129F7D1D9790029F4D002EB820204EB26
:10292000C202906810B1006800F0010010BD0020E4
:1029300010BD00BF8809002010B526F057FDC8B1B2
:102940000D4C0022234604E00132904203F128039B
:1029500010D059790129F7D1D9790029F4D002EBA7
:10296000820204EBC2029268136823F0030161F350
:1029700007031360012010BD8809002010B526F060
:1029800035FDF8B1104C0022234604E0013290429C
:1029900003F1280313D059790129F7D1D9790029F6
:1029A000F4D002EB820204EBC20292683AB11368DF
:1029B00043F0030060F307031360084610BD0021D5
:1029C000084610BD0146FBE78809002038B50446DB
:1029D00026F00CFD8446C0B10D4D00222B4604E0CC
:1029E0000132944503F1280310D059790129F7D118
:1029F000D8790028F4D002EB820205EBC202002154
:102A0000936864F317010BB1596038BD002038BDDD
:102A10008809002038B5044626F0E8FC8446C0B199
:102A20000D4D00222B4604E00132944503F12803AA
:102A300010D059790129F7D1D8790028F4D002EBC8
:102A4000820205EBC202936823B11A6864F3820222
:102A50001A6038BD002038BD8809002010B526F066
:102A6000C5FCC0B10D4C0022234604E00132904267
:102A700003F128030FD059790129F7D1D979002919
:102A8000F4D002EB820204EBC20293681BB1186817
:102A9000C0F3800010BD022010BD00BF88090020D7
:102AA00010B526F0A3FCB8B10D4C0022234604E07B
:102AB0000132904203F128030FD059790129F7D14F
:102AC000D9790029F4D002EB820204EBC2029068AB
:102AD00010B1406820F07F4010BD002010BD00BF45
:102AE0008809002038B526F081FC20B3144C002260
:102AF000234604E00132904203F128031BD05979A8
:102B00000129F7D1D9790029F4D002EB82020D4BCB
:102B100004EBC202D3E9005410694FF47A71A0FBB0
:102B20000101A842C3E9000171EB040302D2D3689A
:102B30000133D36038BD034BD3E9000138BD00BF7A
:102B400088090020802E002070B526F04FFC002858
:102B500034D01D4D00242E462B4604E00134A04203
:102B600003F128032BD05A79012AF7D1DA79002A08
:102B7000F4D026F03BFC002328B913E0013398423F
:102B800005F128050ED06A79012AF7D1EA79002AE1
:102B9000F4D003EB830306EBC3039B6813B11B68FC
:102BA000DB070ED404EB840206EBC202A300D1685B
:102BB0000131D1601C4406EBC406306970BD0020B1
:102BC00070BDA300F6E700BF8809002010B50446D9
:102BD00026F0FCF91549024636200EF069FC0CB3CC
:102BE00026F004FC8446D0B1114C0022234604E0B8
:102BF0000132944503F1280312D059790129F7D104
:102C0000D8790028F4D002EB820204EBC202926869
:102C100032B1136843F0030161F30703136010BD81
:102C2000002010BD08F0A0FE10BD00BFB08D04084C
:102C3000880900202DE9F04F83B008F07DFE26F0D2
:102C4000D5FB4FF000080646474626F0CFFB00288C
:102C50005ED0DFF8589100224B4602E001329042EC
:102C600056D05979414503F11003F7D109EB02130E
:102C70001401DB79002B4BD026F0B8FB002847D09D
:102C8000DFF82CA10025534604E00135A84203F1EA
:102C900028033DD05A794245F7D1DA79002AF4D099
:102CA00009EB040B584600F02BF93B49024636204D
:102CB0000EF056FB59F8044054B3DBF80890B9F114
:102CC000000F25D005EB85053449224636200EF04D
:102CD000EFFB0AEBC5039BF804201A71C3F80890B8
:102CE00083F8058000214AF83540002000251D6149
:102CF000C3E90601019308F045FE294902468246D0
:102D000036200EF0D5FB019BBAF1000F0DD1013733
:102D100008F101085FFA88F8B04596D9B81BB0FAF7
:102D200080F0400903B0BDE8F08F07EE904ADFED78
:102D30001D6AC3F80890F8EE677A07EE10AA67EEEE
:102D4000A67AB8EE477A019367EE877AB9F804203D
:102D50001549FCEEE77A17EE902A22F07F4290B2F6
:102D6000A9F80400120C99F8060089F80620D9F891
:102D70000420362022F07F420EF09AFB019B9BF844
:102D800006109B681A891D819A7A9D72032261F34D
:102D900082021A60BBE700BF8C9F0408B88D04084C
:102DA000C88D04086F12833ADC8D04081C51050895
:102DB0008809002030B1054A054B012808BF134699
:102DC00018467047034B1846704700BFF48D04083F
:102DD000F43E0508E88D040838B501202DED028B7E
:102DE000FFF768FD002865D00446FFF737FE05466B
:102DF000FFF780FD26F0EAF83149024636200EF052
:102E000057FB002D5AD02F4A2F4B012D08BF1A46D1
:102E10002E4936200EF04CFBFFF76AFD2C49024686
:102E200036200EF045FBFFF73BFE2A4902463620CE
:102E30000EF03EFBE268284936200EF039FBFFF722
:102E400083FE0546FFF74EFE07EE905A0B460246FC
:102E500022493620B8EE678A0EF02AFB20492A461E
:102E600036200EF025FB22691E4936200EF020FB8D
:102E7000D4E906231C4936200EF01AFBDFED1B7A3D
:102E800068EE277A17EE900AFDF73EFA02460B46E7
:102E9000362017490EF00CFBDFED167A68EE277A24
:102EA00017EE900AFDF730FA02460B46362012491B
:102EB0000EF0FEFABDEC028B012038BD0F4AA7E7E9
:102EC000008E0408F43E0508F48D04080C8E0408F6
:102ED00008D00408188E040890850408208E040881
:102EE000348E0408488E04085C8E04086F12833AFE
:102EF000748E040865CF8B37888E0408E88D04082B
:102F0000002833D010B51A4982B0044619482DF074
:102F1000FFFE184B60790090174AFA2118462DF0F1
:102F200007FE144BE0680090144AFA2118462DF071
:102F3000FFFD104B2068124A0090FA2118462DF030
:102F4000F7FD207926F042F80A4B00900D4AFA214D
:102F500018462DF0EDFD074BA16800910A4AFA21B1
:102F600018462DF0E5FD034802B010BD014870473A
:102F7000FCD10408F43800209C8E0408A48E0408B8
:102F8000B48E0408C48E0408D08E040810B5002343
:102F900082B09842019316DD08680C4601A90BF037
:102FA0002FFE58B10198FFF711FD0B4A0446014668
:102FB00036200EF0CBFD204602B010BD2268074936
:102FC00036200EF01BFD064936200EF017FD0024BA
:102FD000204602B010BD00BF088F0408DC8E040834
:102FE000F88E040810B530B10849362000240EF0E0
:102FF00005FD204610BDFFF7EFFE054A04460146D9
:1030000036200EF0A3FD204610BD00BF108F04082F
:103010001054050810B548B908F0A6FC074A044644
:10302000014636200EF092FD204610BD04493620A0
:1030300000240EF0E3FC204610BD00BF1C8F0408E6
:10304000248F040810B548B9FFF798FC074A0446D6
:10305000014636200EF07AFD204610BD0449362088
:1030600000240EF0CBFC204610BD00BF24820508D2
:10307000308F040810B582B0002300288DF8073087
:103080000CDD0B460DF1070118680BF071FF0E4ABD
:103090000446014636200EF059FD3CB90B49362056
:1030A0000EF0ACFC0024204602B010BD9DF80700D5
:1030B000FFF78CFD064A0446014636200EF046FD19
:1030C000204602B010BD00BF508F0408448F040892
:1030D0003C8F040830B583B0022300288DF80730F8
:1030E0000CDD0B460DF1070118680BF0F7FE124AD4
:1030F0000446014636200EF029FD3CB90F49362022
:103100000EF07CFC0024204603B030BD9DF8070083
:10311000FFF780FC04460DF0FFFF05469DF8070011
:10312000FFF748FE064A0346362128460EF068F8A7
:10313000204603B030BD00BF588F0408708F0408CC
:10314000608F040810B530B10849362000240EF015
:1031500055FC204610BDFFF76DFD054A04460146AB
:1031600036200EF0F3FC204610BD00BF848F04080B
:103170003C5B050838B5044626F0C8F980B10A4D15
:1031800000222B4604E00132904203F1400308D0B4
:10319000197BA142F7D1597B0029F4D005EB8210AD
:1031A00038BD002038BD00BF302400202DE9704319
:1031B000054626F0ABF958B31B4E0024334604E015
:1031C0000134A04203F1400322D01A7BAA42F7D176
:1031D0005A7B002AF4D006F027F9A30106EB8414E9
:1031E000F2585268A263A16BE26B914214D31E4461
:1031F000B36BF36306F020F9D6E90C01B56B0B460F
:1032000045EA0002C6E90A23D6E90A01BDE870834F
:1032100000200021BDE87083D4E90C8909F1010187
:103220004046C4E90C01E2E73024002070B50546B1
:1032300026F06CF9C0B10E4E0024334604E0013490
:10324000A04203F140030FD01A7BAA42F7D15A7B68
:10325000002AF4D0284606EB8414FFF7A7FFD4E930
:103260000623FDF7FFFC70BD0020014670BD00BFC6
:103270003024002070B5054626F048F9B8B10D4E4F
:103280000024334604E00134A04203F140030FD090
:103290001A7BAA42F7D15A7B002AF4D0284606EBC3
:1032A0008414FFF783FFD4E90823FDF7DBFC70BD2E
:1032B000002070BD302400202DE9F84F02465B4904
:1032C000054649200EF04CF826F020F900287ED063
:1032D000574E0023314602E00133984277D00C7BF1
:1032E000A54201F11001F7D11F0106EB031393F87A
:1032F0000D90B9F1000F6AD0D3F804A0BAF1000F15
:1033000000F0888056F8078006EB070BB8F1000F35
:103310006FD0DBF808B0BBF1000F04D1454922465D
:1033200049200EF06BFBF01922F038F842490246B2
:1033300049200EF015F826F0E9F8002850D03F4E4D
:103340000022334604E00132904203F1400347D0AB
:10335000197BA142F7D15F7B002FF4D006EB8219D5
:103360009501C9F804A0364A46F80580012389F87A
:103370000C40C9F808B089F80D30D2F8FC300024B0
:1033800043F08073C2F8FC30C8F8044006F056FBE6
:103390002C4BC9F80800A3FB00382B4B2B49A3FB8F
:1033A00000304FEA98422346C9E906238209C9E959
:1033B00008237259136805F1080C40F2011E43F00E
:1033C0000103136038462CF801E0BDE8F88F20496E
:1033D0002A46492000270EF013F93846BDE8F88F39
:1033E0001C492A4649204F460EF008FB3846BDE8E6
:1033F000F88F1949224649200EF000FBDBF808300F
:1034000073B113492A46492000270EF0F7FA3846CF
:10341000BDE8F88F11492A4649200EF0EFFA71E70E
:103420000449224649200EF0E9FAEAE7D08F040861
:1034300010850508B08F04088C9F040830240020F4
:1034400000ED00E083DE1B43D34D621035240020E5
:103450007C8504088C850408A08F0408908F0408DC
:1034600070B50C4A0C4949200EF022F826F04EF8AF
:103470000024054626462046FFF71EFF0134E4B22D
:1034800000B10136AC42F6D9701BB0FA80F04009A9
:1034900070BD00BF6863050850850408F8B526F0C4
:1034A00035F8002506462C46EFB216493A46492023
:1034B0000EF0A6F826F02AF88646B8B11248002188
:1034C000034604E001318E4503F140030ED093F82A
:1034D0000CC0BC45F6D15A7B002AF3D000EB811119
:1034E00038460B6901330B61FFF760FE204600216F
:1034F0001BF0D0FC0135AE420446D5D2003818BFCF
:103500000120F8BDC48F04083024002010B582B01B
:10351000012300288DF807300CDD0B460DF1070163
:1035200018680BF0DBFC0E4A0446014649200EF0F9
:103530001FFB3CB90B4949200EF060FA00242046DD
:1035400002B010BD9DF8070021F092FF064A044624
:10355000014649200EF00CFB204602B010BD00BF12
:1035600000900408E08F0408D88F040830B583B0B9
:103570000023051E8DF8073020DB0AD121F05AFF09
:103580000446124A214649200EF0F2FA204603B0C2
:1035900030BD0B460DF1070118680BF09FFC0C4A7B
:1035A0000446014649200EF0E3FA3CB1012DE8D172
:1035B0009DF8070021F020FF0446E2E70549492075
:1035C0000EF01CFA0024204603B030BD105405084C
:1035D00000900408F48F040810B5002482B0A042C3
:1035E0008DF807400BDC16D1FFF73AFF0D4A044671
:1035F000014649200EF0BCFA204602B010BD0B4631
:103600000DF1070118680BF069FC074A04460146F2
:1036100049200EF0ADFA054949200EF0EFF9204699
:1036200002B010BD3C5B050800900408049004083B
:103630002DE9F043364F37493868B3B008222430BB
:103640000EF0D6FB25F060FF4FF000080646C1469D
:103650004046FEF7FBF800250446C422294601A88F
:10366000002C44D0D4E9023C0095A3EB0C052DF0CE
:10367000B5F9294968462DF04BFB237927496A465D
:1036800068462DF099FA236825496A4668462DF068
:1036900093FAA36823496A4668462DF08DFA2149BA
:1036A000E3686A4668462DF087FA1F492B466A464A
:1036B00068462DF081FA1D49637C6A4668462DF004
:1036C0007BFA04F1180016F09FFA194903466A467E
:1036D00068462DF071FA636914496A4668462DF010
:1036E0006BFA144869460EF06FFD4FF0010908F1BE
:1036F00001035FFA83F8B045AAD938680549082262
:1037000024300EF06FFB484633B0BDE8F08300BFB5
:1037100068220020489104083447050810900408E6
:103720001C90040828900408349004084090040871
:103730004C9004083089040848B310B5154982B08C
:10374000044615482DF0E4FA134B20790090134AF3
:10375000FA2118462DF0ECF90F4BA0680090104AA2
:10376000FA2118462DF0E4F90B4BE06800900D4A61
:10377000FA2118462DF0DCF9074B216800910A4A1E
:10378000FA2118462DF0D4F9034802B010BD0248C2
:10379000704700BFFCD10408F43800209C8E040858
:1037A000589004086C90040848DB040870B582B097
:1037B0000646FEF74BF888B1D0E90253ED1AAD0882
:1037C00004460749009532460A200DF071FEE06874
:1037D000294602B0BDE870400AF098B802B070BD4A
:1037E0008090040838B502460949044601200DF0CE
:1037F000B7FD0025236807482246294601350EF00B
:10380000E3FC362D04F10404F4D1012038BD00BFDF
:10381000A8900408C090040810B5002384B0984212
:10382000039303DC0024204604B010BD086803A9FC
:103830000BF0E6F904460028F4D0039A08490A2060
:103840000DF036FE0398FEF72FF9830A0093039AD2
:10385000044903460A200DF02BFE204604B010BD9B
:10386000D48704088891040810B5FFF7E1FE0446E8
:1038700008B1204610BD03490A200EF0BFF82046CB
:1038800010BD00BFB489040808B9FEF745B808B5F3
:1038900002490A200EF0B2F8002008BDA0910408E9
:1038A000F0B5054685B000200E4612F081F80446BA
:1038B0000027224821460EF087FCBD42019709DC13
:1038C000029725D01E490A200EF098F800242046C1
:1038D00005B0F0BD306801A90BF092F902970028FD
:1038E000F0D02046019902AAFDF7D6FF044640B168
:1038F000DDE9012313490A200DF0DAFD204605B069
:10390000F0BD11490A200EF079F8204605B0F0BD4F
:10391000039503E0039A0EF057FC0135294603AAEC
:103920002046FDF7B9FF034629460848002BF1D190
:1039300005490A200EF062F8EFE700BFB0910408D5
:103940000C920408EC910408E4910408C89104085E
:1039500030B583B00023002801930BDD0B4601A98D
:1039600018680BF04DF9144A044601460A200EF07F
:10397000FFF83CB911490A200EF040F80024204617
:1039800003B030BD019D2846FEF772F8044648B1E9
:10399000012025F02DFB0A4903462A460A200DF096
:1039A00087FDECE725F024FB054903462A460A205B
:1039B0000EF024F8E3E700BF2092040838920408D0
:1039C0002892040810B582B0002300288DF8073033
:1039D0000CDD0B460DF1070118680BF07FFA0E4A5B
:1039E000044601460A200EF0C3F83CB90B490A20F0
:1039F0000EF004F80024204602B010BD9DF8070028
:103A0000FFF7D4FE064A044601460A200EF0B0F83D
:103A1000204602B010BD00BF4C920408609204081A
:103A2000549204080138C0B202289ABF024B53F8DE
:103A300020000248704700BF80920408F43E050849
:103A400038B5044625F0EEFC88B10A4D00222B461D
:103A500004E00132904203F1DC0309D01978A1425D
:103A6000F7D1597F0029F4D0DC2000FB025038BD8B
:103A7000002038BDF00C002038B5044625F0D2FCFB
:103A800098B10B4D00232A4602E0013398420DD035
:103A90001178A14202F12802F7D103EB830305EB71
:103AA000C303587F002818BF184638BD002038BD12
:103AB000F851050838B50446E0B1D0ED087AF5EEC6
:103AC000C07AF1EE10FA4CD965680120002D51D072
:103AD000A568002D57D0257B002D32D06569002DBB
:103AE00038D025691DB3A569BDB1257F55B194F8BE
:103AF000245005B138BD227826491F200DF07EFFE5
:103B0000284638BD1F20227823490DF077FF28462C
:103B100094F82450002DEDD1EDE71F2022781F49A5
:103B20000DF06CFF2846257F002DE0D1EAE71F202D
:103B300022781B490DF062FF2846A569002DD4D1DB
:103B4000EBE71F20227817490DF058FF28466569DA
:103B5000002DC6D11F20227813490DF04FFF2846B3
:103B6000BFE7027811491F200DF048FF656800206B
:103B7000002DADD11F2022780D490DF03FFF2846C2
:103B8000A568002DA7D11F2022780A490DF036FF25
:103B90002846A0E744930408289304080C930408DB
:103BA000F4920408C8920408DC9204088C92040879
:103BB000A4920408B49204080346E8B1D1B110B449
:103BC000027B0A7390F8242081F82420026A0A629A
:103BD0001A780A701A7F0A775A7B4A731A699C68A6
:103BE0000A61D3E9052301208C60C1E905235DF852
:103BF000044B704708467047704700BF002070476D
:103C000007EE900A9FED030AF8EEE77A27EE800AA6
:103C1000704700BF6740533A70B505F045FC25F08A
:103C200001FC002405462646204605F08BFC0134A5
:103C3000E4B200B10136AC42F6D9701BB0FA80F0A4
:103C4000400970BD2DE9F047DFF830918046D9F882
:103C50000000A0B0092224300F4642490EF0C8F8F7
:103C600025F0E0FB4FF0000A0646554605E00AF154
:103C700001035FFA83FAB24568D85046FFF7E0FEC9
:103C80000446394902A8002CF1D02DF041F82078E3
:103C9000364A009002AB782118462CF049FFD4F840
:103CA000B400334A009002AB782118462CF040FF54
:103CB000A06A304A009002AB782118462CF038FFF9
:103CC000E06B2C4A009002AB782118462CF030FFB4
:103CD000A06C284A009002AB782118462CF028FFEF
:103CE000E06C244A009002AB782118462CF020FFAB
:103CF000206D204A009002AB782118462CF018FF66
:103D0000E06D1C4A009002AB782118462CF010FFA1
:103D1000216E184A009102AB782118462CF008FF5A
:103D20003A46414602A80DF043F8054600289ED0C9
:103D3000114802A90EF048FA0AF101035FFA83FA6A
:103D40000AF101035FFA83FAB24596D9D9F8000067
:103D50000449092224300EF045F8284620B0BDE879
:103D6000F08700BFB8930408344705081090040892
:103D70005C930408689304083089040868220020D2
:103D800010B510B10024204610BDFFF745FF0446D2
:103D900028B106491F200DF08BFB204610BD0449B9
:103DA0001F200DF02BFE204610BD00BF009404081C
:103DB0000894040870B500248AB0051ECDE90044BB
:103DC000CDE90244CDE90444CDE90644CDE90844F7
:103DD00006DA14491F200DF011FE20460AB070BD0E
:103DE00014220E46684610492DF030F814220E4970
:103DF0000DEB02002DF02AF82DB905A9684621F037
:103E000047FB0AB070BD3168142268462DF01EF8D9
:103E1000012DF2D0142271680DEB02002DF016F87E
:103E2000EBE700BF10940408FCD1040830B585B05E
:103E3000264B03930022041E8DF80B2003DC002484
:103E4000204605B030BD08680D460DF10B010BF0A2
:103E500045F8B8B1012C1CD19DED030A9DF80B006B
:103E6000FFF7CCFE044618B30398FCF74DFA9DF813
:103E70000B20CDE90001164901200DF019FB204669
:103E800005B030BD2A68134901200DF0B7FD012CA3
:103E9000D5D0686803A90BF011F904460028DBD1DE
:103EA0006A680D4901200DF0A9FD204605B030BD1E
:103EB0000398FCF729FA9DF80B20CDE9000107498A
:103EC00001200DF09BFD204605B030BD333353403B
:103ED000509404082C9404083C9404086894040842
:103EE00070B500248AB0051ECDE90044CDE9024436
:103EF000CDE90444CDE90644CDE9084406DA144985
:103F00001F200DF07BFD20460AB070BD14220E4626
:103F1000684610492CF09AFF14220E490DEB02005E
:103F20002CF094FF2DB905A96846FFF78BFE0AB067
:103F300070BD3168142268462CF088FF012DF2D044
:103F4000142271680DEB02002CF080FFEBE700BF3C
:103F500080940408FCD1040810B5044625F068FAE2
:103F600090B10B4A002301E098420ED0190102EBF8
:103F7000031C515CA14203F10103F5D19CF8083008
:103F8000002B14BF6046002010BD002010BD00BFF4
:103F9000D452050838B5044625F04AFA90B10B4DC5
:103FA00000222B4604E00132904203F130030AD094
:103FB0001978A142F7D1197A0029F4D002EB420214
:103FC00005EB021038BD002038BD00BFD00E002028
:103FD0002DE9F8430746884625F02AFAE0B1DFF8D4
:103FE000489006464C46002504E00135AE4204F1F7
:103FF000100411D06378BB42F7D1A3784345F4D1C4
:10400000237A08492A461F204BB901350DF050FA92
:10401000AE4204F11004EDD10020BDE8F88309EBB5
:104020000510FAE79C940408D452050870B50446BC
:104030000D4625F0FDF9B8B10D4E0022334604E0DF
:104040000132904203F130030FD093F801C0A44530
:10405000F6D193F802C0AC45F2D1197A0029EFD01D
:1040600002EB420206EB021070BD002070BD00BFE3
:10407000D00E0020C8B1B9B143784B70437A4B726F
:10408000C378CB7042684A6082788A7002780A707E
:10409000C068C86001230022C1E907220B724A628E
:1040A00081F82C301846704708467047002070474A
:1040B00070B5FFF7FBFF25F0BBF900240546264647
:1040C000204605F0C1FB0134E4B200B10136AC4238
:1040D000F6D9701BB0FA80F0400970BD30B585B0DC
:1040E0000023041EADF80A308DF8093007DC24499E
:1040F0001F200DF083FC0024204605B030BD086869
:104100000D460DF109010AF0E9FE28B3012C2AD170
:10411000BDF80A309DF809201A4900241F20039495
:104120000DF0C6F99DF80A109DF8090003AA05F0E4
:10413000D9FB04460028DFD00398FCF7E5F8BDF86A
:104140000A309DF80920CDE900010F491F200DF02C
:10415000AFF9204605B030BD2A680C4901200DF0AA
:104160004DFC012CC3D068680DF10A010AF06EFE07
:104170000028CDD16A68064901200DF03FFCB6E762
:10418000E0940408F8940408C49404082C940408E7
:10419000AC94040870B500248AB0051ECDE9004433
:1041A000CDE90244CDE90444CDE90644CDE9084413
:1041B00006DA14491F200DF021FC20460AB070BD1C
:1041C00014220E46684610492CF040FE14220E4977
:1041D0000DEB02002CF03AFE2DB905A9684621F03E
:1041E0004DFA0AB070BD3168142268462CF02EFEDC
:1041F000012DF2D0142271680DEB02002CF026FE86
:10420000EBE700BF14950408FCD1040830B585B075
:104210000023041E8DF80930ADF80A3007DC23496D
:104220001F200DF0EBFB0024204605B030BD0868D0
:104230000D460DF109010AF051FE18B3012C28D1E9
:10424000BDF80A309DF8092019491F200DF030F9FA
:1042500000239DF80A109DF80900039303AA05F0B6
:104260000DFB04460028DFD00398BDF80A309DF806
:1042700009201049CDE900001F200DF019F9204652
:1042800005B030BD2A680C4901200DF0B7FB012CA8
:10429000C5D068680DF10A010AF0D8FD0028CFD119
:1042A0006A68064901200DF0A9FBB8E748950408A3
:1042B000F8940408309504082C940408AC9404087D
:1042C000002070470020704750EA01032DE9F041BB
:1042D00004D14FF000084046BDE8F08104460D4689
:1042E0001AF096FC4FF0000806460F461AF090FCB4
:1042F000831B61EB0702A34272EB050308F101087F
:10430000F4D34046BDE8F08170B5044608B92046B4
:1043100070BD1AF017FC002506461AF013FC831B2B
:104320009C4205F10105F8D82C46204670BD00BF1F
:10433000F8B5074668B100252C462E4605F038FB37
:104340000135041946EB0106AF42F7D1204631464C
:10435000F8BD0646044620463146F8BD10B5114C5E
:10436000114A124901200CF0FBFF114A206842F269
:1043700010711AF0B1FE60B1204600F091F80D49BD
:10438000024601200CF0ECFF206805F059FB28B133
:1043900010BD2268084908200DF030FB25F014F804
:1043A00010BD00BF6809002040787D01B495040865
:1043B00080397A128C9F04086095040830B5224C2D
:1043C000224A83B0054623460090FA2120462CF06D
:1043D000AFFB2968009123461D4AFA2120462CF0A4
:1043E000A7FB6979009123461A4AFA2120462CF04E
:1043F0009FFBA96800912346174AFA2120462CF01A
:1044000097FBA98900912346144AFA2120462CF0F3
:104410008FFBA97B00912346114AFA2120462CF0FC
:1044200087FB2969009123460E4AFA2120462CF089
:104430007FFB6B6900930C4A2346FA2120462CF03F
:1044400077FB03B030BD00BFF4380020CC950408E2
:10445000DC950408F09504080096040810960408FA
:104460002096040834960408449604080138C0B223
:1044700003289ABF024B53F820000248704700BF40
:10448000B4960408F43E050806289ABF024B53F878
:1044900020000248704700BFC4960408F43E050897
:1044A00010B50549044605482CF032FC14B12046ED
:1044B000FFF784FF014810BDFCD10408F438002048
:1044C00008B5074A074910462CF022FC0648FFF7BA
:1044D00075FF034A054901200CF042FF012008BD89
:1044E000F4380020FCD10408680900208C9F0408DF
:1044F00070B582B00025041E8DF8065003DC002440
:10450000204602B070BD0B460DF1060118680AF096
:10451000E5FC164A0646014608200DF029FB002E50
:10452000EDD0012C17D00DF107008DF80750FFF7E3
:10453000C7FE0F4A0446014608200DF019FB002C67
:10454000DED09DF80700FFF791FF0A4902460820D8
:104550000CF0AEFFD4E79DF80600FFF7B3FE064A65
:104560000446014608200DF003FBC9E7E096040865
:10457000F0960408F8960408E8960408FFF7A0BF30
:1045800010B582B000230128019307D012490920F9
:104590000DF034FA0024204602B010BD0B4601A9EC
:1045A00018680AF02DFB0D4A0446014608200DF05C
:1045B000DFFA002CEAD00A4909200CF079FF0198B3
:1045C000FFF7B6FE02460B46092006490CF070FFC5
:1045D000204602B010BD00BF1897040800970408D9
:1045E000248205080C97040830B5012883B007D051
:1045F000134909200DF002FA0025284603B030BD0A
:10460000086800230C4601A901930AF0F9FA05464F
:1046100070B10C4909200CF04BFF01981AF05AFBBD
:104620000949054609200CF043FF284603B030BD78
:104630002268064909200DF0E1F9284603B030BD93
:104640004097040824820508549704082C9704080E
:1046500008B538B91AF076FA014605480DF0B4FDF0
:10466000012008BD034909200DF0C8F9002008BD4C
:10467000589704086897040830B583B01E4B01931F
:10468000041E30DB0DD105F0D9F901900CF0ECF8E7
:104690001A49024608200CF00BFF0124204603B003
:1046A00030BD0B4601A918680AF0AAFA144A05465B
:1046B000014608200DF05CFAADB1012C17D101982C
:1046C0000CF0D2F80F49024608200CF0F1FE0198D8
:1046D00005F0B6F90C4A0446014608200DF048FAE8
:1046E000204603B030BD094909200DF087F90024A8
:1046F000204603B030BD00BF00E1F50580970408F7
:10470000749704089497040870540508A89704083F
:10471000FFF724BE38B5044624F03AFE90B10B4DA5
:1047200000222B4604E00132904203F130030AD00C
:104730005978A142F7D1197A0029F4D002EB42024C
:1047400005EB021038BD002038BD00BF0006002078
:1047500038B5044624F01CFE98B10B4D00232A46C0
:1047600002E0013398420DD05178A14202F10C02CF
:10477000F7D103EB430305EB8303187A002818BF36
:10478000184638BD002038BD3C4F05080020704752
:1047900070B505F029FA24F0FBFD002406462546F5
:1047A000E0B2013405F02AFA00B10135032CF7D14B
:1047B000A81BB0FA80F0400970BD00BFF0B5214FD2
:1047C00021493868A1B0082224300DF011FB0025E2
:1047D000EEB23046FFF79EFF04461C4902A824B300
:1047E0002CF096FA02AB1A4A0095782118462CF064
:1047F0009FF93046FFF7CAFF02AB164A00907821B6
:1048000018462CF095F96368009302AB124A7821A0
:1048100018462CF08DF902AB7821104A18462CF07E
:1048200087F90E4802A90DF0CFFC45B1386806495A
:10483000243008220DF0D6FA002021B0F0BD012569
:10484000C6E700BF68220020E49704083447050843
:1048500010900408C09704084C900408308904089C
:10486000FFF7ACBF00B5002383B098428DF8073046
:1048700003DC002003B05DF804FB08680DF10701BC
:104880000AF02CFB0028F4D09DF8070005F0B6F9DB
:1048900003B05DF804FB00BF38B5044624F07AFD90
:1048A00098B10B4D00232A4602E0013398420DD007
:1048B000517AA14202F11C02F7D1C3EBC30305EB0D
:1048C0008303187D002818BF184638BD002038BD66
:1048D000604F050838B5044624F05CFD90B10B4DDF
:1048E00000222B4604E00132904203F150030AD02B
:1048F000597AA142F7D1197D0029F4D002EB820246
:1049000005EB021038BD002038BD00BF3006002086
:1049100038B5044660B383699BB323695BB3E3682E
:10492000A3B1D4ED017AF5EEC07AF1EE10FA19D9FF
:10493000207A06F0E3F9054608B1284638BD627AC8
:1049400013492F200DF05AF8284638BD627A1149D4
:104950002F200DF053F8D4ED017AF5EEC07AF1EE88
:1049600010FAE5D8627A0C492F200DF047F8DFE7FE
:104970000546284638BD627A08492F200DF03EF8DA
:10498000CDE7427A06492F200DF038F8C5E700BF81
:10499000A098040860980408849804083C980408C7
:1049A0002498040870B504460D4624F0F3FCB8B111
:1049B0000D4E0022334604E00132904203F15003D1
:1049C0000FD093F800C0A445F6D193F802C0AC45CF
:1049D000F2D1197D0029EFD002EB820206EB021022
:1049E00070BD002070BD00BF30060020E0B1D1B125
:1049F000D0E90323C1E9032303880B804368027ACB
:104A00000A724B6083788B70437A4B72C378CB7099
:104A100082698A6101200023C1E90A3308754B6469
:104A200081F84C0070470846704700BF68B100230A
:104A300000210122C0E90A33436480F84C208364DA
:104A4000C161016280F824301046704770B582B0B1
:104A5000054600240DF106013030ADF8064028F07F
:104A600021FF38B9BDF80620A978287805F052F959
:104A700002B070BD064620F0AFFB04490346324643
:104A80002F200CF067FE204602B070BDB8980408D5
:104A900070B505F035F924F07DFC00240546264666
:104AA000204605F097F90134E4B200B10136AC427A
:104AB000F6D9701BB0FA80F0400970BD30B585B0F2
:104AC0000023041EADF80C308DF80B30ADF80E301D
:104AD00007DC20492E200CF091FF0024204605B071
:104AE00030BD08680D460DF10B010AF0F7F9012CF5
:104AF00025D10028EDD0BDF80E40BDF80C309DF852
:104B00000B20154900942E200CF0D2FCBDF80E208D
:104B10009DF80C109DF80B0005F0FCF804460028E9
:104B2000DCD0BDF80E000090BDF80C309DF80B20D5
:104B30000A492E200CF0BCFC204605B030BD03A96C
:104B400068680AF083F9A8680DF10E010AF07EF991
:104B5000CFE700BF04990408CC980408F098040833
:104B600030B585B000230022041EADF80A308DF860
:104B70000930039206DC22492E200CF03FFF002072
:104B800005B030BD08680D460DF109010AF0A6F91F
:104B9000C0B1012C1DD10398FBF7B6FBBDF80A305C
:104BA0009DF80920CDE9000116492E200CF080FC6B
:104BB0009DED030A9DF80A109DF8090005F0D2F852
:104BC00005B030BD2A68104901200CF017FF012CF8
:104BD000D1D068680DF10A010AF038F940B1022C11
:104BE000D9D0A86803A90AF069FA0028D3D1C2E78E
:104BF0006A68064901200CF001FF022CBBD0F0E7E7
:104C00006899040830990408209904085099040808
:104C100070B500248AB0051ECDE90044CDE90244F8
:104C2000CDE90444CDE90644CDE9084406DA144947
:104C30002E200CF0E3FE20460AB070BD14220E4672
:104C4000684610492CF002F914220E490DEB0200BF
:104C50002CF0FCF82DB905A9684620F029FE0AB011
:104C600070BD3168142268462CF0F0F8012DF2D0A6
:104C7000142271680DEB02002CF0E8F8EBE700BF9E
:104C800014950408FCD1040838B5044624F084FBCC
:104C900098B10B4D00232A4602E0013398420DD013
:104CA0001178A14202F10C02F7D103EB430305EBAB
:104CB0008303187A002818BF184638BD002038BD75
:104CC000984F050838B5044624F066FB88B10A4DB4
:104CD00000222B4604E00132904203F1740309D014
:104CE0001978A142F7D1197A0029F4D0742000FB79
:104CF000025038BD002038BDD006002070B505F048
:104D00001DF924F049FB002406462546E0B2013493
:104D100005F01EF900B10135032CF7D1A81BB0FA3C
:104D200080F0400970BD00BF002801DB20F096BE76
:104D300008B5034901200CF061FE002008BD00BF4A
:104D40008099040838B5044624F028FB90B10B493B
:104D5000002201E090420ED06C2302FB03F30132EB
:104D600011F803C0A4450B44F4D193F83750002D3B
:104D7000F0D0184638BD002038BD00BFB80700206D
:104D800038B5044624F00AFBA0B10C4D00232A4696
:104D900002E0013398420ED01178A14202F13802AC
:104DA000F7D1C3EBC30305EBC30393F83700002827
:104DB00018BF184638BD002038BD00BFB84F0508E1
:104DC00008B50349062003220CF072FB002008BD41
:104DD0005085040800284BD0002947D010B483899F
:104DE0008B81D0E9052304698B61C1E90442426AE1
:104DF000046A8368C1E908424268C1E9012390F866
:104E0000283081F8283043784B7090F8343081F89E
:104E10003430838B8B8390F8363081F836300378CA
:104E20000B70C36ACB6290F8313081F8313090F862
:104E3000353081F8353090F8323081F8323090F8E2
:104E4000303081F8303090F833205DF8044B81F831
:104E500033200023012081F8643081F8370081F885
:104E60003D3081F8443081F85C3070470846704727
:104E7000704700BF38B5054624F090FA80B10A4C5F
:104E80005FFA85FC00226C2303FB0243013293F896
:104E9000371011B159788C4503D09042F3D10020DE
:104EA00038BD184638BD00BFB807002008B5034A12
:104EB000034906200CF0A2FD002008BDB4990408A7
:104EC0008C99040808B5034A034906200CF096FDA6
:104ED000002008BDA09904088C99040870B5FFF75C
:104EE0006FFF24F05BFA002406462546E0B2013449
:104EF00005F008F900B10135092CF7D1A81BB0FA6B
:104F000080F0400970BD00BF30B50E4C0E4983B033
:104F1000054620462BF0FCFE05F0030123460091D8
:104F20000A4A14212046C5F385052BF001FE084AE4
:104F300000952346142120462BF0FAFD204603B0AD
:104F400030BD00BF882E0020FCD10408C899040899
:104F5000D49904082DE9F047DFF870915349D9F846
:104F60000000A2B00A2224300CF042FF4FF00008EB
:104F7000C246002548EA85063046FFF77BFF044617
:104F800000270DF10F013046002C00F082808DF8D3
:104F90000F70FFF78BFF7422394605A804972BF09A
:104FA0001DFD434904A82BF0B3FE6078414A04ABD1
:104FB00000F003007821009018462BF0B9FD6078CE
:104FC0003C4A04AB80087821009018462BF0B0FDD5
:104FD00094F8280020F034FD04AB374A0090782183
:104FE00018462BF0A5FDA06C344A009004AB782144
:104FF00018462BF09DFD206E304A009004AB7821BE
:1050000018462BF095FD206D2C4A009004AB7821BA
:1050100018462BF08DFD206C284A009004AB7821B7
:1050200018462BF085FD94F86600224A009004ABE8
:10503000782118462BF07CFD9DF80F001D4A00904A
:1050400004AB782118462BF073FD04AB1C491D4AB4
:105050000091184678212BF06BFD01351A4804A900
:105060000DF0B2F8092D4FF0010A83D108F10108C3
:105070001FFA88F8B8F1030F7FF47BAFD9F800006E
:105080000A490A2224300CF0ADFE504622B0BDE899
:10509000F0870135092D7FF46DAF08F101081FFA83
:1050A00088F8B8F1030F7FF464AFE7E7049A0408C7
:1050B00034470508109004084C900408C097040871
:1050C000FCD10408DC990408308904086822002017
:1050D00000207047002810B509DBFFF73BFF074AA7
:1050E0000446014606200CF043FD204610BD04494D
:1050F000062000240CF082FC204610BD1054050848
:10510000549A040810B530B10849062000240CF068
:1051100075FC204610BDFFF7E1FE054A0446014636
:1051200006200CF025FD204610BD00BF609A040843
:105130006C9A040870B584B00023061E8DF80D30FB
:105140008DF80E308DF80F3003DC0124204604B0BA
:1051500070BD08680D460DF10D0109F0BFFE044653
:1051600000285ED0012EF1D068680DF10E0109F023
:10517000B5FE002846D0022E26D0A8680DF10F01FA
:1051800009F0ACFE0446002853D09DF80D209DF890
:105190000E3002F00300032E40EA8305D6D19DF8BD
:1051A0000F000090264906200CF082F99DF80F10A0
:1051B0002846FFF787FE234A0446014606200CF0E6
:1051C000D7FC204604B070BD9DF80D309DF80E0050
:1051D00003F0030300220DF10F0143EA80008DF874
:1051E0000F20FFF763FE04460028AFD09DF80F00A4
:1051F00000909DF80E309DF80D20134906200CF00C
:1052000057F9A3E76A68114906200CF0F7FB022E54
:10521000B3D10F4906200CF0F1FB0024204604B066
:1052200070BD2A680B4906200CF0E8FB012EF0D077
:105230009AE7AA68084906200CF0E0FBE9E700BFFE
:10524000CC9A0408E8960408AC9A0408889A0408E2
:10525000EC9A0408749A04089C9A040870B584B007
:105260000023061E8DF80D308DF80E308DF80F30AE
:1052700003DC0124204604B070BD08680D460DF122
:105280000D0109F02BFE044600285ED0012EF1D05E
:1052900068680DF10E0109F021FE002846D0022EAB
:1052A00026D0A8680DF10F0109F018FE0446002869
:1052B00053D09DF80D209DF80E3002F00300032E10
:1052C00040EA8305D6D19DF80F00009026490620BC
:1052D0000CF0EEF89DF80F10284605F071F8234AFF
:1052E0000446014606200CF043FC204604B070BD85
:1052F0009DF80D309DF80E0003F0030300220DF120
:105300000F0143EA80008DF80F2004F0B7FE044639
:105310000028AFD09DF80F0000909DF80E309DF84A
:105320000D20134906200CF0C3F8A3E76A68114961
:1053300006200CF063FB022EB3D10F4906200CF0BF
:105340005DFB0024204604B070BD2A680B4906208E
:105350000CF054FB012EF0D09AE7AA680849062009
:105360000CF04CFBE9E700BF349B04085C9B04088D
:105370000C9B0408889A0408689B0408749A040823
:105380009C9A0408004870473C51050870B5051EFA
:1053900018BF0125044624F02DF870B1094B0021F7
:1053A0001A68A24201F1010103D25E6832449442BC
:1053B00005D3884203F11003F2D1284670BD0125C0
:1053C000284670BD5C5105082DE9F047C91A01EB6C
:1053D0000009484582B098460746924618D207EB26
:1053E0000805AF423C464FF0000607D30BE0237898
:1053F0000134FF2B08BF0136AC4204D22046FFF730
:10540000C5FF0028F3D1464502D057444F45E6D3A7
:10541000054900974346524632200CF049F8384679
:1054200002B0BDE8F08700BF8C9B04082DE9F0476F
:10543000089E9DF824901746AAB31D4683B3AEB3C9
:1054400000EB010A002350452B608846336030D2C0
:10545000044605E03368A24503F1010333600DD033
:105460002046FFF793FF48B114F8013B9945F1D16D
:105470002B68A24503F101032B60F1D1336864224C
:1054800002FB03F307EE903AB8EE677A07EE908AD4
:10549000F8EE677AC7EE276AC7ED006ABDE8F087C5
:1054A0001846BDE8F0871046BDE8F0873046BDE8F5
:1054B000F0879FED027A0120E8E700BF00000000BE
:1054C000A0B189B130B4D0E90142C3680568C1E92F
:1054D0000A23C1E90854D0E90542838B8B87C1E9CF
:1054E0000D42012030BC704708467047704700BF2E
:1054F000F8B51646044613460F4602460E493220BA
:105500000CF028F9AEB13E447D1E013EE71B05E0DC
:1055100010F084FC05F8010FB5420AD07C1C2C4425
:105520002046FFF733FF03462046002BF0D11846F4
:10553000F8BD01231846F8BDB89B04080020704749
:105540002DE9F04FB1B090460F460B460246534945
:10555000534ECDF80080044632200BF0A9FFB7FB74
:10556000F8F950494A4632200BF0A2FF0FCE06ADA3
:1055700000970FC50FCE0FC596E80F0085E80F0006
:1055800049494A46322043460BF092FF474B186880
:105590000622243006A90CF02BFC47457CD30027BB
:1055A000A8EB040B0DF10C0A0022FF230025019348
:1055B000059204AB05AA4146CDF800A02046CDE9EE
:1055C0000355FFF733FF74222946064613A81295A8
:1055D0002BF004FA364912A82BF09AFB12AB354A8D
:1055E0000097782118462BF0A3FA12AB324A0094A8
:1055F000782118462BF09CFA12AB304ACDF8008087
:10560000782118462BF094FA0BEB04052B4A2C4911
:1056100012AB66B303990091184678212BF088FAF3
:105620009DED050A022019F02BFE12AB254A0090D1
:10563000782118462BF07CFAAD0A12AB1F4A009570
:10564000782118462BF074FA01371F4812A90CF084
:10565000BBFD4F454444A7D3144B1868062206A946
:1056600024300CF0BFFB304631B0BDE8F08F322063
:105670000CF0C4F9AD0A12AB104A00957821184617
:105680002BF056FA0137104812A90CF09DFDB945D0
:10569000444489D80126DFE70026DDE7989C04080A
:1056A000C8830408C89C0408D89C04086822002009
:1056B0003447050810900408289004085C930408F7
:1056C0001C9D0408109D04083089040808B5024692
:1056D0000B46322004490BF0EBFE044A0021322035
:1056E0000CF034FA002008BD249D0408409D0408F5
:1056F000F0B585B005464FF480634FF000644FF479
:1057000000260F46322026490393CDE901460BF0CF
:10571000CFFE002D12DB4FF40032CDE9014603929B
:1057200014D131462046FFF70BFF1E4A04460146BE
:1057300032200CF01DFA204605B0F0BD1A49322087
:105740000CF05CF90024204605B0F0BD01A93868D2
:1057500009F056FA154A0146044632200CF008FAC0
:10576000012D05D1002CE9D0DDE90101039ADAE72A
:1057700002A9786809F044FA0D4A0146044632202D
:105780000CF0F6F9022DEDD003A9B86809F038FA4B
:10579000084A0446014632200CF0EAF9E2E700BF6D
:1057A000489D0408889D0408949D0408649D04088D
:1057B000709D04087C9D040870B5002382B0041E0F
:1057C000CDE9003306DC144932200CF017F9002033
:1057D00002B070BD0E4601A9306809F011FA0F4AF7
:1057E0000146054632200CF0C3F9012C09D1002DE9
:1057F000E9D00B4A002132200CF0A8F9002002B0B9
:1058000070BD6946706809F0FBF9064A0546014615
:1058100032200CF0ADF9EAE7BC9D04083CD3040843
:10582000B49D04082C91040830B5022885B04FF0CF
:105830000005CDE9025507D0274932200CF0DEF8EB
:105840000024204605B030BD0C4602A9206809F0AE
:10585000D7F9224A014632200CF08AF9606803A980
:1058600009F0CEF91E4A0446014632200CF080F9B8
:10587000002CE1D0DDE902231A4932200BF018FE9A
:1058800019480CF0A1FC039B8DF80750A3B10298B6
:1058900001220DF10701002328448DF80730FFF79E
:1058A00027FE124A0446014632200CF04FF94CB94B
:1058B000039B0135AB42EAD80B480CF085FC20462F
:1058C00005B030BD9DF8071009480CF07DFC039B26
:1058D0000135AB42DBD8EFE7FC9D04083CD304085C
:1058E0002C910408D49D04087CC90408EC9D04088C
:1058F000F49D0408F0B50024C5B00546FC220E4610
