:020000040801F1
:100000000000022019050608D98801084F89010857
:10001000538901085589010857890108000000002B
:1000200000000000000000000000000011FC0408B7
:10003000598901080000000051FE0408B9FE0408B7
:10004000DF8801084B8901083389010837890108D5
:1000500027890108E3880108CD890108D1890108B1
:10006000D5890108D9890108DD8901082F8901088E
:10007000EB880108EF880108F3880108F788010878
:10008000FB880108FF880108E78801086905060860
:10009000690506086905060869050608E189010879
:1000A0001F8C0108078B01082F8B0108578B010853
:1000B0007F8B0108A78B0108CF8B01084B8C0108AF
:1000C000478C0108538C01084F8C01085B8901089B
:1000D0005F8901089B8901089F890108A38901089C
:1000E000E589010869050608478901083F89010873
:1000F000438901086905060869050608038901089E
:10010000DB88010867890108F78B0108638901080A
:10011000690506083B89010869050608690506089E
:10012000078901080B8901080F8901081389010853
:1001300017890108690506086905060869050608A2
:10014000690506086905060869050608E9890108C0
:100150001B8901081F89010823890108C989010831
:10016000578C01085B8C01082D8A0108778A0108E9
:1001700069050608C18A0108690506080000000033
:080180005F8C01082B890108C6
:1001C00010B5054C237833B9044B13B10448AFF391
:1001D00000800123237010BDB091002000000000BA
:1001E000D0A2060808B5034B1BB103490348AFF37F
:1001F000008008BD00000000B4910020D0A20608D5
:1002000081F0004102E000BF83F0004330B54FEAC7
:1002100041044FEA430594EA050F08BF90EA020F34
:100220001FBF54EA000C55EA020C7FEA645C7FEAC7
:10023000655C00F0E2804FEA5454D4EB5555B8BFEA
:100240006D420CDD2C4480EA020281EA030382EA5B
:10025000000083EA010180EA020281EA0303362DED
:1002600088BF30BD11F0004F4FEA01314FF4801CC0
:100270004CEA113102D0404261EB410113F0004FD2
:100280004FEA03334CEA133302D0524263EB430389
:1002900094EA050F00F0A780A4F10104D5F1200E27
:1002A0000DDB02FA0EFC22FA05F2801841F1000182
:1002B00003FA0EF2801843FA05F359410EE0A5F156
:1002C00020050EF1200E012A03FA0EFC28BF4CF087
:1002D000020C43FA05F3C01851EBE37101F000453D
:1002E00007D54FF0000EDCF1000C7EEB00006EEB4A
:1002F0000101B1F5801F1BD3B1F5001F0CD34908D4
:100300005FEA30004FEA3C0C04F101044FEA44522A
:1003100012F5800F80F09A80BCF1004F08BF5FEAB1
:10032000500C50F1000041EB045141EA050130BD91
:100330005FEA4C0C404141EB0101013C28BFB1F5A3
:10034000801FE9D291F0000F04BF01460020B1FAEE
:1003500081F308BF2033A3F10B03B3F120020CDAC1
:100360000C3208DD02F1140CC2F10C0201FA0CF09F
:1003700021FA02F10CE002F11402D8BFC2F1200C04
:1003800001FA02F120FA0CFCDCBF41EA0C019040BA
:10039000E41AA2BF01EB0451294330BD6FEA040403
:1003A0001F3C1CDA0C340EDC04F11404C4F12002EE
:1003B00020FA04F001FA02F340EA030021FA04F300
:1003C00045EA030130BDC4F10C04C4F1200220FA57
:1003D00002F001FA04F340EA0300294630BD21FA95
:1003E00004F0294630BD94F0000F83F4801306BF5B
:1003F00081F480110134013D4EE77FEA645C18BF4F
:100400007FEA655C29D094EA050F08BF90EA020FE5
:1004100005D054EA000C04BF1946104630BD91EADD
:10042000030F1EBF0021002030BD5FEA545C05D1E0
:100430004000494128BF41F0004130BD14F580041F
:100440003CBF01F5801130BD01F0004545F0FE4193
:1004500041F470014FF0000030BD7FEA645C1ABFC8
:10046000194610467FEA655C1CBF0B46024650EAFF
:10047000013406BF52EA033591EA030F41F400212B
:1004800030BD00BF90F0000F04BF0021704730B5B1
:100490004FF4806404F132044FF000054FF0000186
:1004A00050E700BF90F0000F04BF0021704730B547
:1004B0004FF4806404F1320410F0004548BF40421C
:1004C0004FF000013EE700BF42004FEAE2014FEA71
:1004D00031014FEA02701FBF12F07F4393F07F4F4C
:1004E00081F06051704732F07F4208BF704793F04F
:1004F0007F4F04BF41F40021704730B54FF4607462
:1005000001F0004521F000411CE700BF50EA010264
:1005100008BF704730B54FF000050AE050EA01020D
:1005200008BF704730B511F0004502D5404261EB7D
:1005300041014FF4806404F132045FEA915C3FF4BE
:10054000D8AE4FF003025FEADC0C18BF03325FEA5B
:10055000DC0C18BF033202EBDC02C2F1200300FA0C
:1005600003FC20FA02F001FA03FE40EA0E0021FA31
:1005700002F11444BDE600BF70B54FF0FF0C4CF41F
:10058000E06C1CEA11541DBF1CEA135594EA0C0FD1
:1005900095EA0C0F00F0DEF82C4481EA030621EA0C
:1005A0004C5123EA4C5350EA013518BF52EA033547
:1005B00041F4801143F4801338D0A0FB02CE4FF0F9
:1005C0000005E1FB02E506F00042E0FB03E54FF029
:1005D0000006E1FB03569CF0000F18BF4EF0010E21
:1005E000A4F1FF04B6F5007F64F5407404D25FEA1D
:1005F0004E0E6D4146EB060642EAC62141EA5551D0
:100600004FEAC52040EA5E504FEACE2EB4F1FD0C11
:1006100088BFBCF5E06F1ED8BEF1004F08BF5FEA8F
:10062000500E50F1000041EB045170BD06F0004641
:1006300046EA010140EA020081EA0301B4EB5C04EE
:10064000C2BFD4EB0C0541EA045170BD41F48011E6
:100650004FF0000E013C00F3AB8014F1360FDEBF0B
:10066000002001F0004170BDC4F10004203C35DAE7
:100670000C341BDC04F11404C4F1200500FA05F36A
:1006800020FA04F001FA05F240EA020001F000420B
:1006900021F0004110EBD37021FA04F642EB060181
:1006A0005EEA430E08BF20EAD37070BDC4F10C04AB
:1006B000C4F1200500FA04F320FA05F001FA04F26F
:1006C00040EA020001F0004110EBD37041F100015B
:1006D0005EEA430E08BF20EAD37070BDC4F1200566
:1006E00000FA05F24EEA020E20FA04F301FA05F2CE
:1006F00043EA020321FA04F001F0004121FA04F276
:1007000020EA020000EBD3705EEA430E08BF20EA45
:10071000D37070BD94F0000F0FD101F0004640007F
:1007200041EB010111F4801F08BF013CF7D041EA01
:10073000060195F0000F18BF704703F00046520005
:1007400043EB030313F4801F08BF013DF7D043EAD6
:100750000603704794EA0C0F0CEA135518BF95EA8C
:100760000C0F0CD050EA410618BF52EA4306D1D113
:1007700081EA030101F000414FF0000070BD50EA32
:10078000410606BF1046194652EA430619D094EABC
:100790000C0F02D150EA013613D195EA0C0F05D1A6
:1007A00052EA03361CBF104619460AD181EA0301FA
:1007B00001F0004141F0FE4141F470014FF00000B2
:1007C00070BD41F0FE4141F4780170BD70B54FF04D
:1007D000FF0C4CF4E06C1CEA11541DBF1CEA1355CD
:1007E00094EA0C0F95EA0C0F00F0A7F8A4EB0504AF
:1007F00081EA030E52EA03354FEA013100F08880A6
:100800004FEA03334FF0805545EA131343EA12636E
:100810004FEA022245EA111545EA10654FEA002623
:100820000EF000419D4208BF964244F1FD0404F5DC
:10083000407402D25B084FEA3202B61A65EB030538
:100840005B084FEA32024FF480104FF4002CB6EBF5
:10085000020E75EB030E22BFB61A754640EA0C0075
:100860005B084FEA3202B6EB020E75EB030E22BFB5
:10087000B61A754640EA5C005B084FEA3202B6EBF6
:10088000020E75EB030E22BFB61A754640EA9C00B5
:100890005B084FEA3202B6EB020E75EB030E22BF85
:1008A000B61A754640EADC0055EA060E18D04FEA43
:1008B000051545EA16754FEA06164FEAC30343EAE3
:1008C00052734FEAC2025FEA1C1CC0D111F4801FB0
:1008D0000BD141EA00014FF000004FF0004CB6E7A9
:1008E00011F4801F04BF01430020B4F1FD0C88BF48
:1008F000BCF5E06F3FF6AFAEB5EB030C04BFB6EB53
:10090000020C5FEA500C50F1000041EB045170BD45
:100910000EF0004E4EEA113114EB5C04C2BFD4EB72
:100920000C0541EA045170BD41F480114FF0000EF6
:10093000013C90E645EA060E8DE60CEA135594EA72
:100940000C0F08BF95EA0C0F3FF43BAF94EA0C0F75
:100950000AD150EA01347FF434AF95EA0C0F7FF4EA
:1009600025AF104619462CE795EA0C0F06D152EA3E
:1009700003353FF4FDAE1046194622E750EA410622
:1009800018BF52EA43067FF4C5AE50EA41047FF433
:100990000DAF52EA43057FF4EBAE12E74FF0FF3C98
:1009A00006E000BF4FF0010C02E000BF4FF0010C69
:1009B0004DF804CD4FEA410C7FEA6C5C4FEA430CE2
:1009C00018BF7FEA6C5C1BD001B050EA410C0CBF31
:1009D00052EA430C91EA030F02BF90EA020F002093
:1009E000704710F1000F91EA030F58BF994208BFFA
:1009F00090422CBFD8176FEAE37040F001007047B7
:100A00004FEA410C7FEA6C5C02D150EA013C07D10D
:100A10004FEA430C7FEA6C5CD6D152EA033CD3D058
:100A20005DF8040B704700BF8446104662468C4652
:100A30001946634600E000BF01B5FFF7B7FF002885
:100A400048BF10F1000F01BD4DF808EDFFF7F4FFAE
:100A50000CBF012000205DF808FB00BF4DF808ED39
:100A6000FFF7EAFF34BF012000205DF808FB00BF5C
:100A70004DF808EDFFF7E0FF94BF012000205DF87E
:100A800008FB00BF4DF808EDFFF7CEFF94BF012033
:100A900000205DF808FB00BF4DF808EDFFF7C4FF2C
:100AA00034BF012000205DF808FB00BF4FEA410C75
:100AB0007FEA6C5C02D150EA013C0AD14FEA430C58
:100AC0007FEA6C5C02D152EA033C02D14FF0000095
:100AD00070474FF0010070474FEA410212F50012D3
:100AE00015D211D56FF47873B3EB625212D94FEA75
:100AF000C12343F0004343EA505311F0004F23FA5F
:100B000002F018BF404270474FF00000704750EAB3
:100B1000013005D111F0004008BF6FF00040704770
:100B20004FF00000704700BF4A0011D212F50012CA
:100B300011D20DD56FF47873B3EB62520ED44FEA35
:100B4000C12343F0004343EA505323FA02F07047B5
:100B50004FF00000704750EA013002D14FF0FF30F3
:100B600070474FF0000070474FEA4102B2F1E04396
:100B700024BFB3F5001CDCF1FE5C0DD901F0004C84
:100B80004FEAC0024CEA5070B2F1004F40EB8300D4
:100B900008BF20F00100704711F0804F21D113F100
:100BA0003872BCBF01F00040704741F480114FEA39
:100BB0005252C2F11802C2F1200C10FA0CF320FAC2
:100BC00002F018BF40F001004FEAC1234FEAD323DF
:100BD00003FA0CFC40EA0C0023FA02F34FEA430349
:100BE000CCE77FEA625307D150EA01331EBF4FF0D2
:100BF000FE4040F44000704701F0004040F0FE40ED
:100C000040F40000704700BF53B94AB9002908BF3B
:100C100000281CBF4FF0FF314FF0FF3000F092B9B9
:100C2000ADF1080C6DE904CE00F024F8DDF804E025
:100C3000DDE9022304B07047D0B50C4B0022064614
:100C40000F46FFF799FCFFF76FFF0446FFF71AFC0A
:100C5000074B0022FFF790FC02460B463046394610
:100C6000FFF7D2FAFFF760FF2146D0BD0000F03D4C
:100C70000000F0412DE9F047089D04468E46002B08
:100C80004DD18A42944669D9B2FA82F252B101FA40
:100C900002F3C2F1200120FA01F10CFA02FC41EA50
:100CA000030E94404FEA1C48210CBEFBF8F61FFAD5
:100CB0008CF708FB16E341EA034306FB07F1994270
:100CC0000AD91CEB030306F1FF3080F01F81994223
:100CD00040F21C81023E63445B1AA4B2B3FBF8F0FD
:100CE00008FB103344EA034400FB07F7A7420AD984
:100CF0001CEB040400F1FF3380F00A81A74240F2AC
:100D000007816444023840EA0640E41B00261DB116
:100D1000D4400023C5E900433146BDE8F0878B424B
:100D200009D9002D00F0EF800026C5E9000130460A
:100D30003146BDE8F087B3FA83F6002E4AD18B42E4
:100D400002D3824200F2F980841A61EB030301208E
:100D50009E46002DE0D0C5E9004EDDE702B9FFDE7A
:100D6000B2FA82F2002A40F09280A1EB0C014FEA25
:100D70001C471FFA8CFE0126200CB1FBF7F307FB82
:100D8000131140EA01410EFB03F0884208D91CEB25
:100D9000010103F1FF3802D2884200F2CB804346C2
:100DA000091AA4B2B1FBF7F007FB101144EA0144A1
:100DB0000EFB00FEA64508D91CEB040400F1FF3130
:100DC00002D2A64500F2BB800846A4EB0E0440EA1E
:100DD00003409CE7C6F12007B34022FA07FC4CEA27
:100DE000030C20FA07F401FA06F31C43F9404FEA1A
:100DF0001C4900FA06F3B1FBF9F8200C1FFA8CFE2F
:100E000009FB181140EA014108FB0EF0884202FA82
:100E100006F20BD91CEB010108F1FF3A80F0888043
:100E2000884240F28580A8F102086144091AA4B200
:100E3000B1FBF9F009FB101144EA014100FB0EFE81
:100E40008E4508D91CEB010100F1FF346CD28E45B0
:100E50006AD90238614440EA0840A0FB0294A1EB41
:100E60000E01A142C846A64656D353D05DB1B3EB9E
:100E7000080261EB0E0101FA07F722FA06F3F140CE
:100E80001F43C5E9007100263146BDE8F087C2F175
:100E90002003D8400CFA02FC21FA03F391400143ED
:100EA0004FEA1C471FFA8CFEB3FBF7F007FB103626
:100EB0000B0C43EA064300FB0EF69E4204FA02F4D2
:100EC00008D91CEB030300F1FF382FD29E422DD925
:100ED000023863449B1B89B2B3FBF7F607FB16335A
:100EE00041EA034106FB0EF38B4208D91CEB0101DA
:100EF00006F1FF3816D28B4214D9023E6144C91A5A
:100F000046EA004638E72E46284605E70646E3E669
:100F10001846F8E64B45A9D2B9EB020864EB0C0E73
:100F20000138A3E74646EAE7204694E74046D1E782
:100F3000D0467BE7023B614432E7304609E7644430
:100F4000023842E7704700BF844641EA000313F0CD
:100F500003036DD1403A41D351F8043B40F8043BC0
:100F600051F8043B40F8043B51F8043B40F8043B83
:100F700051F8043B40F8043B51F8043B40F8043B73
:100F800051F8043B40F8043B51F8043B40F8043B63
:100F900051F8043B40F8043B51F8043B40F8043B53
:100FA00051F8043B40F8043B51F8043B40F8043B43
:100FB00051F8043B40F8043B51F8043B40F8043B33
:100FC00051F8043B40F8043B51F8043B40F8043B23
:100FD00051F8043B40F8043B403ABDD2303211D3C3
:100FE00051F8043B40F8043B51F8043B40F8043B03
:100FF00051F8043B40F8043B51F8043B40F8043BF3
:10100000103AEDD20C3205D351F8043B40F8043BC2
:10101000043AF9D2043208D0D2071CBF11F8013BC0
:1010200000F8013B01D30B8803806046704700BF86
:10103000082A13D38B078DD010F003038AD0C3F195
:101040000403D21ADB071CBF11F8013B00F8013B77
:1010500080D331F8023B20F8023B7BE7043AD9D336
:10106000013A11F8013B00F8013BF9D20B7803700B
:101070004B7843708B7883706046704700000000A7
:10108000A2EB0300704700BF02780B78012A28BF4B
:101090009A42F5D16DE9044540EA0104CDE90267C1
:1010A0006FF0000C4FEA447212B380EA010414F0AE
:1010B000070F6AD100F0070420F0070004F00305D1
:1010C00021F007014FEAC505F0E8042314F0040FEE
:1010D000F1E804670CFA05F462EA040266EA040621
:1010E0000AD063EA0403624667EA0407664603E03F
:1010F000F0E80423F1E8046782FA4CF582EA06047A
:10110000A4FA8CF46CBB83FA4CF583EA0705A5FAC4
:101110008CF595B950E9022351E9026782FA4CF542
:1011200082EA0604A4FA8CF483FA4CF583EA0705F4
:10113000A5FA8CF52543DBD09CB92DBAB5FA85F418
:1011400024F0070427FA04F1DDE9026723FA04F327
:1011500003F0FF0001F0FF01FDE80445A0EB0100F2
:10116000704724BAB4FA84F424F0070426FA04F190
:10117000DDE9026722FA04F202F0FF0001F0FF014C
:10118000FDE80445A0EB0100704714F0030F3CD1CB
:1011900010F0030428D150F8082B51F8083B82FACC
:1011A0004CF582EA0305A5FA8CF55DB950F8042CDC
:1011B00051F8043C82FA4CF582EA0305A5FA8CF555
:1011C000002DE8D02DBAB5FA85F424F0070423FAEF
:1011D00004F122FA04F202F0FF0001F0FF01FDE841
:1011E0000445A0EB010070474FEAC40420F003005F
:1011F00050F8082B21F0030151F8083B0CFA04F4D5
:1012000062EA040263EA0403C9E710F003041AD097
:10121000A1EB040120F00300E40750F8042B06D0F2
:101220000FD28B785FFAA2F4E41A06D12BB1CB78F7
:101230005FFAB2F4E41A00D11BB920465DF8104BF6
:10124000704701F1040150F8042BCC0721F0030191
:1012500051F8043B48D824D222F07F4482FA4CF55E
:1012600094EA1325A5FA8CF50AD165B951F8043B27
:1012700084EA0204B4EB036F0ED150F8042BEBE7C1
:101280004FEA132355E035F07F454DD10878FDE84E
:101290000445C0F1000070474FEA126203F0FF03FB
:1012A00047E002EA1C4482FA4CF594EA1345A5FA99
:1012B0008CF50AD165B951F8043B84EA0204B4EB19
:1012C000034F0CD150F8042BEBE74FEA134330E007
:1012D00015EA1C4528D10B884FEA124229E04FEA53
:1012E000124203EA1C4324E002F0FF0482FA4CF5A8
:1012F00094EA1365A5FA8CF50AD165B951F8043B57
:1013000084EA0204B4EB032F09D150F8042BEBE775
:101310004FEA13630DE015F0FF0F05D10B684FEA9C
:10132000122223F07F4304E04FF00000FDE8044563
:10133000704712BA1BBA82FA4CF482EA0304A4FA88
:101340008CF5B5FA85F402FA04F203FA04F34FEAD5
:101350001260FDE80445A0EB136070470000000038
:10136000000000000000000000000000000000007D
:10137000000000000000000000000000000000006D
:1013800090F800F06DE9024520F007016FF0000CC5
:1013900010F0070491F820F040F049804FF000046D
:1013A0006FF00700D1E9002391F840F000F1080048
:1013B00082FA4CF2A4FA8CF283FA4CF3A2FA8CF380
:1013C0004BBBD1E9022382FA4CF200F10800A4FAE7
:1013D0008CF283FA4CF3A2FA8CF3E3B9D1E904233B
:1013E00082FA4CF200F10800A4FA8CF283FA4CF372
:1013F000A2FA8CF37BB9D1E9062301F1200182FA2C
:101400004CF200F10800A4FA8CF283FA4CF3A2FA31
:101410008CF3002BC6D0002A04BF04301A4612BA3F
:10142000B2FA82F2FDE8024500EBD2007047D1E942
:10143000002304F00305C4F100004FEAC50514F0D1
:10144000040F91F840F00CFA05F562EA05021CBFA2
:1014500063EA050362464FF00004A9E700000000BC
:1014600001F0FF01102A2BDB10F0070F08D010F855
:10147000013B013A8B422DD010F0070F42B3F6D159
:10148000F0B441EA012141EA014122F007047FF072
:1014900000070023F0E80256083C85EA010586EAC9
:1014A000010685FA47F5A3FA87F586FA47F6A5FA05
:1014B00087F68EB9EED1F0BC01F0FF0102F0070211
:1014C00032B110F8013B013A83EA010313B1F8D1BC
:1014D0000020704701387047002D06BF354603389D
:1014E000073815F0010F07D1013015F4807F02BFD6
:1014F000013015F4C03F0130F0BC0138704700BF27
:1015000000B595B001238DF84F3007AB3022002194
:10151000184650F0A5FE02AB00221A605A609A608D
:10152000DA601A61002301933B4B1B6C3A4A43F08B
:1015300080531364384B1B6C03F080530193019B61
:1015400000230093354B1B68344A43F480431360F7
:10155000324B1B6803F480430093009B09230793DD
:101560004FF48033089301230C9302230D934FF41F
:1015700080030E930C230F93C02310930423119325
:101580000423129307AB18463FF0F4F803468DF896
:101590004E309DF84E30002B0DD000238DF84F308B
:1015A0009DF84E30184607F035F903461A461C4997
:1015B000362013F0F9FE9DF84F30002B26D00F2374
:1015C000029302230393002304934FF48053059363
:1015D0000023069302AB012118463FF02FFC03467F
:1015E0008DF84E303EF016FF9DF84E30002B0DD09A
:1015F00000238DF84F309DF84E30184607F00AF959
:1016000003461A460649362013F0CEFE9DF84F30A9
:10161000184615B05DF804FB003802400070004029
:10162000E8A2060884B00023039301230293012358
:101630000193029A019B9A4201D1019B0393039B60
:10164000184604B070470000064BD3F88830054AAE
:1016500043F47003C2F88830024B034A9A6000BF1B
:10166000704700BF00ED00E00000010882B00123D8
:101670008DF807309DF80730184602B0704782B0E9
:101680000D230193019B184602B0704782B00023DE
:1016900001930C230193019B184602B0704700B5DB
:1016A00083B000238DF8073000F0C0F803468DF8B2
:1016B00007309DF80730184603B05DF804FB0000C2
:1016C00082B0002300936B460193054B1B68019A7F
:1016D0009A4202D2024A019B136000BF02B07047D7
:1016E000A003002082B0034600228DF80720B3F14A
:1016F000005F05D3054A934202D801238DF80730D5
:101700009DF80730184602B0704700BF0000032064
:1017100000B589B003900291019200238DF8173033
:10172000039A029B9A420AD2039B0133019A0299BF
:101730001846FFF7EDFF03468DF8173015E0039AC2
:10174000029B9A420ED10C4B1B6807930DF11703B5
:10175000079AD31A0693019B069A1A6001238DF803
:10176000173002E000238DF817309DF81730184627
:1017700009B05DF804FB00BF0000010800B585B0AA
:101780000190009100238DF80F30009A01990020FC
:10179000FFF7BEFF03468DF80F309DF80F30184657
:1017A00005B05DF804FB000000B583B000238DF8A0
:1017B000073009490D2013F0DAFD4FF47A701FF05D
:1017C000D5F800F03DF803468DF807309DF8073056
:1017D000184603B05DF804FBBCA3060882B00123E1
:1017E0008DF80730064BD3F88830054A43F4700370
:1017F000C2F888309DF80730184602B0704700BF25
:1018000000ED00E0BFF34F8F00BF064BDB6803F431
:10181000E0620449044B1343CB60BFF34F8F00BF1A
:1018200000BFFDE700ED00E00400FA0582B00023F0
:101830008DF807309DF80730184602B07047000059
:1018400000B583B001238DF807300549362013F029
:101850008EFD0AF099F872B600BFFFF7D3FF00BF04
:1018600014A4060886B0019000238DF8173072B6D4
:1018700000BF01230393039B83F3108800BF0E4A2C
:10188000019B936000230493049B83F3108800BFA3
:1018900062B600BF084B9B68019A9A4203D10123AC
:1018A0008DF8173002E000238DF817309DF81730BF
:1018B000184606B0704700BF00ED00E000B583B0E9
:1018C00000238DF807300648FFF7CCFF03468DF85C
:1018D00007309DF80730184603B05DF804FB00BFE1
:1018E0000000010882B000238DF80730094B5B68C7
:1018F000002B0AD0074B5B681B68C3F30003DBB205
:10190000002B02D001238DF807309DF807301846D0
:1019100002B070478C0300202DE9F00382B02A4CFE
:10192000A468002520462946CDE900012749D1E9D0
:101930000001274CC4E90001DDE9004520462946A5
:101940004FF000084FF000094FEA411949EAD06909
:101950004FEA401840464946021B61EB05034FF031
:1019600000004FF00001990041EA92719000024698
:101970000B46161943EB05074FF000024FF000032A
:10198000FB0043EA5673F20016461F4632463B46BA
:101990000E49C1E900230D4BD3E900010C4BD3E9FB
:1019A0000023904271EB030304D2074B1B68013301
:1019B000054A1360054BD3E900231046194602B0CF
:1019C000BDE8F003704700BF8C0300202892002080
:1019D0003092002000B587B00190009100238DF86F
:1019E0001730019B002B19D11149124813F020FF29
:1019F000114B1B680493114B1B681A46049B9B1ADE
:101A000003930E4B1B68039A0D49362013F0AFFC6D
:101A100029F0AEFB01238DF8173003E00949362089
:101A200013F0C2FC9DF81730184607B05DF804FBB0
:101A3000758D040858A4060800000108A0030020C2
:101A400068A4060890A4060800B585B0019000912E
:101A500000238DF80F30019B002B02D101238DF85C
:101A60000F309DF80F30002B05D0FFF79DFE034689
:101A70008DF80F3003E00549362013F095FC9DF8F2
:101A80000F30184605B05DF804FB00BF9CA40608A3
:101A900000B58BB00190009100238DF82730002312
:101AA0000593002308930023ADF81230544B1B68B4
:101AB00007930799534813F0BBFE0DF11203079AE1
:101AC000D31A06930699504813F0B2FE069BC3F54D
:101AD000006319464D4813F0ABFE00230393079BA8
:101AE000A3F60103184603AB00224FF400610DF08A
:101AF000C0FF03468DF82730039BC3F500630893AE
:101B00009DF82730002B1ED0039B1946404813F048
:101B10008FFE08993F4813F08BFE089B07EE903A22
:101B2000F8EE677A9FED3C7A67EE877A9FED3B7A15
:101B3000C7EE876A16EE900AFEF7C6FC02460B4611
:101B4000374813F075FE00230293019B002B20D130
:101B500000230593059B02AA11461846FFF70EFEC7
:101B600003468DF827309DF8273083F00103DBB260
:101B7000002B04D02B49362013F016FC05E0059A03
:101B8000029B2949362013F0D5FB059B01330593B1
:101B9000E0E7019B002B09DD009B1B6805AA1146AD
:101BA00018460FF0B0FB03468DF827309DF827301C
:101BB000002B1BD0059B02AA11461846FFF7DEFD3D
:101BC00003468DF827309DF8273083F00103DBB200
:101BD000002B04D01349362013F0E6FB0AE0059AE7
:101BE000029B1149362013F0A5FB03E00F49362074
:101BF00013F0DAFB9DF8273018460BB05DF804FBB4
:101C000000000108ACA40608C8A40608E4A406085D
:101C1000F8A406080CA506080000C842000000450C
:101C200020A5060838A5060840A506085CA50608F4
:101C300000B591B0039000238DF83F30039B002244
:101C400083F8AE200023059306AB2422002118461A
:101C500050F006FB124BD3F8F0321846FEF734FC76
:101C600002460B4605A8CDE900230E4A282150F074
:101C7000B3FE05AB1A460C493E2013F095FB0B4B07
:101C80001A6805AB114618460DF090FA03468DF818
:101C90003F309DF83F30184611B05DF804FB00BF9F
:101CA000181400207CA5060890A50608E805002069
:101CB00000B585B06B4683E803000A238DF80F302A
:101CC0009DF802301A465E493E2013F0D9FA9DF87D
:101CD0000230002B00F09580002BC0F2A480582B1E
:101CE00000F3A180282BC0F29E80283B302B00F20D
:101CF0009A8001A252F823F0F31D0108D51D0108B6
:101D0000BD1D0108271E0108271E0108271E010806
:101D1000271E0108271E0108271E0108271E01088B
:101D2000271E0108271E0108271E0108DD1D0108C6
:101D3000271E0108271E0108271E0108271E01086B
:101D4000271E0108271E0108271E0108271E01085B
:101D5000271E0108271E0108271E0108271E01084B
:101D6000271E0108271E0108271E0108271E01083B
:101D7000271E0108271E0108271E0108271E01082B
:101D8000271E0108C51D0108271E0108271E01087E
:101D9000CD1D0108271E0108271E0108CD1D0108C1
:101DA000C51D0108271E0108271E0108271E01085E
:101DB000271E0108271E0108FB1D010808238DF8B6
:101DC0000F3037E006238DF80F3033E007238DF80E
:101DD0000F302FE001238DF80F302BE09DF80030FD
:101DE00003F00103DBB2002B21D000238DF80F306C
:101DF0001DE005238DF80F301CE004238DF80F3013
:101E000018E09DF8003003F00103DBB2002B10D086
:101E10009DF8003003F01003DBB2002B09D009233A
:101E20008DF80F3005E002238DF80F3002E000BF7F
:101E300000E000BF9DF80F30184605B05DF804FBC8
:101E400094A5060800B585B0019000238DF80F30E9
:101E5000019B002B1DD012493E2013F088FA019BF4
:101E60004A3340220021184650F0FAF9019B002223
:101E7000C3F89820019B0022A3F8AC20019B00220C
:101E8000C3F88C200021022017F012FC03468DF8C5
:101E90000F309DF80F30184605B05DF804FB00BF09
:101EA000A4A5060800B585B0019000238DF80F3079
:101EB000019B002B0CD0019B0233062118461BF01E
:101EC000C4FE0290029B002B02D001238DF80F303C
:101ED0009DF80F30184605B05DF804FB00B585B0DD
:101EE000019000238DF80F30074B1B681A46032121
:101EF00001980DF0A7F903468DF80F309DF80F30CB
:101F0000184605B05DF804FBE805002000B587B071
:101F1000039000238DF81730022016F007FF04907D
:101F2000049B002B00F0D080049BD3F8A8301A4605
:101F3000684B1B68194610461DF026F8049B9869EB
:101F4000049BD3F8A81000230193012300930123DD
:101F500000220DF0BFFF049B9A69049BD3F8A830C0
:101F60005D493E2013F003FA039BD3F890305A1CCE
:101F7000039BC3F89020594B00225A70049B9B6925
:101F8000184625F0FBFA03468DF817309DF81730F8
:101F900083F00103DBB2002B12D051493E2013F035
:101FA00003FA4C4B1B6819464E480DF0FFF80346E8
:101FB0008DF81730039B002283F8AE20002385E0C4
:101FC00049493E2013F05CF99DF81730002B24D0CE
:101FD000424825F00DFB03468DF817309DF8173069
:101FE000002B12D03D4BD3F8E8321A463F493E2031
:101FF00013F0A0F9394BD3F8E822039BC3F8A820CB
:10200000039B032283F8AE2007E00398FFF710FE3E
:1020100003468DF81730002358E0039BD3F8A8300F
:10202000002B3CD0039B032283F8AE20294B1B6876
:10203000194603201CF0A8FF039BD3F89C30254AC7
:102040001268114618461CF09FFF2948FFF746FF0B
:10205000039BD3F8982013469B019B1A9B0003F522
:10206000BC631E4A13441B4A1268114618460DF001
:102070009DF803468DF81730039BD3F8982013463C
:102080009B019B1A9B0003F5BC63144A134418463A
:10209000FFF776F90246039BC3F89C200EE0154932
:1020A0003E2013F081F9039B002283F8AE20039BAE
:1020B000D3F8A4305A1C039BC3F8A4200398FFF75D
:1020C000C1FE03468DF817309DF81730184607B04B
:1020D0005DF804FBE8050020B0A5060818140020F0
:1020E000CCA50608DCA50608F4A5060804A6060883
:1020F00020A6060824A6060800B585B00190009128
:1021000000238DF80F30019B002B00F09980009B7D
:10211000002B00F095800121022017F0C9FA034638
:102120008DF80F3000981CF045FE03468DF80E30F8
:102130009DF80E301A4648493E2013F0A1F8009849
:10214000FFF7B0FE03468DF80F309DF80F30002BDF
:1021500076D0009B19680A4659680B461046194606
:10216000FFF7A6FD03468DF80D309DF80D30013BBD
:10217000072B64D801A252F823F000BFCD2101083B
:102180009D2101083F220108312201083122010866
:102190003F2201083F220108B92101089DF80E30B5
:1021A0001946022016F092FE03468DF80F30019B6F
:1021B000012283F8AE2043E09DF80E30194602203C
:1021C00016F084FE03468DF80F3039E0019B0022A3
:1021D00083F8AE2021493E2013F0C9F80198FFF79B
:1021E00031FE03468DF80F30019BD3F88C3003335A
:1021F0001A461B4B1B68194610461CF0C5FE0A21E7
:102200009FED130B012017F06FFE0346002B05D046
:102210009DF80F30002B01D0012300E000238DF842
:102220000F309DF80F3003F001038DF80F3007E0F9
:102230000198FFF76BFE03468DF80F3000E000BFFA
:102240009DF80F30184605B05DF804FBAFF3008031
:10225000000000000000E03F2CA606083CA606088F
:10226000E80500200000000000B585B00190009155
:1022700000238DF80F303A4B1B68194601980CF07B
:1022800095FF03468DF80F30354B1B6819462B2000
:102290001CF04AFE0346002B05D09DF80F30002BA2
:1022A00001D0012300E000238DF80F309DF80F309E
:1022B00003F001038DF80F30294B1B681946009875
:1022C0000CF074FF0346002B05D09DF80F30002B57
:1022D00001D0012300E000238DF80F309DF80F306E
:1022E00003F001038DF80F301D4B1B6819462820A1
:1022F0001CF01AFE0346002B05D09DF80F30002B72
:1023000001D0012300E000238DF80F309DF80F303D
:1023100003F001038DF80F300A219FED0F0B012010
:1023200017F0E2FD0346002B05D09DF80F30002B7F
:1023300001D0012300E000238DF80F309DF80F300D
:1023400003F001038DF80F309DF80F30184605B0EB
:102350005DF804FBAFF30080000000000000E03FE8
:10236000E80500200000000000B585B001900023C2
:102370008DF80F30224B1B68194601980CF016FFA0
:1023800003468DF80F301E4B1B68194628201CF0A1
:10239000CBFD0346002B05D09DF80F30002B01D05C
:1023A000012300E000238DF80F309DF80F3003F07B
:1023B00001038DF80F300A219FED0F0B012017F05C
:1023C00093FD0346002B05D09DF80F30002B01D064
:1023D000012300E000238DF80F309DF80F3003F04B
:1023E00001038DF80F309DF80F30184605B05DF8E9
:1023F00004FB00BFAFF30080000000000000E03FDE
:10240000E805002000B587B001904FF0FF33059339
:10241000019B002B31D0019B4A331846FEF7B0FFD9
:102420000390039B002B03D100238DF8133019E098
:10243000144BD3F8E812019B4A331A46124826F08F
:102440004FF903468DF813309DF81330002B09D057
:102450000C4BD3F8E812019B4A331A460A4826F07F
:102460007BF905909DF8133083F00103DBB2002B5C
:1024700003D0019BD3F898300593059B184607B00D
:102480005DF804FB18140020F819002000B587B08F
:1024900001904FF0FF330593019B002B3DD0019B32
:1024A0004A331846FEF76CFF0390039B002B03D1C1
:1024B00000238DF813301CE01A4BD3F8E812019B6F
:1024C0004A331A46184826F00BF903468DF81330A4
:1024D0009DF81330002B0CD0124BD3F8E812019B5F
:1024E00003F14A02019BD3F898300F4826F073F9A4
:1024F00005909DF8133083F00103DBB2002B0CD064
:10250000019BD3F898301A46019BD3F8A83019469E
:1025100010460DF06EFA03460593059B184607B06A
:102520005DF804FB18140020F819002000B587B0EE
:1025300001904FF0FF330593019B002B3DD0019B91
:102540004A331846FEF71CFF0390039B002B03D170
:1025500000238DF813301CE01A4BD3F8E812019BCE
:102560004A331A46184826F0BBF803468DF8133054
:102570009DF81330002B0CD0124BD3F8E812019BBE
:1025800003F14A02019BD3F898300F4826F06BF90B
:1025900005909DF8133083F00103DBB2002B0CD0C3
:1025A000019BD3F898301A46019BD3F8A8301946FE
:1025B00010460DF003FA03460593059B184607B035
:1025C0005DF804FB18140020F8190020000000003A
:1025D00000B585B00190009100238DF80F30009B6D
:1025E00019680A4659680B4610461946FFF760FB02
:1025F00003468DF80E3000981CF0DCFB03468DF886
:102600000D300A219FED9C0B012017F06DFC034655
:102610008DF80F30019BD3F8982013469B019B1A2D
:102620009B0003F5BC63964A13441A4695493E2025
:1026300012F080FE019BD3F8A830002B07D1019B3C
:10264000002283F8AE2090493E2012F0ADFE9DF8A6
:102650000E30013B072B00F2CF8201A252F823F08B
:102660005528010847270108F92B01081D2B0108EF
:10267000412A01086D2901089928010881260108CD
:10268000019BB3F8AC30002B10D0019BB3F8AC30F9
:10269000013B9AB2019BA3F8AC20019BB3F8AC308C
:1026A0001A46019B1344002283F84A200198FFF741
:1026B000A9FE0246019BC3F89820019BD3F89830ED
:1026C000002B00F0E482019BD3F8982013469B0175
:1026D0009B1A9B0003F5BC63694A13441A46694977
:1026E0003E2012F027FE019BD3F89C30674A126807
:1026F000114618461CF048FC019BD3F8982013465D
:102700009B019B1A9B0003F5BC635D4A13445F4A1F
:102710001268114618460CF049FD03468DF80F303B
:10272000019BD3F8982013469B019B1A9B0003F54D
:10273000BC63534A13441846FEF722FE0246019B2F
:10274000C3F89C20A3E2019BD3F8982013469B0179
:102750009B1A9B0003F5BC63494A13441846FEF7D5
:102760000FFE0246019BC3F89C20019BB3F8AC30DE
:102770003F2B12D8019BB3F8AC3019469DF90D20C0
:10278000019B0B4483F84A20019BB3F8AC30013322
:102790009AB2019BA3F8AC200FE0019B4A33402280
:1027A000002118464FF05CFD019BB3F8AC301A468F
:1027B000402337493E2012F0F7FD0198FFF722FE33
:1027C0000246019BC3F89820019BD3F89830002B58
:1027D00000F05F82019BD3F8982013469B019B1A5F
:1027E0009B0003F5BC63264A13441A4625493E2044
:1027F00012F0A0FD019BD3F89C30244A12681146C8
:1028000018461CF0C1FB019BD3F8982013469B018E
:102810009B1A9B0003F5BC63194A13441B4A1268B8
:10282000114618460CF0C2FC03468DF80F30019B90
:10283000D3F8982013469B019B1A9B0003F5BC63B9
:102840000F4A13441846FEF79BFD0246019BC3F84E
:102850009C201EE2019B002283F8AE200D493E2001
:1028600012F085FD0198FFF7EDFA03468DF80F3061
:1028700014E200BFAFF30080000000000000204021
:102880001814002050A6060858A60608E8050020DF
:1028900064A6060880A60608019BD3F898301A465D
:1028A000CD493E2012F0ECFC019BD3F89820134652
:1028B0009B019B1A9B0003F5BC63C84A134418464E
:1028C000FEF75EFD0246019BC3F89C200198FFF7CE
:1028D0002DFE0246019BC3F89820019BD3F8983047
:1028E000002B00F0D881019BD3F8982013469B0160
:1028F0009B1A9B0003F5BC63B84A13441A46B849B7
:102900003E2012F017FD019BD3F89C30B54A1268A7
:10291000114618461CF038FB019BD3F8982013464B
:102920009B019B1A9B0003F5BC63AC4A1344AD4A60
:102930001268114618460CF039FC03468DF80F302A
:10294000019BD3F8982013469B019B1A9B0003F52B
:10295000BC63A24A13441846FEF712FD0246019BCF
:10296000C3F89C2001238DF80F3094E1019BD3F82C
:1029700098301A469C493E2012F082FC019BD3F805
:10298000982013469B019B1A9B0003F5BC63934A56
:1029900013441846FEF7F4FC0246019BC3F89C2042
:1029A0000198FFF773FD0246019BC3F89820019B35
:1029B000D3F89830002B00F0708101238DF80F3090
:1029C000019BD3F8982013469B019B1A9B0003F5AB
:1029D000BC63824A13441A4681493E2012F0AAFC85
:1029E000019BD3F89C307F4A1268114618461CF0B0
:1029F000CBFA019BD3F8982013469B019B1A9B00AE
:102A000003F5BC63754A1344764A126811461846AA
:102A10000CF0CCFB03468DF80F30019BD3F89820C7
:102A200013469B019B1A9B0003F5BC636B4A13443E
:102A30001846FEF7A5FC0246019BC3F89C202CE13A
:102A4000019BD3F8982013469B019B1A9B0003F52A
:102A5000BE63624A1344191D019BD3F898201346A4
:102A60009B019B1A9B0003F5CA635C4A1344043321
:102A70000A465E493E2012F03FFC019BD3F89820A5
:102A800013469B019B1A9B0003F5BC63534A1344F6
:102A90001846FEF775FC0246019BC3F89C200123F3
:102AA0008DF80F30019BD3F89820019BC3F8A0202C
:102AB000019B98331946512020F0E8FD03468DF81C
:102AC0000F30019BD3F89C300333464A12681146FD
:102AD00018461CF059FA019BD3F8982013469B0125
:102AE0009B1A9B0003F5BE633C4A1344181D019BCF
:102AF000D3F8982013469B019B1A9B0003F5CA63E9
:102B0000364A134404331946FFF7AEFB03468DF8EB
:102B10000F30019B002283F8AE20BFE0019BD3F869
:102B2000982013469B019B1A9B0003F5BC632B4A1C
:102B300013441846FEF724FC0246019BC3F89C2070
:102B4000019BD3F898301A4629493E2012F098FB91
:102B5000019BD3F8982013469B019B1A9B0003F519
:102B6000CA631E4A134404331A4622493E2012F017
:102B7000C3FB019BD3F89820019BC3F8A020019BC5
:102B800098331946512020F081FD03468DF80F300F
:102B900001238DF80F30019BD3F89C300333114A89
:102BA0001268114618461CF0EFF9019BD3F89820E3
:102BB00013469B019B1A9B0003F5CA63074A134403
:102BC00004331846FFF7D0FB03468DF80F30019B06
:102BD000002283F8AE2061E088A6060818140020C1
:102BE00050A60608E805002090A6060898A6060844
:102BF000A0A60608ACA60608019BD3F898201346A9
:102C00009B019B1A9B0003F5BC632C4A13441A4694
:102C10002B493E2012F08EFB019BD3F89C30294AB1
:102C20001268114618461CF0AFF9019BD3F89820A2
:102C300013469B019B1A9B0003F5BC631F4A134478
:102C4000204A1268114618460CF0B0FA03468DF877
:102C50000F30019BD3F8982013469B019B1A9B00D1
:102C600003F5BC63154A13441846FEF789FB024678
:102C7000019BC3F89C209DF80E301A4612493E2055
:102C800012F092FB019B032283F8AE2006E000BF06
:102C900004E000BF02E000BF00E000BF019B03F1C1
:102CA0004A02019BB3F8AC3008493E2012F006FB03
:102CB0009DF80F30184605B05DF804FB181400208D
:102CC00050A60608E8050020B4A60608C8A606080F
:102CD00000B585B0019000238DF80F30019B002BCB
:102CE00038D021493E2012F025FB022016F002FDCB
:102CF00003468DF80F30019B0022C3F89C20019BF6
:102D00000022A3F8AC20019B4A3340220021184640
:102D10004FF0A6FA019B012283F8AE20019BD3F865
:102D200094305A1C019BC3F894200198FFF78AF84D
:102D30000E4BD3F8E822019BC3F8A8200C48FFF7FC
:102D4000CDF832219FED060B012017F0CDF8034698
:102D50008DF80F309DF80F30184605B05DF804FB74
:102D60000000000000001040E4A60608181400202F
:102D7000F8A6060800B585B00190009100238DF8F3
:102D80000F3013F035FA009B19680A4659680B4654
:102D900010461946FEF78CFF03468DF80E309DF85D
:102DA0000E30002B02D0092B1CD029E01B4824F048
:102DB0001FFC03468DF80F309DF80F30002B0AD012
:102DC00017493E2012F0B6FA0198FFF781FF03463B
:102DD0008DF80F301BE00198FEF72AFF03468DF8AF
:102DE0000F3014E001238DF80F30019B022283F88D
:102DF000AE200C48FFF772F803468DF80F3006E05E
:102E000000980CF091F803468DF80F3000BF9DF844
:102E10000F30184605B05DF804FB00BF1814002001
:102E2000FCA6060810A7060800B585B00190009121
:102E300000238DF80F3050219FED3F0B012017F03C
:102E400053F803468DF80F300021022016F030FCB5
:102E500003468DF80F3000981BF0ACFF03468DF849
:102E60000E309DF80E301A4637493E2012F008FA0F
:102E70009DF80E301946022016F028F803468DF80A
:102E80000F30009B19680A4659680B4610461946D0
:102E9000FEF70EFF03468DF80D309DF80D30052B23
:102EA00037DC042B23DA012B02D0022B2DD030E0AB
:102EB000019B002283F8AE2024493E2012F057FAED
:102EC000019BD3F88C3003331A46214B1B681946FB
:102ED00010461CF059F80A219FED190B012017F03C
:102EE00003F803468DF80F3013F082F91CE00A2135
:102EF0009FED130B012016F0F7FF03468DF80F30FE
:102F0000019B002283F8AE200EE001238DF80F30E4
:102F10000AE09DF80D301A460E493E2012F044FAA0
:102F200000238DF80F3000BF9DF80F30184605B014
:102F30005DF804FBAFF300800000000000003040AB
:102F4000000000000000E03F2CA6060880A606084E
:102F5000E805002014A7060800B587B0039001AB70
:102F600083E8060000238DF81730039B002B4CD01C
:102F7000039B93F88B3083F00103DBB2002B48D026
:102F8000039B012283F88B2001238DF81730039BCC
:102F900093F8AE30032B2FD801A252F823F000BFD4
:102FA000B12F0108C32F0108E72F0108D52F010811
:102FB00001AB19460398FFF7DDFE03468DF8173085
:102FC0001EE001AB19460398FFF796F803468DF80B
:102FD000173015E001AB19460398FFF7F9FA0346DD
:102FE0008DF817300CE001AB19460398FFF71CFF72
:102FF00003468DF8173003E000238DF8173000BF2B
:10300000039B002283F88B2003E005493E2012F049
:10301000CBF99DF81730184607B05DF804FB00BFE8
:1030200028A7060800B595B0039000238DF84F300F
:10303000039B002B00F0AD80039B002283F88B20C4
:10304000039B002283F8AE20039B012283F88A2091
:10305000039B0022C3F89020039B0022C3F89C200E
:10306000039B0022C3F89820039B4A33402200218F
:1030700018464FF0F5F8039B0022A3F8AC20039804
:10308000FEF7E0FE03468DF84F3001238DF84E30F9
:103090000023049305AB2E22002118464FF0E0F8E0
:1030A00000238DF84D30404B1293039B9833194603
:1030B000512020F0A5FB03468DF84D30512020F023
:1030C0000FFA1190039B9833119A194651201FF063
:1030D00051FE12909DF84D30002B14D051201FF05E
:1030E0000BFE024604A8129B009313462F4A32217E
:1030F0004FF072FC039BD3F8982004AB19463320A1
:1031000012F018F91DE051201FF0F6FD024604A848
:10311000129B00931346264A32214FF05DFC039B1D
:10312000D3F8982004AB1946332012F020F9039B02
:103130000022C3F8982000238DF84D3000238DF82D
:103140004E30039BD3F89830002B0DDD039BD3F852
:103150009830452B08D8039BD3F898301A46154968
:103160003E2012F0E7F814E0039BD3F898301A469B
:1031700011493E2012F018F9039B0022C3F8982051
:10318000039B98331946512020F080FA03468DF8AE
:103190004F3000213E2011F04DFF9DF84F30184672
:1031A00015B05DF804FB00BF30A7060834A7060879
:1031B00050A7060864A7060874A7060800B583B0E0
:1031C00000238DF8073008493E2012F0D0F8074858
:1031D000FFF728FF03468DF807309DF807301846A3
:1031E00003B05DF804FB00BF84A70608A403002019
:1031F00084B003468DF80730104B03939DF80730D9
:10320000032B17D801A252F823F000BF2332010884
:10321000293201082F3201081D320108084B03939F
:1032200008E0084B039305E0074B039302E0074BCC
:10323000039300BF039B184604B070478CA7060891
:1032400090A7060898A70608A0A70608A8A706083A
:1032500000B595B001238DF84F30344A34493620FB
:1032600012F085F8334B109301238DF84E30002374
:10327000039304AB2E22002118464EF0F1FF0023E9
:103280008DF84D302C4B129310AB19465C2020F07A
:10329000B7FA03468DF84D305C2020F021F91190EB
:1032A00010AB119A19465C201FF064FD12909DF836
:1032B0004D30002B12D05C201FF01EFD024603A8EB
:1032C000129B009313461D4A32214FF085FB109A42
:1032D00003AB19460B2012F02DF819E05C201FF00B
:1032E0000BFD024603A8129B00931346144A322199
:1032F0004FF072FB109A03AB19460B2012F037F80F
:103300000C4B109300238DF84D3000238DF84E3078
:10331000109B184605F0F1FC03468DF84F309DF8E0
:103320004F30184615B05DF804FB00BF001BB70016
:10333000ACA7060800E1F505C4A70608C8A706085B
:10334000E4A7060830B58BB0CDE90001002309934E
:10335000DDE9002313432ED04FF000024FF00003AD
:10336000CDE904231CF01CFCCDE904014FF0000260
:103370004FF00003CDE902234FF000024FF00003AD
:10338000CDE906230FE01CF00BFCCDE90201DDE9DD
:103390000201DDE90423841A61EB0305CDE906454A
:1033A000099B01330993DDE90601DDE90023904221
:1033B00071EB0303E7D3099B18460BB030BD00B592
:1033C00087B0019000230593019B002B17D00023A9
:1033D00003931CF0C9FB0390002302930023049382
:1033E00009E01CF0C1FB0290029A039BD31A0493DC
:1033F000059B01330593049A019B9A42F1D3059BE7
:10340000184607B05DF804FB30B587B001904FF067
:1034100000024FF00003CDE90423002303930023AF
:1034200003930BE005F034FCDDE90423141843EBAF
:103430000105CDE90445039B01330393039A019BE6
:103440009A42EFD3DDE904231046194607B030BD98
:1034500000B583B001238DF80730C820FFF7D4FFF3
:103460009DF80730184603B05DF804FB00B585B041
:10347000019000238DF80F3005F03CFC029002987B
:1034800010F0D6FF03461A4619490B2011F052FFDF
:10349000019B184610F0CCFF03461A4615490B2035
:1034A00011F048FF01AB19465C2020F0EFF803460D
:1034B0008DF80F309DF80F30002B0BD0019B1A4672
:1034C0000D49362011F036FFFEF76EF903468DF8F0
:1034D0000F3006E000238DF80F300849362011F038
:1034E00063FF9DF80F30184605B05DF804FB00BF80
:1034F00094A80608A8A80608BCA80608C8A8060834
:1035000084B003468DF80730124B03939DF80730C3
:10351000013B042B18D801A252F823F031350108E1
:1035200037350108493501083D35010843350108A3
:10353000094B039309E0094B039306E0084B0393FF
:1035400003E0084B039300E000BF039B184604B060
:10355000704700BFD0A80608DCA80608E4A8060843
:10356000ECA80608F4A8060800B58FB005900491F1
:1035700000238DF8373000230C9305F0BBFB0B9034
:103580000B9810F055FF03461A463F490B2011F0E7
:10359000D1FE3E4B9B681A463D490B2011F0CAFEF6
:1035A0004FF448704FF00001FFF7CCFE0C900C98E0
:1035B000FCF768FF4FF00002364BFDF707F90246B3
:1035C0000B46CDE908230C98FCF75CFF4FF0000296
:1035D000304BFDF7FBF802460B46CDE902230C9B6E
:1035E00000934FF000022B4B2B490B2011F0A2FE51
:1035F00021A3D3E90023DDE90801FCF7BDFF024662
:103600000B4626490B2011F095FE4FF49670FFF7FC
:10361000D6FE0C900C98FCF735FF19A3D3E90023D4
:10362000FDF7D4F802460B46CDE90623DDE9062373
:10363000CDE902230C9B009311A3D3E90023184981
:103640000B2011F077FE4FF00002164BDDE906016A
:10365000FCF792FF02460B4610490B2011F06AFE60
:1036600001238DF837309DF8373018460FB05DF8DC
:1036700004FB00BFAFF300800000000080842E41F7
:103680000000000000C0724014A9060800000020DD
:1036900024A906080000894030A9060860A9060888
:1036A00074A9060800408F4000B589B001900091D0
:1036B00000238DF81F3000230393019B012B17D1AA
:1036C000009B1B6803AA114618460DF01CFE03461A
:1036D0008DF81F309DF81F3083F00103DBB2002B03
:1036E00006D0009B1B681A461749362011F05CFE75
:1036F0009DF81F30002B1CD000238DF81F304FF099
:1037000000024FF00003CDE904231049362011F0E8
:1037100011FE039B1846FFF777FECDE90401DDE9B2
:1037200004230B49362011F005FE01238DF81F30CC
:1037300003E00849362011F037FE9DF81F30184687
:1037400009B05DF804FB00BFA0A90608B4A90608EB
:10375000BCA90608C8A9060800B585B0019000916B
:1037600000238DF80F30019B012B2DD100230293F4
:10377000009B1B6802AA114618460DF0C4FD0346C3
:103780008DF80F309DF80F3083F00103DBB2002B72
:1037900006D0009B1B681A461049362011F004FE23
:1037A0009DF80F30002B13D00D49362011F0C2FDCB
:1037B000029B18461DF098F803468DF80F30094912
:1037C000362011F0B7FD03E00749362011F0ECFD7B
:1037D0009DF80F30184605B05DF804FBA0A9060857
:1037E000B4A90608DCA90608E0A9060800B585B05A
:1037F0000190009100238DF80F30019B002B0CD11C
:1038000001238DF80F30002302931CF0ADF90290D4
:103810000299074812F00CF803E00649362011F02F
:10382000C3FD9DF80F30184605B05DF804FB00BFDE
:10383000F4A9060804AA060800B585B00190009115
:1038400000238DF80F30334B0293019B002B02DBDA
:1038500001238DF80F30019B002B17DD009B1B68A7
:1038600002AA114618460DF04EFD03468DF80F30A2
:103870009DF80F3083F00103DBB2002B06D0009BD4
:103880001B681A462449362011F08EFD9DF80F3032
:10389000002B34D0019B002B03D0019B012B0FD0B8
:1038A00031E005F027FA03460293029B184610F018
:1038B000BFFD03461A4619490B2011F03BFD22E0DB
:1038C000029B184610F0B4FD03461A4614490B201B
:1038D00011F030FD029B1846FFF7C8FD03468DF836
:1038E0000F309DF80F30002B04D00E49362011F018
:1038F00021FD08E00C49362011F056FD03E00B498C
:10390000362011F051FD9DF80F30184605B05DF8D6
:1039100004FB00BF00E1F50510AA060828AA060866
:103920003CAA060850AA060858AA060860AA060873
:1039300000B585B003468DF80730002303930023BC
:1039400002930023029322E01749029A13465B0078
:1039500013449B000B441B789DF807209A4213D117
:103960001149029A13465B0013449B000B44083331
:103970001B78002B12D0029A13465B0013449B0065
:10398000094A1344039309E0029B0133029335F083
:10399000BBFB0246029B9342D6D300E000BF039BD1
:1039A000184605B05DF804FB9890070800B585B08F
:1039B00003468DF80730002303930023029300236E
:1039C00002931FE0164A029B742101FB03F3134488
:1039D0001B789DF807209A4211D1114A029B74214D
:1039E00001FB03F3134408331B78002B11D0029B17
:1039F000742202FB03F30A4A1344039309E0029B77
:103A00000133029335F080FB0246029B9342D9D3E7
:103A100000E000BF039B184605B05DF804FB00BF43
:103A20003886002000B585B003468DF807300023A6
:103A30000393002302930023029320E0164A029B83
:103A40002C2101FB03F3134426331B789DF8072038
:103A50009A4211D1104A029B2C2101FB03F313441B
:103A600028331B78002B11D0029B2C2202FB03F37E
:103A7000094A1344039309E0029B0133029335F092
:103A800065FB0246029B9342D8D300E000BF039B34
:103A9000184605B05DF804FBB090070808B5044A65
:103AA0000449082011F080FC0023184608BD00BF1F
:103AB0004456070888AA060800B585B001238DF88A
:103AC0000F30FFF7EBFF03468DF80F300023029312
:103AD0006FF00201082011F0A1FC35F037FB0090D7
:103AE0000823009A2249082011F041FC0023019389
:103AF000002301931EE0019BDBB2184606F0F0F8AC
:103B000003468DF80F309DF80F30002B09D0019B34
:103B1000184A1949082011F00DFC029B0133029349
:103B200005E0019B134A1549082011F0A9FB019BF0
:103B300001330193019B082BDDD9029B002B09D097
:103B400001238DF80F300B4B029A0D49082011F01C
:103B5000F1FB02E000238DF80F300021082011F066
:103B60005DFC9DF80F30184605B05DF804FB00BF02
:103B70009CAA0608ACAA0608B0AA0608C0AA0608AD
:103B8000D0AA060800B585B001238DF80F3006F0E5
:103B900001FA03468DF80F30002302936FF0020103
:103BA000082011F03BFC35F0AFFA00900223009A98
:103BB0002249082011F0DBFB00230193002301932D
:103BC0001EE0019BDBB2184606F032FA03468DF880
:103BD0000F309DF80F30002B09D0019B184A19496E
:103BE000082011F0A7FB029B0133029305E0019B23
:103BF000134A1549082011F043FB019B013301933F
:103C0000019B022BDDD9029B002B09D001238DF8EB
:103C10000F300B4B029A0D49082011F08BFB02E08C
:103C200000238DF80F300021082011F0F7FB9DF8DC
:103C30000F30184605B05DF804FB00BF9CAA0608CB
:103C4000ACAA0608B0AA0608C0AA0608D0AA0608A8
:103C500000B585B0019000238DF80F30019B002B3B
:103C600003D001238DF80F3006E051492E2011F0CA
:103C70009BFB00238DF80F309DF80F30002B23D0D5
:103C8000019B93F82030002B0FD0019BDB69002BA8
:103C900003D001238DF80F3016E046492E2011F095
:103CA00083FB00238DF80F300EE0019B5B69002B36
:103CB00003D001238DF80F3006E03F492E2011F08C
:103CC00073FB00238DF80F309DF80F30002B0ED0C2
:103CD000019B9B69002B03D001238DF80F3006E078
:103CE00036492E2011F060FB00238DF80F309DF82F
:103CF0000F30002B0ED0019B5B68002B03D00123FB
:103D00008DF80F3006E02E492E2011F04DFB0023D8
:103D10008DF80F309DF80F30002B0ED0019B1B68E3
:103D2000002B03D001238DF80F3006E025492E200B
:103D300011F03AFB00238DF80F309DF80F30002B67
:103D40000ED0019BDB68002B03D001238DF80F30D0
:103D500006E01D492E2011F027FB00238DF80F30BF
:103D60009DF80F30002B0ED0019B1B69002B03D058
:103D700001238DF80F3006E014492E2011F014FBBA
:103D800000238DF80F309DF80F30002B0AD0019BD7
:103D90009B68002B06D10E492E2011F005FB002355
:103DA0008DF80F309DF80F30184605B05DF804FB14
:103DB000DCAA0608E8AA0608FCAA06080CAB060856
:103DC00020AB06082CAB06083CAB06084CAB06083B
:103DD00060AB060884B0019000238DF80F300B4BC8
:103DE0001B68019A9A4208D3084B5B68019A9A4271
:103DF00006D201238DF80F3002E000238DF80F303A
:103E00009DF80F30184604B0704700BF00560708F1
:103E100000B589B00190009100238DF81F3005ABEB
:103E200000221A605A600D4B1B6805930B4B5B68B0
:103E30000693019B0393019A009B1344049303AAE6
:103E400005AB1146184619F0E1FA03468DF81F300C
:103E50009DF81F30184609B05DF804FBE091002082
:103E60008AB0039002910192009300238DF82730CD
:103E7000019B002B68D0009B002B65D00A9B002B78
:103E800062D001238DF82730009B00221A600A9B24
:103E900000221A60039B089300230793039B089357
:103EA0000023079335E0089B069300238DF8173015
:103EB000284B1B68069A9A4208D3264B5B68069AE1
:103EC0009A4206D201238DF8173002E000238DF8C4
:103ED00017309DF817308DF827309DF8273083F084
:103EE0000103DBB2002B1BD1089B1B78FF2B05D1F4
:103EF000009B1B685A1C009B1A6004E00A9B1B680D
:103F00005A1C0A9B1A60089B01330893079B0133D4
:103F10000793039A029B1344089A9A42C3D300E082
:103F200000BF0A9B1B68642202FB03F307EE903A72
:103F3000F8EE676A029B07EE903AB8EE677AC6EE33
:103F4000877A019BC3ED007A9DF8273018460AB0A6
:103F5000704700BF0056070800B585B0019000917A
:103F600000238DF80F30019B002B39D00198FFF70B
:103F70006FFE03468DF80F309DF80F30012B00D0F7
:103F8000FEE79DF80F30002B2AD000238DF80F306C
:103F9000009B002B24D0019B1A68009B1A60019B98
:103FA0005A68009B5A60019B9A68009B9A60019B2B
:103FB000DA68009BDA60019B1A69009B1A61019B19
:103FC0009A69009B9A61019BDA69009BDA61019B07
:103FD00093F82020009B83F8202001238DF80F30D8
:103FE0009DF80F30184605B05DF804FB00B585B0AC
:103FF0000190009100238DF80F30019BFF22009962
:1040000018460BF011FD03468DF80F309DF80F3068
:10401000184605B05DF804FB84B00190019B039342
:1040200000238DF80B300B4B1B68039A9A4208D380
:10403000084B5B68039A9A4206D201238DF80B3035
:1040400002E000238DF80B309DF80B30184604B0C9
:10405000704700BF0056070800B589B00390029171
:10406000002306930023059300238DF81F304FF0A3
:1040700000030493039806A904AA05AB00930B461A
:104080000299FFF7EDFE03468DF81F30069B029A5A
:104090009A4203D101238DF81F3002E000238DF8EE
:1040A0001F309DF81F30184609B05DF804FB000072
:1040B00000B587B00190009100238DF817301A49A0
:1040C000019A13465B0013449B000B441B68049346
:1040D0001549019A13465B0013449B000B44196871
:1040E0001148019A13465B0013449B0003440433B8
:1040F0001B680B44043B0393049A009B9A420CD820
:10410000009A039B9A4208D8009B019A07492E20E7
:1041100011F010F901238DF817309DF8173018466B
:1041200007B05DF804FB00BF7055070884AB0608B4
:1041300000B589B0019000238DF81F30019B0493D6
:1041400000238DF80F30364B1B68049A9A4208D32F
:10415000334B5B68049A9A4206D201238DF80F30E4
:1041600002E000238DF80F309DF80F308DF81F30DE
:104170009DF81F30002B4CD0019A2A492E2011F0B7
:104180007FF800230693FDF781FA059000238DF850
:104190001F300023069338E000238DF81F3022499A
:1041A000069A13465B0013449B000B4409331B78AB
:1041B000032B04D0032B25DB053B012B22D8019BCD
:1041C00019460698FFF774FF03468DF81F309DF8D7
:1041D0001F30002B15D01449069A13465B00134478
:1041E0009B000B4409331B78184600F0F9F803468E
:1041F000019A0E492E2011F09DF8059B5B00069355
:1042000000E000BF069B01330693069A059B9A4285
:10421000C2D39DF81F30184609B05DF804FB00BFFB
:104220000056070894AB060870550708A0AB0608AF
:1042300000B58BB003900291019200238DF82730D6
:10424000019B039A25492E2011F01AF80199039831
:10425000FFF7DEFD03468DF827309DF82730002B51
:1042600036D000230893039B07930023089329E08B
:10427000079B069300238DF81730194B1B68069A8D
:104280009A4208D3164B5B68069A9A4206D20123DB
:104290008DF8173002E000238DF817309DF81730A5
:1042A0008DF827309DF82730002B10D0029A089BFC
:1042B0001344079A12781A70079B01330793089BDF
:1042C00001330893089A019B9A42D1D300E000BFC2
:1042D0009DF8273018460BB05DF804FBC4AB060808
:1042E0000056070884B003460A468DF80730134687
:1042F0008DF8063000238DF80F3000238DF80E3036
:104300009DF90730DB435AB29DF9063013405BB28A
:104310008DF80E309DF80E30002B03D000238DF861
:104320000F3002E001238DF80F309DF80F30184652
:1043300004B0704700B58BB0059004910392002340
:104340008DF82730049B002B41D0039B002B3ED0DF
:1043500000230893002307930023089328E0089A7A
:10436000059B13440693069B1878049A089B1344F4
:104370001B781946FFF7B6FF03468DF827309DF8E6
:104380002730002B03D0079B013307930DE0069BDA
:104390001B781946049A089B13441B7800930B461C
:1043A000089A0E492E2010F0FFFF089B0133089356
:1043B000089A039B9A42D2D3039A079B9A4203D14D
:1043C00001238DF8273002E000238DF827309DF877
:1043D000273018460BB05DF804FB00BFE0AB0608C1
:1043E00084B003468DF80730184B03939DF80730CF
:1043F000062B26D801A252F823F000BF3144010851
:10440000374401083D4401082544010819440108C6
:104410001F4401082B4401080D4B039311E00D4B81
:1044200003930EE00C4B03930BE00C4B039308E05B
:104430000B4B039305E00B4B039302E00A4B0393F2
:1044400000BF039B184604B0704700BF08AC0608C5
:104450000CAC060818AC060824AC06082CAC060800
:1044600038AC06083CAC06084CAC060800B5ADB04C
:10447000039000238DF8AF304FF48012039BB2FB02
:10448000F3F326934FF480130093039B269A4E492F
:104490002E2010F04FFF4D4B1B6806224C4918464A
:1044A00011F07CF90023259300232A930023249301
:1044B00000232993002328934FF0006327934FF0A4
:1044C0000003239300232A936CE005AB7C221A801F
:1044D00005AA05A8279B009313463E4A78214EF073
:1044E0007BFA05AA05A8039B009313463A4A782154
:1044F0004EF072FA289A039B1344289300232493C6
:10450000002325934FF000032393279825A923AA7E
:1045100024AB00930B460399FFF7A2FC03468DF8EA
:10452000AF309DF8AF30002B18D0249B05AA05A80A
:1045300000931346284A78214EF04EFA239B1846E2
:10454000FBF7C2FF02460B4605A905A8CDE90023EB
:104550000B46224A78214EF03FFA03E020492E20F4
:1045600010F022FF289B9B0A05AA05A8009313467A
:10457000194A78214EF030FA29991A4811F058F961
:1045800005AB1946184811F053F9299B01332993BB
:10459000279A039B1344279301238DF8AF302A9B5E
:1045A00001332A932A9A269B9A428ED3074B1B6883
:1045B00006220749184611F019F89DF8AF30184641
:1045C0002DB05DF804FB00BF5CAC0608A00600201F
:1045D0005C56070894AC0608A0AC0608ACAC06080C
:1045E000B8AC0608C0AC0608C8AC060800B585B073
:1045F0000190009100238DF80F30019B02930099E8
:1046000002980BF0FBFC03468DF80F30044811F0C4
:104610000FF99DF80F30184605B05DF804FB00BF98
:1046200010AD060800B585B00190009100238DF80B
:104630000F304FF4806302931E492E2010F07AFE53
:10464000019B002B05DB4FF48043029301238DF87F
:104650000F30019B002B09DD009B1B6802AA11464D
:1046600018460CF050FE03468DF80F309DF80F30C1
:10467000002B14D0029B1846FFF7F8FE03468DF876
:104680000F309DF80F30002B04D00B492E2010F076
:1046900051FE08E009492E2010F086FE03E008498B
:1046A0002E2010F081FE9DF80F30184605B05DF801
:1046B00004FB00BF40AD06085CAD060868AD060807
:1046C00078AD060800B587B00190009100238DF801
:1046D00017300023049300230393019B002B17DD65
:1046E000009B1B6804AA114618460CF00CFE0346FA
:1046F0008DF817309DF8173083F00103DBB2002BE3
:1047000006D0009B1B681A4624492E2010F04CFE50
:10471000019B012B19DD009B04331B6803AA114682
:1047200018460CF0F0FD03468DF817309DF8173051
:1047300083F00103DBB2002B07D0009B04331B681E
:104740001A4617492E2010F02FFE9DF81730002B27
:1047500019D000238DF81730049B039A1146184690
:1047600005F030FE03468DF817309DF81730002B0A
:1047700004D00C492E2010F0DDFD08E00A492E205F
:1047800010F012FE03E009492E2010F00DFE9DF8F6
:104790001730184607B05DF804FB00BF90AD06085F
:1047A000A4AD0608B8AD0608C0AD0608CCAD060835
:1047B00000B589B00190009100238DF81F300023CF
:1047C000059300230493019B022B3CD101238DF818
:1047D0001F309DF81F30002B17D0009B1B6805AAC7
:1047E000114618460CF08FFD03468DF81F309DF8DA
:1047F0001F3083F00103DBB2002B06D0009B1B6847
:104800001A4632492E2010F0CFFD9DF81F30002BA4
:1048100019D0009B04331B6804AA114618460CF0FB
:1048200072FD03468DF81F309DF81F3083F00103A1
:10483000DBB2002B07D0009B04331B681A462449C7
:104840002E2010F0B1FD9DF81F30002B34D0059ABA
:10485000049B20492E2010F06DFD1F4810F0E8FF4A
:1048600000238DF80F3000230693002306931BE0EE
:1048700000238DF80F30059A069B13440DF10F01AC
:1048800001221846FFF7D4FC03468DF81F309DF82F
:104890001F30002B05D09DF80F3019460F4810F03F
:1048A000C7FF069B01330693049B069A9A42DFD307
:1048B000094810F0BDFF03E009492E2010F074FDF7
:1048C0009DF81F30184609B05DF804FBE4AD0608FA
:1048D00008AE060828AE060844AE060848AE06082C
:1048E00050AE060800B5C7B046ABA3F58A73186092
:1048F00046ABA3F58C73196000238DF817310023A4
:10490000ADF81431002344930023439303AB4FF4D9
:104910008072FF2118464DF0A3FC46ABA3F58A73C5
:104920001B68002B32DD46ABA3F58C731B681B683C
:1049300044AA114618460CF0E6FC03468DF81731E0
:104940009DF8173183F00103DBB2002B0AD046AB90
:10495000A3F58C731B681B681A4661492E2010F062
:1049600023FD13E0449B1846FFF734FA03468DF805
:1049700017319DF8173183F00103DBB2002B05D00E
:10498000449B1A4657492E2010F00EFD46ABA3F566
:104990008A731B68012B20DD46ABA3F58C731B6863
:1049A0000433186843AB03A94FF480720DF0DDFFA8
:1049B00003468DF817319DF8173183F00103DBB200
:1049C000002B0AD046ABA3F58C731B6804331B681D
:1049D0001A4645492E2010F0E7FC46ABA3F58A7332
:1049E0001B68022B42DD46ABA3F58C731B680833B2
:1049F0001B6845AA114618460CF0C8FE03468DF800
:104A000017319DF8173183F00103DBB2002B0BD077
:104A100046ABA3F58C731B6808331B681A463349F1
:104A20002E2010F0C1FC21E046ABA3F587730022D5
:104A30001A804399BDF814210DF10A0303A818F058
:104A40004BFE03468DF817319DF8173183F00103B3
:104A5000DBB2002B0AD0BDF814311A4646ABA3F5E1
:104A600087731B8822492E2010F09EFC46ABA3F5CD
:104A70008A731B68032B0FDD1E492E2010F094FC57
:104A80001D492E2010F056FC1C492E2010F052FC1F
:104A90001B492E2010F04EFC9DF81731002B18D02A
:104AA00000238DF81731449B439A03A9184605F05B
:104AB0007FFB03468DF817319DF81731002B04D08A
:104AC00010492E2010F036FC03E00F492E2010F084
:104AD0006BFC9DF81731184647B05DF804FB00BF2A
:104AE00074AE060898AE0608B0AE0608D0AE06084A
:104AF000F0AE060814AF060844AF060854AF060827
:104B00006CAF060878AF060888AF060800B589B014
:104B10000390029100238DF81F30039B002B03D1DB
:104B200001238DF81F3003E023492E2010F03CFCB8
:104B30009DF81F30002B39D04FF00003069300235F
:104B40000593002304934FF000611C4810F070FEA1
:104B50004FF480111A4810F06BFE05A906AA04ABA9
:104B600000930B464FF480114FF0006025F008F9D8
:104B700003468DF81F309DF81F30002B16D0069B82
:104B80001846FBF7A1FC02460B460E4810F050FEFB
:104B90000599059B9B0A1A460B4810F049FE04999B
:104BA000049B9B0A1A46094810F042FE9DF81F30EC
:104BB000184609B05DF804FB9CAF0608A8AF0608CC
:104BC000BCAF0608D4AF0608E4AF060800B006087C
:104BD00000B585B00190009100238DF80F30019B46
:104BE000002B05D105F072FA03468DF80F3003E073
:104BF00004492E2010F0D8FB9DF80F30184605B060
:104C00005DF804FB1CB0060800B585B0019000916A
:104C100000238DF80F3000238DF80D3000238DF820
:104C20000E3000238DF80C30019B1B680DF10D0236
:104C3000114618460CF033FE03468DF80F309DF8F0
:104C40000F3083F00103DBB2002B07D0019B1B6800
:104C50001A4643491E2010F0A7FB15E09DF80E30C0
:104C600001338DF80E309DF80D301A463D491E2057
:104C700010F060FB9DF80D3003F00F03D9B2009ADD
:104C8000137861F307131370019B04331B6803AAA5
:104C9000114618460CF003FE03468DF80F309DF8C0
:104CA0000F3083F00103DBB2002B08D0019B0433EB
:104CB0001A680F232C491E2010F076FB2CE09DF87B
:104CC0000E3001338DF80E309DF80C301A4627490E
:104CD0001E2010F02FFB9DF80C300F2B11D89DF8E3
:104CE0000C301A4622491E2010F024FB9DF80C308F
:104CF00003F00F03D9B2009A137861F30303137022
:104D00000AE000238DF80F309DF80C301A460F236F
:104D100018491E2010F048FB9DF80E30022B11D1CF
:104D20009DF80F30002B0DD0009B187800F0BCFAD6
:104D300003461A4610491E2010F0FCFA01238DF894
:104D40000F3006E00D491E2010F02EFB00238DF8D9
:104D50000F309DF80F30184605B05DF804FB00BF1A
:104D600028B006083CB006084CB0060868B0060833
:104D700078B0060884B0060898B00608A4B0060803
:104D800000B587B003468DF80730194B059334F012
:104D9000E5F8039000238DF8133000238DF81330CD
:104DA0001BE09DF81330134A4C2101FB03F313441D
:104DB00004331B789DF807209A4209D19DF81330DF
:104DC0004C2202FB03F330330A4A1344059309E0F3
:104DD0009DF8133001338DF813309DF81330039A8A
:104DE0009A42DED8059B184607B05DF804FB00BF69
:104DF000B4B00608B086070800B587B003468DF842
:104E0000073000238DF8173000230493002302930A
:104E10000023039334F0A2F802900023049324E0CB
:104E2000204A049B4C2101FB03F3134404331B78F9
:104E30009DF807209A4215D1039B01330393039BEE
:104E4000012B0FD9174A049B4C2101FB03F3134498
:104E50000433187800F028FA0346049A12491E20F9
:104E600010F0A2FA049B01330493049A029B9A4225
:104E7000D6D3039B012B03D801238DF8173007E00D
:104E8000039A0A491E2010F08FFA00238DF817307C
:104E9000039B012B00D9FEE79DF81730184607B099
:104EA0005DF804FBB0860708B8B00608D0B0060865
:104EB00084B003468DF807300B468DF80630134654
:104EC0008DF8053000238DF80F309DF80F3018460F
:104ED00004B0704784B08DF80400009100238DF871
:104EE0000F309DF80F30184604B0704700B585B0FC
:104EF00000238DF80F3028491E2010F038FA05F0F5
:104F000061FF002302930023019334F027F80090FF
:104F10000023029327E0029B4C2202FB03F31F4A6B
:104F20001344184606F0BEFB03468DF80F309DF87B
:104F30000F30002B03D0019B0133019310E0174A7F
:104F4000029B4C2101FB03F3134404331B781846E6
:104F500000F072F903461A4611491E2010F024FA97
:104F6000029B01330293029A009B9A42D3D3009A88
:104F7000019B9A4203D101238DF80F3005E0009B7D
:104F8000019A08491E2010F00FFA9DF80F301846BC
:104F900005B05DF804FB00BF30B10608B086070815
:104FA00038B1060844B1060882B003460A468DF8B7
:104FB000073013468DF806300023184602B07047BC
:104FC00084B003468DF8073002238DF80F309DF82A
:104FD0000730002B02D0012B04D007E001238DF80D
:104FE0000F3003E000238DF80F3000BF9DF80F3025
:104FF000184604B0704700B585B003468DF80730F9
:1050000000238DF80F309DF807308DF80C30022307
:105010008DF80B309DF80C300DF10B02114618463F
:1050200006F0D8F803468DF80F309DF80F30002BAE
:1050300012D09DF80B301846FFF7C2FF03468DF8DB
:105040000E309DF80C309DF80E201146184606F0E3
:1050500001F903468DF80F309DF80F30184605B062
:105060005DF804FB84B003468DF8073000238DF80B
:105070000F309DF80730013B082B03D801238DF832
:105080000F3003E001238DF80F3000BF9DF80F3083
:10509000184604B07047000084B003468DF807300E
:1050A000124B03939DF80730032B17D801A252F837
:1050B00023F000BFD7500108D1500108CB500108A0
:1050C000C55001080A4B03930BE00A4B039308E019
:1050D000094B039305E0094B039302E0034B039351
:1050E00000BF039B184604B0704700BF5CB10608C0
:1050F00060B1060868B106086CB1060870B1060810
:1051000084B003468DF807301A4B03939DF807309F
:10511000072B2BD801A252F823F000BF67510108DA
:1051200043510108495101084F51010855510108E7
:105130005B510108615101083D5101080E4B039379
:1051400014E00E4B039311E00D4B03930EE00D4B57
:1051500003930BE00C4B039308E00C4B039305E027
:105160000B4B039302E0034B039300BF039B1846D2
:1051700004B070475CB1060878B106086CB1060847
:105180007CB1060884B106088CB1060890B1060807
:1051900094B1060884B003468DF807301D4B039385
:1051A0009DF80730082B30D801A252F823F000BF39
:1051B00005520108D5510108DB510108E1510108F0
:1051C000E7510108ED510108F3510108F9510108B7
:1051D000FF510108104B039317E0104B039314E0A9
:1051E0000F4B039311E00F4B03930EE00E4B039311
:1051F0000BE00E4B039308E00D4B039305E00D4BC2
:10520000039302E0034B039300BF039B184604B0D3
:10521000704700BF5CB106089CB10608A4B106083F
:10522000ACB10608B4B1060878B106086CB106083E
:1052300060B10608BCB1060800B587B003468DF81A
:105240000F309DF80F308DF814309DF80F30184650
:1052500006F00DFA0346002B15D09DF81430C3F369
:105260000313DBB2184606F0C3FA02469DF8143069
:10527000C3F30303DBB200931346084A082108482E
:105280004DF0AAFB04E0074A082105484DF0A4FBB5
:10529000034B184607B05DF804FB00BFC0B1060819
:1052A00038920020C8B1060800B585B08DF80C0012
:1052B0009DF80C30184606F0DAF90346002B15D09D
:1052C0009DF80C30C3F30313DBB2184606F090FAD6
:1052D00002469DF80C30C3F30303DBB20093134680
:1052E000074A082107484DF077FB04E0064A0821E9
:1052F00004484DF071FB034B184605B05DF804FB04
:10530000C0B1060840920020C8B1060884B0034628
:105310008DF80730084B03939DF80730002B04D01D
:10532000012B05D1054B039302E0054B039300BF0E
:10533000039B184604B070475CB10608CCB1060860
:10534000D0B1060884B003468DF80730104B0393A4
:105350009DF80730013B032B16D801A252F823F029
:1053600071530108775301087D53010883530108E5
:10537000084B039308E0084B039305E0074B0393A6
:1053800002E0074B039300BF039B184604B070472D
:105390005CB10608D4B10608DCB10608E0B1060825
:1053A000E4B1060810B584B003468DF80730184BF9
:1053B000039300238DF80B3000238DF80B301BE096
:1053C0009DF80B30134A4C2101FB03F313440433C3
:1053D0001B789DF807209A4209D19DF80B304C228A
:1053E00002FB03F30B4A1344073303930BE09DF8CE
:1053F0000B3001338DF80B309DF80B4033F0AEFDD0
:1054000003469C42DCD3039B184604B010BD00BF8A
:105410005CB10608B086070810B584B00190009111
:1054200000238DF80F3000238DF80C3000238DF809
:105430000B30019B012B07DD03AB19460098FFF7EA
:10544000E3FB03468DF80F30019B022B1ADD009B16
:1054500008331B680DF10B02114618460CF01FFAB9
:1054600003468DF80F309DF80F3083F00103DBB257
:10547000002B07D0009B08331B681A463A491E20B0
:105480000FF092FF9DF80F30002B64D0019B022B90
:1054900003D0019B032B1AD061E09DF80C30184615
:1054A00005F0F0FD03468DF80B309DF80C301846E2
:1054B000FFF7C2FE04469DF80B301846FFF720FEAA
:1054C0000346224629491E200FF034FF47E09DF88D
:1054D0000C301846FFF7B0FE04469DF80B30184616
:1054E000FFF70EFE0346224621491E200FF03FFF24
:1054F0009DF80C309DF80B2011461846FFF754FD1F
:1055000003468DF80F309DF80F30002B11D09DF819
:105510000C301846FFF790FE04469DF80B301846F5
:10552000FFF7EEFD0346224612491E200FF002FF50
:1055300015E09DF80C301846FFF77EFE04469DF8F6
:105540000B301846FFF7DCFD034622460A491E20B1
:105550000FF02AFF03E009491E200FF025FF9DF8F8
:105560000F30184604B010BDC8B20608DCB20608F9
:10557000F0B2060804B3060814B3060824B30608FC
:1055800000B585B00190009100238DF80F30FF2306
:105590008DF80E3000238DF80C30019B012B07DDB8
:1055A00003AB19460098FFF72FFB03468DF80F3029
:1055B0009DF80F30002B22D09DF80C300DF10E021B
:1055C0001146184605F006FE03468DF80F309DF88B
:1055D0000F3083F00103DBB2002B04D012491E20F0
:1055E0000FF0E2FE0BE09DF80C301846FFF724FEAA
:1055F00002469DF80E300D491E200FF09BFE019BC8
:10560000022B0BD00A491E200FF0CEFE09491E20A6
:105610000FF090FE08491E200FF08CFE9DF80F3011
:10562000184605B05DF804FB3CB306084CB3060809
:1056300054B3060868B3060878B3060830B587B0D7
:105640000390029100238DF8173005238DF8153053
:1056500000238DF81430039B012B07DD05AB1946A1
:105660000298FFF7D1FA03468DF81730039B022BFF
:105670001ADD029B08331B680DF11502114618460E
:105680000CF00DF903468DF817309DF8173083F0B4
:105690000103DBB2002B07D0029B08331B681A46BC
:1056A0003B491E200FF080FE9DF81730002B57D08D
:1056B000039B022B03D0039B032B1ED063E09DF8BA
:1056C0001430184605F0D4FE03468DF816309DF8C8
:1056D00014301846FFF7B0FD05469DF816409DF8BA
:1056E00016301846FFF72EFE0346009323462A463F
:1056F00028491E200FF01EFE45E09DF814309DF84D
:1057000015201146184605F013FF03468DF8173093
:105710009DF81730002B11D09DF814301846FFF774
:105720008BFD04469DF815301846FFF70BFE034627
:10573000224619491E200FF0FDFD24E09DF814308B
:105740001846FFF779FD04469DF815301846FFF717
:10575000F9FD0346224611491E200FF025FE12E0F6
:105760000F491E200FF020FE0E491E200FF0E2FD13
:105770000D491E200FF0DEFD0C491E200FF0DAFD52
:1057800000238DF817309DF81730184607B030BD4C
:1057900088B30608A0B30608C0B30608DCB3060841
:1057A000FCB3060814B4060878B3060828B4060843
:1057B00000B585B00190009100238DF80F300023D3
:1057C0008DF80C30019B012B07DD03AB19460098C7
:1057D000FFF71AFA03468DF80F30019B022B1ADDF2
:1057E000009B08331B680DF10E02114618460CF0A1
:1057F00056F803468DF80F309DF80F3083F0010303
:10580000DBB2002B07D0009B08331B681A462949DE
:105810001E200FF0C9FD019B022B12DC26491E2021
:105820000FF0C2FD25491E200FF084FD24491E20E3
:105830000FF080FD23491E200FF07CFD00238DF822
:105840000F309DF80F30002B2ED09DF80C301846ED
:10585000FFF7F2FC02469DF80E301B491E200FF0A8
:1058600069FD9DF80C309DF80E201146184605F094
:10587000F1FC03468DF80F309DF80F3083F00103E3
:10588000DBB2002B04D011491E200FF08DFD0BE080
:105890009DF80C301846FFF7CFFC02469DF80E30FD
:1058A0000B491E200FF046FD9DF80F30184605B03D
:1058B0005DF804FB48B4060860B406087CB406082A
:1058C00078B3060888B4060894B40608A0B406089D
:1058D000BCB4060800B5AFB00390029100238DF868
:1058E000B7300023ADF8B430B44B1B680B22B44979
:1058F00018460FF053FF02238DF8AC3000238DF8CB
:10590000B33033F02BFB0346ADF8B03000238DF8F5
:10591000B3303DE19DF8B330AA4A4C2101FB03F3BB
:1059200013441B79C3F30313DBB2082B00F02B8164
:105930009DF8B330A34A4C2101FB03F31344043315
:105940001B78184605F09EFB03468DF8AF309DF896
:10595000B3309C4A4C2101FB03F3134404331B78FE
:10596000184605F085FD03468DF8AE3004238DF80A
:1059700013309DF8B3300DF1130292494C2000FB17
:1059800003F30B44043311461878FFF7A3FA0346D8
:105990008DF8B7309DF8B3308A4A4C2101FB03F3F0
:1059A000134404331B78184605F03AFD03468DF87E
:1059B000AD3000238DF812309DF8B330814A4C2170
:1059C00001FB03F313441B79C3F30313DBB2184643
:1059D0009DF8B3307B4A4C2101FB03F313441B7940
:1059E000C3F30303DBB219460DF112031A4605F0A7
:1059F000D8FC03468DF8B73005AB7C221A80022311
:105A00008DF8AC309DF8B3306E4A4C2101FB03F3A6
:105A1000134404331B782BAA1146184605F0DAFB11
:105A20009DF8B330674A4C2101FB03F31344043360
:105A30001B781846FFF700FC024605AB05A800924C
:105A4000614A96214CF0C8FF9DF8AD301846FFF72B
:105A5000A1FB024605AB05A800925C4A96214CF0DA
:105A6000BBFF9DF8AC301846FFF750FC024605AB73
:105A700005A80092564A96214CF0AEFF9DF81330CF
:105A80001846FFF709FB024605AB05A800924F4AEE
:105A900096214CF0A1FF9DF8AF301846FFF730FB80
:105AA000024605AB05A800924A4A96214CF094FFA5
:105AB0009DF8AE301846FFF745FC024605AB05A839
:105AC0000092444A96214CF087FF9DF8B3303D4A3E
:105AD0004C2101FB03F313441B6805AA05A800939E
:105AE00013463D4A96214CF077FF9DF812301A4636
:105AF00005AB05A80092384A96214CF06DFF9DF841
:105B0000B330304A4C2101FB03F3134404331B78B8
