:020000040800F2
:1000000000C001203D64050805E50108CFE50108B1
:10001000D1E50108D3E50108D5E50108000000009D
:10002000000000000000000000000000D7E501080B
:10003000DFE5010800000000DBE50108EDE501084F
:100040006BE50108CBE50108BFE50108C3E5010840
:10005000B3E501086FE501084FE6010853E6010822
:1000600057E601085BE601085FE60108BBE5010809
:1000700077E501087BE501087FE5010883E50108D4
:1000800087E501088BE5010873E5010807E501082C
:1000900013E501081FE501082BE5010863E60108E7
:1000A000B7E6010873E6010877E601087BE6010878
:1000B0007FE601088BE601088FE60108BFE601082C
:1000C000BBE60108C7E60108C3E60108E1E501084F
:1000D000E5E50108FFE5010821E6010843E601081E
:1000E00067E601088D640508C7E50108ABE601086D
:1000F000A7E60108B3E60108AFE601088FE50108AD
:1001000067E50108FBE5010893E60108E9E5010858
:100110008D64050847E601089FE60108A3E601088B
:1001200093E5010897E501089BE501089FE50108B3
:10013000A3E501088D6405088D64050837E501080D
:1001400043E501085BE501084FE50108DBE601082E
:10015000A7E50108ABE50108AFE501084BE601089A
:10016000CBE60108CFE601086BE601086FE601085F
:100170008D640508D7E601088D64050800000000BD
:10018000D3E60108B7E50108FFFFFFFFFFFFFFFF10
:10019000FFFFFFFFFFFFFFFFFFFFFFFFFFFFFFFF6F
:1001A000FFFFFFFFFFFFFFFFFFFFFFFFFFFFFFFF5F
:1001B000FFFFFFFFFFFFFFFFFFFFFFFFFFFFFFFF4F
:1001C000FFFFFFFFFFFFFFFFFFFFFFFFFFFFFFFF3F
:020000040801F1
:1000000010B5054C237833B9044B13B10448AFF352
:1000100000800123237010BDD0720020000000007A
:1000200030FE050808B5034B1BB103490348AFF385
:10003000008008BD00000000D472002030FE0508DA
:1000400081F0004102E000BF83F0004330B54FEA89
:1000500041044FEA430594EA050F08BF90EA020FF6
:100060001FBF54EA000C55EA020C7FEA645C7FEA89
:10007000655C00F0E2804FEA5454D4EB5555B8BFAC
:100080006D420CDD2C4480EA020281EA030382EA1D
:10009000000083EA010180EA020281EA0303362DAF
:1000A00088BF30BD11F0004F4FEA01314FF4801C82
:1000B0004CEA113102D0404261EB410113F0004F94
:1000C0004FEA03334CEA133302D0524263EB43034B
:1000D00094EA050F00F0A780A4F10104D5F1200EE9
:1000E0000DDB02FA0EFC22FA05F2801841F1000144
:1000F00003FA0EF2801843FA05F359410EE0A5F118
:1001000020050EF1200E012A03FA0EFC28BF4CF048
:10011000020C43FA05F3C01851EBE37101F00045FE
:1001200007D54FF0000EDCF1000C7EEB00006EEB0B
:100130000101B1F5801F1BD3B1F5001F0CD3490895
:100140005FEA30004FEA3C0C04F101044FEA4452EC
:1001500012F5800F80F09A80BCF1004F08BF5FEA73
:10016000500C50F1000041EB045141EA050130BD53
:100170005FEA4C0C404141EB0101013C28BFB1F565
:10018000801FE9D291F0000F04BF01460020B1FAB0
:1001900081F308BF2033A3F10B03B3F120020CDA83
:1001A0000C3208DD02F1140CC2F10C0201FA0CF061
:1001B00021FA02F10CE002F11402D8BFC2F1200CC6
:1001C00001FA02F120FA0CFCDCBF41EA0C0190407C
:1001D000E41AA2BF01EB0451294330BD6FEA0404C5
:1001E0001F3C1CDA0C340EDC04F11404C4F12002B0
:1001F00020FA04F001FA02F340EA030021FA04F3C2
:1002000045EA030130BDC4F10C04C4F1200220FA18
:1002100002F001FA04F340EA0300294630BD21FA56
:1002200004F0294630BD94F0000F83F4801306BF1C
:1002300081F480110134013D4EE77FEA645C18BF10
:100240007FEA655C29D094EA050F08BF90EA020FA7
:1002500005D054EA000C04BF1946104630BD91EA9F
:10026000030F1EBF0021002030BD5FEA545C05D1A2
:100270004000494128BF41F0004130BD14F58004E1
:100280003CBF01F5801130BD01F0004545F0FE4155
:1002900041F470014FF0000030BD7FEA645C1ABF8A
:1002A000194610467FEA655C1CBF0B46024650EAC1
:1002B000013406BF52EA033591EA030F41F40021ED
:1002C00030BD00BF90F0000F04BF0021704730B573
:1002D0004FF4806404F132044FF000054FF0000148
:1002E00050E700BF90F0000F04BF0021704730B509
:1002F0004FF4806404F1320410F0004548BF4042DE
:100300004FF000013EE700BF42004FEAE2014FEA32
:1003100031014FEA02701FBF12F07F4393F07F4F0D
:1003200081F06051704732F07F4208BF704793F010
:100330007F4F04BF41F40021704730B54FF4607423
:1003400001F0004521F000411CE700BF50EA010226
:1003500008BF704730B54FF000050AE050EA0102CF
:1003600008BF704730B511F0004502D5404261EB3F
:1003700041014FF4806404F132045FEA915C3FF480
:10038000D8AE4FF003025FEADC0C18BF03325FEA1D
:10039000DC0C18BF033202EBDC02C2F1200300FACE
:1003A00003FC20FA02F001FA03FE40EA0E0021FAF3
:1003B00002F11444BDE600BF70B54FF0FF0C4CF4E1
:1003C000E06C1CEA11541DBF1CEA135594EA0C0F93
:1003D00095EA0C0F00F0DEF82C4481EA030621EACE
:1003E0004C5123EA4C5350EA013518BF52EA033509
:1003F00041F4801143F4801338D0A0FB02CE4FF0BB
:100400000005E1FB02E506F00042E0FB03E54FF0EA
:100410000006E1FB03569CF0000F18BF4EF0010EE2
:10042000A4F1FF04B6F5007F64F5407404D25FEADE
:100430004E0E6D4146EB060642EAC62141EA555191
:100440004FEAC52040EA5E504FEACE2EB4F1FD0CD3
:1004500088BFBCF5E06F1ED8BEF1004F08BF5FEA51
:10046000500E50F1000041EB045170BD06F0004603
:1004700046EA010140EA020081EA0301B4EB5C04B0
:10048000C2BFD4EB0C0541EA045170BD41F48011A8
:100490004FF0000E013C00F3AB8014F1360FDEBFCD
:1004A000002001F0004170BDC4F10004203C35DAA9
:1004B0000C341BDC04F11404C4F1200500FA05F32C
:1004C00020FA04F001FA05F240EA020001F00042CD
:1004D00021F0004110EBD37021FA04F642EB060143
:1004E0005EEA430E08BF20EAD37070BDC4F10C046D
:1004F000C4F1200500FA04F320FA05F001FA04F231
:1005000040EA020001F0004110EBD37041F100011C
:100510005EEA430E08BF20EAD37070BDC4F1200527
:1005200000FA05F24EEA020E20FA04F301FA05F28F
:1005300043EA020321FA04F001F0004121FA04F237
:1005400020EA020000EBD3705EEA430E08BF20EA07
:10055000D37070BD94F0000F0FD101F00046400041
:1005600041EB010111F4801F08BF013CF7D041EAC3
:10057000060195F0000F18BF704703F000465200C7
:1005800043EB030313F4801F08BF013DF7D043EA98
:100590000603704794EA0C0F0CEA135518BF95EA4E
:1005A0000C0F0CD050EA410618BF52EA4306D1D1D5
:1005B00081EA030101F000414FF0000070BD50EAF4
:1005C000410606BF1046194652EA430619D094EA7E
:1005D0000C0F02D150EA013613D195EA0C0F05D168
:1005E00052EA03361CBF104619460AD181EA0301BC
:1005F00001F0004141F0FE4141F470014FF0000074
:1006000070BD41F0FE4141F4780170BD70B54FF00E
:10061000FF0C4CF4E06C1CEA11541DBF1CEA13558E
:1006200094EA0C0F95EA0C0F00F0A7F8A4EB050470
:1006300081EA030E52EA03354FEA013100F0888067
:100640004FEA03334FF0805545EA131343EA126330
:100650004FEA022245EA111545EA10654FEA0026E5
:100660000EF000419D4208BF964244F1FD0404F59E
:10067000407402D25B084FEA3202B61A65EB0305FA
:100680005B084FEA32024FF480104FF4002CB6EBB7
:10069000020E75EB030E22BFB61A754640EA0C0037
:1006A0005B084FEA3202B6EB020E75EB030E22BF77
:1006B000B61A754640EA5C005B084FEA3202B6EBB8
:1006C000020E75EB030E22BFB61A754640EA9C0077
:1006D0005B084FEA3202B6EB020E75EB030E22BF47
:1006E000B61A754640EADC0055EA060E18D04FEA05
:1006F000051545EA16754FEA06164FEAC30343EAA5
:1007000052734FEAC2025FEA1C1CC0D111F4801F71
:100710000BD141EA00014FF000004FF0004CB6E76A
:1007200011F4801F04BF01430020B4F1FD0C88BF09
:10073000BCF5E06F3FF6AFAEB5EB030C04BFB6EB14
:10074000020C5FEA500C50F1000041EB045170BD07
:100750000EF0004E4EEA113114EB5C04C2BFD4EB34
:100760000C0541EA045170BD41F480114FF0000EB8
:10077000013C90E645EA060E8DE60CEA135594EA34
:100780000C0F08BF95EA0C0F3FF43BAF94EA0C0F37
:100790000AD150EA01347FF434AF95EA0C0F7FF4AC
:1007A00025AF104619462CE795EA0C0F06D152EA00
:1007B00003353FF4FDAE1046194622E750EA4106E4
:1007C00018BF52EA43067FF4C5AE50EA41047FF4F5
:1007D0000DAF52EA43057FF4EBAE12E74FF0FF3C5A
:1007E00006E000BF4FF0010C02E000BF4FF0010C2B
:1007F0004DF804CD4FEA410C7FEA6C5C4FEA430CA4
:1008000018BF7FEA6C5C1BD001B050EA410C0CBFF2
:1008100052EA430C91EA030F02BF90EA020F002054
:10082000704710F1000F91EA030F58BF994208BFBB
:1008300090422CBFD8176FEAE37040F00100704778
:100840004FEA410C7FEA6C5C02D150EA013C07D1CF
:100850004FEA430C7FEA6C5CD6D152EA033CD3D01A
:100860005DF8040B704700BF8446104662468C4614
:100870001946634600E000BF01B5FFF7B7FF002847
:1008800048BF10F1000F01BD4DF808EDFFF7F4FF70
:100890000CBF012000205DF808FB00BF4DF808EDFB
:1008A000FFF7EAFF34BF012000205DF808FB00BF1E
:1008B0004DF808EDFFF7E0FF94BF012000205DF840
:1008C00008FB00BF4DF808EDFFF7CEFF94BF0120F5
:1008D00000205DF808FB00BF4DF808EDFFF7C4FFEE
:1008E00034BF012000205DF808FB00BF4FEA410C37
:1008F0007FEA6C5C02D150EA013C0AD14FEA430C1A
:100900007FEA6C5C02D152EA033C02D14FF0000056
:1009100070474FF0010070474FEA410212F5001294
:1009200015D211D56FF47873B3EB625212D94FEA36
:10093000C12343F0004343EA505311F0004F23FA20
:1009400002F018BF404270474FF00000704750EA75
:10095000013005D111F0004008BF6FF00040704732
:100960004FF00000704700BF4A0011D212F500128C
:1009700011D20DD56FF47873B3EB62520ED44FEAF7
:10098000C12343F0004343EA505323FA02F0704777
:100990004FF00000704750EA013002D14FF0FF30B5
:1009A00070474FF0000070474FEA4102B2F1E04358
:1009B00024BFB3F5001CDCF1FE5C0DD901F0004C46
:1009C0004FEAC0024CEA5070B2F1004F40EB830096
:1009D00008BF20F00100704711F0804F21D113F1C2
:1009E0003872BCBF01F00040704741F480114FEAFB
:1009F0005252C2F11802C2F1200C10FA0CF320FA84
:100A000002F018BF40F001004FEAC1234FEAD323A0
:100A100003FA0CFC40EA0C0023FA02F34FEA43030A
:100A2000CCE77FEA625307D150EA01331EBF4FF093
:100A3000FE4040F44000704701F0004040F0FE40AE
:100A400040F40000704700BF80F0004002E000BFAB
:100A500081F0004142001FBF5FEA410392EA030FA9
:100A60007FEA226C7FEA236C6AD04FEA1262D2EBF3
:100A70001363C1BFD218414048404140B8BF5B42F8
:100A8000192B88BF704710F0004F40F4000020F091
:100A90007F4018BF404211F0004F41F4000121F0A7
:100AA0007F4118BF494292EA030F3FD0A2F10102F1
:100AB00041FA03FC10EB0C00C3F1200301FA03F12F
:100AC00000F0004302D5494260EB4000B0F5000F52
:100AD00013D3B0F1807F06D340084FEA310102F111
:100AE0000102FE2A51D2B1F1004F40EBC25008BFC3
:100AF00020F0010040EA03007047490040EB00008D
:100B0000013A28BFB0F5000FEDD2B0FA80FCACF18D
:100B1000080CB2EB0C0200FA0CF0AABF00EBC250BA
:100B200052421843BCBFD0401843704792F0000FA8
:100B300081F4000106BF80F400000132013BB5E7FB
:100B40004FEA41037FEA226C18BF7FEA236C21D071
:100B500092EA030F04D092F0000F08BF08467047D6
:100B600090EA010F1CBF0020704712F07F4F04D1A4
:100B7000400028BF40F00040704712F100723CBFB7
:100B800000F50000704700F0004343F0FE4040F4E1
:100B9000000070477FEA226216BF08467FEA23639F
:100BA0000146420206BF5FEA412390EA010F40F48A
:100BB000800070474FF0000304E000BF10F00043D6
:100BC00048BF40425FEA000C08BF704743F09643BD
:100BD00001464FF000001CE050EA010208BF7047D8
:100BE0004FF000030AE000BF50EA010208BF70475F
:100BF00011F0004302D5404261EB41015FEA010C74
:100C000002BF84460146002043F0B64308BFA3F16B
:100C10008053A3F50003BCFA8CF2083AA3EBC2534D
:100C200010DB01FA02FC634400FA02FCC2F120026C
:100C3000BCF1004F20FA02F243EB020008BF20F0A3
:100C40000100704702F1200201FA02FCC2F1200209
:100C500050EA4C0021FA02F243EB020008BF20EAFE
:100C6000DC70704753B94AB9002908BF00281CBF7F
:100C70004FF0FF314FF0FF3000F0B2B9ADF1080C8A
:100C80006DE904CE00F044F8DDF804E0DDE902236C
:100C900004B07047D0B5FFF737FB0C4B0022064677
:100CA0000F46FFF789FBFFF75FFE0446FFF70AFBDD
:100CB000074B0022FFF780FB02460B4630463946C1
:100CC000FFF7C2F9FFF750FE2146D0BD0000F03D0E
:100CD0000000F041D0B50C4B002206460F46FFF74E
:100CE0006BFBFFF741FE0446FFF7ECFA074B0022CF
:100CF000FFF762FB02460B4630463946FFF7A4F980
:100D0000FFF732FE2146D0BD0000F03D0000F0416B
:100D10002DE9F047089D04468E46002B4DD18A42AE
:100D2000944669D9B2FA82F252B101FA02F3C2F1E1
:100D3000200120FA01F10CFA02FC41EA030E944072
:100D40004FEA1C48210CBEFBF8F61FFA8CF708FB93
:100D500016E341EA034306FB07F199420AD91CEB6B
:100D6000030306F1FF3080F01F81994240F21C819D
:100D7000023E63445B1AA4B2B3FBF8F008FB1033E5
:100D800044EA034400FB07F7A7420AD91CEB04041A
:100D900000F1FF3380F00A81A74240F207816444EA
:100DA000023840EA0640E41B00261DB1D44000236F
:100DB000C5E900433146BDE8F0878B4209D9002DD3
:100DC00000F0EF800026C5E9000130463146BDE85D
:100DD000F087B3FA83F6002E4AD18B4202D38242C7
:100DE00000F2F980841A61EB030301209E46002D76
:100DF000E0D0C5E9004EDDE702B9FFDEB2FA82F2CB
:100E0000002A40F09280A1EB0C014FEA1C471FFA28
:100E10008CFE0126200CB1FBF7F307FB131140EA0F
:100E200001410EFB03F0884208D91CEB010103F1DC
:100E3000FF3802D2884200F2CB804346091AA4B29E
:100E4000B1FBF7F007FB101144EA01440EFB00FE72
:100E5000A64508D91CEB040400F1FF3102D2A645D7
:100E600000F2BB800846A4EB0E0440EA03409CE776
:100E7000C6F12007B34022FA07FC4CEA030C20FA23
:100E800007F401FA06F31C43F9404FEA1C4900FA43
:100E900006F3B1FBF9F8200C1FFA8CFE09FB1811C0
:100EA00040EA014108FB0EF0884202FA06F20BD933
:100EB0001CEB010108F1FF3A80F08880884240F283
:100EC0008580A8F102086144091AA4B2B1FBF9F0C7
:100ED00009FB101144EA014100FB0EFE8E4508D9C2
:100EE0001CEB010100F1FF346CD28E456AD9023847
:100EF000614440EA0840A0FB0294A1EB0E01A1422C
:100F0000C846A64656D353D05DB1B3EB080261EB99
:100F10000E0101FA07F722FA06F3F1401F43C5E973
:100F2000007100263146BDE8F087C2F12003D840A9
:100F30000CFA02FC21FA03F3914001434FEA1C47EB
:100F40001FFA8CFEB3FBF7F007FB10360B0C43EADD
:100F5000064300FB0EF69E4204FA02F408D91CEB8D
:100F6000030300F1FF382FD29E422DD9023863448B
:100F70009B1B89B2B3FBF7F607FB163341EA03412B
:100F800006FB0EF38B4208D91CEB010106F1FF387A
:100F900016D28B4214D9023E6144C91A46EA004671
:100FA00038E72E46284605E70646E3E61846F8E603
:100FB0004B45A9D2B9EB020864EB0C0E0138A3E74C
:100FC0004646EAE7204694E74046D1E7D0467BE72D
:100FD000023B614432E7304609E76444023842E7A5
:100FE000704700BF844641EA000313F003036DD14C
:100FF000403A41D351F8043B40F8043B51F8043BDC
:1010000040F8043B51F8043B40F8043B51F8043BE2
:1010100040F8043B51F8043B40F8043B51F8043BD2
:1010200040F8043B51F8043B40F8043B51F8043BC2
:1010300040F8043B51F8043B40F8043B51F8043BB2
:1010400040F8043B51F8043B40F8043B51F8043BA2
:1010500040F8043B51F8043B40F8043B51F8043B92
:1010600040F8043B51F8043B40F8043B51F8043B82
:1010700040F8043B403ABDD2303211D351F8043B22
:1010800040F8043B51F8043B40F8043B51F8043B62
:1010900040F8043B51F8043B40F8043B103AEDD2D1
:1010A0000C3205D351F8043B40F8043B043AF9D222
:1010B000043208D0D2071CBF11F8013B00F8013BF5
:1010C00001D30B8803806046704700BF082A13D302
:1010D0008B078DD010F003038AD0C3F10403D21A1A
:1010E000DB071CBF11F8013B00F8013B80D331F84E
:1010F000023B20F8023B7BE7043AD9D3013A11F8CE
:10110000013B00F8013BF9D20B7803704B78437038
:101110008B7883706046704700000000000000007C
:10112000A2EB0300704700BF02780B78012A28BFAA
:101130009A42F5D16DE9044540EA0104CDE9026720
:101140006FF0000C4FEA447212B380EA010414F00D
:10115000070F6AD100F0070420F0070004F0030530
:1011600021F007014FEAC505F0E8042314F0040F4D
:10117000F1E804670CFA05F462EA040266EA040680
:101180000AD063EA0403624667EA0407664603E09E
:10119000F0E80423F1E8046782FA4CF582EA0604D9
:1011A000A4FA8CF46CBB83FA4CF583EA0705A5FA24
:1011B0008CF595B950E9022351E9026782FA4CF5A2
:1011C00082EA0604A4FA8CF483FA4CF583EA070554
:1011D000A5FA8CF52543DBD09CB92DBAB5FA85F478
:1011E00024F0070427FA04F1DDE9026723FA04F387
:1011F00003F0FF0001F0FF01FDE80445A0EB010052
:10120000704724BAB4FA84F424F0070426FA04F1EF
:10121000DDE9026722FA04F202F0FF0001F0FF01AB
:10122000FDE80445A0EB0100704714F0030F3CD12A
:1012300010F0030428D150F8082B51F8083B82FA2B
:101240004CF582EA0305A5FA8CF55DB950F8042C3B
:1012500051F8043C82FA4CF582EA0305A5FA8CF5B4
:10126000002DE8D02DBAB5FA85F424F0070423FA4E
:1012700004F122FA04F202F0FF0001F0FF01FDE8A0
:101280000445A0EB010070474FEAC40420F00300BE
:1012900050F8082B21F0030151F8083B0CFA04F434
:1012A00062EA040263EA0403C9E710F003041AD0F7
:1012B000A1EB040120F00300E40750F8042B06D052
:1012C0000FD28B785FFAA2F4E41A06D12BB1CB7857
:1012D0005FFAB2F4E41A00D11BB920465DF8104B56
:1012E000704701F1040150F8042BCC0721F00301F1
:1012F00051F8043B48D824D222F07F4482FA4CF5BE
:1013000094EA1325A5FA8CF50AD165B951F8043B86
:1013100084EA0204B4EB036F0ED150F8042BEBE720
:101320004FEA132355E035F07F454DD10878FDE8AD
:101330000445C0F1000070474FEA126203F0FF035A
:1013400047E002EA1C4482FA4CF594EA1345A5FAF8
:101350008CF50AD165B951F8043B84EA0204B4EB78
:10136000034F0CD150F8042BEBE74FEA134330E066
:1013700015EA1C4528D10B884FEA124229E04FEAB2
:10138000124203EA1C4324E002F0FF0482FA4CF507
:1013900094EA1365A5FA8CF50AD165B951F8043BB6
:1013A00084EA0204B4EB032F09D150F8042BEBE7D5
:1013B0004FEA13630DE015F0FF0F05D10B684FEAFC
:1013C000122223F07F4304E04FF00000FDE80445C3
:1013D000704712BA1BBA82FA4CF482EA0304A4FAE8
:1013E0008CF5B5FA85F402FA04F203FA04F34FEA35
:1013F0001260FDE80445A0EB136070470000000098
:1014000090F800F06DE9024520F007016FF0000C44
:1014100010F0070491F820F040F049804FF00004EC
:101420006FF00700D1E9002391F840F000F10800C7
:1014300082FA4CF2A4FA8CF283FA4CF3A2FA8CF3FF
:101440004BBBD1E9022382FA4CF200F10800A4FA66
:101450008CF283FA4CF3A2FA8CF3E3B9D1E90423BA
:1014600082FA4CF200F10800A4FA8CF283FA4CF3F1
:10147000A2FA8CF37BB9D1E9062301F1200182FAAB
:101480004CF200F10800A4FA8CF283FA4CF3A2FAB1
:101490008CF3002BC6D0002A04BF04301A4612BABF
:1014A000B2FA82F2FDE8024500EBD2007047D1E9C2
:1014B000002304F00305C4F100004FEAC50514F051
:1014C000040F91F840F00CFA05F562EA05021CBF22
:1014D00063EA050362464FF00004A9E7000000003C
:1014E00001F0FF01102A2BDB10F0070F08D010F8D5
:1014F000013B013A8B422DD010F0070F42B3F6D1D9
:10150000F0B441EA012141EA014122F007047FF0F1
:1015100000070023F0E80256083C85EA010586EA48
:10152000010685FA47F5A3FA87F586FA47F6A5FA84
:1015300087F68EB9EED1F0BC01F0FF0102F0070290
:1015400032B110F8013B013A83EA010313B1F8D13B
:101550000020704701387047002D06BF354603381C
:10156000073815F0010F07D1013015F4807F02BF55
:10157000013015F4C03F0130F0BC0138704700BFA6
:1015800000B583B000238DF8073010F0ADFA00905D
:10159000009B084A0849102019F00BFF0DF034F9A0
:1015A00003468DF807309DF80730184603B05DF804
:1015B00004FB00BF48FE050854FE050800B585B0D1
:1015C000019001238DF80F30019800F07BFD034658
:1015D0008DF80F309DF80F3083F00103DBB2002B44
:1015E00005D0019807F0B0FE03468DF80F309DF846
:1015F0000F30184605B05DF804FB000000B587B059
:1016000003468DF8073000230593002304933CF034
:101610009EFE0390002304931AE0124A049B5B0190
:10162000134418331B789DF807209A420DD10D4AB8
:10163000049B5B01134419331B78002B05D0049BDA
:101640005B01084A1344059306E0049B01330493AD
:10165000049A039B9A42E0D3059B184607B05DF8B5
:1016600004FB00BF8857002000B587B003468DF803
:10167000073000230593002304933CF068FE039099
:101680000023049323E01749049A1346DB009B1AB6
:101690009B000B4418331B789DF807209A4213D106
:1016A0001049049A1346DB009B1A9B000B44193324
:1016B0001B78002B10D0049A1346DB009B1A9B006A
:1016C000084A1344059307E0049B01330493049AEA
:1016D000039B9A42D7D300E000BF059B184607B092
:1016E0005DF804FBB429070800B585B0019000231C
:1016F0008DF80F30019B002B53D001238DF80F3054
:10170000019B5B69002B06D1019B1B7E1A46284971
:10171000362019F04EFE019B1B69002B09D1019B5D
:101720001B7E1A462349362019F0D7FE00238DF878
:101730000F30019B1B68002B09D1019B1B7E1A46B1
:101740001D49362019F0C9FE00238DF80F30019B8A
:101750009B68002B09D1019B1B7E1A461749362036
:1017600019F0BBFE00238DF80F30019BDB68002BC6
:1017700009D1019B1B7E1A461149362019F0ADFE96
:1017800000238DF80F30019B9B88002B09D1019B12
:101790001B7E1A460B49362019F09FFE00238DF858
:1017A0000F309DF80F30184605B05DF804FB00BF00
:1017B00070FE05087CFE05088CFE0508A4FE0508E1
:1017C000BCFE0508D0FE050800B583B000238DF8E7
:1017D0000730054A0549362019F008FE9DF8073004
:1017E000184603B05DF804FBE4FE0508E8FE0508B2
:1017F00000B59DB001900091FF238DF86F30019BE3
:10180000002B2AD0009B002B27D0009B00221A60BF
:10181000019BDB68642B20D80023029303AB60227A
:101820000021184646F03EFE02AB1946019841F0F1
:1018300007FF03468DF86E309DF86E30002B05D102
:10184000009B1B685A1C009B1A60E5E79DF86E30F0
:101850000A2BE1D100238DF86F309DF86F301846C8
:101860001DB05DF804FB84B00190009100238DF859
:101870000F30019B002B1DD0009B002B1AD0019B29
:101880001A69009B1A61019B1A68009B1A60019BF0
:10189000DA68009BDA60019B9A68009B9A60009B63
:1018A000019A92889A80019B5A69009B5A61012390
:1018B0008DF80F309DF80F30184604B070470000C7
:1018C00084B003468DF8073000238DF80F309DF863
:1018D0000730FF2B00F2888201A252F823F000BFEC
:1018E000E11C0108E91C0108F11C0108F91C0108B0
:1018F000011D0108091D0108111D0108191D01081C
:10190000211D0108291D0108311D0108391D01088B
:10191000411D0108491D0108E91D0108E91D0108D3
:10192000E91D0108E91D0108E91D0108E91D01087B
:10193000E91D0108E91D0108E91D0108E91D01086B
:10194000E91D0108E91D0108E91D0108E91D01085B
:10195000E91D0108E91D0108E91D0108E91D01084B
:101C6000511D0108591D0108611D0108691D010868
:101C7000711D0108791D0108811D0108891D0108D8
:101C8000911D0108991D0108A11D0108A91D010848
:101C9000B11D0108B91D0108C11D0108C91D0108B8
:101CA000E91D0108E91D0108E91D0108E91D0108F8
:101CB000E91D0108E91D0108E91D0108E91D0108E8
:101CC000E91D0108E91D0108E91D0108E91D0108D8
:101CD000E91D0108D11D0108D91D0108E11D0108F8
:101CE00001238DF80F3083E000238DF80F307FE063
:101CF00000238DF80F307BE000238DF80F3077E064
:101D000000238DF80F3073E000238DF80F306FE063
:101D100000238DF80F306BE000238DF80F3067E063
:101D200000238DF80F3063E000238DF80F305FE063
:101D300000238DF80F305BE000238DF80F3057E063
:101D400000238DF80F3053E000238DF80F304FE063
:101D500000238DF80F304BE000238DF80F3047E063
:101D600000238DF80F3043E000238DF80F303FE063
:101D700000238DF80F303BE000238DF80F3037E063
:101D800000238DF80F3033E000238DF80F302FE063
:101D900000238DF80F302BE000238DF80F3027E063
:101DA00000238DF80F3023E000238DF80F301FE063
:101DB00000238DF80F301BE000238DF80F3017E063
:101DC00000238DF80F3013E000238DF80F300FE063
:101DD00000238DF80F300BE000238DF80F3007E063
:101DE00000238DF80F3003E000238DF80F3000BF83
:101DF0009DF80F30184604B0704700BF00B585B09D
:101E0000019000238DF80F30019B01225A76019B2F
:101E10000022DA61019B1B6914220021184646F05A
:101E200041FB019B1869019B9968019BDA68019B42
:101E30001B6841F087FB03468DF80E309DF80E308D
:101E40001846FFF73DFD03468DF80F309DF80F3023
:101E5000002B09D0019B01229A76019B1B7E1A461A
:101E60000449362019F0C2FA9DF80F30184605B023
:101E70005DF804FBFCFE050800B587B003468DF84D
:101E8000073000238DF817309DF807301A462A498D
:101E9000362019F08EFA9DF807301846FFF7E4FB5C
:101EA0000490049B002B39D00498FFF71DFC0346D7
:101EB0008DF817309DF81730002B27D0049836F096
:101EC0008FF903461A461D49362019F072FA9DF81B
:101ED00007301846FFF792FB0390039B002B0DD0B1
:101EE00003990498FFF7BFFC03468DF81730039859
:101EF000FFF784FF03468DF8173016E09DF8073092
:101F00001A460F49362019F0E8FA0EE09DF807301E
:101F10001A460C49362019F0E0FA06E09DF8073021
:101F20001A460849362019F07EFA9DF817301846EF
:101F300007B05DF804FB00BF10FF05081CFF050893
:101F400020FF05082CFF050800B585B001238DF89A
:101F50000F30FFF739FC03468DF80F300023029352
:101F60003CF0F5F9009000238DF8073000238DF840
:101F7000073013E09DF807301846FFF77DFF034652
:101F80008DF80F309DF80F30002B02D0029B0133EB
:101F900002939DF8073001338DF807309DF8073024
:101FA000009A9A42E6D2009A029B9A4203D10123F8
:101FB0008DF80F3002E000238DF80F309DF80F30C0
:101FC000184605B05DF804FB00B587B003468DF8F0
:101FD000073000230593002304933CF0BBFA0390E1
:101FE0000023049323E01649049A1346DB001344AC
:101FF0009B000B4404331B789DF807209A4213D1B1
:102000000F49049A1346DB0013449B000B44103322
:102010001B78002B08D0049A1346DB0013449B0066
:10202000074A1344059306E0049B01330493049A82
:10203000039B9A42D7D3059B184607B05DF804FB73
:10204000B068002000B587B003468DF80730002344
:102050000593002304933CF07DFA0390002304933E
:1020600023E01749049A13469B0013449B000B443A
:1020700004331B789DF807209A4213D11049049A23
:1020800013469B0013449B000B4410331B78002B1A
:1020900010D0049A13469B0013449B00084A134433
:1020A000059307E0049B01330493049A039B9A422F
:1020B000D7D300E000BF059B184607B05DF804FBCE
:1020C000482C070882B0034600228DF80720B3F1A0
:1020D000005F05D3054A934202D801238DF80730EB
:1020E0009DF80730184602B0704700BF00C00120BD
:1020F00000B587B0039002910192009300238DF800
:102100001330029A019B9A420AD2029B591C009BEF
:10211000019A0398FFF7ECFF03468DF8133012E0A5
:10212000029A019B9A420BD10DF11303039AD31A21
:102130000593009B059A1A6001238DF8133002E085
:1021400000238DF813309DF81330184607B05DF862
:1021500004FB000000B587B00390029101920023B8
:102160008DF81730019B029A00210398FFF7C0FFFA
:1021700003468DF81730019B1B68029A044908201A
:1021800019F034F99DF81730184607B05DF804FBD4
:102190003CFF050800B583B000238DF807300949DE
:1021A000082019F006F94FF47A7026F093F800F041
:1021B0001DFD03468DF807309DF80730184603B023
:1021C0005DF804FB58FF05082DE9F00F86B001907B
:1021D00001238DF81730002304934FF000024FF0D5
:1021E0000003CDE902230023049313E0019A049B2A
:1021F00006339B0013445B6800221E461746DDE948
:10220000022312EB060A43EB070BCDE902AB049B5A
:1022100001330493049B032BE8D9019B5B6B0022E1
:102220001C461546DDE9022312EB040843EB0509C1
:10223000CDE90289DDE90223134303D101238DF89F
:10224000173002E000238DF817309DF8173018463C
:1022500006B0BDE8F00F704700B585B001900123CE
:102260008DF80F300198FFF7AFFF03468DF80F3060
:102270009DF80F3083F00103DBB2002B04D0019AEC
:102280004D49082019F0EDF89DF80F30002B13D0C0
:10229000019B1B681846FFF715FF03468DF80F30AA
:1022A0009DF80F3083F00103DBB2002B04D0019ABC
:1022B0004249082019F0D5F89DF80F30002B15D0B1
:1022C000019B5B68184607F03FF803468DF80F3016
:1022D0009DF80F3083F00103DBB2002B06D0019B89
:1022E0005B681A463649082019F0BBF89DF80F3094
:1022F000002B07D0019BDB68184607F025F8034642
:102300008DF80F309DF80F30002B07D0019B1B6913
:10231000184607F019F803468DF80F309DF80F3076
:10232000002B07D0019B5B69184607F00DF80346A8
:102330008DF80F309DF80F30002B07D0019B9B6963
:10234000184607F001F803468DF80F309DF80F305E
:10235000002B07D0019B1B6B184606F0F5FF0346C8
:102360008DF80F309DF80F30002B07D0019BDB6AF2
:10237000184606F0E9FF03468DF80F309DF80F3040
:10238000002B07D0019B9B6B184606F0DDFF034630
:102390008DF80F309DF80F30002B07D0019B9B6804
:1023A000184606F0D1FF03468DF80F309DF80F3028
:1023B000184605B05DF804FB64FF050880FF0508BA
:1023C0009CFF050810B58CB003900291019205ABFB
:1023D00000221A605A609A60019B029A1C490820E8
:1023E00019F03FF8019B9B080B930B9B002B25D00A
:1023F00000230493029A019BD31A0A9304AB154A53
:102400000B990A9813F0C2FE03468DF827309DF809
:102410002730002B12D000230893049B0B9AD31A69
:102420000893089B642202FB03F318460B9905AB43
:10243000052223F0C1FE03468DF82730039B1C467E
:1024400005AB93E8070084E8070003980CB010BDC3
:10245000B4FF0508EFBEADDE00B585B001900023E6
:102460008DF80F30019B02930298FFF7F5FE0346AB
:102470008DF80F309DF80F30184605B05DF804FB5D
:1024800082B001238DF80730064BD3F88830054A17
:1024900043F47003C2F888309DF80730184602B044
:1024A000704700BF00ED00E086B0019000238DF87A
:1024B000173001238DF81730184B9A6A184B1B6898
:1024C000164913438B62EFF313830393039B049327
:1024D00071B600BF114B5B69104A43F480735361BE
:1024E000019B1B780D4B9A6A0D4B1B681340002B08
:1024F00002D000238DF81730084B5B69074A23F49C
:1025000080735361049B0293029B83F3138800BF83
:102510009DF81730184606B0704700BF00ED00E088
:1025200064EC060800B587B0019000230593019A7A
:102530001549082018F05AFF019B049301238DF8D8
:102540000F300FE00498FFF7AFFF03468DF80F3010
:102550009DF80F30002B0AD0059B01330593049B97
:10256000013304939DF80F30002BEBD100E000BF46
:10257000059B019A0549082018F038FF059B18466D
:1025800007B05DF804FB00BF200006082C00060819
:1025900000B583B001238DF807304FF00050FFF7EE
:1025A000C1FF0090009B4FF000520549082018F031
:1025B0001DFF9DF80730184603B05DF804FB00BF0F
:1025C0005C00060884B00190009100238DF80F3064
:1025D000019B002B11D0009B002B0ED0019B1A6891
:1025E000009B1A60019B9A68009B9A60019BDA68C5
:1025F000009BDA6001238DF80F309DF80F301846EC
:1026000004B0704700B585B0019000238DF80F30FD
:10261000019B002B3ED001238DF80F30019B9B685E
:102620001846FFF74FFD034683F00103DBB2002B92
:102630000BD0019B1B791A46019B9B681849082007
:1026400018F0F1FE00238DF80F30019BDB6818466F
:10265000FFF738FD034683F00103DBB2002B0BD0FC
:10266000019B1B791A46019BDB680E49082018F074
:10267000DAFE00238DF80F30019B1B68002B09D177
:10268000019B1B791A460849082018F0CCFE00234C
:102690008DF80F309DF80F30184605B05DF804FB3B
:1026A0007800060894000608B000060800B587B058
:1026B00003468DF8073000238DF817309DF807305A
:1026C0001A463249082018F074FE9DF80730184663
:1026D000FFF7B8FC0490049B002B4AD00498FFF746
:1026E00091FF03468DF817309DF81730002B38D036
:1026F000049802F0ABFD03461A462549082018F05D
:1027000058FE9DF807301846FFF75EFC0390039BC8
:10271000002B1ED003990498FFF754FF03468DF851
:102720001730FFF7ADFE03468DF81730039B0122EB
:102730001A74039B00229A61039B00225A61039B37
:1027400000221A62039B01225A7401238DF817306C
:1027500016E09DF807301A460E49082018F0BDFE15
:102760000EE09DF807301A460B49082018F0B5FE18
:1027700006E09DF807301A460749082018F053FE76
:102780009DF81730184607B05DF804FBC400060832
:10279000CC000608D0000608DC00060800B585B0AD
:1027A00001238DF80F30FFF7F3FE03468DF80F304D
:1027B000002302933BF0CEFE009000238DF80730FB
:1027C00000238DF8073013E09DF807301846FFF717
:1027D0006DFF03468DF80F309DF80F30002B02D0AF
:1027E000029B013302939DF8073001338DF80730C7
:1027F0009DF80730009A9A42E6D2009A029B9A42CC
:1028000003D101238DF80F3002E000238DF80F3043
:102810009DF80F30184605B05DF804FBBFF34F8FED
:1028200000BF064BDB6803F4E0620449044B13432A
:10283000CB60BFF34F8F00BF00BFFDE700ED00E0AE
:102840000400FA0530B587B003460A468DF80F300C
:1028500013468DF80E3000238DF817309DF80E309A
:10286000032B00F2DB809DF80F409DF80E509DF881
:102870000E30184600F034FA034600932B462246E9
:1028800069494FF0FF3018F0B1FD00230493674B06
:10289000D3F8883004939DF80F300B2B00F2B280F0
:1028A00001A252F823F000BFD9280108F728010837
:1028B0001529010833290108512901086F29010848
:1028C0008D290108AB290108052A0108052A0108FC
:1028D000C9290108E72901089DF80E3003F0030318
:1028E000DAB29DF8103062F301038DF81030012345
:1028F0008DF817308AE09DF80E3003F00303DAB24A
:102900009DF8103062F383038DF8103001238DF8A9
:1029100017307BE09DF80E3003F00303DAB29DF828
:10292000103062F305138DF8103001238DF8173045
:102930006CE09DF80E3003F00303DAB29DF810301E
:1029400062F387138DF8103001238DF817305DE0A6
:102950009DF80E3003F00303DAB29DF8113062F3F4
:1029600001038DF8113001238DF817304EE09DF8EA
:102970000E3003F00303DAB29DF8113062F38303E3
:102980008DF8113001238DF817303FE09DF80E309F
:1029900003F00303DAB29DF8113062F305138DF8EA
:1029A000113001238DF8173030E09DF80E3003F020
:1029B0000303DAB29DF8113062F387138DF81130FA
:1029C00001238DF8173021E09DF80E3003F003034A
:1029D000DAB29DF8123062F305138DF8123001233C
:1029E0008DF8173012E09DF80E3003F00303DAB2D1
:1029F0009DF8123062F387138DF8123001238DF8A1
:102A0000173003E000238DF8173000BF9DF8173012
:102A1000002B03D0054A049BC2F888309DF817307C
:102A2000184607B030BD00BFEC00060800ED00E01E
:102A300084B0034600918DF8073000238DF80F30E5
:102A4000009B002B00F0A28000230293524BD3F88E
:102A5000883002939DF807300B2B00F2938001A27F
:102A600052F823F0952A0108AD2A0108C52A010869
:102A7000DD2A0108F52A01080D2B0108252B010884
:102A80003D2B0108852B0108852B0108552B0108DA
:102A90006D2B01089DF80830C3F30103DBB21A4621
:102AA000009B1A7001238DF80F306FE09DF80830FD
:102AB000C3F38103DBB21A46009B1A7001238DF821
:102AC0000F3063E09DF80830C3F30113DBB21A4600
:102AD000009B1A7001238DF80F3057E09DF80830E5
:102AE000C3F38113DBB21A46009B1A7001238DF8E1
:102AF0000F304BE09DF80930C3F30103DBB21A46F7
:102B0000009B1A7001238DF80F303FE09DF80930CB
:102B1000C3F38103DBB21A46009B1A7001238DF8C0
:102B20000F3033E09DF80930C3F30113DBB21A46CE
:102B3000009B1A7001238DF80F3027E09DF80930B3
:102B4000C3F38113DBB21A46009B1A7001238DF880
:102B50000F301BE09DF80A30C3F30113DBB21A46B5
:102B6000009B1A7001238DF80F300FE09DF80A309A
:102B7000C3F38113DBB21A46009B1A7001238DF850
:102B80000F3003E000238DF80F3000BF9DF80F30A9
:102B9000184604B0704700BF00ED00E086B0034661
:102BA0008DF8073000238DF817309DF80730002B83
:102BB00005D000230493049B83F3108805E00123D0
:102BC0000393039B83F3108800BF9DF817301846CA
:102BD00006B0704784B003468DF8073000238DF8A7
:102BE0000F309DF80F30184604B0704700B583B021
:102BF00001238DF8073005494FF0FF3018F0D9FB5D
:102C000011F0FFF872B600BFFFF708FE04010608D6
:102C100086B0019000238DF8173072B600BF0123F3
:102C20000393039B83F3108800BF0E4A019B9360BC
:102C300000230493049B83F3108800BF62B600BF97
:102C4000084B9B68019A9A4203D101238DF81730F3
:102C500002E000238DF817309DF81730184606B0B3
:102C6000704700BF00ED00E000B583B000238DF891
:102C700007304FF00060FFF7CBFF03468DF80730B9
:102C80009DF80730184603B05DF804FB00B585B029
:102C9000034600918DF8073000238DF80F309DF822
:102CA0000720009B0C494FF0FF3018F09FFB9DF868
:102CB0000730072B09D8094A9DF807300233002155
:102CC00042F8231001238DF80F309DF80F3018467D
:102CD00005B05DF804FB00BF14010608002000E009
:102CE00084B003468DF80730114B03939DF80730ED
:102CF000032B17D801A252F823F000BF0D2D0108B5
:102D0000132D0108192D01081F2D0108094B0393EC
:102D100009E0094B039306E0084B039303E0084BDB
:102D2000039300E000BF039B184604B0704700BF48
:102D3000480106084C01060854010608600106080F
:102D40006C01060884B003468DF807300A4B0393E4
:102D50009DF80730002B02D0012B03D005E0074B74
:102D6000039305E0064B039302E0034B039300BF7C
:102D7000039B184604B07047480106087401060812
:102D80007801060884B003468DF807300A4B039398
:102D90009DF80730002B02D0012B03D005E0074B34
:102DA000039305E0064B039302E0034B039300BF3C
:102DB000039B184604B070474801060854010608F2
:102DC0009401060884B003468DF807300A4B03933C
:102DD0009DF80730002B02D0012B03D005E0074BF4
:102DE000039305E0064B039302E0034B039300BFFC
:102DF000039B184604B0704748010608A401060862
:102E0000A801060800B585B0019000238DF80F30A9
:102E1000019B002B67D00199364819F03BF9019BC3
:102E20009B681946344819F035F9019B1B6819460F
:102E3000324819F02FF9019B5B681946304819F0A8
:102E400029F9019BDB6819462E4819F023F9019BEB
:102E50001B6919462C4819F01DF9019B5B6919463D
:102E60002A4819F017F9019B5B6A1946284819F09E
:102E700011F9019B9B6A1946264819F00BF9019B31
:102E8000DB6A1946244819F005F9019B1B6B1946AA
:102E9000224819F0FFF8019B5B6B1946204819F096
:102EA000F9F8019B9B6B19461E4819F0F3F8019B3A
:102EB000DB6B19461C4819F0EDF8019B9B6C194619
:102EC0001A4819F0E7F8019BDB6C1946184819F00D
:102ED000E1F8019BD3F888301946164819F0DAF862
:102EE00001238DF80F309DF80F30184605B05DF8BE
:102EF00004FB00BFAC010608B8010608C8010608BB
:102F0000D8010608E8010608F801060808020608C4
:102F100018020608280206083802060848020608B1
:102F200058020608680206087802060888020608A1
:102F300098020608A802060810B584B00190012383
:102F40008DF80F30019B02939DF80830C3F3000306
:102F5000DBB21C469DF80830C3F30003DBB2184611
:102F6000FFF710FF03461A462146184819F092F859
:102F70009DF80830C3F34003DBB21C469DF80830CF
:102F8000C3F34003DBB21846FFF71CFF03461A46A3
:102F900021460F4819F07EF89DF80830C3F38003EE
:102FA000DBB21C469DF80830C3F38003DBB2184641
:102FB000FFF7C8FE03461A462146064819F06AF88C
:102FC0009DF80F30184604B010BD00BFB8020608C7
:102FD000CC020608DC02060800B583B001238DF898
:102FE000033000230193114819F054F80023019392
:102FF00012E001990E4819F04DF80E4A019B023378
:1030000052F8233019460C4819F044F8074819F0D3
:1030100041F8019B01330193019B072BE9D99DF8EE
:103020000330184603B05DF804FB00BF0803060830
:103030000C030608002000E01403060800B589B060
:103040000190009100238DF81F30019B002B29D1A6
:103050001A491B4819F01EF84FF000631B680693CD
:10306000184B1B681A46069B9B1A0593154B1B6849
:10307000059A15494FF0FF3018F09BF926F0D6FB62
:103080001248FFF7BFFE03468DF81F30EFF314839D
:103090000393039B04930498FFF74EFF01238DF8DD
:1030A0001F3004E00A494FF0FF3018F016FA9DF87F
:1030B0001F30184609B05DF804FB00BF3D810408CD
:1030C00020030608040000203003060800ED00E09D
:1030D0005803060800B585B00190009100238DF8D3
:1030E0000F30204B0293019B002B07D1029B184607
:1030F00002F022F901238DF80F302CE0019B012B07
:1031000024D101238DF80F30009B1B6802AA1146C1
:10311000184614F033F903468DF80F309DF80F3040
:1031200083F00103DBB2002B07D0009B1B681A461B
:103130000D494FF0FF3018F0D0F99DF80F30002BFB
:1031400009D0029B184602F0F7F804E007494FF057
:10315000FF3018F0C2F99DF80F30184605B05DF841
:1031600004FB00BF004E0020640306088C03060821
:1031700000B585B00190009101238DF80E30002339
:103180008DF80F30019B012B0AD1009B1B680DF1BC
:103190000E021146184614F081FC03468DF80F30DC
:1031A0009DF80F30002B11D09DF80E301846FFF718
:1031B000F5FC03468DF80F309DF80F30002B0AD038
:1031C00008494FF0FF3018F011F904E006494FF0BC
:1031D000FF3018F082F99DF80F30184605B05DF801
:1031E00004FB00BF980306089C03060830B587B0AF
:1031F0000390029100238DF8173000238DF81630CC
:1032000000238DF81530039B002B02DB01238DF882
:103210001730039B002B0ADD029B1B680DF1160281
:103220001146184614F075FB03468DF81730039BC2
:10323000012B0BDD029B04331B680DF115021146B7
:10324000184614F066FB03468DF817309DF81730CA
:10325000002B00F08380039B022B5FD0039B022B8B
:1032600000F38280039B002B03D0039B012B35D0FE
:103270007AE000238DF816302BE000238DF815300E
:103280009DF816300DF1150211461846FFF7D0FBD8
:1032900003468DF817309DF81730002B13D09DF89A
:1032A00016301C469DF815301D469DF81530184601
:1032B000FFF716FD034600932B4622462D494FF09B
:1032C000FF3018F093F89DF816300133DBB28DF81B
:1032D00016309DF81630102BCFD946E09DF81630E9
:1032E0000DF1150211461846FFF7A2FB03468DF8B3
:1032F00017309DF816301C469DF815301D469DF878
:1033000015301846FFF7ECFC034600932B46224687
:1033100018494FF0FF3018F069F826E09DF8163094
:103320001C469DF815301D469DF815301846FFF7D0
:10333000D7FC034600932B4622460F494FF0FF303F
:1033400018F054F89DF816309DF8152011461846CF
:10335000FFF778FA03468DF8173006E007494FF07B
:10336000FF3018F0BAF800E000BF9DF8173018469B
:1033700007B030BDB0030608C8030608E00306081E
:1033800000B585B00190009101238DF80E30002327
:103390008DF80F30019B012B0AD1009B1B680DF1AA
:1033A0000E021146184614F079FB03468DF80F30D3
:1033B0009DF80F30002B11D09DF80E301846FFF706
:1033C00009FC03468DF80F309DF80F30002B0AD012
:1033D00008494FF0FF3018F009F804E006494FF0B3
:1033E000FF3018F07AF89DF80F30184605B05DF8F8
:1033F00004FB00BF98030608F803060800B585B073
:103400000190009100238DF80F3000238DF80E30CD
:1034100000230293019B002B02DB01238DF80F3068
:10342000019B002B0ADD009B1B680DF10E0211466B
:10343000184614F06EFA03468DF80F30019B012BED
:103440000ADD009B04331B6802AA1146184613F0DC
:1034500095FF03468DF80F309DF80F30002B1BD0E1
:10346000019B002B03D0019B022B06D010E0FFF73D
:10347000B3FD03468DF80F3013E09DF80E30029A2D
:1034800011461846FFF702FC03468DF80F3008E09E
:1034900000238DF80F3004E005494FF0FF3018F09D
:1034A0001CF89DF80F30184605B05DF804FB00BF0E
:1034B0000C04060882B003468DF807309DF90730EA
:1034C000002B0CDB9DF8073003F01F0205499DF926
:1034D00007305B09012000FA02F241F8232000BF07
:1034E00002B0704700E100E082B003468DF807307B
:1034F0009DF90730002B13DB9DF8073003F01F0206
:1035000009499DF907305B09012000FA02F22033D6
:1035100041F82320BFF34F8F00BFBFF36F8F00BF71
:1035200000BF02B0704700BF00E100E000B583B00B
:1035300001238DF8063000238DF80730F2238DF833
:1035400007300BE09DF907301846FFF7CDFF9DF9D6
:103550000730DBB20133DBB28DF807309DF907305D
:10356000512BEFDD9DF80630184603B05DF804FBE3
:1035700000B585B003460A46ADF8063013468DF80F
:10358000053001238DF80F30BDF906209DF8053078
:103590000D49232017F02AFF9DF80530002B06D097
:1035A000BDF806305BB21846FFF784FF05E0BDF8B2
:1035B00006305BB21846FFF797FF9DF80F301846AC
:1035C00005B05DF804FB00BF3004060800B585B007
:1035D00003468DF8073001238DF80F309DF8073032
:1035E0001A460949232017F001FF9DF80730002BE8
:1035F00001D062B601E072B600BF9DF80F301846E8
:1036000005B05DF804FB00BF4004060800B587B0B4
:1036100003468DF8073000238DF81730194B0493BB
:10362000002303930023039316E09DF907301AB299
:103630001549039BDB000B44B3F904309A4208D1CF
:10364000114A039B52F83330049301238DF817304D
:1036500005E0039B01330393039B092BE5D99DF8F8
:10366000173083F00103DBB2002B06D09DF9073041
:103670001BB2184607F03AFF0490049B184607B0A7
:103680005DF804FB40050608E8EC060884B0034634
:103690008DF807300F4B039300230293002302930E
:1036A00011E09DF907200C49029BDB000B441B79BC
:1036B0009A4205D1084A029B52F83330039305E041
:1036C000029B01330293029B0F2BEAD9039B1846FE
:1036D00004B070474005060868EC0608034BDB6839
:1036E0001B0A03F007031846704700BF00ED00E017
:1036F00082B003468DF807309DF90730002B0EDBB2
:10370000094A9DF907305B0952F823209DF80730DC
:1037100003F01F0322FA03F303F0010300E0002388
:10372000184602B0704700BF00E100E082B00346D7
:103730008DF807309DF90730002B0FDB094A9DF902
:1037400007305B09403352F823209DF8073003F01F
:103750001F0322FA03F303F0010300E000231846DD
:1037600002B0704700E100E082B003468DF80730F8
:103770009DF90730002B0FDB094A9DF907305B09E3
:10378000803352F823209DF8073003F01F0322FAFC
:1037900003F303F0010300E00023184602B0704772
:1037A00000E100E082B0034600918DF807309DF9FA
:1037B0000730002B0ADB009BDAB20C499DF9073079
:1037C0001201D2B20B4483F800230BE0009BDAB263
:1037D00007499DF8073003F00F03043B1201D2B2F2
:1037E0000B441A7600BF02B0704700BF00E100E052
:1037F00000ED00E082B003468DF807309DF90730F8
:10380000002B09DB0B4A9DF90730134493F8003372
:10381000DBB21B09DBB20AE0074A9DF8073003F070
:103820000F03043B13441B7EDBB21B09DBB21846BB
:1038300002B0704700E100E000ED00E084B0034614
:103840008DF80730064B9B6803939DF907301033C2
:103850009B00039A13441B68184604B0704700BFCE
:1038600000ED00E000B58BB00390029100238DF8CD
:103870002730002308930023ADF81630039B012B5B
:103880000AD1029B1B680DF116021146184613F06F
:10389000D7FF03468DF82730FFF720FF0790079AE0
:1038A00016494FF0FF3017F0A1FD9DF82730002B8F
:1038B00019D0BDF916305BB21846FFF79BFF089090
:1038C000BDF916305BB21846FFF7B8FF0690BDF998
:1038D00016301A46069B0093089B09494FF0FF30AB
:1038E00017F084FD03E00749232017F0F6FD9DF84B
:1038F000273018460BB05DF804FB00BF44050608EE
:10390000580506088005060800B587B001900091AB
:1039100000238DF817300023049300238DF80F3017
:10392000019B022B14D1009B1B680DF10F02114665
:10393000184614F00EF803468DF81730009B1B68EC
:1039400004AA1146184613F019FD03468DF81730E6
:103950009DF81730002B07D09DF90F30049A1146BF
:103960001846FFF71FFF03E00449232017F0B5FDB9
:103970009DF81730184607B05DF804FB900506085F
:1039800000B585B00190009100238DF80F30002321
:103990008DF80E3000238DF80D30019B002B0ADDD1
:1039A000009B1B680DF10E021146184613F0D1FF63
:1039B00003468DF80F30019B012B0BDD009B043378
:1039C0001B680DF10D021146184614F067F8034606
:1039D0008DF80F309DF80F30002B0FD0019B022B7C
:1039E00010D19DF90E301BB29DF80D2011461846DE
:1039F000FFF7BEFD03468DF80F3003E00449232096
:103A000017F06BFD9DF80F30184605B05DF804FB0C
:103A1000AC05060800B5A9B00390029100238DF80B
:103A20009F30002325930023ADF89C30FFF756FE0E
:103A30002490249A5F494FF0FF3017F0D7FC002301
:103A40008DF89B30002323935B4B1B6824330922A2
:103A50005A49184617F0DEFFF2238DF89B3096E0A6
:103A60009DF99B301846FFF7C5FE23909DF99B30CA
:103A70001846FFF73DFE22909DF99B301846FFF750
:103A8000DDFE259004AB4E49184644F07FFE9DF9BB
:103A90009B3004AA04A8009313464A4A782144F0B4
:103AA00085FD229BDBB2184624F0F8FC024604ABED
:103AB00004A80092444A782144F078FD04AA04A89E
:103AC000259B00931346414A782144F06FFD9DF9F0
:103AD0009B301846FFF748FE024604AB04A800924C
:103AE0003B4A782144F062FD9DF99B301846FFF770
:103AF0001DFE024604AB04A80092364A782144F029
:103B000055FD04AA04A8239B00931346324A78214A
:103B100044F04CFD239B5BB21846FFF7B7FD02460D
:103B200004AB04A800922D4A782144F03FFD9DF992
:103B30009B301846FFF76AFD024604AB04A80092CA
:103B4000264A782144F032FD04AB029A03991846C4
:103B500017F016F80346002B12D0BDF89C3019461A
:103B60001F4818F097FA04AB19461E4818F092FA4D
:103B7000BDF89C300133ADF89C3001238DF89F30A7
:103B80009DF99B30DBB20133DBB28DF89B309DF9A0
:103B90009B30512B7FF764AF074B1B6824330922FE
:103BA0000649184617F05EFE9DF89F30184629B06A
:103BB0005DF804FB44050608B060002038ED0608F7
:103BC000C4050608C8050608D4050608E005060869
:103BD000EC050608F805060804060608100606089F
:103BE0001C0606082406060800B58FB00190009157
:103BF00000238DF837300023089309AB00221A60A8
:103C00005A609A60DA600023039304AB00221A60C2
:103C10005A609A60DA60019B002B0EDB08AB14221D
:103C20002149184644F050FE03AB14221E491846A1
:103C300044F04AFE01238DF83730019B002B09DD4B
:103C4000009B196808AB1422184644F03DFE01237E
:103C50008DF83730019B012B0ADD009B0433196876
:103C600003AB1422184644F02FFE01238DF83730A1
:103C7000019B022B04DD0D494FF0FF3017F02DFCA6
:103C80009DF83730002B08D003AA08AB1146184620
:103C9000FFF7C0FE03468DF837309DF837301846E1
:103CA0000FB05DF804FB00BF2C06060830060608BE
:103CB00000B585B00190009100238DF80E300023EF
:103CC0008DF80F30019B012B0AD1009B1B680DF171
:103CD0000E021146184613F0E1FE03468DF80F3030
:103CE0009DF80F30002B08D09DF80E301846FFF7D6
:103CF0006DFC03468DF80F3003E00549232017F0D3
:103D0000ECFB9DF80F30184605B05DF804FB00BFD2
:103D10004406060830B583B0012000F015F8019084
:103D2000019B002B0DD0019B1B695A1C019B1A6142
:103D3000019BD3E90623541C43F10005019BC3E911
:103D4000064500BF03B030BD00B587B003468DF80F
:103D5000073000230593002304933AF0B2F8039050
:103D60000023049323E01649049A13469B0013444E
:103D7000DB000B4405331B789DF807209A4213D1D2
:103D80000F49049A13469B001344DB000B4407338E
:103D90001B78002B08D0049A13469B001344DB00C9
:103DA000074A1344059306E0049B01330493049AE5
:103DB000039B9A42D7D3059B184607B05DF804FBD6
:103DC0000004002000B587B003468DF807300023BB
:103DD0000593002304933AF074F8039000230493AE
:103DE0001AE0134A049B1B01134405331B789DF80A
:103DF00007209A420DD10E4A049B1B01134407333E
:103E00001B78002B0DD0049B1B01094A134405931A
:103E100007E0049B01330493049A039B9A42E0D386
:103E200000E000BF059B184607B05DF804FB00BF2B
:103E3000B819070882B000238DF807309DF80730C5
:103E4000184602B0704700B583B001238DF80730E3
:103E500010F05CFA03468DF807309DF807301846DD
:103E600003B05DF804FB84B0019000238DF80F309F
:103E7000019B002B20D001238DF80F309DF80F30CF
:103E8000002B0AD0019B1B68002B03D001238DF867
:103E90000F3002E000238DF80F309DF80F30002B1B
:103EA0000AD0019B9B68002B03D001238DF80F30B3
:103EB00002E000238DF80F309DF80F30184604B053
:103EC0007047000000B589B00190009100238DF883
:103ED0001F30019B002B00F0B480019800F0A4FB80
:103EE00003461A465A49262017F063FA0198FFF74D
:103EF000BAFF03468DF81F309DF81F30002B00F0ED
:103F0000A080009B002B00F09C80019B1B681A4640
:103F10005049262017F06AFA019B9A68009B9A6024
:103F2000019B5A79009B5A71019B1A79009B1A7167
:103F3000019B1A68009B1A60009B00221A6100997D
:103F40004FF000024FF00003C1E90623019B9B687C
:103F5000002B76D010F032FA0690069A3E492620C1
:103F600017F044FA069B002B6BD0019B9A68009BCC
:103F70009A60019B1B6807EE903AB8EE677ADFED16
:103F8000376AC7EE267ACDED057A069B07EE903AA2
:103F9000F8EE677A9DED057A67EE277ACDED047A23
:103FA000DDED047AFCEEE77A17EE902A009B9B6821
:103FB00022F07F4291B29888002001439980120C30
:103FC000D2B2997900210A439A71009B9B685B6881
:103FD000C3F317031A462249262017F007FA009B5D
:103FE0009B681A8900221A819A7A00229A72002309
:103FF00003939DF80C3043F001038DF80C309DF8CD
:104000000C3043F002038DF80C30019B9B7903F0D8
:104010000103DAB29DF80C3062F382038DF80C30A4
:10402000019B1B79002B05D09DF80C3043F0020357
:104030008DF80C30009B9B68039A1A6001238DF861
:104040001F309DF81F30184609B05DF804FB00BF13
:1040500080060608840606089406060800007A44CE
:10406000A806060800B583B000238DF807300120AC
:10407000FFF76AFE0090009B002B0ED0009B9B6810
:10408000002B0AD0009B9B681B68C3F30003DBB2C4
:10409000002B02D001238DF807309DF80730184619
:1040A00003B05DF804FB00B583B00120FFF74CFEC0
:1040B0000190019B002B13D0019B9B681B68009310
:1040C0009DF800306FF300038DF800309DF800304C
:1040D0006FF341038DF80030019B9B68009A1A60D2
:1040E0000123184603B05DF804FB00B585B000233A
:1040F0008DF80F300120FFF727FE0290029B002B66
:104100001AD0029B9B68002B16D0029B9B681B68F1
:1041100001939DF8043043F001038DF804309DF8BD
:10412000043043F002038DF80430029B9B68019A2F
:104130001A6001238DF80F309DF80F30184605B036
:104140005DF804FB00B587B0019000238DF81730AF
:104150000120FFF7F9FD0490049B002B1AD00023E7
:104160000393019B23F07F439AB200210A43ADF8E9
:104170000C201B0CDBB2002213438DF80E30049B85
:104180009B68002B06D0049B9B68039A5A6001230E
:104190008DF817309DF81730184607B05DF804FB0E
:1041A00000B585B003468DF8073000238DF80F3039
:1041B0000120FFF7C9FD0290029B002B11D0029B4A
:1041C0009B68002B0DD0029B9A689DF8073003F086
:1041D0000103D9B2136861F38203136001238DF8E0
:1041E0000F309DF80F30184605B05DF804FB00B5A0
:1041F00083B002238DF807300120FFF7A5FD009062
:10420000009B002B0BD0009B9B68002B07D0009BD2
:104210009B681B68C3F38003DBB28DF807309DF801
:104220000730184603B05DF804FB00B583B00023E7
:1042300000930120FFF788FD0190019B002B07D020
:10424000019B9B68002B03D0019B9B685B680093DC
:10425000009BC3F31703184603B05DF804FB00008E
:104260002DE9F04385B00120FFF76EFD0390039B1D
:10427000002B4AD0039B1B69002298469146CDE94A
:104280000089264BD3E900232549C1E90023DDE954
:10429000000102460B464FF000084FF000094FEABC
:1042A000431949EAD2694FEA421842464B46141A6A
:1042B00063EB01054FF000024FF00003AB0043EA4F
:1042C0009473A20014461D46261845EB01074FF0D3
:1042D00000024FF00003FB0043EA5673F20016465B
:1042E0001F4632463B460D49C1E900230B4BD3E93B
:1042F00000010B4BD3E90023904271EB030304D27E
:10430000039BDB685A1C039BDA60044BD3E9002350
:104310001046194605B0BDE8F08300BFF0720020DA
:10432000F872002000B585B0002303930120FFF749
:104330000BFD0290029B002B10D0FFF793FE03466B
:104340008DF807309DF80730002B04D1029BDB6805
:104350005A1C029BDA60029B1B690393039B18465D
:1043600005B05DF804FB000000B585B003468DF88C
:10437000073000238DF80F309DF80730184624F0E1
:10438000C3F803461A461049262017F02FF89DF867
:104390000730002B07D0012B0BD1FFF7A6FE0346F9
:1043A0008DF80F3009E00FF0DFFF03468DF80F3076
:1043B00003E000238DF80F3000BF9DF80F30184642
:1043C00005B05DF804FB00BFB406060800B587B071
:1043D00003468DF8073000238DF817309DF807301D
:1043E0001846FFF7EFFC0490049B002B0FD09DF8BC
:1043F00007301846FFF7A8FC0390039B002B06D05C
:1044000003990498FFF75EFD03468DF817309DF879
:104410001730184607B05DF804FB00B585B00123DE
:104420008DF80F30FFF70FFD03468DF80F30002396
:10443000029339F046FD009000238DF807300023E9
:104440008DF8073013E09DF807301846FFF7BEFFE0
:1044500003468DF80F309DF80F30002B02D0029BE1
:10446000013302939DF8073001338DF807309DF832
:104470000730009A9A42E6D2009A029B9A4203D1F0
:1044800001238DF80F3002E000238DF80F309DF8E6
:104490000F30184605B05DF804FB000084B00346F9
:1044A0008DF807300A4B03939DF80730002B02D09C
:1044B000012B03D005E0074B039305E0064B039364
:1044C00002E0034B039300BF039B184604B0704700
:1044D000BC060608C0060608CC06060800B587B06C
:1044E00001238DF817300120FFF72EFC0490049B68
:1044F000002B78D0FFF77BFE03468DF80F30FFF7D7
:10450000B1FD0346184623F0FFFF03461A4639491A
:10451000262016F06BFF9DF80F301846FFF7BEFF00
:1045200003461A463449262016F060FFFFF782FC46
:1045300003461A463149262016F058FFFFF775FE4C
:1045400003461A462E49262016F050FF049BDB68CE
:104550001A462C49262016F049FFFFF7E3FE029089
:10456000FFF77EFECDE90001DDE900232649262084
:1045700016F03CFF029A2549262016F037FF049BCF
:104580001B691A462249262016F030FF049BD3E906
:1045900006232049262016F029FF029B07EE903AB9
:1045A000F8EE677A9FED1C7AC7EE876A16EE900ADE
:1045B000FBF7AAFE02460B461849262016F016FF06
:1045C000029B07EE903AF8EE677A9FED157AC7EEF8
:1045D000876A16EE900AFBF797FE02460B461149D2
:1045E000262016F003FF9DF81730184607B05DF837
:1045F00004FB00BFD8060608E4060608F006060815
:10460000F806060800070608080706081C0706083B
:10461000300706084407060800007A445C070608CD
:1046200000606A477007060800B585B00390039BD9
:10463000002B34D01C491D4844F0A8F8039B5B793B
:1046400000931A4B1A4AFA21184843F0AFFF039B14
:10465000DB680093154B174AFA21144843F0A6FF74
:10466000039B1B680093114B134AFA210F4843F038
:104670009DFF039B1B79184623F046FF03460093DA
:104680000A4B0E4AFA21094843F090FF039B9B68AE
:104690000093064B0A4AFA21044843F087FF034B74
:1046A000184605B05DF804FB84070608BC9300209B
:1046B0008807060890070608A0070608B00706083E
:1046C000BC07060800B585B00190009100238DF865
:1046D0000F3000230293019B002B17DD009B1B680A
:1046E00002AA1146184612F049FE03468DF80F3013
:1046F0009DF80F3083F00103DBB2002B06D0009B46
:104700001B681A461049262016F0E7FE9DF80F3068
:10471000002B0ED0029B1846FFF714FD03468DF8C0
:104720000F309DF80F30094A1946262016F012FF67
:1047300003E00749262016F0D0FE9DF80F301846FA
:1047400005B05DF804FB00BFC8070608E4070608CB
:10475000EC07060800B585B00190009100238DF8A4
:104760000F30019B002B02D101238DF80F309DF8F3
:104770000F30002B0CD0FFF7B1FE03468DF80F3041
:104780009DF80F30074A1946262016F0E3FE03E095
:104790000549262016F0A1FE9DF80F30184605B0F9
:1047A0005DF804FBFC0706080408060800B585B0A0
:1047B0000190009100238DF80F30019B002B0CD14C
:1047C0000FF0D2FD03468DF80F309DF80F30084AE8
:1047D0001946262016F0BEFE03E00649262016F0F4
:1047E0007CFE9DF80F30184605B05DF804FB00BF55
:1047F000100806081808060800B585B00190009159
:1048000000238DF80F30019B002B0CD1FFF76DFCBE
:1048100003468DF80F309DF80F30084A19462620C0
:1048200016F098FE03E00649262016F056FE9DF885
:104830000F30184605B05DF804FB00BF24080608D9
:104840002C08060800B585B00190009100238DF872
:104850000F3000238DF80E30019B002B11DD009BE3
:104860001B680DF10E021146184613F017F90346A6
:104870008DF80F309DF80F30114A1946262016F09A
:1048800069FE9DF80F30002B0FD09DF80E301846B2
:10489000FFF76AFD03468DF80F309DF80F30094A87
:1048A0001946262016F056FE03E00749262016F08A
:1048B00014FE9DF80F30184605B05DF804FB00BFEC
:1048C00038080608400806084808060810B584B0ED
:1048D0000190009100238DF80F3002238DF80E30E7
:1048E000019B002B11DD009B1B680DF10E02114690
:1048F000184613F00EF803468DF80F309DF80F3070
:10490000164A1946262016F025FE9DF80F30002B7A
:104910001AD09DF80E301846FFF742FC03468DF87A
:104920000F309DF80F30184616F050FB03461C461A
:104930009DF80E301846FFF7B1FD0346084A2621C0
:10494000204616F00FFD03E00649262016F0C5FDAF
:104950009DF80F30184604B010BD00BF5C08060873
:10496000640806087408060800B585B00190009137
:1049700000238DF80F30019B002B02D101238DF80D
:104980000F309DF80F30002B0CD0FFF746FD03468B
:104990008DF80F309DF80F30074A1946262016F083
:1049A000D9FD03E00549262016F097FD9DF80F304C
:1049B000184605B05DF804FB88080608900806084C
:1049C00000B587B003468DF8073000230593002318
:1049D000049339F0D4FD0390002304931AE0124AA3
:1049E000049B9B0113440C331B789DF807209A42CB
:1049F0000DD10D4A049B9B0113440D331B78002BF2
:104A000005D0049B9B01084A1344059306E0049BD0
:104A100001330493049A039B9A42E0D3059B184602
:104A200007B05DF804FB00BFD868002000B587B070
:104A300003468DF80730002305930023049339F0D3
:104A40009EFD0390002304931AE0134A049B1B016C
:104A500013440C331B789DF807209A420DD10E4A5F
:104A6000049B1B0113440D331B78002B0DD0049BBA
:104A70001B01094A1344059307E0049B0133049387
:104A8000049A039B9A42E0D300E000BF059B1846BE
:104A900007B05DF804FB00BF5C2C070800B585B0CB
:104AA000019000238DF80F30019B002B26D00123AD
:104AB0008DF80F30019B5B68002B06D1019B1B7B9F
:104AC0001A461149352016F008FD019B1B68002B82
:104AD00009D1019B1B7B1A460C49352016F0FDFCC1
:104AE00000238DF80F30019B9B68002B06D1019BA2
:104AF0001B7B1A460649352016F0EFFC9DF80F3057
:104B0000184605B05DF804FB9C080608AC080608CA
:104B1000BC08060800B583B000238DF80730054AAD
:104B20000549352016F062FC9DF80730184603B0A1
:104B30005DF804FBD0080608D408060884B001908C
:104B4000009100238DF80F30019B002B18D0009BA3
:104B5000002B15D0019B5A68009B5A60019B1A6874
:104B6000009B1A60019B1A7B009B1A73019B9A6839
:104B7000009B9A60009B01225A7301238DF80F302D
:104B80009DF80F30184604B070472DE9F04387B008
:104B900003468DF807304FF000024FF00003CDE9D7
:104BA00004239DF807301846FFF70AFF0390039B84
:104BB000002B2FD009F000FE039B1B685A68039B53
:104BC0009A63039B9A6B039BDB6B9A4208D2039B0D
:104BD000D3E90C2303F101099046039BC3E90C8937
:104BE000039B9A6B039BDA6309F0F8FD039BD3E9FF
:104BF0000C230399896B00200C46054642EA040603
:104C000043EA0507039BC3E90A67039BD3E90A2329
:104C1000CDE90423DDE904231046194607B0BDE8B9
:104C2000F08300B589B003468DF807304FF00002DD
:104C30004FF00003CDE906239DF807301846FFF733
:104C4000BFFE0590059B002B11D09DF8073018463C
:104C5000FFF79BFFCDE90201059BD3E90623DDE9C0
:104C60000201FBF7FFFF02460B46CDE90623DDE913
:104C700006231046194609B05DF804FB00B587B05D
:104C800003468DF80730002305939DF8073018463A
:104C9000FFF796FE0490049B002B11D09DF807307F
:104CA0001846FFF772FFCDE90201049BD3E9082300
:104CB000DDE90201FBF7D6FF02460B4613460593DA
:104CC000059B184607B05DF804FB000000B585B0F1
:104CD00003468DF8073000238DF80F309DF807301C
:104CE0001A460E49352016F09EFB9DF807301846EF
:104CF000FFF766FE0290029B002B09D0029B1B6906
:104D00005A1C029B1A619DF807301846FFF73DFFB9
:104D10009DF80F30184605B05DF804FBE008060862
:104D2000F0B587B003468DF8073000238DF81730B3
:104D30009DF807301A464449352016F03AFB9DF895
:104D400007301846FFF772FE0490049B002B6ED0CC
:104D50000498FFF7A3FE03468DF817309DF817302F
:104D6000002B5CD0049834F00BF803461A46374900
:104D7000352016F01EFB9DF807301846FFF720FE81
:104D80000390039B002B42D003990498FFF7D6FEB3
:104D900003468DF817302E4BDB682D4A43F08073A5
:104DA000D360039B1B6800225A600CF09DFE0246F4
:104DB000039B9A60039B9B68264AA2FB03239B0CE0
:104DC00000221E461746039BC3E90667039B9B68A8
:104DD000214AA2FB03239B0900221C461546039B84
:104DE000C3E90845039B1B681B6802939DF80830C4
:104DF00043F001038DF80830039B1B68029A1A6088
:104E0000039B01225A73039B01229A7316E09DF8BB
:104E100007301A461149352016F05FFB0EE09DF869
:104E200007301A460E49352016F057FB06E09DF86C
:104E300007301A460A49352016F0F5FA9DF8173062
:104E4000184607B0F0BD00BFEC080608F4080608D5
:104E5000F0ED00E083DE1B43D34D6210F808060836
:104E60000409060800B585B001238DF80F30FFF75F
:104E700051FE03468DF80F300023029339F07FFB7B
:104E8000009000238DF8073000238DF8073013E0E1
:104E90009DF807301846FFF743FF03468DF80F30A3
:104EA0009DF80F30002B02D0029B013302939DF836
:104EB000073001338DF807309DF80730009A9A4289
:104EC000E6D2009A029B9A4203D101238DF80F305B
:104ED00002E000238DF80F309DF80F30184605B022
:104EE0005DF804FB00B585B000238DF80F3000237A
:104EF000029339F044FB00900023019300230193B7
:104F000011E0019BDBB21846FFF7E0FE03468DF887
:104F10000F309DF80F301946029823F0AFFC029035
:104F2000019B01330193019A009B9A42E9D9029BAC
:104F3000002B03D001238DF80F3002E000238DF801
:104F40000F309DF80F30184605B05DF804FB0000E7
:104F500000B585B00190009100238DF80F3001233A
:104F60008DF80E30019B002B11DD009B1B680DF1AD
:104F70000E021146184612F0CCFC03468DF80F3095
:104F80009DF80F30114A1946352016F009FB9DF89F
:104F90000F30002B0FD09DF80E30184633F0FAFF7B
:104FA00003468DF80F309DF80F30094A1946352019
:104FB00016F0F6FA03E00749352016F08EFA9DF850
:104FC0000F30184605B05DF804FB00BF1409060851
:104FD000180906082009060800B585B0019000915F
:104FE00000238DF80F3000238DF80E30019B002B2D
:104FF00002DB01238DF80F30019B002B11DD009B9C
:105000001B680DF10E021146184612F082FC034691
:105010008DF80F309DF80F30184A1946352016F0DC
:10502000BFFA9DF80F30002B1DD0019B002B03D041
:10503000019B012B06D00EE033F09AFF03468DF85A
:105040000F3008E09DF80E30184633F067FF034636
:105050008DF80F3000BF9DF80F30094A19463520F2
:1050600016F09EFA03E00749352016F036FA9DF84F
:105070000F30184605B05DF804FB00BF14090608A0
:10508000340906083C09060800B585B00190009176
:1050900000238DF80F3000238DF80E30019B002B7C
:1050A00011DD009B1B680DF10E021146184612F02F
:1050B00030FC03468DF80F309DF80F300F4A19462B
:1050C000352016F06DFA019B002B0CD1FFF7CAFEBC
:1050D00003468DF80F309DF80F30094A19463520E8
:1050E00016F05EFA03E00749352016F0F6F99DF850
:1050F0000F30184605B05DF804FB00BF1409060820
:105100004C0906085409060800B5B7B000238DF80D
:10511000D730444B1B68243308224349184616F005
:1051200079FC39F017FA349000238DF8D63000233B
:105130008DF8D63063E09DF8D6301846FCF744FF72
:105140003390339B002B55D0339B9A68339BDB689D
:10515000D31A32930023009301ABC42200211846D6
:1051600043F0A0F96B463149184643F00FFB339BDF
:105170001B796A4668462E4943F05CFA339B1B68EC
:105180006A4668462B4943F055FA339B9B686A464A
:105190006846294943F04EFA339BDB686A46684605
:1051A000254943F047FA6A466846329B234943F053
:1051B00041FA339B5B7C6A466846214943F03AFAE0
:1051C000339B1433184621F0BBF803466A46684601
:1051D0001C4943F02FFA339B1B6A6A4668461849FC
:1051E00043F028FA6B461946174816F053FF01237F
:1051F0008DF8D7309DF8D63001338DF8D6309DF834
:10520000D630349A9A4296D2064B1B682433082231
:105210000549184616F026FB9DF8D730184637B0DA
:105220005DF804FBB060002080ED0608D009060898
:10523000D4090608E0090608EC090608F80906087A
:10524000040A0608100A06081C0A060800B585B0FC
:105250000390039B002B27D01649174843F096FA7A
:10526000039B1B790093144B144AFA21124843F014
:105270009DF9039B9B6800930F4B114AFA210E483E
:1052800043F094F9039BDB6800930B4B0D4AFA2122
:10529000094843F08BF9039B1B680093064B0A4AAD
:1052A000FA21054843F082F9034B184605B05DF832
:1052B00004FB00BF5C0A0608BC930020600A0608D5
:1052C000680A06087C0A0608900A060800B589B034
:1052D00003468DF80F3000238DF81F309DF80F30F6
:1052E0001846FCF771FE0690069B002B1BD0069B10
:1052F0009A68069BDB68D31A9B0805939DF80F20DC
:10530000069BD968059B00930B460A49082016F0B6
:105310006DF8069BDB6804930599049811F03CF93D
:1053200003468DF81F309DF81F30184609B05DF810
:1053300004FB00BFC40A060800B587B00190002333
:105340000393019A13494FF0FF3016F032F800230F
:10535000059300230493002305930023049310E096
:10536000019A059B13440393039B1B68039A0499BA
:10537000094816F08FFE059B04330593049B013307
:105380000493059BD42BEBD90123184607B05DF895
:1053900004FB00BFEC0A0608040B060800B589B040
:1053A0000390029100238DF81F3000230593039B87
:1053B000002B09DD029B1B6805AA1146184611F057
:1053C000DDFF03468DF81F309DF81F30002B13D0F2
:1053D000059B1A460B49082016F008F8059B18464D
:1053E000FDF7A0F80690059A069B9B0A0093069B82
:1053F0000549082015F0FAFF9DF81F30184609B03E
:105400005DF804FB740B0608800B060800B585B038
:105410000190009100238DF80F30FFF775FE0346D1
:105420008DF80F309DF80F30002B03D10449082070
:1054300016F053F89DF80F30184605B05DF804FBE0
:10544000980B060800B585B00190009100238DF8F7
:105450000F30019B002B02D101238DF80F309DF8F6
:105460000F30002B05D0FCF795FE03468DF80F306A
:1054700003E00549082016F030F89DF80F30184673
:1054800005B05DF804FB00BFA40B060800B585B0AD
:105490000190009100238DF80B30002303936B469D
:1054A0001A4603990198FCF755FE03468DF80B3018
:1054B0009DF80B30002B06D0009B1A460399064836
:1054C00016F0E8FD03E00549082016F006F8039BF6
:1054D00001330393E3E700BFB40B0608D00B0608C3
:1054E00000B587B00190009100238DF8173000209F
:1054F0001BF0C2FD04900499224816F0CBFD002356
:105500000393019B002B09DD009B1B6803AA114636
:10551000184611F033FF03468DF81730002302932D
:10552000019B002B07D1029B19460498FFF7AEFFA1
:1055300003468DF817309DF81730002B18D0039BC9
:1055400002AA19460498FCF705FE03468DF81730A9
:105550009DF81730002B06D0039A029B0A490820B9
:1055600015F044FF08E00949082015F0B6FF03E0F4
:105570000749082015F0B1FF9DF81730184607B00D
:105580005DF804FBD80B0608F00B0608D00B0608E4
:10559000100C060800B587B00190009100238DF82B
:1055A000173000230393019B002B10DD009B1B6829
:1055B00003AA1146184611F0E1FE03468DF8173094
:1055C0009DF817301B4A1946082015F0E9FF9DF891
:1055D0001730002B23D0039B04930498FCF764FF3F
:1055E00003468DF817309DF81730002B0BD09DF82F
:1055F0001730184622F0CAFF0346049A0E490820C5
:1056000015F0F4FE0FE09DF81730184622F0BEFFAB
:105610000346049A0849082015F05FFF03E0074994
:10562000082015F05AFF9DF81730184607B05DF8AE
:1056300004FB00BF300C0608380C0608480C0608AE
:1056400000B585B00190009100238DF80F30002344
:105650008DF80E30019B002B11DD009B1B680DF1B6
:105660000E021146184612F054F903468DF80F3019
:105670009DF80F30114A1946082015F091FF9DF84A
:105680000F30002B0FD09DF80E301846FFF71EFE8E
:1056900003468DF80F309DF80F30094A194608204F
:1056A00015F07EFF03E00749082015F016FF9DF86E
:1056B0000F30184605B05DF804FB00BF5C0C06080F
:1056C000640C0608700C060800B587B003468DF818
:1056D0000730002305930023049300F0FAFA0390A7
:1056E0000023049319E0114A049B9B0113441B7887
:1056F0009DF807209A420DD10C4A049B9B0113444C
:1057000029331B78002B05D0049B9B01074A1344C7
:10571000059306E0049B01330493049A039B9A4289
:10572000E1D3059B184607B05DF804FB0800002094
:1057300000B587B003468DF807300023059300239A
:10574000049300F0A8FA0390002304931FE0154A85
:10575000049B2C2101FB03F313441B789DF80720C5
:105760009A4211D10F4A049B2C2101FB03F31344ED
:1057700029331B78002B0FD0049B2C2202FB03F350
:10578000084A1344059307E0049B01330493049AE9
:10579000039B9A42DBD300E000BF059B184607B08D
:1057A0005DF804FBC0ED060800B585B0019000234C
:1057B0008DF80F30019B002B49D001238DF80F305D
:1057C000019B5B68002B09D1019B1B781A4623497A
:1057D000342015F082FE00238DF80F30019B5B6AA8
:1057E000002B09D1019B1B781A461D49342015F066
:1057F00074FE00238DF80F30019B93F8293083F05D
:105800000103DBB2002B09D0019B1B781A46144917
:10581000342015F062FE00238DF80F30019B083311
:10582000184601F09FFA03468DF80F309DF80F30AF
:1058300083F00103DBB2002B09D0019B1B781A46D1
:105840000849342015F049FE00238DF80F309DF8EB
:105850000F30184605B05DF804FB00BF840C060845
:10586000900C0608A00C060800B583B000238DF844
:105870000730054A0549342015F0B8FD9DF807307A
:10588000184603B05DF804FBB00C0608B40C06081B
:1058900000B587B003468DF8073000238DF8173028
:1058A0009DF807301A462649342015F0BCFD9DF8B6
:1058B00007301846FFF708FF0490049B002B39D0EF
:1058C000049B93F82830002B2FD022F091FB0390FB
:1058D000049B1B6B039A9A4227D3049B93F90C30C9
:1058E000DAB2049B0833194610460BF053F903460D
:1058F0008DF817309DF81730002B10D0049B039AB9
:105900009A60049B5B6B039AD21A049B9A63049B74
:10591000039A5A63049BDB6A5A1C049BDA62049B59
:105920005A6A039B1A44049B1A63049BDB6B5A1C40
:10593000049BDA639DF81730184607B05DF804FB46
:10594000C00C060830B484B00190009100238DF89B
:105950000F30019B002B25D0009B002B22D0019BF8
:105960005A68009B5A60009A019B02F1080403F1F7
:1059700008050FCD0FC495E8070084E80700019BD8
:105980005A6A009B5A62019B93F82820009B83F877
:105990002820019B93F82920009B83F829200123CC
:1059A0008DF80F309DF80F30184604B030BC7047AA
:1059B00084B0019000238DF80F30019B002B0FD095
:1059C000019B012283F82920019B0022DA62019BBE
:1059D00000221A63019B0022DA6301238DF80F3045
:1059E0009DF80F30184604B07047000030B589B0FC
:1059F0000492039303468DF817300B468DF816304A
:105A000000238DF81F309DF817409DF8165003981D
:105A100034F0DAF803460193049B00932B462246A8
:105A20001149342015F0C5FC9DF817301846FFF7D2
:105A30004BFE0690069B002B11D0069B9DF816206E
:105A400083F82820069B049A5A62069B08331C227E
:105A500003991846FBF7C6FA01238DF81F309DF80D
:105A60001F30184609B030BDD80C060800B585B007
:105A7000034600918DF8073000238DF80F309DF814
:105A80000720009B0C49342015F093FC9DF807304B
:105A90001846FFF719FE0290029B002B05D0029BCF
:105AA000009A5A6201238DF80F309DF80F30184686
:105AB00005B05DF804FB00BFF80C060800B587B020
:105AC00003468DF8073000238DF817309DF8073016
:105AD0001A463149342015F06CFC9DF80730184601
:105AE000FFF726FE0490049B002B47D00498FFF795
:105AF0005BFE03468DF817309DF81730002B35D02C
:105B0000049833F06DFA03461A462449342015F000
:105B100050FC9DF807301846FFF7D6FD0390039B15
:105B2000002B1BD003990498FFF70CFF03468DF858
:105B300017300398FFF73CFF03468DF817309DF8A8
:105B400007301A461649342015F050FC039B0122F9
:105B500083F82A2001238DF8173016E09DF80730CE
:105B60001A461049342015F0B8FC0EE09DF80730B5
:105B70001A460D49342015F0B0FC06E09DF80730B8
:105B80001A460949342015F04EFC9DF81730184686
:105B900007B05DF804FB00BF0C0D0608200D0608D9
:105BA000240D0608400D06084C0D060800B585B00A
:105BB00001238DF80F30FFF757FE03468DF80F30A5
:105BC0000023029300F067F8009000238DF807305F
:105BD00000238DF8073013E09DF807301846FFF7D3
:105BE0006DFF03468DF80F309DF80F30002B02D06B
:105BF000029B013302939DF8073001338DF8073083
