:020000040800F2
:1000000000C001209D460408DDB6010847B701087D
:1000100049B701084BB701084DB7010800000000BF
:100020000000000000000000000000004FB70108C1
:1000300057B701080000000053B7010865B7010871
:10004000E3B6010843B7010837B701083BB7010819
:100050002BB70108E7B60108A9B70108ADB7010839
:10006000B1B70108B5B70108B9B7010833B701083E
:10007000EFB60108F3B60108F7B60108FBB60108B0
:10008000FFB6010803B70108EBB60108ED46040806
:10009000ED460408ED460408ED460408BDB7010826
:1000A00055B80108C9B70108D5B70108E1B701087B
:1000B000EDB70108F9B7010805B801086BB80108E8
:1000C00067B8010873B801086FB8010859B701088B
:1000D0005DB7010877B7010899B701089DB7010816
:1000E000C1B70108ED4604083FB7010831B801085F
:1000F00025B8010849B801083DB8010807B701084B
:10010000DFB6010873B7010811B8010861B701082B
:10011000ED460408A1B701081DB8010821B801087F
:100120000BB701080FB7010813B7010817B701088B
:100130001BB70108ED460408ED460408ED46040827
:10014000ED460408ED460408ED46040883B80108AE
:100150001FB7010823B7010827B70108A5B7010891
:1001600077B801087BB8010887B80108C5B701084E
:10017000ED4604088BB80108ED46040800000000B5
:100180007FB801082FB70108FFFFFFFFFFFFFFFF48
:10019000FFFFFFFFFFFFFFFFFFFFFFFFFFFFFFFF6F
:1001A000FFFFFFFFFFFFFFFFFFFFFFFFFFFFFFFF5F
:1001B000FFFFFFFFFFFFFFFFFFFFFFFFFFFFFFFF4F
:1001C000FFFFFFFFFFFFFFFFFFFFFFFFFFFFFFFF3F
:020000040801F1
:1000000010B5054C237833B9044B13B10448AFF352
:1000100000800123237010BD502700200000000045
:1000200050EF040808B5034B1BB103490348AFF375
:10003000008008BD000000005427002050EF040895
:1000400081F0004102E000BF83F0004330B54FEA89
:1000500041044FEA430594EA050F08BF90EA020FF6
:100060001FBF54EA000C55EA020C7FEA645C7FEA89
:10007000655C00F0E2804FEA5454D4EB5555B8BFAC
:100080006D420CDD2C4480EA020281EA030382EA1D
:10009000000083EA010180EA020281EA0303362DAF
:1000A00088BF30BD11F0004F4FEA01314FF4801C82
:1000B0004CEA113102D0404261EB410113F0004F94
:1000C0004FEA03334CEA133302D0524263EB43034B
:1000D00094EA050F00F0A780A4F10104D5F1200EE9
:1000E0000DDB02FA0EFC22FA05F2801841F1000144
:1000F00003FA0EF2801843FA05F359410EE0A5F118
:1001000020050EF1200E012A03FA0EFC28BF4CF048
:10011000020C43FA05F3C01851EBE37101F00045FE
:1001200007D54FF0000EDCF1000C7EEB00006EEB0B
:100130000101B1F5801F1BD3B1F5001F0CD3490895
:100140005FEA30004FEA3C0C04F101044FEA4452EC
:1001500012F5800F80F09A80BCF1004F08BF5FEA73
:10016000500C50F1000041EB045141EA050130BD53
:100170005FEA4C0C404141EB0101013C28BFB1F565
:10018000801FE9D291F0000F04BF01460020B1FAB0
:1001900081F308BF2033A3F10B03B3F120020CDA83
:1001A0000C3208DD02F1140CC2F10C0201FA0CF061
:1001B00021FA02F10CE002F11402D8BFC2F1200CC6
:1001C00001FA02F120FA0CFCDCBF41EA0C0190407C
:1001D000E41AA2BF01EB0451294330BD6FEA0404C5
:1001E0001F3C1CDA0C340EDC04F11404C4F12002B0
:1001F00020FA04F001FA02F340EA030021FA04F3C2
:1002000045EA030130BDC4F10C04C4F1200220FA18
:1002100002F001FA04F340EA0300294630BD21FA56
:1002200004F0294630BD94F0000F83F4801306BF1C
:1002300081F480110134013D4EE77FEA645C18BF10
:100240007FEA655C29D094EA050F08BF90EA020FA7
:1002500005D054EA000C04BF1946104630BD91EA9F
:10026000030F1EBF0021002030BD5FEA545C05D1A2
:100270004000494128BF41F0004130BD14F58004E1
:100280003CBF01F5801130BD01F0004545F0FE4155
:1002900041F470014FF0000030BD7FEA645C1ABF8A
:1002A000194610467FEA655C1CBF0B46024650EAC1
:1002B000013406BF52EA033591EA030F41F40021ED
:1002C00030BD00BF90F0000F04BF0021704730B573
:1002D0004FF4806404F132044FF000054FF0000148
:1002E00050E700BF90F0000F04BF0021704730B509
:1002F0004FF4806404F1320410F0004548BF4042DE
:100300004FF000013EE700BF42004FEAE2014FEA32
:1003100031014FEA02701FBF12F07F4393F07F4F0D
:1003200081F06051704732F07F4208BF704793F010
:100330007F4F04BF41F40021704730B54FF4607423
:1003400001F0004521F000411CE700BF50EA010226
:1003500008BF704730B54FF000050AE050EA0102CF
:1003600008BF704730B511F0004502D5404261EB3F
:1003700041014FF4806404F132045FEA915C3FF480
:10038000D8AE4FF003025FEADC0C18BF03325FEA1D
:10039000DC0C18BF033202EBDC02C2F1200300FACE
:1003A00003FC20FA02F001FA03FE40EA0E0021FAF3
:1003B00002F11444BDE600BF70B54FF0FF0C4CF4E1
:1003C000E06C1CEA11541DBF1CEA135594EA0C0F93
:1003D00095EA0C0F00F0DEF82C4481EA030621EACE
:1003E0004C5123EA4C5350EA013518BF52EA033509
:1003F00041F4801143F4801338D0A0FB02CE4FF0BB
:100400000005E1FB02E506F00042E0FB03E54FF0EA
:100410000006E1FB03569CF0000F18BF4EF0010EE2
:10042000A4F1FF04B6F5007F64F5407404D25FEADE
:100430004E0E6D4146EB060642EAC62141EA555191
:100440004FEAC52040EA5E504FEACE2EB4F1FD0CD3
:1004500088BFBCF5E06F1ED8BEF1004F08BF5FEA51
:10046000500E50F1000041EB045170BD06F0004603
:1004700046EA010140EA020081EA0301B4EB5C04B0
:10048000C2BFD4EB0C0541EA045170BD41F48011A8
:100490004FF0000E013C00F3AB8014F1360FDEBFCD
:1004A000002001F0004170BDC4F10004203C35DAA9
:1004B0000C341BDC04F11404C4F1200500FA05F32C
:1004C00020FA04F001FA05F240EA020001F00042CD
:1004D00021F0004110EBD37021FA04F642EB060143
:1004E0005EEA430E08BF20EAD37070BDC4F10C046D
:1004F000C4F1200500FA04F320FA05F001FA04F231
:1005000040EA020001F0004110EBD37041F100011C
:100510005EEA430E08BF20EAD37070BDC4F1200527
:1005200000FA05F24EEA020E20FA04F301FA05F28F
:1005300043EA020321FA04F001F0004121FA04F237
:1005400020EA020000EBD3705EEA430E08BF20EA07
:10055000D37070BD94F0000F0FD101F00046400041
:1005600041EB010111F4801F08BF013CF7D041EAC3
:10057000060195F0000F18BF704703F000465200C7
:1005800043EB030313F4801F08BF013DF7D043EA98
:100590000603704794EA0C0F0CEA135518BF95EA4E
:1005A0000C0F0CD050EA410618BF52EA4306D1D1D5
:1005B00081EA030101F000414FF0000070BD50EAF4
:1005C000410606BF1046194652EA430619D094EA7E
:1005D0000C0F02D150EA013613D195EA0C0F05D168
:1005E00052EA03361CBF104619460AD181EA0301BC
:1005F00001F0004141F0FE4141F470014FF0000074
:1006000070BD41F0FE4141F4780170BD70B54FF00E
:10061000FF0C4CF4E06C1CEA11541DBF1CEA13558E
:1006200094EA0C0F95EA0C0F00F0A7F8A4EB050470
:1006300081EA030E52EA03354FEA013100F0888067
:100640004FEA03334FF0805545EA131343EA126330
:100650004FEA022245EA111545EA10654FEA0026E5
:100660000EF000419D4208BF964244F1FD0404F59E
:10067000407402D25B084FEA3202B61A65EB0305FA
:100680005B084FEA32024FF480104FF4002CB6EBB7
:10069000020E75EB030E22BFB61A754640EA0C0037
:1006A0005B084FEA3202B6EB020E75EB030E22BF77
:1006B000B61A754640EA5C005B084FEA3202B6EBB8
:1006C000020E75EB030E22BFB61A754640EA9C0077
:1006D0005B084FEA3202B6EB020E75EB030E22BF47
:1006E000B61A754640EADC0055EA060E18D04FEA05
:1006F000051545EA16754FEA06164FEAC30343EAA5
:1007000052734FEAC2025FEA1C1CC0D111F4801F71
:100710000BD141EA00014FF000004FF0004CB6E76A
:1007200011F4801F04BF01430020B4F1FD0C88BF09
:10073000BCF5E06F3FF6AFAEB5EB030C04BFB6EB14
:10074000020C5FEA500C50F1000041EB045170BD07
:100750000EF0004E4EEA113114EB5C04C2BFD4EB34
:100760000C0541EA045170BD41F480114FF0000EB8
:10077000013C90E645EA060E8DE60CEA135594EA34
:100780000C0F08BF95EA0C0F3FF43BAF94EA0C0F37
:100790000AD150EA01347FF434AF95EA0C0F7FF4AC
:1007A00025AF104619462CE795EA0C0F06D152EA00
:1007B00003353FF4FDAE1046194622E750EA4106E4
:1007C00018BF52EA43067FF4C5AE50EA41047FF4F5
:1007D0000DAF52EA43057FF4EBAE12E74FF0FF3C5A
:1007E00006E000BF4FF0010C02E000BF4FF0010C2B
:1007F0004DF804CD4FEA410C7FEA6C5C4FEA430CA4
:1008000018BF7FEA6C5C1BD001B050EA410C0CBFF2
:1008100052EA430C91EA030F02BF90EA020F002054
:10082000704710F1000F91EA030F58BF994208BFBB
:1008300090422CBFD8176FEAE37040F00100704778
:100840004FEA410C7FEA6C5C02D150EA013C07D1CF
:100850004FEA430C7FEA6C5CD6D152EA033CD3D01A
:100860005DF8040B704700BF8446104662468C4614
:100870001946634600E000BF01B5FFF7B7FF002847
:1008800048BF10F1000F01BD4DF808EDFFF7F4FF70
:100890000CBF012000205DF808FB00BF4DF808EDFB
:1008A000FFF7EAFF34BF012000205DF808FB00BF1E
:1008B0004DF808EDFFF7E0FF94BF012000205DF840
:1008C00008FB00BF4DF808EDFFF7CEFF94BF0120F5
:1008D00000205DF808FB00BF4DF808EDFFF7C4FFEE
:1008E00034BF012000205DF808FB00BF4FEA410C37
:1008F0007FEA6C5C02D150EA013C0AD14FEA430C1A
:100900007FEA6C5C02D152EA033C02D14FF0000056
:1009100070474FF0010070474FEA410212F5001294
:1009200015D211D56FF47873B3EB625212D94FEA36
:10093000C12343F0004343EA505311F0004F23FA20
:1009400002F018BF404270474FF00000704750EA75
:10095000013005D111F0004008BF6FF00040704732
:100960004FF00000704700BF4A0011D212F500128C
:1009700011D20DD56FF47873B3EB62520ED44FEAF7
:10098000C12343F0004343EA505323FA02F0704777
:100990004FF00000704750EA013002D14FF0FF30B5
:1009A00070474FF0000070474FEA4102B2F1E04358
:1009B00024BFB3F5001CDCF1FE5C0DD901F0004C46
:1009C0004FEAC0024CEA5070B2F1004F40EB830096
:1009D00008BF20F00100704711F0804F21D113F1C2
:1009E0003872BCBF01F00040704741F480114FEAFB
:1009F0005252C2F11802C2F1200C10FA0CF320FA84
:100A000002F018BF40F001004FEAC1234FEAD323A0
:100A100003FA0CFC40EA0C0023FA02F34FEA43030A
:100A2000CCE77FEA625307D150EA01331EBF4FF093
:100A3000FE4040F44000704701F0004040F0FE40AE
:100A400040F40000704700BF80F0004002E000BFAB
:100A500081F0004142001FBF5FEA410392EA030FA9
:100A60007FEA226C7FEA236C6AD04FEA1262D2EBF3
:100A70001363C1BFD218414048404140B8BF5B42F8
:100A8000192B88BF704710F0004F40F4000020F091
:100A90007F4018BF404211F0004F41F4000121F0A7
:100AA0007F4118BF494292EA030F3FD0A2F10102F1
:100AB00041FA03FC10EB0C00C3F1200301FA03F12F
:100AC00000F0004302D5494260EB4000B0F5000F52
:100AD00013D3B0F1807F06D340084FEA310102F111
:100AE0000102FE2A51D2B1F1004F40EBC25008BFC3
:100AF00020F0010040EA03007047490040EB00008D
:100B0000013A28BFB0F5000FEDD2B0FA80FCACF18D
:100B1000080CB2EB0C0200FA0CF0AABF00EBC250BA
:100B200052421843BCBFD0401843704792F0000FA8
:100B300081F4000106BF80F400000132013BB5E7FB
:100B40004FEA41037FEA226C18BF7FEA236C21D071
:100B500092EA030F04D092F0000F08BF08467047D6
:100B600090EA010F1CBF0020704712F07F4F04D1A4
:100B7000400028BF40F00040704712F100723CBFB7
:100B800000F50000704700F0004343F0FE4040F4E1
:100B9000000070477FEA226216BF08467FEA23639F
:100BA0000146420206BF5FEA412390EA010F40F48A
:100BB000800070474FF0000304E000BF10F00043D6
:100BC00048BF40425FEA000C08BF704743F09643BD
:100BD00001464FF000001CE050EA010208BF7047D8
:100BE0004FF000030AE000BF50EA010208BF70475F
:100BF00011F0004302D5404261EB41015FEA010C74
:100C000002BF84460146002043F0B64308BFA3F16B
:100C10008053A3F50003BCFA8CF2083AA3EBC2534D
:100C200010DB01FA02FC634400FA02FCC2F120026C
:100C3000BCF1004F20FA02F243EB020008BF20F0A3
:100C40000100704702F1200201FA02FCC2F1200209
:100C500050EA4C0021FA02F243EB020008BF20EAFE
:100C6000DC70704753B94AB9002908BF00281CBF7F
:100C70004FF0FF314FF0FF3000F0B2B9ADF1080C8A
:100C80006DE904CE00F044F8DDF804E0DDE902236C
:100C900004B07047D0B5FFF737FB0C4B0022064677
:100CA0000F46FFF789FBFFF75FFE0446FFF70AFBDD
:100CB000074B0022FFF780FB02460B4630463946C1
:100CC000FFF7C2F9FFF750FE2146D0BD0000F03D0E
:100CD0000000F041D0B50C4B002206460F46FFF74E
:100CE0006BFBFFF741FE0446FFF7ECFA074B0022CF
:100CF000FFF762FB02460B4630463946FFF7A4F980
:100D0000FFF732FE2146D0BD0000F03D0000F0416B
:100D10002DE9F047089D04468E46002B4DD18A42AE
:100D2000944669D9B2FA82F252B101FA02F3C2F1E1
:100D3000200120FA01F10CFA02FC41EA030E944072
:100D40004FEA1C48210CBEFBF8F61FFA8CF708FB93
:100D500016E341EA034306FB07F199420AD91CEB6B
:100D6000030306F1FF3080F01F81994240F21C819D
:100D7000023E63445B1AA4B2B3FBF8F008FB1033E5
:100D800044EA034400FB07F7A7420AD91CEB04041A
:100D900000F1FF3380F00A81A74240F207816444EA
:100DA000023840EA0640E41B00261DB1D44000236F
:100DB000C5E900433146BDE8F0878B4209D9002DD3
:100DC00000F0EF800026C5E9000130463146BDE85D
:100DD000F087B3FA83F6002E4AD18B4202D38242C7
:100DE00000F2F980841A61EB030301209E46002D76
:100DF000E0D0C5E9004EDDE702B9FFDEB2FA82F2CB
:100E0000002A40F09280A1EB0C014FEA1C471FFA28
:100E10008CFE0126200CB1FBF7F307FB131140EA0F
:100E200001410EFB03F0884208D91CEB010103F1DC
:100E3000FF3802D2884200F2CB804346091AA4B29E
:100E4000B1FBF7F007FB101144EA01440EFB00FE72
:100E5000A64508D91CEB040400F1FF3102D2A645D7
:100E600000F2BB800846A4EB0E0440EA03409CE776
:100E7000C6F12007B34022FA07FC4CEA030C20FA23
:100E800007F401FA06F31C43F9404FEA1C4900FA43
:100E900006F3B1FBF9F8200C1FFA8CFE09FB1811C0
:100EA00040EA014108FB0EF0884202FA06F20BD933
:100EB0001CEB010108F1FF3A80F08880884240F283
:100EC0008580A8F102086144091AA4B2B1FBF9F0C7
:100ED00009FB101144EA014100FB0EFE8E4508D9C2
:100EE0001CEB010100F1FF346CD28E456AD9023847
:100EF000614440EA0840A0FB0294A1EB0E01A1422C
:100F0000C846A64656D353D05DB1B3EB080261EB99
:100F10000E0101FA07F722FA06F3F1401F43C5E973
:100F2000007100263146BDE8F087C2F12003D840A9
:100F30000CFA02FC21FA03F3914001434FEA1C47EB
:100F40001FFA8CFEB3FBF7F007FB10360B0C43EADD
:100F5000064300FB0EF69E4204FA02F408D91CEB8D
:100F6000030300F1FF382FD29E422DD9023863448B
:100F70009B1B89B2B3FBF7F607FB163341EA03412B
:100F800006FB0EF38B4208D91CEB010106F1FF387A
:100F900016D28B4214D9023E6144C91A46EA004671
:100FA00038E72E46284605E70646E3E61846F8E603
:100FB0004B45A9D2B9EB020864EB0C0E0138A3E74C
:100FC0004646EAE7204694E74046D1E7D0467BE72D
:100FD000023B614432E7304609E76444023842E7A5
:100FE000704700BF844641EA000313F003036DD14C
:100FF000403A41D351F8043B40F8043B51F8043BDC
:1010000040F8043B51F8043B40F8043B51F8043BE2
:1010100040F8043B51F8043B40F8043B51F8043BD2
:1010200040F8043B51F8043B40F8043B51F8043BC2
:1010300040F8043B51F8043B40F8043B51F8043BB2
:1010400040F8043B51F8043B40F8043B51F8043BA2
:1010500040F8043B51F8043B40F8043B51F8043B92
:1010600040F8043B51F8043B40F8043B51F8043B82
:1010700040F8043B403ABDD2303211D351F8043B22
:1010800040F8043B51F8043B40F8043B51F8043B62
:1010900040F8043B51F8043B40F8043B103AEDD2D1
:1010A0000C3205D351F8043B40F8043B043AF9D222
:1010B000043208D0D2071CBF11F8013B00F8013BF5
:1010C00001D30B8803806046704700BF082A13D302
:1010D0008B078DD010F003038AD0C3F10403D21A1A
:1010E000DB071CBF11F8013B00F8013B80D331F84E
:1010F000023B20F8023B7BE7043AD9D3013A11F8CE
:10110000013B00F8013BF9D20B7803704B78437038
:101110008B7883706046704700000000000000007C
:10112000A2EB0300704700BF02780B78012A28BFAA
:101130009A42F5D16DE9044540EA0104CDE9026720
:101140006FF0000C4FEA447212B380EA010414F00D
:10115000070F6AD100F0070420F0070004F0030530
:1011600021F007014FEAC505F0E8042314F0040F4D
:10117000F1E804670CFA05F462EA040266EA040680
:101180000AD063EA0403624667EA0407664603E09E
:10119000F0E80423F1E8046782FA4CF582EA0604D9
:1011A000A4FA8CF46CBB83FA4CF583EA0705A5FA24
:1011B0008CF595B950E9022351E9026782FA4CF5A2
:1011C00082EA0604A4FA8CF483FA4CF583EA070554
:1011D000A5FA8CF52543DBD09CB92DBAB5FA85F478
:1011E00024F0070427FA04F1DDE9026723FA04F387
:1011F00003F0FF0001F0FF01FDE80445A0EB010052
:10120000704724BAB4FA84F424F0070426FA04F1EF
:10121000DDE9026722FA04F202F0FF0001F0FF01AB
:10122000FDE80445A0EB0100704714F0030F3CD12A
:1012300010F0030428D150F8082B51F8083B82FA2B
:101240004CF582EA0305A5FA8CF55DB950F8042C3B
:1012500051F8043C82FA4CF582EA0305A5FA8CF5B4
:10126000002DE8D02DBAB5FA85F424F0070423FA4E
:1012700004F122FA04F202F0FF0001F0FF01FDE8A0
:101280000445A0EB010070474FEAC40420F00300BE
:1012900050F8082B21F0030151F8083B0CFA04F434
:1012A00062EA040263EA0403C9E710F003041AD0F7
:1012B000A1EB040120F00300E40750F8042B06D052
:1012C0000FD28B785FFAA2F4E41A06D12BB1CB7857
:1012D0005FFAB2F4E41A00D11BB920465DF8104B56
:1012E000704701F1040150F8042BCC0721F00301F1
:1012F00051F8043B48D824D222F07F4482FA4CF5BE
:1013000094EA1325A5FA8CF50AD165B951F8043B86
:1013100084EA0204B4EB036F0ED150F8042BEBE720
:101320004FEA132355E035F07F454DD10878FDE8AD
:101330000445C0F1000070474FEA126203F0FF035A
:1013400047E002EA1C4482FA4CF594EA1345A5FAF8
:101350008CF50AD165B951F8043B84EA0204B4EB78
:10136000034F0CD150F8042BEBE74FEA134330E066
:1013700015EA1C4528D10B884FEA124229E04FEAB2
:10138000124203EA1C4324E002F0FF0482FA4CF507
:1013900094EA1365A5FA8CF50AD165B951F8043BB6
:1013A00084EA0204B4EB032F09D150F8042BEBE7D5
:1013B0004FEA13630DE015F0FF0F05D10B684FEAFC
:1013C000122223F07F4304E04FF00000FDE80445C3
:1013D000704712BA1BBA82FA4CF482EA0304A4FAE8
:1013E0008CF5B5FA85F402FA04F203FA04F34FEA35
:1013F0001260FDE80445A0EB136070470000000098
:1014000090F800F06DE9024520F007016FF0000C44
:1014100010F0070491F820F040F049804FF00004EC
:101420006FF00700D1E9002391F840F000F10800C7
:1014300082FA4CF2A4FA8CF283FA4CF3A2FA8CF3FF
:101440004BBBD1E9022382FA4CF200F10800A4FA66
:101450008CF283FA4CF3A2FA8CF3E3B9D1E90423BA
:1014600082FA4CF200F10800A4FA8CF283FA4CF3F1
:10147000A2FA8CF37BB9D1E9062301F1200182FAAB
:101480004CF200F10800A4FA8CF283FA4CF3A2FAB1
:101490008CF3002BC6D0002A04BF04301A4612BABF
:1014A000B2FA82F2FDE8024500EBD2007047D1E9C2
:1014B000002304F00305C4F100004FEAC50514F051
:1014C000040F91F840F00CFA05F562EA05021CBF22
:1014D00063EA050362464FF00004A9E7000000003C
:1014E00001F0FF01102A2BDB10F0070F08D010F8D5
:1014F000013B013A8B422DD010F0070F42B3F6D1D9
:10150000F0B441EA012141EA014122F007047FF0F1
:1015100000070023F0E80256083C85EA010586EA48
:10152000010685FA47F5A3FA87F586FA47F6A5FA84
:1015300087F68EB9EED1F0BC01F0FF0102F0070290
:1015400032B110F8013B013A83EA010313B1F8D13B
:101550000020704701387047002D06BF354603381C
:10156000073815F0010F07D1013015F4807F02BF55
:10157000013015F4C03F0130F0BC0138704700BFA6
:1015800000B583B000238DF807300AF045FC0090C9
:10159000009B084A0849102014F049FF0AF00CFA91
:1015A00003468DF807309DF80730184603B05DF804
:1015B00004FB00BF68EF040874EF040800B585B0B1
:1015C000019001238DF80F30019800F095F8034643
:1015D0008DF80F309DF80F3083F00103DBB2002B44
:1015E00005D0019804F0F8F903468DF80F309DF806
:1015F0000F30184605B05DF804FB000000B587B059
:1016000003468DF8073000230593002304932DF043
:101610004BF903900023049323E01649049A1346E0
:10162000DB0013449B000B4404331B789DF8072018
:101630009A4213D10F49049A1346DB0013449B00CE
:101640000B4410331B78002B08D0049A1346DB00A0
:1016500013449B00074A1344059306E0049B01339F
:101660000493049A039B9A42D7D3059B184607B06C
:101670005DF804FB081D002000B587B003468DF817
:10168000073000230593002304932DF00DF90390F8
:101690000023049323E01749049A13469B00134444
:1016A0009B000B4404331B789DF807209A4213D10A
:1016B0001049049A13469B0013449B000B441033BB
:1016C0001B78002B10D0049A13469B0013449B00F8
:1016D000084A1344059307E0049B01330493049ADA
:1016E000039B9A42D7D300E000BF059B184607B082
:1016F0005DF804FB10D5050882B0034600228DF882
:101700000720B3F1005F05D3054A934202D80123B5
:101710008DF807309DF80730184602B0704700BFBB
:1017200000C0012000B587B00390029101920093A0
:1017300000238DF81330029A019B9A420AD2029B31
:10174000591C009B019A0398FFF7ECFF03468DF8A4
:10175000133012E0029A019B9A420BD10DF1130350
:10176000039AD31A0593009B059A1A6001238DF8FA
:10177000133002E000238DF813309DF81330184623
:1017800007B05DF804FB000000B587B0039002913C
:10179000019200238DF81730019B029A00210398D3
:1017A000FFF7C0FF03468DF81730019B1B68029AB4
:1017B0000449082014F058FE9DF81730184607B069
:1017C0005DF804FB90EF040800B583B000238DF8AA
:1017D00007300949082014F02AFE4FF47A7021F0EE
:1017E000A9FD00F00BFD03468DF807309DF807308A
:1017F000184603B05DF804FBACEF04082DE9F00FC8
:1018000086B0019001238DF81730002304934FF028
:1018100000024FF00003CDE902230023049313E0FC
:10182000019A049B06339B0013445B6800221E460A
:101830001746DDE9022312EB060A43EB070BCDE95D
:1018400002AB049B01330493049B032BE8D9019B57
:101850005B6B00221C461546DDE9022312EB0408EF
:1018600043EB0509CDE90289DDE90223134303D1E6
:1018700001238DF8173002E000238DF817309DF812
:101880001730184606B0BDE8F00F704700B585B0B8
:10189000019001238DF80F300198FFF7AFFF034649
:1018A0008DF80F309DF80F3083F00103DBB2002B71
:1018B00004D0019A4D49082014F011FE9DF80F3014
:1018C000002B13D0019B1B681846FFF715FF03463A
:1018D0008DF80F309DF80F3083F00103DBB2002B41
:1018E00004D0019A4249082014F0F9FD9DF80F3008
:1018F000002B15D0019B5B68184604F06DF8034679
:101900008DF80F309DF80F3083F00103DBB2002B10
:1019100006D0019B5B681A463649082014F0DFFDAB
:101920009DF80F30002B07D0019BDB68184604F0B0
:1019300053F803468DF80F309DF80F30002B07D079
:10194000019B1B69184604F047F803468DF80F30D9
:101950009DF80F30002B07D0019B5B69184604F0FF
:101960003BF803468DF80F309DF80F30002B07D061
:10197000019B9B69184604F02FF803468DF80F3041
:101980009DF80F30002B07D0019B1B6B184604F00D
:1019900023F803468DF80F309DF80F30002B07D049
:1019A000019BDB6A184604F017F803468DF80F30E8
:1019B0009DF80F30002B07D0019B9B6B184604F05D
:1019C0000BF803468DF80F309DF80F30002B07D031
:1019D000019B9B68184603F0FFFF03468DF80F300C
:1019E0009DF80F30184605B05DF804FBB8EF040809
:1019F000D4EF0408F0EF040810B58CB00390029106
:101A0000019205AB00221A605A609A60019B029A0B
:101A10001C49082014F063FD019B9B080B930B9B52
:101A2000002B25D000230493029A019BD31A0A931A
:101A300004AB154A0B990A980FF02CFC03468DF85D
:101A400027309DF82730002B12D000230893049BE9
:101A50000B9AD31A0893089B642202FB03F31846DF
:101A60000B9905AB05221EF0ABFF03468DF827301E
:101A7000039B1C4605AB93E8070084E80700039826
:101A80000CB010BD08F00408EFBEADDE00B585B0A7
:101A9000019000238DF80F30019B02930298FFF70D
:101AA000F5FE03468DF80F309DF80F30184605B04F
:101AB0005DF804FB82B001238DF80730064BD3F8A4
:101AC0008830054A43F47003C2F888309DF8073027
:101AD000184602B0704700BF00ED00E086B00190EC
:101AE00000238DF8173001238DF81730184B9A6AB0
:101AF000184B1B68164913438B62EFF31383039350
:101B0000039B049371B600BF114B5B69104A43F409
:101B100080735361019B1B780D4B9A6A0D4B1B68B8
:101B20001340002B02D000238DF81730084B5B695F
:101B3000074A23F480735361049B0293029B83F34F
:101B4000138800BF9DF81730184606B0704700BFD5
:101B500000ED00E0C0A5050800B587B001900023A6
:101B60000593019A1549082014F07EFC019B04930B
:101B700001238DF80F300FE00498FFF7AFFF034605
:101B80008DF80F309DF80F30002B0AD0059B0133E4
:101B90000593049B013304939DF80F30002BEBD188
:101BA00000E000BF059B019A0549082014F05CFC89
:101BB000059B184607B05DF804FB00BF74F00408ED
:101BC00080F0040882B001238DF807309DF80730BB
:101BD000184602B0704784B00190009100238DF840
:101BE0000F30019B002B11D0009B002B0ED0019BCE
:101BF0001A68009B1A60019B9A68009B9A60019B7F
:101C0000DA68009BDA6001238DF80F309DF80F3001
:101C1000184604B07047000000B585B0019000235D
:101C20008DF80F30019B002B3ED001238DF80F3033
:101C3000019B9B681846FFF75FFD034683F0010395
:101C4000DBB2002B0BD0019B1B791A46019B9B68D2
:101C50001849082014F025FC00238DF80F30019B53
:101C6000DB681846FFF748FD034683F00103DBB24B
:101C7000002B0BD0019B1B791A46019BDB680E4998
:101C8000082014F00EFC00238DF80F30019B1B6818
:101C9000002B09D1019B1B791A460849082014F032
:101CA00000FC00238DF80F309DF80F30184605B06A
:101CB0005DF804FBB0F00408CCF00408E8F0040878
:101CC00000B587B003468DF8073000238DF8173034
:101CD0009DF807301A463249082014F0A8FB9DF8F9
:101CE00007301846FFF7C8FC0490049B002B4AD02D
:101CF0000498FFF791FF03468DF817309DF81730D1
:101D0000002B38D0049802F099FD03461A46254965
:101D1000082014F08CFB9DF807301846FFF76EFC86
:101D20000390039B002B1ED003990498FFF753FFE9
:101D300003468DF81730FFF7BDFE03468DF81730C8
:101D4000039B01221A74039B0022DA61039B002289
:101D50009A61039B00225A61039B01225A7401235A
:101D60008DF8173016E09DF807301A460E49082006
:101D700014F0F1FB0EE09DF807301A460B490820DD
:101D800014F0E9FB06E09DF807301A4607490820E1
:101D900014F087FB9DF81730184607B05DF804FB78
:101DA000FCF0040804F1040808F1040814F1040824
:101DB00000B585B001238DF80F30FFF703FF034610
:101DC0008DF80F30002302932CF06EFD009000235D
:101DD0008DF8073000238DF8073013E09DF80730A9
:101DE0001846FFF76DFF03468DF80F309DF80F3052
:101DF000002B02D0029B013302939DF80730013380
:101E00008DF807309DF80730009A9A42E6D2009A82
:101E1000029B9A4203D101238DF80F3002E0002388
:101E20008DF80F309DF80F30184605B05DF804FBB3
:101E3000BFF34F8F00BF064BDB6803F4E062044939
:101E4000044B1343CB60BFF34F8F00BF00BFFDE7D0
:101E500000ED00E00400FA0530B587B003460A46FD
:101E60008DF80F3013468DF80E3000238DF81730A3
:101E70009DF80E30032B00F2D9809DF80F409DF89D
:101E80000E509DF80E30184600F030FA03460093CD
:101E90002B4622466849012014F0E6FA00230493F9
:101EA000664BD3F8883004939DF80F300B2B00F26B
:101EB000B18001A252F823F0E91E0108071F0108B2
:101EC000251F0108431F0108611F01087F1F01082A
:101ED0009D1F0108BB1F01081520010815200108DE
:101EE000D91F0108F71F01089DF80E3003F0030306
:101EF000DAB29DF8103062F301038DF8103001233F
:101F00008DF817308AE09DF80E3003F00303DAB243
:101F10009DF8103062F383038DF8103001238DF8A3
:101F200017307BE09DF80E3003F00303DAB29DF822
:101F3000103062F305138DF8103001238DF817303F
:101F40006CE09DF80E3003F00303DAB29DF8103018
:101F500062F387138DF8103001238DF817305DE0A0
:101F60009DF80E3003F00303DAB29DF8113062F3EE
:101F700001038DF8113001238DF817304EE09DF8E4
:101F80000E3003F00303DAB29DF8113062F38303DD
:101F90008DF8113001238DF817303FE09DF80E3099
:101FA00003F00303DAB29DF8113062F305138DF8E4
:101FB000113001238DF8173030E09DF80E3003F01A
:101FC0000303DAB29DF8113062F387138DF81130F4
:101FD00001238DF8173021E09DF80E3003F0030344
:101FE000DAB29DF8123062F305138DF81230012336
:101FF0008DF8173012E09DF80E3003F00303DAB2CB
:102000009DF8123062F387138DF8123001238DF89A
:10201000173003E000238DF8173000BF9DF817300C
:10202000002B03D0054A049BC2F888309DF8173076
:10203000184607B030BD00BF24F1040800ED00E0F1
:1020400084B0034600918DF8073000238DF80F30DF
:10205000009B002B00F0A28000230293524BD3F888
:10206000883002939DF807300B2B00F2938001A279
:1020700052F823F0A5200108BD200108D520010851
:10208000ED200108052101081D2101083521010865
:102090004D210108952101089521010865210108BC
:1020A0007D2101089DF80830C3F30103DBB21A4615
:1020B000009B1A7001238DF80F306FE09DF80830F7
:1020C000C3F38103DBB21A46009B1A7001238DF81B
:1020D0000F3063E09DF80830C3F30113DBB21A46FA
:1020E000009B1A7001238DF80F3057E09DF80830DF
:1020F000C3F38113DBB21A46009B1A7001238DF8DB
:102100000F304BE09DF80930C3F30103DBB21A46F0
:10211000009B1A7001238DF80F303FE09DF80930C5
:10212000C3F38103DBB21A46009B1A7001238DF8BA
:102130000F3033E09DF80930C3F30113DBB21A46C8
:10214000009B1A7001238DF80F3027E09DF80930AD
:10215000C3F38113DBB21A46009B1A7001238DF87A
:102160000F301BE09DF80A30C3F30113DBB21A46AF
:10217000009B1A7001238DF80F300FE09DF80A3094
:10218000C3F38113DBB21A46009B1A7001238DF84A
:102190000F3003E000238DF80F3000BF9DF80F30A3
:1021A000184604B0704700BF00ED00E086B003465B
:1021B0008DF8073000238DF817309DF80730002B7D
:1021C00005D000230493049B83F3108805E00123CA
:1021D0000393039B83F3108800BF9DF817301846C4
:1021E00006B0704784B003468DF8073000238DF8A1
:1021F0000F309DF80F30184604B0704700B583B01B
:1022000001238DF807300549012014F010F90BF077
:1022100060F972B600BFFFF70BFE00BF3CF1040887
:1022200086B0019000238DF8173072B600BF0123ED
:102230000393039B83F3108800BF0E4A019B9360B6
:1022400000230493049B83F3108800BF62B600BF91
:10225000084B9B68019A9A4203D101238DF81730ED
:1022600002E000238DF817309DF81730184606B0AD
:10227000704700BF00ED00E000B583B000238DF88B
:1022800007304FF00060FFF7CBFF03468DF80730B3
:102290009DF80730184603B05DF804FB00B585B023
:1022A000034600918DF8073000238DF80F309DF81C
:1022B0000720009B0B49012014F0D6F89DF8073049
:1022C000072B09D8084A9DF807300233002142F84D
:1022D000231001238DF80F309DF80F30184605B0FC
:1022E0005DF804FB4CF10408002000E084B00346D4
:1022F0008DF80730114B03939DF80730032B17D847
:1023000001A252F823F000BF192301081F2301087E
:10231000252301082B230108094B039309E0094BEE
:10232000039306E0084B039303E0084B039300E09C
:1023300000BF039B184604B0704700BF80F104083B
:1023400084F104088CF1040898F10408A4F104084D
:1023500084B003468DF807300A4B03939DF807308D
:10236000002B02D0012B03D005E0074B039305E0BF
:10237000064B039302E0034B039300BF039B1846F5
:1023800004B0704780F10408ACF10408B0F104080F
:1023900084B003468DF807300A4B03939DF807304D
:1023A000002B02D0012B03D005E0074B039305E07F
:1023B000064B039302E0034B039300BF039B1846B5
:1023C00004B0704780F104088CF10408CCF10408D3
:1023D00084B003468DF807300A4B03939DF807300D
:1023E000002B02D0012B03D005E0074B039305E03F
:1023F000064B039302E0034B039300BF039B184675
:1024000004B0704780F10408DCF10408E0F104082E
:1024100000B585B0019000238DF80F30019B002B93
:1024200067D00199364814F04DFE019B9B68194610
:10243000344814F047FE019B1B681946324814F0DB
:1024400041FE019B5B681946304814F03BFE019B3E
:10245000DB6819462E4814F035FE019B1B691946AE
:102460002C4814F02FFE019B5B6919462A4814F092
:1024700029FE019B5B6A1946284814F023FE019B44
:102480009B6A1946264814F01DFE019BDB6A19461B
:10249000244814F017FE019B1B6B1946224814F0C8
:1024A00011FE019B5B6B1946204814F00BFE019B4B
:1024B0009B6B19461E4814F005FE019BDB6B194609
:1024C0001C4814F0FFFD019B9B6C19461A4814F040
:1024D000F9FD019BDB6C1946184814F0F3FD019BD4
:1024E000D3F888301946164814F0ECFD01238DF816
:1024F0000F309DF80F30184605B05DF804FB00BFA3
:10250000E4F10408F0F1040800F2040810F20408F1
:1025100020F2040830F2040840F2040850F20408E3
:1025200060F2040870F2040880F2040890F20408D3
:10253000A0F20408B0F20408C0F20408D0F20408C3
:10254000E0F2040810B584B0019001238DF80F303B
:10255000019B02939DF80830C3F30003DBB21C46D5
:102560009DF80830C3F30003DBB21846FFF710FFF5
:1025700003461A462146184814F0A4FD9DF8083079
:10258000C3F34003DBB21C469DF80830C3F340039D
:10259000DBB21846FFF71CFF03461A4621460F48D8
:1025A00014F090FD9DF80830C3F38003DBB21C46A5
:1025B0009DF80830C3F38003DBB21846FFF7C8FE6E
:1025C00003461A462146064814F07CFD9DF80F305C
:1025D000184604B010BD00BFF0F2040804F304086C
:1025E00014F3040800B583B001238DF803300023F1
:1025F0000193114814F066FD0023019312E0019944
:102600000E4814F05FFD0E4A019B023352F823304E
:1026100019460C4814F056FD074814F053FD019B71
:1026200001330193019B072BE9D99DF8033018462C
:1026300003B05DF804FB00BF40F3040844F3040852
:10264000002000E04CF3040800B589B0019000912F
:1026500000238DF81F30019B002B28D119491A48FF
:1026600014F030FD4FF000631B680693174B1B6896
:102670001A46069B9B1A0593144B1B68059A14492E
:10268000012013F0D4FE21F015FE1248FFF7C0FE22
:1026900003468DF81F30EFF314830393039B0493D9
:1026A0000498FFF74FFF01238DF81F3003E00A491C
:1026B000012013F050FF9DF81F30184609B05DF857
:1026C00004FB00BFADA7030858F304080400002072
:1026D00068F3040800ED00E090F3040800B585B04D
:1026E0000190009100238DF80F301F4B0293019B46
:1026F000002B07D1029B184602F016F901238DF832
:102700000F302AE0019B012B23D101238DF80F30DC
:10271000009B1B6802AA114618460FF087FE03466D
:102720008DF80F309DF80F3083F00103DBB2002BE2
:1027300006D0009B1B681A460C49012013F00BFFC2
:102740009DF80F30002B08D0029B184602F0ECF8E1
:1027500003E00749012013F0FEFE9DF80F301846F4
:1027600005B05DF804FB00BF004E00209CF3040898
:10277000C4F3040800B585B00190009101238DF8E1
:102780000E3000238DF80F30019B012B0AD1009BE6
:102790001B680DF10E021146184610F0D7F90346DA
:1027A0008DF80F309DF80F30002B10D09DF80E30B3
:1027B0001846FFF7FBFC03468DF80F309DF80F30ED
:1027C000002B08D00749012013F04EFE03E0064914
:1027D000012013F0C0FE9DF80F30184605B05DF8DB
:1027E00004FB00BFD0F30408D4F3040830B587B06D
:1027F0000390029100238DF8173000238DF81630D6
:1028000000238DF81530039B002B02DB01238DF88C
:102810001730039B002B0ADD029B1B680DF116028B
:102820001146184610F0CDF803468DF81730039B7B
:10283000012B0BDD029B04331B680DF115021146C1
:10284000184610F0BEF803468DF817309DF8173083
:10285000002B7ED0039B022B5CD0039B022B7DDCE4
:10286000039B002B03D0039B012B34D076E0002385
:102870008DF816302AE000238DF815309DF81630BB
:102880000DF1150211461846FFF7DAFB03468DF8E5
:1028900017309DF81730002B12D09DF816301C46CB
:1028A0009DF815301D469DF815301846FFF71EFDA2
:1028B000034600932B4622462B49012013F0D4FDFA
:1028C0009DF816300133DBB28DF816309DF81630C6
:1028D000102BD0D943E09DF816300DF115021146AA
:1028E0001846FFF7ADFB03468DF817309DF81630FC
:1028F0001C469DF815301D469DF815301846FFF70B
:10290000F5FC034600932B4622461749012013F09D
:10291000ABFD24E09DF816301C469DF815301D4691
:102920009DF815301846FFF7E1FC034600932B464F
:1029300022460E49012013F097FD9DF816309DF8B0
:10294000152011461846FFF787FA03468DF8173011
:1029500005E00749012013F0FEFD00E000BF9DF8EF
:102960001730184607B030BDE8F3040800F4040837
:1029700018F4040800B585B00190009101238DF88A
:102980000E3000238DF80F30019B012B0AD1009BE4
:102990001B680DF10E021146184610F0D7F80346D9
:1029A0008DF80F309DF80F30002B10D09DF80E30B1
:1029B0001846FFF717FC03468DF80F309DF80F30CF
:1029C000002B08D00749012013F04EFD03E0064913
:1029D000012013F0C0FD9DF80F30184605B05DF8DA
:1029E00004FB00BFD0F3040830F4040800B585B040
:1029F0000190009100238DF80F3000238DF80E30E8
:102A000000230293019B002B02DB01238DF80F3082
:102A1000019B002B0ADD009B1B680DF10E02114685
:102A200018460FF0CEFF03468DF80F30019B012BA7
:102A30000ADD009B04331B6802AA114618460FF0FA
:102A4000F5FC03468DF80F309DF80F30002B1BD09E
:102A5000019B002B03D0019B022B06D010E0FFF757
:102A6000C1FD03468DF80F3012E09DF80E30029A3A
:102A700011461846FFF712FC03468DF80F3007E0A9
:102A800000238DF80F3003E00449012013F063FDAB
:102A90009DF80F30184605B05DF804FB44F40408B7
:102AA00082B003468DF807309DF90730002B0CDB10
:102AB0009DF8073003F01F0205499DF907305B09B7
:102AC000012000FA02F241F8232000BF02B0704753
:102AD00000E100E082B003468DF807309DF9073031
:102AE000002B13DB9DF8073003F01F0209499DF905
:102AF00007305B09012000FA02F2203341F823205D
:102B0000BFF34F8F00BFBFF36F8F00BF00BF02B096
:102B1000704700BF00E100E000B583B001238DF8ED
:102B2000063000238DF80730F2238DF807300BE0D4
:102B30009DF907301846FFF7CDFF9DF90730DBB24E
:102B40000133DBB28DF807309DF90730512BEFDDF3
:102B50009DF80630184603B05DF804FB00B585B05B
:102B600003460A46ADF8063013468DF805300123BA
:102B70008DF80F30BDF906209DF805300D49242051
:102B800013F072FC9DF80530002B06D0BDF806301E
:102B90005BB21846FFF784FF05E0BDF806305BB274
:102BA0001846FFF797FF9DF80F30184605B05DF8FF
:102BB00004FB00BF68F4040800B585B003468DF837
:102BC000073001238DF80F309DF807301A46094968
:102BD000242013F049FC9DF80730002B01D062B689
:102BE00001E072B600BF9DF80F30184605B05DF8E1
:102BF00004FB00BF78F4040800B587B003468DF8E5
:102C0000073000238DF81730194B049300230393EA
:102C10000023039316E09DF907301AB21549039B70
:102C2000DB000B44B3F904309A4208D1114A039BEC
:102C300052F83330049301238DF8173005E0039BDD
:102C400001330393039B092BE5D99DF8173083F0DB
:102C50000103DBB2002B06D09DF907301BB21846EA
:102C600004F0A0FB0490049B184607B05DF804FB39
:102C700078F5040844A6050884B003468DF80730AB
:102C80000F4B0393002302930023029311E09DF95D
:102C900007200C49029BDB000B441B799A4205D1AB
:102CA000084A029B52F83330039305E0029B01333C
:102CB0000293029B0F2BEAD9039B184604B070477E
:102CC00078F50408C4A50508034BDB681B0A03F06C
:102CD00007031846704700BF00ED00E082B00346CE
:102CE0008DF807309DF90730002B0EDB094A9DF95E
:102CF00007305B0952F823209DF8073003F01F03CB
:102D000022FA03F303F0010300E00023184602B0A7
:102D1000704700BF00E100E082B003468DF8073045
:102D20009DF90730002B0FDB094A9DF907305B093D
:102D3000403352F823209DF8073003F01F0322FA96
:102D400003F303F0010300E00023184602B07047CC
:102D500000E100E082B003468DF807309DF90730AE
:102D6000002B0FDB094A9DF907305B09803352F8CD
:102D700023209DF8073003F01F0322FA03F303F02A
:102D8000010300E00023184602B0704700E100E0B4
:102D900082B0034600918DF807309DF90730002B73
:102DA0000ADB009BDAB20C499DF907301201D2B25E
:102DB0000B4483F800230BE0009BDAB207499DF82F
:102DC000073003F00F03043B1201D2B20B441A7612
:102DD00000BF02B0704700BF00E100E000ED00E07E
:102DE00082B003468DF807309DF90730002B09DBD0
:102DF0000B4A9DF90730134493F80033DBB21B09EB
:102E0000DBB20AE0074A9DF8073003F00F03043BEA
:102E100013441B7EDBB21B09DBB2184602B07047BD
:102E200000E100E000ED00E084B003468DF80730DB
:102E3000064B9B6803939DF9073010339B00039A60
:102E400013441B68184604B0704700BF00ED00E053
:102E500000B58BB00390029100238DF8273000233A
:102E600008930023ADF81630039B012B0AD1029B77
:102E70001B680DF11602114618460FF039FD034686
:102E80008DF82730FFF720FF0790079A154901209A
:102E900013F0EAFA9DF82730002B18D0BDF9163050
:102EA0005BB21846FFF79CFF0890BDF916305BB285
:102EB0001846FFF7B9FF0690BDF916301A46069B73
:102EC0000093089B0849012013F0CEFA03E007495C
:102ED000242013F040FB9DF8273018460BB05DF816
:102EE00004FB00BF7CF5040890F50408B8F504085D
:102EF00000B587B00190009100238DF817300023B2
:102F0000049300238DF80F30019B022B14D1009BFA
:102F10001B680DF10F02114618460FF072FD0346B3
:102F20008DF81730009B1B6804AA114618460FF055
:102F30007DFA03468DF817309DF81730002B07D027
:102F40009DF90F30049A11461846FFF721FF03E060
:102F50000449242013F0FFFA9DF81730184607B0F3
:102F60005DF804FBC8F5040800B585B00190009138
:102F700000238DF80F3000238DF80E3000238DF8DC
:102F80000D30019B002B0ADD009B1B680DF10E022A
:102F9000114618460FF035FD03468DF80F30019BA2
:102FA000012B0BDD009B04331B680DF10D02114654
:102FB00018460FF0CBFD03468DF80F309DF80F300B
:102FC000002B0FD0019B022B10D19DF90E301BB2AC
:102FD0009DF80D2011461846FFF7C0FD03468DF8F9
:102FE0000F3003E00449242013F0B5FA9DF80F30A8
:102FF000184605B05DF804FBE4F5040800B5A9B077
:103000000390029100238DF89F3000232593002325
:10301000ADF89C30FFF758FE2490249A5F490120B8
:1030200013F022FA00238DF89B30002323935C4B8E
:103030001B68243309225B49184613F029FDF2234B
:103040008DF89B3096E09DF99B301846FFF7C8FE3F
:1030500023909DF99B301846FFF740FE22909DF982
:103060009B301846FFF7E0FE259004AB4E4918460A
:1030700034F01EFC9DF99B3004AA04A8009313466B
:103080004A4A782134F024FB229BDBB218462AF00E
:10309000C3FF024604AB04A80092454A782134F0ED
:1030A00017FB04AA04A8259B00931346414A7821E4
:1030B00034F00EFB9DF99B301846FFF74BFE02469D
:1030C00004AB04A800923C4A782134F001FB9DF93E
:1030D0009B301846FFF720FE024604AB04A800927E
:1030E000364A782134F0F4FA04AA04A8239B00930A
:1030F0001346334A782134F0EBFA239B5BB218462F
:10310000FFF7BAFD024604AB04A800922D4A7821CD
:1031100034F0DEFA9DF99B301846FFF76DFD02464C
:1031200004AB04A80092274A782134F0D1FA04AB0A
:10313000029A0399184612F061FD0346002B12D043
:10314000BDF89C301946204813F0BCFF04AB19466B
:103150001E4813F0B7FFBDF89C300133ADF89C302A
:1031600001238DF89F309DF99B30DBB20133DBB238
:103170008DF89B309DF99B30512B7FF764AF084B46
:103180001B68243309220749184613F0A9FB9DF850
:103190009F30184629B05DF804FB00BF7CF5040899
:1031A0005013002094A60508FCF5040800F6040856
:1031B0000CF6040818F6040824F6040830F604088F
:1031C0003CF6040848F6040854F604085CF60408C3
:1031D00000B58FB00190009100238DF837300023A7
:1031E000089309AB00221A605A609A60DA600023E3
:1031F000039304AB00221A605A609A60DA60019B64
:10320000002B0EDB08AB14222049184634F0EEFBED
:1032100003AB14221D49184634F0E8FB01238DF856
:103220003730019B002B09DD009B196808AB142285
:10323000184634F0DBFB01238DF83730019B012B5E
:103240000ADD009B0433196803AB1422184634F0DE
:10325000CDFB01238DF83730019B022B03DD0C4998
:10326000012013F078F99DF83730002B08D003AA1D
:1032700008AB11461846FFF7C1FE03468DF83730FC
:103280009DF8373018460FB05DF804FB64F604086B
:1032900068F6040800B585B00190009100238DF810
:1032A0000E3000238DF80F30019B012B0AD1009BBB
:1032B0001B680DF10E02114618460FF047FC03463D
:1032C0008DF80F309DF80F30002B08D09DF80E3090
:1032D0001846FFF771FC03468DF80F3003E00549EF
:1032E000242013F038F99DF80F30184605B05DF82A
:1032F00004FB00BF7CF6040830B583B0012000F069
:1033000015F80190019B002B0DD0019B1B695A1CE5
:10331000019B1A61019BD3E90623541C43F100056C
:10332000019BC3E9064500BF03B030BD00B587B0BF
:1033300003468DF8073000230593002304932BF0F8
:103340000CF903900023049323E01649049A1346D2
:103350009B001344DB000B4405331B789DF80720CA
:103360009A4213D10F49049A13469B001344DB0081
:103370000B4407331B78002B08D0049A13469B009C
:103380001344DB00074A1344059306E0049B013312
:103390000493049A039B9A42D7D3059B184607B01F
:1033A0005DF804FB5801002000B587B003468DF896
:1033B000073000230593002304932BF0CEF80390ED
:1033C000002304931AE0134A049B1B0113440533A2
:1033D0001B789DF807209A420DD10E4A049B1B01D1
:1033E000134407331B78002B0DD0049B1B01094AA3
:1033F0001344059307E0049B01330493049A039B51
:103400009A42E0D300E000BF059B184607B05DF884
:1034100004FB00BFD4C2050882B000238DF807303A
:103420009DF80730184602B0704700B583B00123FD
:103430008DF807300BF0A4F903468DF807309DF89E
:103440000730184603B05DF804FB84B001900023F8
:103450008DF80F30019B002B20D001238DF80F3009
:103460009DF80F30002B0AD0019B1B68002B03D066
:1034700001238DF80F3002E000238DF80F309DF806
:103480000F30002B0AD0019B9B68002B03D0012337
:103490008DF80F3002E000238DF80F309DF80F30CB
:1034A000184604B07047000000B589B00190009143
:1034B00000238DF81F30019B002B00F0B68001988F
:1034C00000F0A6FB03461A465B49272012F0AFFF27
:1034D0000198FFF7BAFF03468DF81F309DF81F30A3
:1034E000002B00F0A280009B002B00F09E80019B2F
:1034F0001B681A465149272012F0B6FF019B9A68B3
:10350000009B9A60019B5A79009B5A71019B1A7922
:10351000009B1A71019B1A68009B1A60009B002295
:103520001A6100994FF000024FF00003C1E9062331
:10353000019B9B68002B78D00BF07AF90690069AD5
:103540003F49272012F090FF069B002B6DD0019B76
:103550009A68009B9A60019B1B6807EE903AB8EE50
:10356000677ADFED386AC7EE267ACDED057A069BDD
:1035700007EE903AF8EE677A9DED057A67EE277AC6
:10358000CDED047ADDED047AFCEEE77A17EE903AA1
:103590000393009B9B68039A22F07F4291B2988824
:1035A000002001439980120CD2B2997900210A437C
:1035B0009A71009B9B685B68C3F317031A46224904
:1035C000272012F051FF009B9B681A8900221A8164
:1035D0009A7A00229A72002302939DF8083043F0F1
:1035E00001038DF808309DF8083043F002038DF890
:1035F0000830019B9B7903F00103DAB29DF8083093
:1036000062F382038DF80830019B1B79002B05D0F3
:103610009DF8083043F002038DF80830009B9B684A
:10362000029A1A6001238DF81F309DF81F3018464A
:1036300009B05DF804FB00BFB8F60408BCF6040846
:10364000CCF6040800007A44E0F6040800B583B024
:1036500000238DF807300120FFF768FE0090009BE3
:10366000002B0ED0009B9B68002B0AD0009B9B6810
:103670001B68C3F30003DBB2002B02D001238DF8DB
:1036800007309DF80730184603B05DF804FB00B51D
:1036900083B00120FFF74AFE0190019B002B13D05D
:1036A000019B9B681B6800939DF800306FF300033B
:1036B0008DF800309DF800306FF341038DF8003035
:1036C000019B9B68009A1A600123184603B05DF8BD
:1036D00004FB00B585B000238DF80F300120FFF703
:1036E00025FE0290029B002B1AD0029B9B68002BA8
:1036F00016D0029B9B681B6801939DF8043043F031
:1037000001038DF804309DF8043043F002038DF876
:103710000430029B9B68019A1A6001238DF80F30D8
:103720009DF80F30184605B05DF804FB00B587B072
:10373000019000238DF817300120FFF7F7FD04906A
:10374000049B002B1AD000230393019B23F07F439B
:103750009AB200210A43ADF80C201B0CDBB2002208
:1037600013438DF80E30049B9B68002B06D0049BFE
:103770009B68039A5A6001238DF817309DF8173023
:10378000184607B05DF804FB00B585B003468DF818
:10379000073000238DF80F300120FFF7C7FD02909E
:1037A000029B002B11D0029B9B68002B0DD0029B2B
:1037B0009A689DF8073003F00103D9B2136861F3EA
:1037C0008203136001238DF80F309DF80F301846E7
:1037D00005B05DF804FB00B583B002238DF8073017
:1037E0000120FFF7A3FD0090009B002B0BD0009B56
:1037F0009B68002B07D0009B9B681B68C3F380036A
:10380000DBB28DF807309DF80730184603B05DF83D
:1038100004FB00B583B0002300930120FFF786FD71
:103820000190019B002B07D0019B9B68002B03D0CC
:10383000019B9B685B680093009BC3F317031846CA
:1038400003B05DF804FB00002DE9F04385B00120D2
:10385000FFF76CFD0390039B002B4AD0039B1B6971
:10386000002298469146CDE90089264BD3E90023F2
:103870002549C1E90023DDE9000102460B464FF06E
:1038800000084FF000094FEA431949EAD2694FEAAC
:10389000421842464B46141A63EB01054FF00002F2
:1038A0004FF00003AB0043EA9473A20014461D4698
:1038B000261845EB01074FF000024FF00003FB0014
:1038C00043EA5673F20016461F4632463B460D4900
:1038D000C1E900230B4BD3E900010B4BD3E90023D3
:1038E000904271EB030304D2039BDB685A1C039BD9
:1038F000DA60044BD3E900231046194605B0BDE851
:10390000F08300BF702700207827002000B585B025
:10391000002303930120FFF709FD0290029B002B77
:1039200010D0FFF793FE03468DF807309DF807305F
:10393000002B04D1029BDB685A1C029BDA60029BBD
:103940001B690393039B184605B05DF804FB000058
:1039500000B585B003468DF8073000238DF80F3091
:103960009DF8073018462AF015FB03461A46104901
:10397000272012F079FD9DF80730002B07D0012B8E
:103980000BD1FFF7A6FE03468DF80F3009E00AF0D1
:1039900025FF03468DF80F3003E000238DF80F302C
:1039A00000BF9DF80F30184605B05DF804FB00BF5E
:1039B000ECF6040800B587B003468DF80730002305
:1039C0008DF817309DF807301846FFF7EDFC04908E
:1039D000049B002B0FD09DF807301846FFF7A6FC7C
:1039E0000390039B002B06D003990498FFF75CFD1E
:1039F00003468DF817309DF81730184607B05DF86C
:103A000004FB00B585B001238DF80F30FFF70DFDE5
:103A100003468DF80F30002302932AF09EFD00909C
:103A200000238DF8073000238DF8073013E09DF850
:103A300007301846FFF7BEFF03468DF80F309DF89C
:103A40000F30002B02D0029B013302939DF8073008
:103A500001338DF807309DF80730009A9A42E6D27C
:103A6000009A029B9A4203D101238DF80F3002E0A5
:103A700000238DF80F309DF80F30184605B05DF823
:103A800004FB000084B003468DF807300A4B039313
:103A90009DF80730002B02D0012B03D005E0074B27
:103AA000039305E0064B039302E0034B039300BF2F
:103AB000039B184604B07047F4F60408F8F60408AF
:103AC00004F7040800B587B001238DF817300120F2
:103AD000FFF72CFC0490049B002B78D0FFF77BFEB3
:103AE00003468DF80F30FFF7B1FD034618462AF064
:103AF00051FA03461A463949272012F0B5FC9DF8C1
:103B00000F301846FFF7BEFF03461A4634492720F8
:103B100012F0AAFCFFF780FC03461A463149272021
:103B200012F0A2FCFFF775FE03461A462E49272025
:103B300012F09AFC049BDB681A462C49272012F0ED
:103B400093FCFFF7E3FE0290FFF77EFECDE9000154
:103B5000DDE900232649272012F086FC029A254938
:103B6000272012F081FC049B1B691A46224927205A
:103B700012F07AFC049BD3E906232049272012F097
:103B800073FC029B07EE903AF8EE677A9FED1C7A81
:103B9000C7EE876A16EE900AFCF7B6FB02460B46A4
:103BA0001849272012F060FC029B07EE903AF8EECD
:103BB000677A9FED157AC7EE876A16EE900AFCF7D2
:103BC000A3FB02460B461149272012F04DFC9DF83D
:103BD0001730184607B05DF804FB00BF10F7040863
:103BE0001CF7040828F7040830F7040838F704081D
:103BF00040F7040854F7040868F704087CF7040841
:103C000000007A4494F7040800606A47A8F70408A3
:103C100000B585B00390039B002B34D01C491D4890
:103C200033F046FE039B5B7900931A4B1A4AFA2144
:103C3000184833F04DFD039BDB680093154B174A82
:103C4000FA21144833F044FD039B1B680093114B89
:103C5000134AFA210F4833F03BFD039B1B791846AA
:103C60002AF098F9034600930A4B0E4AFA210948B4
:103C700033F02EFD039B9B680093064B0A4AFA2102
:103C8000044833F025FD034B184605B05DF804FBEE
:103C9000BCF704089C2F0020C0F70408C8F70408EC
:103CA000D8F70408E8F70408F4F7040800B585B06D
:103CB0000190009100238DF80F3000230293019BA7
:103CC000002B17DD009B1B6802AA114618460EF058
:103CD000ADFB03468DF80F309DF80F3083F00103E4
:103CE000DBB2002B06D0009B1B681A461049272028
:103CF00012F031FC9DF80F30002B0ED0029B1846BD
:103D0000FFF714FD03468DF80F309DF80F30094A78
:103D10001946272012F05CFC03E00749272012F027
:103D20001AFC9DF80F30184605B05DF804FB00BF83
:103D300000F804081CF8040824F8040800B585B04D
:103D40000190009100238DF80F30019B002B02D1D0
:103D500001238DF80F309DF80F30002B0CD0FFF7AA
:103D6000B1FE03468DF80F309DF80F30074A194613
:103D7000272012F02DFC03E00549272012F0EBFB71
:103D80009DF80F30184605B05DF804FB34F80408C0
:103D90003CF8040800B585B00190009100238DF82F
:103DA0000F30019B002B0CD10AF018FD03468DF853
:103DB0000F309DF80F30084A1946272012F008FCF2
:103DC00003E00649272012F0C6FB9DF80F30184685
:103DD00005B05DF804FB00BF48F8040850F804087B
:103DE00000B585B00190009100238DF80F30019B44
:103DF000002B0CD1FFF76DFC03468DF80F309DF8BA
:103E00000F30084A1946272012F0E2FB03E006496A
:103E1000272012F0A0FB9DF80F30184605B05DF882
:103E200004FB00BF5CF8040864F8040800B585B022
:103E30000190009100238DF80F3000238DF80E3093
:103E4000019B002B11DD009B1B680DF10E0211463A
:103E500018460EF07BFE03468DF80F309DF80F30AC
:103E6000114A1946272012F0B3FB9DF80F30002BA2
:103E70000FD09DF80E301846FFF76AFD03468DF807
:103E80000F309DF80F30094A1946272012F0A0FB89
:103E900003E00749272012F05EFB9DF80F3018461B
:103EA00005B05DF804FB00BF70F8040878F804085A
:103EB00080F8040810B584B00190009100238DF8BB
:103EC0000F3002238DF80E30019B002B11DD009B7B
:103ED0001B680DF10E02114618460EF072FD0346E6
:103EE0008DF80F309DF80F30164A1946272012F032
:103EF0006FFB9DF80F30002B1AD09DF80E3018463E
:103F0000FFF742FC03468DF80F309DF80F3018463E
:103F100012F09AF803461C469DF80E301846FFF73B
:103F2000B1FD0346084A2721204612F059FA03E062
:103F30000649272012F00FFB9DF80F30184604B0F9
:103F400010BD00BF94F804089CF80408ACF80408FD
:103F500000B585B00190009100238DF80F30019BD2
:103F6000002B02D101238DF80F309DF80F30002B6C
:103F70000CD0FFF746FD03468DF80F309DF80F304B
:103F8000074A1946272012F023FB03E005492720A2
:103F900012F0E1FA9DF80F30184605B05DF804FB09
:103FA000C0F80408C8F8040800B587B003468DF8C7
:103FB000073000230593002304932AF08AFC039022
:103FC000002304931AE0124A049B9B0113440C3310
:103FD0001B789DF807209A420DD10D4A049B9B0146
:103FE00013440D331B78002B05D0049B9B01084A1A
:103FF0001344059306E0049B01330493049A039B46
:104000009A42E0D3059B184607B05DF804FB00BF59
:10401000301D002000B587B003468DF8073000231F
:104020000593002304932AF054FC03900023049387
:104030001AE0134A049B1B0113440C331B789DF8B0
:1040400007209A420DD10E4A049B1B0113440D33E5
:104050001B78002B0DD0049B1B01094A13440593C8
:1040600007E0049B01330493049A039B9A42E0D334
:1040700000E000BF059B184607B05DF804FB00BFD9
:1040800024D5050800B585B0019000238DF80F30C8
:10409000019B002B26D001238DF80F30019B5B681C
:1040A000002B06D1019B1B7B1A461149352012F0CB
:1040B00052FA019B1B68002B09D1019B1B7B1A46FE
:1040C0000C49352012F047FA00238DF80F30019B80
:1040D0009B68002B06D1019B1B7B1A4606493520A5
:1040E00012F039FA9DF80F30184605B05DF804FB60
:1040F000D4F80408E4F80408F4F8040800B583B020
:1041000000238DF80730054A0549352012F0ACF937
:104110009DF80730184603B05DF804FB08F9040861
:104120000CF9040884B00190009100238DF80F3041
:10413000019B002B18D0009B002B15D0019B5A68C7
:10414000009B5A60019B1A68009B1A60019B1A7BB6
:10415000009B1A73019B9A68009B9A60009B012246
:104160005A7301238DF80F309DF80F30184604B0B4
:1041700070472DE9F04387B003468DF807304FF0C4
:1041800000024FF00003CDE904239DF807301846E4
:10419000FFF70AFF0390039B002B2FD007F0E4FBEF
:1041A000039B1B685A68039B9A63039B9A6B039B50
:1041B000DB6B9A4208D2039BD3E90C2303F101097C
:1041C0009046039BC3E90C89039B9A6B039BDA63BC
:1041D00007F0DCFB039BD3E90C230399896B0020D8
:1041E0000C46054642EA040643EA0507039BC3E979
:1041F0000A67039BD3E90A23CDE90423DDE90423FD
:104200001046194607B0BDE8F08300B589B00346F3
:104210008DF807304FF000024FF00003CDE9062380
:104220009DF807301846FFF7BFFE0590059B002B51
:1042300011D09DF807301846FFF79BFFCDE902012A
:10424000059BD3E90623DDE90201FCF70BFD0246DD
:104250000B46CDE90623DDE906231046194609B0D1
:104260005DF804FB00B587B003468DF807300023E6
:1042700005939DF807301846FFF796FE0490049BBF
:10428000002B11D09DF807301846FFF772FFCDE9DB
:104290000201049BD3E90823DDE90201FCF7E2FCFB
:1042A00002460B4613460593059B184607B05DF87A
:1042B00004FB000000B585B003468DF807300023ED
:1042C0008DF80F309DF807301A460E49352012F050
:1042D000E8F89DF807301846FFF766FE0290029B4B
:1042E000002B09D0029B1B695A1C029B1A619DF886
:1042F00007301846FFF73DFF9DF80F30184605B010
:104300005DF804FB18F90408F0B587B003468DF892
:10431000073000238DF817309DF807301A464449BE
:10432000352012F084F89DF807301846FFF772FE2A
:104330000490049B002B6ED00498FFF7A3FE034665
:104340008DF817309DF81730002B5CD0049826F0BC
:104350007BFA03461A463749352012F068F89DF873
:1043600007301846FFF720FE0390039B002B42D036
:1043700003990498FFF7D6FE03468DF817302E4BAD
:10438000DB682D4A43F08073D360039B1B680022D7
:104390005A6007F041FD0246039B9A60039B9B68AD
:1043A000264AA2FB03239B0C00221E461746039BB2
:1043B000C3E90667039B9B68214AA2FB03239B0971
:1043C00000221C461546039BC3E90845039B1B6856
:1043D0001B6802939DF8083043F001038DF8083004
:1043E000039B1B68029A1A60039B01225A73039B6A
:1043F00001229A7316E09DF807301A4611493520BC
:1044000012F0A9F80EE09DF807301A460E49352043
:1044100012F0A1F806E09DF807301A460A49352047
:1044200012F03FF89DF81730184607B0F0BD00BFF6
:1044300024F904082CF90408F0ED00E083DE1B43A6
:10444000D34D621030F904083CF9040800B585B07A
:1044500001238DF80F30FFF751FE03468DF80F3022
:10446000002302932AF035FA009000238DF80730DC
:1044700000238DF8073013E09DF807301846FFF74A
:1044800043FF03468DF80F309DF80F30002B02D00C
:10449000029B013302939DF8073001338DF80730FA
:1044A0009DF80730009A9A42E6D2009A029B9A42FF
:1044B00003D101238DF80F3002E000238DF80F3077
:1044C0009DF80F30184605B05DF804FB00B585B0C7
:1044D00000238DF80F30002302932AF0FAF90090A0
:1044E00000238DF8073000238DF8073013E09DF886
:1044F00007301846FFF7DEFE03468DF80F309DF8B3
:104500000F30194602981FF069F802909DF80730A5
:1045100001338DF807309DF80730009A9A42E6D2B1
:10452000029B002B03D001238DF80F3002E0002303
:104530008DF80F309DF80F30184605B05DF804FB7C
:1045400000B585B00190009100238DF80F30012354
:104550008DF80E30019B002B11DD009B1B680DF1C7
:104560000E02114618460EF02CFA03468DF80F3055
:104570009DF80F30114A1946352012F04FF89DF87A
:104580000F30002B0FD09DF80E30184626F066FA3B
:1045900003468DF80F309DF80F30094A1946352033
:1045A00012F03CF803E00749352011F0D4FF9DF8E4
:1045B0000F30184605B05DF804FB00BF4CF9040845
:1045C00050F9040858F9040800B585B0019000912D
:1045D00000238DF80F3000238DF80E30019B002B47
:1045E00002DB01238DF80F30019B002B11DD009BB6
:1045F0001B680DF10E02114618460EF0E2F9034653
:104600008DF80F309DF80F30184A1946352012F0FA
:1046100005F89DF80F30002B1DD0019B002B03D017
:10462000019B012B06D00EE026F006FA03468DF81A
:104630000F3008E09DF80E30184626F0D3F90346F7
:104640008DF80F3000BF9DF80F30094A194635200C
:1046500011F0E4FF03E00749352011F07CFF9DF8DD
:104660000F30184605B05DF804FB00BF4CF9040894
:104670006CF9040874F9040800B585B00190009144
:1046800000238DF80F3000238DF80E30019B002B96
:1046900011DD009B1B680DF10E02114618460EF04D
:1046A00090F903468DF80F309DF80F300F4A1946E8
:1046B000352011F0B3FF019B002B0CD1FFF7C6FE94
:1046C00003468DF80F309DF80F30094A1946352002
:1046D00011F0A4FF03E00749352011F03CFF9DF8DD
:1046E0000F30184605B05DF804FB00BF4CF9040814
:1046F00084F904088CF9040800B5B7B000238DF8DC
:10470000D730444B1B68243308224349184612F023
:10471000BFF92AF0C9F8349000238DF8D630002371
:104720008DF8D63063E09DF8D6301846FCF766FF6A
:104730003390339B002B55D0339B9A68339BDB68B7
:10474000D31A32930023009301ABC42200211846F0
:1047500032F03AFF6B463149184633F0A9F8339BE3
:104760001B796A4668462E4932F0F6FF339B1B6878
:104770006A4668462B4932F0EFFF339B9B686A46D6
:104780006846294932F0E8FF339BDB686A46684691
:10479000254932F0E1FF6A466846329B234932F0F0
:1047A000DBFF339B5B7C6A466846214932F0D4FFCD
:1047B000339B183318461CF0C7F903466A4668460F
:1047C0001C4932F0C9FF339B5B696A466846184949
:1047D00032F0C2FF6B461946174812F073FC0123F2
:1047E0008DF8D7309DF8D63001338DF8D6309DF84E
:1047F000D630349A9A4296D2064B1B68243308224C
:104800000549184612F06CF89DF8D730184637B0B5
:104810005DF804FB50130020DCA6050808FA040824
:104820000CFA040818FA040824FA040830FA0408F8
:104830003CFA040848FA040854FA040800B585B0A4
:104840000390039B002B27D01649174833F030F80C
:10485000039B1B790093144B144AFA21124832F03F
:1048600037FF039B9B6800930F4B114AFA210E48B8
:1048700032F02EFF039BDB6800930B4B0D4AFA21AD
:10488000094832F025FF039B1B680093064B0A4A38
:10489000FA21054832F01CFF034B184605B05DF8BD
:1048A00004FB00BF94FA04089C2F002098FA040827
:1048B000A0FA0408B4FA0408C8FA040800B589B0DC
:1048C00003468DF80F3000238DF81F309DF80F3010
:1048D0001846FCF793FE0690069B002B1BD0069B08
:1048E0009A68069BDB68D31A9B0805939DF80F20F6
:1048F000069BD968059B00930B460A49082011F0D6
:10490000B3FD069BDB680493059904980CF09CFEAC
:1049100003468DF81F309DF81F30184609B05DF82A
:1049200004FB00BFFCFA040800B587B00190002327
:104930000393019A1249012011F079FD0023059398
:1049400000230493002305930023049310E0019AAD
:10495000059B13440393039B1B68039A049909481E
:1049600012F0B0FB059B04330593049B01330493C1
:10497000059BD42BEBD90123184607B05DF804FB47
:1049800024FB04083CFB040800B589B003900291A5
:1049900000238DF81F3000230593039B002B09DDB6
:1049A000029B1B6805AA114618460DF03FFD034601
:1049B0008DF81F309DF81F30002B13D0059B1A4631
:1049C0000B49082011F050FD059B1846FDF7C4F86F
:1049D0000690059A069B9B0A0093069B05490820B2
:1049E00011F042FD9DF81F30184609B05DF804FB38
:1049F000ACFB0408B8FB040800B585B00190009139
:104A000000238DF80F30FFF777FE03468DF80F3047
:104A10009DF80F30002B03D10449082011F09BFDB5
:104A20009DF80F30184605B05DF804FBD0FB040874
:104A300000B585B00190009100238DF80F30019BE7
:104A4000002B02D101238DF80F309DF80F30002B81
:104A500005D0FCF7B9FE03468DF80F3003E0054999
:104A6000082011F078FD9DF80F30184605B05DF86C
:104A700004FB00BFDCFB040800B585B00190009189
:104A800000238DF80B30002303936B461A460399DD
:104A90000198FCF779FE03468DF80B309DF80B303A
:104AA000002B06D0009B1A460399064812F00AFB19
:104AB00003E00549082011F04EFD039B01330393E9
:104AC000E3E700BFECFB040808FC040800B587B06E
:104AD0000190009100238DF81730002016F05AFD48
:104AE00004900499224812F0EDFA00230393019BED
:104AF000002B09DD009B1B6803AA114618460DF028
:104B000095FC03468DF8173000230293019B002B80
:104B100007D1029B19460498FFF7AEFF03468DF8B4
:104B200017309DF81730002B18D0039B02AA1946A6
:104B30000498FCF729FE03468DF817309DF81730CE
:104B4000002B06D0039A029B0A49082011F08CFC26
:104B500008E00949082011F0FEFC03E0074908209D
:104B600011F0F9FC9DF81730184607B05DF804FB0A
:104B700010FC040828FC040808FC040848FC04088D
:104B800000B587B00190009100238DF81730002305
:104B90000393019B002B10DD009B1B6803AA1146A9
:104BA00018460DF043FC03468DF817309DF817307A
:104BB0001B4A1946082011F031FD9DF81730002BD3
:104BC00023D0039B04930498FCF788FF03468DF8D9
:104BD00017309DF81730002B0BD09DF81730184672
:104BE00029F0FAF90346049A0E49082011F03CFC1A
:104BF0000FE09DF81730184629F0EEF90346049AA5
:104C00000849082011F0A7FC03E00749082011F02B
:104C1000A2FC9DF81730184607B05DF804FB00BFF2
:104C200068FC040870FC040880FC040800B585B02A
:104C30000190009100238DF80F3000238DF80E3085
:104C4000019B002B11DD009B1B680DF10E0211462C
:104C500018460DF0B6FE03468DF80F309DF80F3064
:104C6000114A1946082011F0D9FC9DF80F30002B8D
:104C70000FD09DF80E301846FFF720FE03468DF842
:104C80000F309DF80F30094A1946082011F0C6FC74
:104C900003E00749082011F05EFC9DF80F3018462C
:104CA00005B05DF804FB00BF94FC04089CFC0408FC
:104CB000A8FC040800B587B003468DF80730002330
:104CC00005930023049329F0DAFD03900023049355
:104CD0001AE0124A049B5B01134418331B789DF8B9
:104CE00007209A420DD10D4A049B5B0113441933EE
:104CF0001B78002B05D0049B5B01084A13440593E5
:104D000006E0049B01330493049A039B9A42E0D388
:104D1000059B184607B05DF804FB00BFE81C0020A7
:104D200000B587B003468DF80730002305930023B4
:104D3000049329F0A4FD03900023049323E0174972
:104D4000049A1346DB009B1A9B000B4418331B7814
:104D50009DF807209A4213D11049049A1346DB00AC
:104D60009B1A9B000B4419331B78002B10D0049A1C
:104D70001346DB009B1A9B00084A1344059307E087
:104D8000049B01330493049A039B9A42D7D300E017
:104D900000BF059B184607B05DF804FBF4D4050876
:104DA00000B585B0019000238DF80F30019B002BDA
:104DB00038D001238DF80F30019B5B69002B09D19E
:104DC000019B1B7E1A461A49342011F0C4FB0023B4
:104DD0008DF80F30019BD3ED007AF5EEC07AF1EE3D
:104DE00010FACCBF01230023DBB283F00103DBB256
:104DF000002B09D0019B1B7E1A460E49342011F06E
:104E0000AAFB00238DF80F30019B1B7C002B09D1DE
:104E1000019B1B7E1A460849342011F09CFB00239D
:104E20008DF80F309DF80F30184605B05DF804FB83
:104E3000BCFC0408C8FC0408E0FC040800B583B00E
:104E400000238DF8073001220449342011F00CFBB7
:104E50009DF80730184603B05DF804FBF0FC040829
:104E600070B58AB003468DF8173000238DF82730CF
:104E70009DF817301A462C49342011F012FB9DF88A
:104E800017301846FFF716FF0890089B002B45D0F7
:104E900006201EF0E1F88DED070A089BD3ED027A9B
:104EA000089BDB6807EE103AB8EE477A089BD3ED13
:104EB000006A089B93ED016AB0EE462AF0EE661A8E
:104EC000B0EE471AF0EE670A9DED070A1CF088FF66
:104ED0008DED060A9DF817600798FBF715FA044652
:104EE0000D460698FBF710FA02460B46CDE9022361
:104EF000CDE9004532460D49342011F0F0FA089B07
:104F00001B7C9DED060A184608F0F6FF03468DF857
:104F10002730089BDB695A1C089BDA619DF8273013
:104F200018460AB070BD00BFFCFC040804FD04086C
:104F300084B00190009100238DF80F30019B002B6D
:104F400021D0009B002B1ED0019B5A69009B5A6107
:104F5000019B1A7C009B1A74019B1A7E009B1A7697
:104F6000019B1A68009B1A60019B5A68009B5A605B
:104F7000019B9A68009B9A60019BDA68009BDA604B
:104F800001238DF80F309DF80F30184604B070479C
:104F900084B0019000238DF80F30019B002B05D0C9
:104FA000019B01225A7601238DF80F309DF80F30B6
:104FB000184604B07047000000B587B003468DF86E
:104FC000073000238DF817309DF807301A462A491C
:104FD000342011F02CFA9DF807301846FFF7A0FE98
:104FE0000490049B002B39D00498FFF7D9FE0346A8
:104FF0008DF817309DF81730002B27D09DF807301B
:105000001846FFF757FE0390039B002B16D0039919
:105010000498FFF78DFF03468DF817300398FFF7CC
:10502000B7FF03468DF81730039B01225A76039B86
:1050300001229A7601238DF8173016E09DF807308B
:105040001A460E49342011F086FA0EE09DF807301A
:105050001A460B49342011F07EFA06E09DF807301D
:105060001A460749342011F01CFA9DF817301846EB
:1050700007B05DF804FB00BF34FD040848FD0408D8
:1050800054FD040800B585B001238DF80F30FFF7FB
:10509000D5FE03468DF80F300023029329F0EFFB75
:1050A000009000238DF8073000238DF8073013E0BF
:1050B0009DF807301846FFF77FFF03468DF80F3045
:1050C0009DF80F30002B02D0029B013302939DF814
:1050D000073001338DF807309DF80730009A9A4267
:1050E000E6D2009A029B9A4203D101238DF80F3039
:1050F00002E000238DF80F309DF80F30184605B000
:105100005DF804FB00B585B000238DF80F30002357
:10511000029329F0B4FB009000238DF807300023A0
:105120008DF8073013E09DF807301846FFF798FE1A
:1051300003468DF80F309DF80F30194602981EF087
:105140004DFA02909DF8073001338DF807309DF835
:105150000730009A9A42E6D2029B002B03D001232B
:105160008DF80F3002E000238DF80F309DF80F30DE
:10517000184605B05DF804FB84B003468DF807308F
:105180000E4B03939DF80730032B0CD0032B0DDC43
:10519000012B02D0022B03D008E0094B039308E057
:1051A000084B039305E0084B039302E0034B039382
:1051B00000BF039B184604B0704700BF64FD04089D
:1051C00068FD040870FD040874FD040800B585B08E
:1051D000019000238DF80F30019B002B1BD0012381
:1051E0008DF80F30019B1B680E4A42F21071184671
:1051F0001EF0BCFB03468DF80F309DF80F3083F096
:105200000103DBB2002B06D0019B1B681A4606493E
:10521000062011F0A0F99DF80F30184605B05DF892
:1052200004FB00BF80397A1288FD040884B0019025
:1052300000238DF80F309DF80F30184604B07047EA
:1052400084B003468DF8073000230393039B002BA3
:1052500014BF01230023DBB2184604B070470000DE
:1052600000B583B001238DF80730194A1949012090
:1052700011F0DDF81848FFF7A9FF03468DF8073055
:105280009DF80730002B11D0134800F00FF90346AA
:105290001A461249012011F0CAF80F4B1B680093FF
:1052A000009806F0C5FD03468DF807309DF80730DD
:1052B00083F00103DBB2002B04D029F02CF9034664
:1052C0008DF807309DF80730184603B05DF804FBF1
:1052D00040787D019CFD04083C010020B4FD0408D9
:1052E00030B58BB0CDE9000100230993DDE900233F
:1052F00013432ED04FF000024FF00003CDE90423FA
:105300001DF062FFCDE904014FF000024FF00003F1
:10531000CDE902234FF000024FF00003CDE9062350
:105320000FE01DF051FFCDE90201DDE90201DDE9E9
:105330000423841A61EB0305CDE90645099B01337B
:105340000993DDE90601DDE90023904271EB0303D7
:10535000E7D3099B18460BB030BD00B587B001906C
:1053600000230593019B002B17D0002303931DF00E
:1053700099FE0390002302930023049309E01DF09B
:1053800091FE0290029A039BD31A0493059B01336A
:105390000593049A019B9A42F1D3059B184607B0E6
:1053A0005DF804FB30B587B001904FF000024FF07C
:1053B0000003CDE9042300230393002303930BE0B0
:1053C00006F05EFBDDE90423141843EB0105CDE98B
:1053D0000445039B01330393039A019B9A42EFD345
:1053E000DDE904231046194607B030BD84B00346FA
:1053F0008DF807300D4B03939DF80730042B0CD02C
:10540000042B0DDC012B02D0022B03D008E0084B4B
:10541000039306E0074B039303E0074B039300E07D
:1054200000BF039B184604B0704700BF88FE040805
:1054300094FE0408A4FE0408B4FE040884B00346E5
:105440008DF80730144B03939DF80730062B1DD8B9
:1054500001A252F823F000BF815401088D540108C5
:10546000875401088D5401088D54010875540108B2
:105470007B540108094B039309E0094B039306E0B1
:10548000084B039303E0084B039300E000BF039B2A
:10549000184604B0704700BF88FE0408B8FE040830
:1054A000C0FE0408C8FE0408D0FE040800B585B09C
:1054B00003902949294832F0FBF9039B002B46D081
:1054C000039B0093254B264AFA21244832F000F929
:1054D000039B1B680093214B224AFA211F4832F09C
:1054E000F7F8039B5B7900931C4B1F4AFA211B487A
:1054F00032F0EEF8039B9B680093184B1B4AFA218D
:10550000164832F0E5F8039B9B890093134B184A29
:10551000FA21124832F0DCF8039B9B7B00930F4B7F
:10552000144AFA210D4832F0D3F8039B1B6900930B
:105530000A4B114AFA21094832F0CAF8039B5B6909
:105540000093064B0D4AFA21044832F0C1F8034B90
:10555000184605B05DF804FBD8FE04089C2F002017
:10556000F4FE040804FF040818FF040828FF0408D8
:1055700038FF040848FF04085CFF04086CFF0408B7
:1055800000B583B000238DF807300948FFF78EFF80
:1055900003461A460749012010F049FF01238DF800
:1055A00007309DF80730184603B05DF804FB00BFD4
:1055B0003C0100207CFF040800B585B001900091FB
:1055C00000238DF80F3000238DF80E30019B002B47
:1055D00011DD009B1B680DF10E02114618460DF0FF
:1055E000F0F903468DF80F309DF80F30214A194627
:1055F000062011F013F89DF80F30002B33D0019BDB
:10560000012B0FD19DF80E301846FFF719FE034607
:105610008DF80F309DF80F30174A1946062010F00C
:10562000FDFF20E000238DF80D300DF10D0318462D
:10563000FFF7FCFD03468DF80F309DF80F300F4A41
:105640001946062010F0EAFF9DF80F30002B0AD013
:105650009DF80D301846FFF7C9FE03461A46084963
:10566000062010F001FF9DF80F30184605B05DF8D8
:1056700004FB00BF80FF040888FF040890FF0408B3
:1056800098FF040800B585B00190009100238DF8C3
:105690000F30FFF775FF03468DF80F309DF80F3080
:1056A000184605B05DF804FB00B589B00190009183
:1056B00000238DF81F3000230393019B012B10D191
:1056C000009B1B6803AA114618460CF0AFFE034668
:1056D0008DF81F309DF81F30174A1946062010F02C
:1056E0009DFF9DF81F30002B1CD000238DF81F302C
:1056F0004FF000024FF00003CDE904230F490720CB
:1057000010F0B2FE039B1846FFF74CFECDE90401F2
:10571000DDE904230A49072010F0A6FE01238DF8D5
:105720001F3003E00749072010F015FF9DF81F30D8
:10573000184609B05DF804FBA0FF0408ACFF04089C
:10574000B4FF0408C0FF040800B585B001900091C3
:1057500000238DF80F30019B012B2DD100230293E4
:10576000009B1B6802AA114618460CF05FFE034618
:105770008DF80F309DF80F3083F00103DBB2002B62
:1057800006D0009B1B681A461049072010F0E3FE64
:105790009DF80F30002B13D00D49072010F064FE48
:1057A000029B18461DF08AFD03468DF80F3009490B
:1057B000072010F059FE03E00749072010F0CBFE48
:1057C0009DF80F30184605B05DF804FBD4FF0408BF
:1057D000ACFF0408E8FF0408ECFF040800B585B03E
:1057E0000190009100238DF80F30019B002B0CD10C
:1057F00001238DF80F30002302931DF053FC02901B
:105800000299074811F05EFC03E00649072010F0FA
:10581000A2FE9DF80F30184605B05DF804FB00BFEE
:10582000000005081000050800B585B00190009142
:1058300000238DF80F302E4B0293019B002B02DBCF
:1058400001238DF80F30019B002B10DD009B1B689E
:1058500002AA114618460CF0E9FD03468DF80F30F8
:105860009DF80F30234A1946062010F0D7FE9DF808
:105870000F30002B32D0019B002B03D0019B012B5A
:105880000FD027E006F0C8FA03460293029B1846A1
:105890000FF04EFD03461A461749062010F0E4FDAE
:1058A00020E0029B18460FF043FD03461A461349B9
:1058B000062010F0D9FD029B184606F0B9FA0346FF
:1058C0008DF80F309DF80F300D4A1946062010F064
:1058D000A5FE07E000238DF80F3003E009490720FB
:1058E00010F039FE9DF80F30184605B05DF804FB46
:1058F00000E1F5051C000508280005083C00050826
