:020000040800F2
:10000000000002202DBC0208A996000817970008DE
:100010001B9700081D9700081F97000800000000AC
:100020000000000000000000000000002197000810
:10003000299700080000000025970008379700085E
:10004000AF96000813970008039700080797000869
:10005000F7960008B3960008B3970008BF9700080A
:10006000CB970008D7970008E3970008FF96000891
:10007000BB960008BF960008C3960008C796000804
:10008000CB960008CF960008B79600087DBC020802
:100090007DBC02087DBC02087DBC0208EF97000809
:1000A000B19800084D980008719800087D980008E4
:1000B0008998000895980008A1980008C198000840
:1000C000BD980008C9980008C59800082B9700083B
:1000D0002F970008499700086B9700088D97000834
:1000E000139800087DBC02080F970008619800086B
:1000F00065980008699800086D980008D396000874
:10010000AB96000845970008AD98000833970008A3
:100110007DBC02080B970008599800085D980008FC
:10012000D7960008DB960008DF960008E3960008E3
:10013000E79600087DBC02087DBC02087DBC020871
:100140007DBC02087DBC02087DBC02083D98000809
:10015000EB960008EF960008F396000891970008C8
:10016000CD980008D19800084198000845980008EB
:100170007DBC0208499800087DBC02080000000010
:08018000D5980008FB96000869
:1001C00010B5054C237833B9044B13B10448AFF391
:1001D00000800123237010BD68290020000000006A
:1001E0003C57030808B5034B1BB103490348AFF361
:1001F000008008BD000000006C2900203C57030867
:1002000081F0004102E000BF83F0004330B54FEAC7
:1002100041044FEA430594EA050F08BF90EA020F34
:100220001FBF54EA000C55EA020C7FEA645C7FEAC7
:10023000655C00F0E2804FEA5454D4EB5555B8BFEA
:100240006D420CDD2C4480EA020281EA030382EA5B
:10025000000083EA010180EA020281EA0303362DED
:1002600088BF30BD11F0004F4FEA01314FF4801CC0
:100270004CEA113102D0404261EB410113F0004FD2
:100280004FEA03334CEA133302D0524263EB430389
:1002900094EA050F00F0A780A4F10104D5F1200E27
:1002A0000DDB02FA0EFC22FA05F2801841F1000182
:1002B00003FA0EF2801843FA05F359410EE0A5F156
:1002C00020050EF1200E012A03FA0EFC28BF4CF087
:1002D000020C43FA05F3C01851EBE37101F000453D
:1002E00007D54FF0000EDCF1000C7EEB00006EEB4A
:1002F0000101B1F5801F1BD3B1F5001F0CD34908D4
:100300005FEA30004FEA3C0C04F101044FEA44522A
:1003100012F5800F80F09A80BCF1004F08BF5FEAB1
:10032000500C50F1000041EB045141EA050130BD91
:100330005FEA4C0C404141EB0101013C28BFB1F5A3
:10034000801FE9D291F0000F04BF01460020B1FAEE
:1003500081F308BF2033A3F10B03B3F120020CDAC1
:100360000C3208DD02F1140CC2F10C0201FA0CF09F
:1003700021FA02F10CE002F11402D8BFC2F1200C04
:1003800001FA02F120FA0CFCDCBF41EA0C019040BA
:10039000E41AA2BF01EB0451294330BD6FEA040403
:1003A0001F3C1CDA0C340EDC04F11404C4F12002EE
:1003B00020FA04F001FA02F340EA030021FA04F300
:1003C00045EA030130BDC4F10C04C4F1200220FA57
:1003D00002F001FA04F340EA0300294630BD21FA95
:1003E00004F0294630BD94F0000F83F4801306BF5B
:1003F00081F480110134013D4EE77FEA645C18BF4F
:100400007FEA655C29D094EA050F08BF90EA020FE5
:1004100005D054EA000C04BF1946104630BD91EADD
:10042000030F1EBF0021002030BD5FEA545C05D1E0
:100430004000494128BF41F0004130BD14F580041F
:100440003CBF01F5801130BD01F0004545F0FE4193
:1004500041F470014FF0000030BD7FEA645C1ABFC8
:10046000194610467FEA655C1CBF0B46024650EAFF
:10047000013406BF52EA033591EA030F41F400212B
:1004800030BD00BF90F0000F04BF0021704730B5B1
:100490004FF4806404F132044FF000054FF0000186
:1004A00050E700BF90F0000F04BF0021704730B547
:1004B0004FF4806404F1320410F0004548BF40421C
:1004C0004FF000013EE700BF42004FEAE2014FEA71
:1004D00031014FEA02701FBF12F07F4393F07F4F4C
:1004E00081F06051704732F07F4208BF704793F04F
:1004F0007F4F04BF41F40021704730B54FF4607462
:1005000001F0004521F000411CE700BF50EA010264
:1005100008BF704730B54FF000050AE050EA01020D
:1005200008BF704730B511F0004502D5404261EB7D
:1005300041014FF4806404F132045FEA915C3FF4BE
:10054000D8AE4FF003025FEADC0C18BF03325FEA5B
:10055000DC0C18BF033202EBDC02C2F1200300FA0C
:1005600003FC20FA02F001FA03FE40EA0E0021FA31
:1005700002F11444BDE600BF70B54FF0FF0C4CF41F
:10058000E06C1CEA11541DBF1CEA135594EA0C0FD1
:1005900095EA0C0F00F0DEF82C4481EA030621EA0C
:1005A0004C5123EA4C5350EA013518BF52EA033547
:1005B00041F4801143F4801338D0A0FB02CE4FF0F9
:1005C0000005E1FB02E506F00042E0FB03E54FF029
:1005D0000006E1FB03569CF0000F18BF4EF0010E21
:1005E000A4F1FF04B6F5007F64F5407404D25FEA1D
:1005F0004E0E6D4146EB060642EAC62141EA5551D0
:100600004FEAC52040EA5E504FEACE2EB4F1FD0C11
:1006100088BFBCF5E06F1ED8BEF1004F08BF5FEA8F
:10062000500E50F1000041EB045170BD06F0004641
:1006300046EA010140EA020081EA0301B4EB5C04EE
:10064000C2BFD4EB0C0541EA045170BD41F48011E6
:100650004FF0000E013C00F3AB8014F1360FDEBF0B
:10066000002001F0004170BDC4F10004203C35DAE7
:100670000C341BDC04F11404C4F1200500FA05F36A
:1006800020FA04F001FA05F240EA020001F000420B
:1006900021F0004110EBD37021FA04F642EB060181
:1006A0005EEA430E08BF20EAD37070BDC4F10C04AB
:1006B000C4F1200500FA04F320FA05F001FA04F26F
:1006C00040EA020001F0004110EBD37041F100015B
:1006D0005EEA430E08BF20EAD37070BDC4F1200566
:1006E00000FA05F24EEA020E20FA04F301FA05F2CE
:1006F00043EA020321FA04F001F0004121FA04F276
:1007000020EA020000EBD3705EEA430E08BF20EA45
:10071000D37070BD94F0000F0FD101F0004640007F
:1007200041EB010111F4801F08BF013CF7D041EA01
:10073000060195F0000F18BF704703F00046520005
:1007400043EB030313F4801F08BF013DF7D043EAD6
:100750000603704794EA0C0F0CEA135518BF95EA8C
:100760000C0F0CD050EA410618BF52EA4306D1D113
:1007700081EA030101F000414FF0000070BD50EA32
:10078000410606BF1046194652EA430619D094EABC
:100790000C0F02D150EA013613D195EA0C0F05D1A6
:1007A00052EA03361CBF104619460AD181EA0301FA
:1007B00001F0004141F0FE4141F470014FF00000B2
:1007C00070BD41F0FE4141F4780170BD70B54FF04D
:1007D000FF0C4CF4E06C1CEA11541DBF1CEA1355CD
:1007E00094EA0C0F95EA0C0F00F0A7F8A4EB0504AF
:1007F00081EA030E52EA03354FEA013100F08880A6
:100800004FEA03334FF0805545EA131343EA12636E
:100810004FEA022245EA111545EA10654FEA002623
:100820000EF000419D4208BF964244F1FD0404F5DC
:10083000407402D25B084FEA3202B61A65EB030538
:100840005B084FEA32024FF480104FF4002CB6EBF5
:10085000020E75EB030E22BFB61A754640EA0C0075
:100860005B084FEA3202B6EB020E75EB030E22BFB5
:10087000B61A754640EA5C005B084FEA3202B6EBF6
:10088000020E75EB030E22BFB61A754640EA9C00B5
:100890005B084FEA3202B6EB020E75EB030E22BF85
:1008A000B61A754640EADC0055EA060E18D04FEA43
:1008B000051545EA16754FEA06164FEAC30343EAE3
:1008C00052734FEAC2025FEA1C1CC0D111F4801FB0
:1008D0000BD141EA00014FF000004FF0004CB6E7A9
:1008E00011F4801F04BF01430020B4F1FD0C88BF48
:1008F000BCF5E06F3FF6AFAEB5EB030C04BFB6EB53
:10090000020C5FEA500C50F1000041EB045170BD45
:100910000EF0004E4EEA113114EB5C04C2BFD4EB72
:100920000C0541EA045170BD41F480114FF0000EF6
:10093000013C90E645EA060E8DE60CEA135594EA72
:100940000C0F08BF95EA0C0F3FF43BAF94EA0C0F75
:100950000AD150EA01347FF434AF95EA0C0F7FF4EA
:1009600025AF104619462CE795EA0C0F06D152EA3E
:1009700003353FF4FDAE1046194622E750EA410622
:1009800018BF52EA43067FF4C5AE50EA41047FF433
:100990000DAF52EA43057FF4EBAE12E74FF0FF3C98
:1009A00006E000BF4FF0010C02E000BF4FF0010C69
:1009B0004DF804CD4FEA410C7FEA6C5C4FEA430CE2
:1009C00018BF7FEA6C5C1BD001B050EA410C0CBF31
:1009D00052EA430C91EA030F02BF90EA020F002093
:1009E000704710F1000F91EA030F58BF994208BFFA
:1009F00090422CBFD8176FEAE37040F001007047B7
:100A00004FEA410C7FEA6C5C02D150EA013C07D10D
:100A10004FEA430C7FEA6C5CD6D152EA033CD3D058
:100A20005DF8040B704700BF8446104662468C4652
:100A30001946634600E000BF01B5FFF7B7FF002885
:100A400048BF10F1000F01BD4DF808EDFFF7F4FFAE
:100A50000CBF012000205DF808FB00BF4DF808ED39
:100A6000FFF7EAFF34BF012000205DF808FB00BF5C
:100A70004DF808EDFFF7E0FF94BF012000205DF87E
:100A800008FB00BF4DF808EDFFF7CEFF94BF012033
:100A900000205DF808FB00BF4DF808EDFFF7C4FF2C
:100AA00034BF012000205DF808FB00BF4FEA410C75
:100AB0007FEA6C5C02D150EA013C0AD14FEA430C58
:100AC0007FEA6C5C02D152EA033C02D14FF0000095
:100AD00070474FF0010070474FEA410212F50012D3
:100AE00015D211D56FF47873B3EB625212D94FEA75
:100AF000C12343F0004343EA505311F0004F23FA5F
:100B000002F018BF404270474FF00000704750EAB3
:100B1000013005D111F0004008BF6FF00040704770
:100B20004FF00000704700BF4A0011D212F50012CA
:100B300011D20DD56FF47873B3EB62520ED44FEA35
:100B4000C12343F0004343EA505323FA02F07047B5
:100B50004FF00000704750EA013002D14FF0FF30F3
:100B600070474FF0000070474FEA4102B2F1E04396
:100B700024BFB3F5001CDCF1FE5C0DD901F0004C84
:100B80004FEAC0024CEA5070B2F1004F40EB8300D4
:100B900008BF20F00100704711F0804F21D113F100
:100BA0003872BCBF01F00040704741F480114FEA39
:100BB0005252C2F11802C2F1200C10FA0CF320FAC2
:100BC00002F018BF40F001004FEAC1234FEAD323DF
:100BD00003FA0CFC40EA0C0023FA02F34FEA430349
:100BE000CCE77FEA625307D150EA01331EBF4FF0D2
:100BF000FE4040F44000704701F0004040F0FE40ED
:100C000040F40000704700BF80F0004002E000BFE9
:100C100081F0004142001FBF5FEA410392EA030FE7
:100C20007FEA226C7FEA236C6AD04FEA1262D2EB31
:100C30001363C1BFD218414048404140B8BF5B4236
:100C4000192B88BF704710F0004F40F4000020F0CF
:100C50007F4018BF404211F0004F41F4000121F0E5
:100C60007F4118BF494292EA030F3FD0A2F101022F
:100C700041FA03FC10EB0C00C3F1200301FA03F16D
:100C800000F0004302D5494260EB4000B0F5000F90
:100C900013D3B0F1807F06D340084FEA310102F14F
:100CA0000102FE2A51D2B1F1004F40EBC25008BF01
:100CB00020F0010040EA03007047490040EB0000CB
:100CC000013A28BFB0F5000FEDD2B0FA80FCACF1CC
:100CD000080CB2EB0C0200FA0CF0AABF00EBC250F9
:100CE00052421843BCBFD0401843704792F0000FE7
:100CF00081F4000106BF80F400000132013BB5E73A
:100D00004FEA41037FEA226C18BF7FEA236C21D0AF
:100D100092EA030F04D092F0000F08BF0846704714
:100D200090EA010F1CBF0020704712F07F4F04D1E2
:100D3000400028BF40F00040704712F100723CBFF5
:100D400000F50000704700F0004343F0FE4040F41F
:100D5000000070477FEA226216BF08467FEA2363DD
:100D60000146420206BF5FEA412390EA010F40F4C8
:100D7000800070474FF0000304E000BF10F0004314
:100D800048BF40425FEA000C08BF704743F09643FB
:100D900001464FF000001CE050EA010208BF704716
:100DA0004FF000030AE000BF50EA010208BF70479D
:100DB00011F0004302D5404261EB41015FEA010CB2
:100DC00002BF84460146002043F0B64308BFA3F1AA
:100DD0008053A3F50003BCFA8CF2083AA3EBC2538C
:100DE00010DB01FA02FC634400FA02FCC2F12002AB
:100DF000BCF1004F20FA02F243EB020008BF20F0E2
:100E00000100704702F1200201FA02FCC2F1200247
:100E100050EA4C0021FA02F243EB020008BF20EA3C
:100E2000DC70704753B94AB9002908BF00281CBFBD
:100E30004FF0FF314FF0FF3000F0B2B9ADF1080CC8
:100E40006DE904CE00F044F8DDF804E0DDE90223AA
:100E500004B07047D0B5FFF737FB0C4B00220646B5
:100E60000F46FFF789FBFFF75FFE0446FFF70AFB1B
:100E7000074B0022FFF780FB02460B4630463946FF
:100E8000FFF7C2F9FFF750FE2146D0BD0000F03D4C
:100E90000000F041D0B50C4B002206460F46FFF78C
:100EA0006BFBFFF741FE0446FFF7ECFA074B00220D
:100EB000FFF762FB02460B4630463946FFF7A4F9BE
:100EC000FFF732FE2146D0BD0000F03D0000F041AA
:100ED0002DE9F047089D04468E46002B4DD18A42ED
:100EE000944669D9B2FA82F252B101FA02F3C2F120
:100EF000200120FA01F10CFA02FC41EA030E9440B1
:100F00004FEA1C48210CBEFBF8F61FFA8CF708FBD1
:100F100016E341EA034306FB07F199420AD91CEBA9
:100F2000030306F1FF3080F01F81994240F21C81DB
:100F3000023E63445B1AA4B2B3FBF8F008FB103323
:100F400044EA034400FB07F7A7420AD91CEB040458
:100F500000F1FF3380F00A81A74240F20781644428
:100F6000023840EA0640E41B00261DB1D4400023AD
:100F7000C5E900433146BDE8F0878B4209D9002D11
:100F800000F0EF800026C5E9000130463146BDE89B
:100F9000F087B3FA83F6002E4AD18B4202D3824205
:100FA00000F2F980841A61EB030301209E46002DB4
:100FB000E0D0C5E9004EDDE702B9FFDEB2FA82F209
:100FC000002A40F09280A1EB0C014FEA1C471FFA67
:100FD0008CFE0126200CB1FBF7F307FB131140EA4E
:100FE00001410EFB03F0884208D91CEB010103F11B
:100FF000FF3802D2884200F2CB804346091AA4B2DD
:10100000B1FBF7F007FB101144EA01440EFB00FEB0
:10101000A64508D91CEB040400F1FF3102D2A64515
:1010200000F2BB800846A4EB0E0440EA03409CE7B4
:10103000C6F12007B34022FA07FC4CEA030C20FA61
:1010400007F401FA06F31C43F9404FEA1C4900FA81
:1010500006F3B1FBF9F8200C1FFA8CFE09FB1811FE
:1010600040EA014108FB0EF0884202FA06F20BD971
:101070001CEB010108F1FF3A80F08880884240F2C1
:101080008580A8F102086144091AA4B2B1FBF9F005
:1010900009FB101144EA014100FB0EFE8E4508D900
:1010A0001CEB010100F1FF346CD28E456AD9023885
:1010B000614440EA0840A0FB0294A1EB0E01A1426A
:1010C000C846A64656D353D05DB1B3EB080261EBD8
:1010D0000E0101FA07F722FA06F3F1401F43C5E9B2
:1010E000007100263146BDE8F087C2F12003D840E8
:1010F0000CFA02FC21FA03F3914001434FEA1C472A
:101100001FFA8CFEB3FBF7F007FB10360B0C43EA1B
:10111000064300FB0EF69E4204FA02F408D91CEBCB
:10112000030300F1FF382FD29E422DD902386344C9
:101130009B1B89B2B3FBF7F607FB163341EA034169
:1011400006FB0EF38B4208D91CEB010106F1FF38B8
:1011500016D28B4214D9023E6144C91A46EA0046AF
:1011600038E72E46284605E70646E3E61846F8E641
:101170004B45A9D2B9EB020864EB0C0E0138A3E78A
:101180004646EAE7204694E74046D1E7D0467BE76B
:10119000023B614432E7304609E76444023842E7E3
:1011A000704700BF844641EA000313F003036DD18A
:1011B000403A41D351F8043B40F8043B51F8043B1A
:1011C00040F8043B51F8043B40F8043B51F8043B21
:1011D00040F8043B51F8043B40F8043B51F8043B11
:1011E00040F8043B51F8043B40F8043B51F8043B01
:1011F00040F8043B51F8043B40F8043B51F8043BF1
:1012000040F8043B51F8043B40F8043B51F8043BE0
:1012100040F8043B51F8043B40F8043B51F8043BD0
:1012200040F8043B51F8043B40F8043B51F8043BC0
:1012300040F8043B403ABDD2303211D351F8043B60
:1012400040F8043B51F8043B40F8043B51F8043BA0
:1012500040F8043B51F8043B40F8043B103AEDD20F
:101260000C3205D351F8043B40F8043B043AF9D260
:10127000043208D0D2071CBF11F8013B00F8013B33
:1012800001D30B8803806046704700BF082A13D340
:101290008B078DD010F003038AD0C3F10403D21A58
:1012A000DB071CBF11F8013B00F8013B80D331F88C
:1012B000023B20F8023B7BE7043AD9D3013A11F80C
:1012C000013B00F8013BF9D20B7803704B78437077
:1012D0008B788370604670470000000000000000BB
:1012E000A2EB0300704700BF02780B78012A28BFE9
:1012F0009A42F5D16DE9044540EA0104CDE902675F
:101300006FF0000C4FEA447212B380EA010414F04B
:10131000070F6AD100F0070420F0070004F003056E
:1013200021F007014FEAC505F0E8042314F0040F8B
:10133000F1E804670CFA05F462EA040266EA0406BE
:101340000AD063EA0403624667EA0407664603E0DC
:10135000F0E80423F1E8046782FA4CF582EA060417
:10136000A4FA8CF46CBB83FA4CF583EA0705A5FA62
:101370008CF595B950E9022351E9026782FA4CF5E0
:1013800082EA0604A4FA8CF483FA4CF583EA070592
:10139000A5FA8CF52543DBD09CB92DBAB5FA85F4B6
:1013A00024F0070427FA04F1DDE9026723FA04F3C5
:1013B00003F0FF0001F0FF01FDE80445A0EB010090
:1013C000704724BAB4FA84F424F0070426FA04F12E
:1013D000DDE9026722FA04F202F0FF0001F0FF01EA
:1013E000FDE80445A0EB0100704714F0030F3CD169
:1013F00010F0030428D150F8082B51F8083B82FA6A
:101400004CF582EA0305A5FA8CF55DB950F8042C79
:1014100051F8043C82FA4CF582EA0305A5FA8CF5F2
:10142000002DE8D02DBAB5FA85F424F0070423FA8C
:1014300004F122FA04F202F0FF0001F0FF01FDE8DE
:101440000445A0EB010070474FEAC40420F00300FC
:1014500050F8082B21F0030151F8083B0CFA04F472
:1014600062EA040263EA0403C9E710F003041AD035
:10147000A1EB040120F00300E40750F8042B06D090
:101480000FD28B785FFAA2F4E41A06D12BB1CB7895
:101490005FFAB2F4E41A00D11BB920465DF8104B94
:1014A000704701F1040150F8042BCC0721F003012F
:1014B00051F8043B48D824D222F07F4482FA4CF5FC
:1014C00094EA1325A5FA8CF50AD165B951F8043BC5
:1014D00084EA0204B4EB036F0ED150F8042BEBE75F
:1014E0004FEA132355E035F07F454DD10878FDE8EC
:1014F0000445C0F1000070474FEA126203F0FF0399
:1015000047E002EA1C4482FA4CF594EA1345A5FA36
:101510008CF50AD165B951F8043B84EA0204B4EBB6
:10152000034F0CD150F8042BEBE74FEA134330E0A4
:1015300015EA1C4528D10B884FEA124229E04FEAF0
:10154000124203EA1C4324E002F0FF0482FA4CF545
:1015500094EA1365A5FA8CF50AD165B951F8043BF4
:1015600084EA0204B4EB032F09D150F8042BEBE713
:101570004FEA13630DE015F0FF0F05D10B684FEA3A
:10158000122223F07F4304E04FF00000FDE8044501
:10159000704712BA1BBA82FA4CF482EA0304A4FA26
:1015A0008CF5B5FA85F402FA04F203FA04F34FEA73
:1015B0001260FDE80445A0EB1360704700000000D6
:1015C00090F800F06DE9024520F007016FF0000C83
:1015D00010F0070491F820F040F049804FF000042B
:1015E0006FF00700D1E9002391F840F000F1080006
:1015F00082FA4CF2A4FA8CF283FA4CF3A2FA8CF33E
:101600004BBBD1E9022382FA4CF200F10800A4FAA4
:101610008CF283FA4CF3A2FA8CF3E3B9D1E90423F8
:1016200082FA4CF200F10800A4FA8CF283FA4CF32F
:10163000A2FA8CF37BB9D1E9062301F1200182FAE9
:101640004CF200F10800A4FA8CF283FA4CF3A2FAEF
:101650008CF3002BC6D0002A04BF04301A4612BAFD
:10166000B2FA82F2FDE8024500EBD2007047D1E900
:10167000002304F00305C4F100004FEAC50514F08F
:10168000040F91F840F00CFA05F562EA05021CBF60
:1016900063EA050362464FF00004A9E7000000007A
:1016A00001F0FF01102A2BDB10F0070F08D010F813
:1016B000013B013A8B422DD010F0070F42B3F6D117
:1016C000F0B441EA012141EA014122F007047FF030
:1016D00000070023F0E80256083C85EA010586EA87
:1016E000010685FA47F5A3FA87F586FA47F6A5FAC3
:1016F00087F68EB9EED1F0BC01F0FF0102F00702CF
:1017000032B110F8013B013A83EA010313B1F8D179
:101710000020704701387047002D06BF354603385A
:10172000073815F0010F07D1013015F4807F02BF93
:10173000013015F4C03F0130F0BC0138704700BFE4
:1017400082B00023019316230193019B184602B037
:101750007047000000B595B001238DF84F3007ABFE
:101760003022002118462CF003F902AB00221A6047
:101770005A609A60DA601A61002301932B4B1B6C4C
:101780002A4A43F080531364284B1B6C03F08053A8
:101790000193019B00230093254B1B68244A43F4CB
:1017A00080431360224B1B6803F480430093009B2B
:1017B000092307934FF48033089301230C930223EA
:1017C0000D934FF480030E9308230F93C0231093BF
:1017D000042311930423129307AB184625F046FB0C
:1017E0000346002B02D000238DF84F309DF84F3078
:1017F000002B15D00F23029302230393002304939D
:101800004FF4805305930023069302AB0121184641
:1018100025F090FE0346002B02D000238DF84F30B8
:101820009DF84F30184615B05DF804FB00380240B3
:101830000070004000B583B001238DF80730084ADE
:101840000849282011F033FAFFF784FF03468DF88A
:1018500007309DF80730184603B05DF804FB00BF61
:1018600000127A007057030884B000230393012309
:10187000029301230193029A019B9A4201D1029B98
:101880000393039B184604B070470000064BD3F83F
:101890008830054A43F47003C2F88830024B4FF099
:1018A00000629A6000BF704700ED00E082B0002344
:1018B000019300230193019B184602B0704784B046
:1018C0000023039300230293002301930123029337
:1018D00001230193029A019B9A4201D1029B039337
:1018E000039B184604B0704701231846704782B026
:1018F000002301930023009301230093009B019395
:10190000019B184602B0704782B000230193012367
:101910000193019B184602B0704700B583B00023C5
:101920008DF8073000F0B4F903468DF807309DF8C4
:101930000730184603B05DF804FB000082B00023B6
:1019400000936B460193054B1B68019A9A4202D2A1
:10195000024A019B136000BF02B07047CC06002012
:1019600000B587B0019000238DF81730FFF7CCFF4A
:101970000390002304930023049328E01949049A58
:1019800013465B0013449B000B441B68019A9A4268
:101990001AD31449049A13465B0013449B000B446A
:1019A00019681048049A13465B0013449B000344D3
:1019B00004331B680B440293019A029B9A4203D2A0
:1019C00001238DF8173006E0049B01330493049A39
:1019D000039B9A42D2D39DF81730184607B05DF8A2
:1019E00004FB00BFA4E5030800B583B000238DF815
:1019F00007300949082011F05AF94FF47A701DF0A8
:101A000075F800F04FF903468DF807309DF8073060
:101A1000184603B05DF804FB145803082DE9F00FD5
:101A200086B0019001238DF81730002304934FF006
:101A300000024FF00003CDE902230023049313E0DA
:101A4000019A049B06339B0013445B6800221E46E8
:101A50001746DDE9022312EB060A43EB070BCDE93B
:101A600002AB049B01330493049B032BE8D9019B35
:101A70005B6B00221C461546DDE9022312EB0408CD
:101A800043EB0509CDE90289DDE90223134303D1C4
:101A900001238DF8173002E000238DF817309DF8F0
:101AA0001730184606B0BDE8F00F704700B585B096
:101AB000019001238DF80F300198FFF7AFFF034627
:101AC0008DF80F309DF80F3083F00103DBB2002B4F
:101AD00004D0019A4D49012011F090F89DF80F3083
:101AE000002B13D0019B1B681846FFF739FF0346F4
:101AF0008DF80F309DF80F3083F00103DBB2002B1F
:101B000004D0019A4249012011F078F89DF80F3075
:101B1000002B15D0019B5B68184602F00DFD0346B3
:101B20008DF80F309DF80F3083F00103DBB2002BEE
:101B300006D0019B5B681A463649012011F05EF819
:101B40009DF80F30002B07D0019BDB68184602F090
:101B5000F3FC03468DF80F309DF80F30002B07D0B3
:101B6000019B1B69184602F0E7FC03468DF80F3015
:101B70009DF80F30002B07D0019B5B69184602F0DF
:101B8000DBFC03468DF80F309DF80F30002B07D09B
:101B9000019B9B69184602F0CFFC03468DF80F307D
:101BA0009DF80F30002B07D0019B1B6B184602F0ED
:101BB000C3FC03468DF80F309DF80F30002B07D083
:101BC000019BDB6A184602F0B7FC03468DF80F3024
:101BD0009DF80F30002B07D0019B9B6B184602F03D
:101BE000ABFC03468DF80F309DF80F30002B07D06B
:101BF000019B9B68184602F09FFC03468DF80F304E
:101C00009DF80F30184605B05DF804FB2058030816
:101C10003C5803085858030800B585B001900023CC
:101C20008DF80F30019B02930298FFF73FFF0346A8
:101C30008DF80F309DF80F30184605B05DF804FBA5
:101C400082B001238DF80730064BD3F88830054A5F
:101C500043F47003C2F888309DF80730184602B08C
:101C6000704700BF00ED00E0BFF34F8F00BF064B91
:101C7000DB6803F4E0620449044B1343CB60BFF319
:101C80004F8F00BF00BFFDE700ED00E00400FA0544
:101C900082B000238DF807309DF80730184602B057
:101CA0007047000000B583B001238DF80730054967
:101CB000282010F0FCFF0AF07FF972B600BFFFF792
:101CC000D3FF00BFF458030886B0019000238DF8BD
:101CD000173072B600BF01230393039B83F3108870
:101CE00000BF0E4A019B936000230493049B83F37F
:101CF000108800BF62B600BF084B9B68019A9A42E9
:101D000003D101238DF8173002E000238DF817303E
:101D10009DF81730184606B0704700BF00ED00E090
:101D200000B583B000238DF807304FF00060FFF757
:101D3000CBFF03468DF807309DF80730184603B0F7
:101D40005DF804FB82B003468DF807309DF907303B
:101D5000002B13DB9DF8073003F01F0209499DF9A2
:101D600007305B09012000FA02F2203341F82320FA
:101D7000BFF34F8F00BFBFF36F8F00BF00BF02B034
:101D8000704700BF00E100E000B583B001238DF88B
:101D9000063000238DF80730F2238DF807300BE072
:101DA0009DF907301846FFF7CDFF9DF90730DBB2EC
:101DB0000133DBB28DF807309DF90730512BEFDD91
:101DC0009DF80630184603B05DF804FB84B0034666
:101DD0008DF807300F4B03930023029300230293E7
:101DE00011E09DF907200C49029BDB000B441B7995
:101DF0009A4205D1084A029B52F83330039305E01A
:101E0000029B01330293029B0F2BEAD9039B1846D6
:101E100004B07047305A0308B0E5030830B583B00A
:101E2000012000F015F80190019B002B0DD0019BC3
:101E30001B695A1C019B1A61019BD3E90623541CA0
:101E400043F10005019BC3E9064500BF03B030BD67
:101E500000B587B003468DF80730002305930023B3
:101E60000493FFF741FD03900023049323E01649F8
:101E7000049A13469B001344DB000B4405331B7884
:101E80009DF807209A4213D10F49049A13469B00EC
:101E90001344DB000B4407331B78002B08D0049A53
:101EA00013469B001344DB00074A1344059306E0E6
:101EB000049B01330493049A039B9A42D7D3059B56
:101EC000184607B05DF804FB7800002000B587B025
:101ED00003468DF807300023059300230493FFF792
:101EE00003FD0390002304931AE0134A049B1B0193
:101EF000134405331B789DF807209A420DD10E4AF2
:101F0000049B1B01134407331B78002B0DD0049B4B
:101F10001B01094A1344059307E0049B0133049312
:101F2000049A039B9A42E0D300E000BF059B184649
:101F300007B05DF804FB00BFE4E4030800B583B01C
:101F400001238DF807300AF065FD03468DF8073050
:101F50009DF80730184603B05DF804FB84B001908B
:101F600000238DF80F30019B002B10D001238DF83A
:101F70000F30019B1B68002B02D100238DF80F301E
:101F8000019B9B68002B02D100238DF80F309DF838
:101F90000F30184604B0704700B587B0019000912B
:101FA00000238DF81730019B002B00F091800198E1
:101FB000FFF7D4FF03468DF817309DF81730002B3C
:101FC00000F08680009B002B00F08280019B9A68C5
:101FD000009B9A60019B5A79009B5A71019B1A7968
:101FE000009B1A71019B1A68009B1A60009B0022DB
:101FF0001A6100994FF000024FF00003C1E9062377
:10200000019B9B68002B63D00AF042FD0490049B67
:10201000002B5DD0019B9A68009B9A60019B1B6816
:1020200007EE903AF8EE677ADFED2C6A87EEA67A33
:10203000049B07EE903AF8EE677A67EE277ACDEDCB
:10204000037ADDED037AFCEEE77A17EE902A009B27
:102050009B6822F07F4291B29888002001439980CA
:10206000120CD2B2997900210A439A71009B9B68A5
:102070001A8900221A819A7A00229A720023029306
:102080009DF8083043F001038DF808309DF80830C2
:102090006FF341038DF80830019B9B7903F0010336
:1020A000DAB29DF8083062F382038DF80830019BA4
:1020B0001B79002B05D09DF8083043F002038DF802
:1020C0000830009B9B68029A1A6001238DF8173034
:1020D0009DF81730184607B05DF804FB00007A44FD
:1020E00000B583B000238DF807300120FFF7B0FE64
:1020F0000090009B002B0ED0009B9B68002B0AD009
:10210000009B9B681B68C3F30003DBB2002B02D06B
:1021100001238DF807309DF80730184603B05DF8AD
:1021200004FB00B583B00120FFF792FE0190019BF4
:10213000002B13D0019B9B681B6800939DF8003017
:102140006FF300038DF800309DF800306FF341030A
:102150008DF80030019B9B68009A1A600123184695
:1021600003B05DF804FB00B587B0019000238DF843
:1021700017300120FFF76CFE0490049B002B1AD04F
:1021800000230393019B23F07F439AB200210A436B
:10219000ADF80C201B0CDBB2002213438DF80E307F
:1021A000049B9B68002B06D0049B9B68039A5A6093
:1021B00001238DF817309DF81730184607B05DF8E9
:1021C00004FB00002DE9F04385B00120FFF740FE3D
:1021D0000390039B002B4AD0039B1B690022984667
:1021E0009146CDE90089264BD3E900232549C1E971
:1021F0000023DDE9000102460B464FF000084FF0D6
:1022000000094FEA431949EAD2694FEA42184246A7
:102210004B46141A63EB01054FF000024FF0000328
:10222000AB0043EA9473A20014461D46261845EB02
:1022300001074FF000024FF00003FB0043EA567322
:10224000F20016461F4632463B460D49C1E90023BF
:102250000B4BD3E900010B4BD3E90023904271EB08
:10226000030304D2039BDB685A1C039BDA60044B14
:10227000D3E900231046194605B0BDE8F08300BF3E
:10228000C8290020D029002000B585B00023039381
:102290000120FFF7DDFD0290029B002B10D0FFF71D
:1022A0001FFF03468DF807309DF80730002B04D13F
:1022B000029BDB685A1C029BDA60029B1B6903933A
:1022C000039B184605B05DF804FB00B587B00346D4
:1022D0008DF8073001238DF817309DF80730184628
:1022E000FFF7F4FD0490049B002B0FD09DF80730FE
:1022F0001846FFF7ADFD0390039B002B06D0039912
:102300000498FFF749FE03468DF817309DF8173003
:10231000184607B05DF804FB00B585B001238DF8C1
:102320000F30FFF70BFE03468DF80F3000230293AA
:10233000FFF7DAFA0090002301930023019311E0E4
:10234000019BDBB21846FFF7C0FF03468DF80F3044
:102350009DF80F30002B02D0029B01330293019BAA
:1023600001330193019A009B9A42E9D9029B002B09
:1023700003D001238DF80F3002E000238DF80F30D9
:102380009DF80F30184605B05DF804FB00B587B026
:1023900003468DF80730002305930023049324F0AF
:1023A00086F903900023049323E01649049A134608
:1023B0009B001344DB000B440B331B789DF8072074
:1023C0009A4213D10F49049A13469B001344DB0031
:1023D0000B440C331B78002B08D0049A13469B0047
:1023E0001344DB00074A1344059306E0049B0133C2
:1023F0000493049A039B9A42D7D3059B184607B0CF
:102400005DF804FB4009002000B587B003468DF855
:102410000730002305930023049324F048F9039028
:10242000002304931AE0134A049B1B0113440B334B
:102430001B789DF807209A420DD10E4A049B1B0180
:1024400013440C331B78002B0DD0049B1B01094A4D
:102450001344059307E0049B01330493049A039B00
:102460009A42E0D300E000BF059B184607B05DF834
:1024700004FB00BFF4FF030800B585B00190002302
:102480008DF80F30019B002B10D001238DF80F30F9
:10249000019B5B68002B09D100238DF80F30019B55
:1024A000DB7A1A460449342010F01EFC9DF80F30E8
:1024B000184605B05DF804FB345A030800B583B034
:1024C00000238DF80730054A0549342010F0D2FB6F
:1024D0009DF80730184603B05DF804FB405A030826
:1024E000445A030884B08DED010A01238DF80F30A2
:1024F000DDED017AF5EEC07AF1EE10FA03DD02238C
:102500008DF80F3002E003238DF80F309DF80F3067
:10251000184604B07047000000B585B001900B4626
:102520008DF8033000238DF80F309DF80330023B07
:102530006A2B00F2EF8101A252F823F0DB28000899
:102540001529000827280008352800084328000816
:10255000F7260008512800085F2800086D280008A9
:10256000332700087B2800088928000897280008DE
:10257000E926000815290008172800081529000871
:102580001529000815290008152900081529000833
:102590001529000815290008152900081529000823
:1025A0001529000815290008152900081529000813
:1025B0006F270008152900081529000815290008AB
:1025C00015290008152900081529000815290008F3
:1025D00015290008152900081529000815290008E3
:1025E0001529000815290008A72700081529000843
:1025F00015290008152900081529000815290008C3
:1026000015290008152900081529000815290008B2
:1026100015290008152900081529000815290008A2
:102620001529000815290008152900081529000892
:102630001529000815290008152900081529000882
:10264000152900081529000815290008FD2800088B
:10265000152900081529000815290008FD2800087B
:1026600087270008152900081529000815290008E2
:102670001529000815290008152900081529000842
:102680001529000815290008152900081529000832
:1026900015290008C7270008152900081529000872
:1026A0001529000815290008152900081529000812
:1026B00015290008EF270008FF270008CB2800088D
:1026C0001529000815290008B32800081529000855
:1026D00015290008152900081529000815290008E2
:1026E00015290008A5280008019B01229A730123DF
:1026F0008DF80F3012E1019BD3ED007AB7EE007A2E
:1027000077EE877A019BC3ED007A019BD3ED007AC7
:102710009FED851ADFED850AB0EE670A1DF026FCF5
:10272000F0EE407A019BC3ED007A01238DF80F3063
:10273000F4E0019BD3ED007AB7EE007A77EEC77A2A
:10274000019BC3ED007A019BD3ED007A9FED761AD1
:10275000DFED760AB0EE670A1DF008FCF0EE407A75
:10276000019BC3ED007A01238DF80F30D6E0019B69
:102770001A68019B1A61019B1A68019B5A61012327
:102780008DF80F30CAE0019BD3ED007AF1EE677A45
:10279000019BC3ED047A019B1A68019B5A610123D6
:1027A0008DF80F30BAE0019B1A68019B1A61019BFA
:1027B000D3ED007AF1EE677A019BC3ED057A012330
:1027C0008DF80F30AAE0019BD3ED007AF1EE677A25
:1027D000019BC3ED047A019BD3ED007AF1EE677A99
:1027E000019BC3ED057A01238DF80F3096E0019B24
:1027F0001A68019B5A6101238DF80F308EE0019B0E
:10280000D3ED007AF1EE677A019BC3ED057A0123DF
:102810008DF80F3082E0019B4FF000021A60012317
:102820008DF80F307AE0019B414A1A6001238DF840
:102830000F3073E0019B3F4A1A6001238DF80F307F
:102840006CE0019B3C4A1A6001238DF80F3065E073
:10285000019B3A4A1A6001238DF80F305EE0019B1C
:10286000374A1A6001238DF80F3057E0019B354A33
:102870001A6001238DF80F3050E0019B324A1A6034
:1028800001238DF80F3049E0019B304A1A60012383
:102890008DF80F3042E0019B2D4A1A6001238DF81C
:1028A0000F303BE0019B2B4A1A6001238DF80F305B
:1028B00034E0019BD3ED007AF1EE677A019BC3ED22
:1028C000047A01238DF80F3028E0019B1A68019BE0
:1028D0001A6101238DF80F3020E0FFF785F80346D9
:1028E0008DF80F30019B4FF000025A61019B4FF0B1
:1028F00000021A6101238DF80F300FE0019B4FF0A9
:1029000000025A61019B4FF000021A6101238DF809
:102910000F3003E000238DF80F3000BF9DF80F301B
:10292000184605B05DF804FB0000C8420000000036
:10293000000020410000A0410000F04100002042C2
:10294000000048420000704200008C420000A0429B
:102950000000B4420000C84200B585B001900023D9
:102960008DF80F30019B1B7A184613F097FE0290EA
:10297000029B002B1BD0029BDB68002B17D0029B15
:1029800093F8203019460198FFF7C6FD03468DF8ED
:102990000F301BF0D7FE0246019B9A61029B00227A
:1029A00083F82020029BDB685A1E029BDA609DF8A8
:1029B0000F30184605B05DF804FB000000B585B087
:1029C000019001238DF80F301BF0BCFE0290019B9B
:1029D0009B69029AD21A019BDA61019BDB69C3F5FC
:1029E000BB630433019A1362019B1B6A002B18DA44
:1029F000019B4FF000021A61019B4FF000025A61E7
:102A0000019B0022DA61019B00221A62019B5B7A22
:102A10009FED070A042118461CF00AFB03468DF8B7
:102A20000F309DF80F30184605B05DF804FB00BF6D
:102A30000000000000B585B0019000238DF80F3034
:102A4000019BD3ED047AB0EE670AFFF74BFD034616
:102A50008DF80E30019B9A7A019BD3ED047AF0EE4B
:102A6000E77A9DF80E30B0EE670A194610461CF062
:102A7000DFFA03468DF80F30019BD3ED057AB0EEF7
:102A8000670AFFF72FFD03468DF80D30019B5A7A38
:102A9000019BD3ED057AF0EEE77A9DF80D30B0EEAC
:102AA000670A194610461CF0C3FA03468DF80F302A
:102AB000019B9B7B002B0AD04FF4FA71012015F08B
:102AC000DBF903468DF80F30019B00229A739DF8C5
:102AD0000F30184605B05DF804FB000030B589B032
:102AE00003468DED040ACDED030A8DF8173000235F
:102AF0008DF81F300498FDF7E7FC04460D46039857
:102B0000FDF7E2FC02460B46CDE9002322462B46A8
:102B10000F49342010F072F89DF817301846FFF76F
:102B200035FC0690069B002B0DD0069B039A1A617C
:102B3000069B049A5A611BF005FE0246069B9A61A9
:102B400001238DF81F309DF81F30184609B030BDA5
:102B5000505A030800B585B003468DF807300023AE
:102B60008DF80F309DF807301846FFF70FFC0290E4
:102B7000029B002B1FD0029800F080F903461A46F2
:102B80001049342010F03AF80298FFF7E5FE0346AA
:102B90008DF80F300298FFF711FF03468DF80F30C4
:102BA0000298FFF747FF03468DF80F30029B5B6AE0
:102BB0005A1C029B5A629DF80F30184605B05DF80A
:102BC00004FB00BF785A030884B0019000910023F1
:102BD0008DF80F30019B002B19D0009B002B16D0D5
:102BE000019B5A68009B5A60019B1A7A009B1A72DB
:102BF000019B5A7A009B5A72019B1A68009B1A60CB
:102C0000019B9A7A009B9A7201238DF80F309DF8F0
:102C10000F30184604B0704700B587B003468DF8F2
:102C2000073000238DF817309DF807301A462B49DE
:102C3000342010F03CF89DF807301846FFF7E4FB0D
:102C40000490049B002B3CD00498FFF715FC03462E
:102C50008DF817309DF81730002B2AD0049800F01B
:102C6000B5F803461A461E49342010F020F89DF8A6
:102C700007301846FFF78AFB0390039B002B10D008
:102C800003990498FFF7A0FF03468DF81730039BC4
:102C900001221A73039B01225A7301238DF8173006
:102CA00016E09DF807301A460E49342010F01CF843
:102CB0000EE09DF807301A460B49342010F014F846
:102CC00006E09DF807301A46074934200FF078FFD8
:102CD0009DF81730184607B05DF804FB805A0308CA
:102CE0008C5A0308905A03089C5A030800B585B013
:102CF00001238DF80F30FFF7E1FB03468DF80F300D
:102D00000023029323F0D3FC0090002301930023BF
:102D1000019311E0019BDBB21846FFF77DFF0346EC
:102D20008DF80F309DF80F30002B02D0029B01333D
:102D30000293019B01330193019A009B9A42E9D9C6
:102D4000029B002B03D001238DF80F3002E00023FB
:102D50008DF80F309DF80F30184605B05DF804FB74
:102D600000B585B000238DF80F3023F0A0FC009053
:102D700000230293002301930023019311E0019BA0
:102D8000DBB21846FFF7E6FE03468DF80F309DF8DC
:102D90000F30002B02D0029B01330293019B0133C1
:102DA0000193019A009B9A42E9D9029B002B03D020
:102DB00001238DF80F3002E000238DF80F309DF8CD
:102DC0000F30184605B05DF804FB000000B585B073
:102DD0000390039B002B3ED0214B00221A70039BD3
:102DE000DB7A00931E4B1F4AFA211D482AF044FE4D
:102DF000039B5B7A00931A4B1B4AFA2118482AF06E
:102E00003BFE039B9B7A0093154B184AFA2114480A
:102E10002AF032FE039B1B681846FDF755FB02465D
:102E20000B46CDE900230E4B114AFA210C482AF03B
:102E300023FE039B5B680093094B0E4AFA21084866
:102E40002AF01AFE039B1B7A0093054B0A4AFA21CB
:102E500003482AF011FE024B184605B05DF804FB4A
:102E6000902C0020AC5A0308B45A0308C05A030837
:102E7000CC5A0308DC5A0308E85A030800B585B0A9
:102E80000390039B002B57D02E4B00221A70039BFC
:102E9000DB7A00932B4B2C4AFA212A482AF0ECFDCE
:102EA000039B5B6A0093274B284AFA2125482AF0A6
:102EB000E3FD039B1B691846FDF706FB02460B4624
:102EC000CDE900231F4B224AFA211E482AF0D4FDE7
:102ED000039B5B691846FDF7F7FA02460B46CDE9FE
:102EE0000023184B1B4AFA2116482AF0C5FD039B04
:102EF0001B681846FDF7E8FA02460B46CDE90023A9
:102F0000104B154AFA210F482AF0B6FD039B1B6AA5
:102F100000930C4B114AFA210A482AF0ADFD039B9D
:102F20005B7B18461CF070FD03460093054B0C4A72
:102F3000FA2104482AF0A0FD024B184605B05DF8BE
:102F400004FB00BF902C0020AC5A0308F45A03087D
:102F5000005B0308105B0308CC5A0308205B0308DE
:102F6000305B030800B585B000238DF80F300120D9
:102F7000FFF70CFA0290029B002B0BD00298FFF790
:102F80007DFF03461A46104934200FF073FE0123DB
:102F90008DF80F300120FFF737FA0190019B002BCD
:102FA0000BD00198FFF712FF03461A46064934205A
:102FB0000FF060FE01238DF80F309DF80F3018469A
:102FC00005B05DF804FB00BF3C5B030800B587B0AB
:102FD0000190009100238DF8173001238DF81630F1
:102FE0004FF0000304934FF000030393019B002B69
:102FF00002DB01238DF81730019B002B11DD009BB4
:103000001B680DF11602114618460CF01AFB034618
:103010008DF817309DF817302A4A194634200FF0E2
:10302000C5FE019B012B11DD009B04331B6803AA25
:10303000114618460CF060FE03468DF817309DF8D7
:103040001730214A194634200FF0B0FE019B022BA5
:1030500011DD009B08331B6804AA114618460CF0CA
:103060004BFE03468DF817309DF81730174A194666
:1030700034200FF09BFE9DF81730002B17D09DF8E1
:103080001630DDED037A9DED047AF0EE470AB0EEDE
:10309000670A1846FFF722FD03468DF817309DF8A2
:1030A00017300B4A194634200FF080FE03E009491F
:1030B00034200FF019FE9DF81730184607B05DF860
:1030C00004FB00BF405B0308445B0308505B03083C
:1030D0005C5B0308645B030800B585B00190009158
:1030E00000238DF80F30019B002B02DB01238DF8AC
:1030F0000F309DF80F30002B0CD0FFF733FF034645
:103100008DF80F309DF80F30074A194634200FF024
:103110004DFE03E0054934200FF0E6FD9DF80F3029
:10312000184605B05DF804FB705B0308785B030884
:1031300000B585B00190009100238DF80F30019B00
:10314000002B0BD1FFF7D2FD03468DF80F309DF811
:103150000F30054A194634200FF028FE9DF80F3035
:10316000184605B05DF804FB845B030830B58BB0EE
:10317000CDE9000100230993DDE9002313432ED09C
:103180004FF000024FF00003CDE904231BF044FB95
:10319000CDE904014FF000024FF00003CDE9022316
:1031A0004FF000024FF00003CDE906230FE01BF0C3
:1031B00033FBCDE90201DDE90201DDE90423841AD4
:1031C00061EB0305CDE90645099B01330993DDE970
:1031D0000601DDE90023904271EB0303E7D3099B6D
:1031E00018460BB030BD00B587B0019000230593A1
:1031F000019B002B17D0002303931BF0A3FA03902D
:10320000002302930023049309E01BF09BFA029031
:10321000029A039BD31A0493059B01330593049AE6
:10322000019B9A42F1D3059B184607B05DF804FB59
:1032300030B587B001904FF000024FF00003CDE9A8
:10324000042300230393002303930BE006F08BFB7E
:10325000DDE90423141843EB0105CDE90445039B84
:1032600001330393039A019B9A42EFD3DDE90423D0
:103270001046194607B030BD00B585B00190002357
:103280008DF80F3006F0A1FB029002980EF0ECFDD5
:1032900003461A46094906200FF0ECFC01980EF08F
:1032A000E3FD03461A46064906200FF0E3FC9DF8AD
:1032B0000F30184605B05DF804FB00BF3C5C030806
:1032C000505C030884B003468DF80730144B039319
:1032D0009DF80730062B1DD801A252F823F000BF3D
:1032E00009330008153300080F33000815330008B0
:1032F00015330008FD32000803330008094B03931F
:1033000009E0094B039306E0084B039303E0084BE5
:10331000039300E000BF039B184604B0704700BF52
:10332000645C0308705C0308785C0308805C030835
:10333000885C030884B00190009100238DF80F3061
:103340009DF80F30184604B07047000000B589B0F2
:103350000190009100238DF81F3000230393019BFF
:10336000012B17D1009B1B6803AA114618460BF0CE
:10337000F1FD03468DF81F309DF81F3083F00103E7
:10338000DBB2002B06D0009B1B681A461749282089
:103390000FF0AAFC9DF81F30002B1CD000238DF8E5
:1033A0001F304FF000024FF00003CDE90423104915
:1033B00028200FF05FFC039B1846FFF739FFCDE98B
:1033C0000401DDE904230B4928200FF053FC0123FD
:1033D0008DF81F3003E0084928200FF085FC9DF888
:1033E0001F30184609B05DF804FB00BFA85C030855
:1033F000BC5C0308C45C0308D05C030800B585B05E
:103400000190009100238DF80F30019B012B2DD1ED
:1034100000230293009B1B6802AA114618460BF07A
:1034200099FD03468DF80F309DF80F3083F00103AE
:10343000DBB2002B06D0009B1B681A4610492820DF
:103440000FF052FC9DF80F30002B13D00D492820AF
:103450000FF010FC029B18461BF00CFB03468DF886
:103460000F30094928200FF005FC03E00749282008
:103470000FF03AFC9DF80F30184605B05DF804FBDC
:10348000A85C0308BC5C0308E45C0308E85C030870
:1034900000B585B00190009100238DF80F30019B9D
:1034A000002B0CD101238DF80F30002302931BF069
:1034B00049F902900299074810F0B1F903E0064972
:1034C00028200FF011FC9DF80F30184605B05DF86C
:1034D00004FB00BFFC5C03080C5D030800B585B06D
:1034E0000190009100238DF80F30334B0293019B24
:1034F000002B02DB01238DF80F30019B002B17DD21
:10350000009B1B6802AA114618460BF023FD0346D8
:103510008DF80F309DF80F3083F00103DBB2002BE4
:1035200006D0009B1B681A46244928200FF0DCFBBC
:103530009DF80F30002B34D0019B002B03D0019B52
:10354000012B0FD031E006F040FA03460293029BB4
:1035500018460EF089FC03461A46194906200FF05A
:1035600089FB22E0029B18460EF07EFC03461A46B9
:10357000144906200FF07EFB029B1846FFF77CFEE5
:1035800003468DF80F309DF80F30002B04D00E4904
:1035900028200FF06FFB08E00C4928200FF0A4FB57
:1035A00003E00B4928200FF09FFB9DF80F301846D1
:1035B00005B05DF804FB00BF00E1F505185D0308E8
:1035C000305D0308445D0308585D0308605D03082F
:1035D000685D030800B587B003468DF80730002307
:1035E00005930023049323F07BF9039000230493B5
:1035F00022E01749049A13465B0013449B000B44D6
:103600001B789DF807209A4213D11149049A13465A
:103610005B0013449B000B4408331B78002B10D035
:10362000049A13465B0013449B00094A1344059314
:1036300007E0049B01330493049A039B9A42D8D376
:1036400000E000BF059B184607B05DF804FB00BF13
:10365000180A040800B587B003468DF80730002328
:1036600005930023049323F03BF903900023049374
:103670001FE0144A049B742101FB03F313441B78DD
:103680009DF807209A4211D10E4A049B742101FB38
:1036900003F3134408331B78002B07D0049B7422D8
:1036A00002FB03F3074A1344059306E0049B01332E
:1036B0000493049A039B9A42DBD3059B184607B0F8
:1036C0005DF804FB281E002000B587B003468DF886
:1036D0000730002305930023049323F023F903907C
:1036E0000023049320E0164A049B2C2101FB03F3E2
:1036F000134426331B789DF807209A4211D1104AB3
:10370000049B2C2101FB03F3134428331B78002B6B
:103710000FD0049B2C2202FB03F3094A13440593A8
:1037200007E0049B01330493049A039B9A42DAD383
:1037300000E000BF059B184607B05DF804FB00BF22
:10374000240A040800B587B003460A468DF80730FE
:1037500013468DF80630002305930023049323F0CD
:10376000E1F803900023049333E01E49049A1346C2
:10377000DB001344DB000B4428331B78DBB2002B47
:1037800024D01849049A1346DB001344DB000B4491
:1037900025331B78DBB29DF807209A4216D11149D8
:1037A000049A1346DB001344DB000B4424331B78DC
:1037B000DBB29DF806209A4208D1049A1346DB003A
:1037C0001344DB00074A1344059306E0049B0133CE
:1037D0000493049A039B9A42C7D3059B184607B0EB
:1037E0005DF804FB9C1E002000B583B003460092E8
:1037F0008DF807300B468DF80630054A0549032041
:103800000FF072FA0023184603B05DF804FB00BF06
:1038100030E60308905D030808B5044A0449032014
:103820000FF062FA0023184608BD00BF3CE603080B
:10383000905D030800B583B003468DF807300B4652
:103840008DF8063013468DF80530054A05490320EA
:103850000FF04AFA0023184603B05DF804FB00BFDE
:1038600054E60308905D030800B585B001238DF888
:103870000F30FFF7D1FF03468DF80F30002302937E
:1038800023F050F80090002301930023019311E0EE
:10389000019BDBB2184607F009FA03468DF80F309A
:1038A0009DF80F30002B02D0029B01330293019B45
:1038B00001330193019B082BEAD9029B002B03D013
:1038C00001238DF80F3002E000238DF80F309DF8B2
:1038D0000F30184605B05DF804FB00B585B0012334
:1038E0008DF80F3007F024FB03468DF80F300023CE
:1038F000029322F0F5FF009000230193002301932F
:1039000011E0019BDBB2184607F060FB03468DF81F
:103910000F309DF80F30002B02D0029B0133029331
:10392000019B01330193019B022BEAD9029B002BDF
:1039300003D001238DF80F3002E000238DF80F3003
:103940009DF80F30184605B05DF804FB84B00346BF
:103950008DF807300D4B03939DF80730032B0CD0E7
:10396000032B0DDC012B02D0022B03D008E0084B07
:10397000039306E0074B039303E0074B039300E038
:1039800000BF039B184604B0704700BFA45D030846
:10399000A85D0308B45D0308C05D030800B5A5B0C9
:1039A00000238DF88F300023229322F099FF21907D
:1039B000234B1B6820330322224918460FF0D0FB0B
:1039C0000023229329E0229BDBB21846FFF742FE38
:1039D0002090209B002B1DD002AB7C221A8002AAD3
:1039E00002A8229B00931346174A78212AF044F834
:1039F000209BDB6802AA02A800931346134A782191
:103A00002AF03AF802AB194611480FF008FF0123DB
:103A10008DF88F30229B01332293229A219B9A4268
:103A2000D1D9074B1B6820330322064918460FF0F3
:103A3000BFFA9DF88F30184625B05DF804FB00BF33
:103A40005819002060E60308C05E0308CC5E030836
:103A5000D85E030800B5A5B000238DF88F30002391
:103A6000ADF88C30574B1B68203309225649184655
:103A70000FF076FB0023ADF88A300023ADF88A30D2
:103A80008CE00023ADF88C307EE0BDF88A30DBB2EC
:103A9000BDF88C20D2B211461846FFF753FE219094
:103AA000219B002B6BD003AB7C221A80219B93F8C7
:103AB00025301A4603AB03A80092444A782129F026
:103AC000DBFF219B93F824301A4603AB03A8009236
:103AD0003E4A782129F0D0FF219B9B7C1846FFF7B6
:103AE00035FF024603AB03A80092394A782129F03A
:103AF000C3FF219B5B6B03AA03A800931346354ABF
:103B0000782129F0B9FF219B9B6B03AA03A800939E
:103B10001346304A782129F0AFFF219BDB6B03AAC3
:103B200003A8009313462B4A782129F0A5FF219B77
:103B30001B6C03AA03A800931346264A782129F098
:103B40009BFF219B93F844301A4603AB03A80092D5
:103B50001E4A782129F090FF219B93F827301A46BE
:103B600003AB03A80092194A782129F085FF03AB23
:103B7000194619480FF053FE01238DF88F30BDF818
:103B80008C300133ADF88C30BDF88C300E2B7FF6C5
:103B90007CAFBDF88A300133ADF88A30BDF88A3089
:103BA000022B7FF66EAF074B1B68203309220649B4
:103BB00018460FF0FDF99DF88F30184625B05DF8D6
:103BC00004FB00BF5819002078E60308C05E030814
:103BD000E05E0308EC5E0308D85E030800B585B01C
:103BE0000190009100238DF80F30019B002B02DB28
:103BF00001238DF80F309DF80F30002B05D0FFF713
:103C0000CDFE03468DF80F3003E0054928200FF064
:103C10006BF89DF80F30184605B05DF804FB00BF47
:103C2000345F030800B585B00190009101238DF841
:103C30000F30019B002B02DB01238DF80F309DF824
:103C40000F30002B05D0FFF705FF03468DF80F302E
:103C500003E0054928200FF047F89DF80F3018467B
:103C600005B05DF804FB00BF405F030800B587B0F6
:103C70000390029101238DF8173000238DF8163040
:103C800000238DF8153000238DF81430039B002B92
:103C900018DD029B1B680DF11602114618460BF049
:103CA000D0FC03468DF817309DF8173083F00103E0
:103CB000DBB2002B06D0029B1B681A464F49282016
:103CC0000FF012F8039B012B1ADD029B04331B68D3
:103CD0000DF11502114618460BF0B3FC03468DF8A2
:103CE00017309DF8173083F00103DBB2002B07D0AB
:103CF000029B04331B681A46414928200EF0F4FF4A
:103D0000039B022B19DD029B08331B6805AA114691
:103D100018460BF096FC03468DF817309DF81730C7
:103D200083F00103DBB2002B07D0029B08331B6832
:103D30001A46344928200EF0D7FF9DF81730002B83
:103D40004FD0039B022B03D0039B032B21D04EE0CB
:103D500000238DF814309DF816309DF8151005AA33
:103D60001846FFF741FD03468DF817309DF81730D0
:103D7000002B3BD09DF816301A469DF81530194699
:103D80009DF8143000930B461F4928200EF072FF57
:103D90002CE09DF816301A469DF8153019469DF80E
:103DA000143000930B46194928200EF063FF9DF84C
:103DB00016309DF815109DF814201846FFF73AFDAF
:103DC00003468DF817309DF81730002B04D01049AA
:103DD00028200EF04FFF0AE00E4928200EF084FF45
:103DE00005E00D4928200EF07FFF00E000BF9DF8A0
:103DF0001730184607B05DF804FB00BF4C5F03089E
:103E0000605F0308745F0308845F0308A45F03080E
:103E1000C45F0308CC5F0308D45F030800B587B014
:103E200003468DF80730002305930023049322F006
:103E30006CFC03900023049322E01649049A134675
:103E4000DB0013449B000B441B789DF807209A422B
:103E500013D11049049A1346DB0013449B000B4412
:103E600009331B78002B08D0049A1346DB00134457
:103E70009B00084A1344059306E0049B0133049316
:103E8000049A039B9A42D8D3059B184607B05DF865
:103E900004FB00BF280A002000B587B003468DF858
:103EA0000730002305930023049322F02EFC039097
:103EB0000023049322E01749049A13465B0013443D
:103EC0009B000B441B789DF807209A4213D111499F
:103ED000049A13465B0013449B000B4409331B7880
:103EE000002B10D0049A13465B0013449B00094A30
:103EF0001344059307E0049B01330493049A039B46
:103F00009A42D8D300E000BF059B184607B05DF881
:103F100004FB00BFC806040884B003468DF80730D0
:103F200000238DF80F309DF80730002B02D0012BB5
:103F300004D007E002238DF80F3007E003238DF84B
:103F40000F3003E000238DF80F3000BF9DF80F30D5
:103F5000184604B0704700B585B001238DF80F30C6
:103F600006F042FB03468DF80F300023029322F047
:103F7000CCFB0090002301930023019311E0019BEF
:103F8000DBB2184606F098FB03468DF80F309DF81B
:103F90000F30002B02D0029B01330293019B0133AF
:103FA0000193019B102BEAD9029B002B03D0012324
:103FB0008DF80F3002E000238DF80F309DF80F30A0
:103FC000184605B05DF804FB00B585B000238DF8F8
:103FD0000F3022F09AFB00900023029300230193FC
:103FE0000023019311E0019BDBB2184606F03AFB77
:103FF00003468DF80F309DF80F30002B02D0029B46
:1040000001330293019B01330193019B102BEAD9E9
:10401000029B002B03D001238DF80F3002E0002318
:104020008DF80F309DF80F30184605B05DF804FB91
:1040300084B0019000238DF80F30019B002B0AD033
:10404000019B1B695A1C019B1A61019B01221A7377
:1040500001238DF80F309DF80F30184604B07047DB
:1040600084B0019000238DF80F30019B002B0AD003
:10407000019B5B695A1C019B5A61019B01225A7387
:1040800001238DF80F309DF80F30184604B07047AB
:1040900084B003468DF80730124B03939DF8073028
:1040A000013B032B16D801A252F823F0BD400008B3
:1040B000C3400008C9400008CF4000080A4B0393E2
:1040C0000BE00A4B039308E0094B039305E0094B0F
:1040D000039302E0034B039300BF039B184604B015
:1040E000704700BFF45F0308F85F0308006003082F
:1040F000086003081060030800B585B00390039BB7
:10410000002B36D0039B1B781A461C491C4829F00B
:10411000F7FC039BD87800F017FE03460093184B7A
:10412000184AFA21164829F0A7FC039B5B68009304
:10413000134B154AFA21124829F09EFC039BDB69B8
:1041400000930F4B114AFA210D4829F095FC039B6F
:104150001B6900930A4B0E4AFA21094829F08CFC8E
:10416000039B5B690093064B0A4AFA21044829F035
:1041700083FC034B184605B05DF804FB1860030888
:10418000902C0020206003082C6003083460030892
:10419000406003084C60030800B585B00390039BA2
:1041A000002B3ED0039B1B781A462049204829F05B
:1041B000A7FC039B1B7A1846FFF76AFF0346009390
:1041C0001B4B1C4AFA211A4829F056FC039BD8784D
:1041D00000F0BAFD03460093154B174AFA21144824
:1041E00029F04AFC039B9B7818461BF00DFC034604
:1041F00000930F4B114AFA210D4829F03DFC039B17
:104200005B7800930A4B0E4AFA21094829F034FCE6
:10421000039B5B680093064B0A4AFA21044829F085
:104220002BFC034B184605B05DF804FB186003082F
:10423000902C002058600308206003086460030885
:10424000706003082C60030800B5A5B000238DF84A
:104250008E3000238DF88F300023039304AB74223B
:104260000021184629F084FB4B4B1B6820330822A1
:104270004A4918460EF074FF00238DF88F3079E01C
:104280009DF88F301846FFF7C9FD2290229B002B26
:104290006BD003AB7C221A809DF88F3003AA03A851
:1042A000009313463E4A782129F0E6FB229BD878FA
:1042B00000F04AFD024603AB03A80092394A782178
:1042C00029F0DAFB229B1B7A1846FFF7E1FE024633
:1042D00003AB03A80092344A782129F0CDFB229B3E
:1042E000DB6903AA03A800931346304A782129F01A
:1042F000C3FB229B1B6903AA03A8009313462B4A06
:10430000782129F0B9FB229B5B6903AA03A80093DB
:104310001346264A782129F0AFFB229B9B6903AA0A
:1043200003A800931346214A782129F0A5FB9DF8A4
:104330008F301846FFF7B0FD2190219B002B09D04C
:10434000219B5B6803AA03A800931346184A7821AF
:1043500029F092FB03AB03A8164A782129F08CFBC5
:1043600003AB194614480FF05AFA9DF88F30013309
:104370008DF88F309DF88F300F2B81D9064B1B683D
:1043800020330822054918460EF012FE9DF88E30A3
:10439000184625B05DF804FB58190020C0E6030854
:1043A000806003088C60030898600308A460030819
:1043B000B0600308BC6003087C60030800B585B0EA
:1043C0000190009100238DF80F30FFF73DFF034669
:1043D0008DF80F309DF80F30184605B05DF804FBDE
:1043E00000B585B00190009100238DF80F300023B7
:1043F0008DF80E30019B002B0ADD009B1B680DF130
:104400000E02114618460BF01CF903468DF80F30CA
:104410009DF80F30002B07D09DF80E30184606F09F
:104420004BF903468DF80F309DF80F30184605B054
:104430005DF804FB00B585B0019000238DF80F30C6
:10444000019B002B03D001238DF80F3006E0354986
:1044500021200EF049FC00238DF80F309DF80F301D
:10446000002B22D0019B1B7F002B0FD0019B9B694F
:10447000002B03D001238DF80F3016E02A492120AC
:104480000EF032FC00238DF80F300EE0019B1B690B
:10449000002B03D001238DF80F3006E023492120A3
:1044A0000EF022FC00238DF80F309DF80F30002B0A
:1044B0000ED0019B5B69002B03D001238DF80F30D8
:1044C00006E01B4921200EF00FFC00238DF80F3071
:1044D0009DF80F30002B02D001238DF80F309DF88E
:1044E0000F30002B02D001238DF80F309DF80F30D4
:1044F000002B02D001238DF80F309DF80F30002BD8
:104500000AD0019B5B68002B06D10A4921200EF0DE
:10451000EBFB00238DF80F309DF80F30184605B0E7
:104520005DF804FBE8600308F46003080861030811
:10453000186103082C61030884B0019000238DF8F2
:104540000F300C4B1B68019A9A420BD3094B5A68E7
:10455000084B1B681344019A9A4206D201238DF836
:104560000F3002E000238DF80F309DF80F30184611
:1045700004B0704784E5030800B585B00190009150
:1045800000238DF80F30019B002B5DD00198FFF7C1
:1045900051FF03468DF80F309DF80F30012B00D0EE
:1045A000FEE79DF80F30002B4ED000238DF80F3022
:1045B000009B002B48D0019B1A68009B1A62019B4C
:1045C0005A68009B5A62019B9A68009B9A62019B01
:1045D000DA68009BDA62019B5A69009B5A63019B6F
:1045E0009A69009B9A63019B5A7F009B83F83D2048
:1045F000019B1A7F009B83F83C2001238DF80F302C
:10460000009B01221A80009B0A229A70009B0122C3
:10461000DA70009B4FF0FF325A60009B00229A60D4
:10462000009B0022DA60009B00221A61009BFF229F
:104630001A75009B4FF6FF72DA82009B4FF0FF3233
:104640009A61009B00221A779DF80F30184605B03A
:104650005DF804FB00B585B00190009100238DF852
:104660000F3000238DF80D3000238DF80E3000231D
:104670008DF80C30019B1B680DF10D021146184698
:104680000AF0DFFF03468DF80F309DF80F3083F0FE
:104690000103DBB2002B07D0019B1B681A4643497C
:1046A00013200EF021FB15E09DF80E3001338DF83C
:1046B0000E309DF80D301A463D4913200EF0DAFAFF
:1046C0009DF80D3003F00F03D9B2009A137861F30F
:1046D00007131370019B04331B6803AA1146184685
:1046E0000AF0AFFF03468DF80F309DF80F3083F0CE
:1046F0000103DBB2002B08D0019B04331A680F239F
:104700002C4913200EF0F0FA2CE09DF80E30013306
:104710008DF80E309DF80C301A46274913200EF004
:10472000A9FA9DF80C300F2B11D89DF80C301A46C1
:10473000224913200EF09EFA9DF80C3003F00F036F
:10474000D9B2009A137861F3030313700AE00023CF
:104750008DF80F309DF80C301A460F23184913209E
:104760000EF0C2FA9DF80E30022B11D19DF80F30D9
:10477000002B0DD0009B187800F0E6FA03461A468D
:10478000104913200EF076FA01238DF80F3006E061
:104790000D4913200EF0A8FA00238DF80F309DF874
:1047A0000F30184605B05DF804FB00BF98610308A0
:1047B000AC610308BC610308D8610308E861030821
:1047C000F4610308086203081462030884B0034616
:1047D0008DF807300B468DF8063013468DF80530FE
:1047E00000238DF80F309DF80F30184604B0704745
:1047F00084B08DF80400009100238DF80F309DF8EF
:104800000F30184604B0704700B585B000238DF80E
:104810000F30284913200EF04AFA06F055FD002308
:1048200002930023019321F024FF009000230293C0
:1048300028E0029A1346DB0013449B001E4A1344EF
:10484000184607F085F903468DF80F309DF80F30B4
:10485000002B03D0019B0133019310E01649029A0B
:104860001346DB0013449B000B440433187800F01C
:104870006BFA03461A46114913200EF035FA029BD3
:1048800001330293029A009B9A42D2D3009A019B71
:104890009A4203D101238DF80F3005E0009B019A65
:1048A000074913200EF020FA9DF80F30184605B086
:1048B0005DF804FB6C620308A4FD0308746203083E
:1048C0008062030882B08DF804000B468DF8073033
:1048D0000023184602B0704784B003468DF80730B5
:1048E00002238DF80F309DF80730002B02D0012BEA
:1048F00004D007E001238DF80F3003E000238DF88A
:104900000F3000BF9DF80F30184604B0704700B557
:1049100085B08DF8040000238DF80F3002238DF848
:104920000D300DF10D0319469DF8040006F0E4FE6C
:1049300003468DF80F309DF80F30002B11D09DF8F5
:104940000D301846FFF7C8FF03468DF80E309DF86E
:104950000E3019469DF8040006F0F6FE03468DF869
:104960000F309DF80F30184605B05DF804FB84B099
:1049700003468DF8073000238DF80F309DF807307F
:10498000013B122B03D801238DF80F3003E00123E4
:104990008DF80F3000BF9DF80F30184604B07047F7
:1049A00000B587B003468DF8073000238DF8173027
:1049B00000230493002302930023039321F059FE64
:1049C00002900023049312E01349049A1346DB007B
:1049D00013449B000B4404331B789DF807209A4234
:1049E00002D1039B01330393049B01330493049A84
:1049F000029B9A42E8D3039B012B03D101238DF83C
:104A0000173002E000238DF817309DF81730184654
:104A100007B05DF804FB00BFA4FD030800B587B034
:104A20008DF804001A4B059321F023FE0390002318
:104A30008DF8133000238DF813301EE09DF804101C
:104A40009DF8132013481346DB0013449B000344D6
:104A500004331B7899420BD19DF813200D4913465E
:104A6000DB0013449B000B4414331B68059309E0DF
:104A70009DF8133001338DF813309DF81330039AED
:104A80009A42DBD8059B184607B05DF804FB00BFCF
:104A900090620308A4FD030884B003468DF8073034
:104AA000104B03939DF80730013B032B16D801A24E
:104AB00052F823F0C54A0008CB4A0008D14A000842
:104AC000D74A0008084B039308E0084B039305E01E
:104AD000074B039302E0074B039300BF039B184669
:104AE00004B070479462030898620308A062030848
:104AF000A4620308A862030884B003468DF8073057
:104B0000124B03939DF80730032B17D801A252F8DC
:104B100023F000BF374B0008314B00082B4B000837
:104B2000254B00080A4B03930BE00A4B039308E064
:104B3000094B039305E0094B039302E0034B0393F6
:104B400000BF039B184604B0704700BF946203087F
:104B5000B8620308C0620308C4620308C86203089D
:104B600084B003468DF807301A4B03939DF8073045
:104B7000072B2BD801A252F823F000BFC74B000827
:104B8000A34B0008A94B0008AF4B0008B54B000829
:104B9000BB4B0008C14B00089D4B00080E4B039314
:104BA00014E00E4B039311E00D4B03930EE00D4BFD
:104BB00003930BE00C4B039308E00C4B039305E0CD
:104BC0000B4B039302E0034B039300BF039B184678
:104BD00004B0704794620308D0620308C4620308FB
:104BE000D4620308DC620308E462030890620308ED
:104BF000E862030884B003468DF807301D4B039329
:104C00009DF80730082B30D801A252F823F000BFDE
:104C1000654C0008354C00083B4C0008414C00082E
:104C2000474C00084D4C0008534C0008594C0008F4
:104C30005F4C0008104B039317E0104B039314E0F4
:104C40000F4B039311E00F4B03930EE00E4B0393B6
:104C50000BE00E4B039308E00D4B039305E00D4B67
:104C6000039302E0034B039300BF039B184604B079
:104C7000704700BF94620308F0620308F8620308FB
:104C80000063030808630308D0620308C4620308D2
:104C9000B86203081063030884B003468DF8073038
:104CA0001E4B03939DF80730082B30D801A252F811
:104CB00023F000BFD94C0008DF4C0008E54C000889
:104CC000EB4C0008F14C0008F74C0008FD4C0008C4
:104CD000034D0008094D0008114B03931AE0114BD6
:104CE000039317E0104B039314E0104B039311E070
:104CF0000F4B03930EE00F4B03930BE00E4B03930C
:104D000008E00E4B039305E00D4B039302E00D4BBF
:104D1000039300BF039B184604B0704794620308D6
:104D200014630308186303081C6303082063030863
:104D300024630308286303082C6303083063030813
:104D400034630308F062030800B585B08DF80C00E9
:104D500007220021144828F00BFE9DF80C0006F0F5
:104D6000E2FE0346002B15D09DF80C30C3F303136D
:104D7000DBB21846FFF790FF02469DF80C30C3F3F4
:104D80000303DBB200931346084A0721064828F0C4
:104D900073FE04E0064A0721034828F06DFE024B2B
:104DA000184605B05DF804FBD829002038630308D5
:104DB0004063030884B003468DF80730084B039323
:104DC0009DF80730002B04D0012B05D1054B039330
:104DD00002E0054B039300BF039B184604B07047E5
:104DE00094620308306303084463030810B584B079
:104DF0008DF80400194B039300238DF80B3000232A
:104E00008DF80B301EE09DF80B2015491346DB0092
:104E100013449B000B4404331A789DF804309A42E3
:104E20000BD19DF80B200E491346DB0013449B0069
:104E30000B4408331B6803930BE09DF80B300133E0
:104E40008DF80B309DF80B4021F013FC03469C427B
:104E5000D9D3039B184604B010BD00BF9462030869
:104E6000A4FD030810B584B00190009100238DF8D3
:104E70000F3000238DF80C3000238DF80B30019B90
:104E8000012B07DD03AB19460098FFF7E3FB034650
:104E90008DF80F30019B022B1ADD009B08331B6835
:104EA0000DF10B02114618460AF0CBFB03468DF8B4
:104EB0000F309DF80F3083F00103DBB2002B07D0D9
:104EC000009B08331B681A46374913200DF00CFF6E
:104ED0009DF80F30002B5ED0019B022B03D0019B6D
:104EE000032B18D05BE09DF80C0006F04DFB034649
:104EF0008DF80B309DF80C00FFF726FF04469DF857
:104F00000B301846FFF72CFE034622462749132094
:104F10000DF0B0FE43E09DF80C00FFF715FF0446CE
:104F20009DF80B301846FFF71BFE0346224620492A
:104F300013200DF0BCFE9DF80B3019469DF80C00B7
:104F4000FFF7C0FC03468DF80F309DF80F30002BA3
:104F500010D09DF80C00FFF7F7FE04469DF80B30CB
:104F60001846FFF7FDFD03462246124913200DF0B7
:104F700081FE14E09DF80C00FFF7E6FE04469DF864
:104F80000B301846FFF7ECFD034622460A49132072
:104F90000DF0AAFE03E0094913200DF0A5FE9DF8CF
:104FA0000F30184604B010BD2464030838640308A9
:104FB0004C64030860640308706403088064030899
:104FC00000B585B00190009100238DF80F30FF23CC
:104FD0008DF80E3000238DF80C30019B012B07DD7E
:104FE00003AB19460098FFF735FB03468DF80F30E9
:104FF0009DF80F30002B20D00DF10E0319469DF8BF
:105000000C0006F079FB03468DF80F309DF80F3049
:1050100083F00103DBB2002B04D0124913200DF002
:1050200063FE0AE09DF80C00FFF78EFE02469DF835
:105030000E300D4913200DF01DFE019B022B0BD0ED
:105040000A4913200DF050FE094913200DF012FEFD
:10505000084913200DF00EFE9DF80F30184605B0DC
:105060005DF804FB98640308A8640308B0640308AF
:10507000C4640308D464030830B587B00390029178
:1050800000238DF8173005238DF8153000238DF897
:105090001430039B012B07DD05AB19460298FFF77F
:1050A000D9FA03468DF81730039B022B1ADD029BB9
:1050B00008331B680DF11502114618460AF0C1FAB3
:1050C00003468DF817309DF8173083F00103DBB2EB
:1050D000002B07D0029B08331B681A46394913205E
:1050E0000DF002FE9DF81730002B52D0039B022BCF
:1050F00003D0039B032B1CD05EE09DF8140006F048
:1051000023FC03468DF816309DF81400FFF71CFEB3
:1051100005469DF816409DF816301846FFF7BCFC72
:105120000346009323462A46274913200DF0A2FD8B
:1051300042E09DF8153019469DF8140006F05EFC1B
:1051400003468DF817309DF81730002B10D09DF8CE
:105150001400FFF7F9FD04469DF815301846FFF7D7
:105160009BFC03462246194913200DF083FD23E0E2
:105170009DF81400FFF7E8FD04469DF81530184629
:10518000FFF78AFC03462246114913200DF0ACFDBF
:1051900012E0104913200DF0A7FD0F4913200DF068
:1051A00069FD0E4913200DF065FD0D4913200DF02A
:1051B00061FD00238DF817309DF81730184607B0B1
:1051C00030BD00BFE4640308FC6403081C650308E9
:1051D000386503085865030870650308D46403083C
:1051E0008465030800B585B00190009100238DF817
:1051F0000F3000238DF80C30019B012B07DD03AB32
:1052000019460098FFF726FA03468DF80F30019BE8
:10521000022B1ADD009B08331B680DF10E021146AC
:1052200018460AF00EFA03468DF80F309DF80F303D
:1052300083F00103DBB2002B07D0009B08331B680F
:105240001A46284913200DF04FFD019B022B12DC5A
:10525000254913200DF048FD244913200DF00AFDC7
:10526000234913200DF006FD224913200DF002FD05
:1052700000238DF80F309DF80F30002B2BD09DF8B8
:105280000C00FFF761FD02469DF80E301A4913200D
:105290000DF0F0FC9DF80E3019469DF80C0006F05C
:1052A00053FA03468DF80F309DF80F3083F0010359
:1052B000DBB2002B04D0114913200DF015FD0AE0DC
:1052C0009DF80C00FFF740FD02469DF80E300C499A
:1052D00013200DF0CFFC9DF80F30184605B05DF897
:1052E00004FB00BFA4650308BC650308D865030878
:1052F000D4640308E4650308F0650308FC6503084B
:105300001866030800B5AFB00390029100238DF832
:10531000B7300023ADF8B430B64B1B6820330B22F6
:10532000B54918460DF01CFF02238DF8AC30002360
:105330008DF8B33021F09DF90346ADF8B03000236D
:105340008DF8B33040E19DF8B320AC491346DB0043
:1053500013449B000B441B79C3F30313DBB2092BEB
:1053600000F02D819DF8B320A4491346DB001344BF
:105370009B000B440433187806F006F903468DF8B9
:10538000AF309DF8B3209D491346DB0013449B00CA
:105390000B440433187806F0D7FA03468DF8AE3084
:1053A00004238DF8AB309DF8B3200DF1AB01934889
:1053B0001346DB0013449B00034404331878FFF7C3
:1053C00017FA03468DF8B7309DF8B3208B49134682
:1053D000DB0013449B000B440433187806F08EFA6C
:1053E00003468DF8AD3000238DF8AA309DF8B32028
:1053F00082491346DB0013449B000B441B79C3F323
:105400000313DBB218469DF8B3207C491346DB003A
:1054100013449B000B441B79C3F30303DBB219460F
:105420000DF1AA031A4606F02BFA03468DF8B730A1
:1054300005AB7C221A8002238DF8AC309DF8B32096
:105440002BA96E481346DB0013449B00034404332E
:10545000187806F051F99DF8B32068491346DB002F
:1054600013449B000B4404331878FFF76DFC02468D
:1054700005AB05A80092624A962128F0FDFA9DF836
:10548000AD301846FFF7B6FB024605AB05A8009203
:105490005C4A962128F0F0FA9DF8AC301846FFF7E8
:1054A00089FC024605AB05A80092574A962128F0D0
:1054B000E3FA9DF8AB301846FFF71EFB024605AB3A
:1054C00005A800924F4A962128F0D6FA9DF8AF30F1
:1054D0001846FFF745FB024605AB05A800924B4A6C
:1054E000962128F0C9FA9DF8AE301846FFF7D4FA95
:1054F000024605AB05A80092444A962128F0BCFA62
:105500009DF8B3203D491346DB0013449B000B4438
:105510001B6805AA05A8009313463D4A962128F06A
:10552000ABFA9DF8AA301A4605AB05A80092384A96
:10553000962128F0A1FA9DF8B32030491346DB00EC
:1055400013449B000B4404331878FFF767FA0246B4
:1055500005AB05A800922F4A962128F08DFA9DF8F8
:10556000B32026491346DB0013449B000B4404334D
:105570001878FFF73BFC024605AB05A80092264AC7
:10558000962128F079FA05AB029A039918460CF097
:10559000A1FF0346002B12D0BDF8B43019461F48B6
:1055A0000EF03DF905AB19461D480EF038F9BDF86F
:1055B000B4300133ADF8B43001238DF8B7309DF825
:1055C000B33001338DF8B3309DF8B3309BB2BDF8E2
:1055D000B0209A423FF6B7AE064B1B6820330B2231
:1055E000054918460DF0E4FC9DF8B73018462FB079
:1055F0005DF804FB5819002000E70308A4FD030828
:10560000306603083C6603084866030854660308CE
:10561000606603086C6603087866030884660308FE
:105620008C66030800B58FB00190009100238DF8BF
:1056300037300023089309AB00221A605A609A6041
:10564000DA600023039304AB00221A605A609A6068
:10565000DA60019B002B0EDB08AB142220491846B0
:1056600028F098FB03AB14221D49184628F092FB42
:1056700001238DF83730019B002B09DD009B196851
:1056800008AB1422184628F085FB01238DF837302B
:10569000019B012B0ADD009B0433196803AB142224
:1056A000184628F077FB01238DF83730019B022B39
:1056B00003DD0C4913200DF017FB9DF83730002B4C
:1056C00008D003AA08AB11461846FFF71BFE034695
:1056D0008DF837309DF8373018460FB05DF804FB71
:1056E000946603089866030800B585B001900091A0
:1056F00000238DF80F3000238DF80C30019B012B17
:1057000007DD03AB19460098FEF7A4FF03468DF8AA
:105710000F309DF80F30002B23D09DF80C00FFF7C1
:10572000F6F803468DF80F309DF80F3083F0010333
:10573000DBB2002B0AD09DF80C00FFF705FB0346F7
:105740001A460D4913200DF0CFFA0EE09DF80C001B
:10575000FFF7FAFA03461A46084913200DF08AFAB1
:1057600003E0074913200DF0BFFA9DF80F301846EB
:1057700005B05DF804FB00BFAC660308BC66030817
:10578000CC66030800B585B00190009100238DF828
:105790000F3000238DF80C30019B012B07DD03AB8C
:1057A00019460098FEF756FF03468DF80F309DF816
:1057B0000F30002B1CD000238DF80F309DF80F30D8
:1057C000002B0AD09DF80C00FFF7BEFA03461A46DC
:1057D0000C4913200DF04EFA0EE09DF80C00FFF777
:1057E000B3FA03461A46084913200DF07DFA03E088
:1057F000064913200DF078FA9DF80F30184605B0D1
:105800005DF804FBEC660308FC6603080C670308FC
:1058100000B585B00190009100238DF80F30019BF9
:10582000002B02DB01238DF80F309DF80F30002B89
:1058300011D0FEF7E9FF03468DF80F309DF80F30C9
:10584000002B04D0074913200DF014FA03E0064999
:1058500013200DF049FA9DF80F30184605B05DF899
:1058600004FB00BF2C6703083467030800B585B04C
:105870000190009100238DF80F3000238DF80E3039
:1058800000238DF80C30019B012B07DD03AB19467B
:105890000098FEF7DFFE03468DF80F30019B022BC8
:1058A0001ADD009B08331B680DF10E0211461846E5
:1058B00009F0C7FE03468DF80F309DF80F3083F0D6
:1058C0000103DBB2002B07D0009B08331B681A468C
:1058D0002F4913200DF008FA9DF80F30002B4AD005
:1058E000019B022B03D0019B032B24D049E09DF8A0
:1058F0000C30C3F30313DBB218469DF80C30C3F32E
:105900000303DBB219460DF10E031A4605F0B8FF8A
:1059100003468DF80F309DF80F30002B30D09DF8E6
:105920000C00FFF711FA02469DF80E3019491320BA
:105930000DF0A0F924E09DF80C00FFF705FA0246EF
:105940009DF80E30144913200DF094F99DF80C3099
:10595000C3F30313DBB218469DF80C30C3F3030303
:10596000DBB219469DF80E301A46FEF72FFF0346AC
:105970008DF80F3005E0094913200DF0B5F900E06E
:1059800000BF9DF80F30184605B05DF804FB00BF5E
:1059900040670308506703086067030870670308DF
:1059A00082B000238DF807309DF80730184602B00A
:1059B000704784B003460A46ADF8063013468DF8AA
:1059C000053000238DF80F309DF80F30184604B0D5
:1059D000704700B585B0019001238DF80F30019B11
:1059E000002B0CD0019B93F900301AB2019B1B7A5B
:1059F0001946104606F010FA03468DF80F309DF850
:105A00000F30184605B05DF804FB000000B585B006
:105A100001238DF80F300023029306F04DFA034660
:105A20008DF80F30FBF78CFE0190019B002B16D0F8
:105A3000002302930FE0029A13465B0013449B007D
:105A40000B4A13441846FFF7C4FF03468DF80F3086
:105A5000029B01330293029A019B9A42EBD3FFF718
:105A60009FFF9DF80F30184605B05DF804FB00BF9E
:105A7000A0E3030800B587B00346ADF80630134B2A
:105A8000059300230493FBF711FF03900023049375
:105A900012E00F4A049BDB001344B3F90430BDF954
:105AA00006209A4205D10A4A049B52F833300593E6
:105AB00006E0049B01330493049A039B9A42E8D3C3
:105AC000059B184607B05DF804FB00BFE0670308BC
:105AD000D4E4030800B5A9B00390029100238DF827
:105AE0009F300023ADF89C30764B1B6820330A2290
:105AF000754918460DF034FB0023ADF89A300023A9
:105B0000ADF89A30BFE000238DF88B3000238DF87C
