:020000040801F1
:100000000000022081FB05083D8501089D8701084D
:10001000AB870108B1870108B7870108000000001D
:10002000000000000000000000000000B1F1040822
:10003000BD8701080000000001F4040869F4040809
:10004000C18501088F870108E7860108F586010848
:10005000BD860108CF8501087588010883880108DD
:10006000918801089F880108AD880108D986010898
:10007000EB850108F9850108078601081586010846
:100080002386010831860108DD85010843850108C2
:1000900051850108A5850108B3850108BB880108C1
:1000A000238B0108FD890108278A0108518A01086C
:1000B0007B8A0108A58A0108CF8A01085B8B0108A9
:1000C0004D8B0108778B0108698B0108C3870108F4
:1000D000D187010823880108318801083F88010879
:1000E000C9880108AF8B010881870108658701086D
:1000F0007387010857870108498701083F8601086F
:100100007B850108ED870108F98A0108DF8701086E
:100110001F870108038701083B8701082D87010815
:100120004D8601085B86010869860108778601080B
:1001300085860108D1FB0508D1FB05085F8501080C
:100140006D8501089785010889850108D788010810
:1001500093860108A1860108AF8601086788010817
:10016000858B0108938B01081D89010869890108A5
:1001700011870108B5890108D1FB050800000000BE
:08018000A18B0108CB860108E8
:1001C00010B5054C237833B9044B13B10448AFF391
:1001D00000800123237010BD609200200000000009
:1001E0003899060808B5034B1BB103490348AFF320
:1001F000008008BD000000006492002038990608C5
:1002000081F0004102E000BF83F0004330B54FEAC7
:1002100041044FEA430594EA050F08BF90EA020F34
:100220001FBF54EA000C55EA020C7FEA645C7FEAC7
:10023000655C00F0E2804FEA5454D4EB5555B8BFEA
:100240006D420CDD2C4480EA020281EA030382EA5B
:10025000000083EA010180EA020281EA0303362DED
:1002600088BF30BD11F0004F4FEA01314FF4801CC0
:100270004CEA113102D0404261EB410113F0004FD2
:100280004FEA03334CEA133302D0524263EB430389
:1002900094EA050F00F0A780A4F10104D5F1200E27
:1002A0000DDB02FA0EFC22FA05F2801841F1000182
:1002B00003FA0EF2801843FA05F359410EE0A5F156
:1002C00020050EF1200E012A03FA0EFC28BF4CF087
:1002D000020C43FA05F3C01851EBE37101F000453D
:1002E00007D54FF0000EDCF1000C7EEB00006EEB4A
:1002F0000101B1F5801F1BD3B1F5001F0CD34908D4
:100300005FEA30004FEA3C0C04F101044FEA44522A
:1003100012F5800F80F09A80BCF1004F08BF5FEAB1
:10032000500C50F1000041EB045141EA050130BD91
:100330005FEA4C0C404141EB0101013C28BFB1F5A3
:10034000801FE9D291F0000F04BF01460020B1FAEE
:1003500081F308BF2033A3F10B03B3F120020CDAC1
:100360000C3208DD02F1140CC2F10C0201FA0CF09F
:1003700021FA02F10CE002F11402D8BFC2F1200C04
:1003800001FA02F120FA0CFCDCBF41EA0C019040BA
:10039000E41AA2BF01EB0451294330BD6FEA040403
:1003A0001F3C1CDA0C340EDC04F11404C4F12002EE
:1003B00020FA04F001FA02F340EA030021FA04F300
:1003C00045EA030130BDC4F10C04C4F1200220FA57
:1003D00002F001FA04F340EA0300294630BD21FA95
:1003E00004F0294630BD94F0000F83F4801306BF5B
:1003F00081F480110134013D4EE77FEA645C18BF4F
:100400007FEA655C29D094EA050F08BF90EA020FE5
:1004100005D054EA000C04BF1946104630BD91EADD
:10042000030F1EBF0021002030BD5FEA545C05D1E0
:100430004000494128BF41F0004130BD14F580041F
:100440003CBF01F5801130BD01F0004545F0FE4193
:1004500041F470014FF0000030BD7FEA645C1ABFC8
:10046000194610467FEA655C1CBF0B46024650EAFF
:10047000013406BF52EA033591EA030F41F400212B
:1004800030BD00BF90F0000F04BF0021704730B5B1
:100490004FF4806404F132044FF000054FF0000186
:1004A00050E700BF90F0000F04BF0021704730B547
:1004B0004FF4806404F1320410F0004548BF40421C
:1004C0004FF000013EE700BF42004FEAE2014FEA71
:1004D00031014FEA02701FBF12F07F4393F07F4F4C
:1004E00081F06051704732F07F4208BF704793F04F
:1004F0007F4F04BF41F40021704730B54FF4607462
:1005000001F0004521F000411CE700BF50EA010264
:1005100008BF704730B54FF000050AE050EA01020D
:1005200008BF704730B511F0004502D5404261EB7D
:1005300041014FF4806404F132045FEA915C3FF4BE
:10054000D8AE4FF003025FEADC0C18BF03325FEA5B
:10055000DC0C18BF033202EBDC02C2F1200300FA0C
:1005600003FC20FA02F001FA03FE40EA0E0021FA31
:1005700002F11444BDE600BF70B54FF0FF0C4CF41F
:10058000E06C1CEA11541DBF1CEA135594EA0C0FD1
:1005900095EA0C0F00F0DEF82C4481EA030621EA0C
:1005A0004C5123EA4C5350EA013518BF52EA033547
:1005B00041F4801143F4801338D0A0FB02CE4FF0F9
:1005C0000005E1FB02E506F00042E0FB03E54FF029
:1005D0000006E1FB03569CF0000F18BF4EF0010E21
:1005E000A4F1FF04B6F5007F64F5407404D25FEA1D
:1005F0004E0E6D4146EB060642EAC62141EA5551D0
:100600004FEAC52040EA5E504FEACE2EB4F1FD0C11
:1006100088BFBCF5E06F1ED8BEF1004F08BF5FEA8F
:10062000500E50F1000041EB045170BD06F0004641
:1006300046EA010140EA020081EA0301B4EB5C04EE
:10064000C2BFD4EB0C0541EA045170BD41F48011E6
:100650004FF0000E013C00F3AB8014F1360FDEBF0B
:10066000002001F0004170BDC4F10004203C35DAE7
:100670000C341BDC04F11404C4F1200500FA05F36A
:1006800020FA04F001FA05F240EA020001F000420B
:1006900021F0004110EBD37021FA04F642EB060181
:1006A0005EEA430E08BF20EAD37070BDC4F10C04AB
:1006B000C4F1200500FA04F320FA05F001FA04F26F
:1006C00040EA020001F0004110EBD37041F100015B
:1006D0005EEA430E08BF20EAD37070BDC4F1200566
:1006E00000FA05F24EEA020E20FA04F301FA05F2CE
:1006F00043EA020321FA04F001F0004121FA04F276
:1007000020EA020000EBD3705EEA430E08BF20EA45
:10071000D37070BD94F0000F0FD101F0004640007F
:1007200041EB010111F4801F08BF013CF7D041EA01
:10073000060195F0000F18BF704703F00046520005
:1007400043EB030313F4801F08BF013DF7D043EAD6
:100750000603704794EA0C0F0CEA135518BF95EA8C
:100760000C0F0CD050EA410618BF52EA4306D1D113
:1007700081EA030101F000414FF0000070BD50EA32
:10078000410606BF1046194652EA430619D094EABC
:100790000C0F02D150EA013613D195EA0C0F05D1A6
:1007A00052EA03361CBF104619460AD181EA0301FA
:1007B00001F0004141F0FE4141F470014FF00000B2
:1007C00070BD41F0FE4141F4780170BD70B54FF04D
:1007D000FF0C4CF4E06C1CEA11541DBF1CEA1355CD
:1007E00094EA0C0F95EA0C0F00F0A7F8A4EB0504AF
:1007F00081EA030E52EA03354FEA013100F08880A6
:100800004FEA03334FF0805545EA131343EA12636E
:100810004FEA022245EA111545EA10654FEA002623
:100820000EF000419D4208BF964244F1FD0404F5DC
:10083000407402D25B084FEA3202B61A65EB030538
:100840005B084FEA32024FF480104FF4002CB6EBF5
:10085000020E75EB030E22BFB61A754640EA0C0075
:100860005B084FEA3202B6EB020E75EB030E22BFB5
:10087000B61A754640EA5C005B084FEA3202B6EBF6
:10088000020E75EB030E22BFB61A754640EA9C00B5
:100890005B084FEA3202B6EB020E75EB030E22BF85
:1008A000B61A754640EADC0055EA060E18D04FEA43
:1008B000051545EA16754FEA06164FEAC30343EAE3
:1008C00052734FEAC2025FEA1C1CC0D111F4801FB0
:1008D0000BD141EA00014FF000004FF0004CB6E7A9
:1008E00011F4801F04BF01430020B4F1FD0C88BF48
:1008F000BCF5E06F3FF6AFAEB5EB030C04BFB6EB53
:10090000020C5FEA500C50F1000041EB045170BD45
:100910000EF0004E4EEA113114EB5C04C2BFD4EB72
:100920000C0541EA045170BD41F480114FF0000EF6
:10093000013C90E645EA060E8DE60CEA135594EA72
:100940000C0F08BF95EA0C0F3FF43BAF94EA0C0F75
:100950000AD150EA01347FF434AF95EA0C0F7FF4EA
:1009600025AF104619462CE795EA0C0F06D152EA3E
:1009700003353FF4FDAE1046194622E750EA410622
:1009800018BF52EA43067FF4C5AE50EA41047FF433
:100990000DAF52EA43057FF4EBAE12E74FF0FF3C98
:1009A00006E000BF4FF0010C02E000BF4FF0010C69
:1009B0004DF804CD4FEA410C7FEA6C5C4FEA430CE2
:1009C00018BF7FEA6C5C1BD001B050EA410C0CBF31
:1009D00052EA430C91EA030F02BF90EA020F002093
:1009E000704710F1000F91EA030F58BF994208BFFA
:1009F00090422CBFD8176FEAE37040F001007047B7
:100A00004FEA410C7FEA6C5C02D150EA013C07D10D
:100A10004FEA430C7FEA6C5CD6D152EA033CD3D058
:100A20005DF8040B704700BF8446104662468C4652
:100A30001946634600E000BF01B5FFF7B7FF002885
:100A400048BF10F1000F01BD4DF808EDFFF7F4FFAE
:100A50000CBF012000205DF808FB00BF4DF808ED39
:100A6000FFF7EAFF34BF012000205DF808FB00BF5C
:100A70004DF808EDFFF7E0FF94BF012000205DF87E
:100A800008FB00BF4DF808EDFFF7CEFF94BF012033
:100A900000205DF808FB00BF4DF808EDFFF7C4FF2C
:100AA00034BF012000205DF808FB00BF4FEA410C75
:100AB0007FEA6C5C02D150EA013C0AD14FEA430C58
:100AC0007FEA6C5C02D152EA033C02D14FF0000095
:100AD00070474FF0010070474FEA410212F50012D3
:100AE00015D211D56FF47873B3EB625212D94FEA75
:100AF000C12343F0004343EA505311F0004F23FA5F
:100B000002F018BF404270474FF00000704750EAB3
:100B1000013005D111F0004008BF6FF00040704770
:100B20004FF00000704700BF4A0011D212F50012CA
:100B300011D20DD56FF47873B3EB62520ED44FEA35
:100B4000C12343F0004343EA505323FA02F07047B5
:100B50004FF00000704750EA013002D14FF0FF30F3
:100B600070474FF0000070474FEA4102B2F1E04396
:100B700024BFB3F5001CDCF1FE5C0DD901F0004C84
:100B80004FEAC0024CEA5070B2F1004F40EB8300D4
:100B900008BF20F00100704711F0804F21D113F100
:100BA0003872BCBF01F00040704741F480114FEA39
:100BB0005252C2F11802C2F1200C10FA0CF320FAC2
:100BC00002F018BF40F001004FEAC1234FEAD323DF
:100BD00003FA0CFC40EA0C0023FA02F34FEA430349
:100BE000CCE77FEA625307D150EA01331EBF4FF0D2
:100BF000FE4040F44000704701F0004040F0FE40ED
:100C000040F40000704700BF53B94AB9002908BF3B
:100C100000281CBF4FF0FF314FF0FF3000F092B9B9
:100C2000ADF1080C6DE904CE00F024F8DDF804E025
:100C3000DDE9022304B07047D0B50C4B0022064614
:100C40000F46FFF799FCFFF76FFF0446FFF71AFC0A
:100C5000074B0022FFF790FC02460B463046394610
:100C6000FFF7D2FAFFF760FF2146D0BD0000F03D4C
:100C70000000F0412DE9F047089D04468E46002B08
:100C80004DD18A42944669D9B2FA82F252B101FA40
:100C900002F3C2F1200120FA01F10CFA02FC41EA50
:100CA000030E94404FEA1C48210CBEFBF8F61FFAD5
:100CB0008CF708FB16E341EA034306FB07F1994270
:100CC0000AD91CEB030306F1FF3080F01F81994223
:100CD00040F21C81023E63445B1AA4B2B3FBF8F0FD
:100CE00008FB103344EA034400FB07F7A7420AD984
:100CF0001CEB040400F1FF3380F00A81A74240F2AC
:100D000007816444023840EA0640E41B00261DB116
:100D1000D4400023C5E900433146BDE8F0878B424B
:100D200009D9002D00F0EF800026C5E9000130460A
:100D30003146BDE8F087B3FA83F6002E4AD18B42E4
:100D400002D3824200F2F980841A61EB030301208E
:100D50009E46002DE0D0C5E9004EDDE702B9FFDE7A
:100D6000B2FA82F2002A40F09280A1EB0C014FEA25
:100D70001C471FFA8CFE0126200CB1FBF7F307FB82
:100D8000131140EA01410EFB03F0884208D91CEB25
:100D9000010103F1FF3802D2884200F2CB804346C2
:100DA000091AA4B2B1FBF7F007FB101144EA0144A1
:100DB0000EFB00FEA64508D91CEB040400F1FF3130
:100DC00002D2A64500F2BB800846A4EB0E0440EA1E
:100DD00003409CE7C6F12007B34022FA07FC4CEA27
:100DE000030C20FA07F401FA06F31C43F9404FEA1A
:100DF0001C4900FA06F3B1FBF9F8200C1FFA8CFE2F
:100E000009FB181140EA014108FB0EF0884202FA82
:100E100006F20BD91CEB010108F1FF3A80F0888043
:100E2000884240F28580A8F102086144091AA4B200
:100E3000B1FBF9F009FB101144EA014100FB0EFE81
:100E40008E4508D91CEB010100F1FF346CD28E45B0
:100E50006AD90238614440EA0840A0FB0294A1EB41
:100E60000E01A142C846A64656D353D05DB1B3EB9E
:100E7000080261EB0E0101FA07F722FA06F3F140CE
:100E80001F43C5E9007100263146BDE8F087C2F175
:100E90002003D8400CFA02FC21FA03F391400143ED
:100EA0004FEA1C471FFA8CFEB3FBF7F007FB103626
:100EB0000B0C43EA064300FB0EF69E4204FA02F4D2
:100EC00008D91CEB030300F1FF382FD29E422DD925
:100ED000023863449B1B89B2B3FBF7F607FB16335A
:100EE00041EA034106FB0EF38B4208D91CEB0101DA
:100EF00006F1FF3816D28B4214D9023E6144C91A5A
:100F000046EA004638E72E46284605E70646E3E669
:100F10001846F8E64B45A9D2B9EB020864EB0C0E73
:100F20000138A3E74646EAE7204694E74046D1E782
:100F3000D0467BE7023B614432E7304609E7644430
:100F4000023842E7704700BF844641EA000313F0CD
:100F500003036DD1403A41D351F8043B40F8043BC0
:100F600051F8043B40F8043B51F8043B40F8043B83
:100F700051F8043B40F8043B51F8043B40F8043B73
:100F800051F8043B40F8043B51F8043B40F8043B63
:100F900051F8043B40F8043B51F8043B40F8043B53
:100FA00051F8043B40F8043B51F8043B40F8043B43
:100FB00051F8043B40F8043B51F8043B40F8043B33
:100FC00051F8043B40F8043B51F8043B40F8043B23
:100FD00051F8043B40F8043B403ABDD2303211D3C3
:100FE00051F8043B40F8043B51F8043B40F8043B03
:100FF00051F8043B40F8043B51F8043B40F8043BF3
:10100000103AEDD20C3205D351F8043B40F8043BC2
:10101000043AF9D2043208D0D2071CBF11F8013BC0
:1010200000F8013B01D30B8803806046704700BF86
:10103000082A13D38B078DD010F003038AD0C3F195
:101040000403D21ADB071CBF11F8013B00F8013B77
:1010500080D331F8023B20F8023B7BE7043AD9D336
:10106000013A11F8013B00F8013BF9D20B7803700B
:101070004B7843708B7883706046704700000000A7
:10108000A2EB0300704700BF02780B78012A28BF4B
:101090009A42F5D16DE9044540EA0104CDE90267C1
:1010A0006FF0000C4FEA447212B380EA010414F0AE
:1010B000070F6AD100F0070420F0070004F00305D1
:1010C00021F007014FEAC505F0E8042314F0040FEE
:1010D000F1E804670CFA05F462EA040266EA040621
:1010E0000AD063EA0403624667EA0407664603E03F
:1010F000F0E80423F1E8046782FA4CF582EA06047A
:10110000A4FA8CF46CBB83FA4CF583EA0705A5FAC4
:101110008CF595B950E9022351E9026782FA4CF542
:1011200082EA0604A4FA8CF483FA4CF583EA0705F4
:10113000A5FA8CF52543DBD09CB92DBAB5FA85F418
:1011400024F0070427FA04F1DDE9026723FA04F327
:1011500003F0FF0001F0FF01FDE80445A0EB0100F2
:10116000704724BAB4FA84F424F0070426FA04F190
:10117000DDE9026722FA04F202F0FF0001F0FF014C
:10118000FDE80445A0EB0100704714F0030F3CD1CB
:1011900010F0030428D150F8082B51F8083B82FACC
:1011A0004CF582EA0305A5FA8CF55DB950F8042CDC
:1011B00051F8043C82FA4CF582EA0305A5FA8CF555
:1011C000002DE8D02DBAB5FA85F424F0070423FAEF
:1011D00004F122FA04F202F0FF0001F0FF01FDE841
:1011E0000445A0EB010070474FEAC40420F003005F
:1011F00050F8082B21F0030151F8083B0CFA04F4D5
:1012000062EA040263EA0403C9E710F003041AD097
:10121000A1EB040120F00300E40750F8042B06D0F2
:101220000FD28B785FFAA2F4E41A06D12BB1CB78F7
:101230005FFAB2F4E41A00D11BB920465DF8104BF6
:10124000704701F1040150F8042BCC0721F0030191
:1012500051F8043B48D824D222F07F4482FA4CF55E
:1012600094EA1325A5FA8CF50AD165B951F8043B27
:1012700084EA0204B4EB036F0ED150F8042BEBE7C1
:101280004FEA132355E035F07F454DD10878FDE84E
:101290000445C0F1000070474FEA126203F0FF03FB
:1012A00047E002EA1C4482FA4CF594EA1345A5FA99
:1012B0008CF50AD165B951F8043B84EA0204B4EB19
:1012C000034F0CD150F8042BEBE74FEA134330E007
:1012D00015EA1C4528D10B884FEA124229E04FEA53
:1012E000124203EA1C4324E002F0FF0482FA4CF5A8
:1012F00094EA1365A5FA8CF50AD165B951F8043B57
:1013000084EA0204B4EB032F09D150F8042BEBE775
:101310004FEA13630DE015F0FF0F05D10B684FEA9C
:10132000122223F07F4304E04FF00000FDE8044563
:10133000704712BA1BBA82FA4CF482EA0304A4FA88
:101340008CF5B5FA85F402FA04F203FA04F34FEAD5
:101350001260FDE80445A0EB136070470000000038
:10136000000000000000000000000000000000007D
:10137000000000000000000000000000000000006D
:1013800090F800F06DE9024520F007016FF0000CC5
:1013900010F0070491F820F040F049804FF000046D
:1013A0006FF00700D1E9002391F840F000F1080048
:1013B00082FA4CF2A4FA8CF283FA4CF3A2FA8CF380
:1013C0004BBBD1E9022382FA4CF200F10800A4FAE7
:1013D0008CF283FA4CF3A2FA8CF3E3B9D1E904233B
:1013E00082FA4CF200F10800A4FA8CF283FA4CF372
:1013F000A2FA8CF37BB9D1E9062301F1200182FA2C
:101400004CF200F10800A4FA8CF283FA4CF3A2FA31
:101410008CF3002BC6D0002A04BF04301A4612BA3F
:10142000B2FA82F2FDE8024500EBD2007047D1E942
:10143000002304F00305C4F100004FEAC50514F0D1
:10144000040F91F840F00CFA05F562EA05021CBFA2
:1014500063EA050362464FF00004A9E700000000BC
:1014600001F0FF01102A2BDB10F0070F08D010F855
:10147000013B013A8B422DD010F0070F42B3F6D159
:10148000F0B441EA012141EA014122F007047FF072
:1014900000070023F0E80256083C85EA010586EAC9
:1014A000010685FA47F5A3FA87F586FA47F6A5FA05
:1014B00087F68EB9EED1F0BC01F0FF0102F0070211
:1014C00032B110F8013B013A83EA010313B1F8D1BC
:1014D0000020704701387047002D06BF354603389D
:1014E000073815F0010F07D1013015F4807F02BFD6
:1014F000013015F4C03F0130F0BC0138704700BF27
:1015000080B594B000AF012387F84F3007F11C037A
:1015100030220021184650F0D7F907F108030022C5
:101520001A605A609A60DA601A6100237B603D4B52
:101530001B6C3C4A43F0805313643A4B1B6C03F022
:1015400080537B607B6800233B60374B1B68364AC7
:1015500043F480431360344B1B6803F480433B60C7
:101560003B680923FB614FF480333B6201233B63FB
:1015700002237B634FF48003BB630C23FB63C02314
:101580003B6404237B640423BB6407F11C031846FB
:101590003EF000FC034687F84E3097F84E30002BA3
:1015A0000DD0002387F84F3097F84E30184606F0DC
:1015B0005BFF03461A461D49362013F05FFB97F880
:1015C0004F30002B27D00F23BB600223FB6000238A
:1015D0003B614FF480537B610023BB6107F108033B
:1015E000012118463EF038FF034687F84E303EF0A2
:1015F00001FA97F84E30002B0DD0002387F84F30BA
:1016000097F84E30184606F02FFF03461A46074952
:10161000362013F033FB97F84F3018465037BD464D
:1016200080BD00BF0038024000700040509906089D
:1016300080B485B000AF0023FB600123BB600123B1
:101640007B60BA687B689A4201D17B68FB60FB686B
:1016500018461437BD465DF8047B704780B400AF70
:10166000074BD3F88830064A43F47003C2F8883039
:10167000034B044A9A6000BFBD465DF8047B704787
:1016800000ED00E00000010880B483B000AF01234A
:10169000FB71FB7918460C37BD465DF8047B70473B
:1016A00080B483B000AF0D237B607B6818460C3795
:1016B000BD465DF8047B704780B483B000AF002363
:1016C0007B600C237B607B6818460C37BD465DF859
:1016D000047B704780B582B000AF0023FB7100F03F
:1016E000ABF80346FB71FB7918460837BD4680BD51
:1016F00080B483B000AF00233B603B467B60074B68
:101700001B687A689A4202D2044A7B68136000BF61
:101710000C37BD465DF8047B704700BFA003002076
:1017200080B483B000AF03460022FA71B3F1005FCA
:1017300004D3064A934201D80123FB71FB79184672
:101740000C37BD465DF8047B704700BF00000320E6
:1017500080B588B000AFF860B9607A600023FB758F
:10176000FA68BB689A4209D2FB6801337A68B968A3
:101770001846FFF7EDFF0346FB7513E0FA68BB68F8
:101780009A420DD10A4B1B68FB6107F11703FA69F6
:10179000D31ABB617B68BA691A600123FB7501E04B
:1017A0000023FB75FB7D18462037BD4680BD00BF7A
:1017B0000000010880B584B000AF78603960002374
:1017C000FB733A6879680020FFF7C2FF0346FB739A
:1017D000FB7B18461037BD4680BD000080B582B047
:1017E00000AF0023FB7108490D2013F029FA4FF4D4
:1017F0007A701EF0E7FB00F02BF80346FB71FB79D3
:1018000018460837BD4680BD089A060880B400AF68
:10181000BFF34F8F00BF064BDB6803F4E06204495F
:10182000044B1343CB60BFF34F8F00BF00BFFDE7F6
:1018300000ED00E00400FA0580B483B000AF00239F
:10184000FB71FB7918460C37BD465DF8047B704789
:1018500080B500AF3EF0CEF809F0CCFF72B600BF05
:10186000FFF7D4FF80B487B000AF78600023FB752A
:1018700072B600BF0123FB60FB6883F3108800BFD2
:101880000D4A7B68936000233B613B6983F31088BA
:1018900000BF62B600BF084B9B687A689A4202D1CB
:1018A0000123FB7501E00023FB75FB7D18461C3707
:1018B000BD465DF8047B704700ED00E080B582B066
:1018C00000AF0023FB710548FFF7CCFF0346FB7117
:1018D000FB7918460837BD4680BD00BF00000108EF
:1018E00080B483B000AF0023FB710A4B5B68002B10
:1018F00009D0084B5B681B68C3F30003DBB2002B05
:1019000001D00123FB71FB7918460C37BD465DF809
:10191000047B70478C0300202DE9B00F83B000AF2B
:101920002B4CA468002520462946C7E90001294917
:10193000D1E90001284CC4E90001D7E9004520465F
:1019400029464FF0000A4FF0000B4FEA411B4BEACB
:10195000D06B4FEA401A50465946021B61EB050313
:101960004FF000004FF00001990041EA92719000A1
:1019700002460B4612EB040843EB05094FF0000248
:101980004FF000034FEAC90343EA58734FEAC80215
:101990009046994642464B460E49C1E900230D4BFD
:1019A000D3E900010C4BD3E90023904271EB030310
:1019B00004D2074B1B680133054A1360054BD3E97A
:1019C0000023104619460C37BD46BDE8B00F7047DE
:1019D0008C030020D8920020E092002080B586B0D1
:1019E00000AF786039600023FB757B68002B18D14D
:1019F0001049114813F06EFB104B1B683B61104BF4
:101A00001B681A463B699B1AFB600D4B1B68FA6802
:101A10000C49362013F014F928F01CFC0123FB7547
:101A200003E00949362013F029F9FB7D18461837E1
:101A3000BD4680BDB1820408149A06080000010862
:101A4000A0030020249A06084C9A060880B584B0AA
:101A500000AF786039600023FB737B68002B01D1F5
:101A60000123FB73FB7B002B04D0FFF7B7FE03467B
:101A7000FB7303E00449362013F000F9FB7B1846A2
:101A80001037BD4680BD00BF589A060880B58AB0A1
:101A900000AF78603960002387F8273000237B612E
:101AA00000233B6200237B82564B1B68FB61F96974
:101AB000554813F00FFB07F11203FA69D31ABB6103
:101AC000B969524813F006FBBB69C3F500631946B8
:101AD0004F4813F0FFFA0023FB60FB69A3F60103F4
:101AE000184607F10C0300224FF400610DF0C5FD0C
:101AF000034687F82730FB68C3F500633B6297F81D
:101B00002730002B1ED0FB681946424813F0E2FA3A
:101B1000396A414813F0DEFA3B6A07EE903AF8EE74
:101B2000677A9FED3E7A67EE877A9FED3D7AC7EE42
:101B3000876A16EE900AFEF7C7FC02460B46394844
:101B400013F0C8FA0023BB607B68002B21D100236F
:101B50007B617B6907F1080211461846FFF72AFEF0
:101B6000034687F8273097F8273083F00103DBB26C
:101B7000002B04D02C49362013F080F805E07A6958
:101B8000BB682A49362013F03DF87B6901337B613D
:101B9000DFE77B68002B0ADD3B681B6807F1140256
:101BA000114618460FF02DF9034687F8273097F8AD
:101BB0002730002B1CD07B6907F10802114618461C
:101BC000FFF7F8FD034687F8273097F8273083F0B2
:101BD0000103DBB2002B04D01349362013F04EF87A
:101BE0000AE07A69BB681149362013F00BF803E06C
:101BF0000F49362013F042F897F827301846283757
:101C0000BD4680BD00000108689A0608849A06084F
:101C1000A09A0608B49A0608C89A06080000C842A6
:101C200000000045DC9A0608F49A0608FC9A0608AB
:101C3000189B060880B584B000AF3B4683E80300DC
:101C40000A23FB73BB781A4657493E2012F07DFFEA
:101C5000BB78002B00F08D80002BC0F29980582BB0
:101C600000F39680282BC0F29380283B302B00F2A3
:101C70008F8001A252F823F0671D01084F1D010853
:101C80003D1D0108911D0108911D0108911D0108CC
:101C9000911D0108911D0108911D0108911D010868
:101CA000911D0108911D0108911D0108551D010894
:101CB000911D0108911D0108911D0108911D010848
:101CC000911D0108911D0108911D0108911D010838
:101CD000911D0108911D0108911D0108911D010828
:101CE000911D0108911D0108911D0108911D010818
:101CF000911D0108911D0108911D0108911D010808
:101D0000911D0108431D0108911D0108911D010845
:101D1000491D0108911D0108911D0108491D010877
:101D2000431D0108911D0108911D0108911D010825
:101D3000911D0108911D01086D1D01080823FB7309
:101D40002CE00623FB7329E00723FB7326E0012325
:101D5000FB7323E03B7803F00103DBB2002B1AD0C6
:101D60000023FB7317E00523FB7317E00423FB73C9
:101D700014E03B7803F00103DBB2002B0DD03B787D
:101D800003F01003DBB2002B07D00923FB7304E040
:101D90000223FB7302E000BF00E000BFFB7B18469C
:101DA0001037BD4680BD00BF2C9B060880B584B0AF
:101DB00000AF78600023FB737B68002B1CD01149B7
:101DC0003E2012F03DFF7B684A3340220021184636
:101DD0004FF07AFD7B680022C3F898207B680022D0
:101DE000A3F8AC207B680022C3F88C2000210220DD
:101DF00017F034F80346FB73FB7B18461037BD46DB
:101E000080BD00BF3C9B060880B584B000AF786001
:101E10000023FB737B68002B0BD07B680233062109
:101E200018461BF0C0FAB860BB68002B01D0012334
:101E3000FB73FB7B18461037BD4680BD80B584B070
:101E400000AF78600023FB73064B1B681A46032122
:101E500078680CF0EFFF0346FB73FB7B18461037E6
:101E6000BD4680BDE805002080B586B002AF786031
:101E700039600023FB737B68002B00F054813B68C2
:101E8000002B00F050810121022016F0E7FF0346ED
:101E9000FB7338681CF050FB0346BB73BB7B1A46D0
:101EA000A5493E2012F051FE3868FFF7ADFF03460A
:101EB000FB73FB7B002B00F036813B6819680A46F8
:101EC00059680B4610461946FFF7B4FE03467B736C
:101ED0007B7B013B072B00F2258101A252F823F006
:101EE000291F0108011F010825210108831F01087E
:101EF000831F01082521010825210108191F010858
:101F0000BB7B1946022016F093FB0346FB737B68EC
:101F1000012283F8AE2006E1BB7B1946022016F0B1
:101F200087FB0346FB73FEE07B68002283F8AE204C
:101F300082493E2012F084FE7868FFF737FF03469F
:101F4000FB737B68D3F88C3003331A467C4B1B68D9
:101F5000194610461CF0C6FB0A219FED750B0120A7
:101F600017F06AFB0346002B04D0FB7B002B01D04B
:101F7000012300E00023FB73FB7B03F00103FB73F1
:101F8000D1E0022016F08EFAB860BB68D3F8A83012
:101F90001A466B4B1B68194610461CF0A3FBBB6826
:101FA0009869BB68D3F8A81000230193012300931C
:101FB000012300220DF086FDBB689A69BB68D3F847
:101FC000A83060493E2012F03BFE7B68D3F8903089
:101FD0005A1C7B68C3F890205B4B00225A70BB6888
:101FE0009B69184624F042FC0346FB73FB7B83F09D
:101FF0000103DBB2002B10D054493E2012F03EFE0C
:102000004F4B1B68194652480CF0CCFE0346FB733D
:102010007B68002283F8AE2085E04E493E2012F016
:1020200094FDFB7B002B27D0474824F05DFC034642
:10203000FB73FB7B002B0ED047493E2012F0E2FDE4
:10204000414BD3F8E8227B68C3F8A8207B680322C1
:1020500083F8AE2010E041493E2012F00FFE7B686D
:10206000002283F8AE20364B1B6819463C480CF022
:1020700099FE0346FB7356E07B68D3F8A830002B2B
:102080003BD07B68032283F8AE202D4B1B6819469A
:1020900003201CF027FB7B68D3F89C30284A126889
:1020A000114618461CF01EFB2E48FFF7C7FE7B6842
:1020B000D3F8982013469B019B1A9B0003F5BC6341
:1020C000214A13441E4A1268114618460CF06AFE53
:1020D0000346FB737B68D3F8982013469B019B1A39
:1020E0009B0003F5BC63184A13441846FFF748F9F0
:1020F00002467B68C3F89C200EE01B493E2012F08C
:10210000BDFD7B68002283F8AE207B68D3F8A43045
:102110005A1C7B68C3F8A4207868FFF747FE034683
:10212000FB7300E000BFFB7B18461037BD4680BD47
:10213000000000000000E03F489B0608589B06088E
:10214000E80500206C9B060868170020889B06089D
:10215000989B0608B09B0608C09B0608D49B0608FF
:10216000E89B0608FC9B0608009C0608000000008F
:1021700080B584B000AF786039600023FB73304BCA
:102180001B68194678680CF00DFE0346FB732C4B58
:102190001B6819462B201CF079FA0346002B04D04B
:1021A000FB7B002B01D0012300E00023FB73FB7BB2
:1021B00003F00103FB73224B1B68194638680CF0CF
:1021C000F1FD0346002B04D0FB7B002B01D0012343
:1021D00000E00023FB73FB7B03F00103FB73184B50
:1021E0001B68194628201CF051FA0346002B04D026
:1021F000FB7B002B01D0012300E00023FB73FB7B62
:1022000003F00103FB730A219FED0B0B012017F074
:1022100013FA0346002B04D0FB7B002B01D00123D3
:1022200000E00023FB73FB7B03F00103FB73FB7BEC
:1022300018461037BD4680BD000000000000E03F9A
:10224000E80500200000000080B584B000AF786091
:102250000023FB731C4B1B68194678680CF0A2FD29
:102260000346FB73184B1B68194628201CF00EFA16
:102270000346002B04D0FB7B002B01D0012300E0A0
:102280000023FB73FB7B03F00103FB730A219FED2B
:102290000C0B012017F0D0F90346002B04D0FB7B78
:1022A000002B01D0012300E00023FB73FB7B03F034
:1022B0000103FB73FB7B18461037BD4680BD00BF92
:1022C000000000000000E03FE805002080B586B077
:1022D00000AF78604FF0FF337B617B68002B2DD01F
:1022E0007B684A331846FFF74BF8F860FB68002B11
:1022F00002D10023FB7417E0134BD3F8E8127B687C
:102300004A331A46114825F083FB0346FB74FB7CD5
:10231000002B09D00C4BD3F8E8127B684A331A46DD
:102320000A4825F0AEFB7861FB7C83F00103DBB249
:10233000002B03D07B68D3F898307B617B6918460B
:102340001837BD4680BD00BF68170020481D00201B
:1023500080B586B000AF78604FF0FF337B617B685B
:10236000002B39D07B684A331846FFF709F8F8602C
:10237000FB68002B02D10023FB741AE0194BD3F841
:10238000E8127B684A331A46174825F041FB03469A
:10239000FB74FB7C002B0CD0124BD3F8E8127B684B
:1023A00003F14A027B68D3F898300F4825F0A6FB6A
:1023B0007861FB7C83F00103DBB2002B0CD07B68DF
:1023C000D3F898301A467B68D3F8A83019461046DF
:1023D0000DF00EF903467B617B6918461837BD4640
:1023E00080BD00BF68170020481D002080B586B062
:1023F00000AF78604FF0FF337B617B68002B39D0F2
:102400007B684A331846FEF7BBFFF860FB68002B79
:1024100002D10023FB741AE0194BD3F8E8127B6851
:102420004A331A46174825F0F3FA0346FB74FB7C3F
:10243000002B0CD0124BD3F8E8127B6803F14A0250
:102440007B68D3F898300F4825F09EFB7861FB7CC1
:1024500083F00103DBB2002B0CD07B68D3F89830FB
:102460001A467B68D3F8A830194610460DF0A0F83C
:1024700003467B617B6918461837BD4680BD00BFA7
:1024800068170020481D002080B584B000AF786038
:1024900039600023FB733B6819680A4659680B468C
:1024A00010461946FFF7C6FB0346BB7338681CF09D
:1024B00043F803467B730A219FED990B012017F027
:1024C000BBF80346FB737B68D3F8982013469B0147
:1024D0009B1A9B0003F5BC63934A13441A46934925
:1024E0003E2012F08FFB7B68D3F8A830002B07D179
:1024F0007B68002283F8AE208D493E2012F0BEFB9F
:10250000BB7B013B072B00F2C18201A252F823F0F2
:1025100001270108F52501088D2A0108B7290108BE
:10252000E128010811280108412701083125010887
:102530007B68B3F8AC30002B10D07B68B3F8AC30BC
:10254000013B9AB27B68A3F8AC207B68B3F8AC304F
:102550001A467B681344002283F84A207868FFF704
:10256000B5FE02467B68C3F898207B68D3F89830A4
:10257000002B00F0D4827B68D3F8982013469B018F
:102580009B1A9B0003F5BC63674A13441A466749CC
:102590003E2012F037FB7B68D3F89C30654A126806
:1025A000114618461CF09EF87B68D3F89820134615
:1025B0009B019B1A9B0003F5BC635B4A13445D4A75
:1025C0001268114618460CF0EDFB0346FB737B685E
:1025D000D3F8982013469B019B1A9B0003F5BC631C
:1025E000514A13441846FEF7CBFE02467B68C3F8F7
:1025F0009C2094E27B68D3F8982013469B019B1A99
:102600009B0003F5BC63484A13441846FEF7B8FE26
:1026100002467B68C3F89C207B68B3F8AC303F2B44
:1026200012D87B68B3F8AC30194697F90D207B6857
:102630000B4483F84A207B68B3F8AC3001339AB27C
:102640007B68A3F8AC200FE07B684A33402200216E
:1026500018464FF039F97B68B3F8AC301A4640237E
:1026600035493E2012F00AFB7868FFF72FFE02463C
:102670007B68C3F898207B68D3F89830002B00F073
:1026800050827B68D3F8982013469B019B1A9B00CD
:1026900003F5BC63244A13441A4624493E2012F031
:1026A000B1FA7B68D3F89C30224A1268114618466A
:1026B0001CF018F87B68D3F8982013469B019B1AEE
:1026C0009B0003F5BC63184A13441A4A126811466A
:1026D00018460CF067FB0346FB737B68D3F8982021
:1026E00013469B019B1A9B0003F5BC630E4A1344DF
:1026F0001846FEF745FE02467B68C3F89C2010E2B0
:102700007B68002283F8AE200C493E2012F098FA34
:102710007868FFF74BFB0346FB7307E2AFF30080DB
:10272000000000000000204068170020089C0608F8
:10273000109C0608E80500201C9C0608389C06082A
:102740007B68D3F898301A46C8493E2012F0FDF94C
:102750007B68D3F8982013469B019B1A9B0003F5D6
:10276000BC63C34A13441846FEF70AFE02467B6860
:10277000C3F89C207868FFF739FE02467B68C3F8EF
:1027800098207B68D3F89830002B00F0CC817B68D0
:10279000D3F8982013469B019B1A9B0003F5BC635A
:1027A000B34A13441A46B3493E2012F02BFA7B6811
:1027B000D3F89C30B04A1268114618461BF092FFBD
:1027C0007B68D3F8982013469B019B1A9B0003F566
:1027D000BC63A74A1344A84A1268114618460CF075
:1027E000E1FA0346FB737B68D3F8982013469B01FC
:1027F0009B1A9B0003F5BC639D4A13441846FEF7E1
:10280000BFFD02467B68C3F89C200123FB738AE16D
:102810007B68D3F898301A4698493E2012F095F913
:102820007B68D3F8982013469B019B1A9B0003F505
:10283000BC638F4A13441846FEF7A2FD02467B682C
:10284000C3F89C207868FFF783FD02467B68C3F8D5
:1028500098207B68D3F89830002B00F06681012324
:10286000FB737B68D3F8982013469B019B1A9B004F
:1028700003F5BC637E4A13441A467E493E2012F09B
:10288000C1F97B68D3F89C307B4A12681146184620
:102890001BF028FF7B68D3F8982013469B019B1AF6
:1028A0009B0003F5BC63724A1344734A12681146D5
:1028B00018460CF077FA0346FB737B68D3F8982030
:1028C00013469B019B1A9B0003F5BC63684A1344A3
:1028D0001846FEF755FD02467B68C3F89C2024E1AC
:1028E0007B68D3F8982013469B019B1A9B0003F545
:1028F000BE635F4A1344191D7B68D3F898201346C2
:102900009B019B1A9B0003F5CA63594A1344043385
:102910000A465B493E2012F056F97B68D3F89820AE
:1029200013469B019B1A9B0003F5BC63504A13445A
:102930001846FEF725FD02467B68C3F89C2001235C
:10294000FB737B68D3F898207B68C3F8A0207B6872
:1029500098331946512020F00BF90346FB737B682E
:10296000D3F89C300333444A1268114618461BF0D2
:10297000B9FE7B68D3F8982013469B019B1A9B00F5
:1029800003F5BE633A4A1344181D7B68D3F89820B8
:1029900013469B019B1A9B0003F5CA63344A1344F8
:1029A00004331946FFF7E4FB0346FB737B68002200
:1029B00083F8AE20BAE07B68D3F8982013469B01D9
:1029C0009B1A9B0003F5BC63294A13441846FEF783
:1029D000D7FC02467B68C3F89C207B68D3F898300C
:1029E0001A4628493E2012F0B0F87B68D3F89820A8
:1029F00013469B019B1A9B0003F5CA631C4A1344B0
:102A000004331A4620493E2012F0DDF87B68D3F8E3
:102A100098207B68C3F8A0207B6898331946512022
:102A200020F0A6F80346FB730123FB737B68D3F801
:102A30009C300333104A1268114618461BF052FEB0
:102A40007B68D3F8982013469B019B1A9B0003F5E3
:102A5000CA63074A134404331846FFF7F5FB0346DD
:102A6000FB737B68002283F8AE205FE0409C060881
:102A700068170020089C0608E8050020489C060806
:102A8000509C0608589C0608649C06087B68D3F88E
:102A9000982013469B019B1A9B0003F5BC632B4AAD
:102AA00013441A462A493E2012F0ACF87B68D3F84A
:102AB0009C30284A1268114618461BF013FE7B68AA
:102AC000D3F8982013469B019B1A9B0003F5BC6327
:102AD0001E4A13441F4A1268114618460CF062F948
:102AE0000346FB737B68D3F8982013469B019B1A1F
:102AF0009B0003F5BC63154A13441846FEF740FCDF
:102B000002467B68C3F89C20BB7B1A4612493E20D4
:102B100012F0B4F87B68032283F8AE2006E000BF11
:102B200004E000BF02E000BF00E000BF7B6803F1EB
:102B30004A027B68B3F8AC3008493E2012F024F812
:102B4000FB7B18461037BD4680BD00BF68170020CC
:102B5000089C0608E80500206C9C0608809C060876
:102B600080B584B000AF78600023FB737B68002BD6
:102B700036D021493E2012F045F8022016F08AF99D
:102B80000346FB737B680022C3F89C207B6800220D
:102B9000A3F8AC207B684A334022002118464EF04F
:102BA00093FE7B68012283F8AE207B68D3F89430D3
:102BB0005A1C7B68C3F894207868FFF7F7F80F4B2E
:102BC000D3F8E8227B68C3F8A8200D48FFF736F950
:102BD00032219FED070B012016F02EFD0346FB73FB
:102BE000FB7B18461037BD4680BD00BFAFF30080A9
:102BF00000000000000010409C9C060868170020A0
:102C0000B09C060880B584B000AF786039600023BE
:102C1000FB7312F053FF3B6819680A4659680B466C
:102C200010461946FFF706F80346BB73BB7B002B23
:102C300002D0092B23D02EE01C4823F055FE03467A
:102C4000FB73FB7B002B09D019493E2011F0DAFF02
:102C50007868FFF785FF0346FB7322E015493E20A5
:102C600012F00CF87B68002283F8AE20124B1B6830
:102C7000194612480CF096F80346FB7311E0012345
:102C8000FB737B68022283F8AE200D48FFF7D6F86D
:102C90000346FB7305E038680BF058FF0346FB73EF
:102CA00000BFFB7B18461037BD4680BD681700206B
:102CB000C09B0608D49B0608E8050020E89B060890
:102CC000B49C06080000000080B584B000AF7860B6
:102CD00039600023FB7350219FED370B012016F064
:102CE000ABFC0346FB730021022016F0B7F8034645
:102CF000FB7338681BF020FC0346BB73BB7B1A4692
:102D000031493E2011F021FFBB7B1946022015F00E
:102D10008FFC0346FB733B6819680A4659680B46EB
:102D200010461946FEF786FF03467B737B7B052B17
:102D300034DC042B22DA012B02D0022B2BD02DE025
:102D40007B68002283F8AE2020493E2011F078FFF6
:102D50007B68D3F88C3003331A461D4B1B68194629
:102D600010461BF0BFFC0A219FED150B012016F049
:102D700063FC0346FB7312F0A1FE18E00A219FEDED
:102D8000100B012016F058FC0346FB737B680022F1
:102D900083F8AE200BE00123FB7308E07B7B1A462F
:102DA0000C493E2011F06AFF0023FB7300BFFB7B40
:102DB00018461037BD4680BD0000000000003040BE
:102DC000000000000000E03F489B0608389C060811
:102DD000E8050020B89C060880B586B000AFF86012
:102DE0003B1D83E806000023FB75FB68002B45D0E4
:102DF000FB6893F88B3083F00103DBB2002B41D0EA
:102E0000FB68012283F88B200123FB75FB6893F894
:102E1000AE30032B2AD801A252F823F02D2E010840
:102E20003D2E01085D2E01084D2E01083B1D19465F
:102E3000F868FFF7E7FE0346FB751AE03B1D1946ED
:102E4000F868FFF711F80346FB7512E03B1D1946C1
:102E5000F868FFF719FB0346FB750AE03B1D1946AE
:102E6000F868FFF731FF0346FB7502E00023FB75AE
:102E700000BFFB68002283F88B2003E004493E205A
:102E800011F0FCFEFB7D18461837BD4680BD00BF23
:102E9000CC9C060880B594B002AF7860002387F818
:102EA00047307B68002B00F0B2807B68002283F8FB
:102EB0008B207B68002283F8AE207B68012283F898
:102EC0008A207B680022C3F890207B680022C3F828
:102ED0009C207B680022C3F898207B684A334022FC
:102EE000002118464EF0F0FC7B680022A3F8AC20CD
:102EF0007868FEF75BFF034687F84730012387F8C1
:102F000046300023BB6007F10C032E220021184637
:102F10004EF0DAFC002387F84530424B3B647B6877
:102F20009833194651201FF0BBFE034687F8453001
:102F300051201FF081FDF8637B689833FA6B1946C6
:102F400051201FF0D9F9386497F84530002B16D07E
:102F500051201FF0A1F9024607F108003B6C0093D5
:102F60001346314A32214FF06BF87B68D3F8982032
:102F700007F108031946332011F044FE1FE05120E9
:102F80001FF08AF9024607F108003B6C00931346D4
:102F9000264A32214FF054F87B68D3F8982007F185
:102FA00008031946332011F04BFE7B680022C3F85A
:102FB0009820002387F84530002387F846307B6847
:102FC000D3F89830002B0DDD7B68D3F89830452B73
:102FD00008D87B68D3F898301A4615493E2011F07E
:102FE00011FE14E07B68D3F898301A4611493E2050
:102FF00011F044FE7B680022C3F898207B68983368
:10300000194651201FF0B4FD034687F847300021D0
:103010003E2011F08BFC97F8473018464837BD46E4
:1030200080BD00BFD49C0608D89C0608F49C060806
:10303000089D0608189D060880B582B000AF0023E1
:10304000FB7107493E2011F0FBFD0648FFF722FF08
:103050000346FB71FB7918460837BD4680BD00BFAB
:10306000289D0608A403002080B485B000AF034665
:10307000FB71124BFB60FB79032B17D801A252F8AE
:1030800023F000BF9B300108A1300108A7300108E0
:10309000953001080A4BFB6008E00A4BFB6005E035
:1030A000094BFB6002E0094BFB6000BFFB68184660
:1030B0001437BD465DF8047B704700BF309D06089D
:1030C000349D06083C9D0608449D06084C9D060854
:1030D000B0B58AB000AFC7E9000100237B62D7E931
:1030E000002313432ED04FF000024FF00003C7E936
:1030F00004231CF0B1F8C7E904014FF000024FF0BF
:103100000003C7E902234FF000024FF00003C7E9B4
:1031100006230FE01CF0A0F8C7E90201D7E902017D
:10312000D7E90423841A61EB0305C7E906457B6AE6
:1031300001337B62D7E90601D7E90023904271EBA6
:103140000303E7D37B6A18462837BD46B0BD80B578
:1031500086B000AF786000237B617B68002B17D0BE
:103160000023FB601CF05AF8F8600023BB600023CA
:103170003B6109E01CF052F8B860BA68FB68D31AEA
:103180003B617B6901337B613A697B689A42F1D389
:103190007B6918461837BD4680BDB0B586B000AF14
:1031A00078604FF000024FF00003C7E904230023CA
:1031B000FB600023FB600BE005F013FDD7E904235F
:1031C000141843EB0105C7E90445FB680133FB60B4
:1031D000FA687B689A42EFD3D7E904231046194670
:1031E0001837BD46B0BD80B582B000AF0123FB717A
:1031F000C820FFF7D2FFFB7918460837BD4680BDCF
:1032000080B594B002AF012387F84730354A36497C
:10321000362011F015FD354BBB63012387F846308E
:1032200000237B6007F108032E22002118464EF090
:103230004BFB002387F845302D4B3B6407F13803E7
:1032400019465C201FF02CFD034687F845305C20B2
:103250001FF0F2FBF86307F13803FA6B19465C20A4
:103260001FF04AF8386497F84530002B12D05C20E4
:103270001FF012F80246381D3B6C009313461D4A9E
:1032800032214EF0DDFEBA6B3B1D19460B2011F0CA
:10329000B9FC19E05C201EF0FFFF0246381D3B6CB4
:1032A00000931346144A32214EF0CAFEBA6B3B1DFE
:1032B00019460B2011F0C4FC0C4BBB63002387F8AC
:1032C0004530002387F84630BB6B184605F0C5FC37
:1032D000034687F8473097F8473018464837BD46C9
:1032E00080BD00BF001BB700EC9D060800E1F5059E
:1032F000049E0608089E0608249E060880B584B031
:1033000000AF78600023FB7305F09FFCB860B868DD
:1033100010F01EFD03461A4616490B2011F072FCF0
:103320007B68184610F014FD03461A4612490B201C
:1033300011F068FC3B1D19465C201FF019FC034688
:10334000FB73FB7B002B0AD07B681A460B493620A7
:1033500011F058FCFEF742FA0346FB7305E0002328
:10336000FB730749362011F089FCFB7B18461037A8
:10337000BD4680BD389E06084C9E0608609E060825
:103380006C9E060880B485B000AF0346FB71134BFA
:10339000FB60FB79013B042B18D801A252F823F003
:1033A000B5330108BB330108CD330108C13301082F
:1033B000C73301080A4BFB6009E00A4BFB6006E0DB
:1033C000094BFB6003E0094BFB6000E000BFFB68BA
:1033D00018461437BD465DF8047B7047749E060896
:1033E000809E0608889E0608909E0608989E0608FD
:1033F00080B58EB004AF78603960002387F827303D
:1034000000233B6205F021FCF861F86910F0A0FC94
:1034100003461A463E490B2011F0F4FB3D4B9B68D6
:103420001A463D490B2011F0EDFB4FF448704FF068
:103430000001FFF74DFE3862386AFDF723F84FF0C0
:103440000002364BFDF7C2F902460B46C7E90423DA
:10345000386AFDF717F84FF00002304BFDF7B6F968
:1034600002460B46CDE902233B6A00934FF000026F
:103470002A4B2B490B2011F0C5FB21A3D3E90023D4
:10348000D7E90401FDF778F802460B4625490B20E1
:1034900011F0B8FB4FF49670FFF759FE3862386AA6
:1034A000FCF7F0FF18A3D3E90023FDF78FF90246DC
:1034B0000B46C7E90223D7E90223CDE902233B6A81
:1034C000009311A3D3E9002317490B2011F09AFBB5
:1034D0004FF00002154BD7E90201FDF74DF8024607
:1034E0000B4610490B2011F08DFB012387F8273084
:1034F00097F8273018462837BD4680BDAFF30080C7
:103500000000000080842E410000000000C07240D6
:10351000B89E060800000020C89E060800008940EA
:10352000D49E0608049F0608189F060800408F4096
:1035300080B588B000AF786039600023FB77002346
:10354000FB607B68012B16D13B681B6807F10C02FE
:10355000114618460DF055FC0346FB77FB7F83F0C0
:103560000103DBB2002B06D03B681B681A461549E5
:10357000362011F083FBFB7F002B1AD00023FB7752
:103580004FF000024FF00003C7E904230E49362034
:1035900011F038FBFB681846FFF7FFFDC7E904018F
:1035A000D7E904230949362011F02CFB0123FB77CE
:1035B00003E00749362011F061FBFB7F18462037F6
:1035C000BD4680BD449F0608589F0608609F0608B8
:1035D0006C9F060880B584B000AF78603960002326
:1035E000FB737B68012B2AD10023BB603B681B68FF
:1035F00007F10802114618460DF003FC0346FB7361
:10360000FB7B83F00103DBB2002B06D03B681B6819
:103610001A460F49362011F031FBFB7B002B12D0EC
:103620000C49362011F0EEFABB6818461CF090FCED
:103630000346FB730849362011F0E4FA03E007491A
:10364000362011F01BFBFB7B18461037BD4680BDB2
:10365000449F0608589F0608809F0608849F060816
:1036600080B584B000AF786039600023FB737B685D
:10367000002B0BD10123FB730023BB601BF0CEFD9D
:10368000B860B968064811F025FD03E00549362009
:1036900011F0F4FAFB7B18461037BD4680BD00BF21
:1036A000989F0608A89F060880B586B000AF78608E
:1036B00039600023FB752F4BFB607B68002B01DB1F
:1036C0000123FB757B68002B16DD3B681B6807F147
:1036D0000C02114618460DF094FB0346FB75FB7D6A
:1036E00083F00103DBB2002B06D03B681B681A464F
:1036F0002149362011F0C2FAFB7D002B30D07B68C7
:10370000002B03D07B68012B0DD02DE005F09DFA36
:103710003861386910F01CFB03461A4617490B2024
:1037200011F070FA20E0FB68184610F011FB034618
:103730001A4613490B2011F065FAFB681846FFF78B
:10374000DDFD0346FB75FB7D002B04D00D493620C3
:1037500011F058FA08E00C49362011F08FFA03E016
:103760000A49362011F08AFAFB7D18461837BD4603
:1037700080BD00BF00E1F505B49F0608CC9F060898
:10378000E09F0608F49F0608FC9F060804A00608B0
:1037900080B584B000AF0346FB710023FB600023BB
:1037A000BB600023BB6021E01749BA6813465B0089
:1037B00013449B000B441B78FA799A4213D11249A7
:1037C000BA6813465B0013449B000B4408331B7814
:1037D000002B12D0BA6813465B0013449B000A4AC0
:1037E0001344FB6009E0BB680133BB6034F066FF43
:1037F0000246BB689342D7D300E000BFFB6818467F
:103800001037BD4680BD00BFA485070880B584B0D1
:1038100000AF0346FB710023FB600023BB60002365
:10382000BB601EE0154ABB68742101FB03F313441F
:103830001B78FA799A4211D1104ABB68742101FBB6
:1038400003F3134408331B78002B11D0BB68742298
:1038500002FB03F3094A1344FB6009E0BB68013330
:10386000BB6034F02BFF0246BB689342DAD300E022
:1038700000BFFB6818461037BD4680BDE8860020B3
:1038800080B584B000AF0346FB710023FB600023CA
:10389000BB600023BB601FE0164ABB682C2101FB04
:1038A00003F3134426331B78FA799A4211D1114A53
:1038B000BB682C2101FB03F3134428331B78002B36
:1038C00011D0BB682C2202FB03F30A4A1344FB60AD
:1038D00009E0BB680133BB6034F012FF0246BB68ED
:1038E0009342D9D300E000BFFB6818461037BD46AD
:1038F00080BD00BFBC85070880B500AF034A0449FE
:10390000082011F0BBF90023184680BD544B07086E
:103910002CA0060880B584B000AF0123FB73FFF72D
:10392000EBFF0346FB730023BB606FF0020108202E
:1039300011F0E0F934F0E4FE386008233A682049D9
:10394000082011F07DF900237B6000237B601CE0E0
:103950007B68DBB2184606F053F90346FB73FB7B2A
:10396000002B09D07B68174A1749082011F04AF943
:10397000BB680133BB6005E07B68124A134908202D
:1039800011F0E3F87B6801337B607B68082BDFD99B
:10399000BB68002B08D00123FB730A4BBA680C49A3
:1039A000082011F02FF901E00023FB73002108200B
:1039B00011F0A0F9FB7B18461037BD4680BD00BF53
:1039C00040A0060850A0060854A0060864A00608F7
:1039D00074A0060880B584B000AF0123FB7306F025
:1039E0005DFA0346FB730023BB606FF00201082001
:1039F00011F080F934F062FE386002233A68204901
:103A0000082011F01DF900237B6000237B601CE07F
:103A10007B68DBB2184606F081FA0346FB73FB7B3A
:103A2000002B09D07B68174A1749082011F0EAF8E3
:103A3000BB680133BB6005E07B68124A134908206C
:103A400011F083F87B6801337B607B68022BDFD940
:103A5000BB68002B08D00123FB730A4BBA680C49E2
:103A6000082011F0CFF801E00023FB7300210820AB
:103A700011F040F9FB7B18461037BD4680BD00BFF2
:103A800040A0060850A0060854A0060864A0060836
:103A900074A0060880B584B000AF78600023FB7383
:103AA0007B68002B02D00123FB7305E045492E20E3
:103AB00011F0E4F80023FB73FB7B002B1FD07B6825
:103AC00093F82030002B0DD07B68DB69002B02D0EF
:103AD0000123FB7313E03C492E2011F0CFF80023A3
:103AE000FB730CE07B685B69002B02D00123FB7346
:103AF00005E036492E2011F0C1F80023FB73FB7B53
:103B0000002B0CD07B689B69002B02D00123FB7338
:103B100005E02F492E2011F0B1F80023FB73FB7B49
:103B2000002B0CD07B685B68002B02D00123FB7359
:103B300005E028492E2011F0A1F80023FB73FB7B40
:103B4000002B0CD07B681B68002B02D00123FB7379
:103B500005E021492E2011F091F80023FB73FB7B37
:103B6000002B0CD07B68DB68002B02D00123FB7399
:103B700005E01A492E2011F081F80023FB73FB7B2E
:103B8000002B0CD07B681B69002B02D00123FB7338
:103B900005E013492E2011F071F80023FB73FB7B25
:103BA000002B09D07B689B68002B05D10D492E2086
:103BB00011F064F80023FB73FB7B18461037BD46F9
:103BC00080BD00BF80A006088CA00608A0A0060843
:103BD000B0A00608C4A00608D0A00608E0A0060809
:103BE000F0A0060804A1060880B485B000AF786094
:103BF0000023FB730A4B1B687A689A4207D3084B71
:103C00005B687A689A4204D20123FB7301E00023C7
:103C1000FB73FB7B18461437BD465DF8047B704789
:103C2000104B070880B588B000AF7860396000237A
:103C3000FB7707F1140300221A605A600D4B1B68D2
:103C40007B610C4B5B68BB617B68FB607A683B689F
:103C500013443B6107F10C0207F1140311461846A7
:103C600018F08AFF0346FB77FB7F18462037BD46D6
:103C700080BD00BF9092002080B48BB000AFF86090
:103C8000B9607A603B60002387F827307B68002B9F
:103C900064D03B68002B61D03B6B002B5ED00123CE
:103CA00087F827303B6800221A603B6B00221A60BD
:103CB000FB683B620023FB61FB683B620023FB6106
:103CC00031E03B6ABB610023FB75284B1B68BA6976
:103CD0009A4207D3254B5B68BA699A4204D2012302
:103CE000FB7501E00023FB75FB7D87F8273097F813
:103CF000273083F00103DBB2002B1BD13B6A1B781A
:103D0000FF2B05D13B681B685A1C3B681A6004E016
:103D10003B6B1B685A1C3B6B1A603B6A01333B626E
:103D2000FB690133FB61FA68BB6813443A6A9A4243
:103D3000C7D300E000BF3B6B1B68642202FB03F3A8
:103D400007EE903AF8EE676ABB6807EE903AB8EE75
:103D5000677AC6EE877A7B68C3ED007A97F82730DA
:103D600018462C37BD465DF8047B7047104B07089A
:103D700080B584B000AF786039600023FB737B6846
:103D8000002B34D07868FFF785FE0346FB73FB7B7E
:103D9000012B00D0FEE7FB7B002B28D00023FB7318
:103DA0003B68002B23D07B681A683B681A607B68ED
:103DB0005A683B685A607B689A683B689A607B687F
:103DC000DA683B68DA607B681A693B681A617B686D
:103DD0009A693B689A617B68DA693B68DA617B685B
:103DE00093F820203B6883F820200123FB73FB7BA2
:103DF00018461037BD4680BD80B584B000AF7860EE
:103E000039600023FB737B68FF22396818460BF08A
:103E10000FFC0346FB73FB7B18461037BD4680BD85
:103E200080B485B000AF78607B68FB600023FB72D4
:103E30000A4B1B68FA689A4207D3084B5B68FA681A
:103E40009A4204D20123FB7201E00023FB72FB7A49
:103E500018461437BD465DF8047B7047104B0708C1
:103E600080B588B002AF7860396000233B610023E1
:103E7000FB600023FB754FF00003BB60786807F11F
:103E8000100107F1080207F10C0300930B46396893
:103E9000FFF7F2FE0346FB753B693A689A4202D18E
:103EA0000123FB7501E00023FB75FB7D18461837E5
:103EB000BD4680BD80B586B000AF78603960002314
:103EC000FB7519497A6813465B0013449B000B4449
:103ED0001B683B6114497A6813465B0013449B00DE
:103EE0000B44196810487A6813465B0013449B0022
:103EF000034404331B680B44043BFB603A693B6892
:103F00009A420BD83A68FB689A4207D83B687A68AD
:103F100006492E2010F076FE0123FB75FB7D184626
:103F20001837BD4680BD00BF804A070828A1060893
:103F300080B588B000AF78600023FB777B683B6179
:103F40000023FB73304B1B683A699A4207D32E4B10
:103F50005B683A699A4204D20123FB7301E00023B3
:103F6000FB73FB7BFB77FB7F002B48D07A682749EC
:103F70002E2010F0EAFD0023BB61FDF79DFB786168
:103F80000023FB770023BB6135E00023FB7720494A
:103F9000BA6913465B0013449B000B4409331B783A
:103FA000032B04D0032B23DB053B012B20D87B689C
:103FB0001946B869FFF77EFF0346FB77FB7F002BAE
:103FC00015D01349BA6913465B0013449B000B4498
:103FD00009331B78184600F0EBF803467A680D4960
:103FE0002E2010F00FFE7B695B00BB6100E000BF7C
:103FF000BB690133BB61BA697B699A42C5D3FB7F58
:1040000018462037BD4680BD104B070838A106086A
:10401000804A070844A1060880B58AB000AFF8605E
:10402000B9607A60002387F827307B68FA682449F2
:104030002E2010F08AFD7968F868FFF7F3FD03463B
:1040400087F8273097F82730002B32D000233B62C7
:10405000FB68FB6100233B6225E0FB69BB61002339
:10406000FB75184B1B68BA699A4207D3154B5B68FE
:10407000BA699A4204D20123FB7501E00023FB7563
:10408000FB7D87F8273097F82730002B10D0BA68CF
:104090003B6A1344FA6912781A70FB690133FB61B9
:1040A0003B6A01333B623A6A7B689A42D5D300E0AF
:1040B00000BF97F8273018462837BD4680BD00BF9F
:1040C00068A10608104B070880B485B000AF03460E
:1040D0000A46FB711346BB710023FB730023BB73BD
:1040E00097F90730DB435AB297F9063013405BB2B9
:1040F000BB73BB7B002B02D00023FB7301E00123C9
:10410000FB73FB7B18461437BD465DF8047B704794
:1041100080B58AB002AFF860B9607A600023FB779F
:10412000BB68002B3DD07B68002B3AD00023BB61DD
:1041300000237B610023BB6126E0BA69FB6813445E
:104140003B613B691878BA68BB6913441B78194610
:10415000FFF7BAFF0346FB77FB7F002B03D07B6999
:1041600001337B610DE03B691B781946BA68BB6976
:1041700013441B7800930B46BA690C492E2010F0AB
:104180007DFDBB690133BB61BA697B689A42D4D3B8
:104190007A687B699A4202D10123FB7701E0002310
:1041A000FB77FB7F18462037BD4680BD84A10608FB
:1041B00080B485B000AF0346FB71194BFB60FB79FF
:1041C000062B26D801A252F823F000BF01420108B5
:1041D000074201080D420108F5410108E9410108C3
:1041E000EF410108FB4101080E4BFB6011E00E4B53
:1041F000FB600EE00D4BFB600BE00D4BFB6008E03D
:104200000C4BFB6005E00C4BFB6002E00B4BFB60D2
:1042100000BFFB6818461437BD465DF8047B704745
:10422000ACA10608B0A10608BCA10608C8A10608F2
:10423000D0A10608DCA10608E0A10608F0A1060846
:1042400080B5ACB002AF7860002387F8A7304FF498
:1042500080127B68B2FBF3F3C7F890304FF4801301
:1042600000937B68D7F8902063492E2010F0CAFC99
:10427000624B1B6806226249184610F0E1FE0023DB
:10428000C7F88C300023C7F8A0300023C7F8883067
:104290000023C7F89C300023C7F898304FF0006324
:1042A000C7F894304FF00003C7F884300023C7F8F4
:1042B000A0308CE007F10C037C221A8007F10C027D
:1042C00007F10C00D7F89430009313464D4A78213B
:1042D0004DF0B6FE07F10C0207F10C007B6800936D
:1042E0001346494A78214DF0ABFED7F898207B68F9
:1042F0001344C7F898300023C7F888300023C7F864
:104300008C304FF00003C7F88430D7F8940007F1E1
:104310008C0107F1840207F1880300930B4679684A
:10432000FFF7AAFC034687F8A73097F8A730002BC1
:104330001ED0D7F8883007F10C0207F10C0000936B
:104340001346314A78214DF07BFED7F88430184669
:10435000FCF7BAF802460B4607F10C0107F10C0016
:10436000CDE900230B46294A78214DF069FE03E090
:1043700027492E2010F082FCD7F898309B0A07F1CD
:104380000C0207F10C00009313461F4A78214DF0F0
:1043900057FED7F89C101F4810F09CFE07F10C0345
:1043A00019461D4810F096FED7F89C300133C7F827
:1043B0009C30D7F894207B681344C7F894300123CD
:1043C00087F8A730D7F8A0300133C7F8A030D7F866
:1043D000A020D7F890309A42FFF46CAF074B1B68CF
:1043E00006220749184610F061FD97F8A7301846D5
:1043F000A837BD4680BD00BF00A20608A006002069
:104400006C4B070838A2060844A2060850A206080A
:104410005CA2060864A206086CA2060880B584B0F7
:1044200000AF786039600023FB737B68BB6039683C
:10443000B8680BF0D1FB0346FB73044810F04AFE4A
:10444000FB7B18461037BD4680BD00BFB4A20608EE
:1044500080B584B000AF786039600023FB734FF4FF
:104460008063BB601B492E2010F0CCFB7B68002BC7
:1044700004DB4FF48043BB600123FB737B68002B9C
:1044800009DD3B681B6807F10802114618460CF06D
:10449000B8FC0346FB73FB7B002B12D0BB681846AD
:1044A000FFF7CEFE0346FB73FB7B002B04D00A49CB
:1044B0002E2010F0A7FB08E008492E2010F0DEFBAC
:1044C00003E007492E2010F0D9FBFB7B184610377C
:1044D000BD4680BDE4A2060800A306080CA306089A
:1044E0001CA3060880B586B000AF78603960002351
:1044F000FB7500233B610023FB607B68002B16DD0E
:104500003B681B6807F11002114618460CF079FC55
:104510000346FB75FB7D83F00103DBB2002B06D065
:104520003B681B681A4621492E2010F0A7FB7B68C8
:10453000012B18DD3B6804331B6807F10C021146A0
:1045400018460CF05EFC0346FB75FB7D83F001030F
:10455000DBB2002B07D03B6804331B681A461449B2
:104560002E2010F08BFBFB7D002B16D00023FB755B
:104570003B69FA681146184605F084FE0346FB7550
:10458000FB7D002B04D00B492E2010F03BFB08E0F4
:1045900009492E2010F072FB03E008492E2010F08C
:1045A0006DFBFB7D18461837BD4680BD34A3060859
:1045B00048A306085CA3060864A3060870A30608BF
:1045C00080B588B000AF786039600023FB770023A6
:1045D0007B6100233B617B68022B37D10123FB7792
:1045E000FB7F002B16D03B681B6807F114021146B5
:1045F00018460CF006FC0346FB77FB7F83F00103B3
:10460000DBB2002B06D03B681B681A462D492E20D2
:1046100010F034FBFB7F002B18D03B6804331B6881
:1046200007F11002114618460CF0EBFB0346FB772E
:10463000FB7F83F00103DBB2002B07D03B68043320
:104640001B681A4620492E2010F018FBFB7F002B18
:104650002FD07A693B691D492E2010F0D3FA1C48EF
:1046600010F038FD0023FB730023BB610023BB6106
:1046700017E00023FB737A69BB69134407F10F014C
:1046800001221846FFF7C8FC0346FB77FB7F002B8F
:1046900004D0FB7B19460F4810F01CFDBB690133A9
:1046A000BB613B69BA699A42E3D3094810F012FD35
:1046B00003E009492E2010F0E1FAFB7F184620376D
:1046C000BD4680BD88A30608ACA30608CCA3060897
:1046D000E8A30608ECA30608F4A3060880B5C6B054
:1046E00000AF07F58C73A3F58A73186007F58C7318
:1046F000A3F58C731960002387F817310023A7F8FE
:1047000014310023C7F810310023C7F80C3107F12A
:104710000C034FF48072FF2118464DF0D5F807F5D1
:104720008C73A3F58A731B68002B37DD07F58C7338
:10473000A3F58C731B681B6807F588721146184631
:104740000CF05FFB034687F8173197F8173183F0B9
:104750000103DBB2002B0BD007F58C73A3F58C7330
:104760001B681B681A466B492E2010F087FA15E06B
:10477000D7F810311846FFF737FA034687F8173194
:1047800097F8173183F00103DBB2002B06D0D7F87E
:1047900010311A4660492E2010F070FA07F58C731C
:1047A000A3F58A731B68012B24DD07F58C73A3F531
:1047B0008C731B680433186807F5867307F10C01C6
:1047C0004FF480720DF0EDFD034687F8173197F82E
:1047D000173183F00103DBB2002B0BD007F58C738C
:1047E000A3F58C731B6804331B681A464B492E20B3
:1047F00010F044FA07F58C73A3F58A731B68022B3B
:1048000049DD07F58C73A3F58C731B6808331B68AF
:1048100007F58A72114618460CF012FD034687F818
:10482000173197F8173183F00103DBB2002B0CD05E
:1048300007F58C73A3F58C731B6808331B681A4645
:1048400037492E2010F01AFA25E007F58C73A3F5EE
:10485000877300221A80D7F80C11B7F8142107F1DA
:104860000A0307F10C0018F0EDFA034687F8173138
:1048700097F8173183F00103DBB2002B0BD0B7F8A8
:1048800014311A4607F58C73A3F587731B882549E5
:104890002E2010F0F3F907F58C73A3F58A731B68CB
:1048A000032B0FDD20492E2010F0E8F91F492E20A0
:1048B00010F0A8F91E492E2010F0A4F91D492E2051
:1048C00010F0A0F997F81731002B1BD0002387F8C0
:1048D0001731D7F81031D7F80C2107F10C01184621
:1048E00005F0D2FB034687F8173197F81731002BF4
:1048F00004D011492E2010F085F903E00F492E2035
:1049000010F0BCF997F81731184607F58C77BD46BB
:1049100080BD00BF18A406083CA4060854A40608DD
:1049200074A4060894A40608B8A40608E8A4060817
:10493000F8A4060810A506081CA506082CA506085C
:1049400080B588B002AF786039600023FB757B6862
:10495000002B02D10123FB7503E023492E2010F028
:104960008DF9FB7D002B3AD04FF000033B61002313
:10497000FB600023BB604FF000611C4810F0AAFBF5
:104980004FF480111A4810F0A5FB07F10C0107F154
:10499000100207F1080300930B464FF480114FF00B
:1049A000006024F069FB0346FB75FB7D002B16D0ED
:1049B0003B691846FBF788FD02460B460D4810F090
:1049C00089FBF968FB689B0A1A460B4810F082FBCA
:1049D000B968BB689B0A1A46084810F07BFBFB7D50
:1049E00018461837BD4680BD40A506084CA50608E8
:1049F00060A5060878A5060888A50608A4A50608E7
:104A000080B584B000AF786039600023FB737B68A9
:104A1000002B04D105F0CEFA0346FB7303E00449F2
:104A20002E2010F02BF9FB7B18461037BD4680BDB9
:104A3000C0A5060880B584B000AF78603960002357
:104A4000FB7300237B730023BB7300233B737B68E2
:104A50001B6807F10D02114618460CF075FC034661
:104A6000FB73FB7B83F00103DBB2002B07D07B6879
:104A70001B681A4639491E2010F000F911E0BB7B73
:104A80000133BB737B7B1A4635491E2010F0BAF800
:104A90007B7B03F00F03D9B23A68137861F30713F5
:104AA00013707B6804331B6807F10C02114618462B
:104AB0000CF04AFC0346FB73FB7B83F00103DBB283
:104AC000002B08D07B6804331A680F2325491E2069
:104AD00010F0D4F824E0BB7B0133BB733B7B1A4658
:104AE00021491E2010F08EF83B7B0F2B0FD83B7B0B
:104AF0001A461E491E2010F085F83B7B03F00F0379
:104B0000D9B23A68137861F30303137008E0002305
:104B1000FB733B7B1A460F2315491E2010F0AEF89D
:104B2000BB7B022B0FD1FB7B002B0CD03B68187892
:104B300000F0A0FA03461A460E491E2010F062F853
:104B40000123FB7305E00C491E2010F097F80023A9
:104B5000FB73FB7B18461037BD4680BDCCA506080D
:104B6000E0A50608F0A506080CA606081CA606087F
:104B700028A606083CA6060848A6060880B586B002
:104B800000AF0346FB71154B7B6133F073FCF8609B
:104B90000023FB740023FB7416E0FB7C104A4C21BD
:104BA00001FB03F3134404331B78FA799A4208D1CA
:104BB000FB7C4C2202FB03F33033094A13447B6134
:104BC00006E0FB7C0133FB74FB7CFA689A42E4D874
:104BD0007B6918461837BD4680BD00BF58A6060839
:104BE000A07B070880B586B000AF0346FB710023A9
:104BF000FB7500233B610023BB600023FB6033F0A7
:104C000039FCB86000233B6123E01F4A3B694C211B
:104C100001FB03F3134404331B78FA799A4215D14C
:104C2000FB680133FB60FB68012B0FD9164A3B6917
:104C30004C2101FB03F313440433187800F01AFAF3
:104C400003463A6911491E2010F018F83B690133F8
:104C50003B613A69BB689A42D7D3FB68012B02D803
:104C60000123FB7506E0FA6809491E2010F006F8DA
:104C70000023FB75FB68012B00D9FEE7FB7D18467E
:104C80001837BD4680BD00BFA07B07085CA606089C
:104C900074A6060880B485B000AF0346FB710B46CE
:104CA000BB7113467B710023FB73FB7B18461437E3
:104CB000BD465DF8047B704780B485B000AF3871A5
:104CC00039600023FB73FB7B18461437BD465DF843
:104CD000047B704780B584B000AF0023FB73264986
:104CE0001E200FF0ADFF06F005F80023BB60002387
:104CF0007B6033F0BFFB38600023BB6025E0BB68FE
:104D00004C2202FB03F31D4A1344184606F004FC30
:104D10000346FB73FB7B002B03D07B6801337B6076
:104D200010E0164ABB684C2101FB03F31344043323
:104D30001B78184600F06CF903461A4610491E20ED
:104D40000FF09CFFBB680133BB60BA683B689A42B6
:104D5000D5D33A687B689A4202D10123FB7305E000
:104D60003B687A6807491E200FF088FFFB7B1846D6
:104D70001037BD4680BD00BFD4A60608A07B07083B
:104D8000DCA60608E8A6060880B483B000AF034698
:104D90000A46FB711346BB71002318460C37BD460B
:104DA0005DF8047B704780B485B000AF0346FB71AB
:104DB0000223FB73FB79002B02D0012B03D005E00B
:104DC0000123FB7302E00023FB7300BFFB7B18464B
:104DD0001437BD465DF8047B704780B584B000AFE2
:104DE0000346FB710023FB73FB793B730223FB72C9
:104DF0003B7B07F10B021146184606F07FF903468C
:104E0000FB73FB7B002B0DD0FB7A1846FFF7CBFF23
:104E10000346BB733B7BBA7B1146184606F0A6F9E6
:104E20000346FB73FB7B18461037BD4680BD80B43C
:104E300085B000AF0346FB710023FB73FB79013B98
:104E4000082B02D80123FB7302E00123FB7300BF90
:104E5000FB7B18461437BD465DF8047B70470000A5
:104E600080B485B000AF0346FB71134BFB60FB7948
:104E7000032B17D801A252F823F000BF9F4E010860
:104E8000994E0108934E01088D4E01080B4BFB60B3
:104E90000BE00B4BFB6008E00A4BFB6005E00A4BA4
:104EA000FB6002E0044BFB6000BFFB681846143750
:104EB000BD465DF8047B704700A7060804A70608F6
:104EC0000CA7060810A7060814A7060880B485B02A
:104ED00000AF0346FB711C4BFB60FB79072B2BD803
:104EE00001A252F823F000BF334F01080F4F010811
:104EF000154F01081B4F0108214F0108274F0108DA
:104F00002D4F0108094F0108104BFB6014E0104BB6
:104F1000FB6011E00F4BFB600EE00F4BFB600BE002
:104F20000E4BFB6008E00E4BFB6005E00D4BFB6099
:104F300002E0054BFB6000BFFB6818461437BD4616
:104F40005DF8047B704700BF00A706081CA7060891
:104F500010A7060820A7060828A7060830A70608F5
:104F600034A7060838A7060880B485B000AF03460A
:104F7000FB711E4BFB60FB79082B30D801A252F865
:104F800023F000BFD94F0108A94F0108AF4F010816
:104F9000B54F0108BB4F0108C14F0108C74F0108B9
:104FA000CD4F0108D34F0108114BFB6017E0114BA7
:104FB000FB6014E0104BFB6011E0104BFB600EE057
:104FC0000F4BFB600BE00F4BFB6008E00E4BFB60F0
:104FD00005E00E4BFB6002E0044BFB6000BFFB688A
:104FE00018461437BD465DF8047B704700A70608D5
:104FF00040A7060848A7060850A7060858A70608AD
:105000001CA7060810A7060804A7060860A706083C
:1050100080B586B002AF0346FB71FB793B73FB7929
:10502000184606F061FA0346002B13D03B7BC3F30E
:105030000313DBB2184606F017FB02463B7BC3F3B3
:105040000303DBB200931346074A082107484CF0DC
:10505000F7FF04E0064A082104484CF0F1FF034B37
:1050600018461037BD4680BD64A70608E8920020A8
:105070006CA7060880B584B002AF38713B7918463A
:1050800006F032FA0346002B13D03B79C3F3031327
:10509000DBB2184606F0E8FA02463B79C3F3030395
:1050A000DBB200931346084A082108484CF0C8FFB9
:1050B00004E0074A082105484CF0C2FF034B18469C
:1050C0000837BD4680BD00BF64A70608F0920020E7
:1050D0006CA7060880B485B000AF0346FB710A4B8D
:1050E000FB60FB79002B04D0012B05D1074BFB6043
:1050F00002E0074BFB6000BFFB6818461437BD4653
:105100005DF8047B704700BF00A7060870A706087B
:1051100074A7060880B485B000AF0346FB71124B3C
:10512000FB60FB79013B032B16D801A252F823F058
:1051300041510108475101084D51010853510108DF
:105140000A4BFB6008E00A4BFB6005E0094BFB6083
:1051500002E0094BFB6000BFFB6818461437BD46F0
:105160005DF8047B704700BF00A7060878A7060813
:1051700080A7060884A7060888A7060890B585B00A
:1051800000AF0346FB71144BFB600023FB7200234E
:10519000FB7216E0FB7A114A4C2101FB03F3134426
:1051A00004331B78FA799A4208D1FB7A4C2202FB2D
:1051B00003F30A4A13440733FB6008E0FB7A013328
:1051C000FB72FC7A33F056F903469C42E2D3FB684B
:1051D00018461437BD4690BD00A70608A07B0708F7
:1051E00090B585B000AF786039600023FB73002371
:1051F0003B730023FB727B68012B07DD07F10C0377
:1052000019463868FFF716FC0346FB737B68022BD0
:1052100018DD3B6808331B6807F10B02114618467E
:105220000CF092F80346FB73FB7B83F00103DBB2C7
:10523000002B07D03B6808331B681A4633491E20F1
:105240000FF01CFDFB7B002B56D07B68022B03D09C
:105250007B68032B16D053E03B7B184605F0A6FE77
:105260000346FB723B7B1846FFF7D2FE0446FB7AEF
:105270001846FFF72BFE0346224625491E200FF055
:10528000C1FC3DE03B7B1846FFF7C2FE0446FB7ABB
:105290001846FFF71BFE034622461E491E200FF04C
:1052A000CFFC3B7BFA7A11461846FFF76DFD0346AB
:1052B000FB73FB7B002B0FD03B7B1846FFF7A8FE50
:1052C0000446FB7A1846FFF701FE034622461249C0
:1052D0001E200FF097FC13E03B7B1846FFF798FE6B
:1052E0000446FB7A1846FFF7F1FD034622460B49B8
:1052F0001E200FF0C3FC03E009491E200FF0BEFC86
:10530000FB7B18461437BD4690BD00BF6CA806084D
:1053100080A8060894A80608A8A80608B8A8060841
:10532000C8A8060880B584B000AF78603960002353
:10533000FB73FF23BB7300233B737B68012B07DDEB
:1053400007F10C0319463868FFF774FB0346FB733B
:10535000FB7B002B1DD03B7B07F10E02114618464C
:1053600005F0CCFE0346FB73FB7B83F00103DBB24D
:10537000002B04D011491E200FF080FC09E03B7B7C
:105380001846FFF745FE0246BB7B0D491E200FF075
:1053900039FC7B68022B0BD00A491E200FF06EFCF3
:1053A00009491E200FF02EFC08491E200FF02AFC90
:1053B000FB7B18461037BD4680BD00BFE0A806083D
:1053C000F0A80608F8A806080CA906081CA90608F3
:1053D000B0B586B002AF786039600023FB73052357
:1053E0007B7300233B737B68012B07DD07F10C0304
:1053F00019463868FFF71EFB0346FB737B68022BD8
:1054000018DD3B6808331B6807F10D02114618468A
:105410000BF09AFF0346FB73FB7B83F00103DBB2C7
:10542000002B07D03B6808331B681A4634491E20FE
:105430000FF024FCFB7B002B4AD07B68022B03D0AF
:105440007B68032B19D055E03B7B184605F06AFFBB
:105450000346BB733B7B1846FFF7DAFD0546BC7B72
:10546000BB7B1846FFF756FE0346009323462A46A9
:1054700024491E200FF0C6FB3CE03B7B7A7B1146A3
:10548000184605F0A5FF0346FB73FB7B002B0FD0EE
:105490003B7B1846FFF7BCFD04467B7B1846FFF7B5
:1054A00039FE0346224618491E200FF0ABFB21E0CF
:1054B0003B7B1846FFF7ACFD04467B7B1846FFF7A5
:1054C00029FE0346224611491E200FF0D7FB11E0AA
:1054D0000F491E200FF0D2FB0E491E200FF092FB49
:1054E0000D491E200FF08EFB0C491E200FF08AFB89
:1054F0000023FB73FB7B18461037BD46B0BD00BFD1
:105500002CA9060844A9060864A9060880A906086B
:10551000A0A90608B8A906081CA90608CCA906086F
:1055200080B584B000AF786039600023FB7300233E
:105530003B737B68012B07DD07F10C0319463868C4
:10554000FFF778FA0346FB737B68022B18DD3B6894
:1055500008331B6807F10E02114618460BF0F4FEE3
:105560000346FB73FB7B83F00103DBB2002B07D008
:105570003B6808331B681A4623491E200FF07EFB48
:105580007B68022B11DC21491E200FF077FB20499C
:105590001E200FF037FB1F491E200FF033FB1E4962
:1055A0001E200FF02FFB0023FB73FB7B002B26D06C
:1055B0003B7B1846FFF72CFD0246BB7B17491E209C
:1055C0000FF020FB3B7BBA7B1146184605F0CEFD61
:1055D0000346FB73FB7B83F00103DBB2002B04D09B
:1055E0000F491E200FF04AFB09E03B7B1846FFF7EE
:1055F0000FFD0246BB7B0B491E200FF003FBFB7B1C
:1056000018461037BD4680BDECA9060804AA060856
:1056100020AA06081CA906082CAA060838AA06080B
:1056200044AA060860AA060880B5AEB002AF78604A
:105630003960002387F8AF300023A7F8AC30BE4BA9
:105640001B680B22BD4918460FF0FAFC022387F8AD
:10565000A430002387F8AB3032F00CFF0346A7F8E4
:10566000A830002387F8AB3051E197F8AB30B44A4B
:105670004C2101FB03F313441B79C3F30313DBB287
:10568000082B00F03F8197F8AB30AD4A4C2101FB6D
:1056900003F3134404331B78184605F087FC0346D4
:1056A00087F8A73097F8AB30A54A4C2101FB03F3EC
:1056B000134404331B78184605F034FE034687F87C
:1056C000A6300423FB7297F8AB3007F10B029C491C
:1056D0004C2000FB03F30B44043311461878FFF70A
:1056E000EBFA034687F8AF3097F8AB30944A4C2179
:1056F00001FB03F3134404331B78184605F0F2FD55
:10570000034687F8A5300023BB7297F8AB308C4A6C
:105710004C2101FB03F313441B79C3F30313DBB2E6
:10572000184697F8AB30864A4C2101FB03F313442B
:105730001B79C3F30303DBB2194607F10A031A46C8
:1057400005F09FFD034687F8AF3007F10C037C227C
:105750001A80022387F8A43097F8AB30784A4C219E
:1057600001FB03F3134404331B7807F1A402114631
:10577000184605F0C3FC97F8AB30714A4C2101FB89
:1057800003F3134404331B781846FFF741FC024629
:1057900007F10C0307F10C0000926A4A96214CF0C5
:1057A0004FFC97F8A5301846FFF7DEFB024607F1DD
:1057B0000C0307F10C000092634A96214CF040FC68
:1057C00097F8A4301846FFF785FC024607F10C0352
:1057D00007F10C0000925D4A96214CF031FCFB7AF7
:1057E0001846FFF73DFB024607F10C0307F10C00DA
:1057F0000092554A96214CF023FC97F8A7301846A2
:10580000FFF764FB024607F10C0307F10C0000925E
:105810004F4A96214CF014FC97F8A6301846FFF733
:1058200079FC024607F10C0307F10C000092484A8C
:1058300096214CF005FC97F8AB30414A4C2101FB16
:1058400003F313441B6807F10C0207F10C000093EB
:105850001346404A96214CF0F3FBBB7A1A4607F1F7
:105860000C0307F10C0000923A4A96214CF0E8FB39
:1058700097F8AB30324A4C2101FB03F31344043355
:105880001B781846FFF77AF9024607F10C0307F177
:105890000C000092304A96214CF0D2FB97F8AB30C6
:1058A000274A4C2101FB03F3134404331B781846A9
:1058B000FFF764FC024607F10C0307F10C000092AD
:1058C000264A96214CF0BCFB07F10C033A68796834
:1058D00018460EF051FD0346002B13D0B7F8AC303C
:1058E00019461F480FF0F6FB07F10C0319461D4837
:1058F0000FF0F0FBB7F8AC300133A7F8AC30012360
:1059000087F8AF3097F8AB30013387F8AB3097F8B2
:10591000AB309BB2B7F8A8209A423FF6A6AE064B32
:105920001B680B22054918460FF0C0FA97F8AF30F4
:105930001846B037BD4680BDA00600209C4B070826
:10594000A07B070878AA060884AA060890AA060879
:105950009CAA0608A8AA0608B4AA0608C0AA0608AF
:10596000CCAA0608D4AA060880B58EB000AF78602D
:105970003960002387F8373000233B6207F12403A6
:1059800000221A605A609A60DA600023FB6007F117
:10599000100300221A605A609A60DA607B68002B5C
:1059A00010DB07F120031422234918464CF012FDA6
:1059B00007F10C031422204918464CF00BFD01237B
:1059C00087F837307B68002B0ADD3B68196807F1E0
:1059D0002003142218464CF0FDFC012387F83730D1
:1059E0007B68012B0BDD3B680433196807F10C035E
:1059F000142218464CF0EEFC012387F837307B6800
:105A0000022B03DD0D491E200FF038F997F83730CF
:105A1000002B0AD007F10C0207F1200311461846AB
:105A2000FFF702FE034687F8373097F837301846FD
:105A30003837BD4680BD00BFDCAA0608E0AA0608CC
:105A400080B584B000AF786039600023FB73002319
:105A50003B737B68012B07DD07F10C03194638689F
:105A6000FEF7E8FF0346FB73FB7B002B21D03B7B5B
:105A70001846FFF7B2F90346FB73FB7B83F0010383
:105A8000DBB2002B0AD03B7B1846FFF7C1FA034676
:105A90001A460C491E200FF0F1F80EE03B7B184629
:105AA000FFF7B6FA03461A4607491E200FF0AAF878
:105AB00003E006491E200FF0E1F8FB7B1846103783
:105AC000BD4680BDF4AA060804AB060814AB060860
:105AD00080B584B000AF786039600023FB73002389
:105AE0003B737B68012B07DD07F10C03194638680F
:105AF000FEF7A0FF0346FB73FB7B002B1AD00023AD
:105B0000FB73FB7B002B0AD03B7B1846FFF780FA28
