:020000040800F2
:1000000000C00120D9CE0408A1D10108FFD1010808
:1000100001D2010803D2010805D201080000000046
:1000200000000000000000000000000007D20108EE
:100030000FD20108000000000BD2010821D20108F4
:100040001DD20108FBD10108EFD10108F3D101084D
:10005000E7D10108A7D1010869D2010875D20108CA
:1000600081D201088DD2010899D2010829CF040854
:10007000ABD10108AFD10108B3D10108B7D1010854
:10008000BBD10108BFD101089DD1010829CF0408C7
:1000900029CF040829CF040829CF0408A5D20108D4
:1000A00087D30108E9D20108FBD201080DD301086A
:1000B00019D3010825D3010831D301089DD30108C4
:1000C00099D30108A5D30108A1D3010811D20108D1
:1000D00015D2010833D2010855D2010859D20108BE
:1000E000C5D20108B5D30108F7D101085DD30108D5
:1000F00051D3010875D3010869D30108C3D10108A0
:10010000A3D101082FD201083DD3010819D201085B
:100110005DD2010861D2010849D301084DD301081D
:10012000C7D10108CBD10108CFD10108D3D1010833
:10013000D7D1010829CF040829CF040829CF040802
:1001400029CF040829CF040829CF0408B9D301080E
:10015000DBD10108DFD10108E3D1010865D2010834
:10016000A9D30108ADD30108BDD30108E5D2010828
:1001700029CF0408C1D3010829CF040800000000DA
:10018000B1D30108EBD10108FFFFFFFFFFFFFFFF25
:10019000FFFFFFFFFFFFFFFFFFFFFFFFFFFFFFFF6F
:1001A000FFFFFFFFFFFFFFFFFFFFFFFFFFFFFFFF5F
:1001B000FFFFFFFFFFFFFFFFFFFFFFFFFFFFFFFF4F
:1001C000FFFFFFFFFFFFFFFFFFFFFFFFFFFFFFFF3F
:020000040801F1
:1000000010B5054C237833B9044B13B10448AFF352
:1000100000800123237010BD48380020000000003C
:10002000A48E050808B5034B1BB103490348AFF381
:10003000008008BD000000004C380020A48E050898
:1000400081F0004102E000BF83F0004330B54FEA89
:1000500041044FEA430594EA050F08BF90EA020FF6
:100060001FBF54EA000C55EA020C7FEA645C7FEA89
:10007000655C00F0E2804FEA5454D4EB5555B8BFAC
:100080006D420CDD2C4480EA020281EA030382EA1D
:10009000000083EA010180EA020281EA0303362DAF
:1000A00088BF30BD11F0004F4FEA01314FF4801C82
:1000B0004CEA113102D0404261EB410113F0004F94
:1000C0004FEA03334CEA133302D0524263EB43034B
:1000D00094EA050F00F0A780A4F10104D5F1200EE9
:1000E0000DDB02FA0EFC22FA05F2801841F1000144
:1000F00003FA0EF2801843FA05F359410EE0A5F118
:1001000020050EF1200E012A03FA0EFC28BF4CF048
:10011000020C43FA05F3C01851EBE37101F00045FE
:1001200007D54FF0000EDCF1000C7EEB00006EEB0B
:100130000101B1F5801F1BD3B1F5001F0CD3490895
:100140005FEA30004FEA3C0C04F101044FEA4452EC
:1001500012F5800F80F09A80BCF1004F08BF5FEA73
:10016000500C50F1000041EB045141EA050130BD53
:100170005FEA4C0C404141EB0101013C28BFB1F565
:10018000801FE9D291F0000F04BF01460020B1FAB0
:1001900081F308BF2033A3F10B03B3F120020CDA83
:1001A0000C3208DD02F1140CC2F10C0201FA0CF061
:1001B00021FA02F10CE002F11402D8BFC2F1200CC6
:1001C00001FA02F120FA0CFCDCBF41EA0C0190407C
:1001D000E41AA2BF01EB0451294330BD6FEA0404C5
:1001E0001F3C1CDA0C340EDC04F11404C4F12002B0
:1001F00020FA04F001FA02F340EA030021FA04F3C2
:1002000045EA030130BDC4F10C04C4F1200220FA18
:1002100002F001FA04F340EA0300294630BD21FA56
:1002200004F0294630BD94F0000F83F4801306BF1C
:1002300081F480110134013D4EE77FEA645C18BF10
:100240007FEA655C29D094EA050F08BF90EA020FA7
:1002500005D054EA000C04BF1946104630BD91EA9F
:10026000030F1EBF0021002030BD5FEA545C05D1A2
:100270004000494128BF41F0004130BD14F58004E1
:100280003CBF01F5801130BD01F0004545F0FE4155
:1002900041F470014FF0000030BD7FEA645C1ABF8A
:1002A000194610467FEA655C1CBF0B46024650EAC1
:1002B000013406BF52EA033591EA030F41F40021ED
:1002C00030BD00BF90F0000F04BF0021704730B573
:1002D0004FF4806404F132044FF000054FF0000148
:1002E00050E700BF90F0000F04BF0021704730B509
:1002F0004FF4806404F1320410F0004548BF4042DE
:100300004FF000013EE700BF42004FEAE2014FEA32
:1003100031014FEA02701FBF12F07F4393F07F4F0D
:1003200081F06051704732F07F4208BF704793F010
:100330007F4F04BF41F40021704730B54FF4607423
:1003400001F0004521F000411CE700BF50EA010226
:1003500008BF704730B54FF000050AE050EA0102CF
:1003600008BF704730B511F0004502D5404261EB3F
:1003700041014FF4806404F132045FEA915C3FF480
:10038000D8AE4FF003025FEADC0C18BF03325FEA1D
:10039000DC0C18BF033202EBDC02C2F1200300FACE
:1003A00003FC20FA02F001FA03FE40EA0E0021FAF3
:1003B00002F11444BDE600BF70B54FF0FF0C4CF4E1
:1003C000E06C1CEA11541DBF1CEA135594EA0C0F93
:1003D00095EA0C0F00F0DEF82C4481EA030621EACE
:1003E0004C5123EA4C5350EA013518BF52EA033509
:1003F00041F4801143F4801338D0A0FB02CE4FF0BB
:100400000005E1FB02E506F00042E0FB03E54FF0EA
:100410000006E1FB03569CF0000F18BF4EF0010EE2
:10042000A4F1FF04B6F5007F64F5407404D25FEADE
:100430004E0E6D4146EB060642EAC62141EA555191
:100440004FEAC52040EA5E504FEACE2EB4F1FD0CD3
:1004500088BFBCF5E06F1ED8BEF1004F08BF5FEA51
:10046000500E50F1000041EB045170BD06F0004603
:1004700046EA010140EA020081EA0301B4EB5C04B0
:10048000C2BFD4EB0C0541EA045170BD41F48011A8
:100490004FF0000E013C00F3AB8014F1360FDEBFCD
:1004A000002001F0004170BDC4F10004203C35DAA9
:1004B0000C341BDC04F11404C4F1200500FA05F32C
:1004C00020FA04F001FA05F240EA020001F00042CD
:1004D00021F0004110EBD37021FA04F642EB060143
:1004E0005EEA430E08BF20EAD37070BDC4F10C046D
:1004F000C4F1200500FA04F320FA05F001FA04F231
:1005000040EA020001F0004110EBD37041F100011C
:100510005EEA430E08BF20EAD37070BDC4F1200527
:1005200000FA05F24EEA020E20FA04F301FA05F28F
:1005300043EA020321FA04F001F0004121FA04F237
:1005400020EA020000EBD3705EEA430E08BF20EA07
:10055000D37070BD94F0000F0FD101F00046400041
:1005600041EB010111F4801F08BF013CF7D041EAC3
:10057000060195F0000F18BF704703F000465200C7
:1005800043EB030313F4801F08BF013DF7D043EA98
:100590000603704794EA0C0F0CEA135518BF95EA4E
:1005A0000C0F0CD050EA410618BF52EA4306D1D1D5
:1005B00081EA030101F000414FF0000070BD50EAF4
:1005C000410606BF1046194652EA430619D094EA7E
:1005D0000C0F02D150EA013613D195EA0C0F05D168
:1005E00052EA03361CBF104619460AD181EA0301BC
:1005F00001F0004141F0FE4141F470014FF0000074
:1006000070BD41F0FE4141F4780170BD70B54FF00E
:10061000FF0C4CF4E06C1CEA11541DBF1CEA13558E
:1006200094EA0C0F95EA0C0F00F0A7F8A4EB050470
:1006300081EA030E52EA03354FEA013100F0888067
:100640004FEA03334FF0805545EA131343EA126330
:100650004FEA022245EA111545EA10654FEA0026E5
:100660000EF000419D4208BF964244F1FD0404F59E
:10067000407402D25B084FEA3202B61A65EB0305FA
:100680005B084FEA32024FF480104FF4002CB6EBB7
:10069000020E75EB030E22BFB61A754640EA0C0037
:1006A0005B084FEA3202B6EB020E75EB030E22BF77
:1006B000B61A754640EA5C005B084FEA3202B6EBB8
:1006C000020E75EB030E22BFB61A754640EA9C0077
:1006D0005B084FEA3202B6EB020E75EB030E22BF47
:1006E000B61A754640EADC0055EA060E18D04FEA05
:1006F000051545EA16754FEA06164FEAC30343EAA5
:1007000052734FEAC2025FEA1C1CC0D111F4801F71
:100710000BD141EA00014FF000004FF0004CB6E76A
:1007200011F4801F04BF01430020B4F1FD0C88BF09
:10073000BCF5E06F3FF6AFAEB5EB030C04BFB6EB14
:10074000020C5FEA500C50F1000041EB045170BD07
:100750000EF0004E4EEA113114EB5C04C2BFD4EB34
:100760000C0541EA045170BD41F480114FF0000EB8
:10077000013C90E645EA060E8DE60CEA135594EA34
:100780000C0F08BF95EA0C0F3FF43BAF94EA0C0F37
:100790000AD150EA01347FF434AF95EA0C0F7FF4AC
:1007A00025AF104619462CE795EA0C0F06D152EA00
:1007B00003353FF4FDAE1046194622E750EA4106E4
:1007C00018BF52EA43067FF4C5AE50EA41047FF4F5
:1007D0000DAF52EA43057FF4EBAE12E74FF0FF3C5A
:1007E00006E000BF4FF0010C02E000BF4FF0010C2B
:1007F0004DF804CD4FEA410C7FEA6C5C4FEA430CA4
:1008000018BF7FEA6C5C1BD001B050EA410C0CBFF2
:1008100052EA430C91EA030F02BF90EA020F002054
:10082000704710F1000F91EA030F58BF994208BFBB
:1008300090422CBFD8176FEAE37040F00100704778
:100840004FEA410C7FEA6C5C02D150EA013C07D1CF
:100850004FEA430C7FEA6C5CD6D152EA033CD3D01A
:100860005DF8040B704700BF8446104662468C4614
:100870001946634600E000BF01B5FFF7B7FF002847
:1008800048BF10F1000F01BD4DF808EDFFF7F4FF70
:100890000CBF012000205DF808FB00BF4DF808EDFB
:1008A000FFF7EAFF34BF012000205DF808FB00BF1E
:1008B0004DF808EDFFF7E0FF94BF012000205DF840
:1008C00008FB00BF4DF808EDFFF7CEFF94BF0120F5
:1008D00000205DF808FB00BF4DF808EDFFF7C4FFEE
:1008E00034BF012000205DF808FB00BF4FEA410C37
:1008F0007FEA6C5C02D150EA013C0AD14FEA430C1A
:100900007FEA6C5C02D152EA033C02D14FF0000056
:1009100070474FF0010070474FEA410212F5001294
:1009200015D211D56FF47873B3EB625212D94FEA36
:10093000C12343F0004343EA505311F0004F23FA20
:1009400002F018BF404270474FF00000704750EA75
:10095000013005D111F0004008BF6FF00040704732
:100960004FF00000704700BF4A0011D212F500128C
:1009700011D20DD56FF47873B3EB62520ED44FEAF7
:10098000C12343F0004343EA505323FA02F0704777
:100990004FF00000704750EA013002D14FF0FF30B5
:1009A00070474FF0000070474FEA4102B2F1E04358
:1009B00024BFB3F5001CDCF1FE5C0DD901F0004C46
:1009C0004FEAC0024CEA5070B2F1004F40EB830096
:1009D00008BF20F00100704711F0804F21D113F1C2
:1009E0003872BCBF01F00040704741F480114FEAFB
:1009F0005252C2F11802C2F1200C10FA0CF320FA84
:100A000002F018BF40F001004FEAC1234FEAD323A0
:100A100003FA0CFC40EA0C0023FA02F34FEA43030A
:100A2000CCE77FEA625307D150EA01331EBF4FF093
:100A3000FE4040F44000704701F0004040F0FE40AE
:100A400040F40000704700BF80F0004002E000BFAB
:100A500081F0004142001FBF5FEA410392EA030FA9
:100A60007FEA226C7FEA236C6AD04FEA1262D2EBF3
:100A70001363C1BFD218414048404140B8BF5B42F8
:100A8000192B88BF704710F0004F40F4000020F091
:100A90007F4018BF404211F0004F41F4000121F0A7
:100AA0007F4118BF494292EA030F3FD0A2F10102F1
:100AB00041FA03FC10EB0C00C3F1200301FA03F12F
:100AC00000F0004302D5494260EB4000B0F5000F52
:100AD00013D3B0F1807F06D340084FEA310102F111
:100AE0000102FE2A51D2B1F1004F40EBC25008BFC3
:100AF00020F0010040EA03007047490040EB00008D
:100B0000013A28BFB0F5000FEDD2B0FA80FCACF18D
:100B1000080CB2EB0C0200FA0CF0AABF00EBC250BA
:100B200052421843BCBFD0401843704792F0000FA8
:100B300081F4000106BF80F400000132013BB5E7FB
:100B40004FEA41037FEA226C18BF7FEA236C21D071
:100B500092EA030F04D092F0000F08BF08467047D6
:100B600090EA010F1CBF0020704712F07F4F04D1A4
:100B7000400028BF40F00040704712F100723CBFB7
:100B800000F50000704700F0004343F0FE4040F4E1
:100B9000000070477FEA226216BF08467FEA23639F
:100BA0000146420206BF5FEA412390EA010F40F48A
:100BB000800070474FF0000304E000BF10F00043D6
:100BC00048BF40425FEA000C08BF704743F09643BD
:100BD00001464FF000001CE050EA010208BF7047D8
:100BE0004FF000030AE000BF50EA010208BF70475F
:100BF00011F0004302D5404261EB41015FEA010C74
:100C000002BF84460146002043F0B64308BFA3F16B
:100C10008053A3F50003BCFA8CF2083AA3EBC2534D
:100C200010DB01FA02FC634400FA02FCC2F120026C
:100C3000BCF1004F20FA02F243EB020008BF20F0A3
:100C40000100704702F1200201FA02FCC2F1200209
:100C500050EA4C0021FA02F243EB020008BF20EAFE
:100C6000DC7070477BB972B90029BEBF00204FF01D
:100C7000004106E008BF00281CBF6FF000414FF0A4
:100C8000FF3000F0FDB9ADF1080C6DE904CE00298C
:100C900009DB002B1ADB00F08BF8DDF804E0DDE95E
:100CA000022304B07047404261EB4101002B1BDB83
:100CB00000F07EF8DDF804E0DDE9022304B04042F4
:100CC00061EB4101524263EB43037047524263EBD5
:100CD000430300F06DF8DDF804E0DDE9022304B021
:100CE000404261EB41017047524263EB430300F025
:100CF0005FF8DDF804E0DDE9022304B0524263EB63
:100D00004303704753B94AB9002908BF00281CBFE4
:100D10004FF0FF314FF0FF3000F0B2B9ADF1080CE9
:100D20006DE904CE00F044F8DDF804E0DDE90223CB
:100D300004B07047D0B5FFF7E7FA0C4B0022064627
:100D40000F46FFF739FBFFF70FFE0446FFF7BAFA2D
:100D5000074B0022FFF730FB02460B463046394670
:100D6000FFF772F9FFF700FE2146D0BD0000F03D0D
:100D70000000F041D0B50C4B002206460F46FFF7AD
:100D80001BFBFFF7F1FD0446FFF79CFA074B00221F
:100D9000FFF712FB02460B4630463946FFF754F97F
:100DA000FFF7E2FD2146D0BD0000F03D0000F0411C
:100DB0002DE9F047089D04468E46002B4DD18A420E
:100DC000944669D9B2FA82F252B101FA02F3C2F141
:100DD000200120FA01F10CFA02FC41EA030E9440D2
:100DE0004FEA1C48210CBEFBF8F61FFA8CF708FBF3
:100DF00016E341EA034306FB07F199420AD91CEBCB
:100E0000030306F1FF3080F01F81994240F21C81FC
:100E1000023E63445B1AA4B2B3FBF8F008FB103344
:100E200044EA034400FB07F7A7420AD91CEB040479
:100E300000F1FF3380F00A81A74240F20781644449
:100E4000023840EA0640E41B00261DB1D4400023CE
:100E5000C5E900433146BDE8F0878B4209D9002D32
:100E600000F0EF800026C5E9000130463146BDE8BC
:100E7000F087B3FA83F6002E4AD18B4202D3824226
:100E800000F2F980841A61EB030301209E46002DD5
:100E9000E0D0C5E9004EDDE702B9FFDEB2FA82F22A
:100EA000002A40F09280A1EB0C014FEA1C471FFA88
:100EB0008CFE0126200CB1FBF7F307FB131140EA6F
:100EC00001410EFB03F0884208D91CEB010103F13C
:100ED000FF3802D2884200F2CB804346091AA4B2FE
:100EE000B1FBF7F007FB101144EA01440EFB00FED2
:100EF000A64508D91CEB040400F1FF3102D2A64537
:100F000000F2BB800846A4EB0E0440EA03409CE7D5
:100F1000C6F12007B34022FA07FC4CEA030C20FA82
:100F200007F401FA06F31C43F9404FEA1C4900FAA2
:100F300006F3B1FBF9F8200C1FFA8CFE09FB18111F
:100F400040EA014108FB0EF0884202FA06F20BD992
:100F50001CEB010108F1FF3A80F08880884240F2E2
:100F60008580A8F102086144091AA4B2B1FBF9F026
:100F700009FB101144EA014100FB0EFE8E4508D921
:100F80001CEB010100F1FF346CD28E456AD90238A6
:100F9000614440EA0840A0FB0294A1EB0E01A1428B
:100FA000C846A64656D353D05DB1B3EB080261EBF9
:100FB0000E0101FA07F722FA06F3F1401F43C5E9D3
:100FC000007100263146BDE8F087C2F12003D84009
:100FD0000CFA02FC21FA03F3914001434FEA1C474B
:100FE0001FFA8CFEB3FBF7F007FB10360B0C43EA3D
:100FF000064300FB0EF69E4204FA02F408D91CEBED
:10100000030300F1FF382FD29E422DD902386344EA
:101010009B1B89B2B3FBF7F607FB163341EA03418A
:1010200006FB0EF38B4208D91CEB010106F1FF38D9
:1010300016D28B4214D9023E6144C91A46EA0046D0
:1010400038E72E46284605E70646E3E61846F8E662
:101050004B45A9D2B9EB020864EB0C0E0138A3E7AB
:101060004646EAE7204694E74046D1E7D0467BE78C
:10107000023B614432E7304609E76444023842E704
:10108000704700BF844641EA000313F003036DD1AB
:10109000403A41D351F8043B40F8043B51F8043B3B
:1010A00040F8043B51F8043B40F8043B51F8043B42
:1010B00040F8043B51F8043B40F8043B51F8043B32
:1010C00040F8043B51F8043B40F8043B51F8043B22
:1010D00040F8043B51F8043B40F8043B51F8043B12
:1010E00040F8043B51F8043B40F8043B51F8043B02
:1010F00040F8043B51F8043B40F8043B51F8043BF2
:1011000040F8043B51F8043B40F8043B51F8043BE1
:1011100040F8043B403ABDD2303211D351F8043B81
:1011200040F8043B51F8043B40F8043B51F8043BC1
:1011300040F8043B51F8043B40F8043B103AEDD230
:101140000C3205D351F8043B40F8043B043AF9D281
:10115000043208D0D2071CBF11F8013B00F8013B54
:1011600001D30B8803806046704700BF082A13D361
:101170008B078DD010F003038AD0C3F10403D21A79
:10118000DB071CBF11F8013B00F8013B80D331F8AD
:10119000023B20F8023B7BE7043AD9D3013A11F82D
:1011A000013B00F8013BF9D20B7803704B78437098
:1011B0008B788370604670470000000000000000DC
:1011C000A2EB0300704700BF02780B78012A28BF0A
:1011D0009A42F5D16DE9044540EA0104CDE9026780
:1011E0006FF0000C4FEA447212B380EA010414F06D
:1011F000070F6AD100F0070420F0070004F0030590
:1012000021F007014FEAC505F0E8042314F0040FAC
:10121000F1E804670CFA05F462EA040266EA0406DF
:101220000AD063EA0403624667EA0407664603E0FD
:10123000F0E80423F1E8046782FA4CF582EA060438
:10124000A4FA8CF46CBB83FA4CF583EA0705A5FA83
:101250008CF595B950E9022351E9026782FA4CF501
:1012600082EA0604A4FA8CF483FA4CF583EA0705B3
:10127000A5FA8CF52543DBD09CB92DBAB5FA85F4D7
:1012800024F0070427FA04F1DDE9026723FA04F3E6
:1012900003F0FF0001F0FF01FDE80445A0EB0100B1
:1012A000704724BAB4FA84F424F0070426FA04F14F
:1012B000DDE9026722FA04F202F0FF0001F0FF010B
:1012C000FDE80445A0EB0100704714F0030F3CD18A
:1012D00010F0030428D150F8082B51F8083B82FA8B
:1012E0004CF582EA0305A5FA8CF55DB950F8042C9B
:1012F00051F8043C82FA4CF582EA0305A5FA8CF514
:10130000002DE8D02DBAB5FA85F424F0070423FAAD
:1013100004F122FA04F202F0FF0001F0FF01FDE8FF
:101320000445A0EB010070474FEAC40420F003001D
:1013300050F8082B21F0030151F8083B0CFA04F493
:1013400062EA040263EA0403C9E710F003041AD056
:10135000A1EB040120F00300E40750F8042B06D0B1
:101360000FD28B785FFAA2F4E41A06D12BB1CB78B6
:101370005FFAB2F4E41A00D11BB920465DF8104BB5
:10138000704701F1040150F8042BCC0721F0030150
:1013900051F8043B48D824D222F07F4482FA4CF51D
:1013A00094EA1325A5FA8CF50AD165B951F8043BE6
:1013B00084EA0204B4EB036F0ED150F8042BEBE780
:1013C0004FEA132355E035F07F454DD10878FDE80D
:1013D0000445C0F1000070474FEA126203F0FF03BA
:1013E00047E002EA1C4482FA4CF594EA1345A5FA58
:1013F0008CF50AD165B951F8043B84EA0204B4EBD8
:10140000034F0CD150F8042BEBE74FEA134330E0C5
:1014100015EA1C4528D10B884FEA124229E04FEA11
:10142000124203EA1C4324E002F0FF0482FA4CF566
:1014300094EA1365A5FA8CF50AD165B951F8043B15
:1014400084EA0204B4EB032F09D150F8042BEBE734
:101450004FEA13630DE015F0FF0F05D10B684FEA5B
:10146000122223F07F4304E04FF00000FDE8044522
:10147000704712BA1BBA82FA4CF482EA0304A4FA47
:101480008CF5B5FA85F402FA04F203FA04F34FEA94
:101490001260FDE80445A0EB1360704700000000F7
:1014A000000000000000000000000000000000003C
:1014B000000000000000000000000000000000002C
:1014C00090F800F06DE9024520F007016FF0000C84
:1014D00010F0070491F820F040F049804FF000042C
:1014E0006FF00700D1E9002391F840F000F1080007
:1014F00082FA4CF2A4FA8CF283FA4CF3A2FA8CF33F
:101500004BBBD1E9022382FA4CF200F10800A4FAA5
:101510008CF283FA4CF3A2FA8CF3E3B9D1E90423F9
:1015200082FA4CF200F10800A4FA8CF283FA4CF330
:10153000A2FA8CF37BB9D1E9062301F1200182FAEA
:101540004CF200F10800A4FA8CF283FA4CF3A2FAF0
:101550008CF3002BC6D0002A04BF04301A4612BAFE
:10156000B2FA82F2FDE8024500EBD2007047D1E901
:10157000002304F00305C4F100004FEAC50514F090
:10158000040F91F840F00CFA05F562EA05021CBF61
:1015900063EA050362464FF00004A9E7000000007B
:1015A00001F0FF01102A2BDB10F0070F08D010F814
:1015B000013B013A8B422DD010F0070F42B3F6D118
:1015C000F0B441EA012141EA014122F007047FF031
:1015D00000070023F0E80256083C85EA010586EA88
:1015E000010685FA47F5A3FA87F586FA47F6A5FAC4
:1015F00087F68EB9EED1F0BC01F0FF0102F00702D0
:1016000032B110F8013B013A83EA010313B1F8D17A
:101610000020704701387047002D06BF354603385B
:10162000073815F0010F07D1013015F4807F02BF94
:10163000013015F4C03F0130F0BC0138704700BFE5
:1016400000B583B000238DF807300BF0D1FF009078
:10165000009B084A0849112016F095FF0BF01EFF69
:1016600003468DF807309DF80730184603B05DF843
:1016700004FB00BFC08E0508CC8E050800B585B000
:10168000019001238DF80F30019800F03BFD0346D7
:101690008DF80F309DF80F3083F00103DBB2002B83
:1016A00005D0019805F0CAFE03468DF80F309DF86D
:1016B0000F30184605B05DF804FB000000B587B098
:1016C00003468DF80730002305930023049335F07B
:1016D000DEFB0390002304931AE0124A049B5B0193
:1016E000134418331B789DF807209A420DD10D4AF8
:1016F000049B5B01134419331B78002B05D0049B1A
:101700005B01084A1344059306E0049B01330493EC
:10171000049A039B9A42E0D3059B184607B05DF8F4
:1017200004FB00BFF010002000B587B003468DF821
:101730000730002305930023049335F0A8FB0390A2
:101740000023049323E01749049A1346DB009B1AF5
:101750009B000B4418331B789DF807209A4213D145
:101760001049049A1346DB009B1A9B000B44193363
:101770001B78002B10D0049A1346DB009B1A9B00A9
:10178000084A1344059307E0049B01330493049A29
:10179000039B9A42D7D300E000BF059B184607B0D1
:1017A0005DF804FB189D060800B585B00190002384
:1017B0008DF80F30019B002B53D001238DF80F3093
:1017C000019B5B69002B06D1019B1B7E1A462849B1
:1017D0003D2016F0D8FE019B1B69002B09D1019B0F
:1017E0001B7E1A4623493D2016F061FF00238DF829
:1017F0000F30019B1B68002B09D1019B1B7E1A46F1
:101800001D493D2016F053FF00238DF80F30019B3A
:101810009B68002B09D1019B1B7E1A4617493D206E
:1018200016F045FF00238DF80F30019BDB68002B7D
:1018300009D1019B1B7E1A4611493D2016F037FF46
:1018400000238DF80F30019B9B88002B09D1019B51
:101850001B7E1A460B493D2016F029FF00238DF808
:101860000F309DF80F30184605B05DF804FB00BF3F
:10187000E88E0508F48E0508048F05081C8F0508FE
:10188000348F0508488F050800B583B000238DF814
:101890000730054A05493D2016F092FE9DF80730B5
:1018A000184603B05DF804FB5C8F0508608F0508DF
:1018B00084B00190009100238DF80F30019B002B24
:1018C0001DD0009B002B1AD0019B1A69009B1A6146
:1018D000019B1A68009B1A60019BDA68009BDA6022
:1018E000019B9A68009B9A60009B019A92889A805B
:1018F000019B5A69009B5A6101238DF80F309DF8B6
:101900000F30184604B0704784B003468DF8073096
:1019100000238DF80F309DF80730FF2B00F28882EE
:1019200001A252F823F000BF291D0108311D010852
:10193000391D0108411D0108491D0108511D0108FB
:10194000591D0108611D0108691D0108711D01086B
:10195000791D0108811D0108891D0108911D0108DB
:10196000311E0108311E0108311E0108311E010817
:10197000311E0108311E0108311E0108311E010807
:10198000311E0108311E0108311E0108311E0108F7
:10199000311E0108311E0108311E0108311E0108E7
:101CA000311E0108311E0108991D0108A11D0108FE
:101CB000A91D0108B11D0108B91D0108C11D0108B8
:101CC000C91D0108D11D0108D91D0108E11D010828
:101CD000E91D0108F11D0108F91D0108011E010897
:101CE000091E0108111E0108311E0108311E0108DC
:101CF000311E0108311E0108311E0108311E010884
:101D0000311E0108311E0108311E0108311E010873
:101D1000311E0108311E0108311E0108191E01087B
:101D2000211E0108291E010801238DF80F3083E0D0
:101D300000238DF80F307FE000238DF80F307BE01B
:101D400000238DF80F3077E000238DF80F3073E01B
:101D500000238DF80F306FE000238DF80F306BE01B
:101D600000238DF80F3067E000238DF80F3063E01B
:101D700000238DF80F305FE000238DF80F305BE01B
:101D800000238DF80F3057E000238DF80F3053E01B
:101D900000238DF80F304FE000238DF80F304BE01B
:101DA00000238DF80F3047E000238DF80F3043E01B
:101DB00000238DF80F303FE000238DF80F303BE01B
:101DC00000238DF80F3037E000238DF80F3033E01B
:101DD00000238DF80F302FE000238DF80F302BE01B
:101DE00000238DF80F3027E000238DF80F3023E01B
:101DF00000238DF80F301FE000238DF80F301BE01B
:101E000000238DF80F3017E000238DF80F3013E01A
:101E100000238DF80F300FE000238DF80F300BE01A
:101E200000238DF80F3007E000238DF80F3003E01A
:101E300000238DF80F3000BF9DF80F30184604B016
:101E4000704700BF00B585B0019000238DF80F30BA
:101E5000019B01225A76019B0022DA61019B1B69DA
:101E60001422002118463DF015F8019B1869019BCA
:101E70009968019BDA68019B1B683AF015FF0346DD
:101E80008DF80E309DF80E301846FFF73DFD0346E5
:101E90008DF80F309DF80F30002B09D0019B0122E7
:101EA0009A76019B1B7E1A4604493D2016F088FB5A
:101EB0009DF80F30184605B05DF804FB748F0508D7
:101EC00000B587B003468DF8073000238DF8173032
:101ED0009DF807301A462A493D2016F054FB9DF81C
:101EE00007301846FFF720FC0490049B002B39D0E4
:101EF0000498FFF759FC03468DF817309DF817300A
:101F0000002B27D004982FF077F803461A461D4976
:101F10003D2016F038FB9DF807301846FFF7CEFB42
:101F20000390039B002B0DD003990498FFF7C0FC8E
:101F300003468DF817300398FFF784FF03468DF8AA
:101F4000173016E09DF807301A460F493D2016F06D
:101F5000AEFB0EE09DF807301A460C493D2016F006
:101F6000A6FB06E09DF807301A4608493D2016F00A
:101F700044FB9DF81730184607B05DF804FB00BF1E
:101F8000888F0508948F0508988F0508A48F050889
:101F900000B585B001238DF80A30FFF775FC0346C4
:101FA0008DF80A300023039334F071FF0190002371
:101FB0008DF80B3000238DF80B3013E09DF80B30BB
:101FC0001846FFF77DFF03468DF80A309DF80A306A
:101FD000002B02D0039B013303939DF80B30013398
:101FE0008DF80B309DF80B30019A9A42E6D2019998
:101FF000039827F081F803468DF80A309DF80A30DF
:10200000184605B05DF804FB00B587B003468DF8AF
:102010000730002305930023049335F0EBF8039079
:102020000023049323E01649049A1346DB0013446B
:102030009B000B4404331B789DF807209A4213D170
:102040000F49049A1346DB0013449B000B441033E2
:102050001B78002B08D0049A1346DB0013449B0026
:10206000074A1344059306E0049B01330493049A42
:10207000039B9A42D7D3059B184607B05DF804FB33
:10208000702D002000B587B003468DF8073000237F
:1020900005930023049335F0ADF8039000230493D7
:1020A00023E01749049A13469B0013449B000B44FA
:1020B00004331B789DF807209A4213D11049049AE3
:1020C00013469B0013449B000B4410331B78002BDA
:1020D00010D0049A13469B0013449B00084A1344F3
:1020E000059307E0049B01330493049A039B9A42EF
:1020F000D7D300E000BF059B184607B05DF804FB8E
:10210000BCA1060882B0034600228DF80720B3F177
:10211000005F05D3054A934202D801238DF80730AA
:102120009DF80730184602B0704700BF00C001207C
:1021300000B587B0039002910192009300238DF8BF
:102140001330029A019B9A420AD2029B591C009BAF
:10215000019A0398FFF7ECFF03468DF8133012E065
:10216000029A019B9A420BD10DF11303039AD31AE1
:102170000593009B059A1A6001238DF8133002E045
:1021800000238DF813309DF81330184607B05DF822
:1021900004FB000000B587B0039002910192002378
:1021A0008DF81730019B029A00210398FFF7C0FFBA
:1021B00003468DF81730019B1B68029A04490920D9
:1021C00016F0FEF99DF81730184607B05DF804FBCD
:1021D000B48F050800B583B000238DF80730094996
:1021E000092016F0D0F94FF47A7024F0CBFC00F0FF
:1021F0004DFD03468DF807309DF80730184603B0B3
:102200005DF804FBD08F05082DE9F00F86B0019032
:1022100001238DF81730002304934FF000024FF094
:102220000003CDE902230023049313E0019A049BE9
:1022300006339B0013445B6800221E461746DDE907
:10224000022312EB060A43EB070BCDE902AB049B1A
:1022500001330493049B032BE8D9019B5B6B0022A1
:102260001C461546DDE9022312EB040843EB050981
:10227000CDE90289DDE90223134303D101238DF85F
:10228000173002E000238DF817309DF817301846FC
:1022900006B0BDE8F00F704700B585B0019001238E
:1022A0008DF80F300198FFF7AFFF03468DF80F3020
:1022B0009DF80F3083F00103DBB2002B04D0019AAC
:1022C0004D49092016F0B7F99DF80F30002B13D0B7
:1022D000019B1B681846FFF715FF03468DF80F306A
:1022E0009DF80F3083F00103DBB2002B04D0019A7C
:1022F0004249092016F09FF99DF80F30002B15D0A8
:10230000019B5B68184605F099F803468DF80F307D
:102310009DF80F3083F00103DBB2002B06D0019B48
:102320005B681A463649092016F085F99DF80F308A
:10233000002B07D0019BDB68184605F07FF80346A9
:102340008DF80F309DF80F30002B07D0019B1B69D3
:10235000184605F073F803468DF80F309DF80F30DE
:10236000002B07D0019B5B69184605F067F8034610
:102370008DF80F309DF80F30002B07D0019B9B6923
:10238000184605F05BF803468DF80F309DF80F30C6
:10239000002B07D0019B1B6B184605F04FF8034636
:1023A0008DF80F309DF80F30002B07D0019BDB6AB2
:1023B000184605F043F803468DF80F309DF80F30AE
:1023C000002B07D0019B9B6B184605F037F803469E
:1023D0008DF80F309DF80F30002B07D0019B9B68C4
:1023E000184605F02BF803468DF80F309DF80F3096
:1023F000184605B05DF804FBDC8F0508F88F05086A
:102400001490050810B58CB003900291019205ABB1
:1024100000221A605A609A60019B029A1C490920A6
:1024200016F009F9019B9B080B930B9B002B25D001
:1024300000230493029A019BD31A0A9304AB154A12
:102440000B990A9810F0DAFE03468DF827309DF8B4
:102450002730002B12D000230893049B0B9AD31A29
:102460000893089B642202FB03F318460B9905AB03
:10247000052220F079FB03468DF82730039B1C468C
:1024800005AB93E8070084E8070003980CB010BD83
:102490002C900508EFBEADDE00B585B0019000239D
:1024A0008DF80F30019B02930298FFF7F5FE03466B
:1024B0008DF80F309DF80F30184605B05DF804FB1D
:1024C00082B001238DF80730064BD3F88830054AD7
:1024D00043F47003C2F888309DF80730184602B004
:1024E000704700BF00ED00E086B0019000238DF83A
:1024F000173001238DF81730184B9A6A184B1B6858
:10250000164913438B62EFF313830393039B0493E6
:1025100071B600BF114B5B69104A43F4807353617D
:10252000019B1B780D4B9A6A0D4B1B681340002BC7
:1025300002D000238DF81730084B5B69074A23F45B
:1025400080735361049B0293029B83F3138800BF43
:102550009DF81730184606B0704700BF00ED00E048
:102560000467060800B587B0019000230593019A1F
:102570001549092016F024F8019B049301238DF8D6
:102580000F300FE00498FFF7AFFF03468DF80F30D0
:102590009DF80F30002B0AD0059B01330593049B57
:1025A000013304939DF80F30002BEBD100E000BF06
:1025B000059B019A0549092016F002F8059B18466B
:1025C00007B05DF804FB00BF98900508A4900508CB
:1025D00000B583B001238DF807304FF00050FFF7AE
:1025E000C1FF0090009B4FF000520549092015F0F3
:1025F000E7FF9DF80730184603B05DF804FB00BF05
:10260000D490050884B00190009100238DF80F301C
:10261000019B002B11D0009B002B0ED0019B1A6850
:10262000009B1A60019B9A68009B9A60019BDA6884
:10263000009BDA6001238DF80F309DF80F301846AB
:1026400004B0704700B585B0019000238DF80F30BD
:10265000019B002B35D001238DF80F30019B9B6827
:102660001846FFF74FFD034683F00103DBB2002B52
:1026700008D0019B1B791A46019B9B6814490920CD
:1026800015F0BBFF019BDB681846FFF73BFD0346D7
:1026900083F00103DBB2002B08D0019B1B791A46A3
:1026A000019BDB680B49092015F0A7FF019B1B6804
:1026B000002B06D1019B1B791A460749092015F00A
:1026C0009CFF9DF80F30184605B05DF804FB00BF75
:1026D000F09005080C9105082891050800B587B011
:1026E00003468DF8073000238DF817309DF807302A
:1026F0001A463249092015F046FF9DF80730184662
:10270000FFF7C0FC0490049B002B4AD00498FFF70D
:1027100099FF03468DF817309DF81730002B38D0FD
:10272000049802F055FE03461A462549092015F083
:102730002AFF9DF807301846FFF766FC0390039BBD
:10274000002B1ED003990498FFF75CFF03468DF819
:102750001730FFF7B5FE03468DF81730039B0122B3
:102760001A74039B0022DA61039B00229A61039B87
:1027700000225A61039B01225A7401238DF81730FD
:1027800016E09DF807301A460E49092015F08FFF14
:102790000EE09DF807301A460B49092015F087FF17
:1027A00006E09DF807301A460749092015F025FF75
:1027B0009DF81730184607B05DF804FB3C910508FA
:1027C00044910508489105085491050882B00023FA
:1027D0008DF807309DF80730184602B070470000AA
:1027E00008B5FFF7F3FF034683F00103DBB2002BCC
:1027F0000AD0064B1B68002B01D172B600BF034BF9
:102800001B680133014A136000BF08BD6438002013
:1028100008B5FFF7DBFF034683F00103DBB2002BB3
:102820000ED0084B1B68002B0AD0064B1B68013BDF
:10283000044A1360034B1B68002B01D162B600BF32
:1028400000BF08BD6438002000B585B001238DF8B5
:102850000A30FFF7BDFE03468DF80A3000230393CC
:1028600034F0C8FC019000238DF80B3000238DF864
:102870000B3013E09DF80B301846FFF72FFF03468F
:102880008DF80A309DF80A30002B02D0039B0133EB
:1028900003939DF80B3001338DF80B309DF80B300E
:1028A000019A9A42E6D20199039826F025FC034644
:1028B0008DF80A309DF80A30184605B05DF804FB23
:1028C000BFF34F8F00BF064BDB6803F4E06204499F
:1028D000044B1343CB60BFF34F8F00BF00BFFDE736
:1028E00000ED00E00400FA0530B587B003460A4663
:1028F0008DF80F3013468DF80E3000238DF8173009
:102900009DF80E30032B00F2D9809DF80F409DF802
:102910000E509DF80E30184600F030FA0346009332
:102920002B4622466849012015F04AFE00230493F5
:10293000664BD3F8883004939DF80F300B2B00F2D0
:10294000B18001A252F823F07929010897290108E2
:10295000B5290108D3290108F12901080F2A010826
:102960002D2A01084B2A0108A52A0108A52A0108D9
:10297000692A0108872A01089DF80E3003F0030335
:10298000DAB29DF8103062F301038DF810300123A4
:102990008DF817308AE09DF80E3003F00303DAB2A9
:1029A0009DF8103062F383038DF8103001238DF809
:1029B00017307BE09DF80E3003F00303DAB29DF888
:1029C000103062F305138DF8103001238DF81730A5
:1029D0006CE09DF80E3003F00303DAB29DF810307E
:1029E00062F387138DF8103001238DF817305DE006
:1029F0009DF80E3003F00303DAB29DF8113062F354
:102A000001038DF8113001238DF817304EE09DF849
:102A10000E3003F00303DAB29DF8113062F3830342
:102A20008DF8113001238DF817303FE09DF80E30FE
:102A300003F00303DAB29DF8113062F305138DF849
:102A4000113001238DF8173030E09DF80E3003F07F
:102A50000303DAB29DF8113062F387138DF8113059
:102A600001238DF8173021E09DF80E3003F00303A9
:102A7000DAB29DF8123062F305138DF8123001239B
:102A80008DF8173012E09DF80E3003F00303DAB230
:102A90009DF8123062F387138DF8123001238DF800
:102AA000173003E000238DF8173000BF9DF8173072
:102AB000002B03D0054A049BC2F888309DF81730DC
:102AC000184607B030BD00BF6491050800ED00E076
:102AD00084B0034600918DF8073000238DF80F3045
:102AE000009B002B00F0A28000230293524BD3F8EE
:102AF000883002939DF807300B2B00F2938001A2DF
:102B000052F823F0352B01084D2B0108652B0108E5
:102B10007D2B0108952B0108AD2B0108C52B010861
:102B2000DD2B0108252C0108252C0108F52B0108B7
:102B30000D2C01089DF80830C3F30103DBB21A46DF
:102B4000009B1A7001238DF80F306FE09DF808305C
:102B5000C3F38103DBB21A46009B1A7001238DF880
:102B60000F3063E09DF80830C3F30113DBB21A465F
:102B7000009B1A7001238DF80F3057E09DF8083044
:102B8000C3F38113DBB21A46009B1A7001238DF840
:102B90000F304BE09DF80930C3F30103DBB21A4656
:102BA000009B1A7001238DF80F303FE09DF809302B
:102BB000C3F38103DBB21A46009B1A7001238DF820
:102BC0000F3033E09DF80930C3F30113DBB21A462E
:102BD000009B1A7001238DF80F3027E09DF8093013
:102BE000C3F38113DBB21A46009B1A7001238DF8E0
:102BF0000F301BE09DF80A30C3F30113DBB21A4615
:102C0000009B1A7001238DF80F300FE09DF80A30F9
:102C1000C3F38113DBB21A46009B1A7001238DF8AF
:102C20000F3003E000238DF80F3000BF9DF80F3008
:102C3000184604B0704700BF00ED00E086B00346C0
:102C40008DF8073000238DF817309DF80730002BE2
:102C500005D000230493049B83F3108805E001232F
:102C60000393039B83F3108800BF9DF81730184629
:102C700006B0704784B003468DF8073000238DF806
:102C80000F309DF80F30184604B0704700B583B080
:102C900001238DF807300549012015F074FC0CF074
:102CA0002EFC72B600BFFFF70BFE00BF7C9105083B
:102CB00086B0019000238DF8173072B600BF012353
:102CC0000393039B83F3108800BF0E4A019B93601C
:102CD00000230493049B83F3108800BF62B600BFF7
:102CE000084B9B68019A9A4203D101238DF8173053
:102CF00002E000238DF817309DF81730184606B013
:102D0000704700BF00ED00E000B583B000238DF8F0
:102D100007304FF00060FFF7CBFF03468DF8073018
:102D20009DF80730184603B05DF804FB00B585B088
:102D3000034600918DF8073000238DF80F309DF881
:102D40000720009B0B49012015F03AFC9DF8073045
:102D5000072B09D8084A9DF807300233002142F8B2
:102D6000231001238DF80F309DF80F30184605B061
:102D70005DF804FB8C910508002000E084B0034658
:102D80008DF80730114B03939DF80730032B17D8AC
:102D900001A252F823F000BFA92D0108AF2D0108B0
:102DA000B52D0108BB2D0108094B039309E0094B20
:102DB000039306E0084B039303E0084B039300E002
:102DC00000BF039B184604B0704700BFC0910508C0
:102DD000C4910508CC910508D8910508E49105082F
:102DE00084B003468DF807300A4B03939DF80730F3
:102DF000002B02D0012B03D005E0074B039305E025
:102E0000064B039302E0034B039300BF039B18465A
:102E100004B07047C0910508EC910508F0910508D1
:102E200084B003468DF807300A4B03939DF80730B2
:102E3000002B02D0012B03D005E0074B039305E0E4
:102E4000064B039302E0034B039300BF039B18461A
:102E500004B07047C0910508CC9105080C92050894
:102E600084B003468DF807300A4B03939DF8073072
:102E7000002B02D0012B03D005E0074B039305E0A4
:102E8000064B039302E0034B039300BF039B1846DA
:102E900004B07047C09105081C92050820920508EF
:102EA00000B585B0019000238DF80F30019B002BF9
:102EB00067D00199364816F0B1F9019B9B68194615
:102EC000344816F0ABF9019B1B681946324816F0DE
:102ED000A5F9019B5B681946304816F09FF9019BE4
:102EE000DB6819462E4816F099F9019B1B691946B3
:102EF0002C4816F093F9019B5B6919462A4816F095
:102F00008DF9019B5B6A1946284816F087F9019BE9
:102F10009B6A1946264816F081F9019BDB6A19461F
:102F2000244816F07BF9019B1B6B1946224816F0CA
:102F300075F9019B5B6B1946204816F06FF9019BF0
:102F40009B6B19461E4816F069F9019BDB6B19460D
:102F50001C4816F063F9019B9B6C19461A4816F041
:102F60005DF9019BDB6C1946184816F057F9019B77
:102F7000D3F888301946164816F050F901238DF819
:102F80000F309DF80F30184605B05DF804FB00BF08
:102F900024920508309205084092050850920508D1
:102FA00060920508709205088092050890920508C5
:102FB000A0920508B0920508C0920508D0920508B5
:102FC000E0920508F09205080093050810930508A3
:102FD0002093050810B584B0019001238DF80F30BF
:102FE000019B02939DF80830C3F30003DBB21C463B
:102FF0009DF80830C3F30003DBB21846FFF710FF5B
:1030000003461A462146184816F008F99DF808307C
:10301000C3F34003DBB21C469DF80830C3F3400302
:10302000DBB21846FFF71CFF03461A4621460F483D
:1030300016F0F4F89DF80830C3F38003DBB21C46A9
:103040009DF80830C3F38003DBB21846FFF7C8FED3
:1030500003461A462146064816F0E0F89DF80F3060
:10306000184604B010BD00BF30930508449305080E
:103070005493050800B583B001238DF80330002375
:103080000193114816F0CAF80023019312E0019948
:103090000E4816F0C3F80E4A019B023352F8233053
:1030A00019460C4816F0BAF8074816F0B7F8019B15
:1030B00001330193019B072BE9D99DF80330184692
:1030C00003B05DF804FB00BF8093050884930508F6
:1030D000002000E08C93050800B589B001900091B4
:1030E00000238DF81F30019B002B28D119491A4865
:1030F00016F094F84FF000631B680693174B1B689B
:103100001A46069B9B1A0593144B1B68059A144993
:10311000012015F038FA26F049FF1248FFF7C0FEEB
:1031200003468DF81F30EFF314830393039B04933E
:103130000498FFF74FFF01238DF81F3003E00A4981
:10314000012015F0B4FA9DF81F30184609B05DF85B
:1031500004FB00BF5D0F04089893050804000020DD
:10316000A893050800ED00E0D093050800B585B0F0
:103170000190009100238DF80F301F4B0293019BAB
:10318000002B07D1029B184602F098F901238DF815
:103190000F302AE0019B012B23D101238DF80F3042
:1031A000009B1B6802AA1146184611F0E3F803467B
:1031B0008DF80F309DF80F3083F00103DBB2002B48
:1031C00006D0009B1B681A460C49012015F06FFAC7
:1031D0009DF80F30002B08D0029B184602F06EF9C4
:1031E00003E00749012015F062FA9DF80F301846F8
:1031F00005B05DF804FB00BF004E0020DC9305081D
:103200000494050800B585B00190009101238DF864
:103210000E3000238DF80F30019B012B0AD1009B4B
:103220001B680DF10E021146184611F033FC0346DF
:103230008DF80F309DF80F30002B10D09DF80E3018
:103240001846FFF7FBFC03468DF80F309DF80F3052
:10325000002B08D00749012015F0B2F903E0064918
:10326000012015F024FA9DF80F30184605B05DF8DE
:1032700004FB00BF109405081494050830B587B00E
:103280000390029100238DF8173000238DF816303B
:1032900000238DF81530039B002B02DB01238DF8F2
:1032A0001730039B002B0ADD029B1B680DF11602F1
:1032B0001146184611F029FB03468DF81730039B81
:1032C000012B0BDD029B04331B680DF11502114627
:1032D000184611F01AFB03468DF817309DF8173089
:1032E000002B7ED0039B022B5CD0039B022B7DDC4A
:1032F000039B002B03D0039B012B34D076E00023EB
:103300008DF816302AE000238DF815309DF8163020
:103310000DF1150211461846FFF7DAFB03468DF84A
:1033200017309DF81730002B12D09DF816301C4630
:103330009DF815301D469DF815301846FFF71EFD07
:10334000034600932B4622462B49012015F038F9FD
:103350009DF816300133DBB28DF816309DF816302B
:10336000102BD0D943E09DF816300DF1150211460F
:103370001846FFF7ADFB03468DF817309DF8163061
:103380001C469DF815301D469DF815301846FFF770
:10339000F5FC034600932B4622461749012015F001
:1033A0000FF924E09DF816301C469DF815301D4697
:1033B0009DF815301846FFF7E1FC034600932B46B5
:1033C00022460E49012015F0FBF89DF816309DF8B5
:1033D000152011461846FFF787FA03468DF8173077
:1033E00005E00749012015F062F900E000BF9DF8F3
:1033F0001730184607B030BD2894050840940508DA
:103400005894050800B585B00190009101238DF80E
:103410000E3000238DF80F30019B012B0AD1009B49
:103420001B680DF10E021146184611F033FB0346DE
:103430008DF80F309DF80F30002B10D09DF80E3016
:103440001846FFF717FC03468DF80F309DF80F3034
:10345000002B08D00749012015F0B2F803E0064917
:10346000012015F024F99DF80F30184605B05DF8DD
:1034700004FB00BF109405087094050800B585B0E2
:103480000190009100238DF80F3000238DF80E304D
:1034900000230293019B002B02DB01238DF80F30E8
:1034A000019B002B0ADD009B1B680DF10E021146EB
:1034B000184611F02AFA03468DF80F30019B012BB4
:1034C0000ADD009B04331B6802AA1146184610F05F
:1034D00051FF03468DF80F309DF80F30002B1BD0A5
:1034E000019B002B03D0019B022B06D010E0FFF7BD
:1034F000C1FD03468DF80F3012E09DF80E30029AA0
:1035000011461846FFF712FC03468DF80F3007E00E
:1035100000238DF80F3003E00449012015F0C7F8AF
:103520009DF80F30184605B05DF804FB849405083B
:1035300082B003468DF807309DF90730002B0CDB75
:103540009DF8073003F01F0205499DF907305B091C
:10355000012000FA02F241F8232000BF02B07047B8
:1035600000E100E082B003468DF807309DF9073096
:10357000002B13DB9DF8073003F01F0209499DF96A
:1035800007305B09012000FA02F2203341F82320C2
:10359000BFF34F8F00BFBFF36F8F00BF00BF02B0FC
:1035A000704700BF00E100E000B583B001238DF853
:1035B00005300023ADF806304FF6F273ADF8063053
:1035C0000CE0BDF806305BB21846FFF7CBFFBDF943
:1035D00006309BB201339BB2ADF80630BDF9063020
:1035E000512BEEDD9DF80530184603B05DF804FB65
:1035F00000B585B003460A46ADF8063013468DF88F
:10360000053001238DF80F30BDF906209DF80530F7
:103610000D49292014F0D4FF9DF80530002B06D069
:10362000BDF806305BB21846FFF782FF05E0BDF833
:1036300006305BB21846FFF795FF9DF80F3018462D
:1036400005B05DF804FB00BFA894050800B585B07F
:1036500003468DF8073001238DF80F309DF80730B1
:103660001A460949292014F0ABFF9DF80730002BBA
:1036700001D062B601E072B600BF9DF80F30184667
:1036800005B05DF804FB00BFB894050800B587B02D
:1036900003468DF8073000238DF81730194B04933B
:1036A000002303930023039316E09DF907301AB219
:1036B0001549039BDB000B44B3F904309A4208D14F
:1036C000114A039B52F83330049301238DF81730CD
:1036D00005E0039B01330393039B092BE5D99DF878
:1036E000173083F00103DBB2002B06D09DF90730C1
:1036F0001BB2184605F088FB0490049B184607B0DF
:103700005DF804FBB89505088867060884B0034691
:103710008DF807300F4B039300230293002302938D
:1037200011E09DF907200C49029BDB000B441B793B
:103730009A4205D1084A029B52F83330039305E0C0
:10374000029B01330293029B0F2BEAD9039B18467D
:1037500004B07047B895050808670608034BDB6896
:103760001B0A03F007031846704700BF00ED00E096
:1037700082B003468DF807309DF90730002B0EDB31
:10378000094A9DF907305B0952F823209DF807305C
:1037900003F01F0322FA03F303F0010300E0002308
:1037A000184602B0704700BF00E100E082B0034657
:1037B0008DF807309DF90730002B0FDB094A9DF982
:1037C00007305B09403352F823209DF8073003F09F
:1037D0001F0322FA03F303F0010300E0002318465D
:1037E00002B0704700E100E082B003468DF8073078
:1037F0009DF90730002B0FDB094A9DF907305B0963
:10380000803352F823209DF8073003F01F0322FA7B
:1038100003F303F0010300E00023184602B07047F1
:1038200000E100E082B0034600918DF807309DF979
:103830000730002B0ADB009BDAB20C499DF90730F8
:103840001201D2B20B4483F800230BE0009BDAB2E2
:1038500007499DF8073003F00F03043B1201D2B271
:103860000B441A7600BF02B0704700BF00E100E0D1
:1038700000ED00E082B003468DF807309DF9073077
:10388000002B09DB0B4A9DF90730134493F80033F2
:10389000DBB21B09DBB20AE0074A9DF8073003F0F0
:1038A0000F03043B13441B7EDBB21B09DBB218463B
:1038B00002B0704700E100E000ED00E084B0034694
:1038C0008DF80730064B9B6803939DF90730103342
:1038D0009B00039A13441B68184604B0704700BF4E
:1038E00000ED00E000B58BB00390029100238DF84D
:1038F0002730002308930023ADF81630039B012BDB
:103900000AD1029B1B680DF116021146184610F0F1
:1039100093FF03468DF82730FFF720FF0790079AA3
:103920001549012014F04CFE9DF82730002B18D0CB
:10393000BDF916305BB21846FFF79CFF0890BDF941
:1039400016305BB21846FFF7B9FF0690BDF9163086
:103950001A46069B0093089B0849012014F030FE8C
:1039600003E00749292014F0A2FE9DF827301846ED
:103970000BB05DF804FB00BFBC950508D0950508A9
:10398000F895050800B587B00190009100238DF8E7
:1039900017300023049300238DF80F30019B022B76
:1039A00014D1009B1B680DF10F021146184610F050
:1039B000CCFF03468DF81730009B1B6804AA114604
:1039C000184610F0D7FC03468DF817309DF81730D5
:1039D000002B07D09DF90F30049A11461846FFF7C7
:1039E00021FF03E00449292014F061FE9DF81730FF
:1039F000184607B05DF804FB0896050800B585B0C9
:103A00000190009100238DF80F3000238DF80E30C7
:103A100000238DF80D30019B002B0ADD009B1B68F5
:103A20000DF10E021146184610F08FFF03468DF877
:103A30000F30019B012B0BDD009B04331B680DF144
:103A40000D021146184611F025F803468DF80F3087
:103A50009DF80F30002B0FD0019B022B10D19DF948
:103A60000E301BB29DF80D2011461846FFF7C0FD21
:103A700003468DF80F3003E00449292014F017FEA7
:103A80009DF80F30184605B05DF804FB2496050834
:103A900000B5A9B00390029100238DF89F30002358
:103AA00025930023ADF89C30FFF758FE2490249A0C
:103AB0006249012014F084FD0023ADF89A30002300
:103AC00023935F4B1B68243309225E49184615F087
:103AD0008FF84FF6F273ADF89A309CE0BDF89A304B
:103AE0005BB21846FFF7C6FE2390BDF89A305BB272
:103AF0001846FFF73DFE2290BDF89A305BB218469B
:103B0000FFF7DCFE259004AB4F4918463BF036FB2F
:103B1000BDF99A3004AA04A8009313464B4A7821B1
:103B20003BF03CFA229BDBB2184632F077FD0246AE
:103B300004AB04A80092464A78213BF02FFA04AA6D
:103B400004A8259B00931346424A78213BF026FAAD
:103B5000BDF89A305BB21846FFF746FE024604AB4A
:103B600004A800923C4A78213BF018FABDF89A303C
:103B70005BB21846FFF71AFE024604AB04A8009297
:103B8000364A78213BF00AFA04AA04A8239B009342
:103B90001346334A78213BF001FA239B5BB2184667
:103BA000FFF7B4FD024604AB04A800922D4A782129
:103BB0003BF0F4F9BDF89A305BB21846FFF766FDAA
:103BC000024604AB04A80092264A78213BF0E6F9AD
:103BD00004AB029A0399184614F0B0F80346002B80
:103BE00012D0BDF89C3019461F4815F017FB04ABE6
:103BF00019461E4815F012FBBDF89C300133ADF894
:103C00009C3001238DF89F30BDF99A309BB201336F
:103C10009BB2ADF89A30BDF99A30512B7FF75EAF69
:103C2000074B1B68243309220649184614F008FF85
:103C30009DF89F30184629B05DF804FBBC95050837
:103C4000D8230020D86706083C960508409605084A
:103C50004C96050858960508649605087096050860
:103C60007C96050888960508949605089C96050894
:103C700000B58FB00190009100238DF837300023FC
:103C8000089309AB00221A605A609A60DA60002338
:103C9000039304AB00221A605A609A60DA60019BB9
:103CA000002B0EDB08AB1422204918463BF004FB26
:103CB00003AB14221D4918463BF0FEFA01238DF890
:103CC0003730019B002B09DD009B196808AB1422DB
:103CD00018463BF0F1FA01238DF83730019B012B98
:103CE0000ADD009B0433196803AB142218463BF02D
:103CF000E3FA01238DF83730019B022B03DD0C49D9
:103D0000292014F0D4FC9DF83730002B08D003AAEA
:103D100008AB11461846FFF7BBFE03468DF8373057
:103D20009DF8373018460FB05DF804FBA4960508DF
:103D3000A896050800B585B00190009100238DF884
:103D40000E3000238DF80F30019B012B0AD1009B10
:103D50001B680DF10E021146184610F09BFE03463B
:103D60008DF80F309DF80F30002B08D09DF80E30E5
:103D70001846FFF76BFC03468DF80F3003E005494A
:103D8000292014F094FC9DF80F30184605B05DF81A
:103D900004FB00BFBC9605082DE9F04383B0012069
:103DA00000F032F80190019B002B28D0019B93F882
:103DB0003430002B23D0FEF713FD019B1B695A1CE6
:103DC000019B1A61019BD3E9062312F1010843F11B
:103DD0000009019BC3E90689019B9B685B68C3F3EB
:103DE0001701019BD3E9082300200C46054616194C
:103DF00043EB0507019BC3E90867FEF709FD00BF18
:103E000003B0BDE8F083000000B587B003468DF82D
:103E10000730002305930023049332F05AFF0390E8
:103E20000023049323E01649049A1346DB009B1AEF
:103E3000DB000B4405331B789DF807209A4213D111
:103E40000F49049A1346DB009B1ADB000B4407332F
:103E50001B78002B08D0049A1346DB009B1ADB006A
:103E6000074A1344059306E0049B01330493049A24
:103E7000039B9A42D7D3059B184607B05DF804FB15
:103E8000E808002000B587B003468DF8073000230E
:103E900005930023049332F01CFF03900023049346
:103EA0001AE0134A049B1B01134405331B789DF849
:103EB00007209A420DD10E4A049B1B01134407337D
:103EC0001B78002B0DD0049B1B01094A134405935A
:103ED00007E0049B01330493049A039B9A42E0D3C6
:103EE00000E000BF059B184607B05DF804FB00BF6B
:103EF000608C0608F0B589B003468DF807304FF0A6
:103F000000024FF00003CDE906239DF80730184664
:103F1000FFF77AFF0590059B002B1ED0FEF760FC93
:103F2000059B9B685B68C3F317031A46059B9B6858
:103F30009B68C3F31703D31ADA171E461746CDE959
:103F40000267059BD3E90823DDE90201841841EBF0
:103F50000305CDE90645FEF75BFCDDE906231046C7
:103F6000194609B0F0BD00B583B001238DF80730C4
:103F70000CF030FC03468DF807309DF807301846EA
:103F800003B05DF804FB84B0019000238DF80F307E
:103F9000019B002B20D001238DF80F309DF80F30AE
:103FA000002B0AD0019B1B68002B03D001238DF846
:103FB0000F3002E000238DF80F309DF80F30002BFA
:103FC0000AD0019B9B68002B03D001238DF80F3092
:103FD00002E000238DF80F309DF80F30184604B032
:103FE000704700B583B000238DF807300120FFF73C
:103FF0000BFF0090009B002B0ED0009B9B68002BBA
:104000000AD0009B9B681B68C3F30003DBB2002B44
:1040100002D001238DF807309DF80730184603B011
:104020005DF804FB00B583B00120FFF7EDFE0190C1
:10403000019B002B13D0019B9B681B6800939DF88C
:1040400000306FF300038DF800309DF800306FF3FF
:1040500041038DF80030019B9B68009A1A60012390
:10406000184603B05DF804FB00B585B000238DF859
:104070000F300120FFF7C8FE0290029B002B1AD0E0
:10408000029B9B68002B16D0029B9B681B680193C8
:104090009DF8043043F001038DF804309DF804309E
:1040A00043F002038DF80430029B9B68019A1A606A
:1040B00001238DF80F309DF80F30184605B05DF8DC
:1040C00004FB00B587B0019000238DF81730012064
:1040D000FFF79AFE0490049B002B1AD00023039351
:1040E000019B23F07F439AB200210A43ADF80C20D4
:1040F0001B0CDBB2002213438DF80E30049B9B682F
:10410000002B06D0049B9B68039A5A6001238DF80C
:1041100017309DF81730184607B05DF804FB00B55E
:1041200085B003468DF8073000238DF80F3001204D
:10413000FFF76AFE0290029B002B11D0029B9B6846
:10414000002B0DD0029B9A689DF8073003F0010305
:10415000D9B2136861F38203136001238DF80F3025
:104160009DF80F30184605B05DF804FB00B583B02C
:1041700002238DF807300120FFF746FE0090009BD8
:10418000002B0BD0009B9B68002B07D0009B9B68EB
:104190001B68C3F38003DBB28DF807309DF807304E
:1041A000184603B05DF804FB00B583B0002300930C
:1041B0000120FFF729FE0190019B002B07D0019BF6
:1041C0009B68002B03D0019B9B685B680093009B5E
:1041D000C3F31703184603B05DF804FB30B589B08C
:1041E00003468DF807304FF000024FF00003CDE991
:1041F00006239DF807301846FFF706FE0590059B3D
:10420000002B15D09DF807301846FFF773FECDE957
:104210000201059BDB6A00221C46154622462B46FE
:10422000DDE90201FCF76EFD02460B46CDE90623EF
:10423000DDE906231046194609B030BD00B585B04A
:10424000002303930120FFF7DFFD0290029B002B68
:1042500010D0FFF7C6FE03468DF807309DF80730F3
:10426000002B04D1029BDB685A1C029BDA60029B84
:104270001B690393039B184605B05DF804FB00001F
:1042800000B585B003468DF8073000238DF80F3058
:104290009DF80730184632F007F903461A461049D0
:1042A0002C2014F08DF99DF80730002B07D0012B3E
:1042B0000BD1FFF7D9FE03468DF80F3009E00CF063
:1042C000B7FA03468DF80F3003E000238DF80F3066
:1042D00000BF9DF80F30184605B05DF804FB00BF25
:1042E000F896050800B587B00190009100238DF87D
:1042F0001730019B002B00F0CE80019800F014FADB
:1043000003461A4667492C2014F03DF90198FFF73F
:104310003AFE03468DF817309DF81730002B00F059
:10432000BA80009B002B00F0B680019B1B681A46E8
:104330005D492C2014F044F9019B9A68009B9A6017
:10434000019B5A79009B5A71019B1A79009B1A7143
:10435000019B1A68009B1A60009B00221A61009959
:104360004FF000024FF00003C1E9082300994FF01D
:1043700000024FF00003C1E90623019B9B68002B5C
:1043800000F089800CF07EFA0246009B1A63009BC5
:104390001B6B1A4645492C2014F012F9009B1B6B2D
:1043A000434AA2FB03239A0C009BDA62009B1B6B1F
:1043B000002B70D0019B9A68009B9A60019B1B6840
:1043C00007EE903AB8EE677ADFED3A6AC7EE267AE2
:1043D000CDED047A009B1B6B07EE903AF8EE677AFE
:1043E0009DED047A67EE277ACDED037ADDED037A51
:1043F000FCEEE77A17EE902A009B9B6822F07F4242
:1044000091B29888002001439980120CD2B2997918
:1044100000210A439A71009B9B685B68C3F31703F2
:104420001A4625492C2014F0CBF8009B9B681A896A
:1044300000221A819A7A00229A72002302939DF830
:10444000083043F001038DF808309DF8083043F040
:1044500002038DF80830019B9B7903F00103DAB267
:104460009DF8083062F382038DF80830019B1B79B8
:10447000002B05D09DF8083043F002038DF808307A
:10448000009B9B68029A1A6001238DF81730009BED
:10449000012283F834209DF81730184607B05DF8E4
:1044A00004FB00BF0097050804970508149705084A
:1044B00083DE1B4300007A442897050800B587B0C7
:1044C00003468DF8073000238DF817309DF807302C
:1044D0001846FFF7D7FC0490049B002B0FD09DF8E3
:1044E00007301846FFF790FC0390039B002B06D083
:1044F00003990498FFF7F6FE03468DF817309DF8F0
:104500001730184607B05DF804FB00B585B00123ED
:104510008DF80A30FFF727FD03468DF80A30002397
:10452000039332F0D6FB019000238DF80B3000236B
:104530008DF80B3013E09DF80B301846FFF7BEFFE7
:1045400003468DF80A309DF80A30002B02D0039BF9
:10455000013303939DF80B3001338DF80B309DF838
:104560000B30019A9A42E6D20199039824F0C4FDD7
:1045700003468DF80A309DF80A30184605B05DF8FC
:1045800004FB000084B003468DF807300A4B039308
:104590009DF80730002B02D0012B03D005E0074B1C
:1045A000039305E0064B039302E0034B039300BF24
:1045B000039B184604B070473497050838970508E0
:1045C0004497050800B587B001238DF81730012006
:1045D000FFF71AFC0490049B002B00F08280FFF789
:1045E000C5FD03468DF80F30049B1B6B1A464049EE
:1045F0002C2013F0E5FFFFF7F4FC0346184631F0DA
:1046000053FF03461A463B492C2013F0D9FF9DF86F
:104610000F301846FFF7B6FF03461A4636492C20DE
:1046200013F0CEFF0120FFF765FC02460B4633492D
:104630002C2013F0C5FFFFF7B7FD03461A4630499B
:104640002C2013F0BDFF049BDB681A462D492C205B
:1046500013F0B6FFFFF7F2FD02900120FFF7BEFD59
:10466000CDE90001DDE9002327492C2013F0A8FF44
:10467000029A26492C2013F0A3FF049B1B691A46BB
:1046800023492C2013F09CFF049BD3E906232149E6
:104690002C2013F095FF029B07EE903AF8EE677A14
:1046A0009FED1D7AC7EE876A16EE900AFBF72CFE87
:1046B00002460B4619492C2013F082FF029B07EE9D
:1046C000903AF8EE677A9FED167AC7EE876A16EE93
:1046D000900AFBF719FE02460B4612492C2013F0F4
:1046E0006FFF9DF81730184607B05DF804FB00BF58
:1046F0005097050864970508709705087C9705088A
:10470000849705088C97050894970508A8970508CD
:10471000BC970508D097050800007A44E89705087B
:1047200000606A47FC97050800B585B00390039BBD
:10473000002B34D01C491D483AF020FD039B5B79C7
:1047400000931A4B1A4AFA2118483AF027FC039BA7
:10475000DB680093154B174AFA2114483AF01EFC07
:10476000039B1B680093114B134AFA210F483AF040
:1047700015FC039B1B79184631F096FE0346009307
:104780000A4B0E4AFA2109483AF008FC039B9B6841
:104790000093064B0A4AFA2104483AF0FFFB034B08
:1047A000184605B05DF804FB109805081C4400206D
:1047B000149805081C9805082C9805083C980508CD
:1047C0004898050800B585B00190009100238DF848
:1047D0000F3000230293019B002B17DD009B1B6809
:1047E00002AA114618460FF0C5FD03468DF80F309A
:1047F0009DF80F3083F00103DBB2002B06D0009B45
:104800001B681A4610492C2013F051FF9DF80F30F9
:10481000002B0ED0029B1846FFF753FC03468DF881
:104820000F309DF80F30094A19462C2013F07CFFF9
:1048300003E007492C2013F03AFF9DF80F3018468B
:1048400005B05DF804FB00BF549805087098050892
:104850007898050800B585B00190009100238DF887
:104860000F30019B002B02D101238DF80F309DF8F2
:104870000F30002B0CD0FFF7A5FE03468DF80F304C
:104880009DF80F30074A19462C2013F04DFF03E026
:1048900005492C2013F00BFF9DF80F30184605B08A
:1048A0005DF804FB889805089098050800B585B068
:1048B0000190009100238DF80F30019B002B0CD14B
:1048C0000BF0B6FF03468DF80F309DF80F30084A05
:1048D00019462C2013F028FF03E006492C2013F082
:1048E000E6FE9DF80F30184605B05DF804FB00BFEA
:1048F0009C980508A498050800B585B00190009122
:1049000000238DF80F30019B002B0CD1FFF7ACFB7F
:1049100003468DF80F309DF80F30084A19462C20B9
:1049200013F002FF03E006492C2013F0C0FE9DF8AF
:104930000F30184605B05DF804FB00BFB0980508BD
:10494000B898050800B585B00190009100238DF856
:104950000F3000238DF80E30019B002B11DD009BE2
:104960001B680DF10E021146184610F093F803462D
:104970008DF80F309DF80F30114A19462C2013F096
:10498000D3FE9DF80F30002B0FD09DF80E30184647
:10499000FFF776FC03468DF80F309DF80F30094A7B
:1049A00019462C2013F0C0FE03E007492C2013F019
:1049B0007EFE9DF80F30184605B05DF804FB00BF81
:1049C000C4980508CC980508D498050810B584B09B
:1049D0000190009100238DF80F3002238DF80E30E6
:1049E000019B002B11DD009B1B680DF10E0211468F
:1049F00018460FF08AFF03468DF80F309DF80F30F0
:104A0000164A19462C2013F08FFE9DF80F30002B0C
:104A10001AD09DF80E301846FFF781FB03468DF83B
:104A20000F309DF80F30184613F0AEFB03461C46BE
:104A30009DF80E301846FFF7A5FD0346084A2C21C5
:104A4000204613F079FD03E006492C2013F02FFED9
:104A50009DF80F30184604B010BD00BFE898050857
:104A6000F09805080099050800B585B001900091FF
:104A700000238DF80F30019B002B02D101238DF80C
:104A80000F309DF80F30002B0CD0FFF73EFD034692
:104A90008DF80F309DF80F30074A19462C2013F07F
:104AA00043FE03E005492C2013F001FE9DF80F3072
:104AB000184605B05DF804FB149905081C99050813
:104AC00000B587B003468DF8073000230593002317
:104AD000049332F0A4FB0390002304931AE0124ADB
:104AE000049B9B0113440C331B789DF807209A42CA
:104AF0000DD10D4A049B9B0113440D331B78002BF1
:104B000005D0049B9B01084A1344059306E0049BCF
:104B100001330493049A039B9A42E0D3059B184601
:104B200007B05DF804FB00BF982D002000B587B0EA
:104B300003468DF80730002305930023049332F0D9
:104B40006EFB0390002304931AE0134A049B1B019D
:104B500013440C331B789DF807209A420DD10E4A5E
:104B6000049B1B0113440D331B78002B0DD0049BB9
:104B70001B01094A1344059307E0049B0133049386
:104B8000049A039B9A42E0D300E000BF059B1846BD
:104B900007B05DF804FB00BFD0A1060800B585B0E2
:104BA000019000238DF80F30019B002B26D00123AC
:104BB0008DF80F30019B5B68002B06D1019B1B7B9E
:104BC0001A4611493E2013F072FD019B1B68002B11
:104BD00009D1019B1B7B1A460C493E2013F067FD4F
:104BE00000238DF80F30019B9B68002B06D1019BA1
:104BF0001B7B1A4606493E2013F059FD9DF80F30E5
:104C0000184605B05DF804FB289905083899050891
:104C10004899050800B583B000238DF80730054A90
:104C200005493E2013F0CCFC9DF80730184603B030
:104C30005DF804FB5C9905086099050884B0019053
:104C4000009100238DF80F30019B002B18D0009BA2
:104C5000002B15D0019B5A68009B5A60019B1A6873
:104C6000009B1A60019B1A7B009B1A73019B9A6838
:104C7000009B9A60009B01225A7301238DF80F302C
:104C80009DF80F30184604B070472DE9F04387B007
:104C900003468DF807304FF000024FF00003CDE9D6
:104CA00004239DF807301846FFF70AFF0390039B83
:104CB000002B2FD0FDF794FD039B1B685A68039BC4
:104CC0009A63039B9A6B039BDB6B9A4208D2039B0C
:104CD000D3E90C2303F101099046039BC3E90C8936
:104CE000039B9A6B039BDA63FDF792FD039BD3E969
:104CF0000C230399896B00200C46054642EA040602
:104D000043EA0507039BC3E90A67039BD3E90A2328
:104D1000CDE90423DDE904231046194607B0BDE8B8
:104D2000F08300B589B003468DF807304FF00002DC
:104D30004FF00003CDE906239DF807301846FFF732
:104D4000BFFE0590059B002B11D09DF8073018463B
:104D5000FFF79BFFCDE90201059BD3E90623DDE9BF
:104D60000201FBF7CFFF02460B46CDE90623DDE942
:104D700006231046194609B05DF804FB00B587B05C
:104D800003468DF80730002305939DF80730184639
:104D9000FFF796FE0490049B002B11D09DF807307E
:104DA0001846FFF772FFCDE90201049BD3E90823FF
:104DB000DDE90201FBF7A6FF02460B461346059309
:104DC000059B184607B05DF804FB000000B585B0F0
:104DD00003468DF8073000238DF80F309DF807301B
:104DE0001A460E493E2013F008FC9DF8073018467D
:104DF000FFF766FE0290029B002B09D0029B1B6905
:104E00005A1C029B1A619DF807301846FFF73DFFB8
:104E10009DF80F30184605B05DF804FB6C99050845
:104E200084B0019000238DF80F30019B002B31D00E
:104E3000019B01225A73019B01225A73019B1B683B
:104E400000225A6001994FF000024FF00003C1E9BF
:104E50000C23019B0022DA6301994FF000024FF00E
:104E60000003C1E90623019B00229A6301994FF0D8
:104E700000024FF00003C1E9082301994FF000023E
:104E80004FF00003C1E90A23019B00221A610123AC
:104E90008DF80F309DF80F30184604B070470000B1
:104EA000F0B587B003468DF8073000238DF8173032
:104EB0009DF807301A4647493E2013F064FB9DF8E1
:104EC00007301846FFF732FE0490049B002B74D085
:104ED0000498FFF763FE03468DF817309DF81730EE
:104EE000002B62D004982CF0EBF803461A463A499E
:104EF0003E2013F048FB9DF807301846FFF7E0FD11
:104F00000390039B002B48D003990498FFF796FE6B
:104F100003468DF817300398FFF782FF03468DF89C
:104F200017302E4BDB682D4A43F08073D360039B10
:104F30001B6800225A6008F05BFB0246039B9A60E4
:104F4000039B9B68264AA2FB03239B0C00221E4660
:104F50001746039BC3E90667039B9B68214AA2FB94
:104F600003239B0900221C461546039BC3E9084501
:104F7000039B1B681B6802939DF8083043F00103F4
:104F80008DF80830039B1B68029A1A60039B01226C
:104F90005A73039B01229A7316E09DF807301A4654
:104FA00011493E2013F083FB0EE09DF807301A46AE
:104FB0000E493E2013F07BFB06E09DF807301A46B1
:104FC0000A493E2013F019FB9DF81730184607B028
:104FD000F0BD00BF7899050880990508F0ED00E064
:104FE00083DE1B43D34D6210849905089099050810
:104FF00000B585B001238DF80A30FFF70BFE03469C
:105000008DF80A300023039332F009F90190002350
:105010008DF80B3000238DF80B3013E09DF80B302A
:105020001846FFF73DFF03468DF80A309DF80A3019
:10503000002B02D0039B013303939DF80B30013307
:105040008DF80B309DF80B30019A9A42E6D2019907
:10505000039824F051F803468DF80A309DF80A3081
:10506000184605B05DF804FB00B585B000238DF847
:105070000F300023029332F0D2F800900023019306
:105080000023019311E0019BDBB21846FFF79EFE5F
:1050900003468DF80F309DF80F301946029824F022
:1050A00019F80290019B01330193019A009B9A42E7
:1050B000E9D9029B002B03D001238DF80F3002E0C9
:1050C00000238DF80F309DF80F30184605B05DF8BD
:1050D00004FB000000B585B00190009100238DF81D
:1050E0000F3001238DF80E30019B002B11DD009B4A
:1050F0001B680DF10E02114618460FF006FC034620
:105100008DF80F309DF80F30114A19463E2013F0EC
:1051100057FB9DF80F30002B0FD09DF80E3018462E
:105120002CF0E4F803468DF80F309DF80F30094A53
:1051300019463E2013F044FB03E007493E2013F0DC
:10514000B6FA9DF80F30184605B05DF804FB00BFB5
:10515000A0990508A4990508AC99050800B585B083
:105160000190009100238DF80F3000238DF80E3050
:10517000019B002B02DB01238DF80F30019B002BDC
:1051800011DD009B1B680DF10E02114618460FF051
:10519000BCFB03468DF80F309DF80F30184A1946B6
:1051A0003E2013F00DFB9DF80F30002B1DD0019B0E
:1051B000002B03D0019B012B06D00EE02CF084F8CD
:1051C00003468DF80F3008E09DF80E3018462CF09D
:1051D00051F803468DF80F3000BF9DF80F30094A93
:1051E00019463E2013F0ECFA03E007493E2013F085
:1051F0005EFA9DF80F30184605B05DF804FB00BF5D
:10520000A0990508C0990508C899050800B585B09A
:105210000190009100238DF80F3000238DF80E309F
:10522000019B002B11DD009B1B680DF10E02114646
:1052300018460FF06AFB03468DF80F309DF80F30CB
:105240000F4A19463E2013F0BBFA019B002B0CD1EC
:10525000FFF7CEFE03468DF80F309DF80F30094A58
:1052600019463E2013F0ACFA03E007493E2013F044
:105270001EFA9DF80F30184605B05DF804FB00BF1C
:10528000A0990508D8990508E099050800B5B7B0B8
:1052900000238DF8D730444B1B6824330822434940
:1052A000184613F0A5FC31F0A5FF349000238DF8CB
:1052B000D63000238DF8D63063E09DF8D6301846FE
:1052C000FCF7A2FE3390339B002B55D0339B9A689A
:1052D000339BDB68D31A32930023009301ABC422C3
:1052E0000021184639F0D6FD6B463149184639F091
:1052F00045FF339B1B796A4668462E4939F092FE7A
:10530000339B1B686A4668462B4939F08BFE339BFA
:105310009B686A466846294939F084FE339BDB68FE
:105320006A466846254939F07DFE6A466846329BE2
:10533000234939F077FE339B5B7C6A4668462149F6
:1053400039F070FE339B183318461DF0E5FE034616
:105350006A4668461C4939F065FE339B5B696A46BC
:105360006846184939F05EFE6B461946174813F037
:1053700055FF01238DF8D7309DF8D63001338DF8D5
:10538000D6309DF8D630349A9A4296D2064B1B6896
:10539000243308220549184613F052FB9DF8D730F4
:1053A000184637B05DF804FBD823002020680608B3
:1053B0005C9A0508609A05086C9A0508789A0508B1
:1053C000849A0508909A05089C9A0508A89A0508E9
:1053D00000B585B00390039B002B27D016491748D2
:1053E00039F0CCFE039B1B790093144B144AFA212D
:1053F000124839F0D3FD039B9B6800930F4B114A71
:10540000FA210E4839F0CAFD039BDB6800930B4B71
:105410000D4AFA21094839F0C1FD039B1B6800932E
:10542000064B0A4AFA21054839F0B8FD034B1846E5
:1054300005B05DF804FB00BFE89A05081C44002095
:10544000EC9A0508F49A0508089B05081C9B0508BA
:1054500000B589B003468DF80F3000238DF81F305A
:105460009DF80F301846FCF7CFFD0690069B002BE9
:105470001BD0069B9A68069BDB68D31A9B08059392
:105480009DF80F20069BD968059B00930B460A499F
:10549000092013F095F8069BDB680493059904989E
:1054A0000EF086F803468DF81F309DF81F30184621
:1054B00009B05DF804FB00BF509B050800B587B03C
:1054C000019000230393019A1249012013F05BF825
:1054D00000230593002304930023059300230493E2
:1054E00010E0019A059B13440393039B1B68039AE6
:1054F0000499094813F092FE059B04330593049B1D
:1055000001330493059BD42BEBD90123184607B034
:105510005DF804FB789B0508909B050800B589B0F1
:105520000390029100238DF81F3000230593039B05
:10553000002B09DD029B1B6805AA114618460EF0D8
:1055400019FF03468DF81F309DF81F30002B13D034
:10555000059B1A460B49092013F032F8059B1846A3
:10556000FDF700F80690059A069B9B0A0093069BA0
:105570000549092013F024F89DF81F30184609B09A
:105580005DF804FB009C05080C9C050800B585B07F
:105590000190009100238DF80F30FFF777FE03464E
:1055A0008DF80F309DF80F30002B03D104490920EE
:1055B00013F07DF89DF80F30184605B05DF804FB38
:1055C000249C050800B585B00190009100238DF85A
:1055D0000F30019B002B02D101238DF80F309DF875
:1055E0000F30002B05D0FCF7F5FD03468DF80F308A
:1055F00003E00549092013F05AF89DF80F301846CA
:1056000005B05DF804FB00BF309C050800B585B00F
:105610000190009100238DF80B30002303936B461B
:105620001A4603990198FCF7B5FD03468DF80B3037
:105630009DF80B30002B06D0009B1A4603990648B4
:1056400013F0ECFD03E00549092013F030F8039B4B
:1056500001330393E3E700BF409C05085C9C050809
:1056600000B587B00190009100238DF8173000201D
:1056700018F07AF804900499224813F0CFFD002323
:105680000393019B002B09DD009B1B6803AA1146B5
:1056900018460EF06FFE03468DF817300023029374
:1056A000019B002B07D1029B19460498FFF7AEFF20
:1056B00003468DF817309DF81730002B18D0039B48
:1056C00002AA19460498FCF765FD03468DF81730C9
:1056D0009DF81730002B06D0039A029B0A49092037
:1056E00012F06EFF08E00949092012F0E0FF03E024
:1056F0000749092012F0DBFF9DF81730184607B064
:105700005DF804FB649C05087C9C05085C9C05080E
:105710009C9C050800B587B00190009100238DF88E
:10572000173000230393019B002B10DD009B1B68A7
:1057300003AA114618460EF01DFE03468DF81730D9
:105740009DF817301B4A1946092013F039F89DF8C7
:105750001730002B23D0039B04930498FCF7C4FE5E
:1057600003468DF817309DF81730002B0BD09DF8AD
:105770001730184630F0BAFE0346049A0E49092045
:1057800012F01EFF0FE09DF81730184630F0AEFE05
:105790000346049A0849092012F089FF03E00749EB
:1057A000092012F084FF9DF81730184607B05DF805
:1057B00004FB00BFBC9C0508C49C0508D49C0508DC
:1057C00000B585B00190009100238DF80F300023C3
:1057D0008DF80E30019B002B11DD009B1B680DF135
:1057E0000E02114618460FF090F803468DF80F3060
:1057F0009DF80F30114A1946092012F0E1FF9DF87B
:105800000F30002B0FD09DF80E301846FFF720FE0A
:1058100003468DF80F309DF80F30094A19460920CC
:1058200012F0CEFF03E00749092012F040FF9DF877
:105830000F30184605B05DF804FB00BFE89C050872
:10584000F09C0508FC9C050800B587B003468DF860
:105850000730002305930023049331F057FB039096
:105860000023049323E01649049A1346DB009B1A95
:105870009B000B440B331B789DF807209A4213D1F1
:105880000F49049A1346DB009B1A9B000B440C3310
:105890001B78002B08D0049A1346DB009B1A9B0050
:1058A000074A1344059306E0049B01330493049ACA
:1058B000039B9A42D7D3059B184607B05DF804FBBB
:1058C000CC11002000B587B003468DF807300023C7
:1058D00005930023049331F019FB039000230493F4
:1058E0001AE0134A049B1B0113440B331B789DF8E9
:1058F00007209A420DD10E4A049B1B0113440C331E
:105900001B78002B0DD0049B1B01094A13440593FF
:1059100007E0049B01330493049A039B9A42E0D36B
:1059200000E000BF059B184607B05DF804FB00BF10
:10593000D09D060884B00190009100238DF80F30AF
:10594000019B002B15D0009B002B12D0019B9A7A53
:10595000009B9A72019B5A7A009B5A72019B1A7A99
:10596000009B1A72019B1A68009B1A6001238DF834
:105970000F309DF80F30184604B0704700B585B061
:10598000019000238DF80F30019B002B5CD0012388
:105990008DF80F30019B1B68002B09D1019BDB7A2E
:1059A0001A462C49132012F082FE00238DF80F3086
:1059B000019B9B7A18461FF08DFA03468DF80F3035
:1059C0009DF80F3083F00103DBB2002B09D0019B5F
:1059D000DB7A1A462049132012F069FE00238DF865
:1059E0000F30019B1B7A184603F056FD03468DF8D5
:1059F0000F309DF80F3083F00103DBB2002B09D08C
:105A0000019BDB7A1A461549132012F050FE002341
:105A10008DF80F30019BD3ED017AF5EEC07AF1EEEF
:105A200010FACCBF01230023DBB283F00103DBB209
:105A3000002B09D0019BDB7A1A460949132012F08A
:105A400036FE00238DF80F309DF80F30184605B054
:105A50005DF804FB109D05082C9D05084C9D05086C
:105A6000689D050800B583B000238DF8073001223A
:105A70000449132012F0A4FD9DF80730184603B026
:105A80005DF804FB909D050810B588B003468DF8BD
:105A90000F3000238DF81F309DF80F301A46304923
:105AA000132012F0AAFD9DF80F301846FFF7CCFE28
:105AB0000690069B002B4DD0069B1B7A18461FF0C4
:105AC000A9FB0246069B1A61069B1A69069B5B6945
:105AD0009A4236D0069B1B6907EE903AB8EEE77AF9
:105AE000F3EE006AC7EE267ACDED057A9DF80F40F9
:105AF0000598FAF709FC02460B46CDE90023224639
:105B00001849132012F097FD069B9B7A9DED050A1C
:105B100018460AF0BBF803468DF81F30069B9B7AA7
:105B20000121184603F0BAFF03468DF81F30069B8B
:105B30005B7A9DED050A18461DF06CFD03468DF855
:105B40001F30069B9B695A1C069B9A61069B1A692B
:105B5000069B5A619DF81F30184608B010BD00BF63
:105B60009C9D0508B49D050800B587B003468DF8D7
:105B7000073000238DF817309DF807301A462B495F
:105B8000132012F000FD9DF807301846FFF79AFE2B
:105B900004900498FFF7F2FE03468DF817309DF845
:105BA0001730002B34D004982BF0C6FB03461A465E
:105BB0001F49132012F0E7FC9DF807301846FFF745
:105BC00043FE0390039B002B1AD003990498FFF720
:105BD000B1FE03468DF81730049B9A7A049BD3EDEF
:105BE000017AB0EE670A10460AF07DF803468DF898
:105BF0001730039B01221A73039B01225A730EE094
