:020000040800F2
:1000000000C00120390F060811FA0108B5FD0108EA
:10001000B7FD0108B9FD0108BBFD010800000000A3
:10002000000000000000000000000000BDFD01080D
:10003000C5FD010800000000C1FD0108F7FD010831
:10004000F3FD0108B1FD0108A5FD0108A9FD0108A6
:100050009DFD010817FA01086BFE01086FFE0108FB
:1000600073FE010877FE01087BFE01081DFA0108F6
:1000700055FA01088DFA0108C5FA0108FDFA0108D0
:1000800035FB01086DFB01080DFA0108890F060810
:10009000890F0608890F0608890F06087FFE0108E8
:1000A000890F06088BFE01088FFE010893FE0108E8
:1000B00097FE01089BFE01089FFE0108AFFE0108A4
:1000C000ABFE0108D7FE0108B3FE0108C7FD010819
:1000D000CBFD010835FE010839FE01085BFE010871
:1000E00083FE010807FF0108ADFD0108890F06081E
:1000F000890F0608890F0608890F0608A5FB010865
:1001000013FA010805FE0108A3FE0108EFFD01082E
:100110005FFE010863FE0108A7FE0108890F0608BB
:10012000DDFB010815FC01084DFC010885FC0108F8
:10013000BDFC0108890F0608890F0608890F06080B
:10014000890F0608890F0608890F06080BFF0108AA
:10015000F5FC01082DFD010865FD010867FE010899
:10016000FBFE0108FFFE01080FFF010887FE0108E2
:10017000890F060813FF0108890F06080000000018
:0801800003FF0108A1FD0108C5
:10018800FFFFFFFFFFFFFFFFFFFFFFFFFFFFFFFF77
:10019800FFFFFFFFFFFFFFFFFFFFFFFFFFFFFFFF67
:1001A800FFFFFFFFFFFFFFFFFFFFFFFFFFFFFFFF57
:1001B800FFFFFFFFFFFFFFFFFFFFFFFFFFFFFFFF47
:020000040801F1
:1000000010B5054C237833B9044B13B10448AFF352
:1000100000800123237010BDD88100200000000063
:10002000A0E5060808B5034B1BB103490348AFF32D
:10003000008008BD00000000DC810020A0E506086B
:1000400081F0004102E000BF83F0004330B54FEA89
:1000500041044FEA430594EA050F08BF90EA020FF6
:100060001FBF54EA000C55EA020C7FEA645C7FEA89
:10007000655C00F0E2804FEA5454D4EB5555B8BFAC
:100080006D420CDD2C4480EA020281EA030382EA1D
:10009000000083EA010180EA020281EA0303362DAF
:1000A00088BF30BD11F0004F4FEA01314FF4801C82
:1000B0004CEA113102D0404261EB410113F0004F94
:1000C0004FEA03334CEA133302D0524263EB43034B
:1000D00094EA050F00F0A780A4F10104D5F1200EE9
:1000E0000DDB02FA0EFC22FA05F2801841F1000144
:1000F00003FA0EF2801843FA05F359410EE0A5F118
:1001000020050EF1200E012A03FA0EFC28BF4CF048
:10011000020C43FA05F3C01851EBE37101F00045FE
:1001200007D54FF0000EDCF1000C7EEB00006EEB0B
:100130000101B1F5801F1BD3B1F5001F0CD3490895
:100140005FEA30004FEA3C0C04F101044FEA4452EC
:1001500012F5800F80F09A80BCF1004F08BF5FEA73
:10016000500C50F1000041EB045141EA050130BD53
:100170005FEA4C0C404141EB0101013C28BFB1F565
:10018000801FE9D291F0000F04BF01460020B1FAB0
:1001900081F308BF2033A3F10B03B3F120020CDA83
:1001A0000C3208DD02F1140CC2F10C0201FA0CF061
:1001B00021FA02F10CE002F11402D8BFC2F1200CC6
:1001C00001FA02F120FA0CFCDCBF41EA0C0190407C
:1001D000E41AA2BF01EB0451294330BD6FEA0404C5
:1001E0001F3C1CDA0C340EDC04F11404C4F12002B0
:1001F00020FA04F001FA02F340EA030021FA04F3C2
:1002000045EA030130BDC4F10C04C4F1200220FA18
:1002100002F001FA04F340EA0300294630BD21FA56
:1002200004F0294630BD94F0000F83F4801306BF1C
:1002300081F480110134013D4EE77FEA645C18BF10
:100240007FEA655C29D094EA050F08BF90EA020FA7
:1002500005D054EA000C04BF1946104630BD91EA9F
:10026000030F1EBF0021002030BD5FEA545C05D1A2
:100270004000494128BF41F0004130BD14F58004E1
:100280003CBF01F5801130BD01F0004545F0FE4155
:1002900041F470014FF0000030BD7FEA645C1ABF8A
:1002A000194610467FEA655C1CBF0B46024650EAC1
:1002B000013406BF52EA033591EA030F41F40021ED
:1002C00030BD00BF90F0000F04BF0021704730B573
:1002D0004FF4806404F132044FF000054FF0000148
:1002E00050E700BF90F0000F04BF0021704730B509
:1002F0004FF4806404F1320410F0004548BF4042DE
:100300004FF000013EE700BF42004FEAE2014FEA32
:1003100031014FEA02701FBF12F07F4393F07F4F0D
:1003200081F06051704732F07F4208BF704793F010
:100330007F4F04BF41F40021704730B54FF4607423
:1003400001F0004521F000411CE700BF50EA010226
:1003500008BF704730B54FF000050AE050EA0102CF
:1003600008BF704730B511F0004502D5404261EB3F
:1003700041014FF4806404F132045FEA915C3FF480
:10038000D8AE4FF003025FEADC0C18BF03325FEA1D
:10039000DC0C18BF033202EBDC02C2F1200300FACE
:1003A00003FC20FA02F001FA03FE40EA0E0021FAF3
:1003B00002F11444BDE600BF70B54FF0FF0C4CF4E1
:1003C000E06C1CEA11541DBF1CEA135594EA0C0F93
:1003D00095EA0C0F00F0DEF82C4481EA030621EACE
:1003E0004C5123EA4C5350EA013518BF52EA033509
:1003F00041F4801143F4801338D0A0FB02CE4FF0BB
:100400000005E1FB02E506F00042E0FB03E54FF0EA
:100410000006E1FB03569CF0000F18BF4EF0010EE2
:10042000A4F1FF04B6F5007F64F5407404D25FEADE
:100430004E0E6D4146EB060642EAC62141EA555191
:100440004FEAC52040EA5E504FEACE2EB4F1FD0CD3
:1004500088BFBCF5E06F1ED8BEF1004F08BF5FEA51
:10046000500E50F1000041EB045170BD06F0004603
:1004700046EA010140EA020081EA0301B4EB5C04B0
:10048000C2BFD4EB0C0541EA045170BD41F48011A8
:100490004FF0000E013C00F3AB8014F1360FDEBFCD
:1004A000002001F0004170BDC4F10004203C35DAA9
:1004B0000C341BDC04F11404C4F1200500FA05F32C
:1004C00020FA04F001FA05F240EA020001F00042CD
:1004D00021F0004110EBD37021FA04F642EB060143
:1004E0005EEA430E08BF20EAD37070BDC4F10C046D
:1004F000C4F1200500FA04F320FA05F001FA04F231
:1005000040EA020001F0004110EBD37041F100011C
:100510005EEA430E08BF20EAD37070BDC4F1200527
:1005200000FA05F24EEA020E20FA04F301FA05F28F
:1005300043EA020321FA04F001F0004121FA04F237
:1005400020EA020000EBD3705EEA430E08BF20EA07
:10055000D37070BD94F0000F0FD101F00046400041
:1005600041EB010111F4801F08BF013CF7D041EAC3
:10057000060195F0000F18BF704703F000465200C7
:1005800043EB030313F4801F08BF013DF7D043EA98
:100590000603704794EA0C0F0CEA135518BF95EA4E
:1005A0000C0F0CD050EA410618BF52EA4306D1D1D5
:1005B00081EA030101F000414FF0000070BD50EAF4
:1005C000410606BF1046194652EA430619D094EA7E
:1005D0000C0F02D150EA013613D195EA0C0F05D168
:1005E00052EA03361CBF104619460AD181EA0301BC
:1005F00001F0004141F0FE4141F470014FF0000074
:1006000070BD41F0FE4141F4780170BD70B54FF00E
:10061000FF0C4CF4E06C1CEA11541DBF1CEA13558E
:1006200094EA0C0F95EA0C0F00F0A7F8A4EB050470
:1006300081EA030E52EA03354FEA013100F0888067
:100640004FEA03334FF0805545EA131343EA126330
:100650004FEA022245EA111545EA10654FEA0026E5
:100660000EF000419D4208BF964244F1FD0404F59E
:10067000407402D25B084FEA3202B61A65EB0305FA
:100680005B084FEA32024FF480104FF4002CB6EBB7
:10069000020E75EB030E22BFB61A754640EA0C0037
:1006A0005B084FEA3202B6EB020E75EB030E22BF77
:1006B000B61A754640EA5C005B084FEA3202B6EBB8
:1006C000020E75EB030E22BFB61A754640EA9C0077
:1006D0005B084FEA3202B6EB020E75EB030E22BF47
:1006E000B61A754640EADC0055EA060E18D04FEA05
:1006F000051545EA16754FEA06164FEAC30343EAA5
:1007000052734FEAC2025FEA1C1CC0D111F4801F71
:100710000BD141EA00014FF000004FF0004CB6E76A
:1007200011F4801F04BF01430020B4F1FD0C88BF09
:10073000BCF5E06F3FF6AFAEB5EB030C04BFB6EB14
:10074000020C5FEA500C50F1000041EB045170BD07
:100750000EF0004E4EEA113114EB5C04C2BFD4EB34
:100760000C0541EA045170BD41F480114FF0000EB8
:10077000013C90E645EA060E8DE60CEA135594EA34
:100780000C0F08BF95EA0C0F3FF43BAF94EA0C0F37
:100790000AD150EA01347FF434AF95EA0C0F7FF4AC
:1007A00025AF104619462CE795EA0C0F06D152EA00
:1007B00003353FF4FDAE1046194622E750EA4106E4
:1007C00018BF52EA43067FF4C5AE50EA41047FF4F5
:1007D0000DAF52EA43057FF4EBAE12E74FF0FF3C5A
:1007E00006E000BF4FF0010C02E000BF4FF0010C2B
:1007F0004DF804CD4FEA410C7FEA6C5C4FEA430CA4
:1008000018BF7FEA6C5C1BD001B050EA410C0CBFF2
:1008100052EA430C91EA030F02BF90EA020F002054
:10082000704710F1000F91EA030F58BF994208BFBB
:1008300090422CBFD8176FEAE37040F00100704778
:100840004FEA410C7FEA6C5C02D150EA013C07D1CF
:100850004FEA430C7FEA6C5CD6D152EA033CD3D01A
:100860005DF8040B704700BF8446104662468C4614
:100870001946634600E000BF01B5FFF7B7FF002847
:1008800048BF10F1000F01BD4DF808EDFFF7F4FF70
:100890000CBF012000205DF808FB00BF4DF808EDFB
:1008A000FFF7EAFF34BF012000205DF808FB00BF1E
:1008B0004DF808EDFFF7E0FF94BF012000205DF840
:1008C00008FB00BF4DF808EDFFF7CEFF94BF0120F5
:1008D00000205DF808FB00BF4DF808EDFFF7C4FFEE
:1008E00034BF012000205DF808FB00BF4FEA410C37
:1008F0007FEA6C5C02D150EA013C0AD14FEA430C1A
:100900007FEA6C5C02D152EA033C02D14FF0000056
:1009100070474FF0010070474FEA410212F5001294
:1009200015D211D56FF47873B3EB625212D94FEA36
:10093000C12343F0004343EA505311F0004F23FA20
:1009400002F018BF404270474FF00000704750EA75
:10095000013005D111F0004008BF6FF00040704732
:100960004FF00000704700BF4A0011D212F500128C
:1009700011D20DD56FF47873B3EB62520ED44FEAF7
:10098000C12343F0004343EA505323FA02F0704777
:100990004FF00000704750EA013002D14FF0FF30B5
:1009A00070474FF0000070474FEA4102B2F1E04358
:1009B00024BFB3F5001CDCF1FE5C0DD901F0004C46
:1009C0004FEAC0024CEA5070B2F1004F40EB830096
:1009D00008BF20F00100704711F0804F21D113F1C2
:1009E0003872BCBF01F00040704741F480114FEAFB
:1009F0005252C2F11802C2F1200C10FA0CF320FA84
:100A000002F018BF40F001004FEAC1234FEAD323A0
:100A100003FA0CFC40EA0C0023FA02F34FEA43030A
:100A2000CCE77FEA625307D150EA01331EBF4FF093
:100A3000FE4040F44000704701F0004040F0FE40AE
:100A400040F40000704700BF80F0004002E000BFAB
:100A500081F0004142001FBF5FEA410392EA030FA9
:100A60007FEA226C7FEA236C6AD04FEA1262D2EBF3
:100A70001363C1BFD218414048404140B8BF5B42F8
:100A8000192B88BF704710F0004F40F4000020F091
:100A90007F4018BF404211F0004F41F4000121F0A7
:100AA0007F4118BF494292EA030F3FD0A2F10102F1
:100AB00041FA03FC10EB0C00C3F1200301FA03F12F
:100AC00000F0004302D5494260EB4000B0F5000F52
:100AD00013D3B0F1807F06D340084FEA310102F111
:100AE0000102FE2A51D2B1F1004F40EBC25008BFC3
:100AF00020F0010040EA03007047490040EB00008D
:100B0000013A28BFB0F5000FEDD2B0FA80FCACF18D
:100B1000080CB2EB0C0200FA0CF0AABF00EBC250BA
:100B200052421843BCBFD0401843704792F0000FA8
:100B300081F4000106BF80F400000132013BB5E7FB
:100B40004FEA41037FEA226C18BF7FEA236C21D071
:100B500092EA030F04D092F0000F08BF08467047D6
:100B600090EA010F1CBF0020704712F07F4F04D1A4
:100B7000400028BF40F00040704712F100723CBFB7
:100B800000F50000704700F0004343F0FE4040F4E1
:100B9000000070477FEA226216BF08467FEA23639F
:100BA0000146420206BF5FEA412390EA010F40F48A
:100BB000800070474FF0000304E000BF10F00043D6
:100BC00048BF40425FEA000C08BF704743F09643BD
:100BD00001464FF000001CE050EA010208BF7047D8
:100BE0004FF000030AE000BF50EA010208BF70475F
:100BF00011F0004302D5404261EB41015FEA010C74
:100C000002BF84460146002043F0B64308BFA3F16B
:100C10008053A3F50003BCFA8CF2083AA3EBC2534D
:100C200010DB01FA02FC634400FA02FCC2F120026C
:100C3000BCF1004F20FA02F243EB020008BF20F0A3
:100C40000100704702F1200201FA02FCC2F1200209
:100C500050EA4C0021FA02F243EB020008BF20EAFE
:100C6000DC7070477BB972B90029BEBF00204FF01D
:100C7000004106E008BF00281CBF6FF000414FF0A4
:100C8000FF3000F0FDB9ADF1080C6DE904CE00298C
:100C900009DB002B1ADB00F08BF8DDF804E0DDE95E
:100CA000022304B07047404261EB4101002B1BDB83
:100CB00000F07EF8DDF804E0DDE9022304B04042F4
:100CC00061EB4101524263EB43037047524263EBD5
:100CD000430300F06DF8DDF804E0DDE9022304B021
:100CE000404261EB41017047524263EB430300F025
:100CF0005FF8DDF804E0DDE9022304B0524263EB63
:100D00004303704753B94AB9002908BF00281CBFE4
:100D10004FF0FF314FF0FF3000F0B2B9ADF1080CE9
:100D20006DE904CE00F044F8DDF804E0DDE90223CB
:100D300004B07047D0B5FFF7E7FA0C4B0022064627
:100D40000F46FFF739FBFFF70FFE0446FFF7BAFA2D
:100D5000074B0022FFF730FB02460B463046394670
:100D6000FFF772F9FFF700FE2146D0BD0000F03D0D
:100D70000000F041D0B50C4B002206460F46FFF7AD
:100D80001BFBFFF7F1FD0446FFF79CFA074B00221F
:100D9000FFF712FB02460B4630463946FFF754F97F
:100DA000FFF7E2FD2146D0BD0000F03D0000F0411C
:100DB0002DE9F047089D04468E46002B4DD18A420E
:100DC000944669D9B2FA82F252B101FA02F3C2F141
:100DD000200120FA01F10CFA02FC41EA030E9440D2
:100DE0004FEA1C48210CBEFBF8F61FFA8CF708FBF3
:100DF00016E341EA034306FB07F199420AD91CEBCB
:100E0000030306F1FF3080F01F81994240F21C81FC
:100E1000023E63445B1AA4B2B3FBF8F008FB103344
:100E200044EA034400FB07F7A7420AD91CEB040479
:100E300000F1FF3380F00A81A74240F20781644449
:100E4000023840EA0640E41B00261DB1D4400023CE
:100E5000C5E900433146BDE8F0878B4209D9002D32
:100E600000F0EF800026C5E9000130463146BDE8BC
:100E7000F087B3FA83F6002E4AD18B4202D3824226
:100E800000F2F980841A61EB030301209E46002DD5
:100E9000E0D0C5E9004EDDE702B9FFDEB2FA82F22A
:100EA000002A40F09280A1EB0C014FEA1C471FFA88
:100EB0008CFE0126200CB1FBF7F307FB131140EA6F
:100EC00001410EFB03F0884208D91CEB010103F13C
:100ED000FF3802D2884200F2CB804346091AA4B2FE
:100EE000B1FBF7F007FB101144EA01440EFB00FED2
:100EF000A64508D91CEB040400F1FF3102D2A64537
:100F000000F2BB800846A4EB0E0440EA03409CE7D5
:100F1000C6F12007B34022FA07FC4CEA030C20FA82
:100F200007F401FA06F31C43F9404FEA1C4900FAA2
:100F300006F3B1FBF9F8200C1FFA8CFE09FB18111F
:100F400040EA014108FB0EF0884202FA06F20BD992
:100F50001CEB010108F1FF3A80F08880884240F2E2
:100F60008580A8F102086144091AA4B2B1FBF9F026
:100F700009FB101144EA014100FB0EFE8E4508D921
:100F80001CEB010100F1FF346CD28E456AD90238A6
:100F9000614440EA0840A0FB0294A1EB0E01A1428B
:100FA000C846A64656D353D05DB1B3EB080261EBF9
:100FB0000E0101FA07F722FA06F3F1401F43C5E9D3
:100FC000007100263146BDE8F087C2F12003D84009
:100FD0000CFA02FC21FA03F3914001434FEA1C474B
:100FE0001FFA8CFEB3FBF7F007FB10360B0C43EA3D
:100FF000064300FB0EF69E4204FA02F408D91CEBED
:10100000030300F1FF382FD29E422DD902386344EA
:101010009B1B89B2B3FBF7F607FB163341EA03418A
:1010200006FB0EF38B4208D91CEB010106F1FF38D9
:1010300016D28B4214D9023E6144C91A46EA0046D0
:1010400038E72E46284605E70646E3E61846F8E662
:101050004B45A9D2B9EB020864EB0C0E0138A3E7AB
:101060004646EAE7204694E74046D1E7D0467BE78C
:10107000023B614432E7304609E76444023842E704
:10108000704700BF844641EA000313F003036DD1AB
:10109000403A41D351F8043B40F8043B51F8043B3B
:1010A00040F8043B51F8043B40F8043B51F8043B42
:1010B00040F8043B51F8043B40F8043B51F8043B32
:1010C00040F8043B51F8043B40F8043B51F8043B22
:1010D00040F8043B51F8043B40F8043B51F8043B12
:1010E00040F8043B51F8043B40F8043B51F8043B02
:1010F00040F8043B51F8043B40F8043B51F8043BF2
:1011000040F8043B51F8043B40F8043B51F8043BE1
:1011100040F8043B403ABDD2303211D351F8043B81
:1011200040F8043B51F8043B40F8043B51F8043BC1
:1011300040F8043B51F8043B40F8043B103AEDD230
:101140000C3205D351F8043B40F8043B043AF9D281
:10115000043208D0D2071CBF11F8013B00F8013B54
:1011600001D30B8803806046704700BF082A13D361
:101170008B078DD010F003038AD0C3F10403D21A79
:10118000DB071CBF11F8013B00F8013B80D331F8AD
:10119000023B20F8023B7BE7043AD9D3013A11F82D
:1011A000013B00F8013BF9D20B7803704B78437098
:1011B0008B788370604670470000000000000000DC
:1011C000A2EB0300704700BF02780B78012A28BF0A
:1011D0009A42F5D16DE9044540EA0104CDE9026780
:1011E0006FF0000C4FEA447212B380EA010414F06D
:1011F000070F6AD100F0070420F0070004F0030590
:1012000021F007014FEAC505F0E8042314F0040FAC
:10121000F1E804670CFA05F462EA040266EA0406DF
:101220000AD063EA0403624667EA0407664603E0FD
:10123000F0E80423F1E8046782FA4CF582EA060438
:10124000A4FA8CF46CBB83FA4CF583EA0705A5FA83
:101250008CF595B950E9022351E9026782FA4CF501
:1012600082EA0604A4FA8CF483FA4CF583EA0705B3
:10127000A5FA8CF52543DBD09CB92DBAB5FA85F4D7
:1012800024F0070427FA04F1DDE9026723FA04F3E6
:1012900003F0FF0001F0FF01FDE80445A0EB0100B1
:1012A000704724BAB4FA84F424F0070426FA04F14F
:1012B000DDE9026722FA04F202F0FF0001F0FF010B
:1012C000FDE80445A0EB0100704714F0030F3CD18A
:1012D00010F0030428D150F8082B51F8083B82FA8B
:1012E0004CF582EA0305A5FA8CF55DB950F8042C9B
:1012F00051F8043C82FA4CF582EA0305A5FA8CF514
:10130000002DE8D02DBAB5FA85F424F0070423FAAD
:1013100004F122FA04F202F0FF0001F0FF01FDE8FF
:101320000445A0EB010070474FEAC40420F003001D
:1013300050F8082B21F0030151F8083B0CFA04F493
:1013400062EA040263EA0403C9E710F003041AD056
:10135000A1EB040120F00300E40750F8042B06D0B1
:101360000FD28B785FFAA2F4E41A06D12BB1CB78B6
:101370005FFAB2F4E41A00D11BB920465DF8104BB5
:10138000704701F1040150F8042BCC0721F0030150
:1013900051F8043B48D824D222F07F4482FA4CF51D
:1013A00094EA1325A5FA8CF50AD165B951F8043BE6
:1013B00084EA0204B4EB036F0ED150F8042BEBE780
:1013C0004FEA132355E035F07F454DD10878FDE80D
:1013D0000445C0F1000070474FEA126203F0FF03BA
:1013E00047E002EA1C4482FA4CF594EA1345A5FA58
:1013F0008CF50AD165B951F8043B84EA0204B4EBD8
:10140000034F0CD150F8042BEBE74FEA134330E0C5
:1014100015EA1C4528D10B884FEA124229E04FEA11
:10142000124203EA1C4324E002F0FF0482FA4CF566
:1014300094EA1365A5FA8CF50AD165B951F8043B15
:1014400084EA0204B4EB032F09D150F8042BEBE734
:101450004FEA13630DE015F0FF0F05D10B684FEA5B
:10146000122223F07F4304E04FF00000FDE8044522
:10147000704712BA1BBA82FA4CF482EA0304A4FA47
:101480008CF5B5FA85F402FA04F203FA04F34FEA94
:101490001260FDE80445A0EB1360704700000000F7
:1014A000000000000000000000000000000000003C
:1014B000000000000000000000000000000000002C
:1014C00090F800F06DE9024520F007016FF0000C84
:1014D00010F0070491F820F040F049804FF000042C
:1014E0006FF00700D1E9002391F840F000F1080007
:1014F00082FA4CF2A4FA8CF283FA4CF3A2FA8CF33F
:101500004BBBD1E9022382FA4CF200F10800A4FAA5
:101510008CF283FA4CF3A2FA8CF3E3B9D1E90423F9
:1015200082FA4CF200F10800A4FA8CF283FA4CF330
:10153000A2FA8CF37BB9D1E9062301F1200182FAEA
:101540004CF200F10800A4FA8CF283FA4CF3A2FAF0
:101550008CF3002BC6D0002A04BF04301A4612BAFE
:10156000B2FA82F2FDE8024500EBD2007047D1E901
:10157000002304F00305C4F100004FEAC50514F090
:10158000040F91F840F00CFA05F562EA05021CBF61
:1015900063EA050362464FF00004A9E7000000007B
:1015A00001F0FF01102A2BDB10F0070F08D010F814
:1015B000013B013A8B422DD010F0070F42B3F6D118
:1015C000F0B441EA012141EA014122F007047FF031
:1015D00000070023F0E80256083C85EA010586EA88
:1015E000010685FA47F5A3FA87F586FA47F6A5FAC4
:1015F00087F68EB9EED1F0BC01F0FF0102F00702D0
:1016000032B110F8013B013A83EA010313B1F8D17A
:101610000020704701387047002D06BF354603385B
:10162000073815F0010F07D1013015F4807F02BF94
:10163000013015F4C03F0130F0BC0138704700BFE5
:1016400000B583B000238DF807300EF07BFD0090CD
:10165000009B084A084912201CF0A1FB0EF0C8FCB0
:1016600003468DF807309DF80730184603B05DF843
:1016700004FB00BFB8E50608C4E5060800B585B060
:10168000019001238DF80F30019800F095F8034682
:101690008DF80F309DF80F3083F00103DBB2002B83
:1016A00005D0019805F05EFD03468DF80F309DF8DA
:1016B0000F30184605B05DF804FB000000B587B098
:1016C00003468DF8073000230593002304933EF072
:1016D00081F903900023049323E01649049A1346EA
:1016E000DB0013449B000B4404331B789DF8072058
:1016F0009A4213D10F49049A1346DB0013449B000E
:101700000B4410331B78002B08D0049A1346DB00DF
:1017100013449B00074A1344059306E0049B0133DE
:101720000493049A039B9A42D7D3059B184607B0AB
:101730005DF804FB3066002000B587B003468DF8E5
:10174000073000230593002304933EF043F90390F0
:101750000023049323E01749049A13469B00134483
:101760009B000B4404331B789DF807209A4213D149
:101770001049049A13469B0013449B000B441033FA
:101780001B78002B10D0049A13469B0013449B0037
:10179000084A1344059307E0049B01330493049A19
:1017A000039B9A42D7D300E000BF059B184607B0C1
:1017B0005DF804FB7835080882B0034600228DF8F6
:1017C0000720B3F1005F05D3054A934202D80123F5
:1017D0008DF807309DF80730184602B0704700BFFB
:1017E0000000032000B587B003900291019200939E
:1017F00000238DF81330029A019B9A420AD2029B71
:10180000591C009B019A0398FFF7ECFF03468DF8E3
:10181000133012E0029A019B9A420BD10DF113038F
:10182000039AD31A0593009B059A1A6001238DF839
:10183000133002E000238DF813309DF81330184662
:1018400007B05DF804FB000000B587B0039002917B
:10185000019200238DF81730019B029A0021039812
:10186000FFF7C0FF03468DF81730019B1B68029AF3
:1018700004490A201CF0B0FA9DF81730184607B04A
:101880005DF804FBE0E5060800B583B000238DF8A1
:10189000073009490A201CF082FA4FF47A7029F0C7
:1018A0006BFB00F0CDFD03468DF807309DF8073047
:1018B000184603B05DF804FBFCE506082DE9F00FBF
:1018C00086B0019001238DF81730002304934FF068
:1018D00000024FF00003CDE902230023049313E03C
:1018E000019A049B06339B0013445B6800221E464A
:1018F0001746DDE9022312EB060A43EB070BCDE99D
:1019000002AB049B01330493049B032BE8D9019B96
:101910005B6B00221C461546DDE9022312EB04082E
:1019200043EB0509CDE90289DDE90223134303D125
:1019300001238DF8173002E000238DF817309DF851
:101940001730184606B0BDE8F00F704700B585B0F7
:10195000019001238DF80F300198FFF7AFFF034688
:101960008DF80F309DF80F3083F00103DBB2002BB0
:1019700004D0019A85490A201CF0A5FA9DF80F3081
:10198000002B13D0019B1B681846FFF715FF034679
:101990008DF80F309DF80F3083F00103DBB2002B80
:1019A00004D0019A7A490A201CF08DFA9DF80F3074
:1019B000002B15D0019B5B68184605F0D3FB03464E
:1019C0008DF80F309DF80F3083F00103DBB2002B50
:1019D00006D0019B5B681A466E490A201CF073FA18
:1019E0009DF80F30002B15D0019BDB68184605F0E1
:1019F000B9FB03468DF80F309DF80F3083F00103DB
:101A0000DBB2002B06D0019B5B681A4662490A20B4
:101A10001CF059FA9DF80F30002B15D0019B1B6963
:101A2000184605F09FFB03468DF80F309DF80F30E8
:101A300083F00103DBB2002B06D0019B5B681A46E2
:101A400056490A201CF03FFA9DF80F30002B15D0A4
:101A5000019B5B69184605F085FB03468DF80F3046
:101A60009DF80F3083F00103DBB2002B06D0019B01
:101A70005B681A464A490A201CF025FA9DF80F3087
:101A8000002B15D0019B9B69184605F06BFB0346A4
:101A90008DF80F309DF80F3083F00103DBB2002B7F
:101AA00006D0019B5B681A463E490A201CF00BFADF
:101AB0009DF80F30002B15D0019B1B6B184605F0CD
:101AC00051FB03468DF80F309DF80F3083F0010372
:101AD000DBB2002B06D0019B5B681A4632490A2014
:101AE0001CF0F1F99DF80F30002B15D0019BDB6A3B
:101AF000184605F037FB03468DF80F309DF80F3080
:101B000083F00103DBB2002B06D0019B5B681A4611
:101B100026490A201CF0D7F99DF80F30002B15D06C
:101B2000019B9B6B184605F01DFB03468DF80F309B
:101B30009DF80F3083F00103DBB2002B06D0019B30
:101B40005B681A461A490A201CF0BDF99DF80F304F
:101B5000002B15D0019B9B68184605F003FB03463C
:101B60008DF80F309DF80F3083F00103DBB2002BAE
:101B700006D0019B5B681A460E490A201CF0A3F9A7
:101B80009DF80F30184605B05DF804FB08E606081E
:101B900024E6060840E6060858E6060870E6060849
:101BA00088E60608A0E60608B8E60608D0E60608B5
:101BB000E4E60608F8E6060810B58CB0039002913A
:101BC000019205AB00221A605A609A60019B029A4A
:101BD0001C490A201CF03BF9019B9B080B930B9BB3
:101BE000002B25D000230493029A019BD31A0A9359
:101BF00004AB154A0B990A9816F068FE03468DF857
:101C000027309DF82730002B12D000230893049B27
:101C10000B9AD31A0893089B642202FB03F318461D
:101C20000B9905AB052225F016F803468DF82730F1
:101C3000039B1C4605AB93E8070084E80700039864
:101C40000CB010BD0CE70608EFBEADDE00B585B0E8
:101C5000019000238DF80F30019B02930298FFF74B
:101C600075FE03468DF80F309DF80F30184605B00D
:101C70005DF804FB82B001238DF80730064BD3F8E2
:101C80008830054A43F47003C2F888309DF8073065
:101C9000184602B0704700BF00ED00E086B001902A
:101CA00000238DF8173001238DF81730184B9A6AEE
:101CB000184B1B68164913438B62EFF3138303938E
:101CC000039B049371B600BF114B5B69104A43F448
:101CD00080735361019B1B780D4B9A6A0D4B1B68F7
:101CE0001340002B02D000238DF81730084B5B699E
:101CF000074A23F480735361049B0293029B83F38E
:101D0000138800BF9DF81730184606B0704700BF13
:101D100000ED00E050F4070800B587B00190002303
:101D20000593019A15490A201CF056F8019B04936B
:101D300001238DF80F300FE00498FFF7AFFF034643
:101D40008DF80F309DF80F30002B0AD0059B013322
:101D50000593049B013304939DF80F30002BEBD1C6
:101D600000E000BF059B019A05490A201CF034F8E9
:101D7000059B184607B05DF804FB00BF78E706082E
:101D800084E7060800B583B001238DF807304FF0D3
:101D90000050FFF7C1FF0090009B4FF00052054933
:101DA0000A201CF019F89DF80730184603B05DF8BA
:101DB00004FB00BFB4E7060884B001900091002343
:101DC0008DF80F30019B002B11D0009B002B0ED003
:101DD000019B1A68009B1A60019B9A68009B9A609D
:101DE000019BDA68009BDA6001238DF80F309DF8C3
:101DF0000F30184604B0704700B585B0019000233D
:101E00008DF80F30019B002B35D001238DF80F305A
:101E1000019B9B681846FFF7CFFC034683F0010344
:101E2000DBB2002B08D0019B1B791A46019B9B68F3
:101E300014490A201BF0EDFF019BDB681846FFF7F1
:101E4000BBFC034683F00103DBB2002B08D0019BEF
:101E50001B791A46019BDB680B490A201BF0D9FF4E
:101E6000019B1B68002B06D1019B1B791A46074971
:101E70000A201BF0CEFF9DF80F30184605B05DF824
:101E800004FB00BFD0E70608ECE7060808E80608F0
:101E900000B587B003468DF8073000238DF8173062
:101EA0009DF807301A4632490A201BF078FF9DF84A
:101EB00007301846FFF740FC0490049B002B4AD0E3
:101EC0000498FFF799FF03468DF817309DF81730F7
:101ED000002B38D0049802F06DFD03461A462549C0
:101EE0000A201BF05CFF9DF807301846FFF7E6FB61
:101EF0000390039B002B1ED003990498FFF75CFF0F
:101F000003468DF81730FFF7B5FE03468DF81730FE
:101F1000039B01221A74039B0022DA61039B0022B7
:101F20009A61039B00225A61039B01225A74012388
:101F30008DF8173016E09DF807301A460E490A2032
:101F40001BF0C1FF0EE09DF807301A460B490A202E
:101F50001BF0B9FF06E09DF807301A4607490A2032
:101F60001BF057FF9DF81730184607B05DF804FBCB
:101F70001CE8060824E8060828E8060834E80608ED
:101F800082B000238DF807309DF80730184602B064
:101F90007047000008B5FFF7F3FF034683F0010325
:101FA000DBB2002B0AD0064B1B68002B01D172B6A6
:101FB00000BF034B1B680133014A136000BF08BD1B
:101FC000F481002008B5FFF7DBFF034683F001032F
:101FD000DBB2002B0ED0084B1B68002B0AD0064B3F
:101FE0001B68013B044A1360034B1B68002B01D1A3
:101FF00062B600BF00BF08BDF481002000B585B007
:1020000001238DF80A30FFF7BDFE03468DF80A3034
:10201000002303933DF0DEFC019000238DF80B308C
:1020200000238DF80B3013E09DF80B301846FFF7B6
:102030002FFF03468DF80A309DF80A30002B02D09E
:10204000039B013303939DF80B3001338DF80B3064
:102050009DF80B30019A9A42E6D2019903982FF02D
:1020600095F803468DF80A309DF80A30184605B0F9
:102070005DF804FBBFF34F8F00BF064BDB6803F432
:10208000E0620449044B1343CB60BFF34F8F00BFA2
:1020900000BFFDE700ED00E00400FA0530B587B0B1
:1020A00003460A468DF80F3013468DF80E30002394
:1020B0008DF817309DF80E30032B00F2D9809DF873
:1020C0000F409DF80E509DF80E30184600F030FA83
:1020D000034600932B462246684901201BF07CFEF4
:1020E00000230493664BD3F8883004939DF80F3097
:1020F0000B2B00F2B18001A252F823F02D21010830
:102100004B2101086921010887210108A521010847
:10211000C3210108E1210108FF210108592201081A
:10212000592201081D2201083B2201089DF80E30AA
:1021300003F00303DAB29DF8103062F301038DF867
:10214000103001238DF817308AE09DF80E3003F02F
:102150000303DAB29DF8103062F383038DF8103078
:1021600001238DF817307BE09DF80E3003F0030358
:10217000DAB29DF8103062F305138DF810300123A8
:102180008DF817306CE09DF80E3003F00303DAB2DF
:102190009DF8103062F387138DF8103001238DF80D
:1021A00017305DE09DF80E3003F00303DAB29DF8BE
:1021B000113062F301038DF8113001238DF81730CF
:1021C0004EE09DF80E3003F00303DAB29DF81130B3
:1021D00062F383038DF8113001238DF817303FE04F
:1021E0009DF80E3003F00303DAB29DF8113062F36C
:1021F00005138DF8113001238DF8173030E09DF86C
:102200000E3003F00303DAB29DF8113062F3871346
:102210008DF8113001238DF8173021E09DF80E3034
:1022200003F00303DAB29DF8123062F305138DF860
:10223000123001238DF8173012E09DF80E3003F0B4
:102240000303DAB29DF8123062F387138DF812306F
:1022500001238DF8173003E000238DF8173000BFFD
:102260009DF81730002B03D0054A049BC2F8883034
:102270009DF81730184607B030BD00BF44E8060887
:1022800000ED00E084B0034600918DF80730002394
:102290008DF80F30009B002B00F0A28000230293EA
:1022A000524BD3F8883002939DF807300B2B00F285
:1022B000938001A252F823F0E922010801230108CA
:1022C000192301083123010849230108612301086A
:1022D0007923010891230108D9230108D923010892
:1022E000A9230108C12301089DF80830C3F30103A5
:1022F000DBB21A46009B1A7001238DF80F306FE095
:102300009DF80830C3F38103DBB21A46009B1A70B4
:1023100001238DF80F3063E09DF80830C3F30113FB
:10232000DBB21A46009B1A7001238DF80F3057E07C
:102330009DF80830C3F38113DBB21A46009B1A7074
:1023400001238DF80F304BE09DF80930C3F30103F2
:10235000DBB21A46009B1A7001238DF80F303FE064
:102360009DF80930C3F38103DBB21A46009B1A7053
:1023700001238DF80F3033E09DF80930C3F30113CA
:10238000DBB21A46009B1A7001238DF80F3027E04C
:102390009DF80930C3F38113DBB21A46009B1A7013
:1023A00001238DF80F301BE09DF80A30C3F30113B1
:1023B000DBB21A46009B1A7001238DF80F300FE034
:1023C0009DF80A30C3F38113DBB21A46009B1A70E2
:1023D00001238DF80F3003E000238DF80F3000BF8C
:1023E0009DF80F30184604B0704700BF00ED00E0C4
:1023F00086B003468DF8073000238DF817309DF81E
:102400000730002B05D000230493049B83F310882E
:1024100005E001230393039B83F3108800BF9DF81D
:102420001730184606B0704784B003468DF8073061
:1024300000238DF80F309DF80F30184604B0704718
:1024400000B583B001238DF80730054901201BF04A
:10245000A6FC12F04CFB72B600BFFFF70BFE00BFEC
:102460005CE8060886B0019000238DF8173072B63C
:1024700000BF01230393039B83F3108800BF0E4A20
:10248000019B936000230493049B83F3108800BF97
:1024900062B600BF084B9B68019A9A4203D10123A0
:1024A0008DF8173002E000238DF817309DF81730B3
:1024B000184606B0704700BF00ED00E000B583B0DD
:1024C00000238DF807304FF00060FFF7CBFF034685
:1024D0008DF807309DF80730184603B05DF804FB0F
:1024E00000B585B0034600918DF8073000238DF8C4
:1024F0000F309DF80720009B0B4901201BF06CFC5E
:102500009DF80730072B09D8084A9DF80730023399
:10251000002142F8231001238DF80F309DF80F3071
:10252000184605B05DF804FB6CE80608002000E0E2
:1025300084B003468DF80730114B03939DF80730A4
:10254000032B17D801A252F823F000BF5D25010824
:1025500063250108692501086F250108094B0393CC
:1025600009E0094B039306E0084B039303E0084B93
:10257000039300E000BF039B184604B0704700BF00
:10258000A0E80608A4E80608ACE80608B8E80608CB
:10259000C4E8060884B003468DF807300A4B03935D
:1025A0009DF80730002B02D0012B03D005E0074B2C
:1025B000039305E0064B039302E0034B039300BF34
:1025C000039B184604B07047A0E80608CCE806084C
:1025D000D0E8060884B003468DF807300A4B039311
:1025E0009DF80730002B02D0012B03D005E0074BEC
:1025F000039305E0064B039302E0034B039300BFF4
:10260000039B184604B07047A0E80608ACE806082B
:10261000ECE8060884B003468DF807300A4B0393B4
:102620009DF80730002B02D0012B03D005E0074BAB
:10263000039305E0064B039302E0034B039300BFB3
:10264000039B184604B07047A0E80608FCE806089B
:1026500000E9060800B585B0019000238DF80F3021
:10266000019B002B67D0019936481CF029FA019B89
:102670009B68194634481CF023FA019B1B681946D5
:1026800032481CF01DFA019B5B68194630481CF06B
:1026900017FA019BDB6819462E481CF011FA019BC2
:1026A0001B6919462C481CF00BFA019B5B69194603
:1026B0002A481CF005FA019B5B6A194628481CF061
:1026C000FFF9019B9B6A194626481CF0F9F9019B0A
:1026D000DB6A194624481CF0F3F9019B1B6B194671
:1026E00022481CF0EDF9019B5B6B194620481CF059
:1026F000E7F9019B9B6B19461E481CF0E1F9019B11
:10270000DB6B19461C481CF0DBF9019B9B6C1946DE
:102710001A481CF0D5F9019BDB6C194618481CF0CF
:10272000CFF9019BD3F88830194616481CF0C8F938
:1027300001238DF80F309DF80F30184605B05DF875
:1027400004FB00BF04E9060810E9060820E90608B2
:1027500030E9060840E9060850E9060860E906087D
:1027600070E9060880E9060890E90608A0E906086D
:10277000B0E90608C0E90608D0E90608E0E906085D
:10278000F0E9060800EA060810B584B001900123BC
:102790008DF80F30019B02939DF80830C3F30003BE
:1027A000DBB21C469DF80830C3F30003DBB21846C9
:1027B000FFF710FF03461A46214618481CF080F91F
:1027C0009DF80830C3F34003DBB21C469DF8083087
:1027D000C3F34003DBB21846FFF71CFF03461A465B
:1027E00021460F481CF06CF99DF80830C3F38003B4
:1027F000DBB21C469DF80830C3F38003DBB21846F9
:10280000FFF7C8FE03461A46214606481CF058F951
:102810009DF80F30184604B010BD00BF10EA06083E
:1028200024EA060834EA060800B583B001238DF8CF
:1028300003300023019311481CF042F90023019357
:1028400012E001990E481CF03BF90E4A019B02333D
:1028500052F8233019460C481CF032F907481CF096
:102860002FF9019B01330193019B072BE9D99DF8B7
:102870000330184603B05DF804FB00BF60EA0608A9
:1028800064EA0608002000E06CEA060800B589B09A
:102890000190009100238DF81F30019B002B28D15F
:1028A00019491A481CF00CF94FF000631B68069395
:1028B000174B1B681A46069B9B1A0593144B1B6803
:1028C000059A144901201BF06AFA2FF011FA1248F8
:1028D000FFF7C0FE03468DF81F30EFF31483039318
:1028E000039B04930498FFF74FFF01238DF81F30DB
:1028F00003E00A4901201BF0E6FA9DF81F30184654
:1029000009B05DF804FB00BF8DAF040878EA060843
:102910000400002088EA060800ED00E0B0EA06089E
:1029200000B585B00190009100238DF80F301F4B4A
:102930000293019B002B07D1029B184602F0B0F8CE
:1029400001238DF80F302AE0019B012B23D10123B5
:102950008DF80F30009B1B6802AA1146184617F02D
:102960009FFA03468DF80F309DF80F3083F0010376
:10297000DBB2002B06D0009B1B681A460C490120D5
:102980001BF0A1FA9DF80F30002B08D0029B1846CF
:1029900002F086F803E0074901201BF094FA9DF845
:1029A0000F30184605B05DF804FB00BF004E002054
:1029B000BCEA0608E4EA060800B585B0019000917B
:1029C00001238DF80E3000238DF80F30019B012B71
:1029D0000AD1009B1B680DF10E021146184617F034
:1029E000EFFD03468DF80F309DF80F30002B10D00F
:1029F0009DF80E301846FFF7FBFC03468DF80F30AC
:102A00009DF80F30002B08D0074901201BF0E4F996
:102A100003E0064901201BF056FA9DF80F301846D6
:102A200005B05DF804FB00BFF0EA0608F4EA06080A
:102A300030B587B00390029100238DF81730002342
:102A40008DF8163000238DF81530039B002B02DB28
:102A500001238DF81730039B002B0ADD029B1B68B6
:102A60000DF116021146184617F0E5FC03468DF8E5
:102A70001730039B012B0BDD029B04331B680DF108
:102A800015021146184617F0D6FC03468DF817308C
:102A90009DF81730002B7ED0039B022B5CD0039B4C
:102AA000022B7DDC039B002B03D0039B012B34D036
:102AB00076E000238DF816302AE000238DF81530DB
:102AC0009DF816300DF1150211461846FFF7DAFB96
:102AD00003468DF817309DF81730002B12D09DF863
:102AE00016301C469DF815301D469DF815301846C9
:102AF000FFF71EFD034600932B4622462B4901207B
:102B00001BF06AF99DF816300133DBB28DF81630F0
:102B10009DF81630102BD0D943E09DF816300DF1FA
:102B2000150211461846FFF7ADFB03468DF8173026
:102B30009DF816301C469DF815301D469DF8153041
:102B40001846FFF7F5FC034600932B46224617492B
:102B500001201BF041F924E09DF816301C469DF839
:102B600015301D469DF815301846FFF7E1FC034669
:102B700000932B4622460E4901201BF02DF99DF8AB
:102B800016309DF8152011461846FFF787FA0346C0
:102B90008DF8173005E0074901201BF094F900E09B
:102BA00000BF9DF81730184607B030BD08EB060887
:102BB00020EB060838EB060800B585B001900091BF
:102BC00001238DF80E3000238DF80F30019B012B6F
:102BD0000AD1009B1B680DF10E021146184617F032
:102BE000EFFC03468DF80F309DF80F30002B10D00E
:102BF0009DF80E301846FFF717FC03468DF80F308E
:102C00009DF80F30002B08D0074901201BF0E4F895
:102C100003E0064901201BF056F99DF80F301846D5
:102C200005B05DF804FB00BFF0EA060850EB0608AB
:102C300000B585B00190009100238DF80F3000237E
:102C40008DF80E3000230293019B002B02DB012341
:102C50008DF80F30019B002B0ADD009B1B680DF1E6
:102C60000E021146184617F0E6FB03468DF80F30AA
:102C7000019B012B0ADD009B04331B6802AA11464D
:102C8000184617F00DF903468DF80F309DF80F30F8
:102C9000002B1BD0019B002B03D0019B022B06D0E5
:102CA00010E0FFF7C1FD03468DF80F3012E09DF8EC
:102CB0000E30029A11461846FFF712FC03468DF8B3
:102CC0000F3007E000238DF80F3003E004490120A6
:102CD0001BF0F9F89DF80F30184605B05DF804FBBD
:102CE00064EB060882B003468DF807309DF9073083
:102CF000002B0CDB9DF8073003F01F0205499DF9FE
:102D000007305B09012000FA02F241F8232000BFDE
:102D100002B0704700E100E082B003468DF8073052
:102D20009DF90730002B13DB9DF8073003F01F02DD
:102D300009499DF907305B09012000FA02F22033AE
:102D400041F82320BFF34F8F00BFBFF36F8F00BF49
:102D500000BF02B0704700BF00E100E000B583B0E3
:102D600001238DF805300023ADF806304FF6F273DD
:102D7000ADF806300CE0BDF806305BB21846FFF740
:102D8000CBFFBDF906309BB201339BB2ADF80630E4
:102D9000BDF90630512BEEDD9DF80530184603B025
:102DA0005DF804FB00B585B003460A46ADF8063071
:102DB00013468DF8053001238DF80F30BDF906203C
:102DC0009DF805300D4930201BF006F89DF80530C0
:102DD000002B06D0BDF806305BB21846FFF782FF25
:102DE00005E0BDF806305BB21846FFF795FF9DF889
:102DF0000F30184605B05DF804FB00BF88EB0608ED
:102E000000B585B003468DF8073001238DF80F30EB
:102E10009DF807301A46094930201AF0DDFF9DF869
:102E20000730002B01D062B601E072B600BF9DF8FA
:102E30000F30184605B05DF804FB00BF98EB06089C
:102E400000B587B003468DF8073000238DF81730A2
:102E5000194B0493002303930023039316E09DF979
:102E600007301AB21549039BDB000B44B3F9043059
:102E70009A4208D1114A039B52F83330049301233C
:102E80008DF8173005E0039B01330393039B092B57
:102E9000E5D99DF8173083F00103DBB2002B06D093
:102EA0009DF907301BB2184605F002FF0490049B01
:102EB000184607B05DF804FB98EC0608D4F4070840
:102EC00084B003468DF807300F4B03930023029321
:102ED0000023029311E09DF907200C49029BDB00BF
:102EE0000B441B799A4205D1084A029B52F83330B1
:102EF000039305E0029B01330293029B0F2BEAD957
:102F0000039B184604B0704798EC060854F4070871
:102F1000034BDB681B0A03F007031846704700BF2A
:102F200000ED00E082B003468DF807309DF90730D0
:102F3000002B0EDB094A9DF907305B0952F823206C
:102F40009DF8073003F01F0322FA03F303F0010397
:102F500000E00023184602B0704700BF00E100E027
:102F600082B003468DF807309DF90730002B0FDB48
:102F7000094A9DF907305B09403352F823209DF838
:102F8000073003F01F0322FA03F303F0010300E00C
:102F90000023184602B0704700E100E082B003460B
:102FA0008DF807309DF90730002B0FDB094A9DF99A
:102FB00007305B09803352F823209DF8073003F077
:102FC0001F0322FA03F303F0010300E00023184675
:102FD00002B0704700E100E082B0034600918DF836
:102FE00007309DF90730002B0ADB009BDAB20C4951
:102FF0009DF907301201D2B20B4483F800230BE095
:10300000009BDAB207499DF8073003F00F03043B39
:103010001201D2B20B441A7600BF02B0704700BF53
:1030200000E100E000ED00E082B003468DF80730DB
:103030009DF90730002B09DB0B4A9DF9073013443B
:1030400093F80033DBB21B09DBB20AE0074A9DF8B4
:10305000073003F00F03043B13441B7EDBB21B0954
:10306000DBB2184602B0704700E100E000ED00E07E
:1030700084B003468DF80730064B9B6803939DF997
:10308000073010339B00039A13441B68184604B0A2
:10309000704700BF00ED00E000B58BB003900291D7
:1030A00000238DF82730002308930023ADF8163055
:1030B000039B012B0AD1029B1B680DF116021146DE
:1030C000184617F04FF903468DF82730FFF720FF19
:1030D0000790079A154901201AF07EFE9DF82730C7
:1030E000002B18D0BDF916305BB21846FFF79CFFD5
:1030F0000890BDF916305BB21846FFF7B9FF06908D
:10310000BDF916301A46069B0093089B084901201A
:103110001AF062FE03E0074930201AF0D4FE9DF851
:10312000273018460BB05DF804FB00BF9CEC060886
:10313000B0EC0608D8EC060800B587B00190009105
:1031400000238DF817300023049300238DF80F30EF
:10315000019B022B14D1009B1B680DF10F0211463D
:10316000184617F088F903468DF81730009B1B6846
:1031700004AA1146184616F093FE03468DF8173040
:103180009DF81730002B07D09DF90F30049A114697
:103190001846FFF721FF03E0044930201AF093FEA0
:1031A0009DF81730184607B05DF804FBE8EC0608F8
:1031B00000B585B00190009100238DF80F300023F9
:1031C0008DF80E3000238DF80D30019B002B0ADDA9
:1031D000009B1B680DF10E021146184617F04BF9C3
:1031E00003468DF80F30019B012B0BDD009B043350
:1031F0001B680DF10D021146184617F0E1F9034660
:103200008DF80F309DF80F30002B0FD0019B022B53
:1032100010D19DF90E301BB29DF80D2011461846B5
:10322000FFF7C0FD03468DF80F3003E0044930205E
:103230001AF049FE9DF80F30184605B05DF804FB02
:1032400004ED060800B5A9B00390029100238DF8A3
:103250009F30002325930023ADF89C30FFF758FEE4
:103260002490249A624901201AF0B6FD0023ADF89B
:103270009A30002323935F4B1B68243309225E4955
:1032800018461BF0E9F84FF6F273ADF89A309CE05F
:10329000BDF89A305BB21846FFF7C6FE2390BDF822
:1032A0009A305BB21846FFF73DFE2290BDF89A3087
:1032B0005BB21846FFF7DCFE259004AB4F49184679
:1032C00051F0A8FEBDF99A3004AA04A80093134651
:1032D0004B4A782151F046FD229BDBB218463BF069
:1032E00017FE024604AB04A80092464A782151F02A
:1032F00039FD04AA04A8259B00931346424A78216D
:1033000051F030FDBDF89A305BB21846FFF746FE2B
:10331000024604AB04A800923C4A782151F022FDF9
:10332000BDF89A305BB21846FFF71AFE024604ABAE
:1033300004A80092364A782151F014FD04AA04A88A
:10334000239B00931346334A782151F00BFD239BB6
:103350005BB21846FFF7B4FD024604AB04A8009226
:103360002D4A782151F0FEFCBDF89A305BB2184628
:10337000FFF766FD024604AB04A80092264A7821B6
:1033800051F0F0FC04AB029A039918461AF0E2F8E7
:103390000346002B12D0BDF89C3019461F481BF085
:1033A0008FFB04AB19461E481BF08AFBBDF89C300E
:1033B0000133ADF89C3001238DF89F30BDF99A3070
:1033C0009BB201339BB2ADF89A30BDF99A30512BC4
:1033D0007FF75EAF074B1B68243309220649184666
:1033E0001AF062FF9DF89F30184629B05DF804FB83
:1033F0009CEC06080462002024F507081CED060872
:1034000020ED06082CED060838ED060844ED060808
:1034100050ED06085CED060868ED060874ED060838
:103420007CED060800B58FB00190009100238DF867
:1034300037300023089309AB00221A605A609A6063
:10344000DA600023039304AB00221A605A609A608A
:10345000DA60019B002B0EDB08AB142220491846D2
:1034600051F076FE03AB14221D49184651F070FE50
:1034700001238DF83730019B002B09DD009B196873
:1034800008AB1422184651F063FE01238DF8373043
:10349000019B012B0ADD009B0433196803AB142246
:1034A000184651F055FE01238DF83730019B022B51
:1034B00003DD0C4930201AF006FD9DF83730002B53
:1034C00008D003AA08AB11461846FFF7BBFE034617
:1034D0008DF837309DF8373018460FB05DF804FB93
:1034E00084ED060888ED060800B585B001900091CE
:1034F00000238DF80E3000238DF80F30019B012B37
:103500000AD1009B1B680DF10E021146184617F0F8
:1035100057F803468DF80F309DF80F30002B08D078
:103520009DF80E301846FFF76BFC03468DF80F3000
:1035300003E0054930201AF0C6FC9DF80F3018460C
:1035400005B05DF804FB00BF9CED06082DE9F043D3
:1035500083B0012000F032F80190019B002B28D0AD
:10356000019B93F83430002B23D0FEF713FD019B11
:103570001B695A1C019B1A61019BD3E9062312F1B6
:10358000010843F10009019BC3E90689019B9B687F
:103590005B68C3F31701019BD3E9082300200C46A5
:1035A0000546161943EB0507019BC3E90867FEF7BB
:1035B00009FD00BF03B0BDE8F083000000B587B08F
:1035C00003468DF8073000230593002304933CF055
:1035D00027F803900023049323E01649049A134626
:1035E000DB009B1ADB000B4405331B789DF807209A
:1035F0009A4213D10F49049A1346DB009B1ADB0051
:103600000B4407331B78002B08D0049A1346DB00C9
:103610009B1ADB00074A1344059306E0049B013321
:103620000493049A039B9A42D7D3059B184607B08C
:103630005DF804FB6011002000B587B003468DF8EB
:10364000073000230593002304933BF0E9FF039028
:10365000002304931AE0134A049B1B01134405330F
:103660001B789DF807209A420DD10E4A049B1B013E
:10367000134407331B78002B0DD0049B1B01094A10
:103680001344059307E0049B01330493049A039BBE
:103690009A42E0D300E000BF059B184607B05DF8F2
:1036A00004FB00BF30200808F0B589B003468DF850
:1036B00007304FF000024FF00003CDE906239DF8DC
:1036C00007301846FFF77AFF0590059B002B1ED0A8
:1036D000FEF760FC059B9B685B68C3F317031A4603
:1036E000059B9B689B68C3F31703D31ADA171E4622
:1036F0001746CDE90267059BD3E90823DDE90201FE
:10370000841841EB0305CDE90645FEF75BFCDDE9D6
:1037100006231046194609B0F0BD00B583B0012359
:103720008DF8073014F07AF903468DF807309DF8CC
:103730000730184603B05DF804FB84B00190002305
:103740008DF80F30019B002B20D001238DF80F3016
:103750009DF80F30002B0AD0019B1B68002B03D073
:1037600001238DF80F3002E000238DF80F309DF813
:103770000F30002B0AD0019B9B68002B03D0012344
:103780008DF80F3002E000238DF80F309DF80F30D8
:10379000184604B0704700B583B000238DF8073099
:1037A0000120FFF70BFF0090009B002B0ED0009B29
:1037B0009B68002B0AD0009B9B681B68C3F3000327
:1037C000DBB2002B02D001238DF807309DF80730C3
:1037D000184603B05DF804FB00B583B00120FFF785
:1037E000EDFE0190019B002B13D0019B9B681B6891
:1037F00000939DF800306FF300038DF800309DF8C2
:1038000000306FF341038DF80030019B9B68009AF4
:103810001A600123184603B05DF804FB00B585B0BB
:1038200000238DF80F300120FFF7C8FE0290029BA5
:10383000002B1AD0029B9B68002B16D0029B9B6822
:103840001B6801939DF8043043F001038DF80430A8
:103850009DF8043043F002038DF80430029B9B680E
:10386000019A1A6001238DF80F309DF80F30184629
:1038700005B05DF804FB00B587B0019000238DF81A
:1038800017300120FFF79AFE0490049B002B1AD0FA
:1038900000230393019B23F07F439AB200210A4344
:1038A000ADF80C201B0CDBB2002213438DF80E3058
:1038B000049B9B68002B06D0049B9B68039A5A606C
:1038C00001238DF817309DF81730184607B05DF8C2
:1038D00004FB00B585B003468DF8073000238DF852
:1038E0000F300120FFF76AFE0290029B002B11D0DF
:1038F000029B9B68002B0DD0029B9A689DF80730B5
:1039000003F00103D9B2136861F38203136001234A
:103910008DF80F309DF80F30184605B05DF804FBA8
:1039200000B583B002238DF807300120FFF746FE73
:103930000090009B002B0BD0009B9B68002B07D0B6
:10394000009B9B681B68C3F38003DBB28DF80730D4
:103950009DF80730184603B05DF804FB00B583B04E
:10396000002300930120FFF729FE0190019B002B0B
:1039700007D0019B9B68002B03D0019B9B685B6871
:103980000093009BC3F31703184603B05DF804FBD4
:1039900030B589B003468DF807304FF000024FF084
:1039A0000003CDE906239DF807301846FFF706FE11
:1039B0000590059B002B15D09DF807301846FFF7A2
:1039C00073FECDE90201059BDB6A00221C46154609
:1039D00022462B46DDE90201FDF794F902460B462B
:1039E000CDE90623DDE906231046194609B030BDAE
:1039F00000B585B0002303930120FFF7DFFD02909F
:103A0000029B002B10D0FFF7C6FE03468DF807304F
:103A10009DF80730002B04D1029BDB685A1C029BE7
:103A2000DA60029B1B690393039B184605B05DF89F
:103A300004FB000000B585B003468DF80730002375
:103A40008DF80F309DF8073018463BF00DFA03460D
:103A50001A46104933201AF0BFF99DF80730002BA1
:103A600007D0012B0BD1FFF7D9FE03468DF80F309D
:103A700009E014F001F803468DF80F3003E000234D
:103A80008DF80F3000BF9DF80F30184605B05DF877
:103A900004FB00BFD8ED060800B587B00190009187
:103AA00000238DF81730019B002B00F0CE80019889
:103AB00000F014FA03461A46674933201AF06FF9EA
:103AC0000198FFF73AFE03468DF817309DF817303E
:103AD000002B00F0BA80009B002B00F0B680019B09
:103AE0001B681A465D4933201AF076F9019B9A68E3
:103AF000009B9A60019B5A79009B5A71019B1A792D
:103B0000009B1A71019B1A68009B1A60009B00229F
:103B10001A6100994FF000024FF00003C1E9082339
:103B200000994FF000024FF00003C1E90623019B0A
:103B30009B68002B00F0898013F042FF0246009B37
:103B40001A63009B1B6B1A46454933201AF044F94F
:103B5000009B1B6B434AA2FB03239A0C009BDA6277
:103B6000009B1B6B002B70D0019B9A68009B9A6096
:103B7000019B1B6807EE903AB8EE677ADFED3A6A70
:103B8000C7EE267ACDED047A009B1B6B07EE903AC8
:103B9000F8EE677A9DED047A67EE277ACDED037A29
:103BA000DDED037AFCEEE77A17EE902A009B9B6826
:103BB00022F07F4291B29888002001439980120C34
:103BC000D2B2997900210A439A71009B9B685B6885
:103BD000C3F317031A46254933201AF0FDF8009B5A
:103BE0009B681A8900221A819A7A00229A7200230D
:103BF00002939DF8083043F001038DF808309DF8DA
:103C0000083043F002038DF80830019B9B7903F0E4
:103C10000103DAB29DF8083062F382038DF80830B0
:103C2000019B1B79002B05D09DF8083043F002035F
:103C30008DF80830009B9B68029A1A6001238DF86A
:103C40001730009B012283F834209DF81730184666
:103C500007B05DF804FB00BFE0ED0608E4ED0608E0
:103C6000F4ED060883DE1B4300007A4408EE0608E4
:103C700000B587B003468DF8073000238DF8173064
:103C80009DF807301846FFF7D7FC0490049B002BE3
:103C90000FD09DF807301846FFF790FC0390039B68
:103CA000002B06D003990498FFF7F6FE03468DF823
:103CB00017309DF81730184607B05DF804FB00B5C3
:103CC00085B001238DF80A30FFF727FD03468DF8F4
:103CD0000A30002303933BF0A3FC019000238DF8EE
:103CE0000B3000238DF80B3013E09DF80B30184695
:103CF000FFF7BEFF03468DF80A309DF80A30002B0F
:103D000002D0039B013303939DF80B3001338DF8F0
:103D10000B309DF80B30019A9A42E6D20199039834
:103D20002DF034FA03468DF80A309DF80A30184613
:103D300005B05DF804FB000084B003468DF8073041
:103D40000A4B03939DF80730002B02D0012B03D0C0
:103D500005E0074B039305E0064B039302E0034B9A
:103D6000039300BF039B184604B0704714EE060887
:103D700018EE060824EE060800B587B001238DF87A
:103D800017300120FFF71AFC0490049B002B00F071
:103D90008280FFF7C5FD03468DF80F30049B1B6B37
:103DA0001A46404933201AF017F8FFF7F4FC03468F
:103DB00018463BF059F803461A463B4933201AF09F
:103DC0000BF89DF80F301846FFF7B6FF03461A466A
:103DD000364933201AF000F80120FFF765FC02464F
:103DE0000B463349332019F0F7FFFFF7B7FD0346C1
:103DF0001A463049332019F0EFFF049BDB681A465E
:103E00002D49332019F0E8FFFFF7F2FD0290012061
:103E1000FFF7BEFDCDE90001DDE90023274933208E
:103E200019F0DAFF029A2649332019F0D5FF049BD6
:103E30001B691A462349332019F0CEFF049BD3E9AE
:103E400006232149332019F0C7FF029B07EE903A61
:103E5000F8EE677A9FED1D7AC7EE876A16EE900A34
:103E6000FCF752FA02460B461949332019F0B4FF09
:103E7000029B07EE903AF8EE677A9FED167AC7EE4E
:103E8000876A16EE900AFCF73FFA02460B46124983
:103E9000332019F0A1FF9DF81730184607B05DF8E0
:103EA00004FB00BF30EE060844EE060850EE06089C
:103EB0005CEE060864EE06086CEE060874EE060872
:103EC00088EE06089CEE0608B0EE060800007A446C
:103ED000C8EE060800606A47DCEE060800B585B04B
:103EE0000390039B002B34D01C491D4851F092F8DD
:103EF000039B5B7900931A4B1A4AFA21184850F039
:103F000031FF039BDB680093154B174AFA211448D5
:103F100050F028FF039B1B680093114B134AFA21B2
:103F20000F4850F01FFF039B1B7918463AF09CFF87
:103F3000034600930A4B0E4AFA21094850F012FF3B
:103F4000039B9B680093064B0A4AFA21044850F0F1
:103F500009FF034B184605B05DF804FBF0EE0608B8
:103F6000448C0020F4EE0608FCEE06080CEF060870
:103F70001CEF060828EF060800B585B001900091F7
:103F800000238DF80F3000230293019B002B17DDD7
:103F9000009B1B6802AA1146184615F081FF0346D4
:103FA0008DF80F309DF80F3083F00103DBB2002B4A
:103FB00006D0009B1B681A461049332019F083FF76
:103FC0009DF80F30002B0ED0029B1846FFF753FCD4
:103FD00003468DF80F309DF80F30094A19463320FB
:103FE00019F0D6FF03E00749332019F06CFF9DF864
:103FF0000F30184605B05DF804FB00BF34EF06082B
:1040000050EF060858EF060800B585B00190009102
:1040100000238DF80F30019B002B02D101238DF876
:104020000F309DF80F30002B0CD0FFF7A5FE034694
:104030008DF80F309DF80F30074A1946332019F0DC
:10404000A7FF03E00549332019F03DFF9DF80F302D
:10405000184605B05DF804FB68EF060870EF060827
:1040600000B585B00190009100238DF80F30019BC1
:10407000002B0CD113F000FD03468DF80F309DF896
:104080000F30084A1946332019F082FF03E0064931
:10409000332019F018FF9DF80F30184605B05DF871
:1040A00004FB00BF7CEF060884EF060800B585B06E
:1040B0000190009100238DF80F30019B002B0CD153
:1040C000FFF7ACFB03468DF80F309DF80F30084A20
:1040D0001946332019F05CFF03E00649332019F03C
:1040E000F2FE9DF80F30184605B05DF804FB00BFE6
:1040F00090EF060898EF060800B585B00190009192
:1041000000238DF80F3000238DF80E30019B002B1B
:1041100011DD009B1B680DF10E021146184616F0CA
:104120004FFA03468DF80F309DF80F30114A1946AB
:10413000332019F02DFF9DF80F30002B0FD09DF884
:104140000E301846FFF776FC03468DF80F309DF8C9
:104150000F30094A1946332019F01AFF03E00749C6
:10416000332019F0B0FE9DF80F30184605B05DF809
:1041700004FB00BFA4EF0608ACEF0608B4EF060886
:1041800010B584B00190009100238DF80F30022308
:104190008DF80E30019B002B11DD009B1B680DF18B
:1041A0000E021146184616F046F903468DF80F30F8
:1041B0009DF80F30164A1946332019F0E9FE9DF894
:1041C0000F30002B1AD09DF80E301846FFF781FBF8
:1041D00003468DF80F309DF80F30184619F0E0FBBC
:1041E00003461C469DF80E301846FFF7A5FD034612
:1041F000084A3321204619F0ABFD03E0064933207D
:1042000019F061FE9DF80F30184604B010BD00BFD4
:10421000C8EF0608D0EF0608E0EF060800B585B045
:104220000190009100238DF80F30019B002B02D1EB
:1042300001238DF80F309DF80F30002B0CD0FFF7C5
:104240003EFD03468DF80F309DF80F30074A1946A2
:10425000332019F09DFE03E00549332019F033FEA9
:104260009DF80F30184605B05DF804FBF4EF060822
:10427000FCEF060800B587B003468DF80730002331
:104280000593002304933BF0BAFB039000230493AF
:104290001AE0124A049B9B0113440C331B789DF8CF
:1042A00007209A420DD10D4A049B9B0113440D3304
:1042B0001B78002B05D0049B9B01084A13440593EF
:1042C00006E0049B01330493049A039B9A42E0D3D3
:1042D000059B184607B05DF804FB00BF5866002038
:1042E00000B587B003468DF80730002305930023FF
:1042F00004933BF084FB0390002304931AE0134AD9
:10430000049B1B0113440C331B789DF807209A4231
:104310000DD10E4A049B1B0113440D331B78002B57
:104320000DD0049B1B01094A1344059307E0049B2D
:1043300001330493049A039B9A42E0D300E000BF48
:10434000059B184607B05DF804FB00BF8C350808D4
:1043500000B585B0019000238DF80F30019B002B34
:1043600026D001238DF80F30019B5B68002B06D10E
:10437000019B1B7B1A4611493D2019F0A4FD019BAE
:104380001B68002B09D1019B1B7B1A460C493D2061
:1043900019F099FD00238DF80F30019B9B68002BCD
:1043A00006D1019B1B7B1A4606493D2019F08BFD67
:1043B0009DF80F30184605B05DF804FB08F00608BC
:1043C00018F0060828F0060800B583B000238DF821
:1043D0000730054A05493D2019F0FEFC9DF80730DD
:1043E000184603B05DF804FB3CF0060840F00608F0
:1043F00084B00190009100238DF80F30019B002BB9
:1044000018D0009B002B15D0019B5A68009B5A6066
:10441000019B1A68009B1A60019B1A7B009B1A7310
:10442000019B9A68009B9A60009B01225A730123AA
:104430008DF80F309DF80F30184604B070472DE905
:10444000F04387B003468DF807304FF000024FF07D
:104450000003CDE904239DF807301846FFF70AFF53
:104460000390039B002B2FD0FDF794FD039B1B684B
:104470005A68039B9A63039B9A6B039BDB6B9A427C
:1044800008D2039BD3E90C2303F101099046039B57
:10449000C3E90C89039B9A6B039BDA63FDF792FDDA
:1044A000039BD3E90C230399896B00200C46054636
:1044B00042EA040643EA0507039BC3E90A67039B34
:1044C000D3E90A23CDE90423DDE904231046194684
:1044D00007B0BDE8F08300B589B003468DF807301A
:1044E0004FF000024FF00003CDE906239DF807309E
:1044F0001846FFF7BFFE0590059B002B11D09DF8D5
:1045000007301846FFF79BFFCDE90201059BD3E971
:104510000623DDE90201FCF7F5FB02460B46CDE977
:104520000623DDE906231046194609B05DF804FBB1
:1045300000B587B003468DF80730002305939DF83A
:1045400007301846FFF796FE0490049B002B11D00D
:104550009DF807301846FFF772FFCDE90201049B72
:10456000D3E90823DDE90201FCF7CCFB02460B4648
:1045700013460593059B184607B05DF804FB000041
:1045800000B585B003468DF8073000238DF80F3055
:104590009DF807301A460E493D2019F03AFC9DF867
:1045A00007301846FFF766FE0290029B002B09D0E9
:1045B000029B1B695A1C029B1A619DF80730184622
:1045C000FFF73DFF9DF80F30184605B05DF804FB7E
:1045D0004CF0060884B0019000238DF80F30019B49
:1045E000002B31D0019B01225A73019B01225A7387
:1045F000019B1B6800225A6001994FF000024FF0A6
:104600000003C1E90C23019B0022DA6301994FF0FA
:1046100000024FF00003C1E90623019B00229A63C8
:1046200001994FF000024FF00003C1E908230199FE
:104630004FF000024FF00003C1E90A23019B002262
:104640001A6101238DF80F309DF80F30184604B021
:1046500070470000F0B587B003468DF8073000239F
:104660008DF817309DF807301A4642493D2019F061
:1046700096FB9DF807301846FFF732FE0490049B26
:10468000002B6BD00498FFF763FE03468DF81730BC
:104690009DF81730002B59D09DF807301846FFF7CA
:1046A000E9FD0390039B002B48D003990498FFF782
:1046B0009FFE03468DF817300398FFF78BFF0346E4
:1046C0008DF817302C4BDB682B4A43F08073D36096
:1046D000039B1B6800225A600BF034FD0246039BCB
:1046E0009A60039B9B68254AA2FB03239B0C002234
:1046F0001E461746039BC3E90667039B9B68204A37
:10470000A2FB03239B0900221C461546039BC3E919
:104710000845039B1B681B6802939DF8083043F013
:1047200001038DF80830039B1B68029A1A60039BF3
:1047300001225A73039B01229A7316E09DF80730F9
:104740001A4610493D2019F0BEFB0EE09DF80730D7
:104750001A460D493D2019F0B6FB06E09DF80730DA
:104760001A4609493D2019F054FB9DF817301846A8
:1047700007B0F0BD58F00608F0ED00E083DE1B4303
:10478000D34D621060F006086CF0060800B585B0E5
:1047900001238DF80A30FFF717FE03468DF80A3023
:1047A000002303933BF02BF9019000238DF80B308D
:1047B00000238DF80B3013E09DF80B301846FFF7FF
:1047C00049FF03468DF80A309DF80A30002B02D0CD
:1047D000039B013303939DF80B3001338DF80B30AD
:1047E0009DF80B30019A9A42E6D2019903982CF079
:1047F000CDFC03468DF80A309DF80A30184605B006
:104800005DF804FB00B585B000238DF80F30002360
:1048100002933BF0F4F800900023019300230193EE
:1048200011E0019BDBB21846FFF7AAFE03468DF8A4
:104830000F309DF80F30194602982CF095FC02902D
:10484000019B01330193019A009B9A42E9D9029B93
:10485000002B03D001238DF80F3002E000238DF8E8
:104860000F309DF80F30184605B05DF804FB0000CE
:1048700000B5B7B000238DF8D730444B1B68243304
:1048800008224349184619F0E7FD3BF0A3F834909D
:1048900000238DF8D63000238DF8D63063E09DF8E4
:1048A000D6301846FCF70AFF3390339B002B55D0C7
:1048B000339B9A68339BDB68D31A329300230093AF
:1048C00001ABC4220021184650F01EF96B46314955
:1048D000184650F09FFB339B1B796A4668462E4969
:1048E00050F084FA339B1B686A4668462B4950F0A7
:1048F0007DFA339B9B686A466846294950F076FAF0
:10490000339BDB686A466846254950F06FFA6A4671
:104910006846329B234950F069FA339B5B7C6A46B8
:104920006846214950F062FA339B1833184622F04A
:1049300055FA03466A4668461C4950F057FA339BBD
:104940005B696A466846184950F050FA6B4619464A
:1049500017481AF0B5F801238DF8D7309DF8D630F6
:1049600001338DF8D6309DF8D630349A9A4296D2DB
:10497000064B1B68243308220549184619F094FC9D
:104980009DF8D730184637B05DF804FB046200206C
:104990006CF50708ECF00608F0F00608FCF00608D5
:1049A00008F1060814F1060820F106082CF10608A3
:1049B00038F1060800B585B00390039B002B27D083
:1049C0001649174850F026FB039B1B790093144BA4
:1049D000144AFA21124850F0C5F9039B9B680093D2
:1049E0000F4B114AFA210E4850F0BCF9039BDB68CB
:1049F00000930B4B0D4AFA21094850F0B3F9039B81
:104A00001B680093064B0A4AFA21054850F0AAF9A0
:104A1000034B184605B05DF804FB00BF78F10608AB
:104A2000448C00207CF1060884F1060898F1060801
:104A3000ACF1060800B589B003468DF80F300023AD
:104A40008DF81F309DF80F301846FCF737FE0690A2
:104A5000069B002B1BD0069B9A68069BDB68D31A2B
:104A60009B0805939DF80F20069BD968059B009332
:104A70000B460A490A2019F0AFF9069BDB6804933C
:104A80000599049814F012FB03468DF81F309DF829
:104A90001F30184609B05DF804FB00BFE0F10608BE
:104AA00000B587B0019000230393019A12490120B9
:104AB00019F075F90023059300230493002305934F
:104AC0000023049310E0019A059B13440393039B76
:104AD0001B68039A0499094819F0F2FF059B0433F7
:104AE0000593049B01330493059BD42BEBD901233D
:104AF000184607B05DF804FB08F2060820F2060825
:104B000000B589B00390029100238DF81F30002377
:104B10000593039B002B09DD029B1B6805AA114628
:104B2000184615F0BDF903468DF81F309DF81F306B
:104B3000002B13D0059B1A460B490A2019F04CF99B
:104B4000059B1846FDF7E8F80690059A069B9B0A18
:104B50000093069B05490A2019F03EF99DF81F3085
:104B6000184609B05DF804FB90F206089CF20608AE
:104B700000B585B00190009100238DF80F30FFF74C
:104B800077FE03468DF80F309DF80F30002B03D1D0
:104B900004490A2019F097F99DF80F30184605B01E
:104BA0005DF804FBB4F2060800B585B001900091F1
:104BB00000238DF80F30019B002B02D101238DF8CB
:104BC0000F309DF80F30002B05D0FCF75DFE03463B
:104BD0008DF80F3003E005490A2019F074F99DF8AB
:104BE0000F30184605B05DF804FB00BFC0F20608A0
:104BF00000B585B00190009100238DF80B300023A3
:104C000003936B461A4603990198FCF71DFE034671
:104C10008DF80B309DF80B30002B06D0009B1A4608
:104C20000399064819F04CFF03E005490A2019F0E2
:104C30004AF9039B01330393E3E700BFD0F2060870
:104C4000ECF2060800B587B00190009100238DF8C2
:104C5000173000201DF084FC04900499224819F0BC
:104C60002FFF00230393019B002B09DD009B1B6892
:104C700003AA1146184615F013F903468DF81730AC
:104C800000230293019B002B07D1029B1946049835
:104C9000FFF7AEFF03468DF817309DF81730002B55
:104CA00018D0039B02AA19460498FCF7CDFD0346D1
:104CB0008DF817309DF81730002B06D0039A029B11
:104CC0000A490A2019F088F808E009490A2019F071
:104CD000FAF803E007490A2019F0F5F89DF81730B3
:104CE000184607B05DF804FBF4F206080CF306085A
:104CF000ECF206082CF3060800B587B0019000918D
:104D000000238DF8173000230393019B002B10DD47
:104D1000009B1B6803AA1146184615F0C1F803460C
:104D20008DF817309DF817301B4A19460A2019F0E4
:104D30007BF99DF81730002B23D0039B0493049834
:104D4000FCF7ACFF03468DF817309DF81730002BA9
:104D50000BD09DF8173018463AF0A8F80346049A8D
:104D60000E490A2019F038F80FE09DF81730184660
:104D70003AF09CF80346049A08490A2019F0A3F86F
:104D800003E007490A2019F09EF89DF817301846ED
:104D900007B05DF804FB00BF4CF3060854F30608A7
:104DA00064F3060800B585B00190009100238DF8EA
:104DB0000F3000238DF80E30019B002B11DD009B7E
:104DC0001B680DF10E021146184615F034FB034620
:104DD0008DF80F309DF80F30114A19460A2019F04E
:104DE00023F99DF80F30002B0FD09DF80E30184698
:104DF000FFF720FE03468DF80F309DF80F30094A6B
:104E000019460A2019F010F903E007490A2019F0A1
:104E10005AF89DF80F30184605B05DF804FB00BF46
:104E200078F3060880F306088CF3060800B587B00F
:104E300003468DF8073000230593002304933AF0CE
:104E4000F3FD03900023049323E0164A049B4FF4E0
:104E5000895101FB03F313440C331B789DF80720A1
:104E60009A4213D10F4A049B4FF4895101FB03F37B
:104E7000134410331B78002B08D0049B4FF4895245
:104E800002FB03F3074A1344059306E0049B013336
:104E90000493049A039B9A42D7D3059B184607B004
:104EA0005DF804FB9866002000B587B003468DF8D6
:104EB000073000230593002304933AF0B5FD0390D7
:104EC0000023049323E01749049A13469B001344DC
:104ED0009B000B440C331B789DF807209A4213D19A
:104EE0001049049A13469B0013449B000B44103353
:104EF0001B78002B10D0049A13469B0013449B0090
:104F0000084A1344059307E0049B01330493049A71
:104F1000039B9A42D7D300E000BF059B184607B019
:104F20005DF804FB9C35080800B585B001900023AE
:104F30008DF80F30019BDB7B18460FF009FC034610
:104F40008DF80F309DF80F30194A19463E2019F0A0
:104F50006BF8019BB83318464AF056FB03468DF8B0
:104F60000E309DF80E301349184627F041F90346DC
:104F70008DF80F309DF80F30002B07D0019B1233B6
:104F80001A460D493E2018F027FF06E0019B123318
:104F90001A460A493E2018F096FF019B012283F829
:104FA0007C209DF80F30184605B05DF804FB00BF6B
:104FB000A0F30608A4F30608B0F30608C4F3060835
:104FC00000B585B0019000238DF80F30019B002BB8
:104FD00049D001238DF80E3001238DF80F30019B4D
:104FE000DB7B184606F024FD03468DF80E309DF855
:104FF0000E3083F00103DBB2002B09D0019B1B7B39
:105000001A461C493E2018F05EFF00238DF80F3031
:10501000019B1B68B3F5007F09D8019B1B7B1A46D7
:1050200015493E2018F04FFF00238DF80F30019BEB
:105030005B68002B09D1019B1B7B1A460F493E2060
:1050400018F041FF00238DF80F30019B9B68002B67
:1050500009D1019B1B7B1A4609493E2018F033FFFA
:1050600000238DF80F309DF80F30184605B05DF81D
:1050700004FB00BFD8F30608F4F3060818F406088A
:1050800038F4060800B583B000238DF807300222FB
:1050900004493E2018F0A0FE9DF80730184603B0E2
:1050A0005DF804FB50F4060800B589B00390029146
:1050B000019200238DF81F30039BD3F8B020039B8F
:1050C000D3F8AC309A4244D2019B5B000693002394
:1050D0000493039B03F1B800039B5A68029B5B0097
:1050E000D11804AB069A49F00DFE03468DF817302F
:1050F0009DF81730002B20D1049B069A9A420BD1C1
:10510000039BD3F8B020049B1A44039BC3F8B02040
:1051100001238DF81F3022E0049B002B06D1039859
:10512000FFF702FF03468DF81F3018E0049B1A4674
:105130000E493E2018F0C7FE11E0039B03F5805393
:10514000D3F810310133039A02F58052C2F81031BE
:1051500005E00398FFF7E8FE03468DF81F309DF841
:105160001F30184609B05DF804FB00BF5CF4060868
:1051700000B585B0019000238DF80F304FF48062A8
:1051800000210198FFF790FF03468DF80F309DF83E
:105190000F30184605B05DF804FB00B585B00190EE
:1051A00000238DF80F304FF480624FF48061019836
:1051B000FFF77AFF03468DF80F309DF80F30184641
:1051C00005B05DF804FB00B585B0019000238DF8B3
:1051D0000F304FF4006200210198FFF765FF03468E
:1051E0008DF80F309DF80F30184605B05DF804FBC0
:1051F00000B585B0019000238DF80F30019B9B6FA7
:10520000002B36D0019B9B6F93F8CE31DBB2002B85
:105210000ED0019B9B6F002283F8CE21019B0322BD
:1052200083F87C200198FFF7A3FF03468DF80F3029
:10523000019B9B6F93F8CF31DBB2002B19D0019B00
:105240009B6F002283F8CF21019B022283F87C20F0
:105250000198FFF7A2FF03468DF80F30019B03F57D
:105260008053D3F814310133019A02F58052C2F809
:105270001431019BD3F8AC20019BD3F8B0309A4293
:105280000DD80198FFF750FE03468DF80F309DF8BA
:105290000F30002B03D0019B012283F87C209DF866
:1052A0000F30184605B05DF804FB00B585B00190DD
:1052B00000238DF80F30019B9B6F002B36D0019B94
:1052C0009B6F93F8CE31DBB2002B19D0019B9B6F03
:1052D000002283F8CE21019B032283F87C200198D1
:1052E000FFF746FF03468DF80F30019B03F580530F
:1052F000D3F814310133019A02F58052C2F8143107
:10530000019B9B6F93F8CF31DBB2002B0ED0019B3A
:105310009B6F002283F8CF21019B022283F87C201F
:105320000198FFF73AFF03468DF80F30019BD3F841
:10533000AC20019BD3F8B0309A420DD80198FFF70A
:10534000F3FD03468DF80F309DF80F30002B03D08E
:10535000019B012283F87C209DF80F30184605B090
:105360005DF804FB84B0019000238DF80F309DF8A8
:105370000F30184604B0704784B0019000910023AC
:105380008DF80F30019B002B1DD0009B002B1AD0F5
:10539000019BDA7B009BDA73019B5A68009B5A6081
:1053A000019B5A7B009B5A73019B9A7B009B9A73CB
:1053B000019B1A68009B1A60019B9A68009B9A6087
:1053C00001238DF80F309DF80F30184604B0704758
:1053D00000B585B0019000238DF80F30019B002BA4
:1053E00018D0019B03F580531A460023C2F81831E8
:1053F000019B01221A74019BDB7B184605F014FE09
:105400000246019B9A67019B9B6F002B02D00123F0
:105410008DF80F309DF80F30184605B05DF804FB8D
:1054200000B587B0034600918DF8073000238DF852
:1054300017309DF807301846FFF7F8FC0490049BDE
:10544000002B00F09D80049B0022C3F8B0200123B4
:105450008DF80F30049BB8339DF80F200099184643
:1054600049F0C4F903468DF80E309DF80E304749D7
:10547000184626F0BDFE03468DF817309DF817300C
:10548000002B7AD0049B1233009918464FF0C2FDCE
:1054900000238DF81730049BD3E93223049BC3F813
:1054A000AC2000230293049B03F1B800049B03F19A
:1054B0007D0102AB2C2249F025FC03468DF80E300D
:1054C0009DF80E303249184626F092FE03468DF8BC
:1054D00017309DF81730002B4FD0049BD3F8B03015
:1054E00003F12C02049BC3F8B02000238DF8173081
:1054F000029B2C2B41D1049B7D33184629F028FDBB
:1055000003461A4623491E2018F066FC049BDA7BEA
:10551000049BD3F89530194610460EF04FFE034613
:105520008DF817309DF81730002B26D00498FFF720
:105530004AFE03468DF817309DF80E30164918467E
:1055400026F056FE03468DF817309DF81730002BD5
:1055500013D0049BD87B049B5968049B1B681A4694
:105560000EF036FB03468DF817309DF81730002BF0
:1055700003D0049B022283F87C2001238DF817308E
:105580009DF81730184607B05DF804FB74F4060860
:105590007CF4060888F4060898F4060800B585B07F
:1055A00003468DF8073000238DF80F309DF8073043
:1055B0001A4621493E2018F02CFC9DF80730184669
:1055C000FFF734FC0290029B002B2FD0029B93F834
:1055D0007C30032B14D0032B19DC012B02D0022BBF
:1055E00007D014E00298FFF7BDFE03468DF80F3098
:1055F00011E00298FFF7FCFD03468DF80F300AE03A
:105600000298FFF752FE03468DF80F3003E00023A7
:105610008DF80F3000BF029B03F58053D3F818318B
:105620000133029A02F58052C2F818319DF80F300A
:10563000184605B05DF804FBA4F4060800B587B071
:1056400003468DF8073000238DF817309DF807309A
:105650001A4626493E2018F0A2FB9DF8073018464E
:10566000FFF722FC04900498FFF7AAFC03468DF88C
:1056700017309DF81730002B2AD0049835F0CAFC5B
:1056800003461A461A493E2018F089FB9DF8073058
:105690001846FFF7CBFB0390039B002B10D0039918
:1056A0000498FFF769FE03468DF817300398FFF75B
:1056B0008FFE03468DF81730039B01225A740EE0CB
:1056C0009DF807301A460B493E2018F0FCFB06E017
:1056D0009DF807301A4608493E2018F09AFB9DF8BD
:1056E0001730184607B05DF804FB00BFB8F4060891
:1056F000C8F40608CCF40608D8F4060800B585B04E
:1057000001238DF80A30FFF7BDFC03468DF80A30FF
:10571000002303933AF088F9019000238DF80B30B1
:1057200000238DF80B3013E09DF80B301846FFF77F
:1057300085FF03468DF80A309DF80A30002B02D011
:10574000039B013303939DF80B3001338DF80B302D
:105750009DF80B30019A9A42E6D2019903982BF0FA
:1057600015FD03468DF80A309DF80A30184605B03D
:105770005DF804FB00B585B000238DF80F300023E1
:1057800002933AF051F90090002301930023019312
:1057900011E0019BDBB21846FFF700FF03468DF8CE
:1057A0000F309DF80F30194602982BF0DDFC029067
:1057B000019B01330193019A009B9A42E9D9029B14
:1057C000002B03D001238DF80F3002E000238DF869
:1057D0000F309DF80F30184605B05DF804FB00004F
:1057E00000B5CFB04EABA3F59A7318604EABA3F5DE
:1057F0009C73196000238DF8373101238DF8363101
:105800004EABA3F5987300221A6004334FF49472E0
:10581000002118464FF078F94EABA3F59A731B6838
:10582000002B14DD4EABA3F59C731B681B680DF5B4
:105830009B721146184614F0FEFD03468DF8373171
:105840009DF837311E4A19463E2018F0EDFB4EAB4D
:10585000A3F59A731B68012B12DD4EABA3F59C7365
:105860001B680433196802AB4FF4967218464FF068
:105870006FFC0346002B14BF012300238DF8373142
:105880009DF83731002B11D09DF8363102AA114610
:105890001846FFF7C5FD03468DF837319DF83731BF
:1058A000084A19463E2018F0BFFB03E006493E2097
:1058B00018F009FB9DF8373118464FB05DF804FB2E
:1058C000E8F40608ECF40608F8F4060800B585B01C
:1058D0000190009100238DF80F3000238DF80E30D9
:1058E000019B002B02DB01238DF80F30019B002B65
:1058F00011DD009B1B680DF10E021146184614F0D5
:105900009AFD03468DF80F309DF80F30174A19465F
