:020000040800F2
:1000000000C00120497205088D9D0108FF9F01086D
:1000100001A0010803A0010805A0010800000000DC
:1000200000000000000000000000000007A0010820
:100030000FA00108000000000BA0010821A001088A
:100040001DA00108FB9F0108DF9F0108E39F010835
:10005000D79F0108939D0108AFA00108B3A0010834
:10006000B7A00108BBA00108BFA00108FF9E0108BE
:10007000979D0108BB9D0108DF9D0108039E0108B3
:10008000279E01084B9E0108899D01089972050869
:10009000997205089972050899720508C3A00108AC
:1000A0003BA10108CFA00108DBA00108E7A00108DF
:1000B000F3A00108FFA001080BA101084BA1010852
:1000C00047A1010853A101084FA1010811A001088F
:1000D00015A001085FA0010881A0010885A0010802
:1000E000C7A0010863A10108F79F01082FA101081B
:1000F0002BA1010837A1010833A101086F9E010857
:100100008F9D01082FA0010817A1010819A001085F
:100110009972050889A0010823A1010827A10108F7
:10012000939E0108B79E0108DB9E0108479F0108C6
:10013000239F0108997205089972050899720508AC
:1001400099720508997205089972050867A1010856
:100150006B9F01088F9F0108B39F01088DA00108C4
:1001600057A101085BA101086BA10108CBA0010800
:10017000997205086FA10108997205080000000036
:100180005FA10108DB9F0108FFFFFFFFFFFFFFFFEB
:10019000FFFFFFFFFFFFFFFFFFFFFFFFFFFFFFFF6F
:1001A000FFFFFFFFFFFFFFFFFFFFFFFFFFFFFFFF5F
:1001B000FFFFFFFFFFFFFFFFFFFFFFFFFFFFFFFF4F
:1001C000FFFFFFFFFFFFFFFFFFFFFFFFFFFFFFFF3F
:020000040801F1
:1000000010B5054C237833B9044B13B10448AFF352
:1000100000800123237010BDE05500200000000087
:10002000F858060808B5034B1BB103490348AFF362
:10003000008008BD00000000E4550020F8580608C4
:1000400081F0004102E000BF83F0004330B54FEA89
:1000500041044FEA430594EA050F08BF90EA020FF6
:100060001FBF54EA000C55EA020C7FEA645C7FEA89
:10007000655C00F0E2804FEA5454D4EB5555B8BFAC
:100080006D420CDD2C4480EA020281EA030382EA1D
:10009000000083EA010180EA020281EA0303362DAF
:1000A00088BF30BD11F0004F4FEA01314FF4801C82
:1000B0004CEA113102D0404261EB410113F0004F94
:1000C0004FEA03334CEA133302D0524263EB43034B
:1000D00094EA050F00F0A780A4F10104D5F1200EE9
:1000E0000DDB02FA0EFC22FA05F2801841F1000144
:1000F00003FA0EF2801843FA05F359410EE0A5F118
:1001000020050EF1200E012A03FA0EFC28BF4CF048
:10011000020C43FA05F3C01851EBE37101F00045FE
:1001200007D54FF0000EDCF1000C7EEB00006EEB0B
:100130000101B1F5801F1BD3B1F5001F0CD3490895
:100140005FEA30004FEA3C0C04F101044FEA4452EC
:1001500012F5800F80F09A80BCF1004F08BF5FEA73
:10016000500C50F1000041EB045141EA050130BD53
:100170005FEA4C0C404141EB0101013C28BFB1F565
:10018000801FE9D291F0000F04BF01460020B1FAB0
:1001900081F308BF2033A3F10B03B3F120020CDA83
:1001A0000C3208DD02F1140CC2F10C0201FA0CF061
:1001B00021FA02F10CE002F11402D8BFC2F1200CC6
:1001C00001FA02F120FA0CFCDCBF41EA0C0190407C
:1001D000E41AA2BF01EB0451294330BD6FEA0404C5
:1001E0001F3C1CDA0C340EDC04F11404C4F12002B0
:1001F00020FA04F001FA02F340EA030021FA04F3C2
:1002000045EA030130BDC4F10C04C4F1200220FA18
:1002100002F001FA04F340EA0300294630BD21FA56
:1002200004F0294630BD94F0000F83F4801306BF1C
:1002300081F480110134013D4EE77FEA645C18BF10
:100240007FEA655C29D094EA050F08BF90EA020FA7
:1002500005D054EA000C04BF1946104630BD91EA9F
:10026000030F1EBF0021002030BD5FEA545C05D1A2
:100270004000494128BF41F0004130BD14F58004E1
:100280003CBF01F5801130BD01F0004545F0FE4155
:1002900041F470014FF0000030BD7FEA645C1ABF8A
:1002A000194610467FEA655C1CBF0B46024650EAC1
:1002B000013406BF52EA033591EA030F41F40021ED
:1002C00030BD00BF90F0000F04BF0021704730B573
:1002D0004FF4806404F132044FF000054FF0000148
:1002E00050E700BF90F0000F04BF0021704730B509
:1002F0004FF4806404F1320410F0004548BF4042DE
:100300004FF000013EE700BF42004FEAE2014FEA32
:1003100031014FEA02701FBF12F07F4393F07F4F0D
:1003200081F06051704732F07F4208BF704793F010
:100330007F4F04BF41F40021704730B54FF4607423
:1003400001F0004521F000411CE700BF50EA010226
:1003500008BF704730B54FF000050AE050EA0102CF
:1003600008BF704730B511F0004502D5404261EB3F
:1003700041014FF4806404F132045FEA915C3FF480
:10038000D8AE4FF003025FEADC0C18BF03325FEA1D
:10039000DC0C18BF033202EBDC02C2F1200300FACE
:1003A00003FC20FA02F001FA03FE40EA0E0021FAF3
:1003B00002F11444BDE600BF70B54FF0FF0C4CF4E1
:1003C000E06C1CEA11541DBF1CEA135594EA0C0F93
:1003D00095EA0C0F00F0DEF82C4481EA030621EACE
:1003E0004C5123EA4C5350EA013518BF52EA033509
:1003F00041F4801143F4801338D0A0FB02CE4FF0BB
:100400000005E1FB02E506F00042E0FB03E54FF0EA
:100410000006E1FB03569CF0000F18BF4EF0010EE2
:10042000A4F1FF04B6F5007F64F5407404D25FEADE
:100430004E0E6D4146EB060642EAC62141EA555191
:100440004FEAC52040EA5E504FEACE2EB4F1FD0CD3
:1004500088BFBCF5E06F1ED8BEF1004F08BF5FEA51
:10046000500E50F1000041EB045170BD06F0004603
:1004700046EA010140EA020081EA0301B4EB5C04B0
:10048000C2BFD4EB0C0541EA045170BD41F48011A8
:100490004FF0000E013C00F3AB8014F1360FDEBFCD
:1004A000002001F0004170BDC4F10004203C35DAA9
:1004B0000C341BDC04F11404C4F1200500FA05F32C
:1004C00020FA04F001FA05F240EA020001F00042CD
:1004D00021F0004110EBD37021FA04F642EB060143
:1004E0005EEA430E08BF20EAD37070BDC4F10C046D
:1004F000C4F1200500FA04F320FA05F001FA04F231
:1005000040EA020001F0004110EBD37041F100011C
:100510005EEA430E08BF20EAD37070BDC4F1200527
:1005200000FA05F24EEA020E20FA04F301FA05F28F
:1005300043EA020321FA04F001F0004121FA04F237
:1005400020EA020000EBD3705EEA430E08BF20EA07
:10055000D37070BD94F0000F0FD101F00046400041
:1005600041EB010111F4801F08BF013CF7D041EAC3
:10057000060195F0000F18BF704703F000465200C7
:1005800043EB030313F4801F08BF013DF7D043EA98
:100590000603704794EA0C0F0CEA135518BF95EA4E
:1005A0000C0F0CD050EA410618BF52EA4306D1D1D5
:1005B00081EA030101F000414FF0000070BD50EAF4
:1005C000410606BF1046194652EA430619D094EA7E
:1005D0000C0F02D150EA013613D195EA0C0F05D168
:1005E00052EA03361CBF104619460AD181EA0301BC
:1005F00001F0004141F0FE4141F470014FF0000074
:1006000070BD41F0FE4141F4780170BD70B54FF00E
:10061000FF0C4CF4E06C1CEA11541DBF1CEA13558E
:1006200094EA0C0F95EA0C0F00F0A7F8A4EB050470
:1006300081EA030E52EA03354FEA013100F0888067
:100640004FEA03334FF0805545EA131343EA126330
:100650004FEA022245EA111545EA10654FEA0026E5
:100660000EF000419D4208BF964244F1FD0404F59E
:10067000407402D25B084FEA3202B61A65EB0305FA
:100680005B084FEA32024FF480104FF4002CB6EBB7
:10069000020E75EB030E22BFB61A754640EA0C0037
:1006A0005B084FEA3202B6EB020E75EB030E22BF77
:1006B000B61A754640EA5C005B084FEA3202B6EBB8
:1006C000020E75EB030E22BFB61A754640EA9C0077
:1006D0005B084FEA3202B6EB020E75EB030E22BF47
:1006E000B61A754640EADC0055EA060E18D04FEA05
:1006F000051545EA16754FEA06164FEAC30343EAA5
:1007000052734FEAC2025FEA1C1CC0D111F4801F71
:100710000BD141EA00014FF000004FF0004CB6E76A
:1007200011F4801F04BF01430020B4F1FD0C88BF09
:10073000BCF5E06F3FF6AFAEB5EB030C04BFB6EB14
:10074000020C5FEA500C50F1000041EB045170BD07
:100750000EF0004E4EEA113114EB5C04C2BFD4EB34
:100760000C0541EA045170BD41F480114FF0000EB8
:10077000013C90E645EA060E8DE60CEA135594EA34
:100780000C0F08BF95EA0C0F3FF43BAF94EA0C0F37
:100790000AD150EA01347FF434AF95EA0C0F7FF4AC
:1007A00025AF104619462CE795EA0C0F06D152EA00
:1007B00003353FF4FDAE1046194622E750EA4106E4
:1007C00018BF52EA43067FF4C5AE50EA41047FF4F5
:1007D0000DAF52EA43057FF4EBAE12E74FF0FF3C5A
:1007E00006E000BF4FF0010C02E000BF4FF0010C2B
:1007F0004DF804CD4FEA410C7FEA6C5C4FEA430CA4
:1008000018BF7FEA6C5C1BD001B050EA410C0CBFF2
:1008100052EA430C91EA030F02BF90EA020F002054
:10082000704710F1000F91EA030F58BF994208BFBB
:1008300090422CBFD8176FEAE37040F00100704778
:100840004FEA410C7FEA6C5C02D150EA013C07D1CF
:100850004FEA430C7FEA6C5CD6D152EA033CD3D01A
:100860005DF8040B704700BF8446104662468C4614
:100870001946634600E000BF01B5FFF7B7FF002847
:1008800048BF10F1000F01BD4DF808EDFFF7F4FF70
:100890000CBF012000205DF808FB00BF4DF808EDFB
:1008A000FFF7EAFF34BF012000205DF808FB00BF1E
:1008B0004DF808EDFFF7E0FF94BF012000205DF840
:1008C00008FB00BF4DF808EDFFF7CEFF94BF0120F5
:1008D00000205DF808FB00BF4DF808EDFFF7C4FFEE
:1008E00034BF012000205DF808FB00BF4FEA410C37
:1008F0007FEA6C5C02D150EA013C0AD14FEA430C1A
:100900007FEA6C5C02D152EA033C02D14FF0000056
:1009100070474FF0010070474FEA410212F5001294
:1009200015D211D56FF47873B3EB625212D94FEA36
:10093000C12343F0004343EA505311F0004F23FA20
:1009400002F018BF404270474FF00000704750EA75
:10095000013005D111F0004008BF6FF00040704732
:100960004FF00000704700BF4A0011D212F500128C
:1009700011D20DD56FF47873B3EB62520ED44FEAF7
:10098000C12343F0004343EA505323FA02F0704777
:100990004FF00000704750EA013002D14FF0FF30B5
:1009A00070474FF0000070474FEA4102B2F1E04358
:1009B00024BFB3F5001CDCF1FE5C0DD901F0004C46
:1009C0004FEAC0024CEA5070B2F1004F40EB830096
:1009D00008BF20F00100704711F0804F21D113F1C2
:1009E0003872BCBF01F00040704741F480114FEAFB
:1009F0005252C2F11802C2F1200C10FA0CF320FA84
:100A000002F018BF40F001004FEAC1234FEAD323A0
:100A100003FA0CFC40EA0C0023FA02F34FEA43030A
:100A2000CCE77FEA625307D150EA01331EBF4FF093
:100A3000FE4040F44000704701F0004040F0FE40AE
:100A400040F40000704700BF80F0004002E000BFAB
:100A500081F0004142001FBF5FEA410392EA030FA9
:100A60007FEA226C7FEA236C6AD04FEA1262D2EBF3
:100A70001363C1BFD218414048404140B8BF5B42F8
:100A8000192B88BF704710F0004F40F4000020F091
:100A90007F4018BF404211F0004F41F4000121F0A7
:100AA0007F4118BF494292EA030F3FD0A2F10102F1
:100AB00041FA03FC10EB0C00C3F1200301FA03F12F
:100AC00000F0004302D5494260EB4000B0F5000F52
:100AD00013D3B0F1807F06D340084FEA310102F111
:100AE0000102FE2A51D2B1F1004F40EBC25008BFC3
:100AF00020F0010040EA03007047490040EB00008D
:100B0000013A28BFB0F5000FEDD2B0FA80FCACF18D
:100B1000080CB2EB0C0200FA0CF0AABF00EBC250BA
:100B200052421843BCBFD0401843704792F0000FA8
:100B300081F4000106BF80F400000132013BB5E7FB
:100B40004FEA41037FEA226C18BF7FEA236C21D071
:100B500092EA030F04D092F0000F08BF08467047D6
:100B600090EA010F1CBF0020704712F07F4F04D1A4
:100B7000400028BF40F00040704712F100723CBFB7
:100B800000F50000704700F0004343F0FE4040F4E1
:100B9000000070477FEA226216BF08467FEA23639F
:100BA0000146420206BF5FEA412390EA010F40F48A
:100BB000800070474FF0000304E000BF10F00043D6
:100BC00048BF40425FEA000C08BF704743F09643BD
:100BD00001464FF000001CE050EA010208BF7047D8
:100BE0004FF000030AE000BF50EA010208BF70475F
:100BF00011F0004302D5404261EB41015FEA010C74
:100C000002BF84460146002043F0B64308BFA3F16B
:100C10008053A3F50003BCFA8CF2083AA3EBC2534D
:100C200010DB01FA02FC634400FA02FCC2F120026C
:100C3000BCF1004F20FA02F243EB020008BF20F0A3
:100C40000100704702F1200201FA02FCC2F1200209
:100C500050EA4C0021FA02F243EB020008BF20EAFE
:100C6000DC7070477BB972B90029BEBF00204FF01D
:100C7000004106E008BF00281CBF6FF000414FF0A4
:100C8000FF3000F0FDB9ADF1080C6DE904CE00298C
:100C900009DB002B1ADB00F08BF8DDF804E0DDE95E
:100CA000022304B07047404261EB4101002B1BDB83
:100CB00000F07EF8DDF804E0DDE9022304B04042F4
:100CC00061EB4101524263EB43037047524263EBD5
:100CD000430300F06DF8DDF804E0DDE9022304B021
:100CE000404261EB41017047524263EB430300F025
:100CF0005FF8DDF804E0DDE9022304B0524263EB63
:100D00004303704753B94AB9002908BF00281CBFE4
:100D10004FF0FF314FF0FF3000F0B2B9ADF1080CE9
:100D20006DE904CE00F044F8DDF804E0DDE90223CB
:100D300004B07047D0B5FFF7E7FA0C4B0022064627
:100D40000F46FFF739FBFFF70FFE0446FFF7BAFA2D
:100D5000074B0022FFF730FB02460B463046394670
:100D6000FFF772F9FFF700FE2146D0BD0000F03D0D
:100D70000000F041D0B50C4B002206460F46FFF7AD
:100D80001BFBFFF7F1FD0446FFF79CFA074B00221F
:100D9000FFF712FB02460B4630463946FFF754F97F
:100DA000FFF7E2FD2146D0BD0000F03D0000F0411C
:100DB0002DE9F047089D04468E46002B4DD18A420E
:100DC000944669D9B2FA82F252B101FA02F3C2F141
:100DD000200120FA01F10CFA02FC41EA030E9440D2
:100DE0004FEA1C48210CBEFBF8F61FFA8CF708FBF3
:100DF00016E341EA034306FB07F199420AD91CEBCB
:100E0000030306F1FF3080F01F81994240F21C81FC
:100E1000023E63445B1AA4B2B3FBF8F008FB103344
:100E200044EA034400FB07F7A7420AD91CEB040479
:100E300000F1FF3380F00A81A74240F20781644449
:100E4000023840EA0640E41B00261DB1D4400023CE
:100E5000C5E900433146BDE8F0878B4209D9002D32
:100E600000F0EF800026C5E9000130463146BDE8BC
:100E7000F087B3FA83F6002E4AD18B4202D3824226
:100E800000F2F980841A61EB030301209E46002DD5
:100E9000E0D0C5E9004EDDE702B9FFDEB2FA82F22A
:100EA000002A40F09280A1EB0C014FEA1C471FFA88
:100EB0008CFE0126200CB1FBF7F307FB131140EA6F
:100EC00001410EFB03F0884208D91CEB010103F13C
:100ED000FF3802D2884200F2CB804346091AA4B2FE
:100EE000B1FBF7F007FB101144EA01440EFB00FED2
:100EF000A64508D91CEB040400F1FF3102D2A64537
:100F000000F2BB800846A4EB0E0440EA03409CE7D5
:100F1000C6F12007B34022FA07FC4CEA030C20FA82
:100F200007F401FA06F31C43F9404FEA1C4900FAA2
:100F300006F3B1FBF9F8200C1FFA8CFE09FB18111F
:100F400040EA014108FB0EF0884202FA06F20BD992
:100F50001CEB010108F1FF3A80F08880884240F2E2
:100F60008580A8F102086144091AA4B2B1FBF9F026
:100F700009FB101144EA014100FB0EFE8E4508D921
:100F80001CEB010100F1FF346CD28E456AD90238A6
:100F9000614440EA0840A0FB0294A1EB0E01A1428B
:100FA000C846A64656D353D05DB1B3EB080261EBF9
:100FB0000E0101FA07F722FA06F3F1401F43C5E9D3
:100FC000007100263146BDE8F087C2F12003D84009
:100FD0000CFA02FC21FA03F3914001434FEA1C474B
:100FE0001FFA8CFEB3FBF7F007FB10360B0C43EA3D
:100FF000064300FB0EF69E4204FA02F408D91CEBED
:10100000030300F1FF382FD29E422DD902386344EA
:101010009B1B89B2B3FBF7F607FB163341EA03418A
:1010200006FB0EF38B4208D91CEB010106F1FF38D9
:1010300016D28B4214D9023E6144C91A46EA0046D0
:1010400038E72E46284605E70646E3E61846F8E662
:101050004B45A9D2B9EB020864EB0C0E0138A3E7AB
:101060004646EAE7204694E74046D1E7D0467BE78C
:10107000023B614432E7304609E76444023842E704
:10108000704700BF844641EA000313F003036DD1AB
:10109000403A41D351F8043B40F8043B51F8043B3B
:1010A00040F8043B51F8043B40F8043B51F8043B42
:1010B00040F8043B51F8043B40F8043B51F8043B32
:1010C00040F8043B51F8043B40F8043B51F8043B22
:1010D00040F8043B51F8043B40F8043B51F8043B12
:1010E00040F8043B51F8043B40F8043B51F8043B02
:1010F00040F8043B51F8043B40F8043B51F8043BF2
:1011000040F8043B51F8043B40F8043B51F8043BE1
:1011100040F8043B403ABDD2303211D351F8043B81
:1011200040F8043B51F8043B40F8043B51F8043BC1
:1011300040F8043B51F8043B40F8043B103AEDD230
:101140000C3205D351F8043B40F8043B043AF9D281
:10115000043208D0D2071CBF11F8013B00F8013B54
:1011600001D30B8803806046704700BF082A13D361
:101170008B078DD010F003038AD0C3F10403D21A79
:10118000DB071CBF11F8013B00F8013B80D331F8AD
:10119000023B20F8023B7BE7043AD9D3013A11F82D
:1011A000013B00F8013BF9D20B7803704B78437098
:1011B0008B788370604670470000000000000000DC
:1011C000A2EB0300704700BF02780B78012A28BF0A
:1011D0009A42F5D16DE9044540EA0104CDE9026780
:1011E0006FF0000C4FEA447212B380EA010414F06D
:1011F000070F6AD100F0070420F0070004F0030590
:1012000021F007014FEAC505F0E8042314F0040FAC
:10121000F1E804670CFA05F462EA040266EA0406DF
:101220000AD063EA0403624667EA0407664603E0FD
:10123000F0E80423F1E8046782FA4CF582EA060438
:10124000A4FA8CF46CBB83FA4CF583EA0705A5FA83
:101250008CF595B950E9022351E9026782FA4CF501
:1012600082EA0604A4FA8CF483FA4CF583EA0705B3
:10127000A5FA8CF52543DBD09CB92DBAB5FA85F4D7
:1012800024F0070427FA04F1DDE9026723FA04F3E6
:1012900003F0FF0001F0FF01FDE80445A0EB0100B1
:1012A000704724BAB4FA84F424F0070426FA04F14F
:1012B000DDE9026722FA04F202F0FF0001F0FF010B
:1012C000FDE80445A0EB0100704714F0030F3CD18A
:1012D00010F0030428D150F8082B51F8083B82FA8B
:1012E0004CF582EA0305A5FA8CF55DB950F8042C9B
:1012F00051F8043C82FA4CF582EA0305A5FA8CF514
:10130000002DE8D02DBAB5FA85F424F0070423FAAD
:1013100004F122FA04F202F0FF0001F0FF01FDE8FF
:101320000445A0EB010070474FEAC40420F003001D
:1013300050F8082B21F0030151F8083B0CFA04F493
:1013400062EA040263EA0403C9E710F003041AD056
:10135000A1EB040120F00300E40750F8042B06D0B1
:101360000FD28B785FFAA2F4E41A06D12BB1CB78B6
:101370005FFAB2F4E41A00D11BB920465DF8104BB5
:10138000704701F1040150F8042BCC0721F0030150
:1013900051F8043B48D824D222F07F4482FA4CF51D
:1013A00094EA1325A5FA8CF50AD165B951F8043BE6
:1013B00084EA0204B4EB036F0ED150F8042BEBE780
:1013C0004FEA132355E035F07F454DD10878FDE80D
:1013D0000445C0F1000070474FEA126203F0FF03BA
:1013E00047E002EA1C4482FA4CF594EA1345A5FA58
:1013F0008CF50AD165B951F8043B84EA0204B4EBD8
:10140000034F0CD150F8042BEBE74FEA134330E0C5
:1014100015EA1C4528D10B884FEA124229E04FEA11
:10142000124203EA1C4324E002F0FF0482FA4CF566
:1014300094EA1365A5FA8CF50AD165B951F8043B15
:1014400084EA0204B4EB032F09D150F8042BEBE734
:101450004FEA13630DE015F0FF0F05D10B684FEA5B
:10146000122223F07F4304E04FF00000FDE8044522
:10147000704712BA1BBA82FA4CF482EA0304A4FA47
:101480008CF5B5FA85F402FA04F203FA04F34FEA94
:101490001260FDE80445A0EB1360704700000000F7
:1014A000000000000000000000000000000000003C
:1014B000000000000000000000000000000000002C
:1014C00090F800F06DE9024520F007016FF0000C84
:1014D00010F0070491F820F040F049804FF000042C
:1014E0006FF00700D1E9002391F840F000F1080007
:1014F00082FA4CF2A4FA8CF283FA4CF3A2FA8CF33F
:101500004BBBD1E9022382FA4CF200F10800A4FAA5
:101510008CF283FA4CF3A2FA8CF3E3B9D1E90423F9
:1015200082FA4CF200F10800A4FA8CF283FA4CF330
:10153000A2FA8CF37BB9D1E9062301F1200182FAEA
:101540004CF200F10800A4FA8CF283FA4CF3A2FAF0
:101550008CF3002BC6D0002A04BF04301A4612BAFE
:10156000B2FA82F2FDE8024500EBD2007047D1E901
:10157000002304F00305C4F100004FEAC50514F090
:10158000040F91F840F00CFA05F562EA05021CBF61
:1015900063EA050362464FF00004A9E7000000007B
:1015A00001F0FF01102A2BDB10F0070F08D010F814
:1015B000013B013A8B422DD010F0070F42B3F6D118
:1015C000F0B441EA012141EA014122F007047FF031
:1015D00000070023F0E80256083C85EA010586EA88
:1015E000010685FA47F5A3FA87F586FA47F6A5FAC4
:1015F00087F68EB9EED1F0BC01F0FF0102F00702D0
:1016000032B110F8013B013A83EA010313B1F8D17A
:101610000020704701387047002D06BF354603385B
:10162000073815F0010F07D1013015F4807F02BF94
:10163000013015F4C03F0130F0BC0138704700BFE5
:1016400000B583B000238DF8073009F025F800902D
:10165000009B084A0849122015F01FFA08F0ECFD1B
:1016600003468DF807309DF80730184603B05DF843
:1016700004FB00BF105906081C59060800B585B0C8
:10168000019001238DF80F30019800F095F8034682
:101690008DF80F309DF80F3083F00103DBB2002B83
:1016A00005D0019802F0D0FE03468DF80F309DF86A
:1016B0000F30184605B05DF804FB000000B587B098
:1016C00003468DF80730002305930023049336F07A
:1016D00049FA03900023049323E01649049A134621
:1016E000DB0013449B000B4404331B789DF8072058
:1016F0009A4213D10F49049A1346DB0013449B000E
:101700000B4410331B78002B08D0049A1346DB00DF
:1017100013449B00074A1344059306E0049B0133DE
:101720000493049A039B9A42D7D3059B184607B0AB
:101730005DF804FBEC4A002000B587B003468DF845
:101740000730002305930023049336F00BFA03902F
:101750000023049323E01749049A13469B00134483
:101760009B000B4404331B789DF807209A4213D149
:101770001049049A13469B0013449B000B441033FA
:101780001B78002B10D0049A13469B0013449B0037
:10179000084A1344059307E0049B01330493049A19
:1017A000039B9A42D7D300E000BF059B184607B0C1
:1017B0005DF804FB2C65070882B0034600228DF813
:1017C0000720B3F1005F05D3054A934202D80123F5
:1017D0008DF807309DF80730184602B0704700BFFB
:1017E00000C0012000B587B00390029101920093E0
:1017F00000238DF81330029A019B9A420AD2029B71
:10180000591C009B019A0398FFF7ECFF03468DF8E3
:10181000133012E0029A019B9A420BD10DF113038F
:10182000039AD31A0593009B059A1A6001238DF839
:10183000133002E000238DF813309DF81330184662
:1018400007B05DF804FB000000B587B0039002917B
:10185000019200238DF81730019B029A0021039812
:10186000FFF7C0FF03468DF81730019B1B68029AF3
:1018700004490A2015F02EF99DF81730184607B0D4
:101880005DF804FB3859060800B583B000238DF8D5
:10189000073009490A2015F000F94FF47A7023F057
:1018A000E9FF00F07FFB03468DF807309DF8073015
:1018B000184603B05DF804FB545906082DE9F00FF3
:1018C00086B0019001238DF81730002304934FF068
:1018D00000024FF00003CDE902230023049313E03C
:1018E000019A049B06339B0013445B6800221E464A
:1018F0001746DDE9022312EB060A43EB070BCDE99D
:1019000002AB049B01330493049B032BE8D9019B96
:101910005B6B00221C461546DDE9022312EB04082E
:1019200043EB0509CDE90289DDE90223134303D125
:1019300001238DF8173002E000238DF817309DF851
:101940001730184606B0BDE8F00F704700B585B0F7
:10195000019001238DF80F300198FFF7AFFF034688
:101960008DF80F309DF80F3083F00103DBB2002BB0
:1019700004D0019A4D490A2015F0E7F89DF80F3080
:10198000002B13D0019B1B681846FFF715FF034679
:101990008DF80F309DF80F3083F00103DBB2002B80
:1019A00004D0019A42490A2015F0CFF89DF80F3073
:1019B000002B15D0019B5B68184602F045FD0346DD
:1019C0008DF80F309DF80F3083F00103DBB2002B50
:1019D00006D0019B5B681A4636490A2015F0B5F817
:1019E0009DF80F30002B07D0019BDB68184602F0F2
:1019F0002BFD03468DF80F309DF80F30002B07D0DC
:101A0000019B1B69184602F01FFD03468DF80F303D
:101A10009DF80F30002B07D0019B5B69184602F040
:101A200013FD03468DF80F309DF80F30002B07D0C3
:101A3000019B9B69184602F007FD03468DF80F30A5
:101A40009DF80F30002B07D0019B1B6B184602F04E
:101A5000FBFC03468DF80F309DF80F30002B07D0AC
:101A6000019BDB6A184602F0EFFC03468DF80F304D
:101A70009DF80F30002B07D0019B9B6B184602F09E
:101A8000E3FC03468DF80F309DF80F30002B07D094
:101A9000019B9B68184602F0D7FC03468DF80F3077
:101AA0009DF80F30184605B05DF804FB6059060834
:101AB0007C5906089859060810B58CB0039002911D
:101AC000019205AB00221A605A609A60019B029A4B
:101AD0001C490A2015F039F8019B9B080B930B9BBE
:101AE000002B25D000230493029A019BD31A0A935A
:101AF00004AB154A0B990A980FF0EEFC03468DF8DB
:101B000027309DF82730002B12D000230893049B28
:101B10000B9AD31A0893089B642202FB03F318461E
:101B20000B9905AB052220F0DFFC03468DF827302A
:101B3000039B1C4605AB93E8070084E80700039865
:101B40000CB010BDB0590608EFBEADDE00B585B0D3
:101B5000019000238DF80F30019B02930298FFF74C
:101B6000F5FE03468DF80F309DF80F30184605B08E
:101B70005DF804FB82B001238DF80730064BD3F8E3
:101B80008830054A43F47003C2F888309DF8073066
:101B9000184602B0704700BF00ED00E086B001902B
:101BA00000238DF8173001238DF81730184B9A6AEF
:101BB000184B1B68164913438B62EFF3138303938F
:101BC000039B049371B600BF114B5B69104A43F449
:101BD00080735361019B1B780D4B9A6A0D4B1B68F8
:101BE0001340002B02D000238DF81730084B5B699F
:101BF000074A23F480735361049B0293029B83F38F
:101C0000138800BF9DF81730184606B0704700BF14
:101C100000ED00E03432070800B587B001900023E2
:101C20000593019A15490A2014F054FF019B04936F
:101C300001238DF80F300FE00498FFF7AFFF034644
:101C40008DF80F309DF80F30002B0AD0059B013323
:101C50000593049B013304939DF80F30002BEBD1C7
:101C600000E000BF059B019A05490A2014F032FFED
:101C7000059B184607B05DF804FB00BF1C5A060818
:101C8000285A060800B583B001238DF807304FF0BD
:101C90000050FFF7C1FF0090009B4FF00052054934
:101CA0000A2014F017FF9DF80730184603B05DF8BE
:101CB00004FB00BF585A060884B00190009100232D
:101CC0008DF80F30019B002B11D0009B002B0ED004
:101CD000019B1A68009B1A60019B9A68009B9A609E
:101CE000019BDA68009BDA6001238DF80F309DF8C4
:101CF0000F30184604B0704700B585B0019000233E
:101D00008DF80F30019B002B35D001238DF80F305B
:101D1000019B9B681846FFF74FFD034683F00103C4
:101D2000DBB2002B08D0019B1B791A46019B9B68F4
:101D300014490A2014F0EBFE019BDB681846FFF7FC
:101D40003BFD034683F00103DBB2002B08D0019B6F
:101D50001B791A46019BDB680B490A2014F0D7FE59
:101D6000019B1B68002B06D1019B1B791A46074972
:101D70000A2014F0CCFE9DF80F30184605B05DF82F
:101D800004FB00BF745A0608905A0608AC5A0608AD
:101D900000B587B003468DF8073000238DF8173063
:101DA0009DF807301A4632490A2014F076FE9DF855
:101DB00007301846FFF7C0FC0490049B002B4AD064
:101DC0000498FFF799FF03468DF817309DF81730F8
:101DD000002B38D0049801F0CFF803461A46254965
:101DE0000A2014F05AFE9DF807301846FFF766FCEB
:101DF0000390039B002B1ED003990498FFF75CFF10
:101E000003468DF81730FFF7B5FE03468DF81730FF
:101E1000039B01221A74039B0022DA61039B0022B8
:101E20009A61039B00225A61039B01225A74012389
:101E30008DF8173016E09DF807301A460E490A2033
:101E400014F0BFFE0EE09DF807301A460B490A2039
:101E500014F0B7FE06E09DF807301A4607490A203D
:101E600014F055FE9DF81730184607B05DF804FBD6
:101E7000C05A0608C85A0608CC5A0608D85A060896
:101E800082B000238DF807309DF80730184602B065
:101E90007047000008B5FFF7F3FF034683F0010326
:101EA000DBB2002B0AD0064B1B68002B01D172B6A7
:101EB00000BF034B1B680133014A136000BF08BD1C
:101EC000FC55002008B5FFF7DBFF034683F0010354
:101ED000DBB2002B0ED0084B1B68002B0AD0064B40
:101EE0001B68013B044A1360034B1B68002B01D1A4
:101EF00062B600BF00BF08BDFC55002000B585B02C
:101F000001238DF80F30FFF7BDFE03468DF80F302B
:101F10000023029335F026FE009000238DF8073051
:101F200000238DF8073013E09DF807301846FFF7BF
:101F30002FFF03468DF80F309DF80F30002B02D095
:101F4000029B013302939DF8073001338DF807306F
:101F50009DF80730009A9A42E6D2009A029B9A4274
:101F600003D101238DF80F3002E000238DF80F30EC
:101F70009DF80F30184605B05DF804FBBFF34F8F96
:101F800000BF064BDB6803F4E0620449044B1343D3
:101F9000CB60BFF34F8F00BF00BFFDE700ED00E057
:101FA0000400FA0500B583B001238DF80730054918
:101FB000012014F072FD09F0AEFF72B600BFFFF70A
:101FC000DDFF00BFE85A060886B0019000238DF8B7
:101FD000173072B600BF01230393039B83F310886D
:101FE00000BF0E4A019B936000230493049B83F37C
:101FF000108800BF62B600BF084B9B68019A9A42E6
:1020000003D101238DF8173002E000238DF817303B
:102010009DF81730184606B0704700BF00ED00E08D
:1020200000B583B000238DF807304FF00060FFF754
:10203000CBFF03468DF807309DF80730184603B0F4
:102040005DF804FB82B003468DF807309DF9073038
:10205000002B13DB9DF8073003F01F0209499DF99F
:1020600007305B09012000FA02F2203341F82320F7
:10207000BFF34F8F00BFBFF36F8F00BF00BF02B031
:10208000704700BF00E100E000B583B001238DF888
:10209000063000238DF80730F2238DF807300BE06F
:1020A0009DF907301846FFF7CDFF9DF90730DBB2E9
:1020B0000133DBB28DF807309DF90730512BEFDD8E
:1020C0009DF80630184603B05DF804FB84B0034663
:1020D0008DF807300F4B03930023029300230293E4
:1020E00011E09DF907200C49029BDB000B441B7992
:1020F0009A4205D1084A029B52F83330039305E017
:10210000029B01330293029B0F2BEAD9039B1846D3
:1021100004B07047245C0608383207082DE9F04304
:1021200083B0012000F032F80190019B002B28D0F1
:10213000019B93F83430002B23D0FFF7ABFE019BBB
:102140001B695A1C019B1A61019BD3E9062312F1FA
:10215000010843F10009019BC3E90689019B9B68C3
:102160005B68C3F31701019BD3E9082300200C46E9
:102170000546161943EB0507019BC3E90867FFF7FE
:10218000A1FE00BF03B0BDE8F083000000B587B03A
:1021900003468DF80730002305930023049335F0A0
:1021A00062FA03900023049323E01649049A13462D
:1021B000DB009B1ADB000B4405331B789DF80720DE
:1021C0009A4213D10F49049A1346DB009B1ADB0095
:1021D0000B4407331B78002B08D0049A1346DB000E
:1021E0009B1ADB00074A1344059306E0049B013366
:1021F0000493049A039B9A42D7D3059B184607B0D1
:102200005DF804FB6002002000B587B003468DF83E
:102210000730002305930023049335F024FA03903C
:10222000002304931AE0134A049B1B011344053353
:102230001B789DF807209A420DD10E4A049B1B0182
:10224000134407331B78002B0DD0049B1B01094A54
:102250001344059307E0049B01330493049A039B02
:102260009A42E0D300E000BF059B184607B05DF836
:1022700004FB00BF7C520708F0B589B003468DF817
:1022800007304FF000024FF00003CDE906239DF820
:1022900007301846FFF77AFF0590059B002B1ED0EC
:1022A000FFF7F8FD059B9B685B68C3F317031A46AD
:1022B000059B9B689B68C3F31703D31ADA171E4666
:1022C0001746CDE90267059BD3E90823DDE9020142
:1022D000841841EB0305CDE90645FFF7F3FDDDE981
:1022E00006231046194609B0F0BD00B583B001239E
:1022F0008DF807300CF0EAFE03468DF807309DF8A4
:102300000730184603B05DF804FB84B00190002349
:102310008DF80F30019B002B20D001238DF80F305A
:102320009DF80F30002B0AD0019B1B68002B03D0B7
:1023300001238DF80F3002E000238DF80F309DF857
:102340000F30002B0AD0019B9B68002B03D0012388
:102350008DF80F3002E000238DF80F309DF80F301C
:10236000184604B0704700B583B000238DF80730DD
:102370000120FFF70BFF0090009B002B0ED0009B6D
:102380009B68002B0AD0009B9B681B68C3F300036B
:10239000DBB2002B02D001238DF807309DF8073007
:1023A000184603B05DF804FB00B583B00120FFF7C9
:1023B000EDFE0190019B002B13D0019B9B681B68D5
:1023C00000939DF800306FF300038DF800309DF806
:1023D00000306FF341038DF80030019B9B68009A39
:1023E0001A600123184603B05DF804FB00B587B0FE
:1023F000019000238DF817300120FFF7C7FE0490ED
:10240000049B002B1AD000230393019B23F07F43EE
:102410009AB200210A43ADF80C201B0CDBB200225B
:1024200013438DF80E30049B9B68002B06D0049B51
:102430009B68039A5A6001238DF817309DF8173076
:10244000184607B05DF804FB30B589B003468DF837
:1024500007304FF000024FF00003CDE906239DF84E
:1024600007301846FFF792FE0590059B002B15D00C
:102470009DF807301846FFF7FFFECDE90201059BE6
:10248000DB6A00221C46154622462B46DDE9020186
:10249000FEF738FC02460B46CDE90623DDE90623AC
:1024A0001046194609B030BD00B585B0002303932E
:1024B0000120FFF76BFE0290029B002B10D0FFF76C
:1024C00052FF03468DF807309DF80730002B04D1EA
:1024D000029BDB685A1C029BDA60029B1B69039318
:1024E000039B184605B05DF804FB000000B587B0FB
:1024F0000190009100238DF81730019B002B00F014
:10250000CE80019800F046F903461A466749342008
:1025100014F0C3FA0198FFF7F8FE03468DF8173060
:102520009DF81730002B00F0BA80009B002B00F0C4
:10253000B680019B1B681A465D49342014F0CAFA24
:10254000019B9A68009B9A60019B5A79009B5A7183
:10255000019B1A79009B1A71019B1A68009B1A60F3
:10256000009B00221A6100994FF000024FF0000317
:10257000C1E9082300994FF000024FF00003C1E9C0
:102580000623019B9B68002B00F089800CF0CCFD9A
:102590000246009B1A63009B1B6B1A464549342078
:1025A00014F098FA009B1B6B434AA2FB03239A0C7E
:1025B000009BDA62009B1B6B002B70D0019B9A681A
:1025C000009B9A60019B1B6807EE903AB8EE677A11
:1025D000DFED3A6AC7EE267ACDED047A009B1B6BDD
:1025E00007EE903AF8EE677A9DED047A67EE277A67
:1025F000CDED037ADDED037AFCEEE77A17EE902A53
:10260000009B9B6822F07F4291B298880020014392
:102610009980120CD2B2997900210A439A71009BD9
:102620009B685B68C3F317031A462549342014F0EE
:1026300051FA009B9B681A8900221A819A7A00221B
:102640009A72002302939DF8083043F001038DF83D
:1026500008309DF8083043F002038DF80830019BE4
:102660009B7903F00103DAB29DF8083062F382032C
:102670008DF80830019B1B79002B05D09DF80830A0
:1026800043F002038DF80830009B9B68029A1A60A1
:1026900001238DF81730009B012283F834209DF828
:1026A0001730184607B05DF804FB00BF305C060821
:1026B000345C0608445C060883DE1B4300007A4451
:1026C000585C060800B587B003468DF80730002334
:1026D0008DF817309DF807301846FFF795FD0490E8
:1026E000049B002B0FD09DF807301846FFF74EFDD6
:1026F0000390039B002B06D003990498FFF7F6FE86
:1027000003468DF817309DF81730184607B05DF86E
:1027100004FB00B585B001238DF80F30FFF7E5FD10
:1027200003468DF80F300023029334F09CFF009095
:1027300000238DF8073000238DF8073013E09DF853
:1027400007301846FFF7BEFF03468DF80F309DF89F
:102750000F30002B02D0029B013302939DF807300B
:1027600001338DF807309DF80730009A9A42E6D27F
:10277000009A029B9A4203D101238DF80F3002E0A8
:1027800000238DF80F309DF80F30184605B05DF826
:1027900004FB000000B585B00390039B002B34D0F0
:1027A0001C491D4848F0D6FF039B5B7900931A4BE8
:1027B0001A4AFA21184848F0BDFE039BDB680093D3
:1027C000154B174AFA21144848F0B4FE039B1B68C6
:1027D0000093114B134AFA210F4848F0ABFE039BBC
:1027E0001B79184634F0A2FB034600930A4B0E4AAD
:1027F000FA21094848F09EFE039B9B680093064B14
:102800000A4AFA21044848F095FE034B184605B0E1
:102810005DF804FB405D0608F85C0020445D060896
:102820004C5D06085C5D06086C5D0608785D060870
:1028300000B587B003468DF80730002305930023C9
:10284000049335F0A4F90390002304931AE0124A8C
:10285000049B9B0113440C331B789DF807209A427C
:102860000DD10D4A049B9B0113440D331B78002BA3
:1028700005D0049B9B01084A1344059306E0049B82
:1028800001330493049A039B9A42E0D3059B1846B4
:1028900007B05DF804FB00BF104B002000B587B007
:1028A00003468DF80730002305930023049335F089
:1028B0006EF90390002304931AE0134A049B1B0152
:1028C00013440C331B789DF807209A420DD10E4A11
:1028D000049B1B0113440D331B78002B0DD0049B6C
:1028E0001B01094A1344059307E0049B0133049339
:1028F000049A039B9A42E0D300E000BF059B184670
:1029000007B05DF804FB00BF4065070800B585B05F
:10291000019000238DF80F30019B002B26D001235E
:102920008DF80F30019B5B68002B06D1019B1B7B50
:102930001A461149462014F044F9019B1B68002BEC
:1029400009D1019B1B7B1A460C49462014F039F92A
:1029500000238DF80F30019B9B68002B06D1019B53
:102960001B7B1A460649462014F02BF99DF80F30C0
:10297000184605B05DF804FB845D0608945D060802
:10298000A45D060800B583B000238DF80730054A22
:102990000549462014F09EF89DF80730184603B00C
:1029A0005DF804FBB85D0608BC5D060884B00190C4
:1029B000009100238DF80F30019B002B18D0009B55
:1029C000002B15D0019B5A68009B5A60019B1A6826
:1029D000009B1A60019B1A7B009B1A73019B9A68EB
:1029E000009B9A60009B01225A7301238DF80F30DF
:1029F0009DF80F30184604B070472DE9F04387B0BA
:102A000003468DF807304FF000024FF00003CDE988
:102A100004239DF807301846FFF70AFF0390039B35
:102A2000002B2FD0FFF736FA039B1B685A68039BD5
:102A30009A63039B9A6B039BDB6B9A4208D2039BBE
:102A4000D3E90C2303F101099046039BC3E90C89E8
:102A5000039B9A6B039BDA63FFF734FA039BD3E97A
:102A60000C230399896B00200C46054642EA0406B4
:102A700043EA0507039BC3E90A67039BD3E90A23DB
:102A8000CDE90423DDE904231046194607B0BDE86B
:102A9000F08300B589B003468DF807304FF000028F
:102AA0004FF00003CDE906239DF807301846FFF7E5
:102AB000BFFE0590059B002B11D09DF807301846EE
:102AC000FFF79BFFCDE90201059BD3E90623DDE972
:102AD0000201FEF717F902460B46CDE90623DDE9B0
:102AE00006231046194609B05DF804FB00B587B00F
:102AF00003468DF80730002305939DF807301846EC
:102B0000FFF796FE0490049B002B11D09DF8073030
:102B10001846FFF772FFCDE90201049BD3E90823B1
:102B2000DDE90201FEF7EEF802460B461346059377
:102B3000059B184607B05DF804FB000000B585B0A2
:102B400003468DF8073000238DF80F309DF80730CD
:102B50001A460E49462013F0DAFF9DF80730184652
:102B6000FFF766FE0290029B002B09D0029B1B69B7
:102B70005A1C029B1A619DF807301846FFF73DFF6B
:102B80009DF80F30184605B05DF804FBC85D0608D7
:102B900084B0019000238DF80F30019B002B31D0C1
:102BA000019B01225A73019B01225A73019B1B68EE
:102BB00000225A6001994FF000024FF00003C1E972
:102BC0000C23019B0022DA6301994FF000024FF0C1
:102BD0000003C1E90623019B00229A6301994FF08B
:102BE00000024FF00003C1E9082301994FF00002F1
:102BF0004FF00003C1E90A23019B00221A6101235F
:102C00008DF80F309DF80F30184604B07047000063
:102C1000F0B587B003468DF8073000238DF81730E4
:102C20009DF807301A464249462013F036FF9DF8BA
:102C300007301846FFF732FE0490049B002B6BD040
:102C40000498FFF763FE03468DF817309DF81730A0
:102C5000002B59D09DF807301846FFF7E9FD039087
:102C6000039B002B48D003990498FFF79FFE03466F
:102C70008DF817300398FFF78BFF03468DF8173058
:102C80002C4BDB682B4A43F08073D360039B1B689B
:102C900000225A6007F000FD0246039B9A60039BE6
:102CA0009B68254AA2FB03239B0C00221E46174665
:102CB000039BC3E90667039B9B68204AA2FB03238F
:102CC0009B0900221C461546039BC3E90845039B4C
:102CD0001B681B6802939DF8083043F001038DF8D0
:102CE0000830039B1B68029A1A60039B01225A73E7
:102CF000039B01229A7316E09DF807301A4610498B
:102D0000462013F05EFF0EE09DF807301A460D498D
:102D1000462013F056FF06E09DF807301A46094991
:102D2000462013F0F4FE9DF81730184607B0F0BDAA
:102D3000D45D0608F0ED00E083DE1B43D34D621046
:102D4000DC5D0608E85D060800B585B001238DF856
:102D50000F30FFF717FE03468DF80F300023029364
:102D600034F015FF009000238DF8073000238DF814
:102D7000073013E09DF807301846FFF749FF034678
:102D80008DF80F309DF80F30002B02D0029B0133DD
:102D900002939DF8073001338DF807309DF8073016
:102DA000009A9A42E6D2009A029B9A4203D10123EA
:102DB0008DF80F3002E000238DF80F309DF80F30B2
:102DC000184605B05DF804FB00B585B000238DF80A
:102DD0000F300023029334F0DAFE009000230193B9
:102DE0000023019311E0019BDBB21846FFF7A6FE1A
:102DF00003468DF80F309DF80F301946029828F0E1
:102E00007DFA0290019B01330193019A009B9A4243
:102E1000E9D9029B002B03D001238DF80F3002E08B
:102E200000238DF80F309DF80F30184605B05DF87F
:102E300004FB000000B5B7B000238DF8D730444B39
:102E40001B68243308224349184614F0A5F934F0CE
:102E500089FE349000238DF8D63000238DF8D630CB
:102E600063E09DF8D6301846FEF728FC3390339B7C
:102E7000002B55D0339B9A68339BDB68D31A32936F
:102E80000023009301ABC4220021184647F0ECFF59
:102E90006B463149184648F05DFC339B1B796A4606
:102EA00068462E4948F08AFB339B1B686A46684691
:102EB0002B4948F083FB339B9B686A466846294947
:102EC00048F07CFB339BDB686A466846254948F03E
:102ED00075FB6A466846329B234948F06FFB339B7B
:102EE0005B7C6A466846214948F068FB339B18338F
:102EF00018461FF0BDFB03466A4668461C4948F069
:102F00005DFB339B5B696A466846184948F056FB8F
:102F10006B461946174814F07FFC01238DF8D73013
:102F20009DF8D63001338DF8D6309DF8D630349ADE
:102F30009A4296D2064B1B6824330822054918464C
:102F400014F052F89DF8D730184637B05DF804FBFE
:102F5000B8450020B8320708685E06086C5E0608AF
:102F6000785E0608845E0608905E06089C5E060889
:102F7000A85E0608B45E060800B585B00390039B02
:102F8000002B27D01649174848F0E4FB039B1B7918
:102F90000093144B144AFA21124848F0CBFA039BD1
:102FA0009B6800930F4B114AFA210E4848F0C2FA71
:102FB000039BDB6800930B4B0D4AFA21094848F04C
:102FC000B9FA039B1B680093064B0A4AFA2105488D
:102FD00048F0B0FA034B184605B05DF804FB00BF9B
:102FE000F45E0608F85C0020F85E0608005F06083C
:102FF000145F0608285F060800B589B003468DF8FF
:103000000F3000238DF81F309DF80F301846FEF763
:1030100055FB0690069B002B1BD0069B9A68069BCF
:10302000DB68D31A9B0805939DF80F20069BD9688F
:10303000059B00930B460A490A2013F04BFD069BA3
:10304000DB680493059904980EF068FC03468DF83C
:103050001F309DF81F30184609B05DF804FB00BF13
:103060005C5F060800B589B00390029100238DF8DB
:103070001F3000230593039B002B09DD029B1B6877
:1030800005AA114618460FF03BFB03468DF81F308A
:103090009DF81F30002B13D0059B1A460B490A20C0
:1030A00013F018FD059B1846FEF7B6FD0690059A2D
:1030B000069B9B0A0093069B05490A2013F00AFD14
:1030C0009DF81F30184609B05DF804FB0C60060837
:1030D0001860060800B585B00190009100238DF8B6
:1030E0000F30FFF7A7FE03468DF80F309DF80F3025
:1030F000002B03D104490A2013F063FD9DF80F3023
:10310000184605B05DF804FB3060060800B585B0D0
:103110000190009100238DF80F30019B002B02D10C
:1031200001238DF80F309DF80F30002B05D0FEF7EE
:10313000ABFB03468DF80F3003E005490A2013F07E
:1031400040FD9DF80F30184605B05DF804FB00BF48
:103150003C60060800B585B00190009100238DF811
:103160000B30002303936B461A4603990198FEF730
:103170006BFB03468DF80B309DF80B30002B06D00F
:10318000009B1A460399064814F046FB03E00549E4
:103190000A2013F016FD039B01330393E3E700BFFE
:1031A0004C6006086860060800B587B00190009181
:1031B00000238DF8173000201BF0B6FB0490049913
:1031C000224814F029FB00230393019B002B09DD07
:1031D000009B1B6803AA114618460FF091FA03469C
:1031E0008DF8173000230293019B002B07D1029B1F
:1031F00019460498FFF7AEFF03468DF817309DF887
:103200001730002B18D0039B02AA19460498FEF72A
:103210001BFB03468DF817309DF81730002B06D0A6
:10322000039A029B0A490A2013F054FC08E009495A
:103230000A2013F0C6FC03E007490A2013F0C1FC82
:103240009DF81730184607B05DF804FB706006085B
:103250008860060868600608A860060800B587B0A0
:103260000190009100238DF8173000230393019BF8
:10327000002B10DD009B1B6803AA114618460FF0B7
:103280003FFA03468DF817309DF817301B4A194650
:103290000A2013F047FD9DF81730002B23D0039B25
:1032A00004930498FEF77AFC03468DF817309DF8D6
:1032B0001730002B0BD09DF81730184633F058FE0E
:1032C0000346049A0E490A2013F004FC0FE09DF80F
:1032D0001730184633F04CFE0346049A08490A207A
:1032E00013F06FFC03E007490A2013F06AFC9DF815
:1032F0001730184607B05DF804FB00BFC860060829
:10330000D0600608E060060800B585B00190009125
:1033100000238DF80F3000238DF80E30019B002B19
:1033200011DD009B1B680DF10E02114618460FF0CF
:103330005EFD03468DF80F309DF80F30114A194697
:103340000A2013F0EFFC9DF80F30002B0FD09DF8F2
:103350000E301846FFF750FE03468DF80F309DF8EB
:103360000F30094A19460A2013F0DCFC03E0074934
:103370000A2013F026FC9DF80F30184605B05DF8C2
:1033800004FB00BFF4600608FC600608086106083C
:1033900000B587B003468DF807300023059300235E
:1033A000049334F009FC03900023049323E01649AE
:1033B000049A13465B0013441B010B441B331B7818
:1033C0009DF807209A4213D10F49049A13465B00D7
:1033D00013441B010B441C331B78002B08D0049AA8
:1033E00013465B0013441B01074A1344059306E090
:1033F000049B01330493049A039B9A42D7D3059B01
:10340000184607B05DF804FB504B002000B587B0AC
:1034100003468DF80730002305930023049334F00E
:10342000CBFB0390002304931AE0134A049B5B0137
:1034300013441B331B789DF807209A420DD10E4A86
:10344000049B5B0113441C331B78002B0DD0049BA1
:103450005B01094A1344059307E0049B013304937D
:10346000049A039B9A42E0D300E000BF059B1846F4
:1034700007B05DF804FB00BF5065070800B585B0D4
:10348000019000238DF80F30019B002B10D00123F9
:103490008DF80F30019B1B68002B09D1019BDB7E4F
:1034A0001A460649172013F08CFB00238DF80F30C5
:1034B0009DF80F30184605B05DF804FB1C61060846
:1034C00000B583B000238DF807300122044917208E
:1034D00013F000FB9DF80730184603B05DF804FBBD
:1034E0003461060800B5DBB05AABA3F5AE731860C3
:1034F00000238DF867314FAB24220021184647F096
:10350000B3FC5AABA3F5AE731B689B7E4FAA114662
:10351000184619F083FD03468DF867315AABA3F5C1
:10352000AC7300221A6004334FF4947200211846E1
:1035300047F09AFC4FAB184633F0D0F8024604AB84
:1035400004A80092364A4FF4967147F0F3FF5AAB45
:10355000A3F5AE731B6893F8293018462FF078FD59
:10356000024604AB04A800922E4A4FF4967147F02D
:10357000E1FF5AABA3F5AE731B680833184620F081
:1035800011FA024604AB04A80092274A4FF4967140
:1035900047F0D0FF5AABA3F5AE731B689B7E18466D
:1035A00017F072FA5890589B002B0ED0589B03F5D9
:1035B0003473184620F0F6F9024604AB04A80092D2
:1035C0001A4A4FF4967147F0B5FF5AABA3F5AE73A4
:1035D0001B68D3E9082304A904A8CDE900230B46FE
:1035E000134A4FF4967147F0A5FF5AABA3F5AE739B
:1035F0001B685B7E04AA0F49184625F07BFF034633
:103600008DF867319DF867310B4A1946172013F082
:1036100063FB9DF8673118465BB05DF804FB00BFA3
:10362000406106084C610608586106086461060896
:10363000706106087C6106088C61060800000000C5
:1036400030B589B003468DF80F3000238DF81F3058
:103650009DF80F301A465C49172013F058FA9DF870
:103660000F301846FFF794FE0690069B002B00F0E3
:10367000A280172013F0D6F803468DF81730069B6A
:103680009B7E184617F000FA0490049B002B00F074
:103690008D80049B93F86032002B00F08780069B9E
:1036A00003F10802049B03F53473194610461FF01A
:1036B00003FDB0EE407AF0EE607A069B83ED087B66
:1036C0009DF9173013F1030F0FD1069BD3E908457D
:1036D000049B03F53473184620F064F90346009305
:1036E00022462B46394814F097F8069BD3E9080187
:1036F00033A3D3E90023FDF7EFF80346002B1BD0DB
:10370000069B022283F82920069B1B7E0121184676
:103710001CF088FC069BD3E90845049B03F5347331
:10372000184620F03FF90346009322462B462849CD
:10373000172013F046FA09E0069B012283F829209E
:10374000069B1B7E002118461CF06CFC069BD3E9EF
:1037500008014FF000021F4BFDF7BEF80346002B97
:1037600010D0069BD3E90845049B03F53473184633
:1037700020F018F90346009322462B4614491720DF
:1037800013F01FFA069B93F82920069B93F82A3022
:103790009A4205D00698FFF7A5FE03468DF81F3024
:1037A000069B93F82920069B83F82A20069BDB6A58
:1037B0005A1C069BDA629DF81F30184609B030BDCE
:1037C0000000000000C0724094610608A86106086D
:1037D000B861060800408F4010B485B00190009198
:1037E00000238DF80F30019B002B1DD0009B002B78
:1037F0001AD0019B1A7E009B1A76019B5A7E009B71
:103800005A76019B1A68009B1A60009A019B02F18C
:10381000080408330FCB84E80F00019B9A7E009BBD
:103820009A7601238DF80F309DF80F30184605B0B9
:103830005DF8044B7047000000B587B003468DF873
:10384000073000238DF817309DF807301A462A49B3
:10385000172013F022F99DF807301846FFF7D6FD20
:1038600004900498FFF70AFE03468DF817309DF880
:103870001730002B32D004982FF012FC03461A4662
:103880001E49172013F009F99DF807301846FFF775
:103890007FFD0390039B002B18D003990498FFF73A
:1038A0009BFF03468DF81730039B01221A77039B79
:1038B000012283F82820039B08331A465621012051
:1038C00024F0F8FA03468DF817300EE09DF8073023
:1038D0001A460B49172013F074F906E09DF80730DB
:1038E0001A460849172013F012F99DF817301846A8
:1038F00007B05DF804FB00BFC8610608D861060880
:10390000DC610608E861060800B585B001238DF882
:103910000F30FFF7D5FD03468DF80F3000230293DB
:1039200034F04AF9009000238DF8073000238DF819
:10393000073013E09DF807301846FFF77DFF034678
:103940008DF80F309DF80F30002B02D0029B013311
:1039500002939DF8073001338DF807309DF807304A
:10396000009A9A42E6D2009A029B9A4203D101231E
:103970008DF80F3002E000238DF80F309DF80F30E6
:10398000184605B05DF804FB00B585B000238DF83E
:103990000F300023029334F00FF9009000230193BD
:1039A0000023019311E0019BDBB21846FFF748FEAC
:1039B00003468DF80F309DF80F301946029827F016
:1039C0009DFC0290019B01330193019A009B9A4256
:1039D000E9D9029B002B03D001238DF80F3002E0C0
:1039E00000238DF80F309DF80F30184605B05DF8B4
:1039F00004FB000084B003468DF807300E4B0393A0
:103A00009DF80730032B0CD0032B0DDC012B02D0CB
:103A1000022B03D008E0094B039308E0084B039303
:103A200005E0084B039302E0034B039300BF039BA5
:103A3000184604B0704700BFF8610608FC6106082C
:103A4000046206080862060800B585B001900023EC
:103A50008DF80F30019B002B1BD001238DF80F3008
:103A6000019B1B680E4A42F21071184627F068FE4F
:103A700003468DF80F309DF80F3083F00103DBB261
:103A8000002B06D0019B1B681A460649082013F03C
:103A900098F89DF80F30184605B05DF804FB00BF9C
:103AA00080397A121C62060884B0019000238DF8D8
:103AB0000F309DF80F30184604B0704784B00346AD
:103AC0008DF8073000230393039B002B14BF0123C1
:103AD0000023DBB2184604B07047000000B583B085
:103AE00001238DF80730234A2349012012F0D5FF26
:103AF0002248FFF7A9FF03468DF807309DF80730ED
:103B0000002B25D01D4800F023F903461A461C4916
:103B1000012012F0C2FF194B1B6800936B461A4636
:103B20005C21012024F0C6F903468DF807309DF88A
:103B3000073083F00103DBB2002B02D00F4B1B6870
:103B40000093009B184606F0B3FD03468DF807303E
:103B50009DF8073083F00103DBB2002B04D033F073
:103B60005FFD03468DF807309DF80730184603B017
:103B70005DF804FB00127A00306206084002002063
:103B80004862060830B58BB0CDE9000100230993E7
:103B9000DDE9002313432ED04FF000024FF0000365
:103BA000CDE9042321F0B0FDCDE904014FF000027E
:103BB0004FF00003CDE902234FF000024FF0000365
:103BC000CDE906230FE021F09FFDCDE90201DDE9FB
:103BD0000201DDE90423841A61EB0305CDE9064502
:103BE000099B01330993DDE90601DDE900239042D9
:103BF00071EB0303E7D3099B18460BB030BD00B54A
:103C000087B0019000230593019B002B17D0002360
:103C1000039321F0E7FC0390002302930023049315
:103C200009E021F0DFFC0290029A039BD31A04936F
:103C3000059B01330593049A019B9A42F1D3059B9E
:103C4000184607B05DF804FB30B587B001904FF01F
:103C500000024FF00003CDE9042300230393002367
:103C600003930BE006F04CFBDDE90423141843EB4F
:103C70000105CDE90445039B01330393039A019B9E
:103C80009A42EFD3DDE904231046194607B030BD50
:103C900084B003468DF807300D4B03939DF8073031
:103CA000042B0CD0042B0DDC012B02D0022B03D0F3
:103CB00008E0084B039306E0074B039303E0074B30
:103CC000039300E000BF039B184604B0704700BF99
:103CD000306306083C6306084C6306085C6306080C
:103CE00084B003468DF80730144B03939DF80730DA
:103CF000062B1DD801A252F823F000BF253D010874
:103D0000313D01082B3D0108313D0108313D0108DD
:103D1000193D01081F3D0108094B039309E0094BB8
:103D2000039306E0084B039303E0084B039300E082
:103D300000BF039B184604B0704700BF30630608FD
:103D400060630608686306087063060878630608FF
:103D500000B585B003902949294847F0FBFC039B37
:103D6000002B46D0039B0093254B264AFA2124487A
:103D700047F0E0FB039B1B680093214B224AFA218A
:103D80001F4847F0D7FB039B5B7900931C4B1F4AEE
:103D9000FA211B4847F0CEFB039B9B680093184B0E
:103DA0001B4AFA21164847F0C5FB039B9B890093E9
:103DB000134B184AFA21124847F0BCFB039B9B7B2C
:103DC00000930F4B144AFA210D4847F0B3FB039BB5
:103DD0001B6900930A4B114AFA21094847F0AAFBD4
:103DE000039B5B690093064B0D4AFA21044847F098
:103DF000A1FB034B184605B05DF804FB8063060881
:103E0000F85C00209C630608AC630608C0630608E3
:103E1000D0630608E0630608F06306080464060839
:103E20001464060800B583B000238DF807300948F4
:103E3000FFF78EFF03461A460749012012F02DFEB8
:103E400001238DF807309DF80730184603B05DF860
:103E500004FB00BF400200202464060800B585B0C2
:103E60000190009100238DF80F3000238DF80E3063
:103E7000019B002B11DD009B1B680DF10E0211460A
:103E800018460EF0B4FF03468DF80F309DF80F3042
:103E9000214A1946082012F045FF9DF80F30002BEB
:103EA00033D0019B012B0FD19DF80E301846FFF740
:103EB00005FE03468DF80F309DF80F30174A19465E
:103EC000082012F02FFF20E000238DF80D300DF1B7
:103ED0000D031846FFF7E8FD03468DF80F309DF8F7
:103EE0000F300F4A1946082012F01CFF9DF80F30C2
:103EF000002B0AD09DF80D301846FFF7C9FE034687
:103F00001A460849082012F0E5FD9DF80F301846C2
:103F100005B05DF804FB00BF28640608306406089D
:103F2000386406084064060800B585B00190009129
:103F300000238DF80F30FFF775FF03468DF80F3023
:103F40009DF80F30184605B05DF804FB00B589B048
:103F50000190009100238DF81F3000230393019BF3
:103F6000012B10D1009B1B6803AA114618460EF0C6
:103F7000C7FB03468DF81F309DF81F30174A1946BE
:103F8000082012F0CFFE9DF81F30002B1CD000231C
:103F90008DF81F304FF000024FF00003CDE90423ED
:103FA0000F49092012F096FD039B1846FFF74CFEBF
:103FB000CDE90401DDE904230A49092012F08AFD54
:103FC00001238DF81F3003E00749092012F0F9FDA5
:103FD0009DF81F30184609B05DF804FB48640608D8
:103FE000546406085C6406086864060800B585B079
:103FF0000190009100238DF80F30019B012B2DD1F2
:1040000000230293009B1B6802AA114618460EF07B
:1040100077FB03468DF80F309DF80F3083F00103D6
:10402000DBB2002B06D0009B1B681A461049092002
:1040300012F0C7FD9DF80F30002B13D00D49092059
:1040400012F048FD029B184621F0D8FB03468DF87C
:104050000F300949092012F03DFD03E0074909200E
:1040600012F0AFFD9DF80F30184605B05DF804FB67
:104070007C64060854640608906406089464060884
:1040800000B585B00190009100238DF80F30019BA1
:10409000002B0CD101238DF80F300023029321F067
:1040A000A1FA02900299074813F0B6FB03E0064913
:1040B000092012F086FD9DF80F30184605B05DF816
:1040C00004FB00BFA8640608B864060800B585B004
:1040D0000190009100238DF80F302E4B0293019B2D
:1040E000002B02DB01238DF80F30019B002B10DD2C
:1040F000009B1B6802AA114618460EF001FB0346FE
:104100008DF80F309DF80F30234A1946082012F021
:1041100009FE9DF80F30002B32D0019B002B03D0FD
:10412000019B012B0FD027E006F0B6FA034602935D
:10413000029B184611F018FD03461A46174908203D
:1041400012F0C8FC20E0029B184611F00DFD03465A
:104150001A461349082012F0BDFC029B184606F0CF
:10416000A7FA03468DF80F309DF80F300D4A194617
:10417000082012F0D7FD07E000238DF80F3003E090
:104180000949092012F01DFD9DF80F30184605B0B1
:104190005DF804FB00E1F505C4640608D064060878
:1041A000E4640608F8640608FC64060800B585B0F7
:1041B0000190009100238DF80F30FFF78FFC03462C
:1041C0008DF80F309DF80F30184605B05DF804FBF0
:1041D00000B587B003468DF8073000230593002310
:1041E000049333F008FA03900023049322E0174964
:1041F000049A13465B0013449B000B441B789DF804
:1042000007209A4213D11149049A13465B001344C4
:104210009B000B4408331B78002B10D0049A1346E4
:104220005B0013449B00094A1344059307E0049B79
:1042300001330493049A039B9A42D8D300E000BF51
:10424000059B184607B05DF804FB00BFC85107087E
:1042500000B587B003468DF807300023059300238F
:10426000049333F0C8F90390002304931FE0144A29
:10427000049B742101FB03F313441B789DF8072072
:104280009A4211D10E4A049B742101FB03F313449B
:1042900008331B78002B07D0049B742202FB03F326
:1042A000074A1344059306E0049B01330493049AE0
:1042B000039B9A42DBD3059B184607B05DF804FBCD
:1042C0005801002000B585B001238DF80F3006F0AD
:1042D0002FFB03468DF80F300023029333F08BF948
:1042E000009000238DF8073000238DF8073013E08D
:1042F0009DF80730184606F041FB03468DF80F3055
:104300009DF80F30002B02D0029B013302939DF8E1
:10431000073001338DF807309DF80730022BE7D9BD
:10432000009A029B9A4203D101238DF80F3002E0DC
:1043300000238DF80F309DF80F30184605B05DF85A
:1043400004FB000000B589B00390029101920023A4
:104350008DF81F30029B002B3ED0019B002B3BD0E1
:1043600033F096F9059000230693002306932FE07F
:104370001C4A069B1B0113441A681A49069B1B0121
:104380000B4404331B6813440493164A069B1B0119
:1043900013441B68039A9A4217D3039A049B9A42C8
:1043A00013D8104A069B1B01134408331B781A4686
:1043B000029B1A600B4A069B1B01134404331A68C4
:1043C000019B1A6001238DF81F30069B0133069371
:1043D000069A059B9A42CBD39DF81F30184609B028
:1043E0005DF804FB9C52070800B589B0019000916C
:1043F00000238DF81F3005AB00221A605A60114B64
:104400001B6805930F4B1A680E4B5B6813440693A9
:1044100003AB00221A605A60019B0393019A009B30
:104420001344049305AA03AB114618461EF02EF858
:1044300003468DF81F309DF81F30184609B05DF80F
:1044400004FB00BF1C53070800B587B00190002390
:104450008DF81730019B002B02D001238DF8173007
:104460000023049333F014F90390002304931FE016
:10447000144A049B1B0113441B68019A9A4214D9E5
:10448000104A049B1B0113441A680E49049B1B012C
:104490000B4404331B6813440293019A029B9A4213
:1044A00003D201238DF8173006E0049B01330493F7
:1044B000049A039B9A42DBD39DF81730184607B045
:1044C0005DF804FB9C52070800B589B00390029187
:1044D0000192009300238DF81F30019B002B57D0D1
:1044E000009B002B54D00A9B002B51D001238DF848
:1044F0001F30009B00221A600A9B00221A60039B57
:10450000069300230593039B06930023059324E061
:10451000069B1846FFF798FF03468DF81F309DF85D
:104520001F3083F00103DBB2002B1DD1069B1B78EB
:104530009DF82C209A4205D1009B1B685A1C009BB9
:104540001A6004E00A9B1B685A1C0A9B1A60069BAF
:1045500001330693059B01330593039A029B134491
:10456000069A9A42D4D300E000BF0A9B1B686422DB
:1045700002FB03F307EE903AF8EE676A029B07EE40
:10458000903AB8EE677AC6EE877A019BC3ED007A5F
:104590009DF81F30184609B05DF804FB84B0019007
:1045A000009100238DF80F30019B002B27D0009B3A
:1045B000002B24D0019B1A68009B1A62019B5A6849
:1045C000009B5A62019B9A68009B9A62019BDA6881
:1045D000009BDA62019B5A69009B5A63019B9A69AE
:1045E000009B9A63019B5A7F009B83F83D20019BAF
:1045F0001A7F009B83F83C2001238DF80F309DF833
:104600000F30184604B0704700B585B00190009196
:1046100000238DF80F30019BFF22009918460CF003
:1046200035FF03468DF80F309DF80F30184605B062
:104630005DF804FB00B589B00390029100238DF86A
:104640001F3000230693002305934FF000030493CB
:10465000039805A904AAFF23019306AB00930B4618
:104660000299FFF731FF03468DF81F30059B029A30
:104670009A4203D101238DF81F3002E000238DF808
:104680001F309DF81F30184609B05DF804FB84B058
:1046900003460A468DF8073013468DF8063000238E
:1046A0008DF80F3000238DF80E309DF90730DB4375
:1046B0005AB29DF9063013405BB28DF80E309DF86A
:1046C0000E30002B03D000238DF80F3002E00123C1
:1046D0008DF80F309DF80F30184604B07047000079
:1046E00000B58BB005900491039200238DF827301C
:1046F000049B002B41D0039B002B3ED0002308934A
:10470000002307930023089328E0089A059B13448D
:104710000693069B1878049A089B13441B78194645
:10472000FFF7B5FF03468DF827309DF82730002BA3
:1047300003D0079B013307930DE0069B1B781946B6
:10474000049A089B13441B7800930B46089A0E4961
:104750002F2012F036FA089B01330893089A039B26
:104760009A42D2D3039A079B9A4203D101238DF830
:10477000273002E000238DF827309DF827301846B7
:104780000BB05DF804FB00BF1066060800B585B0ED
:104790000190009100238DF80F30019B0293009946
:1047A00002980DF037FA03468DF80F30044813F0E5
:1047B00033F89DF80F30184605B05DF804FB00BFD4
:1047C0004C68060800B585B00190009100238DF873
:1047D0000F3000238DF80E3000238DF80D300023AC
:1047E0008DF80C30019B1B6803AA114618460EF089
:1047F000FEFA03468DF80F309DF80F3083F0010369
:10480000DBB2002B07D0019B1B681A4643491A20D4
:1048100012F0D7F915E09DF80E3001338DF80E3007
:104820009DF80C301A463E491A2012F053F99DF8B3
:104830000C3003F00F03D9B2009A137861F3071319
:104840001370019B04331B680DF10D0211461846CD
:104850000EF0CDFA03468DF80F309DF80F3083F03F
:104860000103DBB2002B08D0019B04331A680F232D
:104870002C491A2012F0A5F92CE09DF80E300133D6
:104880008DF80E309DF80D301A4627491A2012F087
:1048900021F99DF80D300F2B11D89DF80D301A46D7
:1048A00022491A2012F016F99DF80D3003F00F037B
:1048B000D9B2009A137861F3030313700AE000235E
:1048C0008DF80F309DF80D301A460F2318491A2025
:1048D00012F077F99DF80E30022B11D19DF80F30B0
:1048E000002B0DD0009B18782EF0D4FD03461A46FD
:1048F00010491A2012F0EEF801238DF80F3006E06F
:104900000D491A2012F05DF900238DF80F309DF843
:104910000F30184605B05DF804FB00BF686A060852
:104920007C6A06088C6A0608A86A0608B86A06083F
:10493000C46A0608D86A0608E46A060884B08DF8D6
:104940000400009100238DF80F309DF80F301846B9
:1049500004B0704700B585B000238DF80F302549AD
:104960001A2012F09AF806F06BFA00230293002343
:10497000019332F042FF00900023029322E0029B59
:104980005B011D4A1344184607F0EAF803468DF808
:104990000F309DF80F30002B03D0019B01330193A2
:1049A0000DE0154A029B5B011344043318782EF086
:1049B00071FD03461A4611491A2012F002F9029BB2
:1049C00001330293029A009B9A42D8D3009A019B2A
:1049D0009A4203D101238DF80F3005E0009B019A24
:1049E00007491A2012F0EDF89DF80F30184605B06F
:1049F0005DF804FB3C6B060828550708446B060865
:104A0000506B060882B08DF804000B468DF8073015
:104A10000023184602B0704784B003468DF8073073
:104A200000238DF80F309DF80730013B082B03D889
:104A300001238DF80F3003E001238DF80F3000BF04
:104A40009DF80F30184604B07047000000B587B0DD
:104A50008DF8040000238DF8173000230493002301
:104A600002930023039332F0C8FE029000230493C4
:104A70000FE09DF804201149049B5B010B440433B3
:104A80001B789A4202D1039B01330393049B0133A9
:104A90000493049A029B9A42EBD3039B012B03D10C
:104AA00001238DF8173002E000238DF817309DF8B0
:104AB0001730184607B05DF804FB00BF28550708FB
:104AC00010B584B00190009100238DF80F300023C1
:104AD0008DF80C3000238DF80B30019B012B07DD86
:104AE00003AB19460098FFF76DFE03468DF80F30B3
:104AF000019B022B1ADD009B08331B680DF10B0292
:104B0000114618460EF073F903468DF80F309DF8E4
:104B10000F3083F00103DBB2002B07D0009B08337A
:104B20001B681A4637491A2012F04BF89DF80F30CF
:104B3000002B5ED0019B022B03D0019B032B18D0CE
:104B40005BE09DF80C0006F0D7FA03468DF80B30B9
:104B50009DF80C002EF09EFC04469DF80B30184684
:104B60002EF0A2FB0346224627491A2011F0B2FF7D
:104B700043E09DF80C002EF08DFC04469DF80B30B0
:104B800018462EF091FB0346224620491A2011F0C8
:104B900084FF9DF80B3019469DF80C00FFF732FF9B
:104BA00003468DF80F309DF80F30002B10D09DF884
:104BB0000C002EF06FFC04469DF80B3018462EF0CA
:104BC00073FB0346224612491A2011F083FF14E0BA
:104BD0009DF80C002EF05EFC04469DF80B30184644
:104BE0002EF062FB034622460A491A2011F0E9FF23
:104BF00003E009491A2011F0E4FF9DF80F30184630
:104C000004B010BDD46B0608E86B0608FC6B060800
:104C1000106C0608206C0608306C060800B585B0DC
:104C20000190009100238DF80F30FF238DF80E3096
:104C300000238DF80C30019B012B0EDD03AB1946D0
:104C40000098FFF7BFFD03468DF80F309DF80F3039
:104C50001F4A19461A2012F065F89DF80F30002BF4
:104C600020D00DF10E0319469DF80C0006F095FDBD
:104C700003468DF80F309DF80F3083F00103DBB24F
:104C8000002B04D013491A2011F09BFF0AE09DF875
:104C90000C002EF0FFFB02469DF80E300E491A2044
:104CA00011F018FF019B022B0BD00C491A2011F0B8
:104CB00088FF0B491A2011F00DFF0A491A2011F044
:104CC00009FF9DF80F30184605B05DF804FB00BFE2
:104CD000486C06084C6C06085C6C0608646C060898
:104CE000786C0608886C060830B587B0039002918E
:104CF00000238DF8173000238DF8153000238DF830
:104D00001430039B012B0EDD05AB19460298FFF70B
:104D100059FD03468DF817309DF81730484A19465B
:104D20001A2011F0FFFF039B022B1ADD029B0833B0
:104D30001B680DF11502114618460EF058F803468F
:104D40008DF817309DF8173083F00103DBB2002B8C
:104D500007D0029B08331B681A463A491A2011F003
:104D600030FF9DF81730002B52D0039B022B03D04D
:104D7000039B032B1CD05EE09DF8140006F0BAFDE7
:104D800003468DF816309DF814002EF083FB05467F
:104D90009DF816409DF8163018462EF01FFA03466F
:104DA000009323462A4628491A2011F093FE42E038
:104DB0009DF8153019469DF8140006F0F5FD0346E0
:104DC0008DF817309DF81730002B10D09DF8140087
:104DD0002EF060FB04469DF8153018462EF0FEF9C3
:104DE0000346224619491A2011F074FE23E09DF86B
:104DF00014002EF04FFB04469DF8153018462EF097
:104E0000EDF90346224612491A2011F0DAFE12E0AB
:104E100010491A2011F0D5FE0F491A2011F05AFE40
:104E20000E491A2011F056FE0D491A2011F052FEBB
:104E300000238DF817309DF81730184607B030BDA5
:104E4000486C0608986C0608B06C0608D06C06081A
:104E5000EC6C06080C6D0608246D0608886C0608C4
:104E6000386D060800B585B00190009100238DF8DB
:104E70000F3000238DF80C30019B012B0EDD03ABAE
:104E800019460098FFF79EFC03468DF80F309DF8F9
:104E90000F30374A19461A2011F044FF019B022BAC
:104EA0001ADD009B08331B680DF10E0211461846EF
:104EB0000DF09DFF03468DF80F309DF80F3083F005
:104EC0000103DBB2002B07D0009B08331B681A4696
:104ED00028491A2011F075FE019B022B12DC26498D
:104EE0001A2011F06EFE25491A2011F0F3FD244915
:104EF0001A2011F0EFFD23491A2011F0EBFD0023D9
:104F00008DF80F309DF80F30002B2BD09DF80C0042
:104F10002EF0C0FA02469DF80E301B491A2011F0FF
:104F2000D9FD9DF80E3019469DF80C0006F05CFC8A
:104F300003468DF80F309DF80F3083F00103DBB28C
:104F4000002B04D011491A2011F03BFE0AE09DF815
:104F50000C002EF09FFA02469DF80E300C491A20E4
:104F600011F0B8FD9DF80F30184605B05DF804FB50
:104F7000486C0608586D0608706D06088C6D0608AA
:104F8000886C0608986D0608A46D0608B06D0608C2
:104F9000CC6D060800B58FB00190009100238DF80C
:104FA00037300023089309AB00221A605A609A60D8
:104FB000DA600023039304AB00221A605A609A60FF
:104FC000DA60019B002B0EDB08AB14222049184647
:104FD00046F05EFC03AB14221D49184646F058FC0F
:104FE00001238DF83730019B002B09DD009B1968E8
:104FF00008AB1422184646F04BFC01238DF83730DD
:10500000019B012B0ADD009B0433196803AB1422BA
:10501000184646F03DFC01238DF83730019B022BEA
:1050200003DD0C491A2011F0CCFD9DF83730002B20
:1050300008D003AA08AB114618462EF0B7FA03466B
:105040008DF837309DF8373018460FB05DF804FB07
:10505000E46D0608E86D060800B585B00190009182
:1050600000238DF80F3000238DF80C30019B012BAD
:105070000EDD03AB19460098FFF7A4FB03468DF83D
:105080000F309DF80F301B4A19461A2011F04AFEC6
:105090009DF80F30002B23D09DF80C0006F0FEFC8D
:1050A00003468DF80F309DF80F3083F00103DBB21B
:1050B000002B0AD09DF80C002EF0ECF903461A469E
:1050C0000D491A2011F07DFD0EE09DF80C002EF028
:1050D000E1F903461A4609491A2011F0FBFC03E0E6
:1050E00007491A2011F06DFD9DF80F30184605B0E4
:1050F0005DF804FB486C0608FC6D06080C6E06089B
:105100001C6E060800B585B00190009100238DF853
:105110000F3000238DF80C30019B012B0EDD03AB0B
:1051200019460098FFF74EFB03468DF80F309DF8A7
:105130000F30184A19461A2011F0F4FD9DF80F306F
:10514000002B1CD000238DF80F309DF80F30002B62
:105150000AD09DF80C002EF09DF903461A460E4920
:105160001A2011F0B7FC0EE09DF80C002EF092F919
:1051700003461A4609491A2011F023FD03E00849A5
:105180001A2011F01EFD9DF80F30184605B05DF88D
:1051900004FB00BF486C06083C6E06084C6E06080F
:1051A0005C6E060800B585B00190009100238DF873
:1051B0000F30019B002B02DB01238DF80F309DF88F
:1051C0000F30002B0BD0FFF7C5FB03468DF80F30D7
:1051D0009DF80F30054A19461A2011F0A3FD9DF8DD
:1051E0000F30184605B05DF804FB00BF7C6E060862
:1051F00000B585B00190009100238DF80F30002399
:105200008DF80E3000238DF80C30019B012B0EDD44
:1052100003AB19460098FFF7D5FA03468DF80F3017
:105220009DF80F30304A19461A2011F07BFD019B82
:10523000022B12DD009B08331B680DF10E02114694
:1052400018460DF0D4FD03468DF80F309DF80F3051
:10525000264A19461A2011F065FD9DF80F30002BE3
:1052600036D0019B022B03D0019B032B1AD035E0D3
:105270000DF10E0319469DF80C0006F0F1FA0346F5
:105280008DF80F309DF80F30002B26D09DF80C00C4
:105290002EF000F902469DF80E3015491A2011F043
:1052A00019FC1AE09DF80C002EF0F4F802469DF867
:1052B0000E3010491A2011F00DFC9DF80E301946E1
:1052C0009DF80C0006F0D4F903468DF80F3005E088
:1052D00009491A2011F075FC00E000BF9DF80F305D
:1052E000184605B05DF804FB486C0608846E060895
:1052F0008C6E06089C6E0608B06E060810B584B069
:105300000190009100238DF80F3000238DF80C30B0
:1053100000238DF80B30019B012B0EDD03AB1946EA
:105320000098FFF74FFA03468DF80F309DF80F30C5
:10533000344A19461A2011F0F5FC019B022B12DDAC
:10534000009B08331B680DF10B02114618460DF047
:105350004EFD03468DF80F309DF80F302A4A19464E
:105360001A2011F0DFFC9DF80F30002B40D0019B7C
:10537000022B03D0019B032B18D03DE09DF80C00BD
:1053800006F092FA03468DF80B309DF80C002EF0D3
:1053900081F804469DF80B3018462DF0D1FF0346E6
:1053A00022461A491A2011F095FB25E09DF80C00C1
:1053B0002EF070F804469DF80B3018462DF0C0FF13
:1053C0000346224612491A2011F084FB9DF80B3047
:1053D00019469DF80C0005F09BFF03468DF80F3031
:1053E0009DF80F300B4A19461A2011F09BFC03E080
:1053F00009491A2011F0E5FB9DF80F30184604B05A
:1054000010BD00BF486C0608846E0608D46E0608FE
:10541000E46E0608F46E0608FC6E060800B585B05A
:105420000190009100238DF80F3000238DF80E308D
:10543000019B002B11DD009B1B680DF10E02114634
:1054400018460DF0D4FC03468DF80F309DF80F3050
:10545000114A19461A2011F065FC9DF80F30002BF7
:105460000FD09DF80E3018462EF0FAF903468DF84D
:105470000F309DF80F30094A19461A2011F052FCDE
:1054800003E007491A2011F09CFB9DF80F301846E5
:1054900005B05DF804FB00BF186F0608206F060812
:1054A000286F060882B000238DF807309DF807307A
:1054B000184602B0704700B585B0019001238DF801
:1054C0000F30019B002B0BD0019BB3F90020019BF7
:1054D0001B7A1946104606F09BFC03468DF80F30E8
:1054E0009DF80F30184605B05DF804FB00B585B097
:1054F00001238DF80F300023029306F0D9FC0346F8
:105500008DF80F3032F0A6F80190019A124901206F
:1055100011F0E0FA019B002B16D0002302930FE05C
:10552000029A13465B0013449B000C4A134418462E
:10553000FFF7C1FF03468DF80F30029B0133029342
:10554000029A019B9A42EBD3FFF7ACFF9DF80F3014
:10555000184605B05DF804FB386F0608F8510708D7
:1055600000B587B00346ADF80630134B0593002312
:1055700004932DF063FD03900023049312E00F4A7F
:10558000049BDB001344B3F90430BDF906209A42B2
:1055900005D10A4A049B52F83330059306E0049B78
:1055A00001330493049A039B9A42E8D3059B18465F
:1055B00007B05DF804FB00BF406F0608B44B070856
:1055C00000B5A9B00390029100238DF89F3000230D
:1055D000ADF89C30774B1B6824330A227649184675
:1055E00011F0DAFD0023ADF89A300023ADF89A30BF
:1055F000C1E000238DF88B3000238DF88A30002322
:105600002593BDF99A30184606F025FC03468DF81F
:105610009330BDF99A30184606F038FC2590BDF954
:105620009A30184606F09DFC23900DF18A020DF188
:105630008B01BDF99A30184606F0A4FC03468DF89C
:105640009F300023049305AB74220021184645F0D7
:105650000BFC04AB5949184646F07CF8BDF99A306A
:1056600004AA04A800931346554A782145F062FF26
:10567000BDF99A301846FFF773FF024604AB04A841
:105680000092504A782145F055FF9DF89330184616
:1056900031F04CFC024604AB04A800924A4A78213F
:1056A00045F048FF04AA04A8259B00931346474AE7
:1056B000782145F03FFF04AA04A8239B00931346DA
:1056C000434A782145F036FF9DF88B301A4604ABEB
:1056D00004A800923F4A782145F02CFF9DF88A30BB
:1056E0001A4604AB04A800923B4A782145F022FFF9
:1056F0009DF88B305BB21846FCF7E8FC024604AB21
:1057000004A80092354A782145F014FF9DF88A30AC
:105710005BB21846FCF7DAFC024604AB04A8009220
:105720002E4A782145F006FF04AB029A03991846E9
:1057300010F0ACFD03468DF89F309DF89F30002B94
:1057400012D0BDF89C301946254812F065F804AB1C
:105750001946244812F060F8BDF89C300133ADF8CA
:105760009C3001238DF89F30BDF99A309BB20133F4
:105770009BB2ADF89A30BDF99A30512B7FF739AF13
:105780000C4B1B6824330A220B49184611F02CFCE1
:10579000BDF89C30002B03D001238DF89F3002E030
:1057A00000238DF89F309DF89F30184629B05DF892
:1057B00004FB00BFB8450020F8320708446F060814
:1057C000486F0608546F0608606F06086C6F06087D
:1057D000786F0608846F0608906F06089C6F0608AD
:1057E000A86F0608B06F060800B587B00390029155
:1057F00000238DF8173000238DF8163000238DF824
:1058000015300023ADF81230039B012B1CD1029BF5
:105810001B680DF11202114618460DF07FFA03467F
:105820008DF817309DF817301A4A1946312011F0BB
:105830002DFA9DF8173083F00103DBB2002B03D063
:105840001549312011F0BDF99DF81730002B17D004
:10585000BDF912300DF115020DF11601184606F0D2
:1058600091FBBDF912301A469DF8163019469DF885
:10587000153000930B460949012011F02BF903E084
:105880000749312011F09DF99DF81730184607B0EF
:105890005DF804FB247006082C70060844700608A6
:1058A0007470060800B585B00190009101238DF851
:1058B0000F309DF80F30002B0CD0FFF7F3FD03469F
:1058C0008DF80F309DF80F30074A1946312011F03E
:1058D000DDF903E00549012011F073F99DF80F305F
:1058E000184605B05DF804FB847006089070060841
:1058F00000B587B00190009100238DF81730002388
